{
  "_format": "hh-sol-artifact-1",
  "contractName": "Proposals",
  "sourceName": "contracts/proposal/proposals.sol",
  "abi": [
    {
      "inputs": [
        {
          "internalType": "address",
          "name": "_authRegistry",
          "type": "address"
        }
      ],
      "stateMutability": "nonpayable",
      "type": "constructor"
    },
    {
      "anonymous": false,
      "inputs": [
        {
          "indexed": true,
          "internalType": "uint256",
          "name": "proposalId",
          "type": "uint256"
        },
        {
          "indexed": true,
          "internalType": "address",
          "name": "creator",
          "type": "address"
        },
        {
          "indexed": false,
          "internalType": "string",
          "name": "titleCid",
          "type": "string"
        },
        {
          "indexed": false,
          "internalType": "string",
          "name": "shortDescriptionCid",
          "type": "string"
        },
        {
          "indexed": false,
          "internalType": "string",
          "name": "descriptionInDetailsCid",
          "type": "string"
        },
        {
          "indexed": false,
          "internalType": "uint256",
          "name": "categoryId",
          "type": "uint256"
        },
        {
          "indexed": false,
          "internalType": "uint256",
          "name": "expiredDate",
          "type": "uint256"
        }
      ],
      "name": "ProposalCreated",
      "type": "event"
    },
    {
      "anonymous": false,
      "inputs": [
        {
          "indexed": true,
          "internalType": "uint256",
          "name": "proposalId",
          "type": "uint256"
        },
        {
          "indexed": false,
          "internalType": "uint256",
          "name": "expiredAt",
          "type": "uint256"
        }
      ],
      "name": "ProposalExpired",
      "type": "event"
    },
    {
      "anonymous": false,
      "inputs": [
        {
          "indexed": true,
          "internalType": "uint256",
          "name": "proposalId",
          "type": "uint256"
        },
        {
          "indexed": false,
          "internalType": "bool",
          "name": "activeStatus",
          "type": "bool"
        }
      ],
      "name": "ProposalStatusChanged",
      "type": "event"
    },
    {
      "anonymous": false,
      "inputs": [
        {
          "indexed": true,
          "internalType": "uint256",
          "name": "proposalId",
          "type": "uint256"
        },
        {
          "indexed": true,
          "internalType": "address",
          "name": "voter",
          "type": "address"
        }
      ],
      "name": "ProposalVotedNo",
      "type": "event"
    },
    {
      "anonymous": false,
      "inputs": [
        {
          "indexed": true,
          "internalType": "uint256",
          "name": "proposalId",
          "type": "uint256"
        },
        {
          "indexed": true,
          "internalType": "address",
          "name": "voter",
          "type": "address"
        }
      ],
      "name": "ProposalVotedYes",
      "type": "event"
    },
    {
      "inputs": [],
      "name": "authRegistry",
      "outputs": [
        {
          "internalType": "contract IAuthRegistry",
          "name": "",
          "type": "address"
        }
      ],
      "stateMutability": "view",
      "type": "function"
    },
    {
      "inputs": [
        {
          "internalType": "uint256",
          "name": "proposalId",
          "type": "uint256"
        },
        {
          "internalType": "bool",
          "name": "newStatus",
          "type": "bool"
        }
      ],
      "name": "changeProposalStatus",
      "outputs": [],
      "stateMutability": "nonpayable",
      "type": "function"
    },
    {
      "inputs": [
        {
          "internalType": "string",
          "name": "titleCid",
          "type": "string"
        },
        {
          "internalType": "string",
          "name": "shortDescriptionCid",
          "type": "string"
        },
        {
          "internalType": "string",
          "name": "descriptionInDetailsCid",
          "type": "string"
        },
        {
          "internalType": "uint256",
          "name": "categoryId",
          "type": "uint256"
        },
        {
          "internalType": "uint256",
          "name": "expiredDate",
          "type": "uint256"
        }
      ],
      "name": "createProposal",
      "outputs": [
        {
          "internalType": "uint256",
          "name": "",
          "type": "uint256"
        }
      ],
      "stateMutability": "nonpayable",
      "type": "function"
    },
    {
      "inputs": [
        {
          "internalType": "uint256",
          "name": "proposalId",
          "type": "uint256"
        }
      ],
      "name": "expireProposal",
      "outputs": [],
      "stateMutability": "nonpayable",
      "type": "function"
    },
    {
      "inputs": [
        {
          "internalType": "uint256",
          "name": "proposalId",
          "type": "uint256"
        },
        {
          "internalType": "uint256",
          "name": "newExpiredDate",
          "type": "uint256"
        }
      ],
      "name": "extendProposalDeadline",
      "outputs": [],
      "stateMutability": "nonpayable",
      "type": "function"
    },
    {
      "inputs": [
        {
          "internalType": "uint256",
          "name": "proposalId",
          "type": "uint256"
        }
      ],
      "name": "getProposal",
      "outputs": [
        {
          "internalType": "string",
          "name": "titleCid",
          "type": "string"
        },
        {
          "internalType": "string",
          "name": "shortDescriptionCid",
          "type": "string"
        },
        {
          "internalType": "string",
          "name": "descriptionInDetailsCid",
          "type": "string"
        },
        {
          "internalType": "uint256",
          "name": "yesVotes",
          "type": "uint256"
        },
        {
          "internalType": "uint256",
          "name": "noVotes",
          "type": "uint256"
        },
        {
          "internalType": "address",
          "name": "creator",
          "type": "address"
        },
        {
          "internalType": "bool",
          "name": "activeStatus",
          "type": "bool"
        },
        {
          "internalType": "uint256",
          "name": "expiredDate",
          "type": "uint256"
        },
        {
          "internalType": "uint256",
          "name": "categoryId",
          "type": "uint256"
        },
        {
          "internalType": "uint256",
          "name": "createdAt",
          "type": "uint256"
        },
        {
          "internalType": "uint256",
          "name": "updatedAt",
          "type": "uint256"
        }
      ],
      "stateMutability": "view",
      "type": "function"
    },
    {
      "inputs": [
        {
          "internalType": "uint256",
          "name": "proposalId",
          "type": "uint256"
        }
      ],
      "name": "getProposalVotes",
      "outputs": [
        {
          "internalType": "uint256",
          "name": "yesVotes",
          "type": "uint256"
        },
        {
          "internalType": "uint256",
          "name": "noVotes",
          "type": "uint256"
        },
        {
          "internalType": "int256",
          "name": "netVotes",
          "type": "int256"
        },
        {
          "internalType": "uint256",
          "name": "totalVotes",
          "type": "uint256"
        },
        {
          "internalType": "uint256",
          "name": "yesPercentage",
          "type": "uint256"
        }
      ],
      "stateMutability": "view",
      "type": "function"
    },
    {
      "inputs": [
        {
          "internalType": "uint256",
          "name": "proposalId",
          "type": "uint256"
        },
        {
          "internalType": "address",
          "name": "user",
          "type": "address"
        }
      ],
      "name": "getUserVote",
      "outputs": [
        {
          "internalType": "bool",
          "name": "hasVotedYes",
          "type": "bool"
        },
        {
          "internalType": "bool",
          "name": "hasVotedNo",
          "type": "bool"
        }
      ],
      "stateMutability": "view",
      "type": "function"
    },
    {
      "inputs": [
        {
          "internalType": "address",
          "name": "",
          "type": "address"
        }
      ],
      "name": "lastCreatedAt",
      "outputs": [
        {
          "internalType": "uint256",
          "name": "",
          "type": "uint256"
        }
      ],
      "stateMutability": "view",
      "type": "function"
    },
    {
      "inputs": [],
      "name": "proposalCount",
      "outputs": [
        {
          "internalType": "uint256",
          "name": "",
          "type": "uint256"
        }
      ],
      "stateMutability": "view",
      "type": "function"
    },
    {
      "inputs": [
        {
          "internalType": "uint256",
          "name": "proposalId",
          "type": "uint256"
        }
      ],
      "name": "removeVote",
      "outputs": [],
      "stateMutability": "nonpayable",
      "type": "function"
    },
    {
      "inputs": [
        {
          "internalType": "uint256",
          "name": "proposalId",
          "type": "uint256"
        }
      ],
      "name": "voteNo",
      "outputs": [],
      "stateMutability": "nonpayable",
      "type": "function"
    },
    {
      "inputs": [
        {
          "internalType": "uint256",
          "name": "proposalId",
          "type": "uint256"
        }
      ],
      "name": "voteYes",
      "outputs": [],
      "stateMutability": "nonpayable",
      "type": "function"
    }
  ],
  "bytecode": "0x6080346100cb57601f6119ca38819003918201601f19168301916001600160401b038311848410176100d0578084926020946040528339810103126100cb57516001600160a01b038116908190036100cb57801561007a57600080546001600160a01b0319169190911790556040516118e390816100e78239f35b60405162461bcd60e51b8152602060048201526024808201527f4175746820726567697374727920616464726573732063616e6e6f74206265206044820152637a65726f60e01b6064820152608490fd5b600080fd5b634e487b7160e01b600052604160045260246000fdfe6080604052600436101561001257600080fd5b60003560e01c806303c7881a1461150c5780631a6f7be51461136757806338c545b4146111685780633f68fde414610fdc57806347c6614014610ef9578063629e025a14610ed05780636a1cf72114610d045780638e295bda1461060d578063b94afa71146105cf578063c7f758a8146104d8578063c966f516146102c4578063da35c664146102a65763e1b526b0146100ab57600080fd5b346102a1576020806003193601126102a15760043560018060a01b0391826000541660405190630935e01b60e21b918281523360048201528381602481855afa80156102785761010391600091610284575b5061162f565b83600052600283526040600020916005830191848354978816610127811515611763565b331492831561021c575b505050156101c55760ff8560a01c1615610180577f1d4acf5b5169381a31b16d43bf25ffcb1d6f22f1127bb0c412a0d970e25affb5939460ff60a01b19169055600942910155604051428152a2005b60405162461bcd60e51b815260048101849052601c60248201527f50726f706f73616c20697320616c726561647920696e616374697665000000006044820152606490fd5b60405162461bcd60e51b815260048101849052602960248201527f4f6e6c792063726561746f72206f722061646d696e2063616e20657870697265604482015268081c1c9bdc1bdcd85b60ba1b6064820152608490fd5b9091925060246040518094819382523360048301525afa9081156102785760009161024b575b50388481610131565b61026b9150843d8611610271575b61026381836115f5565b810190611617565b38610242565b503d610259565b6040513d6000823e3d90fd5b61029b9150853d87116102715761026381836115f5565b386100fd565b600080fd5b346102a15760003660031901126102a1576020600154604051908152f35b346102a15760403660031901126102a157600054604051630935e01b60e21b8082523360048301526001600160a01b03926024803593909260209290919086169083818681855afa801561027857610323916000916104bb575061162f565b6004356000526002835282604060002096600588015416610345811515611763565b3314928315610470575b5050501561041c57600684019182548411156103c9574284111561037b57505055600942910155600080f35b9060226084926040519262461bcd60e51b845260048401528201527f4e657720646561646c696e65206d75737420626520696e207468652066757475604482015261726560f01b6064820152fd5b9060276084926040519262461bcd60e51b845260048401528201527f43616e206f6e6c7920657874656e6420646561646c696e652c206e6f74207265604482015266191d58d9481a5d60ca1b6064820152fd5b60296084926040519262461bcd60e51b845260048401528201527f4f6e6c792063726561746f72206f722061646d696e2063616e20657874656e6460448201526820646561646c696e6560b81b6064820152fd5b90919250846040518094819382523360048301525afa9081156102785760009161049e575b5085828161034f565b6104b59150823d84116102715761026381836115f5565b85610495565b6104d29150853d87116102715761026381836115f5565b886100fd565b346102a15760203660031901126102a1576004356000908152600260205260409020600581015461057d906001600160a01b03811690610519821515611763565b600384015491600485015491600686015460ff60078801549260088901549460098a0154966105998b61058b610566600261055f600161055886611807565b9501611807565b9f01611807565b916040519e8f9e8f926101608085528401906115b5565b9160208184039101526115b5565b8c810360408e0152906115b5565b9860608b015260808a015260a089015260a01c16151560c087015260e08601526101008501526101208401526101408301520390f35b346102a15760203660031901126102a1576004356001600160a01b038116908190036102a15760005260036020526020604060002054604051908152f35b346102a15760a03660031901126102a15760043567ffffffffffffffff81116102a15761063e903690600401611587565b9060243567ffffffffffffffff81116102a15761065f903690600401611587565b60449391843567ffffffffffffffff81116102a157610682903690600401611587565b600054604051630935e01b60e21b8152336004820152929791949290602090829060249082906001600160a01b03165afa8015610278576106ca91600091610ce5575061162f565b8415610ca1578115610c4f578315610bfa57426084351115610bab5760643515610b6757506106fa600154611671565b9485600155856000526002602052604060002067ffffffffffffffff86116109dd576107268154611680565b601f8111610b23575b50856000601f8211600114610abe57600091610ab3575b508660011b906000198860031b1c19161781555b67ffffffffffffffff83116109dd576107766001820154611680565b601f8111610a6c575b50826000601f82116001146109fe576000916109f3575b508360011b906000198560031b1c19161760018201555b67ffffffffffffffff85116109dd576107c96002820154611680565b601f8111610992575b509160209793918795936000601f86116001146108f357926108ae6108bb937fa545c4dca3f89091030a281bf4422840f14e6fdb422e08ca04c8d6ae025f9d5e989693886108c999976000916108e8575b508760011b906000198960031b1c19161760028201555b600581018054600160a01b9060ff60a01b193316906affffffffffffffffffffff60a81b16171790556000600382015560006004820155606435600782015560843560068201554260088201556009429101553360005260038d52426040600020556040519a60a08c5260a08c01916116ba565b918983038c8b01526116ba565b9186830360408801526116ba565b92606435606082015260843560808201528033940390a3604051908152f35b90508801358f610823565b600282016000528a6000209060005b601f198816811061097857506108bb937fa545c4dca3f89091030a281bf4422840f14e6fdb422e08ca04c8d6ae025f9d5e9896938896936108ae936108c99a601f1981161061095e575b5050600187811b01600282015561083a565b89013560001960038a901b60f8161c191690558e8061094c565b8189013583558b9950600190920191908c01908c01610902565b600282016000526020600020601f870160051c810191602088106109d3575b601f0160051c01905b8181106109c757506107d2565b600081556001016109ba565b90915081906109b1565b634e487b7160e01b600052604160045260246000fd5b905084013589610796565b90506001820160005260206000209060005b601f1986168110610a54575084601f19811610610a3a575b5050600183811b0160018201556107ad565b850135600019600386901b60f8161c191690558880610a28565b9091602060018192858a013581550193019101610a10565b600182016000526020600020601f850160051c810160208610610aac575b601f830160051c82018110610aa057505061077f565b60008155600101610a8a565b5080610a8a565b905082013589610746565b60008381526020812092505b601f1989168110610b0b575087601f19811610610af1575b5050600186811b01815561075a565b830135600019600389901b60f8161c191690558880610ae2565b90916020600181928588013581550193019101610aca565b816000526020600020601f880160051c810160208910610b60575b601f830160051c82018110610b5457505061072f565b60008155600101610b3e565b5080610b3e565b6064907f43617465676f7279204944206d7573742062652076616c6964000000000000006040519162461bcd60e51b83526020600484015260196024840152820152fd5b6084907f457870697265642064617465206d75737420626520696e2074686520667574756040519162461bcd60e51b8352602060048401526022602484015282015261726560f01b6064820152fd5b6084907f44657461696c6564206465736372697074696f6e204349442063616e6e6f74206040519162461bcd60e51b8352602060048401526028602484015282015267626520656d70747960c01b6064820152fd5b6084907f53686f7274206465736372697074696f6e204349442063616e6e6f74206265206040519162461bcd60e51b8352602060048401526025602484015282015264656d70747960d81b6064820152fd5b6064907f5469746c65204349442063616e6e6f7420626520656d707479000000000000006040519162461bcd60e51b83526020600484015260196024840152820152fd5b610cfe915060203d6020116102715761026381836115f5565b896100fd565b346102a1576020806003193601126102a1576004359060018060a01b03906024818360005416604051928380926301fd3f7760e71b82523360048301525afa801561027857610d5a91600091610eb3575061162f565b8260005260028152610d8860066040600020610d7f60ff600583015460a01c166116db565b01544210611720565b826000526002815260406000209160058301541690610da8821515611763565b600a8301913360005282825260ff60406000205416610e5a57610dcd903314156117af565b33600052600b830181526040600020805460ff8116610e3d575b505033600052526040600020600160ff1982541617905560038101610e0c8154611671565b905560094291015533907f91d72fe165abd5430e48336de75685d3f58eaeab2eb2d7b644ef7403642d116f600080a3005b60ff1916905560048301610e5181546117fa565b90558480610de7565b60405162461bcd60e51b815260048101839052602b60248201527f596f75206861766520616c726561647920766f74656420594553206f6e20746860448201526a1a5cc81c1c9bdc1bdcd85b60aa1b6064820152608490fd5b610eca9150833d85116102715761026381836115f5565b856100fd565b346102a15760003660031901126102a1576000546040516001600160a01b039091168152602090f35b346102a15760203660031901126102a15760043560009081526002602052604090206005810154610f34906001600160a01b03161515611763565b6004600382015491015490818103916000811282841281169083851390151617610fba57808201808311610fba5780159384610fd057606484029484860460641485151715610fba57610fa4578160a09504925b6040519485526020850152604084015260608301526080820152f35b634e487b7160e01b600052601260045260246000fd5b634e487b7160e01b600052601160045260246000fd5b60a09450600092610f88565b346102a1576020806003193601126102a1576004359060018060a01b03916024828460005416604051928380926301fd3f7760e71b82523360048301525afa80156102785761103291600091611151575061162f565b806000526002825261105760066040600020610d7f60ff600583015460a01c166116db565b600052600281526110746040600020926005840154161515611763565b600033600052600a830182526040600020805460ff8116611130575b505033600052600b830182526040600020805460ff811661110f575b5050156110bf5750600942910155600080f35b6084906040519062461bcd60e51b82526004820152602360248201527f596f752068617665206e6f7420766f746564206f6e20746869732070726f706f6044820152621cd85b60ea1b6064820152fd5b60ff1916905550600482018054611125906117fa565b9055600183806110ac565b60ff1916905550600382018054611146906117fa565b905560018380611090565b610eca9150843d86116102715761026381836115f5565b346102a15760403660031901126102a157600435602435908115158092036102a157600054604051630935e01b60e21b8082523360048301526001600160a01b03946020939092908616908481602481855afa8015610278576111d291600091611350575061162f565b846000526002845260406000209160058301918583549889166111f6811515611763565b3314928315611304575b505050156112af578260ff8760a01c1615151461125e577f68e3ce211a37937184ed2d0165534a314cff3c8b8bd7dcdd845523b07698450f949560ff60a01b8460a01b169060ff60a01b1916179055600942910155604051908152a2005b60405162461bcd60e51b815260048101859052602360248201527f53746174757320697320616c72656164792073657420746f20746869732076616044820152626c756560e81b6064820152608490fd5b60405162461bcd60e51b815260048101859052602760248201527f4f6e6c792063726561746f72206f722061646d696e2063616e206368616e67656044820152662073746174757360c81b6064820152608490fd5b9091925060246040518094819382523360048301525afa90811561027857600091611333575b50878581611200565b61134a9150853d87116102715761026381836115f5565b8761132a565b6104d29150863d88116102715761026381836115f5565b346102a1576020806003193601126102a1576004359060018060a01b03906024818360005416604051928380926301fd3f7760e71b82523360048301525afa8015610278576113bd91600091610eb3575061162f565b82600052600281526113e260066040600020610d7f60ff600583015460a01c166116db565b826000526002815260406000209160058301541690611402821515611763565b600b8301913360005282825260ff604060002054166114b457611427903314156117af565b33600052600a830181526040600020805460ff8116611497575b505033600052526040600020600160ff19825416179055600481016114668154611671565b905560094291015533907ff22f90ec8ca04cbb8fbcb15687d8dc5dcc4d74eaf1529b699367f232b785358b600080a3005b60ff19169055600383016114ab81546117fa565b90558480611441565b60405162461bcd60e51b815260048101839052602a60248201527f596f75206861766520616c726561647920766f746564204e4f206f6e207468696044820152691cc81c1c9bdc1bdcd85b60b21b6064820152608490fd5b346102a15760403660031901126102a1576024356001600160a01b03818116918290036102a157604091600435600052600260205261155683600020926005840154161515611763565b600052600a8101602052600b60ff836000205416910160205260ff8260002054168251911515825215156020820152f35b9181601f840112156102a15782359167ffffffffffffffff83116102a157602083818601950101116102a157565b919082519283825260005b8481106115e1575050826000602080949584010152601f8019910116010190565b6020818301810151848301820152016115c0565b90601f8019910116810190811067ffffffffffffffff8211176109dd57604052565b908160209103126102a1575180151581036102a15790565b1561163657565b60405162461bcd60e51b8152602060048201526013602482015272155cd95c881b9bdd08185d5d1a1bdc9a5e9959606a1b6044820152606490fd5b6000198114610fba5760010190565b90600182811c921680156116b0575b602083101461169a57565b634e487b7160e01b600052602260045260246000fd5b91607f169161168f565b908060209392818452848401376000828201840152601f01601f1916010190565b156116e257565b60405162461bcd60e51b815260206004820152601660248201527550726f706f73616c206973206e6f742061637469766560501b6044820152606490fd5b1561172757565b60405162461bcd60e51b8152602060048201526014602482015273141c9bdc1bdcd85b081a185cc8195e1c1a5c995960621b6044820152606490fd5b1561176a57565b60405162461bcd60e51b815260206004820152601760248201527f50726f706f73616c20646f6573206e6f742065786973740000000000000000006044820152606490fd5b156117b657565b606460405162461bcd60e51b815260206004820152602060248201527f43616e6e6f7420766f7465206f6e20796f7572206f776e2070726f706f73616c6044820152fd5b8015610fba576000190190565b906040519182600082549261181b84611680565b90818452600194858116908160001461188a5750600114611847575b5050611845925003836115f5565b565b9093915060005260209081600020936000915b81831061187257505061184593508201013880611837565b8554888401850152948501948794509183019161185a565b91505061184594506020925060ff191682840152151560051b820101388061183756fea264697066735822122092181f7a94877dde2996ddefb6f4f0c8902b08de491bbb426569e960a213571664736f6c63430008140033",
  "linkReferences": {},
  "deployedLinkReferences": {}
}