{
  "_format": "hh-sol-artifact-1",
  "contractName": "Proposals",
  "sourceName": "contracts/proposal/proposals.sol",
  "abi": [
    {
      "inputs": [
        {
          "internalType": "address",
          "name": "_authRegistry",
          "type": "address"
        }
      ],
      "stateMutability": "nonpayable",
      "type": "constructor"
    },
    {
      "anonymous": false,
      "inputs": [
        {
          "indexed": true,
          "internalType": "uint256",
          "name": "proposalId",
          "type": "uint256"
        },
        {
          "indexed": true,
          "internalType": "address",
          "name": "creator",
          "type": "address"
        },
        {
          "indexed": false,
          "internalType": "string",
          "name": "titleCid",
          "type": "string"
        },
        {
          "indexed": false,
          "internalType": "string",
          "name": "shortDescriptionCid",
          "type": "string"
        },
        {
          "indexed": false,
          "internalType": "string",
          "name": "descriptionInDetailsCid",
          "type": "string"
        },
        {
          "indexed": false,
          "internalType": "uint256",
          "name": "categoryId",
          "type": "uint256"
        },
        {
          "indexed": false,
          "internalType": "uint256",
          "name": "expiredDate",
          "type": "uint256"
        }
      ],
      "name": "ProposalCreated",
      "type": "event"
    },
    {
      "anonymous": false,
      "inputs": [
        {
          "indexed": true,
          "internalType": "uint256",
          "name": "proposalId",
          "type": "uint256"
        },
        {
          "indexed": false,
          "internalType": "uint256",
          "name": "expiredAt",
          "type": "uint256"
        }
      ],
      "name": "ProposalExpired",
      "type": "event"
    },
    {
      "anonymous": false,
      "inputs": [
        {
          "indexed": true,
          "internalType": "uint256",
          "name": "proposalId",
          "type": "uint256"
        },
        {
          "indexed": false,
          "internalType": "bool",
          "name": "activeStatus",
          "type": "bool"
        }
      ],
      "name": "ProposalStatusChanged",
      "type": "event"
    },
    {
      "anonymous": false,
      "inputs": [
        {
          "indexed": true,
          "internalType": "uint256",
          "name": "proposalId",
          "type": "uint256"
        },
        {
          "indexed": true,
          "internalType": "address",
          "name": "voter",
          "type": "address"
        }
      ],
      "name": "ProposalVotedNo",
      "type": "event"
    },
    {
      "anonymous": false,
      "inputs": [
        {
          "indexed": true,
          "internalType": "uint256",
          "name": "proposalId",
          "type": "uint256"
        },
        {
          "indexed": true,
          "internalType": "address",
          "name": "voter",
          "type": "address"
        }
      ],
      "name": "ProposalVotedYes",
      "type": "event"
    },
    {
      "inputs": [],
      "name": "authRegistry",
      "outputs": [
        {
          "internalType": "contract IAuthRegistry",
          "name": "",
          "type": "address"
        }
      ],
      "stateMutability": "view",
      "type": "function"
    },
    {
      "inputs": [
        {
          "internalType": "uint256",
          "name": "proposalId",
          "type": "uint256"
        },
        {
          "internalType": "bool",
          "name": "newStatus",
          "type": "bool"
        }
      ],
      "name": "changeProposalStatus",
      "outputs": [],
      "stateMutability": "nonpayable",
      "type": "function"
    },
    {
      "inputs": [
        {
          "internalType": "string",
          "name": "titleCid",
          "type": "string"
        },
        {
          "internalType": "string",
          "name": "shortDescriptionCid",
          "type": "string"
        },
        {
          "internalType": "string",
          "name": "descriptionInDetailsCid",
          "type": "string"
        },
        {
          "internalType": "uint256",
          "name": "categoryId",
          "type": "uint256"
        },
        {
          "internalType": "uint256",
          "name": "expiredDate",
          "type": "uint256"
        }
      ],
      "name": "createProposal",
      "outputs": [
        {
          "internalType": "uint256",
          "name": "",
          "type": "uint256"
        }
      ],
      "stateMutability": "nonpayable",
      "type": "function"
    },
    {
      "inputs": [
        {
          "internalType": "uint256",
          "name": "proposalId",
          "type": "uint256"
        }
      ],
      "name": "expireProposal",
      "outputs": [],
      "stateMutability": "nonpayable",
      "type": "function"
    },
    {
      "inputs": [
        {
          "internalType": "uint256",
          "name": "proposalId",
          "type": "uint256"
        },
        {
          "internalType": "uint256",
          "name": "newExpiredDate",
          "type": "uint256"
        }
      ],
      "name": "extendProposalDeadline",
      "outputs": [],
      "stateMutability": "nonpayable",
      "type": "function"
    },
    {
      "inputs": [
        {
          "internalType": "uint256",
          "name": "proposalId",
          "type": "uint256"
        }
      ],
      "name": "getProposal",
      "outputs": [
        {
          "internalType": "string",
          "name": "titleCid",
          "type": "string"
        },
        {
          "internalType": "string",
          "name": "shortDescriptionCid",
          "type": "string"
        },
        {
          "internalType": "string",
          "name": "descriptionInDetailsCid",
          "type": "string"
        },
        {
          "internalType": "uint256",
          "name": "yesVotes",
          "type": "uint256"
        },
        {
          "internalType": "uint256",
          "name": "noVotes",
          "type": "uint256"
        },
        {
          "internalType": "address",
          "name": "creator",
          "type": "address"
        },
        {
          "internalType": "bool",
          "name": "activeStatus",
          "type": "bool"
        },
        {
          "internalType": "uint256",
          "name": "expiredDate",
          "type": "uint256"
        },
        {
          "internalType": "uint256",
          "name": "categoryId",
          "type": "uint256"
        },
        {
          "internalType": "uint256",
          "name": "createdAt",
          "type": "uint256"
        },
        {
          "internalType": "uint256",
          "name": "updatedAt",
          "type": "uint256"
        },
        {
          "internalType": "bool",
          "name": "removed",
          "type": "bool"
        }
      ],
      "stateMutability": "view",
      "type": "function"
    },
    {
      "inputs": [
        {
          "internalType": "uint256",
          "name": "proposalId",
          "type": "uint256"
        }
      ],
      "name": "getProposalVotes",
      "outputs": [
        {
          "internalType": "uint256",
          "name": "yesVotes",
          "type": "uint256"
        },
        {
          "internalType": "uint256",
          "name": "noVotes",
          "type": "uint256"
        },
        {
          "internalType": "int256",
          "name": "netVotes",
          "type": "int256"
        },
        {
          "internalType": "uint256",
          "name": "totalVotes",
          "type": "uint256"
        },
        {
          "internalType": "uint256",
          "name": "yesPercentage",
          "type": "uint256"
        }
      ],
      "stateMutability": "view",
      "type": "function"
    },
    {
      "inputs": [
        {
          "internalType": "address",
          "name": "",
          "type": "address"
        }
      ],
      "name": "lastCreatedAt",
      "outputs": [
        {
          "internalType": "uint256",
          "name": "",
          "type": "uint256"
        }
      ],
      "stateMutability": "view",
      "type": "function"
    },
    {
      "inputs": [],
      "name": "proposalCount",
      "outputs": [
        {
          "internalType": "uint256",
          "name": "",
          "type": "uint256"
        }
      ],
      "stateMutability": "view",
      "type": "function"
    },
    {
      "inputs": [
        {
          "internalType": "uint256",
          "name": "proposalId",
          "type": "uint256"
        }
      ],
      "name": "removeProposal",
      "outputs": [],
      "stateMutability": "nonpayable",
      "type": "function"
    },
    {
      "inputs": [
        {
          "internalType": "uint256",
          "name": "proposalId",
          "type": "uint256"
        }
      ],
      "name": "removeVote",
      "outputs": [],
      "stateMutability": "nonpayable",
      "type": "function"
    },
    {
      "inputs": [
        {
          "internalType": "uint256",
          "name": "proposalId",
          "type": "uint256"
        }
      ],
      "name": "voteNo",
      "outputs": [],
      "stateMutability": "nonpayable",
      "type": "function"
    },
    {
      "inputs": [
        {
          "internalType": "uint256",
          "name": "proposalId",
          "type": "uint256"
        }
      ],
      "name": "voteYes",
      "outputs": [],
      "stateMutability": "nonpayable",
      "type": "function"
    }
  ],
  "bytecode": "0x6080346100cb57601f611af538819003918201601f19168301916001600160401b038311848410176100d0578084926020946040528339810103126100cb57516001600160a01b038116908190036100cb57801561007a57600080546001600160a01b031916919091179055604051611a0e90816100e78239f35b60405162461bcd60e51b8152602060048201526024808201527f4175746820726567697374727920616464726573732063616e6e6f74206265206044820152637a65726f60e01b6064820152608490fd5b600080fd5b634e487b7160e01b600052604160045260246000fdfe608080604052600436101561001357600080fd5b60003560e01c9081631a6f7be5146115115750806338c545b4146113125780633f68fde41461118657806347c66140146110a35780634ce4e6c714610f09578063629e025a14610ee05780636a1cf72114610d145780638e295bda1461061d578063b94afa71146105df578063c7f758a8146104db578063c966f516146102c7578063da35c664146102a95763e1b526b0146100ae57600080fd5b346102a4576020806003193601126102a45760043560018060a01b0391826000541660405190630935e01b60e21b918281523360048201528381602481855afa801561027b5761010691600091610287575b5061175a565b8360005260028352604060002091600583019184835497881661012a81151561188e565b331492831561021f575b505050156101c85760ff8560a01c1615610183577f1d4acf5b5169381a31b16d43bf25ffcb1d6f22f1127bb0c412a0d970e25affb5939460ff60a01b19169055600942910155604051428152a2005b60405162461bcd60e51b815260048101849052601c60248201527f50726f706f73616c20697320616c726561647920696e616374697665000000006044820152606490fd5b60405162461bcd60e51b815260048101849052602960248201527f4f6e6c792063726561746f72206f722061646d696e2063616e20657870697265604482015268081c1c9bdc1bdcd85b60ba1b6064820152608490fd5b9091925060246040518094819382523360048301525afa90811561027b5760009161024e575b50388481610134565b61026e9150843d8611610274575b6102668183611720565b810190611742565b38610245565b503d61025c565b6040513d6000823e3d90fd5b61029e9150853d8711610274576102668183611720565b38610100565b600080fd5b346102a45760003660031901126102a4576020600154604051908152f35b346102a45760403660031901126102a457600054604051630935e01b60e21b8082523360048301526001600160a01b03926024803593909260209290919086169083818681855afa801561027b57610326916000916104be575061175a565b600435600052600283528260406000209660058801541661034881151561188e565b3314928315610473575b5050501561041f57600684019182548411156103cc574284111561037e57505055600942910155600080f35b9060226084926040519262461bcd60e51b845260048401528201527f4e657720646561646c696e65206d75737420626520696e207468652066757475604482015261726560f01b6064820152fd5b9060276084926040519262461bcd60e51b845260048401528201527f43616e206f6e6c7920657874656e6420646561646c696e652c206e6f74207265604482015266191d58d9481a5d60ca1b6064820152fd5b60296084926040519262461bcd60e51b845260048401528201527f4f6e6c792063726561746f72206f722061646d696e2063616e20657874656e6460448201526820646561646c696e6560b81b6064820152fd5b90919250846040518094819382523360048301525afa90811561027b576000916104a1575b50858281610352565b6104b89150823d8411610274576102668183611720565b85610498565b6104d59150853d8711610274576102668183611720565b88610100565b346102a45760203660031901126102a457600435600090815260026020526040902060058101546001600160a01b03811661051781151561188e565b60038301549060048401549260068501546007860154600887015491600988015493600a89015460ff169561054b8a611932565b9861055860018c01611932565b9a60020161056590611932565b6040519b8c9b8c6101808091528d0161057d916116e0565b8c810360208e015261058e916116e0565b8b810360408d015261059f916116e0565b9860608b015260808a015260a089015260a01c60ff16151560c088015260e087015261010086015261012085015261014084015215156101608301520390f35b346102a45760203660031901126102a4576004356001600160a01b038116908190036102a45760005260036020526020604060002054604051908152f35b346102a45760a03660031901126102a45760043567ffffffffffffffff81116102a45761064e9036906004016116b2565b9060243567ffffffffffffffff81116102a45761066f9036906004016116b2565b60449391843567ffffffffffffffff81116102a4576106929036906004016116b2565b600054604051630935e01b60e21b8152336004820152929791949290602090829060249082906001600160a01b03165afa801561027b576106da91600091610cf5575061175a565b8415610cb1578115610c5f578315610c0a57426084351115610bbb5760643515610b77575061070a60015461179c565b9485600155856000526002602052604060002067ffffffffffffffff86116109ed5761073681546117ab565b601f8111610b33575b50856000601f8211600114610ace57600091610ac3575b508660011b906000198860031b1c19161781555b67ffffffffffffffff83116109ed5761078660018201546117ab565b601f8111610a7c575b50826000601f8211600114610a0e57600091610a03575b508360011b906000198560031b1c19161760018201555b67ffffffffffffffff85116109ed576107d960028201546117ab565b601f81116109a2575b509160209793918795936000601f861160011461090357926108be6108cb937fa545c4dca3f89091030a281bf4422840f14e6fdb422e08ca04c8d6ae025f9d5e989693886108d999976000916108f8575b508760011b906000198960031b1c19161760028201555b600581018054600160a01b9060ff60a01b193316906affffffffffffffffffffff60a81b16171790556000600382015560006004820155606435600782015560843560068201554260088201556009429101553360005260038d52426040600020556040519a60a08c5260a08c01916117e5565b918983038c8b01526117e5565b9186830360408801526117e5565b92606435606082015260843560808201528033940390a3604051908152f35b90508801358f610833565b600282016000528a6000209060005b601f198816811061098857506108cb937fa545c4dca3f89091030a281bf4422840f14e6fdb422e08ca04c8d6ae025f9d5e9896938896936108be936108d99a601f1981161061096e575b5050600187811b01600282015561084a565b89013560001960038a901b60f8161c191690558e8061095c565b8189013583558b9950600190920191908c01908c01610912565b600282016000526020600020601f870160051c810191602088106109e3575b601f0160051c01905b8181106109d757506107e2565b600081556001016109ca565b90915081906109c1565b634e487b7160e01b600052604160045260246000fd5b9050840135896107a6565b90506001820160005260206000209060005b601f1986168110610a64575084601f19811610610a4a575b5050600183811b0160018201556107bd565b850135600019600386901b60f8161c191690558880610a38565b9091602060018192858a013581550193019101610a20565b600182016000526020600020601f850160051c810160208610610abc575b601f830160051c82018110610ab057505061078f565b60008155600101610a9a565b5080610a9a565b905082013589610756565b60008381526020812092505b601f1989168110610b1b575087601f19811610610b01575b5050600186811b01815561076a565b830135600019600389901b60f8161c191690558880610af2565b90916020600181928588013581550193019101610ada565b816000526020600020601f880160051c810160208910610b70575b601f830160051c82018110610b6457505061073f565b60008155600101610b4e565b5080610b4e565b6064907f43617465676f7279204944206d7573742062652076616c6964000000000000006040519162461bcd60e51b83526020600484015260196024840152820152fd5b6084907f457870697265642064617465206d75737420626520696e2074686520667574756040519162461bcd60e51b8352602060048401526022602484015282015261726560f01b6064820152fd5b6084907f44657461696c6564206465736372697074696f6e204349442063616e6e6f74206040519162461bcd60e51b8352602060048401526028602484015282015267626520656d70747960c01b6064820152fd5b6084907f53686f7274206465736372697074696f6e204349442063616e6e6f74206265206040519162461bcd60e51b8352602060048401526025602484015282015264656d70747960d81b6064820152fd5b6064907f5469746c65204349442063616e6e6f7420626520656d707479000000000000006040519162461bcd60e51b83526020600484015260196024840152820152fd5b610d0e915060203d602011610274576102668183611720565b89610100565b346102a4576020806003193601126102a4576004359060018060a01b03906024818360005416604051928380926301fd3f7760e71b82523360048301525afa801561027b57610d6a91600091610ec3575061175a565b8260005260028152610d9860066040600020610d8f60ff600583015460a01c16611806565b0154421061184b565b826000526002815260406000209160058301541690610db882151561188e565b600b8301913360005282825260ff60406000205416610e6a57610ddd903314156118da565b33600052600c830181526040600020805460ff8116610e4d575b505033600052526040600020600160ff1982541617905560038101610e1c815461179c565b905560094291015533907f91d72fe165abd5430e48336de75685d3f58eaeab2eb2d7b644ef7403642d116f600080a3005b60ff1916905560048301610e618154611925565b90558480610df7565b60405162461bcd60e51b815260048101839052602b60248201527f596f75206861766520616c726561647920766f74656420594553206f6e20746860448201526a1a5cc81c1c9bdc1bdcd85b60aa1b6064820152608490fd5b610eda9150833d8511610274576102668183611720565b85610100565b346102a45760003660031901126102a4576000546040516001600160a01b039091168152602090f35b346102a4576020806003193601126102a457600435600081815260028352604090206005810180549391906001600160a01b0383818716610f4b81151561188e565b331491821561104d575b505015610ff657600a82019485549560ff8716610fb15760017f68e3ce211a37937184ed2d0165534a314cff3c8b8bd7dcdd845523b07698450f969760ff191617905560ff60a01b1916905560094291015560405160008152a2005b60405162461bcd60e51b815260048101869052601860248201527f50726f706f73616c20616c72656164792072656d6f76656400000000000000006044820152606490fd5b60405162461bcd60e51b815260048101849052602960248201527f4f6e6c792063726561746f72206f722061646d696e2063616e2072656d6f7665604482015268081c1c9bdc1bdcd85b60ba1b6064820152608490fd5b600054604051630935e01b60e21b8152336004820152935083916024918391165afa90811561027b57600091611086575b508387610f55565b61109d9150843d8611610274576102668183611720565b8661107e565b346102a45760203660031901126102a457600435600090815260026020526040902060058101546110de906001600160a01b0316151561188e565b600460038201549101549081810391600081128284128116908385139015161761116457808201808311611164578015938461117a576064840294848604606414851517156111645761114e578160a09504925b6040519485526020850152604084015260608301526080820152f35b634e487b7160e01b600052601260045260246000fd5b634e487b7160e01b600052601160045260246000fd5b60a09450600092611132565b346102a4576020806003193601126102a4576004359060018060a01b03916024828460005416604051928380926301fd3f7760e71b82523360048301525afa801561027b576111dc916000916112fb575061175a565b806000526002825261120160066040600020610d8f60ff600583015460a01c16611806565b6000526002815261121e604060002092600584015416151561188e565b600033600052600b830182526040600020805460ff81166112da575b505033600052600c830182526040600020805460ff81166112b9575b5050156112695750600942910155600080f35b6084906040519062461bcd60e51b82526004820152602360248201527f596f752068617665206e6f7420766f746564206f6e20746869732070726f706f6044820152621cd85b60ea1b6064820152fd5b60ff19169055506004820180546112cf90611925565b905560018380611256565b60ff19169055506003820180546112f090611925565b90556001838061123a565b610eda9150843d8611610274576102668183611720565b346102a45760403660031901126102a457600435602435908115158092036102a457600054604051630935e01b60e21b8082523360048301526001600160a01b03946020939092908616908481602481855afa801561027b5761137c916000916114fa575061175a565b846000526002845260406000209160058301918583549889166113a081151561188e565b33149283156114ae575b50505015611459578260ff8760a01c16151514611408577f68e3ce211a37937184ed2d0165534a314cff3c8b8bd7dcdd845523b07698450f949560ff60a01b8460a01b169060ff60a01b1916179055600942910155604051908152a2005b60405162461bcd60e51b815260048101859052602360248201527f53746174757320697320616c72656164792073657420746f20746869732076616044820152626c756560e81b6064820152608490fd5b60405162461bcd60e51b815260048101859052602760248201527f4f6e6c792063726561746f72206f722061646d696e2063616e206368616e67656044820152662073746174757360c81b6064820152608490fd5b9091925060246040518094819382523360048301525afa90811561027b576000916114dd575b508785816113aa565b6114f49150853d8711610274576102668183611720565b876114d4565b6104d59150863d8811610274576102668183611720565b346102a457602090816003193601126102a4576004359160018060a01b0391818160248186600054166301fd3f7760e71b82523360048301525afa801561027b5761156391600091610ec3575061175a565b826000526002815261158860066040600020610d8f60ff600583015460a01c16611806565b8260005260028152604060002091600583015416906115a882151561188e565b600c8301913360005282825260ff6040600020541661165a576115cd903314156118da565b33600052600b830181526040600020805460ff811661163d575b505033600052526040600020600160ff198254161790556004810161160c815461179c565b905560094291015533907ff22f90ec8ca04cbb8fbcb15687d8dc5dcc4d74eaf1529b699367f232b785358b600080a3005b60ff19169055600383016116518154611925565b905584806115e7565b60405162461bcd60e51b815260048101839052602a60248201527f596f75206861766520616c726561647920766f746564204e4f206f6e207468696044820152691cc81c1c9bdc1bdcd85b60b21b6064820152608490fd5b9181601f840112156102a45782359167ffffffffffffffff83116102a457602083818601950101116102a457565b919082519283825260005b84811061170c575050826000602080949584010152601f8019910116010190565b6020818301810151848301820152016116eb565b90601f8019910116810190811067ffffffffffffffff8211176109ed57604052565b908160209103126102a4575180151581036102a45790565b1561176157565b60405162461bcd60e51b8152602060048201526013602482015272155cd95c881b9bdd08185d5d1a1bdc9a5e9959606a1b6044820152606490fd5b60001981146111645760010190565b90600182811c921680156117db575b60208310146117c557565b634e487b7160e01b600052602260045260246000fd5b91607f16916117ba565b908060209392818452848401376000828201840152601f01601f1916010190565b1561180d57565b60405162461bcd60e51b815260206004820152601660248201527550726f706f73616c206973206e6f742061637469766560501b6044820152606490fd5b1561185257565b60405162461bcd60e51b8152602060048201526014602482015273141c9bdc1bdcd85b081a185cc8195e1c1a5c995960621b6044820152606490fd5b1561189557565b60405162461bcd60e51b815260206004820152601760248201527f50726f706f73616c20646f6573206e6f742065786973740000000000000000006044820152606490fd5b156118e157565b606460405162461bcd60e51b815260206004820152602060248201527f43616e6e6f7420766f7465206f6e20796f7572206f776e2070726f706f73616c6044820152fd5b8015611164576000190190565b9060405191826000825492611946846117ab565b9081845260019485811690816000146119b55750600114611972575b505061197092500383611720565b565b9093915060005260209081600020936000915b81831061199d57505061197093508201013880611962565b85548884018501529485019487945091830191611985565b91505061197094506020925060ff191682840152151560051b820101388061196256fea26469706673582212203f16237e37c21b2a04baea0f78daa5ee9aa0b9def66469f6116ce896fd00c6b364736f6c63430008140033",
  "linkReferences": {},
  "deployedLinkReferences": {}
}