{
  "_format": "hh-sol-artifact-1",
  "contractName": "Proposals",
  "sourceName": "contracts/proposal/proposals.sol",
  "abi": [
    {
      "inputs": [
        {
          "internalType": "address",
          "name": "_authRegistry",
          "type": "address"
        }
      ],
      "stateMutability": "nonpayable",
      "type": "constructor"
    },
    {
      "anonymous": false,
      "inputs": [
        {
          "indexed": true,
          "internalType": "uint256",
          "name": "proposalId",
          "type": "uint256"
        },
        {
          "indexed": true,
          "internalType": "address",
          "name": "creator",
          "type": "address"
        },
        {
          "indexed": false,
          "internalType": "string",
          "name": "titleCid",
          "type": "string"
        },
        {
          "indexed": false,
          "internalType": "string",
          "name": "shortDescriptionCid",
          "type": "string"
        },
        {
          "indexed": false,
          "internalType": "string",
          "name": "descriptionInDetailsCid",
          "type": "string"
        },
        {
          "indexed": false,
          "internalType": "uint256",
          "name": "categoryId",
          "type": "uint256"
        },
        {
          "indexed": false,
          "internalType": "uint256",
          "name": "expiredDate",
          "type": "uint256"
        }
      ],
      "name": "ProposalCreated",
      "type": "event"
    },
    {
      "anonymous": false,
      "inputs": [
        {
          "indexed": true,
          "internalType": "uint256",
          "name": "proposalId",
          "type": "uint256"
        },
        {
          "indexed": false,
          "internalType": "uint256",
          "name": "expiredAt",
          "type": "uint256"
        }
      ],
      "name": "ProposalExpired",
      "type": "event"
    },
    {
      "anonymous": false,
      "inputs": [
        {
          "indexed": true,
          "internalType": "uint256",
          "name": "proposalId",
          "type": "uint256"
        },
        {
          "indexed": false,
          "internalType": "bool",
          "name": "activeStatus",
          "type": "bool"
        }
      ],
      "name": "ProposalStatusChanged",
      "type": "event"
    },
    {
      "anonymous": false,
      "inputs": [
        {
          "indexed": true,
          "internalType": "uint256",
          "name": "proposalId",
          "type": "uint256"
        },
        {
          "indexed": true,
          "internalType": "address",
          "name": "voter",
          "type": "address"
        }
      ],
      "name": "ProposalVotedNo",
      "type": "event"
    },
    {
      "anonymous": false,
      "inputs": [
        {
          "indexed": true,
          "internalType": "uint256",
          "name": "proposalId",
          "type": "uint256"
        },
        {
          "indexed": true,
          "internalType": "address",
          "name": "voter",
          "type": "address"
        }
      ],
      "name": "ProposalVotedYes",
      "type": "event"
    },
    {
      "inputs": [],
      "name": "authRegistry",
      "outputs": [
        {
          "internalType": "contract IAuthRegistry",
          "name": "",
          "type": "address"
        }
      ],
      "stateMutability": "view",
      "type": "function"
    },
    {
      "inputs": [
        {
          "internalType": "uint256",
          "name": "proposalId",
          "type": "uint256"
        },
        {
          "internalType": "bool",
          "name": "newStatus",
          "type": "bool"
        }
      ],
      "name": "changeProposalStatus",
      "outputs": [],
      "stateMutability": "nonpayable",
      "type": "function"
    },
    {
      "inputs": [
        {
          "internalType": "string",
          "name": "titleCid",
          "type": "string"
        },
        {
          "internalType": "string",
          "name": "shortDescriptionCid",
          "type": "string"
        },
        {
          "internalType": "string",
          "name": "descriptionInDetailsCid",
          "type": "string"
        },
        {
          "internalType": "uint256",
          "name": "categoryId",
          "type": "uint256"
        },
        {
          "internalType": "uint256",
          "name": "expiredDate",
          "type": "uint256"
        }
      ],
      "name": "createProposal",
      "outputs": [
        {
          "internalType": "uint256",
          "name": "",
          "type": "uint256"
        }
      ],
      "stateMutability": "nonpayable",
      "type": "function"
    },
    {
      "inputs": [
        {
          "internalType": "uint256",
          "name": "proposalId",
          "type": "uint256"
        }
      ],
      "name": "expireProposal",
      "outputs": [],
      "stateMutability": "nonpayable",
      "type": "function"
    },
    {
      "inputs": [
        {
          "internalType": "uint256",
          "name": "proposalId",
          "type": "uint256"
        },
        {
          "internalType": "uint256",
          "name": "newExpiredDate",
          "type": "uint256"
        }
      ],
      "name": "extendProposalDeadline",
      "outputs": [],
      "stateMutability": "nonpayable",
      "type": "function"
    },
    {
      "inputs": [
        {
          "internalType": "uint256",
          "name": "categoryId",
          "type": "uint256"
        }
      ],
      "name": "getActiveProposalsByCategory",
      "outputs": [
        {
          "internalType": "uint256[]",
          "name": "proposalIds",
          "type": "uint256[]"
        }
      ],
      "stateMutability": "view",
      "type": "function"
    },
    {
      "inputs": [],
      "name": "getExpiredProposals",
      "outputs": [
        {
          "internalType": "uint256[]",
          "name": "proposalIds",
          "type": "uint256[]"
        }
      ],
      "stateMutability": "view",
      "type": "function"
    },
    {
      "inputs": [
        {
          "internalType": "uint256",
          "name": "proposalId",
          "type": "uint256"
        }
      ],
      "name": "getProposal",
      "outputs": [
        {
          "internalType": "string",
          "name": "titleCid",
          "type": "string"
        },
        {
          "internalType": "string",
          "name": "shortDescriptionCid",
          "type": "string"
        },
        {
          "internalType": "string",
          "name": "descriptionInDetailsCid",
          "type": "string"
        },
        {
          "internalType": "uint256",
          "name": "yesVotes",
          "type": "uint256"
        },
        {
          "internalType": "uint256",
          "name": "noVotes",
          "type": "uint256"
        },
        {
          "internalType": "address",
          "name": "creator",
          "type": "address"
        },
        {
          "internalType": "bool",
          "name": "activeStatus",
          "type": "bool"
        },
        {
          "internalType": "uint256",
          "name": "expiredDate",
          "type": "uint256"
        },
        {
          "internalType": "uint256",
          "name": "categoryId",
          "type": "uint256"
        },
        {
          "internalType": "uint256",
          "name": "createdAt",
          "type": "uint256"
        },
        {
          "internalType": "uint256",
          "name": "updatedAt",
          "type": "uint256"
        }
      ],
      "stateMutability": "view",
      "type": "function"
    },
    {
      "inputs": [
        {
          "internalType": "uint256",
          "name": "proposalId",
          "type": "uint256"
        }
      ],
      "name": "getProposalVotes",
      "outputs": [
        {
          "internalType": "uint256",
          "name": "yesVotes",
          "type": "uint256"
        },
        {
          "internalType": "uint256",
          "name": "noVotes",
          "type": "uint256"
        },
        {
          "internalType": "int256",
          "name": "netVotes",
          "type": "int256"
        },
        {
          "internalType": "uint256",
          "name": "totalVotes",
          "type": "uint256"
        },
        {
          "internalType": "uint256",
          "name": "yesPercentage",
          "type": "uint256"
        }
      ],
      "stateMutability": "view",
      "type": "function"
    },
    {
      "inputs": [
        {
          "internalType": "address",
          "name": "user",
          "type": "address"
        }
      ],
      "name": "getProposalsByUser",
      "outputs": [
        {
          "internalType": "uint256[]",
          "name": "proposalIds",
          "type": "uint256[]"
        }
      ],
      "stateMutability": "view",
      "type": "function"
    },
    {
      "inputs": [
        {
          "internalType": "uint256",
          "name": "proposalId",
          "type": "uint256"
        },
        {
          "internalType": "address",
          "name": "user",
          "type": "address"
        }
      ],
      "name": "getUserVote",
      "outputs": [
        {
          "internalType": "bool",
          "name": "hasVotedYes",
          "type": "bool"
        },
        {
          "internalType": "bool",
          "name": "hasVotedNo",
          "type": "bool"
        }
      ],
      "stateMutability": "view",
      "type": "function"
    },
    {
      "inputs": [
        {
          "internalType": "uint256",
          "name": "proposalId",
          "type": "uint256"
        }
      ],
      "name": "isProposalExpired",
      "outputs": [
        {
          "internalType": "bool",
          "name": "isExpired",
          "type": "bool"
        }
      ],
      "stateMutability": "view",
      "type": "function"
    },
    {
      "inputs": [
        {
          "internalType": "address",
          "name": "",
          "type": "address"
        }
      ],
      "name": "lastCreatedAt",
      "outputs": [
        {
          "internalType": "uint256",
          "name": "",
          "type": "uint256"
        }
      ],
      "stateMutability": "view",
      "type": "function"
    },
    {
      "inputs": [],
      "name": "proposalCount",
      "outputs": [
        {
          "internalType": "uint256",
          "name": "",
          "type": "uint256"
        }
      ],
      "stateMutability": "view",
      "type": "function"
    },
    {
      "inputs": [
        {
          "internalType": "uint256",
          "name": "proposalId",
          "type": "uint256"
        }
      ],
      "name": "removeVote",
      "outputs": [],
      "stateMutability": "nonpayable",
      "type": "function"
    },
    {
      "inputs": [
        {
          "internalType": "uint256",
          "name": "proposalId",
          "type": "uint256"
        }
      ],
      "name": "voteNo",
      "outputs": [],
      "stateMutability": "nonpayable",
      "type": "function"
    },
    {
      "inputs": [
        {
          "internalType": "uint256",
          "name": "proposalId",
          "type": "uint256"
        }
      ],
      "name": "voteYes",
      "outputs": [],
      "stateMutability": "nonpayable",
      "type": "function"
    }
  ],
  "bytecode": "0x6080346100cb57601f611baf38819003918201601f19168301916001600160401b038311848410176100d0578084926020946040528339810103126100cb57516001600160a01b038116908190036100cb57801561007a57600080546001600160a01b031916919091179055604051611ac890816100e78239f35b60405162461bcd60e51b8152602060048201526024808201527f4175746820726567697374727920616464726573732063616e6e6f74206265206044820152637a65726f60e01b6064820152608490fd5b600080fd5b634e487b7160e01b600052604160045260246000fdfe6080604052600436101561001257600080fd5b60003560e01c806303c7881a146115e15780630d734cc11461153b5780631a6f7be5146113965780631add18f4146112db57806338c545b41461118c5780633f68fde41461100057806347c6614014610f1d5780634d754e0714610e305780634ff2f81414610de7578063629e025a14610dbe5780636a1cf72114610bf25780638e295bda146104fb578063b94afa71146104c1578063c7f758a8146103ca578063c966f51614610252578063da35c664146102345763e1b526b0146100d757600080fd5b3461022f5760208060031936011261022f5760043560018060a01b03916024818460005416604051928380926301fd3f7760e71b82523360048301525afa80156102235761012d916000916101f6575b50611755565b816000526002815261014a8360056040600020015416331461192d565b816000526002815260406000206005810161016a81549586161515611889565b60ff8560a01c16156101b1577f1d4acf5b5169381a31b16d43bf25ffcb1d6f22f1127bb0c412a0d970e25affb5939460ff60a01b19169055600942910155604051428152a2005b60405162461bcd60e51b815260048101849052601c60248201527f50726f706f73616c20697320616c726561647920696e616374697665000000006044820152606490fd5b6102169150833d851161021c575b61020e818361171b565b81019061173d565b38610127565b503d610204565b6040513d6000823e3d90fd5b600080fd5b3461022f57600036600319011261022f576020600154604051908152f35b3461022f57604036600319011261022f5760043560243560018060a01b039182600054169060405180926301fd3f7760e71b825233600483015281602460209586935afa8015610223576102ad916000916103ad5750611755565b80600052600282526102ca8460056040600020015416331461192d565b600052600281526102e76040600020936005850154161515611889565b60068301908154831115610359574283111561030a575055600942910155600080f35b6084906040519062461bcd60e51b82526004820152602260248201527f4e657720646561646c696e65206d75737420626520696e207468652066757475604482015261726560f01b6064820152fd5b6084906040519062461bcd60e51b82526004820152602760248201527f43616e206f6e6c7920657874656e6420646561646c696e652c206e6f74207265604482015266191d58d9481a5d60ca1b6064820152fd5b6103c49150843d861161021c5761020e818361171b565b86610127565b3461022f57602036600319011261022f576004356000908152600260205260409020600581015461046f906001600160a01b0381169061040b821515611889565b600384015491600485015491600686015460ff60078801549260088901549460098a01549661048b8b61047d6104586002610451600161044a86611978565b9501611978565b9f01611978565b916040519e8f9e8f926101608085528401906116db565b9160208184039101526116db565b8c810360408e0152906116db565b9860608b015260808a015260a089015260a01c16151560c087015260e08601526101008501526101208401526101408301520390f35b3461022f57602036600319011261022f576001600160a01b036104e261165c565b1660005260036020526020604060002054604051908152f35b3461022f5760a036600319011261022f5760043567ffffffffffffffff811161022f5761052c9036906004016116ad565b9060243567ffffffffffffffff811161022f5761054d9036906004016116ad565b60449391843567ffffffffffffffff811161022f576105709036906004016116ad565b6000546040516301fd3f7760e71b8152336004820152929791949290602090829060249082906001600160a01b03165afa8015610223576105b891600091610bd35750611755565b8415610b8f578115610b3d578315610ae857426084351115610a995760643515610a5557506105e8600154611797565b9485600155856000526002602052604060002067ffffffffffffffff86116108cb5761061481546117a6565b601f8111610a11575b50856000601f82116001146109ac576000916109a1575b508660011b906000198860031b1c19161781555b67ffffffffffffffff83116108cb5761066460018201546117a6565b601f811161095a575b50826000601f82116001146108ec576000916108e1575b508360011b906000198560031b1c19161760018201555b67ffffffffffffffff85116108cb576106b760028201546117a6565b601f8111610880575b509160209793918795936000601f86116001146107e1579261079c6107a9937fa545c4dca3f89091030a281bf4422840f14e6fdb422e08ca04c8d6ae025f9d5e989693886107b799976000916107d6575b508760011b906000198960031b1c19161760028201555b600581018054600160a01b9060ff60a01b193316906affffffffffffffffffffff60a81b16171790556000600382015560006004820155606435600782015560843560068201554260088201556009429101553360005260038d52426040600020556040519a60a08c5260a08c01916117e0565b918983038c8b01526117e0565b9186830360408801526117e0565b92606435606082015260843560808201528033940390a3604051908152f35b90508801358f610711565b600282016000528a6000209060005b601f198816811061086657506107a9937fa545c4dca3f89091030a281bf4422840f14e6fdb422e08ca04c8d6ae025f9d5e98969388969361079c936107b79a601f1981161061084c575b5050600187811b016002820155610728565b89013560001960038a901b60f8161c191690558e8061083a565b8189013583558b9950600190920191908c01908c016107f0565b600282016000526020600020601f870160051c810191602088106108c1575b601f0160051c01905b8181106108b557506106c0565b600081556001016108a8565b909150819061089f565b634e487b7160e01b600052604160045260246000fd5b905084013589610684565b90506001820160005260206000209060005b601f1986168110610942575084601f19811610610928575b5050600183811b01600182015561069b565b850135600019600386901b60f8161c191690558880610916565b9091602060018192858a0135815501930191016108fe565b600182016000526020600020601f850160051c81016020861061099a575b601f830160051c8201811061098e57505061066d565b60008155600101610978565b5080610978565b905082013589610634565b60008381526020812092505b601f19891681106109f9575087601f198116106109df575b5050600186811b018155610648565b830135600019600389901b60f8161c1916905588806109d0565b909160206001819285880135815501930191016109b8565b816000526020600020601f880160051c810160208910610a4e575b601f830160051c82018110610a4257505061061d565b60008155600101610a2c565b5080610a2c565b6064907f43617465676f7279204944206d7573742062652076616c6964000000000000006040519162461bcd60e51b83526020600484015260196024840152820152fd5b6084907f457870697265642064617465206d75737420626520696e2074686520667574756040519162461bcd60e51b8352602060048401526022602484015282015261726560f01b6064820152fd5b6084907f44657461696c6564206465736372697074696f6e204349442063616e6e6f74206040519162461bcd60e51b8352602060048401526028602484015282015267626520656d70747960c01b6064820152fd5b6084907f53686f7274206465736372697074696f6e204349442063616e6e6f74206265206040519162461bcd60e51b8352602060048401526025602484015282015264656d70747960d81b6064820152fd5b6064907f5469746c65204349442063616e6e6f7420626520656d707479000000000000006040519162461bcd60e51b83526020600484015260196024840152820152fd5b610bec915060203d60201161021c5761020e818361171b565b89610127565b3461022f5760208060031936011261022f576004359060018060a01b03906024818360005416604051928380926301fd3f7760e71b82523360048301525afa801561022357610c4891600091610da15750611755565b8260005260028152610c7660066040600020610c6d60ff600583015460a01c16611801565b01544210611846565b826000526002815260406000209160058301541690610c96821515611889565b600a8301913360005282825260ff60406000205416610d4857610cbb903314156118d5565b33600052600b830181526040600020805460ff8116610d2b575b505033600052526040600020600160ff1982541617905560038101610cfa8154611797565b905560094291015533907f91d72fe165abd5430e48336de75685d3f58eaeab2eb2d7b644ef7403642d116f600080a3005b60ff1916905560048301610d3f8154611920565b90558480610cd5565b60405162461bcd60e51b815260048101839052602b60248201527f596f75206861766520616c726561647920766f74656420594553206f6e20746860448201526a1a5cc81c1c9bdc1bdcd85b60aa1b6064820152608490fd5b610db89150833d851161021c5761020e818361171b565b85610127565b3461022f57600036600319011261022f576000546040516001600160a01b039091168152602090f35b3461022f57602036600319011261022f576004356000526002602052602060066040600020610e2360018060a01b036005830154161515611889565b0154421015604051908152f35b3461022f5760208060031936011261022f5760043590600154610e5281611a36565b9260009260015b83811115610ead578585610e6c81611a36565b9160005b828110610e895760405180610e858682611672565b0390f35b80610e97610ea89284611a68565b51610ea28287611a68565b52611797565b610e70565b80600052600282526040600020836007820154149081610f0b575b81610efd575b50610ee2575b610edd90611797565b610e59565b93610ef58186610ea2610edd948a611a68565b949050610ed4565b600691500154421087610ece565b600581015460a01c60ff169150610ec8565b3461022f57602036600319011261022f5760043560009081526002602052604090206005810154610f58906001600160a01b03161515611889565b6004600382015491015490818103916000811282841281169083851390151617610fde57808201808311610fde5780159384610ff457606484029484860460641485151715610fde57610fc8578160a09504925b6040519485526020850152604084015260608301526080820152f35b634e487b7160e01b600052601260045260246000fd5b634e487b7160e01b600052601160045260246000fd5b60a09450600092610fac565b3461022f5760208060031936011261022f576004359060018060a01b03916024828460005416604051928380926301fd3f7760e71b82523360048301525afa801561022357611056916000916111755750611755565b806000526002825261107b60066040600020610c6d60ff600583015460a01c16611801565b600052600281526110986040600020926005840154161515611889565b600033600052600a830182526040600020805460ff8116611154575b505033600052600b830182526040600020805460ff8116611133575b5050156110e35750600942910155600080f35b6084906040519062461bcd60e51b82526004820152602360248201527f596f752068617665206e6f7420766f746564206f6e20746869732070726f706f6044820152621cd85b60ea1b6064820152fd5b60ff191690555060048201805461114990611920565b9055600183806110d0565b60ff191690555060038201805461116a90611920565b9055600183806110b4565b610db89150843d861161021c5761020e818361171b565b3461022f57604036600319011261022f576004356024359081151580920361022f576000546040516301fd3f7760e71b81523360048201526001600160a01b039360209290919083908290602490829089165afa8015610223576111f7916000916103ad5750611755565b82600052600282526112148460056040600020015416331461192d565b826000526002825260406000206005810161123481549687161515611889565b8260ff8760a01c1615151461128a577f68e3ce211a37937184ed2d0165534a314cff3c8b8bd7dcdd845523b07698450f949560ff60a01b8460a01b169060ff60a01b1916179055600942910155604051908152a2005b60405162461bcd60e51b815260048101859052602360248201527f53746174757320697320616c72656164792073657420746f20746869732076616044820152626c756560e81b6064820152608490fd5b3461022f5760208060031936011261022f576112f561165c565b60015461130181611a36565b926000926001600160a01b039081169160015b8481111561135357868661132781611a36565b9160005b8281106113405760405180610e858682611672565b80610e9761134e9284611a68565b61132b565b80600052600282528383600560406000200154161461137b575b61137690611797565b611314565b9461138e8187610ea2611376948b611a68565b95905061136d565b3461022f5760208060031936011261022f576004359060018060a01b03906024818360005416604051928380926301fd3f7760e71b82523360048301525afa8015610223576113ec91600091610da15750611755565b826000526002815261141160066040600020610c6d60ff600583015460a01c16611801565b826000526002815260406000209160058301541690611431821515611889565b600b8301913360005282825260ff604060002054166114e357611456903314156118d5565b33600052600a830181526040600020805460ff81166114c6575b505033600052526040600020600160ff19825416179055600481016114958154611797565b905560094291015533907ff22f90ec8ca04cbb8fbcb15687d8dc5dcc4d74eaf1529b699367f232b785358b600080a3005b60ff19169055600383016114da8154611920565b90558480611470565b60405162461bcd60e51b815260048101839052602a60248201527f596f75206861766520616c726561647920766f746564204e4f206f6e207468696044820152691cc81c1c9bdc1bdcd85b60b21b6064820152608490fd5b3461022f57600036600319011261022f5760015461155881611a36565b9060009060015b8181111561159e57505061157281611a36565b9160005b82811061158b5760405180610e858682611672565b80610e976115999284611a68565b611576565b8060005260026020526006604060002001544210156115c6575b6115c190611797565b61155f565b916115d98184610ea26115c19488611a68565b9290506115b8565b3461022f57604036600319011261022f576024356001600160a01b038181169182900361022f57604091600435600052600260205261162b83600020926005840154161515611889565b600052600a8101602052600b60ff836000205416910160205260ff8260002054168251911515825215156020820152f35b600435906001600160a01b038216820361022f57565b6020908160408183019282815285518094520193019160005b828110611699575050505090565b83518552938101939281019260010161168b565b9181601f8401121561022f5782359167ffffffffffffffff831161022f576020838186019501011161022f57565b919082519283825260005b848110611707575050826000602080949584010152601f8019910116010190565b6020818301810151848301820152016116e6565b90601f8019910116810190811067ffffffffffffffff8211176108cb57604052565b9081602091031261022f5751801515810361022f5790565b1561175c57565b60405162461bcd60e51b8152602060048201526013602482015272155cd95c881b9bdd08185d5d1a1bdc9a5e9959606a1b6044820152606490fd5b6000198114610fde5760010190565b90600182811c921680156117d6575b60208310146117c057565b634e487b7160e01b600052602260045260246000fd5b91607f16916117b5565b908060209392818452848401376000828201840152601f01601f1916010190565b1561180857565b60405162461bcd60e51b815260206004820152601660248201527550726f706f73616c206973206e6f742061637469766560501b6044820152606490fd5b1561184d57565b60405162461bcd60e51b8152602060048201526014602482015273141c9bdc1bdcd85b081a185cc8195e1c1a5c995960621b6044820152606490fd5b1561189057565b60405162461bcd60e51b815260206004820152601760248201527f50726f706f73616c20646f6573206e6f742065786973740000000000000000006044820152606490fd5b156118dc57565b606460405162461bcd60e51b815260206004820152602060248201527f43616e6e6f7420766f7465206f6e20796f7572206f776e2070726f706f73616c6044820152fd5b8015610fde576000190190565b1561193457565b606460405162461bcd60e51b815260206004820152602060248201527f4f6e6c792063726561746f722063616e206d6f646966792070726f706f73616c6044820152fd5b906040519182600082549261198c846117a6565b9081845260019485811690816000146119fb57506001146119b8575b50506119b69250038361171b565b565b9093915060005260209081600020936000915b8183106119e35750506119b6935082010138806119a8565b855488840185015294850194879450918301916119cb565b9150506119b694506020925060ff191682840152151560051b82010138806119a8565b67ffffffffffffffff81116108cb5760051b60200190565b90611a4082611a1e565b611a4d604051918261171b565b8281528092611a5e601f1991611a1e565b0190602036910137565b8051821015611a7c5760209160051b010190565b634e487b7160e01b600052603260045260246000fdfea26469706673582212202edb88514129b11cf6e164028de47b475bbaf168454d213d657a2eb8fca8435364736f6c63430008140033",
  "linkReferences": {},
  "deployedLinkReferences": {}
}