{
  "_format": "hh-sol-artifact-1",
  "contractName": "Proposals",
  "sourceName": "contracts/proposal/proposals.sol",
  "abi": [
    {
      "inputs": [
        {
          "internalType": "address",
          "name": "_authRegistry",
          "type": "address"
        }
      ],
      "stateMutability": "nonpayable",
      "type": "constructor"
    },
    {
      "anonymous": false,
      "inputs": [
        {
          "indexed": true,
          "internalType": "uint256",
          "name": "proposalId",
          "type": "uint256"
        },
        {
          "indexed": true,
          "internalType": "address",
          "name": "creator",
          "type": "address"
        },
        {
          "indexed": false,
          "internalType": "string",
          "name": "titleCid",
          "type": "string"
        },
        {
          "indexed": false,
          "internalType": "string",
          "name": "shortDescriptionCid",
          "type": "string"
        },
        {
          "indexed": false,
          "internalType": "string",
          "name": "descriptionInDetailsCid",
          "type": "string"
        },
        {
          "indexed": false,
          "internalType": "uint256",
          "name": "categoryId",
          "type": "uint256"
        },
        {
          "indexed": false,
          "internalType": "uint256",
          "name": "expiredDate",
          "type": "uint256"
        }
      ],
      "name": "ProposalCreated",
      "type": "event"
    },
    {
      "anonymous": false,
      "inputs": [
        {
          "indexed": true,
          "internalType": "uint256",
          "name": "proposalId",
          "type": "uint256"
        },
        {
          "indexed": false,
          "internalType": "uint256",
          "name": "expiredAt",
          "type": "uint256"
        }
      ],
      "name": "ProposalExpired",
      "type": "event"
    },
    {
      "anonymous": false,
      "inputs": [
        {
          "indexed": true,
          "internalType": "uint256",
          "name": "proposalId",
          "type": "uint256"
        },
        {
          "indexed": false,
          "internalType": "bool",
          "name": "activeStatus",
          "type": "bool"
        }
      ],
      "name": "ProposalStatusChanged",
      "type": "event"
    },
    {
      "anonymous": false,
      "inputs": [
        {
          "indexed": true,
          "internalType": "uint256",
          "name": "proposalId",
          "type": "uint256"
        },
        {
          "indexed": true,
          "internalType": "address",
          "name": "voter",
          "type": "address"
        }
      ],
      "name": "ProposalVotedNo",
      "type": "event"
    },
    {
      "anonymous": false,
      "inputs": [
        {
          "indexed": true,
          "internalType": "uint256",
          "name": "proposalId",
          "type": "uint256"
        },
        {
          "indexed": true,
          "internalType": "address",
          "name": "voter",
          "type": "address"
        }
      ],
      "name": "ProposalVotedYes",
      "type": "event"
    },
    {
      "inputs": [],
      "name": "authRegistry",
      "outputs": [
        {
          "internalType": "contract IAuthRegistry",
          "name": "",
          "type": "address"
        }
      ],
      "stateMutability": "view",
      "type": "function"
    },
    {
      "inputs": [
        {
          "internalType": "uint256",
          "name": "proposalId",
          "type": "uint256"
        },
        {
          "internalType": "bool",
          "name": "newStatus",
          "type": "bool"
        }
      ],
      "name": "changeProposalStatus",
      "outputs": [],
      "stateMutability": "nonpayable",
      "type": "function"
    },
    {
      "inputs": [
        {
          "internalType": "string",
          "name": "titleCid",
          "type": "string"
        },
        {
          "internalType": "string",
          "name": "shortDescriptionCid",
          "type": "string"
        },
        {
          "internalType": "string",
          "name": "descriptionInDetailsCid",
          "type": "string"
        },
        {
          "internalType": "uint256",
          "name": "categoryId",
          "type": "uint256"
        },
        {
          "internalType": "uint256",
          "name": "expiredDate",
          "type": "uint256"
        }
      ],
      "name": "createProposal",
      "outputs": [
        {
          "internalType": "uint256",
          "name": "",
          "type": "uint256"
        }
      ],
      "stateMutability": "nonpayable",
      "type": "function"
    },
    {
      "inputs": [
        {
          "internalType": "uint256",
          "name": "proposalId",
          "type": "uint256"
        }
      ],
      "name": "expireProposal",
      "outputs": [],
      "stateMutability": "nonpayable",
      "type": "function"
    },
    {
      "inputs": [
        {
          "internalType": "uint256",
          "name": "proposalId",
          "type": "uint256"
        },
        {
          "internalType": "uint256",
          "name": "newExpiredDate",
          "type": "uint256"
        }
      ],
      "name": "extendProposalDeadline",
      "outputs": [],
      "stateMutability": "nonpayable",
      "type": "function"
    },
    {
      "inputs": [
        {
          "internalType": "uint256",
          "name": "categoryId",
          "type": "uint256"
        }
      ],
      "name": "getActiveProposalsByCategory",
      "outputs": [
        {
          "internalType": "uint256[]",
          "name": "proposalIds",
          "type": "uint256[]"
        }
      ],
      "stateMutability": "view",
      "type": "function"
    },
    {
      "inputs": [],
      "name": "getExpiredProposals",
      "outputs": [
        {
          "internalType": "uint256[]",
          "name": "proposalIds",
          "type": "uint256[]"
        }
      ],
      "stateMutability": "view",
      "type": "function"
    },
    {
      "inputs": [
        {
          "internalType": "uint256",
          "name": "proposalId",
          "type": "uint256"
        }
      ],
      "name": "getProposal",
      "outputs": [
        {
          "internalType": "string",
          "name": "titleCid",
          "type": "string"
        },
        {
          "internalType": "string",
          "name": "shortDescriptionCid",
          "type": "string"
        },
        {
          "internalType": "string",
          "name": "descriptionInDetailsCid",
          "type": "string"
        },
        {
          "internalType": "uint256",
          "name": "yesVotes",
          "type": "uint256"
        },
        {
          "internalType": "uint256",
          "name": "noVotes",
          "type": "uint256"
        },
        {
          "internalType": "address",
          "name": "creator",
          "type": "address"
        },
        {
          "internalType": "bool",
          "name": "activeStatus",
          "type": "bool"
        },
        {
          "internalType": "uint256",
          "name": "expiredDate",
          "type": "uint256"
        },
        {
          "internalType": "uint256",
          "name": "categoryId",
          "type": "uint256"
        },
        {
          "internalType": "uint256",
          "name": "createdAt",
          "type": "uint256"
        },
        {
          "internalType": "uint256",
          "name": "updatedAt",
          "type": "uint256"
        }
      ],
      "stateMutability": "view",
      "type": "function"
    },
    {
      "inputs": [
        {
          "internalType": "uint256",
          "name": "proposalId",
          "type": "uint256"
        }
      ],
      "name": "getProposalVotes",
      "outputs": [
        {
          "internalType": "uint256",
          "name": "yesVotes",
          "type": "uint256"
        },
        {
          "internalType": "uint256",
          "name": "noVotes",
          "type": "uint256"
        },
        {
          "internalType": "int256",
          "name": "netVotes",
          "type": "int256"
        },
        {
          "internalType": "uint256",
          "name": "totalVotes",
          "type": "uint256"
        },
        {
          "internalType": "uint256",
          "name": "yesPercentage",
          "type": "uint256"
        }
      ],
      "stateMutability": "view",
      "type": "function"
    },
    {
      "inputs": [
        {
          "internalType": "address",
          "name": "user",
          "type": "address"
        }
      ],
      "name": "getProposalsByUser",
      "outputs": [
        {
          "internalType": "uint256[]",
          "name": "proposalIds",
          "type": "uint256[]"
        }
      ],
      "stateMutability": "view",
      "type": "function"
    },
    {
      "inputs": [
        {
          "internalType": "uint256",
          "name": "proposalId",
          "type": "uint256"
        },
        {
          "internalType": "address",
          "name": "user",
          "type": "address"
        }
      ],
      "name": "getUserVote",
      "outputs": [
        {
          "internalType": "bool",
          "name": "hasVotedYes",
          "type": "bool"
        },
        {
          "internalType": "bool",
          "name": "hasVotedNo",
          "type": "bool"
        }
      ],
      "stateMutability": "view",
      "type": "function"
    },
    {
      "inputs": [
        {
          "internalType": "uint256",
          "name": "proposalId",
          "type": "uint256"
        }
      ],
      "name": "isProposalExpired",
      "outputs": [
        {
          "internalType": "bool",
          "name": "isExpired",
          "type": "bool"
        }
      ],
      "stateMutability": "view",
      "type": "function"
    },
    {
      "inputs": [
        {
          "internalType": "address",
          "name": "",
          "type": "address"
        }
      ],
      "name": "lastCreatedAt",
      "outputs": [
        {
          "internalType": "uint256",
          "name": "",
          "type": "uint256"
        }
      ],
      "stateMutability": "view",
      "type": "function"
    },
    {
      "inputs": [],
      "name": "proposalCount",
      "outputs": [
        {
          "internalType": "uint256",
          "name": "",
          "type": "uint256"
        }
      ],
      "stateMutability": "view",
      "type": "function"
    },
    {
      "inputs": [
        {
          "internalType": "uint256",
          "name": "proposalId",
          "type": "uint256"
        }
      ],
      "name": "removeVote",
      "outputs": [],
      "stateMutability": "nonpayable",
      "type": "function"
    },
    {
      "inputs": [
        {
          "internalType": "uint256",
          "name": "proposalId",
          "type": "uint256"
        }
      ],
      "name": "voteNo",
      "outputs": [],
      "stateMutability": "nonpayable",
      "type": "function"
    },
    {
      "inputs": [
        {
          "internalType": "uint256",
          "name": "proposalId",
          "type": "uint256"
        }
      ],
      "name": "voteYes",
      "outputs": [],
      "stateMutability": "nonpayable",
      "type": "function"
    }
  ],
  "bytecode": "0x60806040523480156200001157600080fd5b506040516200416b3803806200416b83398181016040528101906200003791906200015a565b600073ffffffffffffffffffffffffffffffffffffffff168173ffffffffffffffffffffffffffffffffffffffff1603620000a9576040517f08c379a0000000000000000000000000000000000000000000000000000000008152600401620000a09062000213565b60405180910390fd5b806000806101000a81548173ffffffffffffffffffffffffffffffffffffffff021916908373ffffffffffffffffffffffffffffffffffffffff1602179055505062000235565b600080fd5b600073ffffffffffffffffffffffffffffffffffffffff82169050919050565b60006200012282620000f5565b9050919050565b620001348162000115565b81146200014057600080fd5b50565b600081519050620001548162000129565b92915050565b600060208284031215620001735762000172620000f0565b5b6000620001838482850162000143565b91505092915050565b600082825260208201905092915050565b7f4175746820726567697374727920616464726573732063616e6e6f742062652060008201527f7a65726f00000000000000000000000000000000000000000000000000000000602082015250565b6000620001fb6024836200018c565b915062000208826200019d565b604082019050919050565b600060208201905081810360008301526200022e81620001ec565b9050919050565b613f2680620002456000396000f3fe608060405234801561001057600080fd5b506004361061010b5760003560e01c80634ff2f814116100a2578063b94afa7111610071578063b94afa71146102e1578063c7f758a814610311578063c966f5161461034b578063da35c66414610367578063e1b526b0146103855761010b565b80634ff2f81414610247578063629e025a146102775780636a1cf721146102955780638e295bda146102b15761010b565b806338c545b4116100de57806338c545b4146101ab5780633f68fde4146101c757806347c66140146101e35780634d754e07146102175761010b565b806303c7881a146101105780630d734cc1146101415780631a6f7be51461015f5780631add18f41461017b575b600080fd5b61012a600480360381019061012591906129d2565b6103a1565b604051610138929190612a2d565b60405180910390f35b6101496104f8565b6040516101569190612b14565b60405180910390f35b61017960048036038101906101749190612b36565b610663565b005b61019560048036038101906101909190612b63565b610b46565b6040516101a29190612b14565b60405180910390f35b6101c560048036038101906101c09190612bbc565b610cff565b005b6101e160048036038101906101dc9190612b36565b610fe7565b005b6101fd60048036038101906101f89190612b36565b611405565b60405161020e959493929190612c24565b60405180910390f35b610231600480360381019061022c9190612b36565b611514565b60405161023e9190612b14565b60405180910390f35b610261600480360381019061025c9190612b36565b6116cf565b60405161026e9190612c77565b60405180910390f35b61027f61178a565b60405161028c9190612cf1565b60405180910390f35b6102af60048036038101906102aa9190612b36565b6117ae565b005b6102cb60048036038101906102c69190612d71565b611c91565b6040516102d89190612e4d565b60405180910390f35b6102fb60048036038101906102f69190612b63565b612080565b6040516103089190612e4d565b60405180910390f35b61032b60048036038101906103269190612b36565b612098565b6040516103429b9a99989796959493929190612f07565b60405180910390f35b61036560048036038101906103609190612fc7565b61237e565b005b61036f61264c565b60405161037c9190612e4d565b60405180910390f35b61039f600480360381019061039a9190612b36565b612652565b005b6000806000600260008681526020019081526020016000209050600073ffffffffffffffffffffffffffffffffffffffff168160050160009054906101000a900473ffffffffffffffffffffffffffffffffffffffff1673ffffffffffffffffffffffffffffffffffffffff160361044e576040517f08c379a000000000000000000000000000000000000000000000000000000000815260040161044590613053565b60405180910390fd5b80600a0160008573ffffffffffffffffffffffffffffffffffffffff1673ffffffffffffffffffffffffffffffffffffffff16815260200190815260200160002060009054906101000a900460ff1681600b0160008673ffffffffffffffffffffffffffffffffffffffff1673ffffffffffffffffffffffffffffffffffffffff16815260200190815260200160002060009054906101000a900460ff1692509250509250929050565b6060600060015467ffffffffffffffff81111561051857610517613073565b5b6040519080825280602002602001820160405280156105465781602001602082028036833780820191505090505b509050600080600190505b60015481116105b957600260008281526020019081526020016000206006015442106105a6578083838151811061058b5761058a6130a2565b5b60200260200101818152505081806105a290613100565b9250505b80806105b190613100565b915050610551565b508067ffffffffffffffff8111156105d4576105d3613073565b5b6040519080825280602002602001820160405280156106025781602001602082028036833780820191505090505b50925060005b8181101561065d57828181518110610623576106226130a2565b5b602002602001015184828151811061063e5761063d6130a2565b5b602002602001018181525050808061065590613100565b915050610608565b50505090565b60008054906101000a900473ffffffffffffffffffffffffffffffffffffffff1673ffffffffffffffffffffffffffffffffffffffff1663fe9fbb80336040518263ffffffff1660e01b81526004016106bc9190613148565b602060405180830381865afa1580156106d9573d6000803e3d6000fd5b505050506040513d601f19601f820116820180604052508101906106fd9190613178565b61073c576040517f08c379a0000000000000000000000000000000000000000000000000000000008152600401610733906131f1565b60405180910390fd5b8060006002600083815260200190815260200160002090508060050160149054906101000a900460ff166107a5576040517f08c379a000000000000000000000000000000000000000000000000000000000815260040161079c9061325d565b60405180910390fd5b806006015442106107eb576040517f08c379a00000000000000000000000000000000000000000000000000000000081526004016107e2906132c9565b60405180910390fd5b6000600260008581526020019081526020016000209050600073ffffffffffffffffffffffffffffffffffffffff168160050160009054906101000a900473ffffffffffffffffffffffffffffffffffffffff1673ffffffffffffffffffffffffffffffffffffffff1603610895576040517f08c379a000000000000000000000000000000000000000000000000000000000815260040161088c90613053565b60405180910390fd5b80600b0160003373ffffffffffffffffffffffffffffffffffffffff1673ffffffffffffffffffffffffffffffffffffffff16815260200190815260200160002060009054906101000a900460ff1615610924576040517f08c379a000000000000000000000000000000000000000000000000000000000815260040161091b9061335b565b60405180910390fd5b3373ffffffffffffffffffffffffffffffffffffffff168160050160009054906101000a900473ffffffffffffffffffffffffffffffffffffffff1673ffffffffffffffffffffffffffffffffffffffff16036109b6576040517f08c379a00000000000000000000000000000000000000000000000000000000081526004016109ad906133c7565b60405180910390fd5b80600a0160003373ffffffffffffffffffffffffffffffffffffffff1673ffffffffffffffffffffffffffffffffffffffff16815260200190815260200160002060009054906101000a900460ff1615610a7f57600081600a0160003373ffffffffffffffffffffffffffffffffffffffff1673ffffffffffffffffffffffffffffffffffffffff16815260200190815260200160002060006101000a81548160ff021916908315150217905550806003016000815480929190610a79906133e7565b91905055505b600181600b0160003373ffffffffffffffffffffffffffffffffffffffff1673ffffffffffffffffffffffffffffffffffffffff16815260200190815260200160002060006101000a81548160ff021916908315150217905550806004016000815480929190610aee90613100565b91905055504281600901819055503373ffffffffffffffffffffffffffffffffffffffff16847ff22f90ec8ca04cbb8fbcb15687d8dc5dcc4d74eaf1529b699367f232b785358b60405160405180910390a350505050565b6060600060015467ffffffffffffffff811115610b6657610b65613073565b5b604051908082528060200260200182016040528015610b945781602001602082028036833780820191505090505b509050600080600190505b6001548111610c53578473ffffffffffffffffffffffffffffffffffffffff166002600083815260200190815260200160002060050160009054906101000a900473ffffffffffffffffffffffffffffffffffffffff1673ffffffffffffffffffffffffffffffffffffffff1603610c405780838381518110610c2557610c246130a2565b5b6020026020010181815250508180610c3c90613100565b9250505b8080610c4b90613100565b915050610b9f565b508067ffffffffffffffff811115610c6e57610c6d613073565b5b604051908082528060200260200182016040528015610c9c5781602001602082028036833780820191505090505b50925060005b81811015610cf757828181518110610cbd57610cbc6130a2565b5b6020026020010151848281518110610cd857610cd76130a2565b5b6020026020010181815250508080610cef90613100565b915050610ca2565b505050919050565b60008054906101000a900473ffffffffffffffffffffffffffffffffffffffff1673ffffffffffffffffffffffffffffffffffffffff1663fe9fbb80336040518263ffffffff1660e01b8152600401610d589190613148565b602060405180830381865afa158015610d75573d6000803e3d6000fd5b505050506040513d601f19601f82011682018060405250810190610d999190613178565b610dd8576040517f08c379a0000000000000000000000000000000000000000000000000000000008152600401610dcf906131f1565b60405180910390fd5b8160006002600083815260200190815260200160002090508060050160009054906101000a900473ffffffffffffffffffffffffffffffffffffffff1673ffffffffffffffffffffffffffffffffffffffff163373ffffffffffffffffffffffffffffffffffffffff1614610e82576040517f08c379a0000000000000000000000000000000000000000000000000000000008152600401610e799061345c565b60405180910390fd5b6000600260008681526020019081526020016000209050600073ffffffffffffffffffffffffffffffffffffffff168160050160009054906101000a900473ffffffffffffffffffffffffffffffffffffffff1673ffffffffffffffffffffffffffffffffffffffff1603610f2c576040517f08c379a0000000000000000000000000000000000000000000000000000000008152600401610f2390613053565b60405180910390fd5b8315158160050160149054906101000a900460ff16151503610f83576040517f08c379a0000000000000000000000000000000000000000000000000000000008152600401610f7a906134ee565b60405180910390fd5b838160050160146101000a81548160ff021916908315150217905550428160090181905550847f68e3ce211a37937184ed2d0165534a314cff3c8b8bd7dcdd845523b07698450f85604051610fd89190612c77565b60405180910390a25050505050565b60008054906101000a900473ffffffffffffffffffffffffffffffffffffffff1673ffffffffffffffffffffffffffffffffffffffff1663fe9fbb80336040518263ffffffff1660e01b81526004016110409190613148565b602060405180830381865afa15801561105d573d6000803e3d6000fd5b505050506040513d601f19601f820116820180604052508101906110819190613178565b6110c0576040517f08c379a00000000000000000000000000000000000000000000000000000000081526004016110b7906131f1565b60405180910390fd5b8060006002600083815260200190815260200160002090508060050160149054906101000a900460ff16611129576040517f08c379a00000000000000000000000000000000000000000000000000000000081526004016111209061325d565b60405180910390fd5b8060060154421061116f576040517f08c379a0000000000000000000000000000000000000000000000000000000008152600401611166906132c9565b60405180910390fd5b6000600260008581526020019081526020016000209050600073ffffffffffffffffffffffffffffffffffffffff168160050160009054906101000a900473ffffffffffffffffffffffffffffffffffffffff1673ffffffffffffffffffffffffffffffffffffffff1603611219576040517f08c379a000000000000000000000000000000000000000000000000000000000815260040161121090613053565b60405180910390fd5b600081600a0160003373ffffffffffffffffffffffffffffffffffffffff1673ffffffffffffffffffffffffffffffffffffffff16815260200190815260200160002060009054906101000a900460ff16156112e857600082600a0160003373ffffffffffffffffffffffffffffffffffffffff1673ffffffffffffffffffffffffffffffffffffffff16815260200190815260200160002060006101000a81548160ff0219169083151502179055508160030160008154809291906112de906133e7565b9190505550600190505b81600b0160003373ffffffffffffffffffffffffffffffffffffffff1673ffffffffffffffffffffffffffffffffffffffff16815260200190815260200160002060009054906101000a900460ff16156113b557600082600b0160003373ffffffffffffffffffffffffffffffffffffffff1673ffffffffffffffffffffffffffffffffffffffff16815260200190815260200160002060006101000a81548160ff0219169083151502179055508160040160008154809291906113ab906133e7565b9190505550600190505b806113f5576040517f08c379a00000000000000000000000000000000000000000000000000000000081526004016113ec90613580565b60405180910390fd5b4282600901819055505050505050565b600080600080600080600260008881526020019081526020016000209050600073ffffffffffffffffffffffffffffffffffffffff168160050160009054906101000a900473ffffffffffffffffffffffffffffffffffffffff1673ffffffffffffffffffffffffffffffffffffffff16036114b6576040517f08c379a00000000000000000000000000000000000000000000000000000000081526004016114ad90613053565b60405180910390fd5b806003015495508060040154945084866114d091906135a0565b935084866114de91906135e3565b9250600083116114ef576000611508565b826064876114fd9190613617565b6115079190613688565b5b91505091939590929450565b6060600060015467ffffffffffffffff81111561153457611533613073565b5b6040519080825280602002602001820160405280156115625781602001602082028036833780820191505090505b509050600080600190505b6001548111611623578460026000838152602001908152602001600020600701541480156115bb57506002600082815260200190815260200160002060050160149054906101000a900460ff165b80156115dc5750600260008281526020019081526020016000206006015442105b1561161057808383815181106115f5576115f46130a2565b5b602002602001018181525050818061160c90613100565b9250505b808061161b90613100565b91505061156d565b508067ffffffffffffffff81111561163e5761163d613073565b5b60405190808252806020026020018201604052801561166c5781602001602082028036833780820191505090505b50925060005b818110156116c75782818151811061168d5761168c6130a2565b5b60200260200101518482815181106116a8576116a76130a2565b5b60200260200101818152505080806116bf90613100565b915050611672565b505050919050565b600080600260008481526020019081526020016000209050600073ffffffffffffffffffffffffffffffffffffffff168160050160009054906101000a900473ffffffffffffffffffffffffffffffffffffffff1673ffffffffffffffffffffffffffffffffffffffff160361177a576040517f08c379a000000000000000000000000000000000000000000000000000000000815260040161177190613053565b60405180910390fd5b8060060154421015915050919050565b60008054906101000a900473ffffffffffffffffffffffffffffffffffffffff1681565b60008054906101000a900473ffffffffffffffffffffffffffffffffffffffff1673ffffffffffffffffffffffffffffffffffffffff1663fe9fbb80336040518263ffffffff1660e01b81526004016118079190613148565b602060405180830381865afa158015611824573d6000803e3d6000fd5b505050506040513d601f19601f820116820180604052508101906118489190613178565b611887576040517f08c379a000000000000000000000000000000000000000000000000000000000815260040161187e906131f1565b60405180910390fd5b8060006002600083815260200190815260200160002090508060050160149054906101000a900460ff166118f0576040517f08c379a00000000000000000000000000000000000000000000000000000000081526004016118e79061325d565b60405180910390fd5b80600601544210611936576040517f08c379a000000000000000000000000000000000000000000000000000000000815260040161192d906132c9565b60405180910390fd5b6000600260008581526020019081526020016000209050600073ffffffffffffffffffffffffffffffffffffffff168160050160009054906101000a900473ffffffffffffffffffffffffffffffffffffffff1673ffffffffffffffffffffffffffffffffffffffff16036119e0576040517f08c379a00000000000000000000000000000000000000000000000000000000081526004016119d790613053565b60405180910390fd5b80600a0160003373ffffffffffffffffffffffffffffffffffffffff1673ffffffffffffffffffffffffffffffffffffffff16815260200190815260200160002060009054906101000a900460ff1615611a6f576040517f08c379a0000000000000000000000000000000000000000000000000000000008152600401611a669061372b565b60405180910390fd5b3373ffffffffffffffffffffffffffffffffffffffff168160050160009054906101000a900473ffffffffffffffffffffffffffffffffffffffff1673ffffffffffffffffffffffffffffffffffffffff1603611b01576040517f08c379a0000000000000000000000000000000000000000000000000000000008152600401611af8906133c7565b60405180910390fd5b80600b0160003373ffffffffffffffffffffffffffffffffffffffff1673ffffffffffffffffffffffffffffffffffffffff16815260200190815260200160002060009054906101000a900460ff1615611bca57600081600b0160003373ffffffffffffffffffffffffffffffffffffffff1673ffffffffffffffffffffffffffffffffffffffff16815260200190815260200160002060006101000a81548160ff021916908315150217905550806004016000815480929190611bc4906133e7565b91905055505b600181600a0160003373ffffffffffffffffffffffffffffffffffffffff1673ffffffffffffffffffffffffffffffffffffffff16815260200190815260200160002060006101000a81548160ff021916908315150217905550806003016000815480929190611c3990613100565b91905055504281600901819055503373ffffffffffffffffffffffffffffffffffffffff16847f91d72fe165abd5430e48336de75685d3f58eaeab2eb2d7b644ef7403642d116f60405160405180910390a350505050565b60008060009054906101000a900473ffffffffffffffffffffffffffffffffffffffff1673ffffffffffffffffffffffffffffffffffffffff1663fe9fbb80336040518263ffffffff1660e01b8152600401611ced9190613148565b602060405180830381865afa158015611d0a573d6000803e3d6000fd5b505050506040513d601f19601f82011682018060405250810190611d2e9190613178565b611d6d576040517f08c379a0000000000000000000000000000000000000000000000000000000008152600401611d64906131f1565b60405180910390fd5b60008989905011611db3576040517f08c379a0000000000000000000000000000000000000000000000000000000008152600401611daa90613797565b60405180910390fd5b60008787905011611df9576040517f08c379a0000000000000000000000000000000000000000000000000000000008152600401611df090613829565b60405180910390fd5b60008585905011611e3f576040517f08c379a0000000000000000000000000000000000000000000000000000000008152600401611e36906138bb565b60405180910390fd5b428211611e81576040517f08c379a0000000000000000000000000000000000000000000000000000000008152600401611e789061394d565b60405180910390fd5b60008311611ec4576040517f08c379a0000000000000000000000000000000000000000000000000000000008152600401611ebb906139b9565b60405180910390fd5b60016000815480929190611ed790613100565b91905055506000600154905060006002600083815260200190815260200160002090508a8a826000019182611f0d929190613be6565b508888826001019182611f21929190613be6565b508686826002019182611f35929190613be6565b50338160050160006101000a81548173ffffffffffffffffffffffffffffffffffffffff021916908373ffffffffffffffffffffffffffffffffffffffff16021790555060018160050160146101000a81548160ff021916908315150217905550600081600301819055506000816004018190555084816007018190555083816006018190555042816008018190555042816009018190555042600360003373ffffffffffffffffffffffffffffffffffffffff1673ffffffffffffffffffffffffffffffffffffffff168152602001908152602001600020819055503373ffffffffffffffffffffffffffffffffffffffff16827fa545c4dca3f89091030a281bf4422840f14e6fdb422e08ca04c8d6ae025f9d5e8d8d8d8d8d8d8d8d604051612067989796959493929190613cf2565b60405180910390a3819250505098975050505050505050565b60036020528060005260406000206000915090505481565b60608060606000806000806000806000806000600260008e81526020019081526020016000209050600073ffffffffffffffffffffffffffffffffffffffff168160050160009054906101000a900473ffffffffffffffffffffffffffffffffffffffff1673ffffffffffffffffffffffffffffffffffffffff1603612153576040517f08c379a000000000000000000000000000000000000000000000000000000000815260040161214a90613053565b60405180910390fd5b806000018160010182600201836003015484600401548560050160009054906101000a900473ffffffffffffffffffffffffffffffffffffffff168660050160149054906101000a900460ff168760060154886007015489600801548a600901548a80546121c090613a13565b80601f01602080910402602001604051908101604052809291908181526020018280546121ec90613a13565b80156122395780601f1061220e57610100808354040283529160200191612239565b820191906000526020600020905b81548152906001019060200180831161221c57829003601f168201915b50505050509a5089805461224c90613a13565b80601f016020809104026020016040519081016040528092919081815260200182805461227890613a13565b80156122c55780601f1061229a576101008083540402835291602001916122c5565b820191906000526020600020905b8154815290600101906020018083116122a857829003601f168201915b505050505099508880546122d890613a13565b80601f016020809104026020016040519081016040528092919081815260200182805461230490613a13565b80156123515780601f1061232657610100808354040283529160200191612351565b820191906000526020600020905b81548152906001019060200180831161233457829003601f168201915b505050505098509b509b509b509b509b509b509b509b509b509b509b505091939597999b90929496989a50565b60008054906101000a900473ffffffffffffffffffffffffffffffffffffffff1673ffffffffffffffffffffffffffffffffffffffff1663fe9fbb80336040518263ffffffff1660e01b81526004016123d79190613148565b602060405180830381865afa1580156123f4573d6000803e3d6000fd5b505050506040513d601f19601f820116820180604052508101906124189190613178565b612457576040517f08c379a000000000000000000000000000000000000000000000000000000000815260040161244e906131f1565b60405180910390fd5b8160006002600083815260200190815260200160002090508060050160009054906101000a900473ffffffffffffffffffffffffffffffffffffffff1673ffffffffffffffffffffffffffffffffffffffff163373ffffffffffffffffffffffffffffffffffffffff1614612501576040517f08c379a00000000000000000000000000000000000000000000000000000000081526004016124f89061345c565b60405180910390fd5b6000600260008681526020019081526020016000209050600073ffffffffffffffffffffffffffffffffffffffff168160050160009054906101000a900473ffffffffffffffffffffffffffffffffffffffff1673ffffffffffffffffffffffffffffffffffffffff16036125ab576040517f08c379a00000000000000000000000000000000000000000000000000000000081526004016125a290613053565b60405180910390fd5b806006015484116125f1576040517f08c379a00000000000000000000000000000000000000000000000000000000081526004016125e890613dd2565b60405180910390fd5b428411612633576040517f08c379a000000000000000000000000000000000000000000000000000000000815260040161262a90613e64565b60405180910390fd5b8381600601819055504281600901819055505050505050565b60015481565b60008054906101000a900473ffffffffffffffffffffffffffffffffffffffff1673ffffffffffffffffffffffffffffffffffffffff1663fe9fbb80336040518263ffffffff1660e01b81526004016126ab9190613148565b602060405180830381865afa1580156126c8573d6000803e3d6000fd5b505050506040513d601f19601f820116820180604052508101906126ec9190613178565b61272b576040517f08c379a0000000000000000000000000000000000000000000000000000000008152600401612722906131f1565b60405180910390fd5b8060006002600083815260200190815260200160002090508060050160009054906101000a900473ffffffffffffffffffffffffffffffffffffffff1673ffffffffffffffffffffffffffffffffffffffff163373ffffffffffffffffffffffffffffffffffffffff16146127d5576040517f08c379a00000000000000000000000000000000000000000000000000000000081526004016127cc9061345c565b60405180910390fd5b6000600260008581526020019081526020016000209050600073ffffffffffffffffffffffffffffffffffffffff168160050160009054906101000a900473ffffffffffffffffffffffffffffffffffffffff1673ffffffffffffffffffffffffffffffffffffffff160361287f576040517f08c379a000000000000000000000000000000000000000000000000000000000815260040161287690613053565b60405180910390fd5b8060050160149054906101000a900460ff166128d0576040517f08c379a00000000000000000000000000000000000000000000000000000000081526004016128c790613ed0565b60405180910390fd5b60008160050160146101000a81548160ff021916908315150217905550428160090181905550837f1d4acf5b5169381a31b16d43bf25ffcb1d6f22f1127bb0c412a0d970e25affb5426040516129269190612e4d565b60405180910390a250505050565b600080fd5b600080fd5b6000819050919050565b6129518161293e565b811461295c57600080fd5b50565b60008135905061296e81612948565b92915050565b600073ffffffffffffffffffffffffffffffffffffffff82169050919050565b600061299f82612974565b9050919050565b6129af81612994565b81146129ba57600080fd5b50565b6000813590506129cc816129a6565b92915050565b600080604083850312156129e9576129e8612934565b5b60006129f78582860161295f565b9250506020612a08858286016129bd565b9150509250929050565b60008115159050919050565b612a2781612a12565b82525050565b6000604082019050612a426000830185612a1e565b612a4f6020830184612a1e565b9392505050565b600081519050919050565b600082825260208201905092915050565b6000819050602082019050919050565b612a8b8161293e565b82525050565b6000612a9d8383612a82565b60208301905092915050565b6000602082019050919050565b6000612ac182612a56565b612acb8185612a61565b9350612ad683612a72565b8060005b83811015612b07578151612aee8882612a91565b9750612af983612aa9565b925050600181019050612ada565b5085935050505092915050565b60006020820190508181036000830152612b2e8184612ab6565b905092915050565b600060208284031215612b4c57612b4b612934565b5b6000612b5a8482850161295f565b91505092915050565b600060208284031215612b7957612b78612934565b5b6000612b87848285016129bd565b91505092915050565b612b9981612a12565b8114612ba457600080fd5b50565b600081359050612bb681612b90565b92915050565b60008060408385031215612bd357612bd2612934565b5b6000612be18582860161295f565b9250506020612bf285828601612ba7565b9150509250929050565b612c058161293e565b82525050565b6000819050919050565b612c1e81612c0b565b82525050565b600060a082019050612c396000830188612bfc565b612c466020830187612bfc565b612c536040830186612c15565b612c606060830185612bfc565b612c6d6080830184612bfc565b9695505050505050565b6000602082019050612c8c6000830184612a1e565b92915050565b6000819050919050565b6000612cb7612cb2612cad84612974565b612c92565b612974565b9050919050565b6000612cc982612c9c565b9050919050565b6000612cdb82612cbe565b9050919050565b612ceb81612cd0565b82525050565b6000602082019050612d066000830184612ce2565b92915050565b600080fd5b600080fd5b600080fd5b60008083601f840112612d3157612d30612d0c565b5b8235905067ffffffffffffffff811115612d4e57612d4d612d11565b5b602083019150836001820283011115612d6a57612d69612d16565b5b9250929050565b60008060008060008060008060a0898b031215612d9157612d90612934565b5b600089013567ffffffffffffffff811115612daf57612dae612939565b5b612dbb8b828c01612d1b565b9850985050602089013567ffffffffffffffff811115612dde57612ddd612939565b5b612dea8b828c01612d1b565b9650965050604089013567ffffffffffffffff811115612e0d57612e0c612939565b5b612e198b828c01612d1b565b94509450506060612e2c8b828c0161295f565b9250506080612e3d8b828c0161295f565b9150509295985092959890939650565b6000602082019050612e626000830184612bfc565b92915050565b600081519050919050565b600082825260208201905092915050565b60005b83811015612ea2578082015181840152602081019050612e87565b60008484015250505050565b6000601f19601f8301169050919050565b6000612eca82612e68565b612ed48185612e73565b9350612ee4818560208601612e84565b612eed81612eae565b840191505092915050565b612f0181612994565b82525050565b6000610160820190508181036000830152612f22818e612ebf565b90508181036020830152612f36818d612ebf565b90508181036040830152612f4a818c612ebf565b9050612f59606083018b612bfc565b612f66608083018a612bfc565b612f7360a0830189612ef8565b612f8060c0830188612a1e565b612f8d60e0830187612bfc565b612f9b610100830186612bfc565b612fa9610120830185612bfc565b612fb7610140830184612bfc565b9c9b505050505050505050505050565b60008060408385031215612fde57612fdd612934565b5b6000612fec8582860161295f565b9250506020612ffd8582860161295f565b9150509250929050565b7f50726f706f73616c20646f6573206e6f74206578697374000000000000000000600082015250565b600061303d601783612e73565b915061304882613007565b602082019050919050565b6000602082019050818103600083015261306c81613030565b9050919050565b7f4e487b7100000000000000000000000000000000000000000000000000000000600052604160045260246000fd5b7f4e487b7100000000000000000000000000000000000000000000000000000000600052603260045260246000fd5b7f4e487b7100000000000000000000000000000000000000000000000000000000600052601160045260246000fd5b600061310b8261293e565b91507fffffffffffffffffffffffffffffffffffffffffffffffffffffffffffffffff820361313d5761313c6130d1565b5b600182019050919050565b600060208201905061315d6000830184612ef8565b92915050565b60008151905061317281612b90565b92915050565b60006020828403121561318e5761318d612934565b5b600061319c84828501613163565b91505092915050565b7f55736572206e6f7420617574686f72697a656400000000000000000000000000600082015250565b60006131db601383612e73565b91506131e6826131a5565b602082019050919050565b6000602082019050818103600083015261320a816131ce565b9050919050565b7f50726f706f73616c206973206e6f742061637469766500000000000000000000600082015250565b6000613247601683612e73565b915061325282613211565b602082019050919050565b600060208201905081810360008301526132768161323a565b9050919050565b7f50726f706f73616c206861732065787069726564000000000000000000000000600082015250565b60006132b3601483612e73565b91506132be8261327d565b602082019050919050565b600060208201905081810360008301526132e2816132a6565b9050919050565b7f596f75206861766520616c726561647920766f746564204e4f206f6e2074686960008201527f732070726f706f73616c00000000000000000000000000000000000000000000602082015250565b6000613345602a83612e73565b9150613350826132e9565b604082019050919050565b6000602082019050818103600083015261337481613338565b9050919050565b7f43616e6e6f7420766f7465206f6e20796f7572206f776e2070726f706f73616c600082015250565b60006133b1602083612e73565b91506133bc8261337b565b602082019050919050565b600060208201905081810360008301526133e0816133a4565b9050919050565b60006133f28261293e565b915060008203613405576134046130d1565b5b600182039050919050565b7f4f6e6c792063726561746f722063616e206d6f646966792070726f706f73616c600082015250565b6000613446602083612e73565b915061345182613410565b602082019050919050565b6000602082019050818103600083015261347581613439565b9050919050565b7f53746174757320697320616c72656164792073657420746f207468697320766160008201527f6c75650000000000000000000000000000000000000000000000000000000000602082015250565b60006134d8602383612e73565b91506134e38261347c565b604082019050919050565b60006020820190508181036000830152613507816134cb565b9050919050565b7f596f752068617665206e6f7420766f746564206f6e20746869732070726f706f60008201527f73616c0000000000000000000000000000000000000000000000000000000000602082015250565b600061356a602383612e73565b91506135758261350e565b604082019050919050565b600060208201905081810360008301526135998161355d565b9050919050565b60006135ab82612c0b565b91506135b683612c0b565b92508282039050818112600084121682821360008512151617156135dd576135dc6130d1565b5b92915050565b60006135ee8261293e565b91506135f98361293e565b9250828201905080821115613611576136106130d1565b5b92915050565b60006136228261293e565b915061362d8361293e565b925082820261363b8161293e565b91508282048414831517613652576136516130d1565b5b5092915050565b7f4e487b7100000000000000000000000000000000000000000000000000000000600052601260045260246000fd5b60006136938261293e565b915061369e8361293e565b9250826136ae576136ad613659565b5b828204905092915050565b7f596f75206861766520616c726561647920766f74656420594553206f6e20746860008201527f69732070726f706f73616c000000000000000000000000000000000000000000602082015250565b6000613715602b83612e73565b9150613720826136b9565b604082019050919050565b6000602082019050818103600083015261374481613708565b9050919050565b7f5469746c65204349442063616e6e6f7420626520656d70747900000000000000600082015250565b6000613781601983612e73565b915061378c8261374b565b602082019050919050565b600060208201905081810360008301526137b081613774565b9050919050565b7f53686f7274206465736372697074696f6e204349442063616e6e6f742062652060008201527f656d707479000000000000000000000000000000000000000000000000000000602082015250565b6000613813602583612e73565b915061381e826137b7565b604082019050919050565b6000602082019050818103600083015261384281613806565b9050919050565b7f44657461696c6564206465736372697074696f6e204349442063616e6e6f742060008201527f626520656d707479000000000000000000000000000000000000000000000000602082015250565b60006138a5602883612e73565b91506138b082613849565b604082019050919050565b600060208201905081810360008301526138d481613898565b9050919050565b7f457870697265642064617465206d75737420626520696e20746865206675747560008201527f7265000000000000000000000000000000000000000000000000000000000000602082015250565b6000613937602283612e73565b9150613942826138db565b604082019050919050565b600060208201905081810360008301526139668161392a565b9050919050565b7f43617465676f7279204944206d7573742062652076616c696400000000000000600082015250565b60006139a3601983612e73565b91506139ae8261396d565b602082019050919050565b600060208201905081810360008301526139d281613996565b9050919050565b600082905092915050565b7f4e487b7100000000000000000000000000000000000000000000000000000000600052602260045260246000fd5b60006002820490506001821680613a2b57607f821691505b602082108103613a3e57613a3d6139e4565b5b50919050565b60008190508160005260206000209050919050565b60006020601f8301049050919050565b600082821b905092915050565b600060088302613aa67fffffffffffffffffffffffffffffffffffffffffffffffffffffffffffffffff82613a69565b613ab08683613a69565b95508019841693508086168417925050509392505050565b6000613ae3613ade613ad98461293e565b612c92565b61293e565b9050919050565b6000819050919050565b613afd83613ac8565b613b11613b0982613aea565b848454613a76565b825550505050565b600090565b613b26613b19565b613b31818484613af4565b505050565b5b81811015613b5557613b4a600082613b1e565b600181019050613b37565b5050565b601f821115613b9a57613b6b81613a44565b613b7484613a59565b81016020851015613b83578190505b613b97613b8f85613a59565b830182613b36565b50505b505050565b600082821c905092915050565b6000613bbd60001984600802613b9f565b1980831691505092915050565b6000613bd68383613bac565b9150826002028217905092915050565b613bf083836139d9565b67ffffffffffffffff811115613c0957613c08613073565b5b613c138254613a13565b613c1e828285613b59565b6000601f831160018114613c4d5760008415613c3b578287013590505b613c458582613bca565b865550613cad565b601f198416613c5b86613a44565b60005b82811015613c8357848901358255600182019150602085019450602081019050613c5e565b86831015613ca05784890135613c9c601f891682613bac565b8355505b6001600288020188555050505b50505050505050565b82818337600083830152505050565b6000613cd18385612e73565b9350613cde838584613cb6565b613ce783612eae565b840190509392505050565b600060a0820190508181036000830152613d0d818a8c613cc5565b90508181036020830152613d2281888a613cc5565b90508181036040830152613d37818688613cc5565b9050613d466060830185612bfc565b613d536080830184612bfc565b9998505050505050505050565b7f43616e206f6e6c7920657874656e6420646561646c696e652c206e6f7420726560008201527f6475636520697400000000000000000000000000000000000000000000000000602082015250565b6000613dbc602783612e73565b9150613dc782613d60565b604082019050919050565b60006020820190508181036000830152613deb81613daf565b9050919050565b7f4e657720646561646c696e65206d75737420626520696e20746865206675747560008201527f7265000000000000000000000000000000000000000000000000000000000000602082015250565b6000613e4e602283612e73565b9150613e5982613df2565b604082019050919050565b60006020820190508181036000830152613e7d81613e41565b9050919050565b7f50726f706f73616c20697320616c726561647920696e61637469766500000000600082015250565b6000613eba601c83612e73565b9150613ec582613e84565b602082019050919050565b60006020820190508181036000830152613ee981613ead565b905091905056fea26469706673582212202227335b2c28d554461ce067c3d2277949b15409b23d82953d0963a01042ff1c64736f6c63430008140033",
  "linkReferences": {},
  "deployedLinkReferences": {}
}