{
  "_format": "hh-sol-artifact-1",
  "contractName": "Policies",
  "sourceName": "contracts/policy/policy.sol",
  "abi": [
    {
      "inputs": [
        {
          "internalType": "address",
          "name": "_authRegistry",
          "type": "address"
        }
      ],
      "stateMutability": "nonpayable",
      "type": "constructor"
    },
    {
      "anonymous": false,
      "inputs": [
        {
          "indexed": true,
          "internalType": "uint256",
          "name": "policyId",
          "type": "uint256"
        },
        {
          "indexed": true,
          "internalType": "address",
          "name": "creator",
          "type": "address"
        },
        {
          "indexed": false,
          "internalType": "string",
          "name": "name",
          "type": "string"
        },
        {
          "indexed": false,
          "internalType": "string",
          "name": "descriptionCid",
          "type": "string"
        },
        {
          "indexed": false,
          "internalType": "string",
          "name": "ministry",
          "type": "string"
        },
        {
          "indexed": false,
          "internalType": "string",
          "name": "status",
          "type": "string"
        }
      ],
      "name": "PolicyCreated",
      "type": "event"
    },
    {
      "anonymous": false,
      "inputs": [
        {
          "indexed": true,
          "internalType": "uint256",
          "name": "policyId",
          "type": "uint256"
        },
        {
          "indexed": true,
          "internalType": "address",
          "name": "remover",
          "type": "address"
        }
      ],
      "name": "PolicyRemoved",
      "type": "event"
    },
    {
      "anonymous": false,
      "inputs": [
        {
          "indexed": true,
          "internalType": "uint256",
          "name": "policyId",
          "type": "uint256"
        },
        {
          "indexed": false,
          "internalType": "string",
          "name": "oldStatus",
          "type": "string"
        },
        {
          "indexed": false,
          "internalType": "string",
          "name": "newStatus",
          "type": "string"
        },
        {
          "indexed": true,
          "internalType": "address",
          "name": "changer",
          "type": "address"
        }
      ],
      "name": "PolicyStatusChanged",
      "type": "event"
    },
    {
      "anonymous": false,
      "inputs": [
        {
          "indexed": true,
          "internalType": "uint256",
          "name": "policyId",
          "type": "uint256"
        },
        {
          "indexed": true,
          "internalType": "address",
          "name": "supporter",
          "type": "address"
        }
      ],
      "name": "PolicySupported",
      "type": "event"
    },
    {
      "anonymous": false,
      "inputs": [
        {
          "indexed": true,
          "internalType": "uint256",
          "name": "policyId",
          "type": "uint256"
        },
        {
          "indexed": true,
          "internalType": "address",
          "name": "supporter",
          "type": "address"
        }
      ],
      "name": "PolicyUnsupported",
      "type": "event"
    },
    {
      "anonymous": false,
      "inputs": [
        {
          "indexed": true,
          "internalType": "uint256",
          "name": "policyId",
          "type": "uint256"
        },
        {
          "indexed": true,
          "internalType": "address",
          "name": "updater",
          "type": "address"
        },
        {
          "indexed": false,
          "internalType": "string",
          "name": "status",
          "type": "string"
        },
        {
          "indexed": false,
          "internalType": "uint256",
          "name": "effectiveDate",
          "type": "uint256"
        }
      ],
      "name": "PolicyUpdated",
      "type": "event"
    },
    {
      "inputs": [],
      "name": "authRegistry",
      "outputs": [
        {
          "internalType": "contract IAuthRegistry",
          "name": "",
          "type": "address"
        }
      ],
      "stateMutability": "view",
      "type": "function"
    },
    {
      "inputs": [
        {
          "internalType": "string",
          "name": "name",
          "type": "string"
        },
        {
          "internalType": "string",
          "name": "descriptionCid",
          "type": "string"
        },
        {
          "internalType": "string",
          "name": "viewFullPolicy",
          "type": "string"
        },
        {
          "internalType": "string",
          "name": "ministry",
          "type": "string"
        },
        {
          "internalType": "uint256",
          "name": "effectiveDate",
          "type": "uint256"
        }
      ],
      "name": "createPolicy",
      "outputs": [
        {
          "internalType": "uint256",
          "name": "",
          "type": "uint256"
        }
      ],
      "stateMutability": "nonpayable",
      "type": "function"
    },
    {
      "inputs": [
        {
          "internalType": "uint256",
          "name": "policyId",
          "type": "uint256"
        }
      ],
      "name": "getPolicy",
      "outputs": [
        {
          "internalType": "string",
          "name": "name",
          "type": "string"
        },
        {
          "internalType": "string",
          "name": "descriptionCid",
          "type": "string"
        },
        {
          "internalType": "string",
          "name": "viewFullPolicy",
          "type": "string"
        },
        {
          "internalType": "string",
          "name": "ministry",
          "type": "string"
        },
        {
          "internalType": "string",
          "name": "status",
          "type": "string"
        },
        {
          "internalType": "address",
          "name": "creator",
          "type": "address"
        },
        {
          "internalType": "uint256",
          "name": "createdAt",
          "type": "uint256"
        },
        {
          "internalType": "uint256",
          "name": "effectiveDate",
          "type": "uint256"
        },
        {
          "internalType": "uint256",
          "name": "lastUpdated",
          "type": "uint256"
        },
        {
          "internalType": "uint256",
          "name": "supportCount",
          "type": "uint256"
        },
        {
          "internalType": "bool",
          "name": "isActive",
          "type": "bool"
        },
        {
          "internalType": "bool",
          "name": "removed",
          "type": "bool"
        }
      ],
      "stateMutability": "view",
      "type": "function"
    },
    {
      "inputs": [
        {
          "internalType": "address",
          "name": "",
          "type": "address"
        }
      ],
      "name": "lastCreatedAt",
      "outputs": [
        {
          "internalType": "uint256",
          "name": "",
          "type": "uint256"
        }
      ],
      "stateMutability": "view",
      "type": "function"
    },
    {
      "inputs": [
        {
          "internalType": "string",
          "name": "",
          "type": "string"
        },
        {
          "internalType": "uint256",
          "name": "",
          "type": "uint256"
        }
      ],
      "name": "policiesByMinistry",
      "outputs": [
        {
          "internalType": "uint256",
          "name": "",
          "type": "uint256"
        }
      ],
      "stateMutability": "view",
      "type": "function"
    },
    {
      "inputs": [
        {
          "internalType": "string",
          "name": "",
          "type": "string"
        },
        {
          "internalType": "uint256",
          "name": "",
          "type": "uint256"
        }
      ],
      "name": "policiesByStatus",
      "outputs": [
        {
          "internalType": "uint256",
          "name": "",
          "type": "uint256"
        }
      ],
      "stateMutability": "view",
      "type": "function"
    },
    {
      "inputs": [],
      "name": "policyCount",
      "outputs": [
        {
          "internalType": "uint256",
          "name": "",
          "type": "uint256"
        }
      ],
      "stateMutability": "view",
      "type": "function"
    },
    {
      "inputs": [
        {
          "internalType": "uint256",
          "name": "policyId",
          "type": "uint256"
        }
      ],
      "name": "removePolicy",
      "outputs": [],
      "stateMutability": "nonpayable",
      "type": "function"
    },
    {
      "inputs": [
        {
          "internalType": "uint256",
          "name": "policyId",
          "type": "uint256"
        }
      ],
      "name": "supportPolicy",
      "outputs": [],
      "stateMutability": "nonpayable",
      "type": "function"
    },
    {
      "inputs": [
        {
          "internalType": "uint256",
          "name": "policyId",
          "type": "uint256"
        }
      ],
      "name": "unsupportPolicy",
      "outputs": [],
      "stateMutability": "nonpayable",
      "type": "function"
    },
    {
      "inputs": [
        {
          "internalType": "uint256",
          "name": "policyId",
          "type": "uint256"
        },
        {
          "internalType": "string",
          "name": "newStatus",
          "type": "string"
        },
        {
          "internalType": "uint256",
          "name": "newEffectiveDate",
          "type": "uint256"
        }
      ],
      "name": "updatePolicyStatus",
      "outputs": [],
      "stateMutability": "nonpayable",
      "type": "function"
    }
  ],
  "bytecode": "0x6080346100cb57601f61182f38819003918201601f19168301916001600160401b038311848410176100d0578084926020946040528339810103126100cb57516001600160a01b038116908190036100cb57801561007a57600080546001600160a01b03191691909117905560405161174890816100e78239f35b60405162461bcd60e51b8152602060048201526024808201527f4175746820726567697374727920616464726573732063616e6e6f74206265206044820152637a65726f60e01b6064820152608490fd5b600080fd5b634e487b7160e01b600052604160045260246000fdfe6080604052600436101561001257600080fd5b60003560e01c80632b07fce3146111a95780632d1564dd1461105657806350c99e7c14610ec0578063629e025a14610e975780636caddcdc14610d865780638f03ad6e14610867578063b94afa7114610829578063be0973b1146107f7578063c29f42e9146107a2578063de54d429146107845763f5c2d1861461009557600080fd5b3461077f5760a036600319011261077f576004356001600160401b03811161077f576100c5903690600401611339565b6024356001600160401b03811161077f576100e4903690600401611339565b90916044356001600160401b03811161077f57610105903690600401611339565b9290936064356001600160401b03811161077f57610127903690600401611339565b600054604051630935e01b60e21b8152336004820152929491939290602090829060249082906001600160a01b03165afa80156107735761017091600091610744575b50611470565b84156107085780156106c357851561067e578215610639576101936001546114ac565b96876001558760005260026020526040600020966001600160401b0387116104c2576101c9876101c38a546114bb565b8a61150c565b866000601f82116001146105d2576000916105c7575b508760011b906000198960031b1c19161788555b6001600160401b0383116104c25761021b8361021260018b01546114bb565b60018b0161150c565b826000601f82116001146105595760009161054e575b508360011b906000198560031b1c19161760018901555b6001600160401b0381116104c2578060028901926102708261026a86546114bb565b8661150c565b600090601f83116001146104e3576000926104d8575b50508160011b916000199060031b1c19161790555b6001600160401b0383116104c2576102c3836102ba60038901546114bb565b6003890161150c565b600097601f841160011461045257838899600099989991610447575b508460011b906000198660031b1c19161760038901555b600488019761030589546114bb565b601f8111610425575b5064111490519560da1b98600a8a01905560058101336bffffffffffffffffffffffff60a01b8254161790554260068201556084356007820155426008820155600b0161ffff198154169055866040518587823780868101600481520360200190209061037a91611553565b60405188815260058082015260259020610395908890611553565b33600052600360205242604060002055604051956080875260808701906103bb9261157b565b9085820360208701526103cd9261157b565b9083820360408501526103df9261157b565b9281840393846060840152600581526020015233926040017f27a2761f5ffc4e00cb4a17ae63df13edf7bbde45f08c0a77569cfddd2d47ed5f91a3604051908152602090f35b610441908a600052601f6020600020910160051c8101906114f5565b3861030e565b9050850135386102df565b60038701600052602060002060005b601f19861681106104aa5750889985601f9a999a19811610610490575b5050600184811b0160038901556102f6565b860135600019600387901b60f8161c19169055388061047e565b868b0135825560209a8b019a60019092019101610461565b634e487b7160e01b600052604160045260246000fd5b013590503880610286565b909150601f198316918460005260206000209260005b818110610536575090846001959493921061051c575b505050811b01905561029b565b0135600019600384901b60f8161c1916905538808061050f565b919360206001819287870135815501950192016104f9565b905084013538610231565b90506001890160005260206000209060005b601f19861681106105af575084601f19811610610595575b5050600183811b016001890155610248565b850135600019600386901b60f8161c191690553880610583565b9091602060018192858a01358155019301910161056b565b90508a0135386101df565b60008a81526020812092505b8c601f198b16821061062157505088601f19811610610607575b5050600187811b0188556101f3565b8b013560001960038a901b60f8161c1916905538806105f8565b600183946020939484930135815501930191016105de565b60405162461bcd60e51b815260206004820152601860248201527f4d696e69737472792063616e6e6f7420626520656d70747900000000000000006044820152606490fd5b60405162461bcd60e51b815260206004820152601f60248201527f46756c6c20706f6c6963792055524c2063616e6e6f7420626520656d707479006044820152606490fd5b60405162461bcd60e51b815260206004820152601f60248201527f4465736372697074696f6e204349442063616e6e6f7420626520656d707479006044820152606490fd5b60405162461bcd60e51b81526020600482015260146024820152734e616d652063616e6e6f7420626520656d70747960601b6044820152606490fd5b610766915060203d60201161076c575b61075e8183611381565b810190611458565b3861016a565b503d610754565b6040513d6000823e3d90fd5b600080fd5b3461077f57600036600319011261077f576020600154604051908152f35b3461077f5760206107ca6107b5366113e8565b929081604051938285809451938492016112f1565b81016004815203019020805482101561077f576020916107e99161142a565b90546040519160031b1c8152f35b3461077f57602061080a6107b5366113e8565b81016005815203019020805482101561077f576020916107e99161142a565b3461077f57602036600319011261077f576004356001600160a01b0381169081900361077f5760005260036020526020604060002054604051908152f35b3461077f57606036600319011261077f5760246001600160401b03600435823582811161077f5761089c903690600401611339565b600054604051630935e01b60e21b81523360048201526020966044359594929091906001600160a01b0390899083908590829085165afa9182156107735761091a926108ef91600091610d695750611470565b85151580610d5d575b6109019061159c565b856000526002895260056040600020015416151561159c565b836000526002875261093a60ff600b6040600020015460081c16156115e0565b8360005260028752604060002094600486016109558161162c565b926040518a81865161096a8183858b016112f1565b810160058152030190209860005b8a5480821015610d4c57899061098e838e61142a565b929054600393841b1c146109ac5750506109a7906114ac565b610978565b9092939495969798999a9b9160001991828101908111610d3757906109e46109d76109fd938661142a565b905490871b1c918561142a565b90919082549060031b91821b91600019901b1916179055565b81548015610d2257810192610a12848461142a565b81939154921b1b19169055555b8611610d0e5750610a3a85610a3483546114bb565b8361150c565b6000601f8611600114610c7e57926007927fad2e1dfc6994aeeaf151fa20c453bac06d98c011752a28edadb877ad0f077cf797989287610b8996600091610c73575b508860011b906000198a60031b1c19161790555b42600884015580610c69575b50610aba88604051888882378b818a81016005815203019020611553565b7fdb6d55a48c634fdfe68da24c01559762c293198f8322e1fed7ca8976fc4ed260610ae63688886113a2565b8a81519101206541435449564560d01b8b604051610b0381611366565b6006815201521480610c5c575b15610b9557600b8201805460ff191660011790555b877f7349e505864221fcf2768bf72491e152fedc76f5d0a627184f0fdace25d15207610b5c60405193604085526040850190611314565b928084038c82015280610b7133958b8b61157b565b0390a30154916040519360408552604085019161157b565b948201528033940390a3005b7f0e71c910d536b61fcef69518c42a88c159e7af67bb3870c8551c6d0c8616ea97610bc13688886113a2565b8a815191012067494e41435449564560c01b8b604051610be081611366565b600881520152148015610c04575b15610b2557600b8201805460ff19169055610b25565b507fe6c285292cab7e0caa931a7e4e62e4b31622725235f51dca3c4727d29d299083610c313688886113a2565b8a815191012067105490d21255915160c21b8b604051610c5081611366565b60088152015214610bee565b5042838301541115610b10565b8383015589610a9c565b90508701358c610a7c565b601f1986169082600052896000209160005b8b828210610cf857505092610b89959260079592897fad2e1dfc6994aeeaf151fa20c453bac06d98c011752a28edadb877ad0f077cf79b9c9610610cde575b5050600188811b019055610a90565b88013560001960038b901b60f8161c191690558b80610ccf565b600184958293958b013581550194019201610c90565b634e487b7160e01b60009081526041600452fd5b85634e487b7160e01b60005260316004526000fd5b86634e487b7160e01b60005260116004526000fd5b505090919293949596979850610a1f565b506001548611156108f8565b610d8091508b3d8d1161076c5761075e8183611381565b8b61016a565b3461077f5760208060031936011261077f5760246004359160018060a01b0381816000541660405194858092630935e01b60e21b82523360048301525afa90811561077357610de2610e0c92600295600091610e7a5750611470565b84151580610e6e575b610df49061159c565b8460005283835260056040600020015416151561159c565b82600052818152610e2b60ff600b6040600020015460081c16156115e0565b8260005252600b60406000200161010061ff001982541617905533907f32c0c3b8e819967869a0bb85ca7fdd96f84ef60145dc478b2bcda11335bb5e31600080a3005b50600154851115610deb565b610e919150853d871161076c5761075e8183611381565b8761016a565b3461077f57600036600319011261077f576000546040516001600160a01b039091168152602090f35b3461077f5760208060031936011261077f57600435602460018060a01b03838160005416604051938480926301fd3f7760e71b82523360048301525afa91821561077357610f4592610f1a91600091611039575b506116d0565b8215158061102d575b610f2c9061159c565b826000526002845260056040600020015416151561159c565b8060005260028252610f6560ff600b6040600020015460081c16156115e0565b80600052600282526040600020600981013360005280845260ff60406000205416610fd957600a929333600052526040600020600160ff1982541617905501610fae81546114ac565b905533907f6ff95833b52ac3452956a7bb5c91e936d7c7c624ce4da8021edd243f5e745247600080a3005b60405162461bcd60e51b815260048101859052602660248201527f596f75206861766520616c726561647920737570706f72746564207468697320604482015265706f6c69637960d01b6064820152608490fd5b50600154831115610f23565b6110509150863d881161076c5761075e8183611381565b86610f14565b3461077f5760208060031936011261077f57600435602460018060a01b03838160005416604051938480926301fd3f7760e71b82523360048301525afa918215610773576110af92610f1a9160009161103957506116d0565b80600052600282526110cf60ff600b6040600020015460081c16156115e0565b80600052600282526040600020600981013360005280845260ff604060002054161561115957600a92933360005252604060002060ff19815416905501805480156111435760001901905533907f4f5e69cf0daac20b9598091ca3a707300335719bb525c0972393b1bfb854e51b600080a3005b634e487b7160e01b600052601160045260246000fd5b60405162461bcd60e51b815260048101859052602260248201527f596f752068617665206e6f7420737570706f72746564207468697320706f6c69604482015261637960f01b6064820152608490fd5b3461077f57602036600319011261077f57600435801515806112e5575b6111cf9061159c565b600090815260026020526040902060058101546001600160a01b03166111f681151561159c565b60068201549060078301546008840154600a85015490600b8601549261121b8761162c565b956112286001890161162c565b976112356002820161162c565b906112426003820161162c565b9060040161124f9061162c565b916040519a8b9a610180808d528c0161126791611314565b8b810360208d015261127891611314565b8a810360408c015261128991611314565b89810360608b015261129a91611314565b88810360808a01526112ab91611314565b9560a088015260c087015260e086015261010085015261012084015260ff8116151561014084015260081c60ff1615156101608301520390f35b506001548111156111c6565b60005b8381106113045750506000910152565b81810151838201526020016112f4565b9060209161132d815180928185528580860191016112f1565b601f01601f1916010190565b9181601f8401121561077f578235916001600160401b03831161077f576020838186019501011161077f57565b604081019081106001600160401b038211176104c257604052565b90601f801991011681019081106001600160401b038211176104c257604052565b9291926001600160401b0382116104c257604051916113cb601f8201601f191660200184611381565b82948184528183011161077f578281602093846000960137010152565b604060031982011261077f57600435906001600160401b03821161077f578060238301121561077f57816024611423936004013591016113a2565b9060243590565b80548210156114425760005260206000200190600090565b634e487b7160e01b600052603260045260246000fd5b9081602091031261077f5751801515810361077f5790565b1561147757565b60405162461bcd60e51b815260206004820152600d60248201526c2737902832b936b4b9b9b4b7b760991b6044820152606490fd5b60001981146111435760010190565b90600182811c921680156114eb575b60208310146114d557565b634e487b7160e01b600052602260045260246000fd5b91607f16916114ca565b818110611500575050565b600081556001016114f5565b9190601f811161151b57505050565b611547926000526020600020906020601f840160051c83019310611549575b601f0160051c01906114f5565b565b909150819061153a565b90815491680100000000000000008310156104c257826109e49160016115479501815561142a565b908060209392818452848401376000828201840152601f01601f1916010190565b156115a357565b60405162461bcd60e51b8152602060048201526015602482015274141bdb1a58de48191bd95cc81b9bdd08195e1a5cdd605a1b6044820152606490fd5b156115e757565b60405162461bcd60e51b815260206004820152601760248201527f506f6c69637920686173206265656e2072656d6f7665640000000000000000006044820152606490fd5b9060405191826000825492611640846114bb565b9081845260019485811690816000146116ad575060011461166a575b505061154792500383611381565b9093915060005260209081600020936000915b8183106116955750506115479350820101388061165c565b8554888401850152948501948794509183019161167d565b91505061154794506020925060ff191682840152151560051b820101388061165c565b156116d757565b60405162461bcd60e51b8152602060048201526013602482015272155cd95c881b9bdd08185d5d1a1bdc9a5e9959606a1b6044820152606490fdfea2646970667358221220c623699a0854a6b5c5f6304a3b144884c2d8cc70347ab3fa264d6b42fb04d92364736f6c63430008140033",
  "linkReferences": {},
  "deployedLinkReferences": {}
}