{
  "_format": "hh-sol-artifact-1",
  "contractName": "Policies",
  "sourceName": "contracts/policy/policy.sol",
  "abi": [
    {
      "inputs": [
        {
          "internalType": "address",
          "name": "_authRegistry",
          "type": "address"
        }
      ],
      "stateMutability": "nonpayable",
      "type": "constructor"
    },
    {
      "anonymous": false,
      "inputs": [
        {
          "indexed": true,
          "internalType": "uint256",
          "name": "policyId",
          "type": "uint256"
        },
        {
          "indexed": true,
          "internalType": "address",
          "name": "creator",
          "type": "address"
        },
        {
          "indexed": false,
          "internalType": "string",
          "name": "name",
          "type": "string"
        },
        {
          "indexed": false,
          "internalType": "string",
          "name": "descriptionCid",
          "type": "string"
        },
        {
          "indexed": false,
          "internalType": "string",
          "name": "ministry",
          "type": "string"
        },
        {
          "indexed": false,
          "internalType": "string",
          "name": "status",
          "type": "string"
        }
      ],
      "name": "PolicyCreated",
      "type": "event"
    },
    {
      "anonymous": false,
      "inputs": [
        {
          "indexed": true,
          "internalType": "uint256",
          "name": "policyId",
          "type": "uint256"
        },
        {
          "indexed": false,
          "internalType": "string",
          "name": "oldStatus",
          "type": "string"
        },
        {
          "indexed": false,
          "internalType": "string",
          "name": "newStatus",
          "type": "string"
        },
        {
          "indexed": true,
          "internalType": "address",
          "name": "changer",
          "type": "address"
        }
      ],
      "name": "PolicyStatusChanged",
      "type": "event"
    },
    {
      "anonymous": false,
      "inputs": [
        {
          "indexed": true,
          "internalType": "uint256",
          "name": "policyId",
          "type": "uint256"
        },
        {
          "indexed": true,
          "internalType": "address",
          "name": "updater",
          "type": "address"
        },
        {
          "indexed": false,
          "internalType": "string",
          "name": "status",
          "type": "string"
        },
        {
          "indexed": false,
          "internalType": "uint256",
          "name": "effectiveDate",
          "type": "uint256"
        }
      ],
      "name": "PolicyUpdated",
      "type": "event"
    },
    {
      "inputs": [],
      "name": "authRegistry",
      "outputs": [
        {
          "internalType": "contract IAuthRegistry",
          "name": "",
          "type": "address"
        }
      ],
      "stateMutability": "view",
      "type": "function"
    },
    {
      "inputs": [
        {
          "internalType": "string",
          "name": "name",
          "type": "string"
        },
        {
          "internalType": "string",
          "name": "descriptionCid",
          "type": "string"
        },
        {
          "internalType": "string",
          "name": "viewFullPolicy",
          "type": "string"
        },
        {
          "internalType": "string",
          "name": "ministry",
          "type": "string"
        },
        {
          "internalType": "uint256",
          "name": "effectiveDate",
          "type": "uint256"
        }
      ],
      "name": "createPolicy",
      "outputs": [
        {
          "internalType": "uint256",
          "name": "",
          "type": "uint256"
        }
      ],
      "stateMutability": "nonpayable",
      "type": "function"
    },
    {
      "inputs": [
        {
          "internalType": "uint256",
          "name": "policyId",
          "type": "uint256"
        }
      ],
      "name": "getPolicy",
      "outputs": [
        {
          "internalType": "string",
          "name": "name",
          "type": "string"
        },
        {
          "internalType": "string",
          "name": "descriptionCid",
          "type": "string"
        },
        {
          "internalType": "string",
          "name": "viewFullPolicy",
          "type": "string"
        },
        {
          "internalType": "string",
          "name": "ministry",
          "type": "string"
        },
        {
          "internalType": "string",
          "name": "status",
          "type": "string"
        },
        {
          "internalType": "address",
          "name": "creator",
          "type": "address"
        },
        {
          "internalType": "uint256",
          "name": "createdAt",
          "type": "uint256"
        },
        {
          "internalType": "uint256",
          "name": "effectiveDate",
          "type": "uint256"
        },
        {
          "internalType": "uint256",
          "name": "lastUpdated",
          "type": "uint256"
        },
        {
          "internalType": "uint256",
          "name": "supportCount",
          "type": "uint256"
        },
        {
          "internalType": "bool",
          "name": "isActive",
          "type": "bool"
        }
      ],
      "stateMutability": "view",
      "type": "function"
    },
    {
      "inputs": [
        {
          "internalType": "address",
          "name": "",
          "type": "address"
        }
      ],
      "name": "lastCreatedAt",
      "outputs": [
        {
          "internalType": "uint256",
          "name": "",
          "type": "uint256"
        }
      ],
      "stateMutability": "view",
      "type": "function"
    },
    {
      "inputs": [
        {
          "internalType": "string",
          "name": "",
          "type": "string"
        },
        {
          "internalType": "uint256",
          "name": "",
          "type": "uint256"
        }
      ],
      "name": "policiesByMinistry",
      "outputs": [
        {
          "internalType": "uint256",
          "name": "",
          "type": "uint256"
        }
      ],
      "stateMutability": "view",
      "type": "function"
    },
    {
      "inputs": [
        {
          "internalType": "string",
          "name": "",
          "type": "string"
        },
        {
          "internalType": "uint256",
          "name": "",
          "type": "uint256"
        }
      ],
      "name": "policiesByStatus",
      "outputs": [
        {
          "internalType": "uint256",
          "name": "",
          "type": "uint256"
        }
      ],
      "stateMutability": "view",
      "type": "function"
    },
    {
      "inputs": [],
      "name": "policyCount",
      "outputs": [
        {
          "internalType": "uint256",
          "name": "",
          "type": "uint256"
        }
      ],
      "stateMutability": "view",
      "type": "function"
    },
    {
      "inputs": [
        {
          "internalType": "uint256",
          "name": "policyId",
          "type": "uint256"
        },
        {
          "internalType": "string",
          "name": "newStatus",
          "type": "string"
        },
        {
          "internalType": "uint256",
          "name": "newEffectiveDate",
          "type": "uint256"
        }
      ],
      "name": "updatePolicyStatus",
      "outputs": [],
      "stateMutability": "nonpayable",
      "type": "function"
    }
  ],
  "bytecode": "0x60806040523480156200001157600080fd5b50604051620024973803806200249783398181016040528101906200003791906200015a565b600073ffffffffffffffffffffffffffffffffffffffff168173ffffffffffffffffffffffffffffffffffffffff1603620000a9576040517f08c379a0000000000000000000000000000000000000000000000000000000008152600401620000a09062000213565b60405180910390fd5b806000806101000a81548173ffffffffffffffffffffffffffffffffffffffff021916908373ffffffffffffffffffffffffffffffffffffffff1602179055505062000235565b600080fd5b600073ffffffffffffffffffffffffffffffffffffffff82169050919050565b60006200012282620000f5565b9050919050565b620001348162000115565b81146200014057600080fd5b50565b600081519050620001548162000129565b92915050565b600060208284031215620001735762000172620000f0565b5b6000620001838482850162000143565b91505092915050565b600082825260208201905092915050565b7f4175746820726567697374727920616464726573732063616e6e6f742062652060008201527f7a65726f00000000000000000000000000000000000000000000000000000000602082015250565b6000620001fb6024836200018c565b915062000208826200019d565b604082019050919050565b600060208201905081810360008301526200022e81620001ec565b9050919050565b61225280620002456000396000f3fe608060405234801561001057600080fd5b50600436106100885760003560e01c8063be0973b11161005b578063be0973b114610131578063c29f42e914610161578063de54d42914610191578063f5c2d186146101af57610088565b80632b07fce31461008d578063629e025a146100c75780638f03ad6e146100e5578063b94afa7114610101575b600080fd5b6100a760048036038101906100a291906111c8565b6101df565b6040516100be9b9a999897969594939291906112f0565b60405180910390f35b6100cf610640565b6040516100dc919061141d565b60405180910390f35b6100ff60048036038101906100fa919061149d565b610664565b005b61011b6004803603810190610116919061153d565b610b74565b604051610128919061156a565b60405180910390f35b61014b600480360381019061014691906116b5565b610b8c565b604051610158919061156a565b60405180910390f35b61017b600480360381019061017691906116b5565b610bd3565b604051610188919061156a565b60405180910390f35b610199610c1a565b6040516101a6919061156a565b60405180910390f35b6101c960048036038101906101c49190611711565b610c20565b6040516101d6919061156a565b60405180910390f35b60608060608060606000806000806000808b60008111801561020357506001548111155b610242576040517f08c379a000000000000000000000000000000000000000000000000000000000815260040161023990611859565b60405180910390fd5b600073ffffffffffffffffffffffffffffffffffffffff166002600083815260200190815260200160002060050160009054906101000a900473ffffffffffffffffffffffffffffffffffffffff1673ffffffffffffffffffffffffffffffffffffffff16036102e7576040517f08c379a00000000000000000000000000000000000000000000000000000000081526004016102de90611859565b60405180910390fd5b6000600260008f8152602001908152602001600020905080600001816001018260020183600301846004018560050160009054906101000a900473ffffffffffffffffffffffffffffffffffffffff1686600601548760070154886008015489600a01548a600b0160009054906101000a900460ff168a8054610369906118a8565b80601f0160208091040260200160405190810160405280929190818152602001828054610395906118a8565b80156103e25780601f106103b7576101008083540402835291602001916103e2565b820191906000526020600020905b8154815290600101906020018083116103c557829003601f168201915b50505050509a508980546103f5906118a8565b80601f0160208091040260200160405190810160405280929190818152602001828054610421906118a8565b801561046e5780601f106104435761010080835404028352916020019161046e565b820191906000526020600020905b81548152906001019060200180831161045157829003601f168201915b50505050509950888054610481906118a8565b80601f01602080910402602001604051908101604052809291908181526020018280546104ad906118a8565b80156104fa5780601f106104cf576101008083540402835291602001916104fa565b820191906000526020600020905b8154815290600101906020018083116104dd57829003601f168201915b5050505050985087805461050d906118a8565b80601f0160208091040260200160405190810160405280929190818152602001828054610539906118a8565b80156105865780601f1061055b57610100808354040283529160200191610586565b820191906000526020600020905b81548152906001019060200180831161056957829003601f168201915b50505050509750868054610599906118a8565b80601f01602080910402602001604051908101604052809291908181526020018280546105c5906118a8565b80156106125780601f106105e757610100808354040283529160200191610612565b820191906000526020600020905b8154815290600101906020018083116105f557829003601f168201915b505050505096509c509c509c509c509c509c509c509c509c509c509c50505091939597999b90929496989a50565b60008054906101000a900473ffffffffffffffffffffffffffffffffffffffff1681565b60008054906101000a900473ffffffffffffffffffffffffffffffffffffffff1673ffffffffffffffffffffffffffffffffffffffff1663fe9fbb80336040518263ffffffff1660e01b81526004016106bd91906118d9565b602060405180830381865afa1580156106da573d6000803e3d6000fd5b505050506040513d601f19601f820116820180604052508101906106fe9190611920565b61073d576040517f08c379a000000000000000000000000000000000000000000000000000000000815260040161073490611999565b60405180910390fd5b8360008111801561075057506001548111155b61078f576040517f08c379a000000000000000000000000000000000000000000000000000000000815260040161078690611859565b60405180910390fd5b600073ffffffffffffffffffffffffffffffffffffffff166002600083815260200190815260200160002060050160009054906101000a900473ffffffffffffffffffffffffffffffffffffffff1673ffffffffffffffffffffffffffffffffffffffff1603610834576040517f08c379a000000000000000000000000000000000000000000000000000000000815260040161082b90611859565b60405180910390fd5b6000600260008781526020019081526020016000209050600081600401805461085c906118a8565b80601f0160208091040260200160405190810160405280929190818152602001828054610888906118a8565b80156108d55780601f106108aa576101008083540402835291602001916108d5565b820191906000526020600020905b8154815290600101906020018083116108b857829003601f168201915b505050505090506108e68188611095565b85858360040191826108f9929190611b66565b504282600801819055506000841115610916578382600701819055505b60058686604051610928929190611c66565b90815260200160405180910390208790806001815401808255809150506001900390600052602060002001600090919091909150556040518060400160405280600681526020017f41435449564500000000000000000000000000000000000000000000000000008152508051906020012086866040516109aa929190611caf565b60405180910390201480156109c3575042826007015411155b156109ea57600182600b0160006101000a81548160ff021916908315150217905550610ac1565b6040518060400160405280600881526020017f494e414354495645000000000000000000000000000000000000000000000000815250805190602001208686604051610a37929190611caf565b60405180910390201480610a9d57506040518060400160405280600881526020017f4152434849564544000000000000000000000000000000000000000000000000815250805190602001208686604051610a93929190611caf565b6040518091039020145b15610ac057600082600b0160006101000a81548160ff0219169083151502179055505b5b3373ffffffffffffffffffffffffffffffffffffffff16877f7349e505864221fcf2768bf72491e152fedc76f5d0a627184f0fdace25d15207838989604051610b0c93929190611cf5565b60405180910390a33373ffffffffffffffffffffffffffffffffffffffff16877fad2e1dfc6994aeeaf151fa20c453bac06d98c011752a28edadb877ad0f077cf788888660070154604051610b6393929190611d2e565b60405180910390a350505050505050565b60036020528060005260406000206000915090505481565b6005828051602081018201805184825260208301602085012081835280955050505050508181548110610bbe57600080fd5b90600052602060002001600091509150505481565b6004828051602081018201805184825260208301602085012081835280955050505050508181548110610c0557600080fd5b90600052602060002001600091509150505481565b60015481565b60008060009054906101000a900473ffffffffffffffffffffffffffffffffffffffff1673ffffffffffffffffffffffffffffffffffffffff1663fe9fbb80336040518263ffffffff1660e01b8152600401610c7c91906118d9565b602060405180830381865afa158015610c99573d6000803e3d6000fd5b505050506040513d601f19601f82011682018060405250810190610cbd9190611920565b610cfc576040517f08c379a0000000000000000000000000000000000000000000000000000000008152600401610cf390611999565b60405180910390fd5b60008a8a905011610d42576040517f08c379a0000000000000000000000000000000000000000000000000000000008152600401610d3990611dac565b60405180910390fd5b60008888905011610d88576040517f08c379a0000000000000000000000000000000000000000000000000000000008152600401610d7f90611e18565b60405180910390fd5b60008686905011610dce576040517f08c379a0000000000000000000000000000000000000000000000000000000008152600401610dc590611e84565b60405180910390fd5b60008484905011610e14576040517f08c379a0000000000000000000000000000000000000000000000000000000008152600401610e0b90611ef0565b60405180910390fd5b60016000815480929190610e2790611f3f565b91905055506000600154905060006002600083815260200190815260200160002090508b8b826000019182610e5d929190611b66565b508989826001019182610e71929190611b66565b508787826002019182610e85929190611b66565b508585826003019182610e99929190611b66565b506040518060400160405280600581526020017f4452414654000000000000000000000000000000000000000000000000000000815250816004019081610ee09190611f87565b50338160050160006101000a81548173ffffffffffffffffffffffffffffffffffffffff021916908373ffffffffffffffffffffffffffffffffffffffff160217905550428160060181905550838160070181905550428160080181905550600081600b0160006101000a81548160ff02191690831515021790555060048686604051610f6e929190611c66565b90815260200160405180910390208290806001815401808255809150506001900390600052602060002001600090919091909150556005604051610fb1906120a5565b908152602001604051809103902082908060018154018082558091505060019003906000526020600020016000909190919091505542600360003373ffffffffffffffffffffffffffffffffffffffff1673ffffffffffffffffffffffffffffffffffffffff168152602001908152602001600020819055503373ffffffffffffffffffffffffffffffffffffffff16827f27a2761f5ffc4e00cb4a17ae63df13edf7bbde45f08c0a77569cfddd2d47ed5f8e8e8e8e8c8c60405161107b969594939291906120dd565b60405180910390a381925050509998505050505050505050565b60006005836040516110a79190612173565b9081526020016040518091039020905060005b818054905081101561117857828282815481106110da576110d961218a565b5b9060005260206000200154036111655781600183805490506110fc91906121b9565b8154811061110d5761110c61218a565b5b906000526020600020015482828154811061112b5761112a61218a565b5b90600052602060002001819055508180548061114a576111496121ed565b5b60019003818190600052602060002001600090559055611178565b808061117090611f3f565b9150506110ba565b50505050565b6000604051905090565b600080fd5b600080fd5b6000819050919050565b6111a581611192565b81146111b057600080fd5b50565b6000813590506111c28161119c565b92915050565b6000602082840312156111de576111dd611188565b5b60006111ec848285016111b3565b91505092915050565b600081519050919050565b600082825260208201905092915050565b60005b8381101561122f578082015181840152602081019050611214565b60008484015250505050565b6000601f19601f8301169050919050565b6000611257826111f5565b6112618185611200565b9350611271818560208601611211565b61127a8161123b565b840191505092915050565b600073ffffffffffffffffffffffffffffffffffffffff82169050919050565b60006112b082611285565b9050919050565b6112c0816112a5565b82525050565b6112cf81611192565b82525050565b60008115159050919050565b6112ea816112d5565b82525050565b600061016082019050818103600083015261130b818e61124c565b9050818103602083015261131f818d61124c565b90508181036040830152611333818c61124c565b90508181036060830152611347818b61124c565b9050818103608083015261135b818a61124c565b905061136a60a08301896112b7565b61137760c08301886112c6565b61138460e08301876112c6565b6113926101008301866112c6565b6113a06101208301856112c6565b6113ae6101408301846112e1565b9c9b505050505050505050505050565b6000819050919050565b60006113e36113de6113d984611285565b6113be565b611285565b9050919050565b60006113f5826113c8565b9050919050565b6000611407826113ea565b9050919050565b611417816113fc565b82525050565b6000602082019050611432600083018461140e565b92915050565b600080fd5b600080fd5b600080fd5b60008083601f84011261145d5761145c611438565b5b8235905067ffffffffffffffff81111561147a5761147961143d565b5b60208301915083600182028301111561149657611495611442565b5b9250929050565b600080600080606085870312156114b7576114b6611188565b5b60006114c5878288016111b3565b945050602085013567ffffffffffffffff8111156114e6576114e561118d565b5b6114f287828801611447565b93509350506040611505878288016111b3565b91505092959194509250565b61151a816112a5565b811461152557600080fd5b50565b60008135905061153781611511565b92915050565b60006020828403121561155357611552611188565b5b600061156184828501611528565b91505092915050565b600060208201905061157f60008301846112c6565b92915050565b600080fd5b7f4e487b7100000000000000000000000000000000000000000000000000000000600052604160045260246000fd5b6115c28261123b565b810181811067ffffffffffffffff821117156115e1576115e061158a565b5b80604052505050565b60006115f461117e565b905061160082826115b9565b919050565b600067ffffffffffffffff8211156116205761161f61158a565b5b6116298261123b565b9050602081019050919050565b82818337600083830152505050565b600061165861165384611605565b6115ea565b90508281526020810184848401111561167457611673611585565b5b61167f848285611636565b509392505050565b600082601f83011261169c5761169b611438565b5b81356116ac848260208601611645565b91505092915050565b600080604083850312156116cc576116cb611188565b5b600083013567ffffffffffffffff8111156116ea576116e961118d565b5b6116f685828601611687565b9250506020611707858286016111b3565b9150509250929050565b600080600080600080600080600060a08a8c03121561173357611732611188565b5b60008a013567ffffffffffffffff8111156117515761175061118d565b5b61175d8c828d01611447565b995099505060208a013567ffffffffffffffff8111156117805761177f61118d565b5b61178c8c828d01611447565b975097505060408a013567ffffffffffffffff8111156117af576117ae61118d565b5b6117bb8c828d01611447565b955095505060608a013567ffffffffffffffff8111156117de576117dd61118d565b5b6117ea8c828d01611447565b935093505060806117fd8c828d016111b3565b9150509295985092959850929598565b7f506f6c69637920646f6573206e6f742065786973740000000000000000000000600082015250565b6000611843601583611200565b915061184e8261180d565b602082019050919050565b6000602082019050818103600083015261187281611836565b9050919050565b7f4e487b7100000000000000000000000000000000000000000000000000000000600052602260045260246000fd5b600060028204905060018216806118c057607f821691505b6020821081036118d3576118d2611879565b5b50919050565b60006020820190506118ee60008301846112b7565b92915050565b6118fd816112d5565b811461190857600080fd5b50565b60008151905061191a816118f4565b92915050565b60006020828403121561193657611935611188565b5b60006119448482850161190b565b91505092915050565b7f55736572206e6f7420617574686f72697a656400000000000000000000000000600082015250565b6000611983601383611200565b915061198e8261194d565b602082019050919050565b600060208201905081810360008301526119b281611976565b9050919050565b600082905092915050565b60008190508160005260206000209050919050565b60006020601f8301049050919050565b600082821b905092915050565b600060088302611a267fffffffffffffffffffffffffffffffffffffffffffffffffffffffffffffffff826119e9565b611a3086836119e9565b95508019841693508086168417925050509392505050565b6000611a63611a5e611a5984611192565b6113be565b611192565b9050919050565b6000819050919050565b611a7d83611a48565b611a91611a8982611a6a565b8484546119f6565b825550505050565b600090565b611aa6611a99565b611ab1818484611a74565b505050565b5b81811015611ad557611aca600082611a9e565b600181019050611ab7565b5050565b601f821115611b1a57611aeb816119c4565b611af4846119d9565b81016020851015611b03578190505b611b17611b0f856119d9565b830182611ab6565b50505b505050565b600082821c905092915050565b6000611b3d60001984600802611b1f565b1980831691505092915050565b6000611b568383611b2c565b9150826002028217905092915050565b611b7083836119b9565b67ffffffffffffffff811115611b8957611b8861158a565b5b611b9382546118a8565b611b9e828285611ad9565b6000601f831160018114611bcd5760008415611bbb578287013590505b611bc58582611b4a565b865550611c2d565b601f198416611bdb866119c4565b60005b82811015611c0357848901358255600182019150602085019450602081019050611bde565b86831015611c205784890135611c1c601f891682611b2c565b8355505b6001600288020188555050505b50505050505050565b600081905092915050565b6000611c4d8385611c36565b9350611c5a838584611636565b82840190509392505050565b6000611c73828486611c41565b91508190509392505050565b600081905092915050565b6000611c968385611c7f565b9350611ca3838584611636565b82840190509392505050565b6000611cbc828486611c8a565b91508190509392505050565b6000611cd48385611200565b9350611ce1838584611636565b611cea8361123b565b840190509392505050565b60006040820190508181036000830152611d0f818661124c565b90508181036020830152611d24818486611cc8565b9050949350505050565b60006040820190508181036000830152611d49818587611cc8565b9050611d5860208301846112c6565b949350505050565b7f4e616d652063616e6e6f7420626520656d707479000000000000000000000000600082015250565b6000611d96601483611200565b9150611da182611d60565b602082019050919050565b60006020820190508181036000830152611dc581611d89565b9050919050565b7f4465736372697074696f6e204349442063616e6e6f7420626520656d70747900600082015250565b6000611e02601f83611200565b9150611e0d82611dcc565b602082019050919050565b60006020820190508181036000830152611e3181611df5565b9050919050565b7f46756c6c20706f6c6963792055524c2063616e6e6f7420626520656d70747900600082015250565b6000611e6e601f83611200565b9150611e7982611e38565b602082019050919050565b60006020820190508181036000830152611e9d81611e61565b9050919050565b7f4d696e69737472792063616e6e6f7420626520656d7074790000000000000000600082015250565b6000611eda601883611200565b9150611ee582611ea4565b602082019050919050565b60006020820190508181036000830152611f0981611ecd565b9050919050565b7f4e487b7100000000000000000000000000000000000000000000000000000000600052601160045260246000fd5b6000611f4a82611192565b91507fffffffffffffffffffffffffffffffffffffffffffffffffffffffffffffffff8203611f7c57611f7b611f10565b5b600182019050919050565b611f90826111f5565b67ffffffffffffffff811115611fa957611fa861158a565b5b611fb382546118a8565b611fbe828285611ad9565b600060209050601f831160018114611ff15760008415611fdf578287015190505b611fe98582611b4a565b865550612051565b601f198416611fff866119c4565b60005b8281101561202757848901518255600182019150602085019450602081019050612002565b868310156120445784890151612040601f891682611b2c565b8355505b6001600288020188555050505b505050505050565b7f4452414654000000000000000000000000000000000000000000000000000000600082015250565b600061208f600583611c36565b915061209a82612059565b600582019050919050565b60006120b082612082565b9150819050919050565b60006120c7600583611200565b91506120d282612059565b602082019050919050565b600060808201905081810360008301526120f881888a611cc8565b9050818103602083015261210d818688611cc8565b90508181036040830152612122818486611cc8565b90508181036060830152612135816120ba565b9050979650505050505050565b600061214d826111f5565b6121578185611c36565b9350612167818560208601611211565b80840191505092915050565b600061217f8284612142565b915081905092915050565b7f4e487b7100000000000000000000000000000000000000000000000000000000600052603260045260246000fd5b60006121c482611192565b91506121cf83611192565b92508282039050818111156121e7576121e6611f10565b5b92915050565b7f4e487b7100000000000000000000000000000000000000000000000000000000600052603160045260246000fdfea26469706673582212201bac36afc7033db174bbcfbd2505f56de4b0642ebce4f5d9f2a7840f90c8075964736f6c63430008140033",
  "linkReferences": {},
  "deployedLinkReferences": {}
}