{"contracts/proposal/proposals.sol":{"Proposals":{"abi":[{"inputs":[{"internalType":"address","name":"_authRegistry","type":"address"}],"stateMutability":"nonpayable","type":"constructor"},{"anonymous":false,"inputs":[{"indexed":true,"internalType":"uint256","name":"proposalId","type":"uint256"},{"indexed":true,"internalType":"address","name":"creator","type":"address"},{"indexed":false,"internalType":"string","name":"titleCid","type":"string"},{"indexed":false,"internalType":"string","name":"shortDescriptionCid","type":"string"},{"indexed":false,"internalType":"string","name":"descriptionInDetailsCid","type":"string"},{"indexed":false,"internalType":"uint256","name":"categoryId","type":"uint256"},{"indexed":false,"internalType":"uint256","name":"expiredDate","type":"uint256"}],"name":"ProposalCreated","type":"event"},{"anonymous":false,"inputs":[{"indexed":true,"internalType":"uint256","name":"proposalId","type":"uint256"},{"indexed":false,"internalType":"uint256","name":"expiredAt","type":"uint256"}],"name":"ProposalExpired","type":"event"},{"anonymous":false,"inputs":[{"indexed":true,"internalType":"uint256","name":"proposalId","type":"uint256"},{"indexed":false,"internalType":"bool","name":"activeStatus","type":"bool"}],"name":"ProposalStatusChanged","type":"event"},{"anonymous":false,"inputs":[{"indexed":true,"internalType":"uint256","name":"proposalId","type":"uint256"},{"indexed":true,"internalType":"address","name":"voter","type":"address"}],"name":"ProposalVotedNo","type":"event"},{"anonymous":false,"inputs":[{"indexed":true,"internalType":"uint256","name":"proposalId","type":"uint256"},{"indexed":true,"internalType":"address","name":"voter","type":"address"}],"name":"ProposalVotedYes","type":"event"},{"inputs":[],"name":"authRegistry","outputs":[{"internalType":"contract IAuthRegistry","name":"","type":"address"}],"stateMutability":"view","type":"function"},{"inputs":[{"internalType":"uint256","name":"proposalId","type":"uint256"},{"internalType":"bool","name":"newStatus","type":"bool"}],"name":"changeProposalStatus","outputs":[],"stateMutability":"nonpayable","type":"function"},{"inputs":[{"internalType":"string","name":"titleCid","type":"string"},{"internalType":"string","name":"shortDescriptionCid","type":"string"},{"internalType":"string","name":"descriptionInDetailsCid","type":"string"},{"internalType":"uint256","name":"categoryId","type":"uint256"},{"internalType":"uint256","name":"expiredDate","type":"uint256"}],"name":"createProposal","outputs":[{"internalType":"uint256","name":"","type":"uint256"}],"stateMutability":"nonpayable","type":"function"},{"inputs":[{"internalType":"uint256","name":"proposalId","type":"uint256"}],"name":"expireProposal","outputs":[],"stateMutability":"nonpayable","type":"function"},{"inputs":[{"internalType":"uint256","name":"proposalId","type":"uint256"},{"internalType":"uint256","name":"newExpiredDate","type":"uint256"}],"name":"extendProposalDeadline","outputs":[],"stateMutability":"nonpayable","type":"function"},{"inputs":[{"internalType":"uint256","name":"categoryId","type":"uint256"}],"name":"getActiveProposalsByCategory","outputs":[{"internalType":"uint256[]","name":"proposalIds","type":"uint256[]"}],"stateMutability":"view","type":"function"},{"inputs":[],"name":"getExpiredProposals","outputs":[{"internalType":"uint256[]","name":"proposalIds","type":"uint256[]"}],"stateMutability":"view","type":"function"},{"inputs":[{"internalType":"uint256","name":"proposalId","type":"uint256"}],"name":"getProposal","outputs":[{"internalType":"string","name":"titleCid","type":"string"},{"internalType":"string","name":"shortDescriptionCid","type":"string"},{"internalType":"string","name":"descriptionInDetailsCid","type":"string"},{"internalType":"uint256","name":"yesVotes","type":"uint256"},{"internalType":"uint256","name":"noVotes","type":"uint256"},{"internalType":"address","name":"creator","type":"address"},{"internalType":"bool","name":"activeStatus","type":"bool"},{"internalType":"uint256","name":"expiredDate","type":"uint256"},{"internalType":"uint256","name":"categoryId","type":"uint256"},{"internalType":"uint256","name":"createdAt","type":"uint256"},{"internalType":"uint256","name":"updatedAt","type":"uint256"}],"stateMutability":"view","type":"function"},{"inputs":[{"internalType":"uint256","name":"proposalId","type":"uint256"}],"name":"getProposalVotes","outputs":[{"internalType":"uint256","name":"yesVotes","type":"uint256"},{"internalType":"uint256","name":"noVotes","type":"uint256"},{"internalType":"int256","name":"netVotes","type":"int256"},{"internalType":"uint256","name":"totalVotes","type":"uint256"},{"internalType":"uint256","name":"yesPercentage","type":"uint256"}],"stateMutability":"view","type":"function"},{"inputs":[{"internalType":"address","name":"user","type":"address"}],"name":"getProposalsByUser","outputs":[{"internalType":"uint256[]","name":"proposalIds","type":"uint256[]"}],"stateMutability":"view","type":"function"},{"inputs":[{"internalType":"uint256","name":"proposalId","type":"uint256"},{"internalType":"address","name":"user","type":"address"}],"name":"getUserVote","outputs":[{"internalType":"bool","name":"hasVotedYes","type":"bool"},{"internalType":"bool","name":"hasVotedNo","type":"bool"}],"stateMutability":"view","type":"function"},{"inputs":[{"internalType":"uint256","name":"proposalId","type":"uint256"}],"name":"isProposalExpired","outputs":[{"internalType":"bool","name":"isExpired","type":"bool"}],"stateMutability":"view","type":"function"},{"inputs":[{"internalType":"address","name":"","type":"address"}],"name":"lastCreatedAt","outputs":[{"internalType":"uint256","name":"","type":"uint256"}],"stateMutability":"view","type":"function"},{"inputs":[],"name":"proposalCount","outputs":[{"internalType":"uint256","name":"","type":"uint256"}],"stateMutability":"view","type":"function"},{"inputs":[{"internalType":"uint256","name":"proposalId","type":"uint256"}],"name":"removeVote","outputs":[],"stateMutability":"nonpayable","type":"function"},{"inputs":[{"internalType":"uint256","name":"proposalId","type":"uint256"}],"name":"voteNo","outputs":[],"stateMutability":"nonpayable","type":"function"},{"inputs":[{"internalType":"uint256","name":"proposalId","type":"uint256"}],"name":"voteYes","outputs":[],"stateMutability":"nonpayable","type":"function"}],"evm":{"bytecode":{"linkReferences":{},"object":"6080346100cb57601f611baf38819003918201601f19168301916001600160401b038311848410176100d0578084926020946040528339810103126100cb57516001600160a01b038116908190036100cb57801561007a57600080546001600160a01b031916919091179055604051611ac890816100e78239f35b60405162461bcd60e51b8152602060048201526024808201527f4175746820726567697374727920616464726573732063616e6e6f74206265206044820152637a65726f60e01b6064820152608490fd5b600080fd5b634e487b7160e01b600052604160045260246000fdfe6080604052600436101561001257600080fd5b60003560e01c806303c7881a146115e15780630d734cc11461153b5780631a6f7be5146113965780631add18f4146112db57806338c545b41461118c5780633f68fde41461100057806347c6614014610f1d5780634d754e0714610e305780634ff2f81414610de7578063629e025a14610dbe5780636a1cf72114610bf25780638e295bda146104fb578063b94afa71146104c1578063c7f758a8146103ca578063c966f51614610252578063da35c664146102345763e1b526b0146100d757600080fd5b3461022f5760208060031936011261022f5760043560018060a01b03916024818460005416604051928380926301fd3f7760e71b82523360048301525afa80156102235761012d916000916101f6575b50611755565b816000526002815261014a8360056040600020015416331461192d565b816000526002815260406000206005810161016a81549586161515611889565b60ff8560a01c16156101b1577f1d4acf5b5169381a31b16d43bf25ffcb1d6f22f1127bb0c412a0d970e25affb5939460ff60a01b19169055600942910155604051428152a2005b60405162461bcd60e51b815260048101849052601c60248201527f50726f706f73616c20697320616c726561647920696e616374697665000000006044820152606490fd5b6102169150833d851161021c575b61020e818361171b565b81019061173d565b38610127565b503d610204565b6040513d6000823e3d90fd5b600080fd5b3461022f57600036600319011261022f576020600154604051908152f35b3461022f57604036600319011261022f5760043560243560018060a01b039182600054169060405180926301fd3f7760e71b825233600483015281602460209586935afa8015610223576102ad916000916103ad5750611755565b80600052600282526102ca8460056040600020015416331461192d565b600052600281526102e76040600020936005850154161515611889565b60068301908154831115610359574283111561030a575055600942910155600080f35b6084906040519062461bcd60e51b82526004820152602260248201527f4e657720646561646c696e65206d75737420626520696e207468652066757475604482015261726560f01b6064820152fd5b6084906040519062461bcd60e51b82526004820152602760248201527f43616e206f6e6c7920657874656e6420646561646c696e652c206e6f74207265604482015266191d58d9481a5d60ca1b6064820152fd5b6103c49150843d861161021c5761020e818361171b565b86610127565b3461022f57602036600319011261022f576004356000908152600260205260409020600581015461046f906001600160a01b0381169061040b821515611889565b600384015491600485015491600686015460ff60078801549260088901549460098a01549661048b8b61047d6104586002610451600161044a86611978565b9501611978565b9f01611978565b916040519e8f9e8f926101608085528401906116db565b9160208184039101526116db565b8c810360408e0152906116db565b9860608b015260808a015260a089015260a01c16151560c087015260e08601526101008501526101208401526101408301520390f35b3461022f57602036600319011261022f576001600160a01b036104e261165c565b1660005260036020526020604060002054604051908152f35b3461022f5760a036600319011261022f5760043567ffffffffffffffff811161022f5761052c9036906004016116ad565b9060243567ffffffffffffffff811161022f5761054d9036906004016116ad565b60449391843567ffffffffffffffff811161022f576105709036906004016116ad565b6000546040516301fd3f7760e71b8152336004820152929791949290602090829060249082906001600160a01b03165afa8015610223576105b891600091610bd35750611755565b8415610b8f578115610b3d578315610ae857426084351115610a995760643515610a5557506105e8600154611797565b9485600155856000526002602052604060002067ffffffffffffffff86116108cb5761061481546117a6565b601f8111610a11575b50856000601f82116001146109ac576000916109a1575b508660011b906000198860031b1c19161781555b67ffffffffffffffff83116108cb5761066460018201546117a6565b601f811161095a575b50826000601f82116001146108ec576000916108e1575b508360011b906000198560031b1c19161760018201555b67ffffffffffffffff85116108cb576106b760028201546117a6565b601f8111610880575b509160209793918795936000601f86116001146107e1579261079c6107a9937fa545c4dca3f89091030a281bf4422840f14e6fdb422e08ca04c8d6ae025f9d5e989693886107b799976000916107d6575b508760011b906000198960031b1c19161760028201555b600581018054600160a01b9060ff60a01b193316906affffffffffffffffffffff60a81b16171790556000600382015560006004820155606435600782015560843560068201554260088201556009429101553360005260038d52426040600020556040519a60a08c5260a08c01916117e0565b918983038c8b01526117e0565b9186830360408801526117e0565b92606435606082015260843560808201528033940390a3604051908152f35b90508801358f610711565b600282016000528a6000209060005b601f198816811061086657506107a9937fa545c4dca3f89091030a281bf4422840f14e6fdb422e08ca04c8d6ae025f9d5e98969388969361079c936107b79a601f1981161061084c575b5050600187811b016002820155610728565b89013560001960038a901b60f8161c191690558e8061083a565b8189013583558b9950600190920191908c01908c016107f0565b600282016000526020600020601f870160051c810191602088106108c1575b601f0160051c01905b8181106108b557506106c0565b600081556001016108a8565b909150819061089f565b634e487b7160e01b600052604160045260246000fd5b905084013589610684565b90506001820160005260206000209060005b601f1986168110610942575084601f19811610610928575b5050600183811b01600182015561069b565b850135600019600386901b60f8161c191690558880610916565b9091602060018192858a0135815501930191016108fe565b600182016000526020600020601f850160051c81016020861061099a575b601f830160051c8201811061098e57505061066d565b60008155600101610978565b5080610978565b905082013589610634565b60008381526020812092505b601f19891681106109f9575087601f198116106109df575b5050600186811b018155610648565b830135600019600389901b60f8161c1916905588806109d0565b909160206001819285880135815501930191016109b8565b816000526020600020601f880160051c810160208910610a4e575b601f830160051c82018110610a4257505061061d565b60008155600101610a2c565b5080610a2c565b6064907f43617465676f7279204944206d7573742062652076616c6964000000000000006040519162461bcd60e51b83526020600484015260196024840152820152fd5b6084907f457870697265642064617465206d75737420626520696e2074686520667574756040519162461bcd60e51b8352602060048401526022602484015282015261726560f01b6064820152fd5b6084907f44657461696c6564206465736372697074696f6e204349442063616e6e6f74206040519162461bcd60e51b8352602060048401526028602484015282015267626520656d70747960c01b6064820152fd5b6084907f53686f7274206465736372697074696f6e204349442063616e6e6f74206265206040519162461bcd60e51b8352602060048401526025602484015282015264656d70747960d81b6064820152fd5b6064907f5469746c65204349442063616e6e6f7420626520656d707479000000000000006040519162461bcd60e51b83526020600484015260196024840152820152fd5b610bec915060203d60201161021c5761020e818361171b565b89610127565b3461022f5760208060031936011261022f576004359060018060a01b03906024818360005416604051928380926301fd3f7760e71b82523360048301525afa801561022357610c4891600091610da15750611755565b8260005260028152610c7660066040600020610c6d60ff600583015460a01c16611801565b01544210611846565b826000526002815260406000209160058301541690610c96821515611889565b600a8301913360005282825260ff60406000205416610d4857610cbb903314156118d5565b33600052600b830181526040600020805460ff8116610d2b575b505033600052526040600020600160ff1982541617905560038101610cfa8154611797565b905560094291015533907f91d72fe165abd5430e48336de75685d3f58eaeab2eb2d7b644ef7403642d116f600080a3005b60ff1916905560048301610d3f8154611920565b90558480610cd5565b60405162461bcd60e51b815260048101839052602b60248201527f596f75206861766520616c726561647920766f74656420594553206f6e20746860448201526a1a5cc81c1c9bdc1bdcd85b60aa1b6064820152608490fd5b610db89150833d851161021c5761020e818361171b565b85610127565b3461022f57600036600319011261022f576000546040516001600160a01b039091168152602090f35b3461022f57602036600319011261022f576004356000526002602052602060066040600020610e2360018060a01b036005830154161515611889565b0154421015604051908152f35b3461022f5760208060031936011261022f5760043590600154610e5281611a36565b9260009260015b83811115610ead578585610e6c81611a36565b9160005b828110610e895760405180610e858682611672565b0390f35b80610e97610ea89284611a68565b51610ea28287611a68565b52611797565b610e70565b80600052600282526040600020836007820154149081610f0b575b81610efd575b50610ee2575b610edd90611797565b610e59565b93610ef58186610ea2610edd948a611a68565b949050610ed4565b600691500154421087610ece565b600581015460a01c60ff169150610ec8565b3461022f57602036600319011261022f5760043560009081526002602052604090206005810154610f58906001600160a01b03161515611889565b6004600382015491015490818103916000811282841281169083851390151617610fde57808201808311610fde5780159384610ff457606484029484860460641485151715610fde57610fc8578160a09504925b6040519485526020850152604084015260608301526080820152f35b634e487b7160e01b600052601260045260246000fd5b634e487b7160e01b600052601160045260246000fd5b60a09450600092610fac565b3461022f5760208060031936011261022f576004359060018060a01b03916024828460005416604051928380926301fd3f7760e71b82523360048301525afa801561022357611056916000916111755750611755565b806000526002825261107b60066040600020610c6d60ff600583015460a01c16611801565b600052600281526110986040600020926005840154161515611889565b600033600052600a830182526040600020805460ff8116611154575b505033600052600b830182526040600020805460ff8116611133575b5050156110e35750600942910155600080f35b6084906040519062461bcd60e51b82526004820152602360248201527f596f752068617665206e6f7420766f746564206f6e20746869732070726f706f6044820152621cd85b60ea1b6064820152fd5b60ff191690555060048201805461114990611920565b9055600183806110d0565b60ff191690555060038201805461116a90611920565b9055600183806110b4565b610db89150843d861161021c5761020e818361171b565b3461022f57604036600319011261022f576004356024359081151580920361022f576000546040516301fd3f7760e71b81523360048201526001600160a01b039360209290919083908290602490829089165afa8015610223576111f7916000916103ad5750611755565b82600052600282526112148460056040600020015416331461192d565b826000526002825260406000206005810161123481549687161515611889565b8260ff8760a01c1615151461128a577f68e3ce211a37937184ed2d0165534a314cff3c8b8bd7dcdd845523b07698450f949560ff60a01b8460a01b169060ff60a01b1916179055600942910155604051908152a2005b60405162461bcd60e51b815260048101859052602360248201527f53746174757320697320616c72656164792073657420746f20746869732076616044820152626c756560e81b6064820152608490fd5b3461022f5760208060031936011261022f576112f561165c565b60015461130181611a36565b926000926001600160a01b039081169160015b8481111561135357868661132781611a36565b9160005b8281106113405760405180610e858682611672565b80610e9761134e9284611a68565b61132b565b80600052600282528383600560406000200154161461137b575b61137690611797565b611314565b9461138e8187610ea2611376948b611a68565b95905061136d565b3461022f5760208060031936011261022f576004359060018060a01b03906024818360005416604051928380926301fd3f7760e71b82523360048301525afa8015610223576113ec91600091610da15750611755565b826000526002815261141160066040600020610c6d60ff600583015460a01c16611801565b826000526002815260406000209160058301541690611431821515611889565b600b8301913360005282825260ff604060002054166114e357611456903314156118d5565b33600052600a830181526040600020805460ff81166114c6575b505033600052526040600020600160ff19825416179055600481016114958154611797565b905560094291015533907ff22f90ec8ca04cbb8fbcb15687d8dc5dcc4d74eaf1529b699367f232b785358b600080a3005b60ff19169055600383016114da8154611920565b90558480611470565b60405162461bcd60e51b815260048101839052602a60248201527f596f75206861766520616c726561647920766f746564204e4f206f6e207468696044820152691cc81c1c9bdc1bdcd85b60b21b6064820152608490fd5b3461022f57600036600319011261022f5760015461155881611a36565b9060009060015b8181111561159e57505061157281611a36565b9160005b82811061158b5760405180610e858682611672565b80610e976115999284611a68565b611576565b8060005260026020526006604060002001544210156115c6575b6115c190611797565b61155f565b916115d98184610ea26115c19488611a68565b9290506115b8565b3461022f57604036600319011261022f576024356001600160a01b038181169182900361022f57604091600435600052600260205261162b83600020926005840154161515611889565b600052600a8101602052600b60ff836000205416910160205260ff8260002054168251911515825215156020820152f35b600435906001600160a01b038216820361022f57565b6020908160408183019282815285518094520193019160005b828110611699575050505090565b83518552938101939281019260010161168b565b9181601f8401121561022f5782359167ffffffffffffffff831161022f576020838186019501011161022f57565b919082519283825260005b848110611707575050826000602080949584010152601f8019910116010190565b6020818301810151848301820152016116e6565b90601f8019910116810190811067ffffffffffffffff8211176108cb57604052565b9081602091031261022f5751801515810361022f5790565b1561175c57565b60405162461bcd60e51b8152602060048201526013602482015272155cd95c881b9bdd08185d5d1a1bdc9a5e9959606a1b6044820152606490fd5b6000198114610fde5760010190565b90600182811c921680156117d6575b60208310146117c057565b634e487b7160e01b600052602260045260246000fd5b91607f16916117b5565b908060209392818452848401376000828201840152601f01601f1916010190565b1561180857565b60405162461bcd60e51b815260206004820152601660248201527550726f706f73616c206973206e6f742061637469766560501b6044820152606490fd5b1561184d57565b60405162461bcd60e51b8152602060048201526014602482015273141c9bdc1bdcd85b081a185cc8195e1c1a5c995960621b6044820152606490fd5b1561189057565b60405162461bcd60e51b815260206004820152601760248201527f50726f706f73616c20646f6573206e6f742065786973740000000000000000006044820152606490fd5b156118dc57565b606460405162461bcd60e51b815260206004820152602060248201527f43616e6e6f7420766f7465206f6e20796f7572206f776e2070726f706f73616c6044820152fd5b8015610fde576000190190565b1561193457565b606460405162461bcd60e51b815260206004820152602060248201527f4f6e6c792063726561746f722063616e206d6f646966792070726f706f73616c6044820152fd5b906040519182600082549261198c846117a6565b9081845260019485811690816000146119fb57506001146119b8575b50506119b69250038361171b565b565b9093915060005260209081600020936000915b8183106119e35750506119b6935082010138806119a8565b855488840185015294850194879450918301916119cb565b9150506119b694506020925060ff191682840152151560051b82010138806119a8565b67ffffffffffffffff81116108cb5760051b60200190565b90611a4082611a1e565b611a4d604051918261171b565b8281528092611a5e601f1991611a1e565b0190602036910137565b8051821015611a7c5760209160051b010190565b634e487b7160e01b600052603260045260246000fdfea26469706673582212202edb88514129b11cf6e164028de47b475bbaf168454d213d657a2eb8fca8435364736f6c63430008140033","opcodes":"PUSH1 0x80 CALLVALUE PUSH2 0xCB JUMPI PUSH1 0x1F PUSH2 0x1BAF CODESIZE DUP2 SWAP1 SUB SWAP2 DUP3 ADD PUSH1 0x1F NOT AND DUP4 ADD SWAP2 PUSH1 0x1 PUSH1 0x1 PUSH1 0x40 SHL SUB DUP4 GT DUP5 DUP5 LT OR PUSH2 0xD0 JUMPI DUP1 DUP5 SWAP3 PUSH1 0x20 SWAP5 PUSH1 0x40 MSTORE DUP4 CODECOPY DUP2 ADD SUB SLT PUSH2 0xCB JUMPI MLOAD PUSH1 0x1 PUSH1 0x1 PUSH1 0xA0 SHL SUB DUP2 AND SWAP1 DUP2 SWAP1 SUB PUSH2 0xCB JUMPI DUP1 ISZERO PUSH2 0x7A JUMPI PUSH1 0x0 DUP1 SLOAD PUSH1 0x1 PUSH1 0x1 PUSH1 0xA0 SHL SUB NOT AND SWAP2 SWAP1 SWAP2 OR SWAP1 SSTORE PUSH1 0x40 MLOAD PUSH2 0x1AC8 SWAP1 DUP2 PUSH2 0xE7 DUP3 CODECOPY RETURN JUMPDEST PUSH1 0x40 MLOAD PUSH3 0x461BCD PUSH1 0xE5 SHL DUP2 MSTORE PUSH1 0x20 PUSH1 0x4 DUP3 ADD MSTORE PUSH1 0x24 DUP1 DUP3 ADD MSTORE PUSH32 0x4175746820726567697374727920616464726573732063616E6E6F7420626520 PUSH1 0x44 DUP3 ADD MSTORE PUSH4 0x7A65726F PUSH1 0xE0 SHL PUSH1 0x64 DUP3 ADD MSTORE PUSH1 0x84 SWAP1 REVERT JUMPDEST PUSH1 0x0 DUP1 REVERT JUMPDEST PUSH4 0x4E487B71 PUSH1 0xE0 SHL PUSH1 0x0 MSTORE PUSH1 0x41 PUSH1 0x4 MSTORE PUSH1 0x24 PUSH1 0x0 REVERT INVALID PUSH1 0x80 PUSH1 0x40 MSTORE PUSH1 0x4 CALLDATASIZE LT ISZERO PUSH2 0x12 JUMPI PUSH1 0x0 DUP1 REVERT JUMPDEST PUSH1 0x0 CALLDATALOAD PUSH1 0xE0 SHR DUP1 PUSH4 0x3C7881A EQ PUSH2 0x15E1 JUMPI DUP1 PUSH4 0xD734CC1 EQ PUSH2 0x153B JUMPI DUP1 PUSH4 0x1A6F7BE5 EQ PUSH2 0x1396 JUMPI DUP1 PUSH4 0x1ADD18F4 EQ PUSH2 0x12DB JUMPI DUP1 PUSH4 0x38C545B4 EQ PUSH2 0x118C JUMPI DUP1 PUSH4 0x3F68FDE4 EQ PUSH2 0x1000 JUMPI DUP1 PUSH4 0x47C66140 EQ PUSH2 0xF1D JUMPI DUP1 PUSH4 0x4D754E07 EQ PUSH2 0xE30 JUMPI DUP1 PUSH4 0x4FF2F814 EQ PUSH2 0xDE7 JUMPI DUP1 PUSH4 0x629E025A EQ PUSH2 0xDBE JUMPI DUP1 PUSH4 0x6A1CF721 EQ PUSH2 0xBF2 JUMPI DUP1 PUSH4 0x8E295BDA EQ PUSH2 0x4FB JUMPI DUP1 PUSH4 0xB94AFA71 EQ PUSH2 0x4C1 JUMPI DUP1 PUSH4 0xC7F758A8 EQ PUSH2 0x3CA JUMPI DUP1 PUSH4 0xC966F516 EQ PUSH2 0x252 JUMPI DUP1 PUSH4 0xDA35C664 EQ PUSH2 0x234 JUMPI PUSH4 0xE1B526B0 EQ PUSH2 0xD7 JUMPI PUSH1 0x0 DUP1 REVERT JUMPDEST CALLVALUE PUSH2 0x22F JUMPI PUSH1 0x20 DUP1 PUSH1 0x3 NOT CALLDATASIZE ADD SLT PUSH2 0x22F JUMPI PUSH1 0x4 CALLDATALOAD PUSH1 0x1 DUP1 PUSH1 0xA0 SHL SUB SWAP2 PUSH1 0x24 DUP2 DUP5 PUSH1 0x0 SLOAD AND PUSH1 0x40 MLOAD SWAP3 DUP4 DUP1 SWAP3 PUSH4 0x1FD3F77 PUSH1 0xE7 SHL DUP3 MSTORE CALLER PUSH1 0x4 DUP4 ADD MSTORE GAS STATICCALL DUP1 ISZERO PUSH2 0x223 JUMPI PUSH2 0x12D SWAP2 PUSH1 0x0 SWAP2 PUSH2 0x1F6 JUMPI JUMPDEST POP PUSH2 0x1755 JUMP JUMPDEST DUP2 PUSH1 0x0 MSTORE PUSH1 0x2 DUP2 MSTORE PUSH2 0x14A DUP4 PUSH1 0x5 PUSH1 0x40 PUSH1 0x0 KECCAK256 ADD SLOAD AND CALLER EQ PUSH2 0x192D JUMP JUMPDEST DUP2 PUSH1 0x0 MSTORE PUSH1 0x2 DUP2 MSTORE PUSH1 0x40 PUSH1 0x0 KECCAK256 PUSH1 0x5 DUP2 ADD PUSH2 0x16A DUP2 SLOAD SWAP6 DUP7 AND ISZERO ISZERO PUSH2 0x1889 JUMP JUMPDEST PUSH1 0xFF DUP6 PUSH1 0xA0 SHR AND ISZERO PUSH2 0x1B1 JUMPI PUSH32 0x1D4ACF5B5169381A31B16D43BF25FFCB1D6F22F1127BB0C412A0D970E25AFFB5 SWAP4 SWAP5 PUSH1 0xFF PUSH1 0xA0 SHL NOT AND SWAP1 SSTORE PUSH1 0x9 TIMESTAMP SWAP2 ADD SSTORE PUSH1 0x40 MLOAD TIMESTAMP DUP2 MSTORE LOG2 STOP JUMPDEST PUSH1 0x40 MLOAD PUSH3 0x461BCD PUSH1 0xE5 SHL DUP2 MSTORE PUSH1 0x4 DUP2 ADD DUP5 SWAP1 MSTORE PUSH1 0x1C PUSH1 0x24 DUP3 ADD MSTORE PUSH32 0x50726F706F73616C20697320616C726561647920696E61637469766500000000 PUSH1 0x44 DUP3 ADD MSTORE PUSH1 0x64 SWAP1 REVERT JUMPDEST PUSH2 0x216 SWAP2 POP DUP4 RETURNDATASIZE DUP6 GT PUSH2 0x21C JUMPI JUMPDEST PUSH2 0x20E DUP2 DUP4 PUSH2 0x171B JUMP JUMPDEST DUP2 ADD SWAP1 PUSH2 0x173D JUMP JUMPDEST CODESIZE PUSH2 0x127 JUMP JUMPDEST POP RETURNDATASIZE PUSH2 0x204 JUMP JUMPDEST PUSH1 0x40 MLOAD RETURNDATASIZE PUSH1 0x0 DUP3 RETURNDATACOPY RETURNDATASIZE SWAP1 REVERT JUMPDEST PUSH1 0x0 DUP1 REVERT JUMPDEST CALLVALUE PUSH2 0x22F JUMPI PUSH1 0x0 CALLDATASIZE PUSH1 0x3 NOT ADD SLT PUSH2 0x22F JUMPI PUSH1 0x20 PUSH1 0x1 SLOAD PUSH1 0x40 MLOAD SWAP1 DUP2 MSTORE RETURN JUMPDEST CALLVALUE PUSH2 0x22F JUMPI PUSH1 0x40 CALLDATASIZE PUSH1 0x3 NOT ADD SLT PUSH2 0x22F JUMPI PUSH1 0x4 CALLDATALOAD PUSH1 0x24 CALLDATALOAD PUSH1 0x1 DUP1 PUSH1 0xA0 SHL SUB SWAP2 DUP3 PUSH1 0x0 SLOAD AND SWAP1 PUSH1 0x40 MLOAD DUP1 SWAP3 PUSH4 0x1FD3F77 PUSH1 0xE7 SHL DUP3 MSTORE CALLER PUSH1 0x4 DUP4 ADD MSTORE DUP2 PUSH1 0x24 PUSH1 0x20 SWAP6 DUP7 SWAP4 GAS STATICCALL DUP1 ISZERO PUSH2 0x223 JUMPI PUSH2 0x2AD SWAP2 PUSH1 0x0 SWAP2 PUSH2 0x3AD JUMPI POP PUSH2 0x1755 JUMP JUMPDEST DUP1 PUSH1 0x0 MSTORE PUSH1 0x2 DUP3 MSTORE PUSH2 0x2CA DUP5 PUSH1 0x5 PUSH1 0x40 PUSH1 0x0 KECCAK256 ADD SLOAD AND CALLER EQ PUSH2 0x192D JUMP JUMPDEST PUSH1 0x0 MSTORE PUSH1 0x2 DUP2 MSTORE PUSH2 0x2E7 PUSH1 0x40 PUSH1 0x0 KECCAK256 SWAP4 PUSH1 0x5 DUP6 ADD SLOAD AND ISZERO ISZERO PUSH2 0x1889 JUMP JUMPDEST PUSH1 0x6 DUP4 ADD SWAP1 DUP2 SLOAD DUP4 GT ISZERO PUSH2 0x359 JUMPI TIMESTAMP DUP4 GT ISZERO PUSH2 0x30A JUMPI POP SSTORE PUSH1 0x9 TIMESTAMP SWAP2 ADD SSTORE PUSH1 0x0 DUP1 RETURN JUMPDEST PUSH1 0x84 SWAP1 PUSH1 0x40 MLOAD SWAP1 PUSH3 0x461BCD PUSH1 0xE5 SHL DUP3 MSTORE PUSH1 0x4 DUP3 ADD MSTORE PUSH1 0x22 PUSH1 0x24 DUP3 ADD MSTORE PUSH32 0x4E657720646561646C696E65206D75737420626520696E207468652066757475 PUSH1 0x44 DUP3 ADD MSTORE PUSH2 0x7265 PUSH1 0xF0 SHL PUSH1 0x64 DUP3 ADD MSTORE REVERT JUMPDEST PUSH1 0x84 SWAP1 PUSH1 0x40 MLOAD SWAP1 PUSH3 0x461BCD PUSH1 0xE5 SHL DUP3 MSTORE PUSH1 0x4 DUP3 ADD MSTORE PUSH1 0x27 PUSH1 0x24 DUP3 ADD MSTORE PUSH32 0x43616E206F6E6C7920657874656E6420646561646C696E652C206E6F74207265 PUSH1 0x44 DUP3 ADD MSTORE PUSH7 0x191D58D9481A5D PUSH1 0xCA SHL PUSH1 0x64 DUP3 ADD MSTORE REVERT JUMPDEST PUSH2 0x3C4 SWAP2 POP DUP5 RETURNDATASIZE DUP7 GT PUSH2 0x21C JUMPI PUSH2 0x20E DUP2 DUP4 PUSH2 0x171B JUMP JUMPDEST DUP7 PUSH2 0x127 JUMP JUMPDEST CALLVALUE PUSH2 0x22F JUMPI PUSH1 0x20 CALLDATASIZE PUSH1 0x3 NOT ADD SLT PUSH2 0x22F JUMPI PUSH1 0x4 CALLDATALOAD PUSH1 0x0 SWAP1 DUP2 MSTORE PUSH1 0x2 PUSH1 0x20 MSTORE PUSH1 0x40 SWAP1 KECCAK256 PUSH1 0x5 DUP2 ADD SLOAD PUSH2 0x46F SWAP1 PUSH1 0x1 PUSH1 0x1 PUSH1 0xA0 SHL SUB DUP2 AND SWAP1 PUSH2 0x40B DUP3 ISZERO ISZERO PUSH2 0x1889 JUMP JUMPDEST PUSH1 0x3 DUP5 ADD SLOAD SWAP2 PUSH1 0x4 DUP6 ADD SLOAD SWAP2 PUSH1 0x6 DUP7 ADD SLOAD PUSH1 0xFF PUSH1 0x7 DUP9 ADD SLOAD SWAP3 PUSH1 0x8 DUP10 ADD SLOAD SWAP5 PUSH1 0x9 DUP11 ADD SLOAD SWAP7 PUSH2 0x48B DUP12 PUSH2 0x47D PUSH2 0x458 PUSH1 0x2 PUSH2 0x451 PUSH1 0x1 PUSH2 0x44A DUP7 PUSH2 0x1978 JUMP JUMPDEST SWAP6 ADD PUSH2 0x1978 JUMP JUMPDEST SWAP16 ADD PUSH2 0x1978 JUMP JUMPDEST SWAP2 PUSH1 0x40 MLOAD SWAP15 DUP16 SWAP15 DUP16 SWAP3 PUSH2 0x160 DUP1 DUP6 MSTORE DUP5 ADD SWAP1 PUSH2 0x16DB JUMP JUMPDEST SWAP2 PUSH1 0x20 DUP2 DUP5 SUB SWAP2 ADD MSTORE PUSH2 0x16DB JUMP JUMPDEST DUP13 DUP2 SUB PUSH1 0x40 DUP15 ADD MSTORE SWAP1 PUSH2 0x16DB JUMP JUMPDEST SWAP9 PUSH1 0x60 DUP12 ADD MSTORE PUSH1 0x80 DUP11 ADD MSTORE PUSH1 0xA0 DUP10 ADD MSTORE PUSH1 0xA0 SHR AND ISZERO ISZERO PUSH1 0xC0 DUP8 ADD MSTORE PUSH1 0xE0 DUP7 ADD MSTORE PUSH2 0x100 DUP6 ADD MSTORE PUSH2 0x120 DUP5 ADD MSTORE PUSH2 0x140 DUP4 ADD MSTORE SUB SWAP1 RETURN JUMPDEST CALLVALUE PUSH2 0x22F JUMPI PUSH1 0x20 CALLDATASIZE PUSH1 0x3 NOT ADD SLT PUSH2 0x22F JUMPI PUSH1 0x1 PUSH1 0x1 PUSH1 0xA0 SHL SUB PUSH2 0x4E2 PUSH2 0x165C JUMP JUMPDEST AND PUSH1 0x0 MSTORE PUSH1 0x3 PUSH1 0x20 MSTORE PUSH1 0x20 PUSH1 0x40 PUSH1 0x0 KECCAK256 SLOAD PUSH1 0x40 MLOAD SWAP1 DUP2 MSTORE RETURN JUMPDEST CALLVALUE PUSH2 0x22F JUMPI PUSH1 0xA0 CALLDATASIZE PUSH1 0x3 NOT ADD SLT PUSH2 0x22F JUMPI PUSH1 0x4 CALLDATALOAD PUSH8 0xFFFFFFFFFFFFFFFF DUP2 GT PUSH2 0x22F JUMPI PUSH2 0x52C SWAP1 CALLDATASIZE SWAP1 PUSH1 0x4 ADD PUSH2 0x16AD JUMP JUMPDEST SWAP1 PUSH1 0x24 CALLDATALOAD PUSH8 0xFFFFFFFFFFFFFFFF DUP2 GT PUSH2 0x22F JUMPI PUSH2 0x54D SWAP1 CALLDATASIZE SWAP1 PUSH1 0x4 ADD PUSH2 0x16AD JUMP JUMPDEST PUSH1 0x44 SWAP4 SWAP2 DUP5 CALLDATALOAD PUSH8 0xFFFFFFFFFFFFFFFF DUP2 GT PUSH2 0x22F JUMPI PUSH2 0x570 SWAP1 CALLDATASIZE SWAP1 PUSH1 0x4 ADD PUSH2 0x16AD JUMP JUMPDEST PUSH1 0x0 SLOAD PUSH1 0x40 MLOAD PUSH4 0x1FD3F77 PUSH1 0xE7 SHL DUP2 MSTORE CALLER PUSH1 0x4 DUP3 ADD MSTORE SWAP3 SWAP8 SWAP2 SWAP5 SWAP3 SWAP1 PUSH1 0x20 SWAP1 DUP3 SWAP1 PUSH1 0x24 SWAP1 DUP3 SWAP1 PUSH1 0x1 PUSH1 0x1 PUSH1 0xA0 SHL SUB AND GAS STATICCALL DUP1 ISZERO PUSH2 0x223 JUMPI PUSH2 0x5B8 SWAP2 PUSH1 0x0 SWAP2 PUSH2 0xBD3 JUMPI POP PUSH2 0x1755 JUMP JUMPDEST DUP5 ISZERO PUSH2 0xB8F JUMPI DUP2 ISZERO PUSH2 0xB3D JUMPI DUP4 ISZERO PUSH2 0xAE8 JUMPI TIMESTAMP PUSH1 0x84 CALLDATALOAD GT ISZERO PUSH2 0xA99 JUMPI PUSH1 0x64 CALLDATALOAD ISZERO PUSH2 0xA55 JUMPI POP PUSH2 0x5E8 PUSH1 0x1 SLOAD PUSH2 0x1797 JUMP JUMPDEST SWAP5 DUP6 PUSH1 0x1 SSTORE DUP6 PUSH1 0x0 MSTORE PUSH1 0x2 PUSH1 0x20 MSTORE PUSH1 0x40 PUSH1 0x0 KECCAK256 PUSH8 0xFFFFFFFFFFFFFFFF DUP7 GT PUSH2 0x8CB JUMPI PUSH2 0x614 DUP2 SLOAD PUSH2 0x17A6 JUMP JUMPDEST PUSH1 0x1F DUP2 GT PUSH2 0xA11 JUMPI JUMPDEST POP DUP6 PUSH1 0x0 PUSH1 0x1F DUP3 GT PUSH1 0x1 EQ PUSH2 0x9AC JUMPI PUSH1 0x0 SWAP2 PUSH2 0x9A1 JUMPI JUMPDEST POP DUP7 PUSH1 0x1 SHL SWAP1 PUSH1 0x0 NOT DUP9 PUSH1 0x3 SHL SHR NOT AND OR DUP2 SSTORE JUMPDEST PUSH8 0xFFFFFFFFFFFFFFFF DUP4 GT PUSH2 0x8CB JUMPI PUSH2 0x664 PUSH1 0x1 DUP3 ADD SLOAD PUSH2 0x17A6 JUMP JUMPDEST PUSH1 0x1F DUP2 GT PUSH2 0x95A JUMPI JUMPDEST POP DUP3 PUSH1 0x0 PUSH1 0x1F DUP3 GT PUSH1 0x1 EQ PUSH2 0x8EC JUMPI PUSH1 0x0 SWAP2 PUSH2 0x8E1 JUMPI JUMPDEST POP DUP4 PUSH1 0x1 SHL SWAP1 PUSH1 0x0 NOT DUP6 PUSH1 0x3 SHL SHR NOT AND OR PUSH1 0x1 DUP3 ADD SSTORE JUMPDEST PUSH8 0xFFFFFFFFFFFFFFFF DUP6 GT PUSH2 0x8CB JUMPI PUSH2 0x6B7 PUSH1 0x2 DUP3 ADD SLOAD PUSH2 0x17A6 JUMP JUMPDEST PUSH1 0x1F DUP2 GT PUSH2 0x880 JUMPI JUMPDEST POP SWAP2 PUSH1 0x20 SWAP8 SWAP4 SWAP2 DUP8 SWAP6 SWAP4 PUSH1 0x0 PUSH1 0x1F DUP7 GT PUSH1 0x1 EQ PUSH2 0x7E1 JUMPI SWAP3 PUSH2 0x79C PUSH2 0x7A9 SWAP4 PUSH32 0xA545C4DCA3F89091030A281BF4422840F14E6FDB422E08CA04C8D6AE025F9D5E SWAP9 SWAP7 SWAP4 DUP9 PUSH2 0x7B7 SWAP10 SWAP8 PUSH1 0x0 SWAP2 PUSH2 0x7D6 JUMPI JUMPDEST POP DUP8 PUSH1 0x1 SHL SWAP1 PUSH1 0x0 NOT DUP10 PUSH1 0x3 SHL SHR NOT AND OR PUSH1 0x2 DUP3 ADD SSTORE JUMPDEST PUSH1 0x5 DUP2 ADD DUP1 SLOAD PUSH1 0x1 PUSH1 0xA0 SHL SWAP1 PUSH1 0xFF PUSH1 0xA0 SHL NOT CALLER AND SWAP1 PUSH11 0xFFFFFFFFFFFFFFFFFFFFFF PUSH1 0xA8 SHL AND OR OR SWAP1 SSTORE PUSH1 0x0 PUSH1 0x3 DUP3 ADD SSTORE PUSH1 0x0 PUSH1 0x4 DUP3 ADD SSTORE PUSH1 0x64 CALLDATALOAD PUSH1 0x7 DUP3 ADD SSTORE PUSH1 0x84 CALLDATALOAD PUSH1 0x6 DUP3 ADD SSTORE TIMESTAMP PUSH1 0x8 DUP3 ADD SSTORE PUSH1 0x9 TIMESTAMP SWAP2 ADD SSTORE CALLER PUSH1 0x0 MSTORE PUSH1 0x3 DUP14 MSTORE TIMESTAMP PUSH1 0x40 PUSH1 0x0 KECCAK256 SSTORE PUSH1 0x40 MLOAD SWAP11 PUSH1 0xA0 DUP13 MSTORE PUSH1 0xA0 DUP13 ADD SWAP2 PUSH2 0x17E0 JUMP JUMPDEST SWAP2 DUP10 DUP4 SUB DUP13 DUP12 ADD MSTORE PUSH2 0x17E0 JUMP JUMPDEST SWAP2 DUP7 DUP4 SUB PUSH1 0x40 DUP9 ADD MSTORE PUSH2 0x17E0 JUMP JUMPDEST SWAP3 PUSH1 0x64 CALLDATALOAD PUSH1 0x60 DUP3 ADD MSTORE PUSH1 0x84 CALLDATALOAD PUSH1 0x80 DUP3 ADD MSTORE DUP1 CALLER SWAP5 SUB SWAP1 LOG3 PUSH1 0x40 MLOAD SWAP1 DUP2 MSTORE RETURN JUMPDEST SWAP1 POP DUP9 ADD CALLDATALOAD DUP16 PUSH2 0x711 JUMP JUMPDEST PUSH1 0x2 DUP3 ADD PUSH1 0x0 MSTORE DUP11 PUSH1 0x0 KECCAK256 SWAP1 PUSH1 0x0 JUMPDEST PUSH1 0x1F NOT DUP9 AND DUP2 LT PUSH2 0x866 JUMPI POP PUSH2 0x7A9 SWAP4 PUSH32 0xA545C4DCA3F89091030A281BF4422840F14E6FDB422E08CA04C8D6AE025F9D5E SWAP9 SWAP7 SWAP4 DUP9 SWAP7 SWAP4 PUSH2 0x79C SWAP4 PUSH2 0x7B7 SWAP11 PUSH1 0x1F NOT DUP2 AND LT PUSH2 0x84C JUMPI JUMPDEST POP POP PUSH1 0x1 DUP8 DUP2 SHL ADD PUSH1 0x2 DUP3 ADD SSTORE PUSH2 0x728 JUMP JUMPDEST DUP10 ADD CALLDATALOAD PUSH1 0x0 NOT PUSH1 0x3 DUP11 SWAP1 SHL PUSH1 0xF8 AND SHR NOT AND SWAP1 SSTORE DUP15 DUP1 PUSH2 0x83A JUMP JUMPDEST DUP2 DUP10 ADD CALLDATALOAD DUP4 SSTORE DUP12 SWAP10 POP PUSH1 0x1 SWAP1 SWAP3 ADD SWAP2 SWAP1 DUP13 ADD SWAP1 DUP13 ADD PUSH2 0x7F0 JUMP JUMPDEST PUSH1 0x2 DUP3 ADD PUSH1 0x0 MSTORE PUSH1 0x20 PUSH1 0x0 KECCAK256 PUSH1 0x1F DUP8 ADD PUSH1 0x5 SHR DUP2 ADD SWAP2 PUSH1 0x20 DUP9 LT PUSH2 0x8C1 JUMPI JUMPDEST PUSH1 0x1F ADD PUSH1 0x5 SHR ADD SWAP1 JUMPDEST DUP2 DUP2 LT PUSH2 0x8B5 JUMPI POP PUSH2 0x6C0 JUMP JUMPDEST PUSH1 0x0 DUP2 SSTORE PUSH1 0x1 ADD PUSH2 0x8A8 JUMP JUMPDEST SWAP1 SWAP2 POP DUP2 SWAP1 PUSH2 0x89F JUMP JUMPDEST PUSH4 0x4E487B71 PUSH1 0xE0 SHL PUSH1 0x0 MSTORE PUSH1 0x41 PUSH1 0x4 MSTORE PUSH1 0x24 PUSH1 0x0 REVERT JUMPDEST SWAP1 POP DUP5 ADD CALLDATALOAD DUP10 PUSH2 0x684 JUMP JUMPDEST SWAP1 POP PUSH1 0x1 DUP3 ADD PUSH1 0x0 MSTORE PUSH1 0x20 PUSH1 0x0 KECCAK256 SWAP1 PUSH1 0x0 JUMPDEST PUSH1 0x1F NOT DUP7 AND DUP2 LT PUSH2 0x942 JUMPI POP DUP5 PUSH1 0x1F NOT DUP2 AND LT PUSH2 0x928 JUMPI JUMPDEST POP POP PUSH1 0x1 DUP4 DUP2 SHL ADD PUSH1 0x1 DUP3 ADD SSTORE PUSH2 0x69B JUMP JUMPDEST DUP6 ADD CALLDATALOAD PUSH1 0x0 NOT PUSH1 0x3 DUP7 SWAP1 SHL PUSH1 0xF8 AND SHR NOT AND SWAP1 SSTORE DUP9 DUP1 PUSH2 0x916 JUMP JUMPDEST SWAP1 SWAP2 PUSH1 0x20 PUSH1 0x1 DUP2 SWAP3 DUP6 DUP11 ADD CALLDATALOAD DUP2 SSTORE ADD SWAP4 ADD SWAP2 ADD PUSH2 0x8FE JUMP JUMPDEST PUSH1 0x1 DUP3 ADD PUSH1 0x0 MSTORE PUSH1 0x20 PUSH1 0x0 KECCAK256 PUSH1 0x1F DUP6 ADD PUSH1 0x5 SHR DUP2 ADD PUSH1 0x20 DUP7 LT PUSH2 0x99A JUMPI JUMPDEST PUSH1 0x1F DUP4 ADD PUSH1 0x5 SHR DUP3 ADD DUP2 LT PUSH2 0x98E JUMPI POP POP PUSH2 0x66D JUMP JUMPDEST PUSH1 0x0 DUP2 SSTORE PUSH1 0x1 ADD PUSH2 0x978 JUMP JUMPDEST POP DUP1 PUSH2 0x978 JUMP JUMPDEST SWAP1 POP DUP3 ADD CALLDATALOAD DUP10 PUSH2 0x634 JUMP JUMPDEST PUSH1 0x0 DUP4 DUP2 MSTORE PUSH1 0x20 DUP2 KECCAK256 SWAP3 POP JUMPDEST PUSH1 0x1F NOT DUP10 AND DUP2 LT PUSH2 0x9F9 JUMPI POP DUP8 PUSH1 0x1F NOT DUP2 AND LT PUSH2 0x9DF JUMPI JUMPDEST POP POP PUSH1 0x1 DUP7 DUP2 SHL ADD DUP2 SSTORE PUSH2 0x648 JUMP JUMPDEST DUP4 ADD CALLDATALOAD PUSH1 0x0 NOT PUSH1 0x3 DUP10 SWAP1 SHL PUSH1 0xF8 AND SHR NOT AND SWAP1 SSTORE DUP9 DUP1 PUSH2 0x9D0 JUMP JUMPDEST SWAP1 SWAP2 PUSH1 0x20 PUSH1 0x1 DUP2 SWAP3 DUP6 DUP9 ADD CALLDATALOAD DUP2 SSTORE ADD SWAP4 ADD SWAP2 ADD PUSH2 0x9B8 JUMP JUMPDEST DUP2 PUSH1 0x0 MSTORE PUSH1 0x20 PUSH1 0x0 KECCAK256 PUSH1 0x1F DUP9 ADD PUSH1 0x5 SHR DUP2 ADD PUSH1 0x20 DUP10 LT PUSH2 0xA4E JUMPI JUMPDEST PUSH1 0x1F DUP4 ADD PUSH1 0x5 SHR DUP3 ADD DUP2 LT PUSH2 0xA42 JUMPI POP POP PUSH2 0x61D JUMP JUMPDEST PUSH1 0x0 DUP2 SSTORE PUSH1 0x1 ADD PUSH2 0xA2C JUMP JUMPDEST POP DUP1 PUSH2 0xA2C JUMP JUMPDEST PUSH1 0x64 SWAP1 PUSH32 0x43617465676F7279204944206D7573742062652076616C696400000000000000 PUSH1 0x40 MLOAD SWAP2 PUSH3 0x461BCD PUSH1 0xE5 SHL DUP4 MSTORE PUSH1 0x20 PUSH1 0x4 DUP5 ADD MSTORE PUSH1 0x19 PUSH1 0x24 DUP5 ADD MSTORE DUP3 ADD MSTORE REVERT JUMPDEST PUSH1 0x84 SWAP1 PUSH32 0x457870697265642064617465206D75737420626520696E207468652066757475 PUSH1 0x40 MLOAD SWAP2 PUSH3 0x461BCD PUSH1 0xE5 SHL DUP4 MSTORE PUSH1 0x20 PUSH1 0x4 DUP5 ADD MSTORE PUSH1 0x22 PUSH1 0x24 DUP5 ADD MSTORE DUP3 ADD MSTORE PUSH2 0x7265 PUSH1 0xF0 SHL PUSH1 0x64 DUP3 ADD MSTORE REVERT JUMPDEST PUSH1 0x84 SWAP1 PUSH32 0x44657461696C6564206465736372697074696F6E204349442063616E6E6F7420 PUSH1 0x40 MLOAD SWAP2 PUSH3 0x461BCD PUSH1 0xE5 SHL DUP4 MSTORE PUSH1 0x20 PUSH1 0x4 DUP5 ADD MSTORE PUSH1 0x28 PUSH1 0x24 DUP5 ADD MSTORE DUP3 ADD MSTORE PUSH8 0x626520656D707479 PUSH1 0xC0 SHL PUSH1 0x64 DUP3 ADD MSTORE REVERT JUMPDEST PUSH1 0x84 SWAP1 PUSH32 0x53686F7274206465736372697074696F6E204349442063616E6E6F7420626520 PUSH1 0x40 MLOAD SWAP2 PUSH3 0x461BCD PUSH1 0xE5 SHL DUP4 MSTORE PUSH1 0x20 PUSH1 0x4 DUP5 ADD MSTORE PUSH1 0x25 PUSH1 0x24 DUP5 ADD MSTORE DUP3 ADD MSTORE PUSH5 0x656D707479 PUSH1 0xD8 SHL PUSH1 0x64 DUP3 ADD MSTORE REVERT JUMPDEST PUSH1 0x64 SWAP1 PUSH32 0x5469746C65204349442063616E6E6F7420626520656D70747900000000000000 PUSH1 0x40 MLOAD SWAP2 PUSH3 0x461BCD PUSH1 0xE5 SHL DUP4 MSTORE PUSH1 0x20 PUSH1 0x4 DUP5 ADD MSTORE PUSH1 0x19 PUSH1 0x24 DUP5 ADD MSTORE DUP3 ADD MSTORE REVERT JUMPDEST PUSH2 0xBEC SWAP2 POP PUSH1 0x20 RETURNDATASIZE PUSH1 0x20 GT PUSH2 0x21C JUMPI PUSH2 0x20E DUP2 DUP4 PUSH2 0x171B JUMP JUMPDEST DUP10 PUSH2 0x127 JUMP JUMPDEST CALLVALUE PUSH2 0x22F JUMPI PUSH1 0x20 DUP1 PUSH1 0x3 NOT CALLDATASIZE ADD SLT PUSH2 0x22F JUMPI PUSH1 0x4 CALLDATALOAD SWAP1 PUSH1 0x1 DUP1 PUSH1 0xA0 SHL SUB SWAP1 PUSH1 0x24 DUP2 DUP4 PUSH1 0x0 SLOAD AND PUSH1 0x40 MLOAD SWAP3 DUP4 DUP1 SWAP3 PUSH4 0x1FD3F77 PUSH1 0xE7 SHL DUP3 MSTORE CALLER PUSH1 0x4 DUP4 ADD MSTORE GAS STATICCALL DUP1 ISZERO PUSH2 0x223 JUMPI PUSH2 0xC48 SWAP2 PUSH1 0x0 SWAP2 PUSH2 0xDA1 JUMPI POP PUSH2 0x1755 JUMP JUMPDEST DUP3 PUSH1 0x0 MSTORE PUSH1 0x2 DUP2 MSTORE PUSH2 0xC76 PUSH1 0x6 PUSH1 0x40 PUSH1 0x0 KECCAK256 PUSH2 0xC6D PUSH1 0xFF PUSH1 0x5 DUP4 ADD SLOAD PUSH1 0xA0 SHR AND PUSH2 0x1801 JUMP JUMPDEST ADD SLOAD TIMESTAMP LT PUSH2 0x1846 JUMP JUMPDEST DUP3 PUSH1 0x0 MSTORE PUSH1 0x2 DUP2 MSTORE PUSH1 0x40 PUSH1 0x0 KECCAK256 SWAP2 PUSH1 0x5 DUP4 ADD SLOAD AND SWAP1 PUSH2 0xC96 DUP3 ISZERO ISZERO PUSH2 0x1889 JUMP JUMPDEST PUSH1 0xA DUP4 ADD SWAP2 CALLER PUSH1 0x0 MSTORE DUP3 DUP3 MSTORE PUSH1 0xFF PUSH1 0x40 PUSH1 0x0 KECCAK256 SLOAD AND PUSH2 0xD48 JUMPI PUSH2 0xCBB SWAP1 CALLER EQ ISZERO PUSH2 0x18D5 JUMP JUMPDEST CALLER PUSH1 0x0 MSTORE PUSH1 0xB DUP4 ADD DUP2 MSTORE PUSH1 0x40 PUSH1 0x0 KECCAK256 DUP1 SLOAD PUSH1 0xFF DUP2 AND PUSH2 0xD2B JUMPI JUMPDEST POP POP CALLER PUSH1 0x0 MSTORE MSTORE PUSH1 0x40 PUSH1 0x0 KECCAK256 PUSH1 0x1 PUSH1 0xFF NOT DUP3 SLOAD AND OR SWAP1 SSTORE PUSH1 0x3 DUP2 ADD PUSH2 0xCFA DUP2 SLOAD PUSH2 0x1797 JUMP JUMPDEST SWAP1 SSTORE PUSH1 0x9 TIMESTAMP SWAP2 ADD SSTORE CALLER SWAP1 PUSH32 0x91D72FE165ABD5430E48336DE75685D3F58EAEAB2EB2D7B644EF7403642D116F PUSH1 0x0 DUP1 LOG3 STOP JUMPDEST PUSH1 0xFF NOT AND SWAP1 SSTORE PUSH1 0x4 DUP4 ADD PUSH2 0xD3F DUP2 SLOAD PUSH2 0x1920 JUMP JUMPDEST SWAP1 SSTORE DUP5 DUP1 PUSH2 0xCD5 JUMP JUMPDEST PUSH1 0x40 MLOAD PUSH3 0x461BCD PUSH1 0xE5 SHL DUP2 MSTORE PUSH1 0x4 DUP2 ADD DUP4 SWAP1 MSTORE PUSH1 0x2B PUSH1 0x24 DUP3 ADD MSTORE PUSH32 0x596F75206861766520616C726561647920766F74656420594553206F6E207468 PUSH1 0x44 DUP3 ADD MSTORE PUSH11 0x1A5CC81C1C9BDC1BDCD85B PUSH1 0xAA SHL PUSH1 0x64 DUP3 ADD MSTORE PUSH1 0x84 SWAP1 REVERT JUMPDEST PUSH2 0xDB8 SWAP2 POP DUP4 RETURNDATASIZE DUP6 GT PUSH2 0x21C JUMPI PUSH2 0x20E DUP2 DUP4 PUSH2 0x171B JUMP JUMPDEST DUP6 PUSH2 0x127 JUMP JUMPDEST CALLVALUE PUSH2 0x22F JUMPI PUSH1 0x0 CALLDATASIZE PUSH1 0x3 NOT ADD SLT PUSH2 0x22F JUMPI PUSH1 0x0 SLOAD PUSH1 0x40 MLOAD PUSH1 0x1 PUSH1 0x1 PUSH1 0xA0 SHL SUB SWAP1 SWAP2 AND DUP2 MSTORE PUSH1 0x20 SWAP1 RETURN JUMPDEST CALLVALUE PUSH2 0x22F JUMPI PUSH1 0x20 CALLDATASIZE PUSH1 0x3 NOT ADD SLT PUSH2 0x22F JUMPI PUSH1 0x4 CALLDATALOAD PUSH1 0x0 MSTORE PUSH1 0x2 PUSH1 0x20 MSTORE PUSH1 0x20 PUSH1 0x6 PUSH1 0x40 PUSH1 0x0 KECCAK256 PUSH2 0xE23 PUSH1 0x1 DUP1 PUSH1 0xA0 SHL SUB PUSH1 0x5 DUP4 ADD SLOAD AND ISZERO ISZERO PUSH2 0x1889 JUMP JUMPDEST ADD SLOAD TIMESTAMP LT ISZERO PUSH1 0x40 MLOAD SWAP1 DUP2 MSTORE RETURN JUMPDEST CALLVALUE PUSH2 0x22F JUMPI PUSH1 0x20 DUP1 PUSH1 0x3 NOT CALLDATASIZE ADD SLT PUSH2 0x22F JUMPI PUSH1 0x4 CALLDATALOAD SWAP1 PUSH1 0x1 SLOAD PUSH2 0xE52 DUP2 PUSH2 0x1A36 JUMP JUMPDEST SWAP3 PUSH1 0x0 SWAP3 PUSH1 0x1 JUMPDEST DUP4 DUP2 GT ISZERO PUSH2 0xEAD JUMPI DUP6 DUP6 PUSH2 0xE6C DUP2 PUSH2 0x1A36 JUMP JUMPDEST SWAP2 PUSH1 0x0 JUMPDEST DUP3 DUP2 LT PUSH2 0xE89 JUMPI PUSH1 0x40 MLOAD DUP1 PUSH2 0xE85 DUP7 DUP3 PUSH2 0x1672 JUMP JUMPDEST SUB SWAP1 RETURN JUMPDEST DUP1 PUSH2 0xE97 PUSH2 0xEA8 SWAP3 DUP5 PUSH2 0x1A68 JUMP JUMPDEST MLOAD PUSH2 0xEA2 DUP3 DUP8 PUSH2 0x1A68 JUMP JUMPDEST MSTORE PUSH2 0x1797 JUMP JUMPDEST PUSH2 0xE70 JUMP JUMPDEST DUP1 PUSH1 0x0 MSTORE PUSH1 0x2 DUP3 MSTORE PUSH1 0x40 PUSH1 0x0 KECCAK256 DUP4 PUSH1 0x7 DUP3 ADD SLOAD EQ SWAP1 DUP2 PUSH2 0xF0B JUMPI JUMPDEST DUP2 PUSH2 0xEFD JUMPI JUMPDEST POP PUSH2 0xEE2 JUMPI JUMPDEST PUSH2 0xEDD SWAP1 PUSH2 0x1797 JUMP JUMPDEST PUSH2 0xE59 JUMP JUMPDEST SWAP4 PUSH2 0xEF5 DUP2 DUP7 PUSH2 0xEA2 PUSH2 0xEDD SWAP5 DUP11 PUSH2 0x1A68 JUMP JUMPDEST SWAP5 SWAP1 POP PUSH2 0xED4 JUMP JUMPDEST PUSH1 0x6 SWAP2 POP ADD SLOAD TIMESTAMP LT DUP8 PUSH2 0xECE JUMP JUMPDEST PUSH1 0x5 DUP2 ADD SLOAD PUSH1 0xA0 SHR PUSH1 0xFF AND SWAP2 POP PUSH2 0xEC8 JUMP JUMPDEST CALLVALUE PUSH2 0x22F JUMPI PUSH1 0x20 CALLDATASIZE PUSH1 0x3 NOT ADD SLT PUSH2 0x22F JUMPI PUSH1 0x4 CALLDATALOAD PUSH1 0x0 SWAP1 DUP2 MSTORE PUSH1 0x2 PUSH1 0x20 MSTORE PUSH1 0x40 SWAP1 KECCAK256 PUSH1 0x5 DUP2 ADD SLOAD PUSH2 0xF58 SWAP1 PUSH1 0x1 PUSH1 0x1 PUSH1 0xA0 SHL SUB AND ISZERO ISZERO PUSH2 0x1889 JUMP JUMPDEST PUSH1 0x4 PUSH1 0x3 DUP3 ADD SLOAD SWAP2 ADD SLOAD SWAP1 DUP2 DUP2 SUB SWAP2 PUSH1 0x0 DUP2 SLT DUP3 DUP5 SLT DUP2 AND SWAP1 DUP4 DUP6 SGT SWAP1 ISZERO AND OR PUSH2 0xFDE JUMPI DUP1 DUP3 ADD DUP1 DUP4 GT PUSH2 0xFDE JUMPI DUP1 ISZERO SWAP4 DUP5 PUSH2 0xFF4 JUMPI PUSH1 0x64 DUP5 MUL SWAP5 DUP5 DUP7 DIV PUSH1 0x64 EQ DUP6 ISZERO OR ISZERO PUSH2 0xFDE JUMPI PUSH2 0xFC8 JUMPI DUP2 PUSH1 0xA0 SWAP6 DIV SWAP3 JUMPDEST PUSH1 0x40 MLOAD SWAP5 DUP6 MSTORE PUSH1 0x20 DUP6 ADD MSTORE PUSH1 0x40 DUP5 ADD MSTORE PUSH1 0x60 DUP4 ADD MSTORE PUSH1 0x80 DUP3 ADD MSTORE RETURN JUMPDEST PUSH4 0x4E487B71 PUSH1 0xE0 SHL PUSH1 0x0 MSTORE PUSH1 0x12 PUSH1 0x4 MSTORE PUSH1 0x24 PUSH1 0x0 REVERT JUMPDEST PUSH4 0x4E487B71 PUSH1 0xE0 SHL PUSH1 0x0 MSTORE PUSH1 0x11 PUSH1 0x4 MSTORE PUSH1 0x24 PUSH1 0x0 REVERT JUMPDEST PUSH1 0xA0 SWAP5 POP PUSH1 0x0 SWAP3 PUSH2 0xFAC JUMP JUMPDEST CALLVALUE PUSH2 0x22F JUMPI PUSH1 0x20 DUP1 PUSH1 0x3 NOT CALLDATASIZE ADD SLT PUSH2 0x22F JUMPI PUSH1 0x4 CALLDATALOAD SWAP1 PUSH1 0x1 DUP1 PUSH1 0xA0 SHL SUB SWAP2 PUSH1 0x24 DUP3 DUP5 PUSH1 0x0 SLOAD AND PUSH1 0x40 MLOAD SWAP3 DUP4 DUP1 SWAP3 PUSH4 0x1FD3F77 PUSH1 0xE7 SHL DUP3 MSTORE CALLER PUSH1 0x4 DUP4 ADD MSTORE GAS STATICCALL DUP1 ISZERO PUSH2 0x223 JUMPI PUSH2 0x1056 SWAP2 PUSH1 0x0 SWAP2 PUSH2 0x1175 JUMPI POP PUSH2 0x1755 JUMP JUMPDEST DUP1 PUSH1 0x0 MSTORE PUSH1 0x2 DUP3 MSTORE PUSH2 0x107B PUSH1 0x6 PUSH1 0x40 PUSH1 0x0 KECCAK256 PUSH2 0xC6D PUSH1 0xFF PUSH1 0x5 DUP4 ADD SLOAD PUSH1 0xA0 SHR AND PUSH2 0x1801 JUMP JUMPDEST PUSH1 0x0 MSTORE PUSH1 0x2 DUP2 MSTORE PUSH2 0x1098 PUSH1 0x40 PUSH1 0x0 KECCAK256 SWAP3 PUSH1 0x5 DUP5 ADD SLOAD AND ISZERO ISZERO PUSH2 0x1889 JUMP JUMPDEST PUSH1 0x0 CALLER PUSH1 0x0 MSTORE PUSH1 0xA DUP4 ADD DUP3 MSTORE PUSH1 0x40 PUSH1 0x0 KECCAK256 DUP1 SLOAD PUSH1 0xFF DUP2 AND PUSH2 0x1154 JUMPI JUMPDEST POP POP CALLER PUSH1 0x0 MSTORE PUSH1 0xB DUP4 ADD DUP3 MSTORE PUSH1 0x40 PUSH1 0x0 KECCAK256 DUP1 SLOAD PUSH1 0xFF DUP2 AND PUSH2 0x1133 JUMPI JUMPDEST POP POP ISZERO PUSH2 0x10E3 JUMPI POP PUSH1 0x9 TIMESTAMP SWAP2 ADD SSTORE PUSH1 0x0 DUP1 RETURN JUMPDEST PUSH1 0x84 SWAP1 PUSH1 0x40 MLOAD SWAP1 PUSH3 0x461BCD PUSH1 0xE5 SHL DUP3 MSTORE PUSH1 0x4 DUP3 ADD MSTORE PUSH1 0x23 PUSH1 0x24 DUP3 ADD MSTORE PUSH32 0x596F752068617665206E6F7420766F746564206F6E20746869732070726F706F PUSH1 0x44 DUP3 ADD MSTORE PUSH3 0x1CD85B PUSH1 0xEA SHL PUSH1 0x64 DUP3 ADD MSTORE REVERT JUMPDEST PUSH1 0xFF NOT AND SWAP1 SSTORE POP PUSH1 0x4 DUP3 ADD DUP1 SLOAD PUSH2 0x1149 SWAP1 PUSH2 0x1920 JUMP JUMPDEST SWAP1 SSTORE PUSH1 0x1 DUP4 DUP1 PUSH2 0x10D0 JUMP JUMPDEST PUSH1 0xFF NOT AND SWAP1 SSTORE POP PUSH1 0x3 DUP3 ADD DUP1 SLOAD PUSH2 0x116A SWAP1 PUSH2 0x1920 JUMP JUMPDEST SWAP1 SSTORE PUSH1 0x1 DUP4 DUP1 PUSH2 0x10B4 JUMP JUMPDEST PUSH2 0xDB8 SWAP2 POP DUP5 RETURNDATASIZE DUP7 GT PUSH2 0x21C JUMPI PUSH2 0x20E DUP2 DUP4 PUSH2 0x171B JUMP JUMPDEST CALLVALUE PUSH2 0x22F JUMPI PUSH1 0x40 CALLDATASIZE PUSH1 0x3 NOT ADD SLT PUSH2 0x22F JUMPI PUSH1 0x4 CALLDATALOAD PUSH1 0x24 CALLDATALOAD SWAP1 DUP2 ISZERO ISZERO DUP1 SWAP3 SUB PUSH2 0x22F JUMPI PUSH1 0x0 SLOAD PUSH1 0x40 MLOAD PUSH4 0x1FD3F77 PUSH1 0xE7 SHL DUP2 MSTORE CALLER PUSH1 0x4 DUP3 ADD MSTORE PUSH1 0x1 PUSH1 0x1 PUSH1 0xA0 SHL SUB SWAP4 PUSH1 0x20 SWAP3 SWAP1 SWAP2 SWAP1 DUP4 SWAP1 DUP3 SWAP1 PUSH1 0x24 SWAP1 DUP3 SWAP1 DUP10 AND GAS STATICCALL DUP1 ISZERO PUSH2 0x223 JUMPI PUSH2 0x11F7 SWAP2 PUSH1 0x0 SWAP2 PUSH2 0x3AD JUMPI POP PUSH2 0x1755 JUMP JUMPDEST DUP3 PUSH1 0x0 MSTORE PUSH1 0x2 DUP3 MSTORE PUSH2 0x1214 DUP5 PUSH1 0x5 PUSH1 0x40 PUSH1 0x0 KECCAK256 ADD SLOAD AND CALLER EQ PUSH2 0x192D JUMP JUMPDEST DUP3 PUSH1 0x0 MSTORE PUSH1 0x2 DUP3 MSTORE PUSH1 0x40 PUSH1 0x0 KECCAK256 PUSH1 0x5 DUP2 ADD PUSH2 0x1234 DUP2 SLOAD SWAP7 DUP8 AND ISZERO ISZERO PUSH2 0x1889 JUMP JUMPDEST DUP3 PUSH1 0xFF DUP8 PUSH1 0xA0 SHR AND ISZERO ISZERO EQ PUSH2 0x128A JUMPI PUSH32 0x68E3CE211A37937184ED2D0165534A314CFF3C8B8BD7DCDD845523B07698450F SWAP5 SWAP6 PUSH1 0xFF PUSH1 0xA0 SHL DUP5 PUSH1 0xA0 SHL AND SWAP1 PUSH1 0xFF PUSH1 0xA0 SHL NOT AND OR SWAP1 SSTORE PUSH1 0x9 TIMESTAMP SWAP2 ADD SSTORE PUSH1 0x40 MLOAD SWAP1 DUP2 MSTORE LOG2 STOP JUMPDEST PUSH1 0x40 MLOAD PUSH3 0x461BCD PUSH1 0xE5 SHL DUP2 MSTORE PUSH1 0x4 DUP2 ADD DUP6 SWAP1 MSTORE PUSH1 0x23 PUSH1 0x24 DUP3 ADD MSTORE PUSH32 0x53746174757320697320616C72656164792073657420746F2074686973207661 PUSH1 0x44 DUP3 ADD MSTORE PUSH3 0x6C7565 PUSH1 0xE8 SHL PUSH1 0x64 DUP3 ADD MSTORE PUSH1 0x84 SWAP1 REVERT JUMPDEST CALLVALUE PUSH2 0x22F JUMPI PUSH1 0x20 DUP1 PUSH1 0x3 NOT CALLDATASIZE ADD SLT PUSH2 0x22F JUMPI PUSH2 0x12F5 PUSH2 0x165C JUMP JUMPDEST PUSH1 0x1 SLOAD PUSH2 0x1301 DUP2 PUSH2 0x1A36 JUMP JUMPDEST SWAP3 PUSH1 0x0 SWAP3 PUSH1 0x1 PUSH1 0x1 PUSH1 0xA0 SHL SUB SWAP1 DUP2 AND SWAP2 PUSH1 0x1 JUMPDEST DUP5 DUP2 GT ISZERO PUSH2 0x1353 JUMPI DUP7 DUP7 PUSH2 0x1327 DUP2 PUSH2 0x1A36 JUMP JUMPDEST SWAP2 PUSH1 0x0 JUMPDEST DUP3 DUP2 LT PUSH2 0x1340 JUMPI PUSH1 0x40 MLOAD DUP1 PUSH2 0xE85 DUP7 DUP3 PUSH2 0x1672 JUMP JUMPDEST DUP1 PUSH2 0xE97 PUSH2 0x134E SWAP3 DUP5 PUSH2 0x1A68 JUMP JUMPDEST PUSH2 0x132B JUMP JUMPDEST DUP1 PUSH1 0x0 MSTORE PUSH1 0x2 DUP3 MSTORE DUP4 DUP4 PUSH1 0x5 PUSH1 0x40 PUSH1 0x0 KECCAK256 ADD SLOAD AND EQ PUSH2 0x137B JUMPI JUMPDEST PUSH2 0x1376 SWAP1 PUSH2 0x1797 JUMP JUMPDEST PUSH2 0x1314 JUMP JUMPDEST SWAP5 PUSH2 0x138E DUP2 DUP8 PUSH2 0xEA2 PUSH2 0x1376 SWAP5 DUP12 PUSH2 0x1A68 JUMP JUMPDEST SWAP6 SWAP1 POP PUSH2 0x136D JUMP JUMPDEST CALLVALUE PUSH2 0x22F JUMPI PUSH1 0x20 DUP1 PUSH1 0x3 NOT CALLDATASIZE ADD SLT PUSH2 0x22F JUMPI PUSH1 0x4 CALLDATALOAD SWAP1 PUSH1 0x1 DUP1 PUSH1 0xA0 SHL SUB SWAP1 PUSH1 0x24 DUP2 DUP4 PUSH1 0x0 SLOAD AND PUSH1 0x40 MLOAD SWAP3 DUP4 DUP1 SWAP3 PUSH4 0x1FD3F77 PUSH1 0xE7 SHL DUP3 MSTORE CALLER PUSH1 0x4 DUP4 ADD MSTORE GAS STATICCALL DUP1 ISZERO PUSH2 0x223 JUMPI PUSH2 0x13EC SWAP2 PUSH1 0x0 SWAP2 PUSH2 0xDA1 JUMPI POP PUSH2 0x1755 JUMP JUMPDEST DUP3 PUSH1 0x0 MSTORE PUSH1 0x2 DUP2 MSTORE PUSH2 0x1411 PUSH1 0x6 PUSH1 0x40 PUSH1 0x0 KECCAK256 PUSH2 0xC6D PUSH1 0xFF PUSH1 0x5 DUP4 ADD SLOAD PUSH1 0xA0 SHR AND PUSH2 0x1801 JUMP JUMPDEST DUP3 PUSH1 0x0 MSTORE PUSH1 0x2 DUP2 MSTORE PUSH1 0x40 PUSH1 0x0 KECCAK256 SWAP2 PUSH1 0x5 DUP4 ADD SLOAD AND SWAP1 PUSH2 0x1431 DUP3 ISZERO ISZERO PUSH2 0x1889 JUMP JUMPDEST PUSH1 0xB DUP4 ADD SWAP2 CALLER PUSH1 0x0 MSTORE DUP3 DUP3 MSTORE PUSH1 0xFF PUSH1 0x40 PUSH1 0x0 KECCAK256 SLOAD AND PUSH2 0x14E3 JUMPI PUSH2 0x1456 SWAP1 CALLER EQ ISZERO PUSH2 0x18D5 JUMP JUMPDEST CALLER PUSH1 0x0 MSTORE PUSH1 0xA DUP4 ADD DUP2 MSTORE PUSH1 0x40 PUSH1 0x0 KECCAK256 DUP1 SLOAD PUSH1 0xFF DUP2 AND PUSH2 0x14C6 JUMPI JUMPDEST POP POP CALLER PUSH1 0x0 MSTORE MSTORE PUSH1 0x40 PUSH1 0x0 KECCAK256 PUSH1 0x1 PUSH1 0xFF NOT DUP3 SLOAD AND OR SWAP1 SSTORE PUSH1 0x4 DUP2 ADD PUSH2 0x1495 DUP2 SLOAD PUSH2 0x1797 JUMP JUMPDEST SWAP1 SSTORE PUSH1 0x9 TIMESTAMP SWAP2 ADD SSTORE CALLER SWAP1 PUSH32 0xF22F90EC8CA04CBB8FBCB15687D8DC5DCC4D74EAF1529B699367F232B785358B PUSH1 0x0 DUP1 LOG3 STOP JUMPDEST PUSH1 0xFF NOT AND SWAP1 SSTORE PUSH1 0x3 DUP4 ADD PUSH2 0x14DA DUP2 SLOAD PUSH2 0x1920 JUMP JUMPDEST SWAP1 SSTORE DUP5 DUP1 PUSH2 0x1470 JUMP JUMPDEST PUSH1 0x40 MLOAD PUSH3 0x461BCD PUSH1 0xE5 SHL DUP2 MSTORE PUSH1 0x4 DUP2 ADD DUP4 SWAP1 MSTORE PUSH1 0x2A PUSH1 0x24 DUP3 ADD MSTORE PUSH32 0x596F75206861766520616C726561647920766F746564204E4F206F6E20746869 PUSH1 0x44 DUP3 ADD MSTORE PUSH10 0x1CC81C1C9BDC1BDCD85B PUSH1 0xB2 SHL PUSH1 0x64 DUP3 ADD MSTORE PUSH1 0x84 SWAP1 REVERT JUMPDEST CALLVALUE PUSH2 0x22F JUMPI PUSH1 0x0 CALLDATASIZE PUSH1 0x3 NOT ADD SLT PUSH2 0x22F JUMPI PUSH1 0x1 SLOAD PUSH2 0x1558 DUP2 PUSH2 0x1A36 JUMP JUMPDEST SWAP1 PUSH1 0x0 SWAP1 PUSH1 0x1 JUMPDEST DUP2 DUP2 GT ISZERO PUSH2 0x159E JUMPI POP POP PUSH2 0x1572 DUP2 PUSH2 0x1A36 JUMP JUMPDEST SWAP2 PUSH1 0x0 JUMPDEST DUP3 DUP2 LT PUSH2 0x158B JUMPI PUSH1 0x40 MLOAD DUP1 PUSH2 0xE85 DUP7 DUP3 PUSH2 0x1672 JUMP JUMPDEST DUP1 PUSH2 0xE97 PUSH2 0x1599 SWAP3 DUP5 PUSH2 0x1A68 JUMP JUMPDEST PUSH2 0x1576 JUMP JUMPDEST DUP1 PUSH1 0x0 MSTORE PUSH1 0x2 PUSH1 0x20 MSTORE PUSH1 0x6 PUSH1 0x40 PUSH1 0x0 KECCAK256 ADD SLOAD TIMESTAMP LT ISZERO PUSH2 0x15C6 JUMPI JUMPDEST PUSH2 0x15C1 SWAP1 PUSH2 0x1797 JUMP JUMPDEST PUSH2 0x155F JUMP JUMPDEST SWAP2 PUSH2 0x15D9 DUP2 DUP5 PUSH2 0xEA2 PUSH2 0x15C1 SWAP5 DUP9 PUSH2 0x1A68 JUMP JUMPDEST SWAP3 SWAP1 POP PUSH2 0x15B8 JUMP JUMPDEST CALLVALUE PUSH2 0x22F JUMPI PUSH1 0x40 CALLDATASIZE PUSH1 0x3 NOT ADD SLT PUSH2 0x22F JUMPI PUSH1 0x24 CALLDATALOAD PUSH1 0x1 PUSH1 0x1 PUSH1 0xA0 SHL SUB DUP2 DUP2 AND SWAP2 DUP3 SWAP1 SUB PUSH2 0x22F JUMPI PUSH1 0x40 SWAP2 PUSH1 0x4 CALLDATALOAD PUSH1 0x0 MSTORE PUSH1 0x2 PUSH1 0x20 MSTORE PUSH2 0x162B DUP4 PUSH1 0x0 KECCAK256 SWAP3 PUSH1 0x5 DUP5 ADD SLOAD AND ISZERO ISZERO PUSH2 0x1889 JUMP JUMPDEST PUSH1 0x0 MSTORE PUSH1 0xA DUP2 ADD PUSH1 0x20 MSTORE PUSH1 0xB PUSH1 0xFF DUP4 PUSH1 0x0 KECCAK256 SLOAD AND SWAP2 ADD PUSH1 0x20 MSTORE PUSH1 0xFF DUP3 PUSH1 0x0 KECCAK256 SLOAD AND DUP3 MLOAD SWAP2 ISZERO ISZERO DUP3 MSTORE ISZERO ISZERO PUSH1 0x20 DUP3 ADD MSTORE RETURN JUMPDEST PUSH1 0x4 CALLDATALOAD SWAP1 PUSH1 0x1 PUSH1 0x1 PUSH1 0xA0 SHL SUB DUP3 AND DUP3 SUB PUSH2 0x22F JUMPI JUMP JUMPDEST PUSH1 0x20 SWAP1 DUP2 PUSH1 0x40 DUP2 DUP4 ADD SWAP3 DUP3 DUP2 MSTORE DUP6 MLOAD DUP1 SWAP5 MSTORE ADD SWAP4 ADD SWAP2 PUSH1 0x0 JUMPDEST DUP3 DUP2 LT PUSH2 0x1699 JUMPI POP POP POP POP SWAP1 JUMP JUMPDEST DUP4 MLOAD DUP6 MSTORE SWAP4 DUP2 ADD SWAP4 SWAP3 DUP2 ADD SWAP3 PUSH1 0x1 ADD PUSH2 0x168B JUMP JUMPDEST SWAP2 DUP2 PUSH1 0x1F DUP5 ADD SLT ISZERO PUSH2 0x22F JUMPI DUP3 CALLDATALOAD SWAP2 PUSH8 0xFFFFFFFFFFFFFFFF DUP4 GT PUSH2 0x22F JUMPI PUSH1 0x20 DUP4 DUP2 DUP7 ADD SWAP6 ADD ADD GT PUSH2 0x22F JUMPI JUMP JUMPDEST SWAP2 SWAP1 DUP3 MLOAD SWAP3 DUP4 DUP3 MSTORE PUSH1 0x0 JUMPDEST DUP5 DUP2 LT PUSH2 0x1707 JUMPI POP POP DUP3 PUSH1 0x0 PUSH1 0x20 DUP1 SWAP5 SWAP6 DUP5 ADD ADD MSTORE PUSH1 0x1F DUP1 NOT SWAP2 ADD AND ADD ADD SWAP1 JUMP JUMPDEST PUSH1 0x20 DUP2 DUP4 ADD DUP2 ADD MLOAD DUP5 DUP4 ADD DUP3 ADD MSTORE ADD PUSH2 0x16E6 JUMP JUMPDEST SWAP1 PUSH1 0x1F DUP1 NOT SWAP2 ADD AND DUP2 ADD SWAP1 DUP2 LT PUSH8 0xFFFFFFFFFFFFFFFF DUP3 GT OR PUSH2 0x8CB JUMPI PUSH1 0x40 MSTORE JUMP JUMPDEST SWAP1 DUP2 PUSH1 0x20 SWAP2 SUB SLT PUSH2 0x22F JUMPI MLOAD DUP1 ISZERO ISZERO DUP2 SUB PUSH2 0x22F JUMPI SWAP1 JUMP JUMPDEST ISZERO PUSH2 0x175C JUMPI JUMP JUMPDEST PUSH1 0x40 MLOAD PUSH3 0x461BCD PUSH1 0xE5 SHL DUP2 MSTORE PUSH1 0x20 PUSH1 0x4 DUP3 ADD MSTORE PUSH1 0x13 PUSH1 0x24 DUP3 ADD MSTORE PUSH19 0x155CD95C881B9BDD08185D5D1A1BDC9A5E9959 PUSH1 0x6A SHL PUSH1 0x44 DUP3 ADD MSTORE PUSH1 0x64 SWAP1 REVERT JUMPDEST PUSH1 0x0 NOT DUP2 EQ PUSH2 0xFDE JUMPI PUSH1 0x1 ADD SWAP1 JUMP JUMPDEST SWAP1 PUSH1 0x1 DUP3 DUP2 SHR SWAP3 AND DUP1 ISZERO PUSH2 0x17D6 JUMPI JUMPDEST PUSH1 0x20 DUP4 LT EQ PUSH2 0x17C0 JUMPI JUMP JUMPDEST PUSH4 0x4E487B71 PUSH1 0xE0 SHL PUSH1 0x0 MSTORE PUSH1 0x22 PUSH1 0x4 MSTORE PUSH1 0x24 PUSH1 0x0 REVERT JUMPDEST SWAP2 PUSH1 0x7F AND SWAP2 PUSH2 0x17B5 JUMP JUMPDEST SWAP1 DUP1 PUSH1 0x20 SWAP4 SWAP3 DUP2 DUP5 MSTORE DUP5 DUP5 ADD CALLDATACOPY PUSH1 0x0 DUP3 DUP3 ADD DUP5 ADD MSTORE PUSH1 0x1F ADD PUSH1 0x1F NOT AND ADD ADD SWAP1 JUMP JUMPDEST ISZERO PUSH2 0x1808 JUMPI JUMP JUMPDEST PUSH1 0x40 MLOAD PUSH3 0x461BCD PUSH1 0xE5 SHL DUP2 MSTORE PUSH1 0x20 PUSH1 0x4 DUP3 ADD MSTORE PUSH1 0x16 PUSH1 0x24 DUP3 ADD MSTORE PUSH22 0x50726F706F73616C206973206E6F7420616374697665 PUSH1 0x50 SHL PUSH1 0x44 DUP3 ADD MSTORE PUSH1 0x64 SWAP1 REVERT JUMPDEST ISZERO PUSH2 0x184D JUMPI JUMP JUMPDEST PUSH1 0x40 MLOAD PUSH3 0x461BCD PUSH1 0xE5 SHL DUP2 MSTORE PUSH1 0x20 PUSH1 0x4 DUP3 ADD MSTORE PUSH1 0x14 PUSH1 0x24 DUP3 ADD MSTORE PUSH20 0x141C9BDC1BDCD85B081A185CC8195E1C1A5C9959 PUSH1 0x62 SHL PUSH1 0x44 DUP3 ADD MSTORE PUSH1 0x64 SWAP1 REVERT JUMPDEST ISZERO PUSH2 0x1890 JUMPI JUMP JUMPDEST PUSH1 0x40 MLOAD PUSH3 0x461BCD PUSH1 0xE5 SHL DUP2 MSTORE PUSH1 0x20 PUSH1 0x4 DUP3 ADD MSTORE PUSH1 0x17 PUSH1 0x24 DUP3 ADD MSTORE PUSH32 0x50726F706F73616C20646F6573206E6F74206578697374000000000000000000 PUSH1 0x44 DUP3 ADD MSTORE PUSH1 0x64 SWAP1 REVERT JUMPDEST ISZERO PUSH2 0x18DC JUMPI JUMP JUMPDEST PUSH1 0x64 PUSH1 0x40 MLOAD PUSH3 0x461BCD PUSH1 0xE5 SHL DUP2 MSTORE PUSH1 0x20 PUSH1 0x4 DUP3 ADD MSTORE PUSH1 0x20 PUSH1 0x24 DUP3 ADD MSTORE PUSH32 0x43616E6E6F7420766F7465206F6E20796F7572206F776E2070726F706F73616C PUSH1 0x44 DUP3 ADD MSTORE REVERT JUMPDEST DUP1 ISZERO PUSH2 0xFDE JUMPI PUSH1 0x0 NOT ADD SWAP1 JUMP JUMPDEST ISZERO PUSH2 0x1934 JUMPI JUMP JUMPDEST PUSH1 0x64 PUSH1 0x40 MLOAD PUSH3 0x461BCD PUSH1 0xE5 SHL DUP2 MSTORE PUSH1 0x20 PUSH1 0x4 DUP3 ADD MSTORE PUSH1 0x20 PUSH1 0x24 DUP3 ADD MSTORE PUSH32 0x4F6E6C792063726561746F722063616E206D6F646966792070726F706F73616C PUSH1 0x44 DUP3 ADD MSTORE REVERT JUMPDEST SWAP1 PUSH1 0x40 MLOAD SWAP2 DUP3 PUSH1 0x0 DUP3 SLOAD SWAP3 PUSH2 0x198C DUP5 PUSH2 0x17A6 JUMP JUMPDEST SWAP1 DUP2 DUP5 MSTORE PUSH1 0x1 SWAP5 DUP6 DUP2 AND SWAP1 DUP2 PUSH1 0x0 EQ PUSH2 0x19FB JUMPI POP PUSH1 0x1 EQ PUSH2 0x19B8 JUMPI JUMPDEST POP POP PUSH2 0x19B6 SWAP3 POP SUB DUP4 PUSH2 0x171B JUMP JUMPDEST JUMP JUMPDEST SWAP1 SWAP4 SWAP2 POP PUSH1 0x0 MSTORE PUSH1 0x20 SWAP1 DUP2 PUSH1 0x0 KECCAK256 SWAP4 PUSH1 0x0 SWAP2 JUMPDEST DUP2 DUP4 LT PUSH2 0x19E3 JUMPI POP POP PUSH2 0x19B6 SWAP4 POP DUP3 ADD ADD CODESIZE DUP1 PUSH2 0x19A8 JUMP JUMPDEST DUP6 SLOAD DUP9 DUP5 ADD DUP6 ADD MSTORE SWAP5 DUP6 ADD SWAP5 DUP8 SWAP5 POP SWAP2 DUP4 ADD SWAP2 PUSH2 0x19CB JUMP JUMPDEST SWAP2 POP POP PUSH2 0x19B6 SWAP5 POP PUSH1 0x20 SWAP3 POP PUSH1 0xFF NOT AND DUP3 DUP5 ADD MSTORE ISZERO ISZERO PUSH1 0x5 SHL DUP3 ADD ADD CODESIZE DUP1 PUSH2 0x19A8 JUMP JUMPDEST PUSH8 0xFFFFFFFFFFFFFFFF DUP2 GT PUSH2 0x8CB JUMPI PUSH1 0x5 SHL PUSH1 0x20 ADD SWAP1 JUMP JUMPDEST SWAP1 PUSH2 0x1A40 DUP3 PUSH2 0x1A1E JUMP JUMPDEST PUSH2 0x1A4D PUSH1 0x40 MLOAD SWAP2 DUP3 PUSH2 0x171B JUMP JUMPDEST DUP3 DUP2 MSTORE DUP1 SWAP3 PUSH2 0x1A5E PUSH1 0x1F NOT SWAP2 PUSH2 0x1A1E JUMP JUMPDEST ADD SWAP1 PUSH1 0x20 CALLDATASIZE SWAP2 ADD CALLDATACOPY JUMP JUMPDEST DUP1 MLOAD DUP3 LT ISZERO PUSH2 0x1A7C JUMPI PUSH1 0x20 SWAP2 PUSH1 0x5 SHL ADD ADD SWAP1 JUMP JUMPDEST PUSH4 0x4E487B71 PUSH1 0xE0 SHL PUSH1 0x0 MSTORE PUSH1 0x32 PUSH1 0x4 MSTORE PUSH1 0x24 PUSH1 0x0 REVERT INVALID LOG2 PUSH5 0x6970667358 0x22 SLT KECCAK256 0x2E 0xDB DUP9 MLOAD COINBASE 0x29 0xB1 SHR 0xF6 0xE1 PUSH5 0x28DE47B47 JUMPDEST 0xBA CALL PUSH9 0x454D213D657A2EB8FC 0xA8 NUMBER MSTORE8 PUSH5 0x736F6C6343 STOP ADDMOD EQ STOP CALLER "},"methodIdentifiers":{"authRegistry()":"629e025a","changeProposalStatus(uint256,bool)":"38c545b4","createProposal(string,string,string,uint256,uint256)":"8e295bda","expireProposal(uint256)":"e1b526b0","extendProposalDeadline(uint256,uint256)":"c966f516","getActiveProposalsByCategory(uint256)":"4d754e07","getExpiredProposals()":"0d734cc1","getProposal(uint256)":"c7f758a8","getProposalVotes(uint256)":"47c66140","getProposalsByUser(address)":"1add18f4","getUserVote(uint256,address)":"03c7881a","isProposalExpired(uint256)":"4ff2f814","lastCreatedAt(address)":"b94afa71","proposalCount()":"da35c664","removeVote(uint256)":"3f68fde4","voteNo(uint256)":"1a6f7be5","voteYes(uint256)":"6a1cf721"}}}}}