{"contracts/policy/policy.sol":{"Policies":{"abi":[{"inputs":[{"internalType":"address","name":"_authRegistry","type":"address"}],"stateMutability":"nonpayable","type":"constructor"},{"anonymous":false,"inputs":[{"indexed":true,"internalType":"uint256","name":"policyId","type":"uint256"},{"indexed":true,"internalType":"address","name":"creator","type":"address"},{"indexed":false,"internalType":"string","name":"name","type":"string"},{"indexed":false,"internalType":"string","name":"descriptionCid","type":"string"},{"indexed":false,"internalType":"string","name":"ministry","type":"string"},{"indexed":false,"internalType":"string","name":"status","type":"string"}],"name":"PolicyCreated","type":"event"},{"anonymous":false,"inputs":[{"indexed":true,"internalType":"uint256","name":"policyId","type":"uint256"},{"indexed":false,"internalType":"string","name":"oldStatus","type":"string"},{"indexed":false,"internalType":"string","name":"newStatus","type":"string"},{"indexed":true,"internalType":"address","name":"changer","type":"address"}],"name":"PolicyStatusChanged","type":"event"},{"anonymous":false,"inputs":[{"indexed":true,"internalType":"uint256","name":"policyId","type":"uint256"},{"indexed":true,"internalType":"address","name":"updater","type":"address"},{"indexed":false,"internalType":"string","name":"status","type":"string"},{"indexed":false,"internalType":"uint256","name":"effectiveDate","type":"uint256"}],"name":"PolicyUpdated","type":"event"},{"inputs":[],"name":"authRegistry","outputs":[{"internalType":"contract IAuthRegistry","name":"","type":"address"}],"stateMutability":"view","type":"function"},{"inputs":[{"internalType":"string","name":"name","type":"string"},{"internalType":"string","name":"descriptionCid","type":"string"},{"internalType":"string","name":"viewFullPolicy","type":"string"},{"internalType":"string","name":"ministry","type":"string"},{"internalType":"uint256","name":"effectiveDate","type":"uint256"}],"name":"createPolicy","outputs":[{"internalType":"uint256","name":"","type":"uint256"}],"stateMutability":"nonpayable","type":"function"},{"inputs":[{"internalType":"uint256","name":"policyId","type":"uint256"}],"name":"getPolicy","outputs":[{"internalType":"string","name":"name","type":"string"},{"internalType":"string","name":"descriptionCid","type":"string"},{"internalType":"string","name":"viewFullPolicy","type":"string"},{"internalType":"string","name":"ministry","type":"string"},{"internalType":"string","name":"status","type":"string"},{"internalType":"address","name":"creator","type":"address"},{"internalType":"uint256","name":"createdAt","type":"uint256"},{"internalType":"uint256","name":"effectiveDate","type":"uint256"},{"internalType":"uint256","name":"lastUpdated","type":"uint256"},{"internalType":"uint256","name":"supportCount","type":"uint256"},{"internalType":"bool","name":"isActive","type":"bool"}],"stateMutability":"view","type":"function"},{"inputs":[{"internalType":"address","name":"","type":"address"}],"name":"lastCreatedAt","outputs":[{"internalType":"uint256","name":"","type":"uint256"}],"stateMutability":"view","type":"function"},{"inputs":[{"internalType":"string","name":"","type":"string"},{"internalType":"uint256","name":"","type":"uint256"}],"name":"policiesByMinistry","outputs":[{"internalType":"uint256","name":"","type":"uint256"}],"stateMutability":"view","type":"function"},{"inputs":[{"internalType":"string","name":"","type":"string"},{"internalType":"uint256","name":"","type":"uint256"}],"name":"policiesByStatus","outputs":[{"internalType":"uint256","name":"","type":"uint256"}],"stateMutability":"view","type":"function"},{"inputs":[],"name":"policyCount","outputs":[{"internalType":"uint256","name":"","type":"uint256"}],"stateMutability":"view","type":"function"},{"inputs":[{"internalType":"uint256","name":"policyId","type":"uint256"},{"internalType":"string","name":"newStatus","type":"string"},{"internalType":"uint256","name":"newEffectiveDate","type":"uint256"}],"name":"updatePolicyStatus","outputs":[],"stateMutability":"nonpayable","type":"function"}],"evm":{"bytecode":{"linkReferences":{},"object":"6080346100cb57601f61138838819003918201601f19168301916001600160401b038311848410176100d0578084926020946040528339810103126100cb57516001600160a01b038116908190036100cb57801561007a57600080546001600160a01b0319169190911790556040516112a190816100e78239f35b60405162461bcd60e51b8152602060048201526024808201527f4175746820726567697374727920616464726573732063616e6e6f74206265206044820152637a65726f60e01b6064820152608490fd5b600080fd5b634e487b7160e01b600052604160045260246000fdfe6080604052600436101561001257600080fd5b60003560e01c80632b07fce314610d6d578063629e025a14610d445780638f03ad6e14610845578063b94afa7114610807578063be0973b1146107d5578063c29f42e914610780578063de54d429146107625763f5c2d1861461007457600080fd5b3461075d5760a036600319011261075d576004356001600160401b03811161075d576100a4903690600401610f04565b6024356001600160401b03811161075d576100c3903690600401610f04565b90916044356001600160401b03811161075d576100e4903690600401610f04565b9290936064356001600160401b03811161075d57610106903690600401610f04565b6000546040516301fd3f7760e71b8152336004820152929491939290602090829060249082906001600160a01b03165afa80156107515761014f91600091610722575b5061103b565b84156106e65780156106a157851561065c5782156106175761017260015461107d565b96876001558760005260026020526040600020966001600160401b0387116104a0576101a8876101a28a546110a2565b8a6110f3565b866000601f82116001146105b0576000916105a5575b508760011b906000198960031b1c19161788555b6001600160401b0383116104a0576101fa836101f160018b01546110a2565b60018b016110f3565b826000601f82116001146105375760009161052c575b508360011b906000198560031b1c19161760018901555b6001600160401b0381116104a05780600289019261024f8261024986546110a2565b866110f3565b600090601f83116001146104c1576000926104b6575b50508160011b916000199060031b1c19161790555b6001600160401b0383116104a0576102a28361029960038901546110a2565b600389016110f3565b600097601f841160011461043057838899600099989991610425575b508460011b906000198660031b1c19161760038901555b60048801976102e489546110a2565b601f8111610403575b5064111490519560da1b98600a8a01905560058101336bffffffffffffffffffffffff60a01b8254161790554260068201556084356007820155426008820155600b0160ff19815416905586604051858782378086810160048152036020019020906103589161113a565b6040518881526005808201526025902061037390889061113a565b336000526003602052426040600020556040519560808752608087019061039992611162565b9085820360208701526103ab92611162565b9083820360408501526103bd92611162565b9281840393846060840152600581526020015233926040017f27a2761f5ffc4e00cb4a17ae63df13edf7bbde45f08c0a77569cfddd2d47ed5f91a3604051908152602090f35b61041f908a600052601f6020600020910160051c8101906110dc565b386102ed565b9050850135386102be565b60038701600052602060002060005b601f19861681106104885750889985601f9a999a1981161061046e575b5050600184811b0160038901556102d5565b860135600019600387901b60f8161c19169055388061045c565b868b0135825560209a8b019a6001909201910161043f565b634e487b7160e01b600052604160045260246000fd5b013590503880610265565b909150601f198316918460005260206000209260005b81811061051457509084600195949392106104fa575b505050811b01905561027a565b0135600019600384901b60f8161c191690553880806104ed565b919360206001819287870135815501950192016104d7565b905084013538610210565b90506001890160005260206000209060005b601f198616811061058d575084601f19811610610573575b5050600183811b016001890155610227565b850135600019600386901b60f8161c191690553880610561565b9091602060018192858a013581550193019101610549565b90508a0135386101be565b60008a81526020812092505b8c601f198b1682106105ff57505088601f198116106105e5575b5050600187811b0188556101d2565b8b013560001960038a901b60f8161c1916905538806105d6565b600183946020939484930135815501930191016105bc565b60405162461bcd60e51b815260206004820152601860248201527f4d696e69737472792063616e6e6f7420626520656d70747900000000000000006044820152606490fd5b60405162461bcd60e51b815260206004820152601f60248201527f46756c6c20706f6c6963792055524c2063616e6e6f7420626520656d707479006044820152606490fd5b60405162461bcd60e51b815260206004820152601f60248201527f4465736372697074696f6e204349442063616e6e6f7420626520656d707479006044820152606490fd5b60405162461bcd60e51b81526020600482015260146024820152734e616d652063616e6e6f7420626520656d70747960601b6044820152606490fd5b610744915060203d60201161074a575b61073c8183610f4c565b810190611023565b38610149565b503d610732565b6040513d6000823e3d90fd5b600080fd5b3461075d57600036600319011261075d576020600154604051908152f35b3461075d5760206107a861079336610fb3565b92908160405193828580945193849201610ebc565b81016004815203019020805482101561075d576020916107c791610ff5565b90546040519160031b1c8152f35b3461075d5760206107e861079336610fb3565b81016005815203019020805482101561075d576020916107c791610ff5565b3461075d57602036600319011261075d576004356001600160a01b0381169081900361075d5760005260036020526020604060002054604051908152f35b3461075d57606036600319011261075d5760246001600160401b03600435823582811161075d5761087a903690600401610f04565b6000546040516301fd3f7760e71b81523360048201526020966044359594929091906001600160a01b0390899083908590829085165afa918215610751576108f8926108cd91600091610d27575061103b565b85151580610d1b575b6108df90611183565b8560005260028952600560406000200154161515611183565b836000526002875260406000209460048601610913816111c7565b926040518a8186516109288183858b01610ebc565b810160058152030190209860005b8a5480821015610d0a57899061094c838e610ff5565b929054600393841b1c1461096a5750506109659061107d565b610936565b9092939495969798999a9b9160001991828101908111610cf557906109a26109956109bb9386610ff5565b905490871b1c9185610ff5565b90919082549060031b91821b91600019901b1916179055565b81548015610ce0578101926109d08484610ff5565b81939154921b1b19169055555b8611610ccc57506109f8856109f283546110a2565b836110f3565b6000601f8611600114610c3c57926007927fad2e1dfc6994aeeaf151fa20c453bac06d98c011752a28edadb877ad0f077cf797989287610b4796600091610c31575b508860011b906000198a60031b1c19161790555b42600884015580610c27575b50610a7888604051888882378b818a8101600581520301902061113a565b7fdb6d55a48c634fdfe68da24c01559762c293198f8322e1fed7ca8976fc4ed260610aa4368888610f6d565b8a81519101206541435449564560d01b8b604051610ac181610f31565b6006815201521480610c1a575b15610b5357600b8201805460ff191660011790555b877f7349e505864221fcf2768bf72491e152fedc76f5d0a627184f0fdace25d15207610b1a60405193604085526040850190610edf565b928084038c82015280610b2f33958b8b611162565b0390a301549160405193604085526040850191611162565b948201528033940390a3005b7f0e71c910d536b61fcef69518c42a88c159e7af67bb3870c8551c6d0c8616ea97610b7f368888610f6d565b8a815191012067494e41435449564560c01b8b604051610b9e81610f31565b600881520152148015610bc2575b15610ae357600b8201805460ff19169055610ae3565b507fe6c285292cab7e0caa931a7e4e62e4b31622725235f51dca3c4727d29d299083610bef368888610f6d565b8a815191012067105490d21255915160c21b8b604051610c0e81610f31565b60088152015214610bac565b5042838301541115610ace565b8383015589610a5a565b90508701358c610a3a565b601f1986169082600052896000209160005b8b828210610cb657505092610b47959260079592897fad2e1dfc6994aeeaf151fa20c453bac06d98c011752a28edadb877ad0f077cf79b9c9610610c9c575b5050600188811b019055610a4e565b88013560001960038b901b60f8161c191690558b80610c8d565b600184958293958b013581550194019201610c4e565b634e487b7160e01b60009081526041600452fd5b85634e487b7160e01b60005260316004526000fd5b86634e487b7160e01b60005260116004526000fd5b5050909192939495969798506109dd565b506001548611156108d6565b610d3e91508b3d8d1161074a5761073c8183610f4c565b8b610149565b3461075d57600036600319011261075d576000546040516001600160a01b039091168152602090f35b3461075d57602036600319011261075d5760043580151580610eb0575b610d9390611183565b6000818152600260205260409020600501546001600160a01b039190610dbc9083161515611183565b600052600260205260406000209060058201541660068201549060078301546008840154600a85015490600b86015460ff1692610df8876111c7565b95610e05600189016111c7565b97610e12600282016111c7565b90610e1f600382016111c7565b90600401610e2c906111c7565b916040519a8b9a610160808d528c01610e4491610edf565b8b810360208d0152610e5591610edf565b8a810360408c0152610e6691610edf565b89810360608b0152610e7791610edf565b88810360808a0152610e8891610edf565b9560a088015260c087015260e086015261010085015261012084015215156101408301520390f35b50600154811115610d8a565b60005b838110610ecf5750506000910152565b8181015183820152602001610ebf565b90602091610ef881518092818552858086019101610ebc565b601f01601f1916010190565b9181601f8401121561075d578235916001600160401b03831161075d576020838186019501011161075d57565b604081019081106001600160401b038211176104a057604052565b90601f801991011681019081106001600160401b038211176104a057604052565b9291926001600160401b0382116104a05760405191610f96601f8201601f191660200184610f4c565b82948184528183011161075d578281602093846000960137010152565b604060031982011261075d57600435906001600160401b03821161075d578060238301121561075d57816024610fee93600401359101610f6d565b9060243590565b805482101561100d5760005260206000200190600090565b634e487b7160e01b600052603260045260246000fd5b9081602091031261075d5751801515810361075d5790565b1561104257565b60405162461bcd60e51b8152602060048201526013602482015272155cd95c881b9bdd08185d5d1a1bdc9a5e9959606a1b6044820152606490fd5b600019811461108c5760010190565b634e487b7160e01b600052601160045260246000fd5b90600182811c921680156110d2575b60208310146110bc57565b634e487b7160e01b600052602260045260246000fd5b91607f16916110b1565b8181106110e7575050565b600081556001016110dc565b9190601f811161110257505050565b61112e926000526020600020906020601f840160051c83019310611130575b601f0160051c01906110dc565b565b9091508190611121565b90815491680100000000000000008310156104a057826109a291600161112e95018155610ff5565b908060209392818452848401376000828201840152601f01601f1916010190565b1561118a57565b60405162461bcd60e51b8152602060048201526015602482015274141bdb1a58de48191bd95cc81b9bdd08195e1a5cdd605a1b6044820152606490fd5b90604051918260008254926111db846110a2565b9081845260019485811690816000146112485750600114611205575b505061112e92500383610f4c565b9093915060005260209081600020936000915b81831061123057505061112e935082010138806111f7565b85548884018501529485019487945091830191611218565b91505061112e94506020925060ff191682840152151560051b82010138806111f756fea26469706673582212206bc3f6f55f7bba43fbe7587abffc84c39319e6ea511d38cabfeae49df28839aa64736f6c63430008140033","opcodes":"PUSH1 0x80 CALLVALUE PUSH2 0xCB JUMPI PUSH1 0x1F PUSH2 0x1388 CODESIZE DUP2 SWAP1 SUB SWAP2 DUP3 ADD PUSH1 0x1F NOT AND DUP4 ADD SWAP2 PUSH1 0x1 PUSH1 0x1 PUSH1 0x40 SHL SUB DUP4 GT DUP5 DUP5 LT OR PUSH2 0xD0 JUMPI DUP1 DUP5 SWAP3 PUSH1 0x20 SWAP5 PUSH1 0x40 MSTORE DUP4 CODECOPY DUP2 ADD SUB SLT PUSH2 0xCB JUMPI MLOAD PUSH1 0x1 PUSH1 0x1 PUSH1 0xA0 SHL SUB DUP2 AND SWAP1 DUP2 SWAP1 SUB PUSH2 0xCB JUMPI DUP1 ISZERO PUSH2 0x7A JUMPI PUSH1 0x0 DUP1 SLOAD PUSH1 0x1 PUSH1 0x1 PUSH1 0xA0 SHL SUB NOT AND SWAP2 SWAP1 SWAP2 OR SWAP1 SSTORE PUSH1 0x40 MLOAD PUSH2 0x12A1 SWAP1 DUP2 PUSH2 0xE7 DUP3 CODECOPY RETURN JUMPDEST PUSH1 0x40 MLOAD PUSH3 0x461BCD PUSH1 0xE5 SHL DUP2 MSTORE PUSH1 0x20 PUSH1 0x4 DUP3 ADD MSTORE PUSH1 0x24 DUP1 DUP3 ADD MSTORE PUSH32 0x4175746820726567697374727920616464726573732063616E6E6F7420626520 PUSH1 0x44 DUP3 ADD MSTORE PUSH4 0x7A65726F PUSH1 0xE0 SHL PUSH1 0x64 DUP3 ADD MSTORE PUSH1 0x84 SWAP1 REVERT JUMPDEST PUSH1 0x0 DUP1 REVERT JUMPDEST PUSH4 0x4E487B71 PUSH1 0xE0 SHL PUSH1 0x0 MSTORE PUSH1 0x41 PUSH1 0x4 MSTORE PUSH1 0x24 PUSH1 0x0 REVERT INVALID PUSH1 0x80 PUSH1 0x40 MSTORE PUSH1 0x4 CALLDATASIZE LT ISZERO PUSH2 0x12 JUMPI PUSH1 0x0 DUP1 REVERT JUMPDEST PUSH1 0x0 CALLDATALOAD PUSH1 0xE0 SHR DUP1 PUSH4 0x2B07FCE3 EQ PUSH2 0xD6D JUMPI DUP1 PUSH4 0x629E025A EQ PUSH2 0xD44 JUMPI DUP1 PUSH4 0x8F03AD6E EQ PUSH2 0x845 JUMPI DUP1 PUSH4 0xB94AFA71 EQ PUSH2 0x807 JUMPI DUP1 PUSH4 0xBE0973B1 EQ PUSH2 0x7D5 JUMPI DUP1 PUSH4 0xC29F42E9 EQ PUSH2 0x780 JUMPI DUP1 PUSH4 0xDE54D429 EQ PUSH2 0x762 JUMPI PUSH4 0xF5C2D186 EQ PUSH2 0x74 JUMPI PUSH1 0x0 DUP1 REVERT JUMPDEST CALLVALUE PUSH2 0x75D JUMPI PUSH1 0xA0 CALLDATASIZE PUSH1 0x3 NOT ADD SLT PUSH2 0x75D JUMPI PUSH1 0x4 CALLDATALOAD PUSH1 0x1 PUSH1 0x1 PUSH1 0x40 SHL SUB DUP2 GT PUSH2 0x75D JUMPI PUSH2 0xA4 SWAP1 CALLDATASIZE SWAP1 PUSH1 0x4 ADD PUSH2 0xF04 JUMP JUMPDEST PUSH1 0x24 CALLDATALOAD PUSH1 0x1 PUSH1 0x1 PUSH1 0x40 SHL SUB DUP2 GT PUSH2 0x75D JUMPI PUSH2 0xC3 SWAP1 CALLDATASIZE SWAP1 PUSH1 0x4 ADD PUSH2 0xF04 JUMP JUMPDEST SWAP1 SWAP2 PUSH1 0x44 CALLDATALOAD PUSH1 0x1 PUSH1 0x1 PUSH1 0x40 SHL SUB DUP2 GT PUSH2 0x75D JUMPI PUSH2 0xE4 SWAP1 CALLDATASIZE SWAP1 PUSH1 0x4 ADD PUSH2 0xF04 JUMP JUMPDEST SWAP3 SWAP1 SWAP4 PUSH1 0x64 CALLDATALOAD PUSH1 0x1 PUSH1 0x1 PUSH1 0x40 SHL SUB DUP2 GT PUSH2 0x75D JUMPI PUSH2 0x106 SWAP1 CALLDATASIZE SWAP1 PUSH1 0x4 ADD PUSH2 0xF04 JUMP JUMPDEST PUSH1 0x0 SLOAD PUSH1 0x40 MLOAD PUSH4 0x1FD3F77 PUSH1 0xE7 SHL DUP2 MSTORE CALLER PUSH1 0x4 DUP3 ADD MSTORE SWAP3 SWAP5 SWAP2 SWAP4 SWAP3 SWAP1 PUSH1 0x20 SWAP1 DUP3 SWAP1 PUSH1 0x24 SWAP1 DUP3 SWAP1 PUSH1 0x1 PUSH1 0x1 PUSH1 0xA0 SHL SUB AND GAS STATICCALL DUP1 ISZERO PUSH2 0x751 JUMPI PUSH2 0x14F SWAP2 PUSH1 0x0 SWAP2 PUSH2 0x722 JUMPI JUMPDEST POP PUSH2 0x103B JUMP JUMPDEST DUP5 ISZERO PUSH2 0x6E6 JUMPI DUP1 ISZERO PUSH2 0x6A1 JUMPI DUP6 ISZERO PUSH2 0x65C JUMPI DUP3 ISZERO PUSH2 0x617 JUMPI PUSH2 0x172 PUSH1 0x1 SLOAD PUSH2 0x107D JUMP JUMPDEST SWAP7 DUP8 PUSH1 0x1 SSTORE DUP8 PUSH1 0x0 MSTORE PUSH1 0x2 PUSH1 0x20 MSTORE PUSH1 0x40 PUSH1 0x0 KECCAK256 SWAP7 PUSH1 0x1 PUSH1 0x1 PUSH1 0x40 SHL SUB DUP8 GT PUSH2 0x4A0 JUMPI PUSH2 0x1A8 DUP8 PUSH2 0x1A2 DUP11 SLOAD PUSH2 0x10A2 JUMP JUMPDEST DUP11 PUSH2 0x10F3 JUMP JUMPDEST DUP7 PUSH1 0x0 PUSH1 0x1F DUP3 GT PUSH1 0x1 EQ PUSH2 0x5B0 JUMPI PUSH1 0x0 SWAP2 PUSH2 0x5A5 JUMPI JUMPDEST POP DUP8 PUSH1 0x1 SHL SWAP1 PUSH1 0x0 NOT DUP10 PUSH1 0x3 SHL SHR NOT AND OR DUP9 SSTORE JUMPDEST PUSH1 0x1 PUSH1 0x1 PUSH1 0x40 SHL SUB DUP4 GT PUSH2 0x4A0 JUMPI PUSH2 0x1FA DUP4 PUSH2 0x1F1 PUSH1 0x1 DUP12 ADD SLOAD PUSH2 0x10A2 JUMP JUMPDEST PUSH1 0x1 DUP12 ADD PUSH2 0x10F3 JUMP JUMPDEST DUP3 PUSH1 0x0 PUSH1 0x1F DUP3 GT PUSH1 0x1 EQ PUSH2 0x537 JUMPI PUSH1 0x0 SWAP2 PUSH2 0x52C JUMPI JUMPDEST POP DUP4 PUSH1 0x1 SHL SWAP1 PUSH1 0x0 NOT DUP6 PUSH1 0x3 SHL SHR NOT AND OR PUSH1 0x1 DUP10 ADD SSTORE JUMPDEST PUSH1 0x1 PUSH1 0x1 PUSH1 0x40 SHL SUB DUP2 GT PUSH2 0x4A0 JUMPI DUP1 PUSH1 0x2 DUP10 ADD SWAP3 PUSH2 0x24F DUP3 PUSH2 0x249 DUP7 SLOAD PUSH2 0x10A2 JUMP JUMPDEST DUP7 PUSH2 0x10F3 JUMP JUMPDEST PUSH1 0x0 SWAP1 PUSH1 0x1F DUP4 GT PUSH1 0x1 EQ PUSH2 0x4C1 JUMPI PUSH1 0x0 SWAP3 PUSH2 0x4B6 JUMPI JUMPDEST POP POP DUP2 PUSH1 0x1 SHL SWAP2 PUSH1 0x0 NOT SWAP1 PUSH1 0x3 SHL SHR NOT AND OR SWAP1 SSTORE JUMPDEST PUSH1 0x1 PUSH1 0x1 PUSH1 0x40 SHL SUB DUP4 GT PUSH2 0x4A0 JUMPI PUSH2 0x2A2 DUP4 PUSH2 0x299 PUSH1 0x3 DUP10 ADD SLOAD PUSH2 0x10A2 JUMP JUMPDEST PUSH1 0x3 DUP10 ADD PUSH2 0x10F3 JUMP JUMPDEST PUSH1 0x0 SWAP8 PUSH1 0x1F DUP5 GT PUSH1 0x1 EQ PUSH2 0x430 JUMPI DUP4 DUP9 SWAP10 PUSH1 0x0 SWAP10 SWAP9 SWAP10 SWAP2 PUSH2 0x425 JUMPI JUMPDEST POP DUP5 PUSH1 0x1 SHL SWAP1 PUSH1 0x0 NOT DUP7 PUSH1 0x3 SHL SHR NOT AND OR PUSH1 0x3 DUP10 ADD SSTORE JUMPDEST PUSH1 0x4 DUP9 ADD SWAP8 PUSH2 0x2E4 DUP10 SLOAD PUSH2 0x10A2 JUMP JUMPDEST PUSH1 0x1F DUP2 GT PUSH2 0x403 JUMPI JUMPDEST POP PUSH5 0x1114905195 PUSH1 0xDA SHL SWAP9 PUSH1 0xA DUP11 ADD SWAP1 SSTORE PUSH1 0x5 DUP2 ADD CALLER PUSH12 0xFFFFFFFFFFFFFFFFFFFFFFFF PUSH1 0xA0 SHL DUP3 SLOAD AND OR SWAP1 SSTORE TIMESTAMP PUSH1 0x6 DUP3 ADD SSTORE PUSH1 0x84 CALLDATALOAD PUSH1 0x7 DUP3 ADD SSTORE TIMESTAMP PUSH1 0x8 DUP3 ADD SSTORE PUSH1 0xB ADD PUSH1 0xFF NOT DUP2 SLOAD AND SWAP1 SSTORE DUP7 PUSH1 0x40 MLOAD DUP6 DUP8 DUP3 CALLDATACOPY DUP1 DUP7 DUP2 ADD PUSH1 0x4 DUP2 MSTORE SUB PUSH1 0x20 ADD SWAP1 KECCAK256 SWAP1 PUSH2 0x358 SWAP2 PUSH2 0x113A JUMP JUMPDEST PUSH1 0x40 MLOAD DUP9 DUP2 MSTORE PUSH1 0x5 DUP1 DUP3 ADD MSTORE PUSH1 0x25 SWAP1 KECCAK256 PUSH2 0x373 SWAP1 DUP9 SWAP1 PUSH2 0x113A JUMP JUMPDEST CALLER PUSH1 0x0 MSTORE PUSH1 0x3 PUSH1 0x20 MSTORE TIMESTAMP PUSH1 0x40 PUSH1 0x0 KECCAK256 SSTORE PUSH1 0x40 MLOAD SWAP6 PUSH1 0x80 DUP8 MSTORE PUSH1 0x80 DUP8 ADD SWAP1 PUSH2 0x399 SWAP3 PUSH2 0x1162 JUMP JUMPDEST SWAP1 DUP6 DUP3 SUB PUSH1 0x20 DUP8 ADD MSTORE PUSH2 0x3AB SWAP3 PUSH2 0x1162 JUMP JUMPDEST SWAP1 DUP4 DUP3 SUB PUSH1 0x40 DUP6 ADD MSTORE PUSH2 0x3BD SWAP3 PUSH2 0x1162 JUMP JUMPDEST SWAP3 DUP2 DUP5 SUB SWAP4 DUP5 PUSH1 0x60 DUP5 ADD MSTORE PUSH1 0x5 DUP2 MSTORE PUSH1 0x20 ADD MSTORE CALLER SWAP3 PUSH1 0x40 ADD PUSH32 0x27A2761F5FFC4E00CB4A17AE63DF13EDF7BBDE45F08C0A77569CFDDD2D47ED5F SWAP2 LOG3 PUSH1 0x40 MLOAD SWAP1 DUP2 MSTORE PUSH1 0x20 SWAP1 RETURN JUMPDEST PUSH2 0x41F SWAP1 DUP11 PUSH1 0x0 MSTORE PUSH1 0x1F PUSH1 0x20 PUSH1 0x0 KECCAK256 SWAP2 ADD PUSH1 0x5 SHR DUP2 ADD SWAP1 PUSH2 0x10DC JUMP JUMPDEST CODESIZE PUSH2 0x2ED JUMP JUMPDEST SWAP1 POP DUP6 ADD CALLDATALOAD CODESIZE PUSH2 0x2BE JUMP JUMPDEST PUSH1 0x3 DUP8 ADD PUSH1 0x0 MSTORE PUSH1 0x20 PUSH1 0x0 KECCAK256 PUSH1 0x0 JUMPDEST PUSH1 0x1F NOT DUP7 AND DUP2 LT PUSH2 0x488 JUMPI POP DUP9 SWAP10 DUP6 PUSH1 0x1F SWAP11 SWAP10 SWAP11 NOT DUP2 AND LT PUSH2 0x46E JUMPI JUMPDEST POP POP PUSH1 0x1 DUP5 DUP2 SHL ADD PUSH1 0x3 DUP10 ADD SSTORE PUSH2 0x2D5 JUMP JUMPDEST DUP7 ADD CALLDATALOAD PUSH1 0x0 NOT PUSH1 0x3 DUP8 SWAP1 SHL PUSH1 0xF8 AND SHR NOT AND SWAP1 SSTORE CODESIZE DUP1 PUSH2 0x45C JUMP JUMPDEST DUP7 DUP12 ADD CALLDATALOAD DUP3 SSTORE PUSH1 0x20 SWAP11 DUP12 ADD SWAP11 PUSH1 0x1 SWAP1 SWAP3 ADD SWAP2 ADD PUSH2 0x43F JUMP JUMPDEST PUSH4 0x4E487B71 PUSH1 0xE0 SHL PUSH1 0x0 MSTORE PUSH1 0x41 PUSH1 0x4 MSTORE PUSH1 0x24 PUSH1 0x0 REVERT JUMPDEST ADD CALLDATALOAD SWAP1 POP CODESIZE DUP1 PUSH2 0x265 JUMP JUMPDEST SWAP1 SWAP2 POP PUSH1 0x1F NOT DUP4 AND SWAP2 DUP5 PUSH1 0x0 MSTORE PUSH1 0x20 PUSH1 0x0 KECCAK256 SWAP3 PUSH1 0x0 JUMPDEST DUP2 DUP2 LT PUSH2 0x514 JUMPI POP SWAP1 DUP5 PUSH1 0x1 SWAP6 SWAP5 SWAP4 SWAP3 LT PUSH2 0x4FA JUMPI JUMPDEST POP POP POP DUP2 SHL ADD SWAP1 SSTORE PUSH2 0x27A JUMP JUMPDEST ADD CALLDATALOAD PUSH1 0x0 NOT PUSH1 0x3 DUP5 SWAP1 SHL PUSH1 0xF8 AND SHR NOT AND SWAP1 SSTORE CODESIZE DUP1 DUP1 PUSH2 0x4ED JUMP JUMPDEST SWAP2 SWAP4 PUSH1 0x20 PUSH1 0x1 DUP2 SWAP3 DUP8 DUP8 ADD CALLDATALOAD DUP2 SSTORE ADD SWAP6 ADD SWAP3 ADD PUSH2 0x4D7 JUMP JUMPDEST SWAP1 POP DUP5 ADD CALLDATALOAD CODESIZE PUSH2 0x210 JUMP JUMPDEST SWAP1 POP PUSH1 0x1 DUP10 ADD PUSH1 0x0 MSTORE PUSH1 0x20 PUSH1 0x0 KECCAK256 SWAP1 PUSH1 0x0 JUMPDEST PUSH1 0x1F NOT DUP7 AND DUP2 LT PUSH2 0x58D JUMPI POP DUP5 PUSH1 0x1F NOT DUP2 AND LT PUSH2 0x573 JUMPI JUMPDEST POP POP PUSH1 0x1 DUP4 DUP2 SHL ADD PUSH1 0x1 DUP10 ADD SSTORE PUSH2 0x227 JUMP JUMPDEST DUP6 ADD CALLDATALOAD PUSH1 0x0 NOT PUSH1 0x3 DUP7 SWAP1 SHL PUSH1 0xF8 AND SHR NOT AND SWAP1 SSTORE CODESIZE DUP1 PUSH2 0x561 JUMP JUMPDEST SWAP1 SWAP2 PUSH1 0x20 PUSH1 0x1 DUP2 SWAP3 DUP6 DUP11 ADD CALLDATALOAD DUP2 SSTORE ADD SWAP4 ADD SWAP2 ADD PUSH2 0x549 JUMP JUMPDEST SWAP1 POP DUP11 ADD CALLDATALOAD CODESIZE PUSH2 0x1BE JUMP JUMPDEST PUSH1 0x0 DUP11 DUP2 MSTORE PUSH1 0x20 DUP2 KECCAK256 SWAP3 POP JUMPDEST DUP13 PUSH1 0x1F NOT DUP12 AND DUP3 LT PUSH2 0x5FF JUMPI POP POP DUP9 PUSH1 0x1F NOT DUP2 AND LT PUSH2 0x5E5 JUMPI JUMPDEST POP POP PUSH1 0x1 DUP8 DUP2 SHL ADD DUP9 SSTORE PUSH2 0x1D2 JUMP JUMPDEST DUP12 ADD CALLDATALOAD PUSH1 0x0 NOT PUSH1 0x3 DUP11 SWAP1 SHL PUSH1 0xF8 AND SHR NOT AND SWAP1 SSTORE CODESIZE DUP1 PUSH2 0x5D6 JUMP JUMPDEST PUSH1 0x1 DUP4 SWAP5 PUSH1 0x20 SWAP4 SWAP5 DUP5 SWAP4 ADD CALLDATALOAD DUP2 SSTORE ADD SWAP4 ADD SWAP2 ADD PUSH2 0x5BC JUMP JUMPDEST PUSH1 0x40 MLOAD PUSH3 0x461BCD PUSH1 0xE5 SHL DUP2 MSTORE PUSH1 0x20 PUSH1 0x4 DUP3 ADD MSTORE PUSH1 0x18 PUSH1 0x24 DUP3 ADD MSTORE PUSH32 0x4D696E69737472792063616E6E6F7420626520656D7074790000000000000000 PUSH1 0x44 DUP3 ADD MSTORE PUSH1 0x64 SWAP1 REVERT JUMPDEST PUSH1 0x40 MLOAD PUSH3 0x461BCD PUSH1 0xE5 SHL DUP2 MSTORE PUSH1 0x20 PUSH1 0x4 DUP3 ADD MSTORE PUSH1 0x1F PUSH1 0x24 DUP3 ADD MSTORE PUSH32 0x46756C6C20706F6C6963792055524C2063616E6E6F7420626520656D70747900 PUSH1 0x44 DUP3 ADD MSTORE PUSH1 0x64 SWAP1 REVERT JUMPDEST PUSH1 0x40 MLOAD PUSH3 0x461BCD PUSH1 0xE5 SHL DUP2 MSTORE PUSH1 0x20 PUSH1 0x4 DUP3 ADD MSTORE PUSH1 0x1F PUSH1 0x24 DUP3 ADD MSTORE PUSH32 0x4465736372697074696F6E204349442063616E6E6F7420626520656D70747900 PUSH1 0x44 DUP3 ADD MSTORE PUSH1 0x64 SWAP1 REVERT JUMPDEST PUSH1 0x40 MLOAD PUSH3 0x461BCD PUSH1 0xE5 SHL DUP2 MSTORE PUSH1 0x20 PUSH1 0x4 DUP3 ADD MSTORE PUSH1 0x14 PUSH1 0x24 DUP3 ADD MSTORE PUSH20 0x4E616D652063616E6E6F7420626520656D707479 PUSH1 0x60 SHL PUSH1 0x44 DUP3 ADD MSTORE PUSH1 0x64 SWAP1 REVERT JUMPDEST PUSH2 0x744 SWAP2 POP PUSH1 0x20 RETURNDATASIZE PUSH1 0x20 GT PUSH2 0x74A JUMPI JUMPDEST PUSH2 0x73C DUP2 DUP4 PUSH2 0xF4C JUMP JUMPDEST DUP2 ADD SWAP1 PUSH2 0x1023 JUMP JUMPDEST CODESIZE PUSH2 0x149 JUMP JUMPDEST POP RETURNDATASIZE PUSH2 0x732 JUMP JUMPDEST PUSH1 0x40 MLOAD RETURNDATASIZE PUSH1 0x0 DUP3 RETURNDATACOPY RETURNDATASIZE SWAP1 REVERT JUMPDEST PUSH1 0x0 DUP1 REVERT JUMPDEST CALLVALUE PUSH2 0x75D JUMPI PUSH1 0x0 CALLDATASIZE PUSH1 0x3 NOT ADD SLT PUSH2 0x75D JUMPI PUSH1 0x20 PUSH1 0x1 SLOAD PUSH1 0x40 MLOAD SWAP1 DUP2 MSTORE RETURN JUMPDEST CALLVALUE PUSH2 0x75D JUMPI PUSH1 0x20 PUSH2 0x7A8 PUSH2 0x793 CALLDATASIZE PUSH2 0xFB3 JUMP JUMPDEST SWAP3 SWAP1 DUP2 PUSH1 0x40 MLOAD SWAP4 DUP3 DUP6 DUP1 SWAP5 MLOAD SWAP4 DUP5 SWAP3 ADD PUSH2 0xEBC JUMP JUMPDEST DUP2 ADD PUSH1 0x4 DUP2 MSTORE SUB ADD SWAP1 KECCAK256 DUP1 SLOAD DUP3 LT ISZERO PUSH2 0x75D JUMPI PUSH1 0x20 SWAP2 PUSH2 0x7C7 SWAP2 PUSH2 0xFF5 JUMP JUMPDEST SWAP1 SLOAD PUSH1 0x40 MLOAD SWAP2 PUSH1 0x3 SHL SHR DUP2 MSTORE RETURN JUMPDEST CALLVALUE PUSH2 0x75D JUMPI PUSH1 0x20 PUSH2 0x7E8 PUSH2 0x793 CALLDATASIZE PUSH2 0xFB3 JUMP JUMPDEST DUP2 ADD PUSH1 0x5 DUP2 MSTORE SUB ADD SWAP1 KECCAK256 DUP1 SLOAD DUP3 LT ISZERO PUSH2 0x75D JUMPI PUSH1 0x20 SWAP2 PUSH2 0x7C7 SWAP2 PUSH2 0xFF5 JUMP JUMPDEST CALLVALUE PUSH2 0x75D JUMPI PUSH1 0x20 CALLDATASIZE PUSH1 0x3 NOT ADD SLT PUSH2 0x75D JUMPI PUSH1 0x4 CALLDATALOAD PUSH1 0x1 PUSH1 0x1 PUSH1 0xA0 SHL SUB DUP2 AND SWAP1 DUP2 SWAP1 SUB PUSH2 0x75D JUMPI PUSH1 0x0 MSTORE PUSH1 0x3 PUSH1 0x20 MSTORE PUSH1 0x20 PUSH1 0x40 PUSH1 0x0 KECCAK256 SLOAD PUSH1 0x40 MLOAD SWAP1 DUP2 MSTORE RETURN JUMPDEST CALLVALUE PUSH2 0x75D JUMPI PUSH1 0x60 CALLDATASIZE PUSH1 0x3 NOT ADD SLT PUSH2 0x75D JUMPI PUSH1 0x24 PUSH1 0x1 PUSH1 0x1 PUSH1 0x40 SHL SUB PUSH1 0x4 CALLDATALOAD DUP3 CALLDATALOAD DUP3 DUP2 GT PUSH2 0x75D JUMPI PUSH2 0x87A SWAP1 CALLDATASIZE SWAP1 PUSH1 0x4 ADD PUSH2 0xF04 JUMP JUMPDEST PUSH1 0x0 SLOAD PUSH1 0x40 MLOAD PUSH4 0x1FD3F77 PUSH1 0xE7 SHL DUP2 MSTORE CALLER PUSH1 0x4 DUP3 ADD MSTORE PUSH1 0x20 SWAP7 PUSH1 0x44 CALLDATALOAD SWAP6 SWAP5 SWAP3 SWAP1 SWAP2 SWAP1 PUSH1 0x1 PUSH1 0x1 PUSH1 0xA0 SHL SUB SWAP1 DUP10 SWAP1 DUP4 SWAP1 DUP6 SWAP1 DUP3 SWAP1 DUP6 AND GAS STATICCALL SWAP2 DUP3 ISZERO PUSH2 0x751 JUMPI PUSH2 0x8F8 SWAP3 PUSH2 0x8CD SWAP2 PUSH1 0x0 SWAP2 PUSH2 0xD27 JUMPI POP PUSH2 0x103B JUMP JUMPDEST DUP6 ISZERO ISZERO DUP1 PUSH2 0xD1B JUMPI JUMPDEST PUSH2 0x8DF SWAP1 PUSH2 0x1183 JUMP JUMPDEST DUP6 PUSH1 0x0 MSTORE PUSH1 0x2 DUP10 MSTORE PUSH1 0x5 PUSH1 0x40 PUSH1 0x0 KECCAK256 ADD SLOAD AND ISZERO ISZERO PUSH2 0x1183 JUMP JUMPDEST DUP4 PUSH1 0x0 MSTORE PUSH1 0x2 DUP8 MSTORE PUSH1 0x40 PUSH1 0x0 KECCAK256 SWAP5 PUSH1 0x4 DUP7 ADD PUSH2 0x913 DUP2 PUSH2 0x11C7 JUMP JUMPDEST SWAP3 PUSH1 0x40 MLOAD DUP11 DUP2 DUP7 MLOAD PUSH2 0x928 DUP2 DUP4 DUP6 DUP12 ADD PUSH2 0xEBC JUMP JUMPDEST DUP2 ADD PUSH1 0x5 DUP2 MSTORE SUB ADD SWAP1 KECCAK256 SWAP9 PUSH1 0x0 JUMPDEST DUP11 SLOAD DUP1 DUP3 LT ISZERO PUSH2 0xD0A JUMPI DUP10 SWAP1 PUSH2 0x94C DUP4 DUP15 PUSH2 0xFF5 JUMP JUMPDEST SWAP3 SWAP1 SLOAD PUSH1 0x3 SWAP4 DUP5 SHL SHR EQ PUSH2 0x96A JUMPI POP POP PUSH2 0x965 SWAP1 PUSH2 0x107D JUMP JUMPDEST PUSH2 0x936 JUMP JUMPDEST SWAP1 SWAP3 SWAP4 SWAP5 SWAP6 SWAP7 SWAP8 SWAP9 SWAP10 SWAP11 SWAP12 SWAP2 PUSH1 0x0 NOT SWAP2 DUP3 DUP2 ADD SWAP1 DUP2 GT PUSH2 0xCF5 JUMPI SWAP1 PUSH2 0x9A2 PUSH2 0x995 PUSH2 0x9BB SWAP4 DUP7 PUSH2 0xFF5 JUMP JUMPDEST SWAP1 SLOAD SWAP1 DUP8 SHL SHR SWAP2 DUP6 PUSH2 0xFF5 JUMP JUMPDEST SWAP1 SWAP2 SWAP1 DUP3 SLOAD SWAP1 PUSH1 0x3 SHL SWAP2 DUP3 SHL SWAP2 PUSH1 0x0 NOT SWAP1 SHL NOT AND OR SWAP1 SSTORE JUMP JUMPDEST DUP2 SLOAD DUP1 ISZERO PUSH2 0xCE0 JUMPI DUP2 ADD SWAP3 PUSH2 0x9D0 DUP5 DUP5 PUSH2 0xFF5 JUMP JUMPDEST DUP2 SWAP4 SWAP2 SLOAD SWAP3 SHL SHL NOT AND SWAP1 SSTORE SSTORE JUMPDEST DUP7 GT PUSH2 0xCCC JUMPI POP PUSH2 0x9F8 DUP6 PUSH2 0x9F2 DUP4 SLOAD PUSH2 0x10A2 JUMP JUMPDEST DUP4 PUSH2 0x10F3 JUMP JUMPDEST PUSH1 0x0 PUSH1 0x1F DUP7 GT PUSH1 0x1 EQ PUSH2 0xC3C JUMPI SWAP3 PUSH1 0x7 SWAP3 PUSH32 0xAD2E1DFC6994AEEAF151FA20C453BAC06D98C011752A28EDADB877AD0F077CF7 SWAP8 SWAP9 SWAP3 DUP8 PUSH2 0xB47 SWAP7 PUSH1 0x0 SWAP2 PUSH2 0xC31 JUMPI JUMPDEST POP DUP9 PUSH1 0x1 SHL SWAP1 PUSH1 0x0 NOT DUP11 PUSH1 0x3 SHL SHR NOT AND OR SWAP1 SSTORE JUMPDEST TIMESTAMP PUSH1 0x8 DUP5 ADD SSTORE DUP1 PUSH2 0xC27 JUMPI JUMPDEST POP PUSH2 0xA78 DUP9 PUSH1 0x40 MLOAD DUP9 DUP9 DUP3 CALLDATACOPY DUP12 DUP2 DUP11 DUP2 ADD PUSH1 0x5 DUP2 MSTORE SUB ADD SWAP1 KECCAK256 PUSH2 0x113A JUMP JUMPDEST PUSH32 0xDB6D55A48C634FDFE68DA24C01559762C293198F8322E1FED7CA8976FC4ED260 PUSH2 0xAA4 CALLDATASIZE DUP9 DUP9 PUSH2 0xF6D JUMP JUMPDEST DUP11 DUP2 MLOAD SWAP2 ADD KECCAK256 PUSH6 0x414354495645 PUSH1 0xD0 SHL DUP12 PUSH1 0x40 MLOAD PUSH2 0xAC1 DUP2 PUSH2 0xF31 JUMP JUMPDEST PUSH1 0x6 DUP2 MSTORE ADD MSTORE EQ DUP1 PUSH2 0xC1A JUMPI JUMPDEST ISZERO PUSH2 0xB53 JUMPI PUSH1 0xB DUP3 ADD DUP1 SLOAD PUSH1 0xFF NOT AND PUSH1 0x1 OR SWAP1 SSTORE JUMPDEST DUP8 PUSH32 0x7349E505864221FCF2768BF72491E152FEDC76F5D0A627184F0FDACE25D15207 PUSH2 0xB1A PUSH1 0x40 MLOAD SWAP4 PUSH1 0x40 DUP6 MSTORE PUSH1 0x40 DUP6 ADD SWAP1 PUSH2 0xEDF JUMP JUMPDEST SWAP3 DUP1 DUP5 SUB DUP13 DUP3 ADD MSTORE DUP1 PUSH2 0xB2F CALLER SWAP6 DUP12 DUP12 PUSH2 0x1162 JUMP JUMPDEST SUB SWAP1 LOG3 ADD SLOAD SWAP2 PUSH1 0x40 MLOAD SWAP4 PUSH1 0x40 DUP6 MSTORE PUSH1 0x40 DUP6 ADD SWAP2 PUSH2 0x1162 JUMP JUMPDEST SWAP5 DUP3 ADD MSTORE DUP1 CALLER SWAP5 SUB SWAP1 LOG3 STOP JUMPDEST PUSH32 0xE71C910D536B61FCEF69518C42A88C159E7AF67BB3870C8551C6D0C8616EA97 PUSH2 0xB7F CALLDATASIZE DUP9 DUP9 PUSH2 0xF6D JUMP JUMPDEST DUP11 DUP2 MLOAD SWAP2 ADD KECCAK256 PUSH8 0x494E414354495645 PUSH1 0xC0 SHL DUP12 PUSH1 0x40 MLOAD PUSH2 0xB9E DUP2 PUSH2 0xF31 JUMP JUMPDEST PUSH1 0x8 DUP2 MSTORE ADD MSTORE EQ DUP1 ISZERO PUSH2 0xBC2 JUMPI JUMPDEST ISZERO PUSH2 0xAE3 JUMPI PUSH1 0xB DUP3 ADD DUP1 SLOAD PUSH1 0xFF NOT AND SWAP1 SSTORE PUSH2 0xAE3 JUMP JUMPDEST POP PUSH32 0xE6C285292CAB7E0CAA931A7E4E62E4B31622725235F51DCA3C4727D29D299083 PUSH2 0xBEF CALLDATASIZE DUP9 DUP9 PUSH2 0xF6D JUMP JUMPDEST DUP11 DUP2 MLOAD SWAP2 ADD KECCAK256 PUSH8 0x105490D212559151 PUSH1 0xC2 SHL DUP12 PUSH1 0x40 MLOAD PUSH2 0xC0E DUP2 PUSH2 0xF31 JUMP JUMPDEST PUSH1 0x8 DUP2 MSTORE ADD MSTORE EQ PUSH2 0xBAC JUMP JUMPDEST POP TIMESTAMP DUP4 DUP4 ADD SLOAD GT ISZERO PUSH2 0xACE JUMP JUMPDEST DUP4 DUP4 ADD SSTORE DUP10 PUSH2 0xA5A JUMP JUMPDEST SWAP1 POP DUP8 ADD CALLDATALOAD DUP13 PUSH2 0xA3A JUMP JUMPDEST PUSH1 0x1F NOT DUP7 AND SWAP1 DUP3 PUSH1 0x0 MSTORE DUP10 PUSH1 0x0 KECCAK256 SWAP2 PUSH1 0x0 JUMPDEST DUP12 DUP3 DUP3 LT PUSH2 0xCB6 JUMPI POP POP SWAP3 PUSH2 0xB47 SWAP6 SWAP3 PUSH1 0x7 SWAP6 SWAP3 DUP10 PUSH32 0xAD2E1DFC6994AEEAF151FA20C453BAC06D98C011752A28EDADB877AD0F077CF7 SWAP12 SWAP13 SWAP7 LT PUSH2 0xC9C JUMPI JUMPDEST POP POP PUSH1 0x1 DUP9 DUP2 SHL ADD SWAP1 SSTORE PUSH2 0xA4E JUMP JUMPDEST DUP9 ADD CALLDATALOAD PUSH1 0x0 NOT PUSH1 0x3 DUP12 SWAP1 SHL PUSH1 0xF8 AND SHR NOT AND SWAP1 SSTORE DUP12 DUP1 PUSH2 0xC8D JUMP JUMPDEST PUSH1 0x1 DUP5 SWAP6 DUP3 SWAP4 SWAP6 DUP12 ADD CALLDATALOAD DUP2 SSTORE ADD SWAP5 ADD SWAP3 ADD PUSH2 0xC4E JUMP JUMPDEST PUSH4 0x4E487B71 PUSH1 0xE0 SHL PUSH1 0x0 SWAP1 DUP2 MSTORE PUSH1 0x41 PUSH1 0x4 MSTORE REVERT JUMPDEST DUP6 PUSH4 0x4E487B71 PUSH1 0xE0 SHL PUSH1 0x0 MSTORE PUSH1 0x31 PUSH1 0x4 MSTORE PUSH1 0x0 REVERT JUMPDEST DUP7 PUSH4 0x4E487B71 PUSH1 0xE0 SHL PUSH1 0x0 MSTORE PUSH1 0x11 PUSH1 0x4 MSTORE PUSH1 0x0 REVERT JUMPDEST POP POP SWAP1 SWAP2 SWAP3 SWAP4 SWAP5 SWAP6 SWAP7 SWAP8 SWAP9 POP PUSH2 0x9DD JUMP JUMPDEST POP PUSH1 0x1 SLOAD DUP7 GT ISZERO PUSH2 0x8D6 JUMP JUMPDEST PUSH2 0xD3E SWAP2 POP DUP12 RETURNDATASIZE DUP14 GT PUSH2 0x74A JUMPI PUSH2 0x73C DUP2 DUP4 PUSH2 0xF4C JUMP JUMPDEST DUP12 PUSH2 0x149 JUMP JUMPDEST CALLVALUE PUSH2 0x75D JUMPI PUSH1 0x0 CALLDATASIZE PUSH1 0x3 NOT ADD SLT PUSH2 0x75D JUMPI PUSH1 0x0 SLOAD PUSH1 0x40 MLOAD PUSH1 0x1 PUSH1 0x1 PUSH1 0xA0 SHL SUB SWAP1 SWAP2 AND DUP2 MSTORE PUSH1 0x20 SWAP1 RETURN JUMPDEST CALLVALUE PUSH2 0x75D JUMPI PUSH1 0x20 CALLDATASIZE PUSH1 0x3 NOT ADD SLT PUSH2 0x75D JUMPI PUSH1 0x4 CALLDATALOAD DUP1 ISZERO ISZERO DUP1 PUSH2 0xEB0 JUMPI JUMPDEST PUSH2 0xD93 SWAP1 PUSH2 0x1183 JUMP JUMPDEST PUSH1 0x0 DUP2 DUP2 MSTORE PUSH1 0x2 PUSH1 0x20 MSTORE PUSH1 0x40 SWAP1 KECCAK256 PUSH1 0x5 ADD SLOAD PUSH1 0x1 PUSH1 0x1 PUSH1 0xA0 SHL SUB SWAP2 SWAP1 PUSH2 0xDBC SWAP1 DUP4 AND ISZERO ISZERO PUSH2 0x1183 JUMP JUMPDEST PUSH1 0x0 MSTORE PUSH1 0x2 PUSH1 0x20 MSTORE PUSH1 0x40 PUSH1 0x0 KECCAK256 SWAP1 PUSH1 0x5 DUP3 ADD SLOAD AND PUSH1 0x6 DUP3 ADD SLOAD SWAP1 PUSH1 0x7 DUP4 ADD SLOAD PUSH1 0x8 DUP5 ADD SLOAD PUSH1 0xA DUP6 ADD SLOAD SWAP1 PUSH1 0xB DUP7 ADD SLOAD PUSH1 0xFF AND SWAP3 PUSH2 0xDF8 DUP8 PUSH2 0x11C7 JUMP JUMPDEST SWAP6 PUSH2 0xE05 PUSH1 0x1 DUP10 ADD PUSH2 0x11C7 JUMP JUMPDEST SWAP8 PUSH2 0xE12 PUSH1 0x2 DUP3 ADD PUSH2 0x11C7 JUMP JUMPDEST SWAP1 PUSH2 0xE1F PUSH1 0x3 DUP3 ADD PUSH2 0x11C7 JUMP JUMPDEST SWAP1 PUSH1 0x4 ADD PUSH2 0xE2C SWAP1 PUSH2 0x11C7 JUMP JUMPDEST SWAP2 PUSH1 0x40 MLOAD SWAP11 DUP12 SWAP11 PUSH2 0x160 DUP1 DUP14 MSTORE DUP13 ADD PUSH2 0xE44 SWAP2 PUSH2 0xEDF JUMP JUMPDEST DUP12 DUP2 SUB PUSH1 0x20 DUP14 ADD MSTORE PUSH2 0xE55 SWAP2 PUSH2 0xEDF JUMP JUMPDEST DUP11 DUP2 SUB PUSH1 0x40 DUP13 ADD MSTORE PUSH2 0xE66 SWAP2 PUSH2 0xEDF JUMP JUMPDEST DUP10 DUP2 SUB PUSH1 0x60 DUP12 ADD MSTORE PUSH2 0xE77 SWAP2 PUSH2 0xEDF JUMP JUMPDEST DUP9 DUP2 SUB PUSH1 0x80 DUP11 ADD MSTORE PUSH2 0xE88 SWAP2 PUSH2 0xEDF JUMP JUMPDEST SWAP6 PUSH1 0xA0 DUP9 ADD MSTORE PUSH1 0xC0 DUP8 ADD MSTORE PUSH1 0xE0 DUP7 ADD MSTORE PUSH2 0x100 DUP6 ADD MSTORE PUSH2 0x120 DUP5 ADD MSTORE ISZERO ISZERO PUSH2 0x140 DUP4 ADD MSTORE SUB SWAP1 RETURN JUMPDEST POP PUSH1 0x1 SLOAD DUP2 GT ISZERO PUSH2 0xD8A JUMP JUMPDEST PUSH1 0x0 JUMPDEST DUP4 DUP2 LT PUSH2 0xECF JUMPI POP POP PUSH1 0x0 SWAP2 ADD MSTORE JUMP JUMPDEST DUP2 DUP2 ADD MLOAD DUP4 DUP3 ADD MSTORE PUSH1 0x20 ADD PUSH2 0xEBF JUMP JUMPDEST SWAP1 PUSH1 0x20 SWAP2 PUSH2 0xEF8 DUP2 MLOAD DUP1 SWAP3 DUP2 DUP6 MSTORE DUP6 DUP1 DUP7 ADD SWAP2 ADD PUSH2 0xEBC JUMP JUMPDEST PUSH1 0x1F ADD PUSH1 0x1F NOT AND ADD ADD SWAP1 JUMP JUMPDEST SWAP2 DUP2 PUSH1 0x1F DUP5 ADD SLT ISZERO PUSH2 0x75D JUMPI DUP3 CALLDATALOAD SWAP2 PUSH1 0x1 PUSH1 0x1 PUSH1 0x40 SHL SUB DUP4 GT PUSH2 0x75D JUMPI PUSH1 0x20 DUP4 DUP2 DUP7 ADD SWAP6 ADD ADD GT PUSH2 0x75D JUMPI JUMP JUMPDEST PUSH1 0x40 DUP2 ADD SWAP1 DUP2 LT PUSH1 0x1 PUSH1 0x1 PUSH1 0x40 SHL SUB DUP3 GT OR PUSH2 0x4A0 JUMPI PUSH1 0x40 MSTORE JUMP JUMPDEST SWAP1 PUSH1 0x1F DUP1 NOT SWAP2 ADD AND DUP2 ADD SWAP1 DUP2 LT PUSH1 0x1 PUSH1 0x1 PUSH1 0x40 SHL SUB DUP3 GT OR PUSH2 0x4A0 JUMPI PUSH1 0x40 MSTORE JUMP JUMPDEST SWAP3 SWAP2 SWAP3 PUSH1 0x1 PUSH1 0x1 PUSH1 0x40 SHL SUB DUP3 GT PUSH2 0x4A0 JUMPI PUSH1 0x40 MLOAD SWAP2 PUSH2 0xF96 PUSH1 0x1F DUP3 ADD PUSH1 0x1F NOT AND PUSH1 0x20 ADD DUP5 PUSH2 0xF4C JUMP JUMPDEST DUP3 SWAP5 DUP2 DUP5 MSTORE DUP2 DUP4 ADD GT PUSH2 0x75D JUMPI DUP3 DUP2 PUSH1 0x20 SWAP4 DUP5 PUSH1 0x0 SWAP7 ADD CALLDATACOPY ADD ADD MSTORE JUMP JUMPDEST PUSH1 0x40 PUSH1 0x3 NOT DUP3 ADD SLT PUSH2 0x75D JUMPI PUSH1 0x4 CALLDATALOAD SWAP1 PUSH1 0x1 PUSH1 0x1 PUSH1 0x40 SHL SUB DUP3 GT PUSH2 0x75D JUMPI DUP1 PUSH1 0x23 DUP4 ADD SLT ISZERO PUSH2 0x75D JUMPI DUP2 PUSH1 0x24 PUSH2 0xFEE SWAP4 PUSH1 0x4 ADD CALLDATALOAD SWAP2 ADD PUSH2 0xF6D JUMP JUMPDEST SWAP1 PUSH1 0x24 CALLDATALOAD SWAP1 JUMP JUMPDEST DUP1 SLOAD DUP3 LT ISZERO PUSH2 0x100D JUMPI PUSH1 0x0 MSTORE PUSH1 0x20 PUSH1 0x0 KECCAK256 ADD SWAP1 PUSH1 0x0 SWAP1 JUMP JUMPDEST PUSH4 0x4E487B71 PUSH1 0xE0 SHL PUSH1 0x0 MSTORE PUSH1 0x32 PUSH1 0x4 MSTORE PUSH1 0x24 PUSH1 0x0 REVERT JUMPDEST SWAP1 DUP2 PUSH1 0x20 SWAP2 SUB SLT PUSH2 0x75D JUMPI MLOAD DUP1 ISZERO ISZERO DUP2 SUB PUSH2 0x75D JUMPI SWAP1 JUMP JUMPDEST ISZERO PUSH2 0x1042 JUMPI JUMP JUMPDEST PUSH1 0x40 MLOAD PUSH3 0x461BCD PUSH1 0xE5 SHL DUP2 MSTORE PUSH1 0x20 PUSH1 0x4 DUP3 ADD MSTORE PUSH1 0x13 PUSH1 0x24 DUP3 ADD MSTORE PUSH19 0x155CD95C881B9BDD08185D5D1A1BDC9A5E9959 PUSH1 0x6A SHL PUSH1 0x44 DUP3 ADD MSTORE PUSH1 0x64 SWAP1 REVERT JUMPDEST PUSH1 0x0 NOT DUP2 EQ PUSH2 0x108C JUMPI PUSH1 0x1 ADD SWAP1 JUMP JUMPDEST PUSH4 0x4E487B71 PUSH1 0xE0 SHL PUSH1 0x0 MSTORE PUSH1 0x11 PUSH1 0x4 MSTORE PUSH1 0x24 PUSH1 0x0 REVERT JUMPDEST SWAP1 PUSH1 0x1 DUP3 DUP2 SHR SWAP3 AND DUP1 ISZERO PUSH2 0x10D2 JUMPI JUMPDEST PUSH1 0x20 DUP4 LT EQ PUSH2 0x10BC JUMPI JUMP JUMPDEST PUSH4 0x4E487B71 PUSH1 0xE0 SHL PUSH1 0x0 MSTORE PUSH1 0x22 PUSH1 0x4 MSTORE PUSH1 0x24 PUSH1 0x0 REVERT JUMPDEST SWAP2 PUSH1 0x7F AND SWAP2 PUSH2 0x10B1 JUMP JUMPDEST DUP2 DUP2 LT PUSH2 0x10E7 JUMPI POP POP JUMP JUMPDEST PUSH1 0x0 DUP2 SSTORE PUSH1 0x1 ADD PUSH2 0x10DC JUMP JUMPDEST SWAP2 SWAP1 PUSH1 0x1F DUP2 GT PUSH2 0x1102 JUMPI POP POP POP JUMP JUMPDEST PUSH2 0x112E SWAP3 PUSH1 0x0 MSTORE PUSH1 0x20 PUSH1 0x0 KECCAK256 SWAP1 PUSH1 0x20 PUSH1 0x1F DUP5 ADD PUSH1 0x5 SHR DUP4 ADD SWAP4 LT PUSH2 0x1130 JUMPI JUMPDEST PUSH1 0x1F ADD PUSH1 0x5 SHR ADD SWAP1 PUSH2 0x10DC JUMP JUMPDEST JUMP JUMPDEST SWAP1 SWAP2 POP DUP2 SWAP1 PUSH2 0x1121 JUMP JUMPDEST SWAP1 DUP2 SLOAD SWAP2 PUSH9 0x10000000000000000 DUP4 LT ISZERO PUSH2 0x4A0 JUMPI DUP3 PUSH2 0x9A2 SWAP2 PUSH1 0x1 PUSH2 0x112E SWAP6 ADD DUP2 SSTORE PUSH2 0xFF5 JUMP JUMPDEST SWAP1 DUP1 PUSH1 0x20 SWAP4 SWAP3 DUP2 DUP5 MSTORE DUP5 DUP5 ADD CALLDATACOPY PUSH1 0x0 DUP3 DUP3 ADD DUP5 ADD MSTORE PUSH1 0x1F ADD PUSH1 0x1F NOT AND ADD ADD SWAP1 JUMP JUMPDEST ISZERO PUSH2 0x118A JUMPI JUMP JUMPDEST PUSH1 0x40 MLOAD PUSH3 0x461BCD PUSH1 0xE5 SHL DUP2 MSTORE PUSH1 0x20 PUSH1 0x4 DUP3 ADD MSTORE PUSH1 0x15 PUSH1 0x24 DUP3 ADD MSTORE PUSH21 0x141BDB1A58DE48191BD95CC81B9BDD08195E1A5CDD PUSH1 0x5A SHL PUSH1 0x44 DUP3 ADD MSTORE PUSH1 0x64 SWAP1 REVERT JUMPDEST SWAP1 PUSH1 0x40 MLOAD SWAP2 DUP3 PUSH1 0x0 DUP3 SLOAD SWAP3 PUSH2 0x11DB DUP5 PUSH2 0x10A2 JUMP JUMPDEST SWAP1 DUP2 DUP5 MSTORE PUSH1 0x1 SWAP5 DUP6 DUP2 AND SWAP1 DUP2 PUSH1 0x0 EQ PUSH2 0x1248 JUMPI POP PUSH1 0x1 EQ PUSH2 0x1205 JUMPI JUMPDEST POP POP PUSH2 0x112E SWAP3 POP SUB DUP4 PUSH2 0xF4C JUMP JUMPDEST SWAP1 SWAP4 SWAP2 POP PUSH1 0x0 MSTORE PUSH1 0x20 SWAP1 DUP2 PUSH1 0x0 KECCAK256 SWAP4 PUSH1 0x0 SWAP2 JUMPDEST DUP2 DUP4 LT PUSH2 0x1230 JUMPI POP POP PUSH2 0x112E SWAP4 POP DUP3 ADD ADD CODESIZE DUP1 PUSH2 0x11F7 JUMP JUMPDEST DUP6 SLOAD DUP9 DUP5 ADD DUP6 ADD MSTORE SWAP5 DUP6 ADD SWAP5 DUP8 SWAP5 POP SWAP2 DUP4 ADD SWAP2 PUSH2 0x1218 JUMP JUMPDEST SWAP2 POP POP PUSH2 0x112E SWAP5 POP PUSH1 0x20 SWAP3 POP PUSH1 0xFF NOT AND DUP3 DUP5 ADD MSTORE ISZERO ISZERO PUSH1 0x5 SHL DUP3 ADD ADD CODESIZE DUP1 PUSH2 0x11F7 JUMP INVALID LOG2 PUSH5 0x6970667358 0x22 SLT KECCAK256 PUSH12 0xC3F6F55F7BBA43FBE7587ABF 0xFC DUP5 0xC3 SWAP4 NOT 0xE6 0xEA MLOAD SAR CODESIZE 0xCA 0xBF 0xEA 0xE4 SWAP14 CALLCODE DUP9 CODECOPY 0xAA PUSH5 0x736F6C6343 STOP ADDMOD EQ STOP CALLER "},"methodIdentifiers":{"authRegistry()":"629e025a","createPolicy(string,string,string,string,uint256)":"f5c2d186","getPolicy(uint256)":"2b07fce3","lastCreatedAt(address)":"b94afa71","policiesByMinistry(string,uint256)":"c29f42e9","policiesByStatus(string,uint256)":"be0973b1","policyCount()":"de54d429","updatePolicyStatus(uint256,string,uint256)":"8f03ad6e"}}}}}