{"contracts/petition/petitions.sol":{"Petitions":{"abi":[{"inputs":[{"internalType":"address","name":"_authRegistry","type":"address"}],"stateMutability":"nonpayable","type":"constructor"},{"anonymous":false,"inputs":[{"indexed":true,"internalType":"uint256","name":"petitionId","type":"uint256"}],"name":"PetitionCompleted","type":"event"},{"anonymous":false,"inputs":[{"indexed":true,"internalType":"uint256","name":"petitionId","type":"uint256"},{"indexed":true,"internalType":"address","name":"creator","type":"address"},{"indexed":false,"internalType":"string","name":"titleCid","type":"string"},{"indexed":false,"internalType":"string","name":"desCid","type":"string"},{"indexed":false,"internalType":"uint256","name":"signaturesRequired","type":"uint256"}],"name":"PetitionCreated","type":"event"},{"anonymous":false,"inputs":[{"indexed":true,"internalType":"uint256","name":"petitionId","type":"uint256"},{"indexed":true,"internalType":"address","name":"signer","type":"address"}],"name":"PetitionSigned","type":"event"},{"inputs":[],"name":"authRegistry","outputs":[{"internalType":"contract IAuthRegistry","name":"","type":"address"}],"stateMutability":"view","type":"function"},{"inputs":[{"internalType":"string","name":"titleCid","type":"string"},{"internalType":"string","name":"desCid","type":"string"},{"internalType":"uint256","name":"signaturesRequired","type":"uint256"}],"name":"createPetition","outputs":[{"internalType":"uint256","name":"","type":"uint256"}],"stateMutability":"nonpayable","type":"function"},{"inputs":[{"internalType":"uint256","name":"petitionId","type":"uint256"}],"name":"getPetition","outputs":[{"internalType":"string","name":"titleCid","type":"string"},{"internalType":"string","name":"desCid","type":"string"},{"internalType":"uint256","name":"signaturesRequired","type":"uint256"},{"internalType":"uint256","name":"signaturesCount","type":"uint256"},{"internalType":"address","name":"creator","type":"address"},{"internalType":"bool","name":"completed","type":"bool"}],"stateMutability":"view","type":"function"},{"inputs":[{"internalType":"uint256","name":"petitionId","type":"uint256"},{"internalType":"address","name":"user","type":"address"}],"name":"hasSigned","outputs":[{"internalType":"bool","name":"","type":"bool"}],"stateMutability":"view","type":"function"},{"inputs":[{"internalType":"address","name":"","type":"address"}],"name":"lastCreatedAt","outputs":[{"internalType":"uint256","name":"","type":"uint256"}],"stateMutability":"view","type":"function"},{"inputs":[],"name":"petitionCount","outputs":[{"internalType":"uint256","name":"","type":"uint256"}],"stateMutability":"view","type":"function"},{"inputs":[{"internalType":"uint256","name":"petitionId","type":"uint256"}],"name":"signPetition","outputs":[],"stateMutability":"nonpayable","type":"function"}],"evm":{"bytecode":{"linkReferences":{},"object":"6080346100cb57601f610c2238819003918201601f19168301916001600160401b038311848410176100d0578084926020946040528339810103126100cb57516001600160a01b038116908190036100cb57801561007a57600080546001600160a01b031916919091179055604051610b3b90816100e78239f35b60405162461bcd60e51b8152602060048201526024808201527f4175746820726567697374727920616464726573732063616e6e6f74206265206044820152637a65726f60e01b6064820152608490fd5b600080fd5b634e487b7160e01b600052604160045260246000fdfe6080604052600436101561001257600080fd5b60003560e01c80630c90ce421461081b57806361ab1f09146107fd578063629e025a146107d4578063709df8d91461076d578063990627ec146102aa578063b94afa711461026c5763dcad01801461006957600080fd5b3461026757602080600319360112610267576004359060018060a01b03906024818360005416604051928380926301fd3f7760e71b82523360048301525afa801561025b576100c09160009161022e575b50610967565b82600052600281526040600020906004820192835460ff8160a01c166101e9576100ec91161515610a13565b60058201903360005281815260ff604060002054166101975733600052526040600020600160ff198254161790556002600382019161012b83546109a9565b80935533857fa24773234734fa56d66ce98fb6d0c8e4b38c3ce67e8a0cfa10756d0909ba4ed2600080a30154111561015f57005b805460ff60a01b1916600160a01b1790557f57b2843ccf810ad84ecfebb6a0e6886490e559e0980a3656f8e16ceac99f9152600080a2005b6084906040519062461bcd60e51b82526004820152602560248201527f596f75206861766520616c7265616479207369676e656420746869732070657460448201526434ba34b7b760d91b6064820152fd5b60405162461bcd60e51b815260048101849052601a60248201527f5065746974696f6e20616c726561647920636f6d706c657465640000000000006044820152606490fd5b61024e9150833d8511610254575b610246818361092d565b81019061094f565b386100ba565b503d61023c565b6040513d6000823e3d90fd5b600080fd5b34610267576020366003190112610267576004356001600160a01b038116908190036102675760005260036020526020604060002054604051908152f35b346102675760603660031901126102675760043567ffffffffffffffff8111610267576102db9036906004016108ff565b9060243567ffffffffffffffff8111610267576102fc9036906004016108ff565b6000546040516301fd3f7760e71b815233600482015292949290602090829060249082906001600160a01b03165afa801561025b576103429160009161074e5750610967565b33600052600360205260406000205462093a8081018091116107385742106106e15760443515610686576103776001546109a9565b9283600155836000526002602052604060002067ffffffffffffffff84116105bc576103a381546109b8565b601f8111610642575b50836000601f82116001146105dd576000916105d2575b508460011b906000198660031b1c19161781555b67ffffffffffffffff83116105bc576103f360018201546109b8565b601f8111610575575b50916020959185936000601f84116001146104da577f98acdb43185fdb133376bd108d5907728ba783ab8330e33f6f8ae0895c5c788194926000600386946104b8976104ab9584916104cf575b508660011b90841988851b1c19161760018201555b604435600282015560048101805460ff60a01b193316906affffffffffffffffffffff60a81b1617905501553360005260038a5242604060002055604051976060895260608901916109f2565b91868303898801526109f2565b9260443560408201528033940390a3604051908152f35b90508701358e610449565b60018201600052886000209060005b601f198616811061055b5750926000600386946104ab947f98acdb43185fdb133376bd108d5907728ba783ab8330e33f6f8ae0895c5c788199976104b899601f19811610610544575b5050600186811b01600182015561045e565b880135841988851b60f8161c191690558d80610532565b818701358355899750600190920191908a01908a016104e9565b600182016000526020600020601f850160051c8101602086106105b5575b601f830160051c820181106105a95750506103fc565b60008155600101610593565b5080610593565b634e487b7160e01b600052604160045260246000fd5b9050820135876103c3565b60008381526020812092505b601f198716811061062a575085601f19811610610610575b5050600184811b0181556103d7565b830135600019600387901b60f8161c191690558680610601565b909160206001819285880135815501930191016105e9565b816000526020600020601f860160051c81016020871061067f575b601f830160051c820181106106735750506103ac565b6000815560010161065d565b508061065d565b60405162461bcd60e51b815260206004820152602d60248201527f5369676e617475726573207265717569726564206d757374206265206772656160448201526c746572207468616e207a65726f60981b6064820152608490fd5b60405162461bcd60e51b815260206004820152602960248201527f596f752063616e206f6e6c7920637265617465206f6e65207065746974696f6e60448201526820706572207765656b60b81b6064820152608490fd5b634e487b7160e01b600052601160045260246000fd5b610767915060203d60201161025457610246818361092d565b866100ba565b34610267576040366003190112610267576024356001600160a01b03818116918290036102675760059160043560005260026020526107b86040600020926004840154161515610a13565b60005201602052602060ff604060002054166040519015158152f35b34610267576000366003190112610267576000546040516001600160a01b039091168152602090f35b34610267576000366003190112610267576020600154604051908152f35b346102675760203660031901126102675760043560005260026020526108926040600020600481015460ff60018060a01b0382169161085b831515610a13565b60028401549260038501546108a061087e600161087789610a5f565b9801610a5f565b60405198899860c08a5260c08a01906108bf565b9088820360208a01526108bf565b9460408701526060860152608085015260a01c16151560a08301520390f35b919082519283825260005b8481106108eb575050826000602080949584010152601f8019910116010190565b6020818301810151848301820152016108ca565b9181601f840112156102675782359167ffffffffffffffff8311610267576020838186019501011161026757565b90601f8019910116810190811067ffffffffffffffff8211176105bc57604052565b90816020910312610267575180151581036102675790565b1561096e57565b60405162461bcd60e51b8152602060048201526013602482015272155cd95c881b9bdd08185d5d1a1bdc9a5e9959606a1b6044820152606490fd5b60001981146107385760010190565b90600182811c921680156109e8575b60208310146109d257565b634e487b7160e01b600052602260045260246000fd5b91607f16916109c7565b908060209392818452848401376000828201840152601f01601f1916010190565b15610a1a57565b60405162461bcd60e51b815260206004820152601760248201527f5065746974696f6e20646f6573206e6f742065786973740000000000000000006044820152606490fd5b9060405191826000825492610a73846109b8565b908184526001948581169081600014610ae25750600114610a9f575b5050610a9d9250038361092d565b565b9093915060005260209081600020936000915b818310610aca575050610a9d93508201013880610a8f565b85548884018501529485019487945091830191610ab2565b915050610a9d94506020925060ff191682840152151560051b8201013880610a8f56fea26469706673582212208c8903b5127660dcbeaf6574dd64a312caacb7bca77f0bd372bce155eed4936c64736f6c63430008140033","opcodes":"PUSH1 0x80 CALLVALUE PUSH2 0xCB JUMPI PUSH1 0x1F PUSH2 0xC22 CODESIZE DUP2 SWAP1 SUB SWAP2 DUP3 ADD PUSH1 0x1F NOT AND DUP4 ADD SWAP2 PUSH1 0x1 PUSH1 0x1 PUSH1 0x40 SHL SUB DUP4 GT DUP5 DUP5 LT OR PUSH2 0xD0 JUMPI DUP1 DUP5 SWAP3 PUSH1 0x20 SWAP5 PUSH1 0x40 MSTORE DUP4 CODECOPY DUP2 ADD SUB SLT PUSH2 0xCB JUMPI MLOAD PUSH1 0x1 PUSH1 0x1 PUSH1 0xA0 SHL SUB DUP2 AND SWAP1 DUP2 SWAP1 SUB PUSH2 0xCB JUMPI DUP1 ISZERO PUSH2 0x7A JUMPI PUSH1 0x0 DUP1 SLOAD PUSH1 0x1 PUSH1 0x1 PUSH1 0xA0 SHL SUB NOT AND SWAP2 SWAP1 SWAP2 OR SWAP1 SSTORE PUSH1 0x40 MLOAD PUSH2 0xB3B SWAP1 DUP2 PUSH2 0xE7 DUP3 CODECOPY RETURN JUMPDEST PUSH1 0x40 MLOAD PUSH3 0x461BCD PUSH1 0xE5 SHL DUP2 MSTORE PUSH1 0x20 PUSH1 0x4 DUP3 ADD MSTORE PUSH1 0x24 DUP1 DUP3 ADD MSTORE PUSH32 0x4175746820726567697374727920616464726573732063616E6E6F7420626520 PUSH1 0x44 DUP3 ADD MSTORE PUSH4 0x7A65726F PUSH1 0xE0 SHL PUSH1 0x64 DUP3 ADD MSTORE PUSH1 0x84 SWAP1 REVERT JUMPDEST PUSH1 0x0 DUP1 REVERT JUMPDEST PUSH4 0x4E487B71 PUSH1 0xE0 SHL PUSH1 0x0 MSTORE PUSH1 0x41 PUSH1 0x4 MSTORE PUSH1 0x24 PUSH1 0x0 REVERT INVALID PUSH1 0x80 PUSH1 0x40 MSTORE PUSH1 0x4 CALLDATASIZE LT ISZERO PUSH2 0x12 JUMPI PUSH1 0x0 DUP1 REVERT JUMPDEST PUSH1 0x0 CALLDATALOAD PUSH1 0xE0 SHR DUP1 PUSH4 0xC90CE42 EQ PUSH2 0x81B JUMPI DUP1 PUSH4 0x61AB1F09 EQ PUSH2 0x7FD JUMPI DUP1 PUSH4 0x629E025A EQ PUSH2 0x7D4 JUMPI DUP1 PUSH4 0x709DF8D9 EQ PUSH2 0x76D JUMPI DUP1 PUSH4 0x990627EC EQ PUSH2 0x2AA JUMPI DUP1 PUSH4 0xB94AFA71 EQ PUSH2 0x26C JUMPI PUSH4 0xDCAD0180 EQ PUSH2 0x69 JUMPI PUSH1 0x0 DUP1 REVERT JUMPDEST CALLVALUE PUSH2 0x267 JUMPI PUSH1 0x20 DUP1 PUSH1 0x3 NOT CALLDATASIZE ADD SLT PUSH2 0x267 JUMPI PUSH1 0x4 CALLDATALOAD SWAP1 PUSH1 0x1 DUP1 PUSH1 0xA0 SHL SUB SWAP1 PUSH1 0x24 DUP2 DUP4 PUSH1 0x0 SLOAD AND PUSH1 0x40 MLOAD SWAP3 DUP4 DUP1 SWAP3 PUSH4 0x1FD3F77 PUSH1 0xE7 SHL DUP3 MSTORE CALLER PUSH1 0x4 DUP4 ADD MSTORE GAS STATICCALL DUP1 ISZERO PUSH2 0x25B JUMPI PUSH2 0xC0 SWAP2 PUSH1 0x0 SWAP2 PUSH2 0x22E JUMPI JUMPDEST POP PUSH2 0x967 JUMP JUMPDEST DUP3 PUSH1 0x0 MSTORE PUSH1 0x2 DUP2 MSTORE PUSH1 0x40 PUSH1 0x0 KECCAK256 SWAP1 PUSH1 0x4 DUP3 ADD SWAP3 DUP4 SLOAD PUSH1 0xFF DUP2 PUSH1 0xA0 SHR AND PUSH2 0x1E9 JUMPI PUSH2 0xEC SWAP2 AND ISZERO ISZERO PUSH2 0xA13 JUMP JUMPDEST PUSH1 0x5 DUP3 ADD SWAP1 CALLER PUSH1 0x0 MSTORE DUP2 DUP2 MSTORE PUSH1 0xFF PUSH1 0x40 PUSH1 0x0 KECCAK256 SLOAD AND PUSH2 0x197 JUMPI CALLER PUSH1 0x0 MSTORE MSTORE PUSH1 0x40 PUSH1 0x0 KECCAK256 PUSH1 0x1 PUSH1 0xFF NOT DUP3 SLOAD AND OR SWAP1 SSTORE PUSH1 0x2 PUSH1 0x3 DUP3 ADD SWAP2 PUSH2 0x12B DUP4 SLOAD PUSH2 0x9A9 JUMP JUMPDEST DUP1 SWAP4 SSTORE CALLER DUP6 PUSH32 0xA24773234734FA56D66CE98FB6D0C8E4B38C3CE67E8A0CFA10756D0909BA4ED2 PUSH1 0x0 DUP1 LOG3 ADD SLOAD GT ISZERO PUSH2 0x15F JUMPI STOP JUMPDEST DUP1 SLOAD PUSH1 0xFF PUSH1 0xA0 SHL NOT AND PUSH1 0x1 PUSH1 0xA0 SHL OR SWAP1 SSTORE PUSH32 0x57B2843CCF810AD84ECFEBB6A0E6886490E559E0980A3656F8E16CEAC99F9152 PUSH1 0x0 DUP1 LOG2 STOP JUMPDEST PUSH1 0x84 SWAP1 PUSH1 0x40 MLOAD SWAP1 PUSH3 0x461BCD PUSH1 0xE5 SHL DUP3 MSTORE PUSH1 0x4 DUP3 ADD MSTORE PUSH1 0x25 PUSH1 0x24 DUP3 ADD MSTORE PUSH32 0x596F75206861766520616C7265616479207369676E6564207468697320706574 PUSH1 0x44 DUP3 ADD MSTORE PUSH5 0x34BA34B7B7 PUSH1 0xD9 SHL PUSH1 0x64 DUP3 ADD MSTORE REVERT JUMPDEST PUSH1 0x40 MLOAD PUSH3 0x461BCD PUSH1 0xE5 SHL DUP2 MSTORE PUSH1 0x4 DUP2 ADD DUP5 SWAP1 MSTORE PUSH1 0x1A PUSH1 0x24 DUP3 ADD MSTORE PUSH32 0x5065746974696F6E20616C726561647920636F6D706C65746564000000000000 PUSH1 0x44 DUP3 ADD MSTORE PUSH1 0x64 SWAP1 REVERT JUMPDEST PUSH2 0x24E SWAP2 POP DUP4 RETURNDATASIZE DUP6 GT PUSH2 0x254 JUMPI JUMPDEST PUSH2 0x246 DUP2 DUP4 PUSH2 0x92D JUMP JUMPDEST DUP2 ADD SWAP1 PUSH2 0x94F JUMP JUMPDEST CODESIZE PUSH2 0xBA JUMP JUMPDEST POP RETURNDATASIZE PUSH2 0x23C JUMP JUMPDEST PUSH1 0x40 MLOAD RETURNDATASIZE PUSH1 0x0 DUP3 RETURNDATACOPY RETURNDATASIZE SWAP1 REVERT JUMPDEST PUSH1 0x0 DUP1 REVERT JUMPDEST CALLVALUE PUSH2 0x267 JUMPI PUSH1 0x20 CALLDATASIZE PUSH1 0x3 NOT ADD SLT PUSH2 0x267 JUMPI PUSH1 0x4 CALLDATALOAD PUSH1 0x1 PUSH1 0x1 PUSH1 0xA0 SHL SUB DUP2 AND SWAP1 DUP2 SWAP1 SUB PUSH2 0x267 JUMPI PUSH1 0x0 MSTORE PUSH1 0x3 PUSH1 0x20 MSTORE PUSH1 0x20 PUSH1 0x40 PUSH1 0x0 KECCAK256 SLOAD PUSH1 0x40 MLOAD SWAP1 DUP2 MSTORE RETURN JUMPDEST CALLVALUE PUSH2 0x267 JUMPI PUSH1 0x60 CALLDATASIZE PUSH1 0x3 NOT ADD SLT PUSH2 0x267 JUMPI PUSH1 0x4 CALLDATALOAD PUSH8 0xFFFFFFFFFFFFFFFF DUP2 GT PUSH2 0x267 JUMPI PUSH2 0x2DB SWAP1 CALLDATASIZE SWAP1 PUSH1 0x4 ADD PUSH2 0x8FF JUMP JUMPDEST SWAP1 PUSH1 0x24 CALLDATALOAD PUSH8 0xFFFFFFFFFFFFFFFF DUP2 GT PUSH2 0x267 JUMPI PUSH2 0x2FC SWAP1 CALLDATASIZE SWAP1 PUSH1 0x4 ADD PUSH2 0x8FF JUMP JUMPDEST PUSH1 0x0 SLOAD PUSH1 0x40 MLOAD PUSH4 0x1FD3F77 PUSH1 0xE7 SHL DUP2 MSTORE CALLER PUSH1 0x4 DUP3 ADD MSTORE SWAP3 SWAP5 SWAP3 SWAP1 PUSH1 0x20 SWAP1 DUP3 SWAP1 PUSH1 0x24 SWAP1 DUP3 SWAP1 PUSH1 0x1 PUSH1 0x1 PUSH1 0xA0 SHL SUB AND GAS STATICCALL DUP1 ISZERO PUSH2 0x25B JUMPI PUSH2 0x342 SWAP2 PUSH1 0x0 SWAP2 PUSH2 0x74E JUMPI POP PUSH2 0x967 JUMP JUMPDEST CALLER PUSH1 0x0 MSTORE PUSH1 0x3 PUSH1 0x20 MSTORE PUSH1 0x40 PUSH1 0x0 KECCAK256 SLOAD PUSH3 0x93A80 DUP2 ADD DUP1 SWAP2 GT PUSH2 0x738 JUMPI TIMESTAMP LT PUSH2 0x6E1 JUMPI PUSH1 0x44 CALLDATALOAD ISZERO PUSH2 0x686 JUMPI PUSH2 0x377 PUSH1 0x1 SLOAD PUSH2 0x9A9 JUMP JUMPDEST SWAP3 DUP4 PUSH1 0x1 SSTORE DUP4 PUSH1 0x0 MSTORE PUSH1 0x2 PUSH1 0x20 MSTORE PUSH1 0x40 PUSH1 0x0 KECCAK256 PUSH8 0xFFFFFFFFFFFFFFFF DUP5 GT PUSH2 0x5BC JUMPI PUSH2 0x3A3 DUP2 SLOAD PUSH2 0x9B8 JUMP JUMPDEST PUSH1 0x1F DUP2 GT PUSH2 0x642 JUMPI JUMPDEST POP DUP4 PUSH1 0x0 PUSH1 0x1F DUP3 GT PUSH1 0x1 EQ PUSH2 0x5DD JUMPI PUSH1 0x0 SWAP2 PUSH2 0x5D2 JUMPI JUMPDEST POP DUP5 PUSH1 0x1 SHL SWAP1 PUSH1 0x0 NOT DUP7 PUSH1 0x3 SHL SHR NOT AND OR DUP2 SSTORE JUMPDEST PUSH8 0xFFFFFFFFFFFFFFFF DUP4 GT PUSH2 0x5BC JUMPI PUSH2 0x3F3 PUSH1 0x1 DUP3 ADD SLOAD PUSH2 0x9B8 JUMP JUMPDEST PUSH1 0x1F DUP2 GT PUSH2 0x575 JUMPI JUMPDEST POP SWAP2 PUSH1 0x20 SWAP6 SWAP2 DUP6 SWAP4 PUSH1 0x0 PUSH1 0x1F DUP5 GT PUSH1 0x1 EQ PUSH2 0x4DA JUMPI PUSH32 0x98ACDB43185FDB133376BD108D5907728BA783AB8330E33F6F8AE0895C5C7881 SWAP5 SWAP3 PUSH1 0x0 PUSH1 0x3 DUP7 SWAP5 PUSH2 0x4B8 SWAP8 PUSH2 0x4AB SWAP6 DUP5 SWAP2 PUSH2 0x4CF JUMPI JUMPDEST POP DUP7 PUSH1 0x1 SHL SWAP1 DUP5 NOT DUP9 DUP6 SHL SHR NOT AND OR PUSH1 0x1 DUP3 ADD SSTORE JUMPDEST PUSH1 0x44 CALLDATALOAD PUSH1 0x2 DUP3 ADD SSTORE PUSH1 0x4 DUP2 ADD DUP1 SLOAD PUSH1 0xFF PUSH1 0xA0 SHL NOT CALLER AND SWAP1 PUSH11 0xFFFFFFFFFFFFFFFFFFFFFF PUSH1 0xA8 SHL AND OR SWAP1 SSTORE ADD SSTORE CALLER PUSH1 0x0 MSTORE PUSH1 0x3 DUP11 MSTORE TIMESTAMP PUSH1 0x40 PUSH1 0x0 KECCAK256 SSTORE PUSH1 0x40 MLOAD SWAP8 PUSH1 0x60 DUP10 MSTORE PUSH1 0x60 DUP10 ADD SWAP2 PUSH2 0x9F2 JUMP JUMPDEST SWAP2 DUP7 DUP4 SUB DUP10 DUP9 ADD MSTORE PUSH2 0x9F2 JUMP JUMPDEST SWAP3 PUSH1 0x44 CALLDATALOAD PUSH1 0x40 DUP3 ADD MSTORE DUP1 CALLER SWAP5 SUB SWAP1 LOG3 PUSH1 0x40 MLOAD SWAP1 DUP2 MSTORE RETURN JUMPDEST SWAP1 POP DUP8 ADD CALLDATALOAD DUP15 PUSH2 0x449 JUMP JUMPDEST PUSH1 0x1 DUP3 ADD PUSH1 0x0 MSTORE DUP9 PUSH1 0x0 KECCAK256 SWAP1 PUSH1 0x0 JUMPDEST PUSH1 0x1F NOT DUP7 AND DUP2 LT PUSH2 0x55B JUMPI POP SWAP3 PUSH1 0x0 PUSH1 0x3 DUP7 SWAP5 PUSH2 0x4AB SWAP5 PUSH32 0x98ACDB43185FDB133376BD108D5907728BA783AB8330E33F6F8AE0895C5C7881 SWAP10 SWAP8 PUSH2 0x4B8 SWAP10 PUSH1 0x1F NOT DUP2 AND LT PUSH2 0x544 JUMPI JUMPDEST POP POP PUSH1 0x1 DUP7 DUP2 SHL ADD PUSH1 0x1 DUP3 ADD SSTORE PUSH2 0x45E JUMP JUMPDEST DUP9 ADD CALLDATALOAD DUP5 NOT DUP9 DUP6 SHL PUSH1 0xF8 AND SHR NOT AND SWAP1 SSTORE DUP14 DUP1 PUSH2 0x532 JUMP JUMPDEST DUP2 DUP8 ADD CALLDATALOAD DUP4 SSTORE DUP10 SWAP8 POP PUSH1 0x1 SWAP1 SWAP3 ADD SWAP2 SWAP1 DUP11 ADD SWAP1 DUP11 ADD PUSH2 0x4E9 JUMP JUMPDEST PUSH1 0x1 DUP3 ADD PUSH1 0x0 MSTORE PUSH1 0x20 PUSH1 0x0 KECCAK256 PUSH1 0x1F DUP6 ADD PUSH1 0x5 SHR DUP2 ADD PUSH1 0x20 DUP7 LT PUSH2 0x5B5 JUMPI JUMPDEST PUSH1 0x1F DUP4 ADD PUSH1 0x5 SHR DUP3 ADD DUP2 LT PUSH2 0x5A9 JUMPI POP POP PUSH2 0x3FC JUMP JUMPDEST PUSH1 0x0 DUP2 SSTORE PUSH1 0x1 ADD PUSH2 0x593 JUMP JUMPDEST POP DUP1 PUSH2 0x593 JUMP JUMPDEST PUSH4 0x4E487B71 PUSH1 0xE0 SHL PUSH1 0x0 MSTORE PUSH1 0x41 PUSH1 0x4 MSTORE PUSH1 0x24 PUSH1 0x0 REVERT JUMPDEST SWAP1 POP DUP3 ADD CALLDATALOAD DUP8 PUSH2 0x3C3 JUMP JUMPDEST PUSH1 0x0 DUP4 DUP2 MSTORE PUSH1 0x20 DUP2 KECCAK256 SWAP3 POP JUMPDEST PUSH1 0x1F NOT DUP8 AND DUP2 LT PUSH2 0x62A JUMPI POP DUP6 PUSH1 0x1F NOT DUP2 AND LT PUSH2 0x610 JUMPI JUMPDEST POP POP PUSH1 0x1 DUP5 DUP2 SHL ADD DUP2 SSTORE PUSH2 0x3D7 JUMP JUMPDEST DUP4 ADD CALLDATALOAD PUSH1 0x0 NOT PUSH1 0x3 DUP8 SWAP1 SHL PUSH1 0xF8 AND SHR NOT AND SWAP1 SSTORE DUP7 DUP1 PUSH2 0x601 JUMP JUMPDEST SWAP1 SWAP2 PUSH1 0x20 PUSH1 0x1 DUP2 SWAP3 DUP6 DUP9 ADD CALLDATALOAD DUP2 SSTORE ADD SWAP4 ADD SWAP2 ADD PUSH2 0x5E9 JUMP JUMPDEST DUP2 PUSH1 0x0 MSTORE PUSH1 0x20 PUSH1 0x0 KECCAK256 PUSH1 0x1F DUP7 ADD PUSH1 0x5 SHR DUP2 ADD PUSH1 0x20 DUP8 LT PUSH2 0x67F JUMPI JUMPDEST PUSH1 0x1F DUP4 ADD PUSH1 0x5 SHR DUP3 ADD DUP2 LT PUSH2 0x673 JUMPI POP POP PUSH2 0x3AC JUMP JUMPDEST PUSH1 0x0 DUP2 SSTORE PUSH1 0x1 ADD PUSH2 0x65D JUMP JUMPDEST POP DUP1 PUSH2 0x65D JUMP JUMPDEST PUSH1 0x40 MLOAD PUSH3 0x461BCD PUSH1 0xE5 SHL DUP2 MSTORE PUSH1 0x20 PUSH1 0x4 DUP3 ADD MSTORE PUSH1 0x2D PUSH1 0x24 DUP3 ADD MSTORE PUSH32 0x5369676E617475726573207265717569726564206D7573742062652067726561 PUSH1 0x44 DUP3 ADD MSTORE PUSH13 0x746572207468616E207A65726F PUSH1 0x98 SHL PUSH1 0x64 DUP3 ADD MSTORE PUSH1 0x84 SWAP1 REVERT JUMPDEST PUSH1 0x40 MLOAD PUSH3 0x461BCD PUSH1 0xE5 SHL DUP2 MSTORE PUSH1 0x20 PUSH1 0x4 DUP3 ADD MSTORE PUSH1 0x29 PUSH1 0x24 DUP3 ADD MSTORE PUSH32 0x596F752063616E206F6E6C7920637265617465206F6E65207065746974696F6E PUSH1 0x44 DUP3 ADD MSTORE PUSH9 0x20706572207765656B PUSH1 0xB8 SHL PUSH1 0x64 DUP3 ADD MSTORE PUSH1 0x84 SWAP1 REVERT JUMPDEST PUSH4 0x4E487B71 PUSH1 0xE0 SHL PUSH1 0x0 MSTORE PUSH1 0x11 PUSH1 0x4 MSTORE PUSH1 0x24 PUSH1 0x0 REVERT JUMPDEST PUSH2 0x767 SWAP2 POP PUSH1 0x20 RETURNDATASIZE PUSH1 0x20 GT PUSH2 0x254 JUMPI PUSH2 0x246 DUP2 DUP4 PUSH2 0x92D JUMP JUMPDEST DUP7 PUSH2 0xBA JUMP JUMPDEST CALLVALUE PUSH2 0x267 JUMPI PUSH1 0x40 CALLDATASIZE PUSH1 0x3 NOT ADD SLT PUSH2 0x267 JUMPI PUSH1 0x24 CALLDATALOAD PUSH1 0x1 PUSH1 0x1 PUSH1 0xA0 SHL SUB DUP2 DUP2 AND SWAP2 DUP3 SWAP1 SUB PUSH2 0x267 JUMPI PUSH1 0x5 SWAP2 PUSH1 0x4 CALLDATALOAD PUSH1 0x0 MSTORE PUSH1 0x2 PUSH1 0x20 MSTORE PUSH2 0x7B8 PUSH1 0x40 PUSH1 0x0 KECCAK256 SWAP3 PUSH1 0x4 DUP5 ADD SLOAD AND ISZERO ISZERO PUSH2 0xA13 JUMP JUMPDEST PUSH1 0x0 MSTORE ADD PUSH1 0x20 MSTORE PUSH1 0x20 PUSH1 0xFF PUSH1 0x40 PUSH1 0x0 KECCAK256 SLOAD AND PUSH1 0x40 MLOAD SWAP1 ISZERO ISZERO DUP2 MSTORE RETURN JUMPDEST CALLVALUE PUSH2 0x267 JUMPI PUSH1 0x0 CALLDATASIZE PUSH1 0x3 NOT ADD SLT PUSH2 0x267 JUMPI PUSH1 0x0 SLOAD PUSH1 0x40 MLOAD PUSH1 0x1 PUSH1 0x1 PUSH1 0xA0 SHL SUB SWAP1 SWAP2 AND DUP2 MSTORE PUSH1 0x20 SWAP1 RETURN JUMPDEST CALLVALUE PUSH2 0x267 JUMPI PUSH1 0x0 CALLDATASIZE PUSH1 0x3 NOT ADD SLT PUSH2 0x267 JUMPI PUSH1 0x20 PUSH1 0x1 SLOAD PUSH1 0x40 MLOAD SWAP1 DUP2 MSTORE RETURN JUMPDEST CALLVALUE PUSH2 0x267 JUMPI PUSH1 0x20 CALLDATASIZE PUSH1 0x3 NOT ADD SLT PUSH2 0x267 JUMPI PUSH1 0x4 CALLDATALOAD PUSH1 0x0 MSTORE PUSH1 0x2 PUSH1 0x20 MSTORE PUSH2 0x892 PUSH1 0x40 PUSH1 0x0 KECCAK256 PUSH1 0x4 DUP2 ADD SLOAD PUSH1 0xFF PUSH1 0x1 DUP1 PUSH1 0xA0 SHL SUB DUP3 AND SWAP2 PUSH2 0x85B DUP4 ISZERO ISZERO PUSH2 0xA13 JUMP JUMPDEST PUSH1 0x2 DUP5 ADD SLOAD SWAP3 PUSH1 0x3 DUP6 ADD SLOAD PUSH2 0x8A0 PUSH2 0x87E PUSH1 0x1 PUSH2 0x877 DUP10 PUSH2 0xA5F JUMP JUMPDEST SWAP9 ADD PUSH2 0xA5F JUMP JUMPDEST PUSH1 0x40 MLOAD SWAP9 DUP10 SWAP9 PUSH1 0xC0 DUP11 MSTORE PUSH1 0xC0 DUP11 ADD SWAP1 PUSH2 0x8BF JUMP JUMPDEST SWAP1 DUP9 DUP3 SUB PUSH1 0x20 DUP11 ADD MSTORE PUSH2 0x8BF JUMP JUMPDEST SWAP5 PUSH1 0x40 DUP8 ADD MSTORE PUSH1 0x60 DUP7 ADD MSTORE PUSH1 0x80 DUP6 ADD MSTORE PUSH1 0xA0 SHR AND ISZERO ISZERO PUSH1 0xA0 DUP4 ADD MSTORE SUB SWAP1 RETURN JUMPDEST SWAP2 SWAP1 DUP3 MLOAD SWAP3 DUP4 DUP3 MSTORE PUSH1 0x0 JUMPDEST DUP5 DUP2 LT PUSH2 0x8EB JUMPI POP POP DUP3 PUSH1 0x0 PUSH1 0x20 DUP1 SWAP5 SWAP6 DUP5 ADD ADD MSTORE PUSH1 0x1F DUP1 NOT SWAP2 ADD AND ADD ADD SWAP1 JUMP JUMPDEST PUSH1 0x20 DUP2 DUP4 ADD DUP2 ADD MLOAD DUP5 DUP4 ADD DUP3 ADD MSTORE ADD PUSH2 0x8CA JUMP JUMPDEST SWAP2 DUP2 PUSH1 0x1F DUP5 ADD SLT ISZERO PUSH2 0x267 JUMPI DUP3 CALLDATALOAD SWAP2 PUSH8 0xFFFFFFFFFFFFFFFF DUP4 GT PUSH2 0x267 JUMPI PUSH1 0x20 DUP4 DUP2 DUP7 ADD SWAP6 ADD ADD GT PUSH2 0x267 JUMPI JUMP JUMPDEST SWAP1 PUSH1 0x1F DUP1 NOT SWAP2 ADD AND DUP2 ADD SWAP1 DUP2 LT PUSH8 0xFFFFFFFFFFFFFFFF DUP3 GT OR PUSH2 0x5BC JUMPI PUSH1 0x40 MSTORE JUMP JUMPDEST SWAP1 DUP2 PUSH1 0x20 SWAP2 SUB SLT PUSH2 0x267 JUMPI MLOAD DUP1 ISZERO ISZERO DUP2 SUB PUSH2 0x267 JUMPI SWAP1 JUMP JUMPDEST ISZERO PUSH2 0x96E JUMPI JUMP JUMPDEST PUSH1 0x40 MLOAD PUSH3 0x461BCD PUSH1 0xE5 SHL DUP2 MSTORE PUSH1 0x20 PUSH1 0x4 DUP3 ADD MSTORE PUSH1 0x13 PUSH1 0x24 DUP3 ADD MSTORE PUSH19 0x155CD95C881B9BDD08185D5D1A1BDC9A5E9959 PUSH1 0x6A SHL PUSH1 0x44 DUP3 ADD MSTORE PUSH1 0x64 SWAP1 REVERT JUMPDEST PUSH1 0x0 NOT DUP2 EQ PUSH2 0x738 JUMPI PUSH1 0x1 ADD SWAP1 JUMP JUMPDEST SWAP1 PUSH1 0x1 DUP3 DUP2 SHR SWAP3 AND DUP1 ISZERO PUSH2 0x9E8 JUMPI JUMPDEST PUSH1 0x20 DUP4 LT EQ PUSH2 0x9D2 JUMPI JUMP JUMPDEST PUSH4 0x4E487B71 PUSH1 0xE0 SHL PUSH1 0x0 MSTORE PUSH1 0x22 PUSH1 0x4 MSTORE PUSH1 0x24 PUSH1 0x0 REVERT JUMPDEST SWAP2 PUSH1 0x7F AND SWAP2 PUSH2 0x9C7 JUMP JUMPDEST SWAP1 DUP1 PUSH1 0x20 SWAP4 SWAP3 DUP2 DUP5 MSTORE DUP5 DUP5 ADD CALLDATACOPY PUSH1 0x0 DUP3 DUP3 ADD DUP5 ADD MSTORE PUSH1 0x1F ADD PUSH1 0x1F NOT AND ADD ADD SWAP1 JUMP JUMPDEST ISZERO PUSH2 0xA1A JUMPI JUMP JUMPDEST PUSH1 0x40 MLOAD PUSH3 0x461BCD PUSH1 0xE5 SHL DUP2 MSTORE PUSH1 0x20 PUSH1 0x4 DUP3 ADD MSTORE PUSH1 0x17 PUSH1 0x24 DUP3 ADD MSTORE PUSH32 0x5065746974696F6E20646F6573206E6F74206578697374000000000000000000 PUSH1 0x44 DUP3 ADD MSTORE PUSH1 0x64 SWAP1 REVERT JUMPDEST SWAP1 PUSH1 0x40 MLOAD SWAP2 DUP3 PUSH1 0x0 DUP3 SLOAD SWAP3 PUSH2 0xA73 DUP5 PUSH2 0x9B8 JUMP JUMPDEST SWAP1 DUP2 DUP5 MSTORE PUSH1 0x1 SWAP5 DUP6 DUP2 AND SWAP1 DUP2 PUSH1 0x0 EQ PUSH2 0xAE2 JUMPI POP PUSH1 0x1 EQ PUSH2 0xA9F JUMPI JUMPDEST POP POP PUSH2 0xA9D SWAP3 POP SUB DUP4 PUSH2 0x92D JUMP JUMPDEST JUMP JUMPDEST SWAP1 SWAP4 SWAP2 POP PUSH1 0x0 MSTORE PUSH1 0x20 SWAP1 DUP2 PUSH1 0x0 KECCAK256 SWAP4 PUSH1 0x0 SWAP2 JUMPDEST DUP2 DUP4 LT PUSH2 0xACA JUMPI POP POP PUSH2 0xA9D SWAP4 POP DUP3 ADD ADD CODESIZE DUP1 PUSH2 0xA8F JUMP JUMPDEST DUP6 SLOAD DUP9 DUP5 ADD DUP6 ADD MSTORE SWAP5 DUP6 ADD SWAP5 DUP8 SWAP5 POP SWAP2 DUP4 ADD SWAP2 PUSH2 0xAB2 JUMP JUMPDEST SWAP2 POP POP PUSH2 0xA9D SWAP5 POP PUSH1 0x20 SWAP3 POP PUSH1 0xFF NOT AND DUP3 DUP5 ADD MSTORE ISZERO ISZERO PUSH1 0x5 SHL DUP3 ADD ADD CODESIZE DUP1 PUSH2 0xA8F JUMP INVALID LOG2 PUSH5 0x6970667358 0x22 SLT KECCAK256 DUP13 DUP10 SUB 0xB5 SLT PUSH23 0x60DCBEAF6574DD64A312CAACB7BCA77F0BD372BCE155EE 0xD4 SWAP4 PUSH13 0x64736F6C634300081400330000 "},"methodIdentifiers":{"authRegistry()":"629e025a","createPetition(string,string,uint256)":"990627ec","getPetition(uint256)":"0c90ce42","hasSigned(uint256,address)":"709df8d9","lastCreatedAt(address)":"b94afa71","petitionCount()":"61ab1f09","signPetition(uint256)":"dcad0180"}}}}}