{"contracts/report/reports.sol":{"Reports":{"abi":[{"inputs":[{"internalType":"address","name":"_authRegistry","type":"address"}],"stateMutability":"nonpayable","type":"constructor"},{"anonymous":false,"inputs":[{"indexed":true,"internalType":"uint256","name":"reportId","type":"uint256"},{"indexed":true,"internalType":"address","name":"creator","type":"address"},{"indexed":false,"internalType":"string","name":"titleCid","type":"string"},{"indexed":false,"internalType":"string","name":"descriptionCid","type":"string"},{"indexed":false,"internalType":"string","name":"evidenceHashCid","type":"string"}],"name":"ReportCreated","type":"event"},{"anonymous":false,"inputs":[{"indexed":true,"internalType":"uint256","name":"reportId","type":"uint256"},{"indexed":true,"internalType":"address","name":"voter","type":"address"}],"name":"ReportDownvoted","type":"event"},{"anonymous":false,"inputs":[{"indexed":true,"internalType":"uint256","name":"reportId","type":"uint256"},{"indexed":true,"internalType":"address","name":"resolver","type":"address"},{"indexed":false,"internalType":"uint256","name":"resolvedAt","type":"uint256"}],"name":"ReportResolved","type":"event"},{"anonymous":false,"inputs":[{"indexed":true,"internalType":"uint256","name":"reportId","type":"uint256"},{"indexed":true,"internalType":"address","name":"voter","type":"address"}],"name":"ReportUpvoted","type":"event"},{"inputs":[],"name":"authRegistry","outputs":[{"internalType":"contract IAuthRegistry","name":"","type":"address"}],"stateMutability":"view","type":"function"},{"inputs":[{"internalType":"string","name":"titleCid","type":"string"},{"internalType":"string","name":"descriptionCid","type":"string"},{"internalType":"string","name":"evidenceHashCid","type":"string"}],"name":"createReport","outputs":[{"internalType":"uint256","name":"","type":"uint256"}],"stateMutability":"nonpayable","type":"function"},{"inputs":[{"internalType":"uint256","name":"reportId","type":"uint256"}],"name":"downvoteReport","outputs":[],"stateMutability":"nonpayable","type":"function"},{"inputs":[{"internalType":"uint256","name":"reportId","type":"uint256"}],"name":"getReport","outputs":[{"internalType":"string","name":"titleCid","type":"string"},{"internalType":"string","name":"descriptionCid","type":"string"},{"internalType":"string","name":"evidenceHashCid","type":"string"},{"internalType":"uint256","name":"upvotes","type":"uint256"},{"internalType":"uint256","name":"downvotes","type":"uint256"},{"internalType":"address","name":"creator","type":"address"},{"internalType":"bool","name":"resolved","type":"bool"},{"internalType":"uint256","name":"createdAt","type":"uint256"},{"internalType":"uint256","name":"resolvedAt","type":"uint256"},{"internalType":"bool","name":"removed","type":"bool"}],"stateMutability":"view","type":"function"},{"inputs":[{"internalType":"uint256","name":"reportId","type":"uint256"}],"name":"getReportVotes","outputs":[{"internalType":"uint256","name":"upvotes","type":"uint256"},{"internalType":"uint256","name":"downvotes","type":"uint256"},{"internalType":"int256","name":"netVotes","type":"int256"},{"internalType":"uint256","name":"totalVotes","type":"uint256"}],"stateMutability":"view","type":"function"},{"inputs":[{"internalType":"uint256","name":"reportId","type":"uint256"},{"internalType":"address","name":"user","type":"address"}],"name":"getUserVote","outputs":[{"internalType":"bool","name":"hasUpvoted","type":"bool"},{"internalType":"bool","name":"hasDownvoted","type":"bool"}],"stateMutability":"view","type":"function"},{"inputs":[{"internalType":"address","name":"","type":"address"}],"name":"lastCreatedAt","outputs":[{"internalType":"uint256","name":"","type":"uint256"}],"stateMutability":"view","type":"function"},{"inputs":[{"internalType":"uint256","name":"reportId","type":"uint256"}],"name":"removeReport","outputs":[],"stateMutability":"nonpayable","type":"function"},{"inputs":[{"internalType":"uint256","name":"reportId","type":"uint256"}],"name":"removeVote","outputs":[],"stateMutability":"nonpayable","type":"function"},{"inputs":[{"internalType":"uint256","name":"reportId","type":"uint256"}],"name":"reopenReport","outputs":[],"stateMutability":"nonpayable","type":"function"},{"inputs":[],"name":"reportCount","outputs":[{"internalType":"uint256","name":"","type":"uint256"}],"stateMutability":"view","type":"function"},{"inputs":[{"internalType":"uint256","name":"reportId","type":"uint256"}],"name":"resolveReport","outputs":[],"stateMutability":"nonpayable","type":"function"},{"inputs":[{"internalType":"uint256","name":"reportId","type":"uint256"}],"name":"upvoteReport","outputs":[],"stateMutability":"nonpayable","type":"function"}],"evm":{"bytecode":{"linkReferences":{},"object":"6080346100cb57601f61165338819003918201601f19168301916001600160401b038311848410176100d0578084926020946040528339810103126100cb57516001600160a01b038116908190036100cb57801561007a57600080546001600160a01b03191691909117905560405161156c90816100e78239f35b60405162461bcd60e51b8152602060048201526024808201527f4175746820726567697374727920616464726573732063616e6e6f74206265206044820152637a65726f60e01b6064820152608490fd5b600080fd5b634e487b7160e01b600052604160045260246000fdfe6080604052600436101561001257600080fd5b60003560e01c806303c7881a146111d8578063143c809e1461109f578063185c6f8414611081578063318b5c2a14610f325780633f68fde414610d6b5780634e7f9b1914610c7f5780634efdde4a14610b03578063629e025a14610ada5780636dfa5e61146109ce57806372862d5f1461094b578063893fbece146102ab578063b1dc5e30146100ee5763b94afa71146100ab57600080fd5b346100e95760203660031901126100e9576004356001600160a01b038116908190036100e95760005260036020526020604060002054604051908152f35b600080fd5b346100e9576020806003193601126100e95760043560018060a01b036024838260005416604051928380926301fd3f7760e71b82523360048301525afa801561029f5761014391600091610272575b506112fb565b816000526002835260406000209061017460ff60058401549283169261016a8415156113a7565b60a01c16156113eb565b60098201903360005281855260ff60406000205416610221579361019d60039495331415611437565b33600052600a830181526040600020805460ff8116610204575b505033600052526040600020600160ff19825416179055016101d9815461133d565b905533907faefa2723d1ab23a3d2bc1ed36a09aa9751210267d47050cd52f216086320c2bf600080a3005b60ff19169055600483016102188154611483565b905585806101b7565b60405162461bcd60e51b8152600481018690526024808201527f596f75206861766520616c7265616479207570766f74656420746869732072656044820152631c1bdc9d60e21b6064820152608490fd5b6102929150853d8711610298575b61028a81836112c1565b8101906112e3565b8561013d565b503d610280565b6040513d6000823e3d90fd5b346100e95760603660031901126100e95760043567ffffffffffffffff81116100e9576102dc903690600401611293565b60243567ffffffffffffffff81116100e9576102fc903690600401611293565b60449291923567ffffffffffffffff81116100e95761031f903690600401611293565b6000546040516301fd3f7760e71b815233600482015292949290602090829060249082906001600160a01b03165afa801561029f576103659160009161092c57506112fb565b3360005260036020526040600020546201518081018091116109165742106108c257811561087d5782156108385780156107e9576103a460015461133d565b948560015585600052600260205260406000209367ffffffffffffffff841161065d576103d1855461134c565b601f81116107a5575b50836000601f821160011461073e57600091610733575b508460011b906000198660031b1c19161785555b67ffffffffffffffff811161065d57610421600186015461134c565b601f81116106ec575b50806000601f821160011461067e57600091610673575b508160011b906000198360031b1c19161760018601555b67ffffffffffffffff831161065d57610474600286015461134c565b601f8111610616575b509186939160209893600096601f8411600114610572579161054c9160006007869561055c977f82ce8ee5f4467c33c8ab38db7646aecad7889e301a2b1df8e4369f63437188e79b9c8491610567575b508760011b9084198960031b1c19161760028201555b60058101805460ff60a01b193316906affffffffffffffffffffff60a81b1617905582600382015582600482015542600682015501553360005260038c524260406000205561053f604051978897606089526060890191611386565b918683038d880152611386565b9083820360408501523397611386565b0390a3604051908152f35b90508d0135386104cd565b8897600282016000528b6000209060005b601f19871681106105fa5750600786959361054c95937f82ce8ee5f4467c33c8ab38db7646aecad7889e301a2b1df8e4369f63437188e79b9c60009461055c9a601f198116106105e1575b505050600187811b0160028201556104e3565b851960f88b60031b161c199101351690558f8d816105ce565b9981013582558a998c9950600190920191908d01908d01610583565b600286016000526020600020601f850160051c810160208610610656575b601f830160051c8201811061064a57505061047d565b60008155600101610634565b5080610634565b634e487b7160e01b600052604160045260246000fd5b905082013589610441565b90506001860160005260206000209060005b601f19841681106106d4575082601f198116106106ba575b5050600181811b016001860155610458565b830135600019600384901b60f8161c1916905588806106a8565b90916020600181928588013581550193019101610690565b600186016000526020600020601f830160051c81016020841061072c575b601f830160051c8201811061072057505061042a565b6000815560010161070a565b508061070a565b9050880135896103f1565b60008781526020812092505b8a601f198816821061078d57505085601f19811610610773575b5050600184811b018555610405565b890135600019600387901b60f8161c191690558880610764565b6001839460209394849301358155019301910161074a565b856000526020600020601f860160051c8101602087106107e2575b601f830160051c820181106107d65750506103da565b600081556001016107c0565b50806107c0565b60405162461bcd60e51b815260206004820152602160248201527f45766964656e63652068617368204349442063616e6e6f7420626520656d70746044820152607960f81b6064820152608490fd5b60405162461bcd60e51b815260206004820152601f60248201527f4465736372697074696f6e204349442063616e6e6f7420626520656d707479006044820152606490fd5b60405162461bcd60e51b815260206004820152601960248201527f5469746c65204349442063616e6e6f7420626520656d707479000000000000006044820152606490fd5b60405162461bcd60e51b815260206004820152602660248201527f596f752063616e206f6e6c7920637265617465206f6e65207265706f7274207060448201526565722064617960d01b6064820152608490fd5b634e487b7160e01b600052601160045260246000fd5b610945915060203d6020116102985761028a81836112c1565b8861013d565b346100e95760203660031901126100e95760043560009081526002602052604090206005810154610986906001600160a01b031615156113a7565b60046003820154910154908181036000831282821281169083831390151617610916578282019081831161091657608093604051938452602084015260408301526060820152f35b346100e9576020806003193601126100e95760043560018060a01b036024838260005416604051928380926301fd3f7760e71b82523360048301525afa801561029f57610a229160009161027257506112fb565b81600052600283526040600020906005820190610a44825491821615156113a7565b60ff8160a01c16610a955760ff60a01b1916600160a01b1790554260079190910181905560405190815233927f914c345a830273245961b499776c4807af476e566aae53d84e12b6d93c2a6ceb91a3005b60405162461bcd60e51b815260048101869052601760248201527f5265706f727420616c7265616479207265736f6c7665640000000000000000006044820152606490fd5b346100e95760003660031901126100e9576000546040516001600160a01b039091168152602090f35b346100e9576020806003193601126100e95760043560018060a01b036024838260005416604051928380926301fd3f7760e71b82523360048301525afa801561029f57610b579160009161027257506112fb565b8160005260028352604060002090610b7e60ff60058401549283169261016a8415156113a7565b600a8201903360005281855260ff60406000205416610c2b5793610ba760049495331415611437565b336000526009830181526040600020805460ff8116610c0e575b505033600052526040600020600160ff1982541617905501610be3815461133d565b905533907fda742fa539d7c91231e20ddddc16f7a4ac31d0ab74c1d06b84118e320db5718b600080a3005b60ff1916905560038301610c228154611483565b90558580610bc1565b60405162461bcd60e51b815260048101869052602660248201527f596f75206861766520616c726561647920646f776e766f7465642074686973206044820152651c995c1bdc9d60d21b6064820152608490fd5b346100e95760203660031901126100e9576004356000526002602052610d1d6040600020600581015460018060a01b03811690610cbd8215156113a7565b60038301549160048401549160ff6006860154916007870154938260088901541695610d39610ceb8a611490565b99610d2b610d076002610d0060018501611490565b9301611490565b916040519d8e9d8e610140908181520190611253565b8d810360208f015290611253565b908b820360408d0152611253565b9760608a0152608089015260a088015260a01c16151560c086015260e085015261010084015215156101208301520390f35b346100e9576020806003193601126100e9576000546040516301fd3f7760e71b81523360048201526001600160a01b039183908290602490829086165afa801561029f57610dc091600091610f1557506112fb565b6004356000526002825260ff604060002091610de4600584015491821615156113a7565b60a01c16610ec257600090336000526009810183526040600020805460ff8116610e9e575b505033600052600a810183526040600020805460ff8116610e7d575b50505015610e2f57005b6084906040519062461bcd60e51b82526004820152602160248201527f596f752068617665206e6f7420766f746564206f6e2074686973207265706f726044820152601d60fa1b6064820152fd5b6004935060ff1916905501610e928154611483565b90556001828080610e25565b9091925060ff1916905560038101610eb68154611483565b90556001908380610e09565b60405162461bcd60e51b815260048101839052602560248201527f43616e6e6f74206368616e676520766f7465206f6e207265736f6c7665642072604482015264195c1bdc9d60da1b6064820152608490fd5b610f2c9150843d86116102985761028a81836112c1565b8461013d565b346100e9576020806003193601126100e95760043560005260028152604060002060018060a01b038281600584015416610f6d8115156113a7565b331491821561102b575b505015610fd6576008019081549060ff8216610f99575060ff19166001179055005b6064906040519062461bcd60e51b82526004820152601660248201527514995c1bdc9d08185b1c9958591e481c995b5bdd995960521b6044820152fd5b60405162461bcd60e51b815260048101839052602760248201527f4f6e6c792063726561746f72206f722061646d696e2063616e2072656d6f7665604482015266081c995c1bdc9d60ca1b6064820152608490fd5b600054604051630935e01b60e21b8152336004820152935083916024918391165afa90811561029f57600091611064575b508284610f77565b61107b9150833d85116102985761028a81836112c1565b8361105c565b346100e95760003660031901126100e9576020600154604051908152f35b346100e9576020806003193601126100e9576000546040516301fd3f7760e71b81523360048201526001600160a01b03929182908290602490829087165afa801561029f576110f5916000916111c157506112fb565b600435600052600281526040600020916005830191825491821661111a8115156113a7565b60ff8360a01c161561118357330361113f5760ff60a01b198216835560006007850155005b6064906040519062461bcd60e51b82526004820152601e60248201527f4f6e6c792063726561746f722063616e2072656f70656e207265706f727400006044820152fd5b60405162461bcd60e51b815260048101839052601660248201527514995c1bdc9d081a5cc81b9bdd081c995cdbdb1d995960521b6044820152606490fd5b610f2c9150833d85116102985761028a81836112c1565b346100e95760403660031901126100e9576024356001600160a01b03818116918290036100e9576040916004356000526002602052611222836000209260058401541615156113a7565b60005260098101602052600a60ff836000205416910160205260ff8260002054168251911515825215156020820152f35b919082519283825260005b84811061127f575050826000602080949584010152601f8019910116010190565b60208183018101518483018201520161125e565b9181601f840112156100e95782359167ffffffffffffffff83116100e957602083818601950101116100e957565b90601f8019910116810190811067ffffffffffffffff82111761065d57604052565b908160209103126100e9575180151581036100e95790565b1561130257565b60405162461bcd60e51b8152602060048201526013602482015272155cd95c881b9bdd08185d5d1a1bdc9a5e9959606a1b6044820152606490fd5b60001981146109165760010190565b90600182811c9216801561137c575b602083101461136657565b634e487b7160e01b600052602260045260246000fd5b91607f169161135b565b908060209392818452848401376000828201840152601f01601f1916010190565b156113ae57565b60405162461bcd60e51b815260206004820152601560248201527414995c1bdc9d08191bd95cc81b9bdd08195e1a5cdd605a1b6044820152606490fd5b156113f257565b60405162461bcd60e51b815260206004820152601e60248201527f43616e6e6f7420766f7465206f6e207265736f6c766564207265706f727400006044820152606490fd5b1561143e57565b60405162461bcd60e51b815260206004820152601e60248201527f43616e6e6f7420766f7465206f6e20796f7572206f776e207265706f727400006044820152606490fd5b8015610916576000190190565b90604051918260008254926114a48461134c565b90818452600194858116908160001461151357506001146114d0575b50506114ce925003836112c1565b565b9093915060005260209081600020936000915b8183106114fb5750506114ce935082010138806114c0565b855488840185015294850194879450918301916114e3565b9150506114ce94506020925060ff191682840152151560051b82010138806114c056fea2646970667358221220d5b596897338300507bf044f3af47e8e25795d6423d9578c788a20efb1305ad464736f6c63430008140033","opcodes":"PUSH1 0x80 CALLVALUE PUSH2 0xCB JUMPI PUSH1 0x1F PUSH2 0x1653 CODESIZE DUP2 SWAP1 SUB SWAP2 DUP3 ADD PUSH1 0x1F NOT AND DUP4 ADD SWAP2 PUSH1 0x1 PUSH1 0x1 PUSH1 0x40 SHL SUB DUP4 GT DUP5 DUP5 LT OR PUSH2 0xD0 JUMPI DUP1 DUP5 SWAP3 PUSH1 0x20 SWAP5 PUSH1 0x40 MSTORE DUP4 CODECOPY DUP2 ADD SUB SLT PUSH2 0xCB JUMPI MLOAD PUSH1 0x1 PUSH1 0x1 PUSH1 0xA0 SHL SUB DUP2 AND SWAP1 DUP2 SWAP1 SUB PUSH2 0xCB JUMPI DUP1 ISZERO PUSH2 0x7A JUMPI PUSH1 0x0 DUP1 SLOAD PUSH1 0x1 PUSH1 0x1 PUSH1 0xA0 SHL SUB NOT AND SWAP2 SWAP1 SWAP2 OR SWAP1 SSTORE PUSH1 0x40 MLOAD PUSH2 0x156C SWAP1 DUP2 PUSH2 0xE7 DUP3 CODECOPY RETURN JUMPDEST PUSH1 0x40 MLOAD PUSH3 0x461BCD PUSH1 0xE5 SHL DUP2 MSTORE PUSH1 0x20 PUSH1 0x4 DUP3 ADD MSTORE PUSH1 0x24 DUP1 DUP3 ADD MSTORE PUSH32 0x4175746820726567697374727920616464726573732063616E6E6F7420626520 PUSH1 0x44 DUP3 ADD MSTORE PUSH4 0x7A65726F PUSH1 0xE0 SHL PUSH1 0x64 DUP3 ADD MSTORE PUSH1 0x84 SWAP1 REVERT JUMPDEST PUSH1 0x0 DUP1 REVERT JUMPDEST PUSH4 0x4E487B71 PUSH1 0xE0 SHL PUSH1 0x0 MSTORE PUSH1 0x41 PUSH1 0x4 MSTORE PUSH1 0x24 PUSH1 0x0 REVERT INVALID PUSH1 0x80 PUSH1 0x40 MSTORE PUSH1 0x4 CALLDATASIZE LT ISZERO PUSH2 0x12 JUMPI PUSH1 0x0 DUP1 REVERT JUMPDEST PUSH1 0x0 CALLDATALOAD PUSH1 0xE0 SHR DUP1 PUSH4 0x3C7881A EQ PUSH2 0x11D8 JUMPI DUP1 PUSH4 0x143C809E EQ PUSH2 0x109F JUMPI DUP1 PUSH4 0x185C6F84 EQ PUSH2 0x1081 JUMPI DUP1 PUSH4 0x318B5C2A EQ PUSH2 0xF32 JUMPI DUP1 PUSH4 0x3F68FDE4 EQ PUSH2 0xD6B JUMPI DUP1 PUSH4 0x4E7F9B19 EQ PUSH2 0xC7F JUMPI DUP1 PUSH4 0x4EFDDE4A EQ PUSH2 0xB03 JUMPI DUP1 PUSH4 0x629E025A EQ PUSH2 0xADA JUMPI DUP1 PUSH4 0x6DFA5E61 EQ PUSH2 0x9CE JUMPI DUP1 PUSH4 0x72862D5F EQ PUSH2 0x94B JUMPI DUP1 PUSH4 0x893FBECE EQ PUSH2 0x2AB JUMPI DUP1 PUSH4 0xB1DC5E30 EQ PUSH2 0xEE JUMPI PUSH4 0xB94AFA71 EQ PUSH2 0xAB JUMPI PUSH1 0x0 DUP1 REVERT JUMPDEST CALLVALUE PUSH2 0xE9 JUMPI PUSH1 0x20 CALLDATASIZE PUSH1 0x3 NOT ADD SLT PUSH2 0xE9 JUMPI PUSH1 0x4 CALLDATALOAD PUSH1 0x1 PUSH1 0x1 PUSH1 0xA0 SHL SUB DUP2 AND SWAP1 DUP2 SWAP1 SUB PUSH2 0xE9 JUMPI PUSH1 0x0 MSTORE PUSH1 0x3 PUSH1 0x20 MSTORE PUSH1 0x20 PUSH1 0x40 PUSH1 0x0 KECCAK256 SLOAD PUSH1 0x40 MLOAD SWAP1 DUP2 MSTORE RETURN JUMPDEST PUSH1 0x0 DUP1 REVERT JUMPDEST CALLVALUE PUSH2 0xE9 JUMPI PUSH1 0x20 DUP1 PUSH1 0x3 NOT CALLDATASIZE ADD SLT PUSH2 0xE9 JUMPI PUSH1 0x4 CALLDATALOAD PUSH1 0x1 DUP1 PUSH1 0xA0 SHL SUB PUSH1 0x24 DUP4 DUP3 PUSH1 0x0 SLOAD AND PUSH1 0x40 MLOAD SWAP3 DUP4 DUP1 SWAP3 PUSH4 0x1FD3F77 PUSH1 0xE7 SHL DUP3 MSTORE CALLER PUSH1 0x4 DUP4 ADD MSTORE GAS STATICCALL DUP1 ISZERO PUSH2 0x29F JUMPI PUSH2 0x143 SWAP2 PUSH1 0x0 SWAP2 PUSH2 0x272 JUMPI JUMPDEST POP PUSH2 0x12FB JUMP JUMPDEST DUP2 PUSH1 0x0 MSTORE PUSH1 0x2 DUP4 MSTORE PUSH1 0x40 PUSH1 0x0 KECCAK256 SWAP1 PUSH2 0x174 PUSH1 0xFF PUSH1 0x5 DUP5 ADD SLOAD SWAP3 DUP4 AND SWAP3 PUSH2 0x16A DUP5 ISZERO ISZERO PUSH2 0x13A7 JUMP JUMPDEST PUSH1 0xA0 SHR AND ISZERO PUSH2 0x13EB JUMP JUMPDEST PUSH1 0x9 DUP3 ADD SWAP1 CALLER PUSH1 0x0 MSTORE DUP2 DUP6 MSTORE PUSH1 0xFF PUSH1 0x40 PUSH1 0x0 KECCAK256 SLOAD AND PUSH2 0x221 JUMPI SWAP4 PUSH2 0x19D PUSH1 0x3 SWAP5 SWAP6 CALLER EQ ISZERO PUSH2 0x1437 JUMP JUMPDEST CALLER PUSH1 0x0 MSTORE PUSH1 0xA DUP4 ADD DUP2 MSTORE PUSH1 0x40 PUSH1 0x0 KECCAK256 DUP1 SLOAD PUSH1 0xFF DUP2 AND PUSH2 0x204 JUMPI JUMPDEST POP POP CALLER PUSH1 0x0 MSTORE MSTORE PUSH1 0x40 PUSH1 0x0 KECCAK256 PUSH1 0x1 PUSH1 0xFF NOT DUP3 SLOAD AND OR SWAP1 SSTORE ADD PUSH2 0x1D9 DUP2 SLOAD PUSH2 0x133D JUMP JUMPDEST SWAP1 SSTORE CALLER SWAP1 PUSH32 0xAEFA2723D1AB23A3D2BC1ED36A09AA9751210267D47050CD52F216086320C2BF PUSH1 0x0 DUP1 LOG3 STOP JUMPDEST PUSH1 0xFF NOT AND SWAP1 SSTORE PUSH1 0x4 DUP4 ADD PUSH2 0x218 DUP2 SLOAD PUSH2 0x1483 JUMP JUMPDEST SWAP1 SSTORE DUP6 DUP1 PUSH2 0x1B7 JUMP JUMPDEST PUSH1 0x40 MLOAD PUSH3 0x461BCD PUSH1 0xE5 SHL DUP2 MSTORE PUSH1 0x4 DUP2 ADD DUP7 SWAP1 MSTORE PUSH1 0x24 DUP1 DUP3 ADD MSTORE PUSH32 0x596F75206861766520616C7265616479207570766F7465642074686973207265 PUSH1 0x44 DUP3 ADD MSTORE PUSH4 0x1C1BDC9D PUSH1 0xE2 SHL PUSH1 0x64 DUP3 ADD MSTORE PUSH1 0x84 SWAP1 REVERT JUMPDEST PUSH2 0x292 SWAP2 POP DUP6 RETURNDATASIZE DUP8 GT PUSH2 0x298 JUMPI JUMPDEST PUSH2 0x28A DUP2 DUP4 PUSH2 0x12C1 JUMP JUMPDEST DUP2 ADD SWAP1 PUSH2 0x12E3 JUMP JUMPDEST DUP6 PUSH2 0x13D JUMP JUMPDEST POP RETURNDATASIZE PUSH2 0x280 JUMP JUMPDEST PUSH1 0x40 MLOAD RETURNDATASIZE PUSH1 0x0 DUP3 RETURNDATACOPY RETURNDATASIZE SWAP1 REVERT JUMPDEST CALLVALUE PUSH2 0xE9 JUMPI PUSH1 0x60 CALLDATASIZE PUSH1 0x3 NOT ADD SLT PUSH2 0xE9 JUMPI PUSH1 0x4 CALLDATALOAD PUSH8 0xFFFFFFFFFFFFFFFF DUP2 GT PUSH2 0xE9 JUMPI PUSH2 0x2DC SWAP1 CALLDATASIZE SWAP1 PUSH1 0x4 ADD PUSH2 0x1293 JUMP JUMPDEST PUSH1 0x24 CALLDATALOAD PUSH8 0xFFFFFFFFFFFFFFFF DUP2 GT PUSH2 0xE9 JUMPI PUSH2 0x2FC SWAP1 CALLDATASIZE SWAP1 PUSH1 0x4 ADD PUSH2 0x1293 JUMP JUMPDEST PUSH1 0x44 SWAP3 SWAP2 SWAP3 CALLDATALOAD PUSH8 0xFFFFFFFFFFFFFFFF DUP2 GT PUSH2 0xE9 JUMPI PUSH2 0x31F SWAP1 CALLDATASIZE SWAP1 PUSH1 0x4 ADD PUSH2 0x1293 JUMP JUMPDEST PUSH1 0x0 SLOAD PUSH1 0x40 MLOAD PUSH4 0x1FD3F77 PUSH1 0xE7 SHL DUP2 MSTORE CALLER PUSH1 0x4 DUP3 ADD MSTORE SWAP3 SWAP5 SWAP3 SWAP1 PUSH1 0x20 SWAP1 DUP3 SWAP1 PUSH1 0x24 SWAP1 DUP3 SWAP1 PUSH1 0x1 PUSH1 0x1 PUSH1 0xA0 SHL SUB AND GAS STATICCALL DUP1 ISZERO PUSH2 0x29F JUMPI PUSH2 0x365 SWAP2 PUSH1 0x0 SWAP2 PUSH2 0x92C JUMPI POP PUSH2 0x12FB JUMP JUMPDEST CALLER PUSH1 0x0 MSTORE PUSH1 0x3 PUSH1 0x20 MSTORE PUSH1 0x40 PUSH1 0x0 KECCAK256 SLOAD PUSH3 0x15180 DUP2 ADD DUP1 SWAP2 GT PUSH2 0x916 JUMPI TIMESTAMP LT PUSH2 0x8C2 JUMPI DUP2 ISZERO PUSH2 0x87D JUMPI DUP3 ISZERO PUSH2 0x838 JUMPI DUP1 ISZERO PUSH2 0x7E9 JUMPI PUSH2 0x3A4 PUSH1 0x1 SLOAD PUSH2 0x133D JUMP JUMPDEST SWAP5 DUP6 PUSH1 0x1 SSTORE DUP6 PUSH1 0x0 MSTORE PUSH1 0x2 PUSH1 0x20 MSTORE PUSH1 0x40 PUSH1 0x0 KECCAK256 SWAP4 PUSH8 0xFFFFFFFFFFFFFFFF DUP5 GT PUSH2 0x65D JUMPI PUSH2 0x3D1 DUP6 SLOAD PUSH2 0x134C JUMP JUMPDEST PUSH1 0x1F DUP2 GT PUSH2 0x7A5 JUMPI JUMPDEST POP DUP4 PUSH1 0x0 PUSH1 0x1F DUP3 GT PUSH1 0x1 EQ PUSH2 0x73E JUMPI PUSH1 0x0 SWAP2 PUSH2 0x733 JUMPI JUMPDEST POP DUP5 PUSH1 0x1 SHL SWAP1 PUSH1 0x0 NOT DUP7 PUSH1 0x3 SHL SHR NOT AND OR DUP6 SSTORE JUMPDEST PUSH8 0xFFFFFFFFFFFFFFFF DUP2 GT PUSH2 0x65D JUMPI PUSH2 0x421 PUSH1 0x1 DUP7 ADD SLOAD PUSH2 0x134C JUMP JUMPDEST PUSH1 0x1F DUP2 GT PUSH2 0x6EC JUMPI JUMPDEST POP DUP1 PUSH1 0x0 PUSH1 0x1F DUP3 GT PUSH1 0x1 EQ PUSH2 0x67E JUMPI PUSH1 0x0 SWAP2 PUSH2 0x673 JUMPI JUMPDEST POP DUP2 PUSH1 0x1 SHL SWAP1 PUSH1 0x0 NOT DUP4 PUSH1 0x3 SHL SHR NOT AND OR PUSH1 0x1 DUP7 ADD SSTORE JUMPDEST PUSH8 0xFFFFFFFFFFFFFFFF DUP4 GT PUSH2 0x65D JUMPI PUSH2 0x474 PUSH1 0x2 DUP7 ADD SLOAD PUSH2 0x134C JUMP JUMPDEST PUSH1 0x1F DUP2 GT PUSH2 0x616 JUMPI JUMPDEST POP SWAP2 DUP7 SWAP4 SWAP2 PUSH1 0x20 SWAP9 SWAP4 PUSH1 0x0 SWAP7 PUSH1 0x1F DUP5 GT PUSH1 0x1 EQ PUSH2 0x572 JUMPI SWAP2 PUSH2 0x54C SWAP2 PUSH1 0x0 PUSH1 0x7 DUP7 SWAP6 PUSH2 0x55C SWAP8 PUSH32 0x82CE8EE5F4467C33C8AB38DB7646AECAD7889E301A2B1DF8E4369F63437188E7 SWAP12 SWAP13 DUP5 SWAP2 PUSH2 0x567 JUMPI JUMPDEST POP DUP8 PUSH1 0x1 SHL SWAP1 DUP5 NOT DUP10 PUSH1 0x3 SHL SHR NOT AND OR PUSH1 0x2 DUP3 ADD SSTORE JUMPDEST PUSH1 0x5 DUP2 ADD DUP1 SLOAD PUSH1 0xFF PUSH1 0xA0 SHL NOT CALLER AND SWAP1 PUSH11 0xFFFFFFFFFFFFFFFFFFFFFF PUSH1 0xA8 SHL AND OR SWAP1 SSTORE DUP3 PUSH1 0x3 DUP3 ADD SSTORE DUP3 PUSH1 0x4 DUP3 ADD SSTORE TIMESTAMP PUSH1 0x6 DUP3 ADD SSTORE ADD SSTORE CALLER PUSH1 0x0 MSTORE PUSH1 0x3 DUP13 MSTORE TIMESTAMP PUSH1 0x40 PUSH1 0x0 KECCAK256 SSTORE PUSH2 0x53F PUSH1 0x40 MLOAD SWAP8 DUP9 SWAP8 PUSH1 0x60 DUP10 MSTORE PUSH1 0x60 DUP10 ADD SWAP2 PUSH2 0x1386 JUMP JUMPDEST SWAP2 DUP7 DUP4 SUB DUP14 DUP9 ADD MSTORE PUSH2 0x1386 JUMP JUMPDEST SWAP1 DUP4 DUP3 SUB PUSH1 0x40 DUP6 ADD MSTORE CALLER SWAP8 PUSH2 0x1386 JUMP JUMPDEST SUB SWAP1 LOG3 PUSH1 0x40 MLOAD SWAP1 DUP2 MSTORE RETURN JUMPDEST SWAP1 POP DUP14 ADD CALLDATALOAD CODESIZE PUSH2 0x4CD JUMP JUMPDEST DUP9 SWAP8 PUSH1 0x2 DUP3 ADD PUSH1 0x0 MSTORE DUP12 PUSH1 0x0 KECCAK256 SWAP1 PUSH1 0x0 JUMPDEST PUSH1 0x1F NOT DUP8 AND DUP2 LT PUSH2 0x5FA JUMPI POP PUSH1 0x7 DUP7 SWAP6 SWAP4 PUSH2 0x54C SWAP6 SWAP4 PUSH32 0x82CE8EE5F4467C33C8AB38DB7646AECAD7889E301A2B1DF8E4369F63437188E7 SWAP12 SWAP13 PUSH1 0x0 SWAP5 PUSH2 0x55C SWAP11 PUSH1 0x1F NOT DUP2 AND LT PUSH2 0x5E1 JUMPI JUMPDEST POP POP POP PUSH1 0x1 DUP8 DUP2 SHL ADD PUSH1 0x2 DUP3 ADD SSTORE PUSH2 0x4E3 JUMP JUMPDEST DUP6 NOT PUSH1 0xF8 DUP12 PUSH1 0x3 SHL AND SHR NOT SWAP2 ADD CALLDATALOAD AND SWAP1 SSTORE DUP16 DUP14 DUP2 PUSH2 0x5CE JUMP JUMPDEST SWAP10 DUP2 ADD CALLDATALOAD DUP3 SSTORE DUP11 SWAP10 DUP13 SWAP10 POP PUSH1 0x1 SWAP1 SWAP3 ADD SWAP2 SWAP1 DUP14 ADD SWAP1 DUP14 ADD PUSH2 0x583 JUMP JUMPDEST PUSH1 0x2 DUP7 ADD PUSH1 0x0 MSTORE PUSH1 0x20 PUSH1 0x0 KECCAK256 PUSH1 0x1F DUP6 ADD PUSH1 0x5 SHR DUP2 ADD PUSH1 0x20 DUP7 LT PUSH2 0x656 JUMPI JUMPDEST PUSH1 0x1F DUP4 ADD PUSH1 0x5 SHR DUP3 ADD DUP2 LT PUSH2 0x64A JUMPI POP POP PUSH2 0x47D JUMP JUMPDEST PUSH1 0x0 DUP2 SSTORE PUSH1 0x1 ADD PUSH2 0x634 JUMP JUMPDEST POP DUP1 PUSH2 0x634 JUMP JUMPDEST PUSH4 0x4E487B71 PUSH1 0xE0 SHL PUSH1 0x0 MSTORE PUSH1 0x41 PUSH1 0x4 MSTORE PUSH1 0x24 PUSH1 0x0 REVERT JUMPDEST SWAP1 POP DUP3 ADD CALLDATALOAD DUP10 PUSH2 0x441 JUMP JUMPDEST SWAP1 POP PUSH1 0x1 DUP7 ADD PUSH1 0x0 MSTORE PUSH1 0x20 PUSH1 0x0 KECCAK256 SWAP1 PUSH1 0x0 JUMPDEST PUSH1 0x1F NOT DUP5 AND DUP2 LT PUSH2 0x6D4 JUMPI POP DUP3 PUSH1 0x1F NOT DUP2 AND LT PUSH2 0x6BA JUMPI JUMPDEST POP POP PUSH1 0x1 DUP2 DUP2 SHL ADD PUSH1 0x1 DUP7 ADD SSTORE PUSH2 0x458 JUMP JUMPDEST DUP4 ADD CALLDATALOAD PUSH1 0x0 NOT PUSH1 0x3 DUP5 SWAP1 SHL PUSH1 0xF8 AND SHR NOT AND SWAP1 SSTORE DUP9 DUP1 PUSH2 0x6A8 JUMP JUMPDEST SWAP1 SWAP2 PUSH1 0x20 PUSH1 0x1 DUP2 SWAP3 DUP6 DUP9 ADD CALLDATALOAD DUP2 SSTORE ADD SWAP4 ADD SWAP2 ADD PUSH2 0x690 JUMP JUMPDEST PUSH1 0x1 DUP7 ADD PUSH1 0x0 MSTORE PUSH1 0x20 PUSH1 0x0 KECCAK256 PUSH1 0x1F DUP4 ADD PUSH1 0x5 SHR DUP2 ADD PUSH1 0x20 DUP5 LT PUSH2 0x72C JUMPI JUMPDEST PUSH1 0x1F DUP4 ADD PUSH1 0x5 SHR DUP3 ADD DUP2 LT PUSH2 0x720 JUMPI POP POP PUSH2 0x42A JUMP JUMPDEST PUSH1 0x0 DUP2 SSTORE PUSH1 0x1 ADD PUSH2 0x70A JUMP JUMPDEST POP DUP1 PUSH2 0x70A JUMP JUMPDEST SWAP1 POP DUP9 ADD CALLDATALOAD DUP10 PUSH2 0x3F1 JUMP JUMPDEST PUSH1 0x0 DUP8 DUP2 MSTORE PUSH1 0x20 DUP2 KECCAK256 SWAP3 POP JUMPDEST DUP11 PUSH1 0x1F NOT DUP9 AND DUP3 LT PUSH2 0x78D JUMPI POP POP DUP6 PUSH1 0x1F NOT DUP2 AND LT PUSH2 0x773 JUMPI JUMPDEST POP POP PUSH1 0x1 DUP5 DUP2 SHL ADD DUP6 SSTORE PUSH2 0x405 JUMP JUMPDEST DUP10 ADD CALLDATALOAD PUSH1 0x0 NOT PUSH1 0x3 DUP8 SWAP1 SHL PUSH1 0xF8 AND SHR NOT AND SWAP1 SSTORE DUP9 DUP1 PUSH2 0x764 JUMP JUMPDEST PUSH1 0x1 DUP4 SWAP5 PUSH1 0x20 SWAP4 SWAP5 DUP5 SWAP4 ADD CALLDATALOAD DUP2 SSTORE ADD SWAP4 ADD SWAP2 ADD PUSH2 0x74A JUMP JUMPDEST DUP6 PUSH1 0x0 MSTORE PUSH1 0x20 PUSH1 0x0 KECCAK256 PUSH1 0x1F DUP7 ADD PUSH1 0x5 SHR DUP2 ADD PUSH1 0x20 DUP8 LT PUSH2 0x7E2 JUMPI JUMPDEST PUSH1 0x1F DUP4 ADD PUSH1 0x5 SHR DUP3 ADD DUP2 LT PUSH2 0x7D6 JUMPI POP POP PUSH2 0x3DA JUMP JUMPDEST PUSH1 0x0 DUP2 SSTORE PUSH1 0x1 ADD PUSH2 0x7C0 JUMP JUMPDEST POP DUP1 PUSH2 0x7C0 JUMP JUMPDEST PUSH1 0x40 MLOAD PUSH3 0x461BCD PUSH1 0xE5 SHL DUP2 MSTORE PUSH1 0x20 PUSH1 0x4 DUP3 ADD MSTORE PUSH1 0x21 PUSH1 0x24 DUP3 ADD MSTORE PUSH32 0x45766964656E63652068617368204349442063616E6E6F7420626520656D7074 PUSH1 0x44 DUP3 ADD MSTORE PUSH1 0x79 PUSH1 0xF8 SHL PUSH1 0x64 DUP3 ADD MSTORE PUSH1 0x84 SWAP1 REVERT JUMPDEST PUSH1 0x40 MLOAD PUSH3 0x461BCD PUSH1 0xE5 SHL DUP2 MSTORE PUSH1 0x20 PUSH1 0x4 DUP3 ADD MSTORE PUSH1 0x1F PUSH1 0x24 DUP3 ADD MSTORE PUSH32 0x4465736372697074696F6E204349442063616E6E6F7420626520656D70747900 PUSH1 0x44 DUP3 ADD MSTORE PUSH1 0x64 SWAP1 REVERT JUMPDEST PUSH1 0x40 MLOAD PUSH3 0x461BCD PUSH1 0xE5 SHL DUP2 MSTORE PUSH1 0x20 PUSH1 0x4 DUP3 ADD MSTORE PUSH1 0x19 PUSH1 0x24 DUP3 ADD MSTORE PUSH32 0x5469746C65204349442063616E6E6F7420626520656D70747900000000000000 PUSH1 0x44 DUP3 ADD MSTORE PUSH1 0x64 SWAP1 REVERT JUMPDEST PUSH1 0x40 MLOAD PUSH3 0x461BCD PUSH1 0xE5 SHL DUP2 MSTORE PUSH1 0x20 PUSH1 0x4 DUP3 ADD MSTORE PUSH1 0x26 PUSH1 0x24 DUP3 ADD MSTORE PUSH32 0x596F752063616E206F6E6C7920637265617465206F6E65207265706F72742070 PUSH1 0x44 DUP3 ADD MSTORE PUSH6 0x657220646179 PUSH1 0xD0 SHL PUSH1 0x64 DUP3 ADD MSTORE PUSH1 0x84 SWAP1 REVERT JUMPDEST PUSH4 0x4E487B71 PUSH1 0xE0 SHL PUSH1 0x0 MSTORE PUSH1 0x11 PUSH1 0x4 MSTORE PUSH1 0x24 PUSH1 0x0 REVERT JUMPDEST PUSH2 0x945 SWAP2 POP PUSH1 0x20 RETURNDATASIZE PUSH1 0x20 GT PUSH2 0x298 JUMPI PUSH2 0x28A DUP2 DUP4 PUSH2 0x12C1 JUMP JUMPDEST DUP9 PUSH2 0x13D JUMP JUMPDEST CALLVALUE PUSH2 0xE9 JUMPI PUSH1 0x20 CALLDATASIZE PUSH1 0x3 NOT ADD SLT PUSH2 0xE9 JUMPI PUSH1 0x4 CALLDATALOAD PUSH1 0x0 SWAP1 DUP2 MSTORE PUSH1 0x2 PUSH1 0x20 MSTORE PUSH1 0x40 SWAP1 KECCAK256 PUSH1 0x5 DUP2 ADD SLOAD PUSH2 0x986 SWAP1 PUSH1 0x1 PUSH1 0x1 PUSH1 0xA0 SHL SUB AND ISZERO ISZERO PUSH2 0x13A7 JUMP JUMPDEST PUSH1 0x4 PUSH1 0x3 DUP3 ADD SLOAD SWAP2 ADD SLOAD SWAP1 DUP2 DUP2 SUB PUSH1 0x0 DUP4 SLT DUP3 DUP3 SLT DUP2 AND SWAP1 DUP4 DUP4 SGT SWAP1 ISZERO AND OR PUSH2 0x916 JUMPI DUP3 DUP3 ADD SWAP1 DUP2 DUP4 GT PUSH2 0x916 JUMPI PUSH1 0x80 SWAP4 PUSH1 0x40 MLOAD SWAP4 DUP5 MSTORE PUSH1 0x20 DUP5 ADD MSTORE PUSH1 0x40 DUP4 ADD MSTORE PUSH1 0x60 DUP3 ADD MSTORE RETURN JUMPDEST CALLVALUE PUSH2 0xE9 JUMPI PUSH1 0x20 DUP1 PUSH1 0x3 NOT CALLDATASIZE ADD SLT PUSH2 0xE9 JUMPI PUSH1 0x4 CALLDATALOAD PUSH1 0x1 DUP1 PUSH1 0xA0 SHL SUB PUSH1 0x24 DUP4 DUP3 PUSH1 0x0 SLOAD AND PUSH1 0x40 MLOAD SWAP3 DUP4 DUP1 SWAP3 PUSH4 0x1FD3F77 PUSH1 0xE7 SHL DUP3 MSTORE CALLER PUSH1 0x4 DUP4 ADD MSTORE GAS STATICCALL DUP1 ISZERO PUSH2 0x29F JUMPI PUSH2 0xA22 SWAP2 PUSH1 0x0 SWAP2 PUSH2 0x272 JUMPI POP PUSH2 0x12FB JUMP JUMPDEST DUP2 PUSH1 0x0 MSTORE PUSH1 0x2 DUP4 MSTORE PUSH1 0x40 PUSH1 0x0 KECCAK256 SWAP1 PUSH1 0x5 DUP3 ADD SWAP1 PUSH2 0xA44 DUP3 SLOAD SWAP2 DUP3 AND ISZERO ISZERO PUSH2 0x13A7 JUMP JUMPDEST PUSH1 0xFF DUP2 PUSH1 0xA0 SHR AND PUSH2 0xA95 JUMPI PUSH1 0xFF PUSH1 0xA0 SHL NOT AND PUSH1 0x1 PUSH1 0xA0 SHL OR SWAP1 SSTORE TIMESTAMP PUSH1 0x7 SWAP2 SWAP1 SWAP2 ADD DUP2 SWAP1 SSTORE PUSH1 0x40 MLOAD SWAP1 DUP2 MSTORE CALLER SWAP3 PUSH32 0x914C345A830273245961B499776C4807AF476E566AAE53D84E12B6D93C2A6CEB SWAP2 LOG3 STOP JUMPDEST PUSH1 0x40 MLOAD PUSH3 0x461BCD PUSH1 0xE5 SHL DUP2 MSTORE PUSH1 0x4 DUP2 ADD DUP7 SWAP1 MSTORE PUSH1 0x17 PUSH1 0x24 DUP3 ADD MSTORE PUSH32 0x5265706F727420616C7265616479207265736F6C766564000000000000000000 PUSH1 0x44 DUP3 ADD MSTORE PUSH1 0x64 SWAP1 REVERT JUMPDEST CALLVALUE PUSH2 0xE9 JUMPI PUSH1 0x0 CALLDATASIZE PUSH1 0x3 NOT ADD SLT PUSH2 0xE9 JUMPI PUSH1 0x0 SLOAD PUSH1 0x40 MLOAD PUSH1 0x1 PUSH1 0x1 PUSH1 0xA0 SHL SUB SWAP1 SWAP2 AND DUP2 MSTORE PUSH1 0x20 SWAP1 RETURN JUMPDEST CALLVALUE PUSH2 0xE9 JUMPI PUSH1 0x20 DUP1 PUSH1 0x3 NOT CALLDATASIZE ADD SLT PUSH2 0xE9 JUMPI PUSH1 0x4 CALLDATALOAD PUSH1 0x1 DUP1 PUSH1 0xA0 SHL SUB PUSH1 0x24 DUP4 DUP3 PUSH1 0x0 SLOAD AND PUSH1 0x40 MLOAD SWAP3 DUP4 DUP1 SWAP3 PUSH4 0x1FD3F77 PUSH1 0xE7 SHL DUP3 MSTORE CALLER PUSH1 0x4 DUP4 ADD MSTORE GAS STATICCALL DUP1 ISZERO PUSH2 0x29F JUMPI PUSH2 0xB57 SWAP2 PUSH1 0x0 SWAP2 PUSH2 0x272 JUMPI POP PUSH2 0x12FB JUMP JUMPDEST DUP2 PUSH1 0x0 MSTORE PUSH1 0x2 DUP4 MSTORE PUSH1 0x40 PUSH1 0x0 KECCAK256 SWAP1 PUSH2 0xB7E PUSH1 0xFF PUSH1 0x5 DUP5 ADD SLOAD SWAP3 DUP4 AND SWAP3 PUSH2 0x16A DUP5 ISZERO ISZERO PUSH2 0x13A7 JUMP JUMPDEST PUSH1 0xA DUP3 ADD SWAP1 CALLER PUSH1 0x0 MSTORE DUP2 DUP6 MSTORE PUSH1 0xFF PUSH1 0x40 PUSH1 0x0 KECCAK256 SLOAD AND PUSH2 0xC2B JUMPI SWAP4 PUSH2 0xBA7 PUSH1 0x4 SWAP5 SWAP6 CALLER EQ ISZERO PUSH2 0x1437 JUMP JUMPDEST CALLER PUSH1 0x0 MSTORE PUSH1 0x9 DUP4 ADD DUP2 MSTORE PUSH1 0x40 PUSH1 0x0 KECCAK256 DUP1 SLOAD PUSH1 0xFF DUP2 AND PUSH2 0xC0E JUMPI JUMPDEST POP POP CALLER PUSH1 0x0 MSTORE MSTORE PUSH1 0x40 PUSH1 0x0 KECCAK256 PUSH1 0x1 PUSH1 0xFF NOT DUP3 SLOAD AND OR SWAP1 SSTORE ADD PUSH2 0xBE3 DUP2 SLOAD PUSH2 0x133D JUMP JUMPDEST SWAP1 SSTORE CALLER SWAP1 PUSH32 0xDA742FA539D7C91231E20DDDDC16F7A4AC31D0AB74C1D06B84118E320DB5718B PUSH1 0x0 DUP1 LOG3 STOP JUMPDEST PUSH1 0xFF NOT AND SWAP1 SSTORE PUSH1 0x3 DUP4 ADD PUSH2 0xC22 DUP2 SLOAD PUSH2 0x1483 JUMP JUMPDEST SWAP1 SSTORE DUP6 DUP1 PUSH2 0xBC1 JUMP JUMPDEST PUSH1 0x40 MLOAD PUSH3 0x461BCD PUSH1 0xE5 SHL DUP2 MSTORE PUSH1 0x4 DUP2 ADD DUP7 SWAP1 MSTORE PUSH1 0x26 PUSH1 0x24 DUP3 ADD MSTORE PUSH32 0x596F75206861766520616C726561647920646F776E766F746564207468697320 PUSH1 0x44 DUP3 ADD MSTORE PUSH6 0x1C995C1BDC9D PUSH1 0xD2 SHL PUSH1 0x64 DUP3 ADD MSTORE PUSH1 0x84 SWAP1 REVERT JUMPDEST CALLVALUE PUSH2 0xE9 JUMPI PUSH1 0x20 CALLDATASIZE PUSH1 0x3 NOT ADD SLT PUSH2 0xE9 JUMPI PUSH1 0x4 CALLDATALOAD PUSH1 0x0 MSTORE PUSH1 0x2 PUSH1 0x20 MSTORE PUSH2 0xD1D PUSH1 0x40 PUSH1 0x0 KECCAK256 PUSH1 0x5 DUP2 ADD SLOAD PUSH1 0x1 DUP1 PUSH1 0xA0 SHL SUB DUP2 AND SWAP1 PUSH2 0xCBD DUP3 ISZERO ISZERO PUSH2 0x13A7 JUMP JUMPDEST PUSH1 0x3 DUP4 ADD SLOAD SWAP2 PUSH1 0x4 DUP5 ADD SLOAD SWAP2 PUSH1 0xFF PUSH1 0x6 DUP7 ADD SLOAD SWAP2 PUSH1 0x7 DUP8 ADD SLOAD SWAP4 DUP3 PUSH1 0x8 DUP10 ADD SLOAD AND SWAP6 PUSH2 0xD39 PUSH2 0xCEB DUP11 PUSH2 0x1490 JUMP JUMPDEST SWAP10 PUSH2 0xD2B PUSH2 0xD07 PUSH1 0x2 PUSH2 0xD00 PUSH1 0x1 DUP6 ADD PUSH2 0x1490 JUMP JUMPDEST SWAP4 ADD PUSH2 0x1490 JUMP JUMPDEST SWAP2 PUSH1 0x40 MLOAD SWAP14 DUP15 SWAP14 DUP15 PUSH2 0x140 SWAP1 DUP2 DUP2 MSTORE ADD SWAP1 PUSH2 0x1253 JUMP JUMPDEST DUP14 DUP2 SUB PUSH1 0x20 DUP16 ADD MSTORE SWAP1 PUSH2 0x1253 JUMP JUMPDEST SWAP1 DUP12 DUP3 SUB PUSH1 0x40 DUP14 ADD MSTORE PUSH2 0x1253 JUMP JUMPDEST SWAP8 PUSH1 0x60 DUP11 ADD MSTORE PUSH1 0x80 DUP10 ADD MSTORE PUSH1 0xA0 DUP9 ADD MSTORE PUSH1 0xA0 SHR AND ISZERO ISZERO PUSH1 0xC0 DUP7 ADD MSTORE PUSH1 0xE0 DUP6 ADD MSTORE PUSH2 0x100 DUP5 ADD MSTORE ISZERO ISZERO PUSH2 0x120 DUP4 ADD MSTORE SUB SWAP1 RETURN JUMPDEST CALLVALUE PUSH2 0xE9 JUMPI PUSH1 0x20 DUP1 PUSH1 0x3 NOT CALLDATASIZE ADD SLT PUSH2 0xE9 JUMPI PUSH1 0x0 SLOAD PUSH1 0x40 MLOAD PUSH4 0x1FD3F77 PUSH1 0xE7 SHL DUP2 MSTORE CALLER PUSH1 0x4 DUP3 ADD MSTORE PUSH1 0x1 PUSH1 0x1 PUSH1 0xA0 SHL SUB SWAP2 DUP4 SWAP1 DUP3 SWAP1 PUSH1 0x24 SWAP1 DUP3 SWAP1 DUP7 AND GAS STATICCALL DUP1 ISZERO PUSH2 0x29F JUMPI PUSH2 0xDC0 SWAP2 PUSH1 0x0 SWAP2 PUSH2 0xF15 JUMPI POP PUSH2 0x12FB JUMP JUMPDEST PUSH1 0x4 CALLDATALOAD PUSH1 0x0 MSTORE PUSH1 0x2 DUP3 MSTORE PUSH1 0xFF PUSH1 0x40 PUSH1 0x0 KECCAK256 SWAP2 PUSH2 0xDE4 PUSH1 0x5 DUP5 ADD SLOAD SWAP2 DUP3 AND ISZERO ISZERO PUSH2 0x13A7 JUMP JUMPDEST PUSH1 0xA0 SHR AND PUSH2 0xEC2 JUMPI PUSH1 0x0 SWAP1 CALLER PUSH1 0x0 MSTORE PUSH1 0x9 DUP2 ADD DUP4 MSTORE PUSH1 0x40 PUSH1 0x0 KECCAK256 DUP1 SLOAD PUSH1 0xFF DUP2 AND PUSH2 0xE9E JUMPI JUMPDEST POP POP CALLER PUSH1 0x0 MSTORE PUSH1 0xA DUP2 ADD DUP4 MSTORE PUSH1 0x40 PUSH1 0x0 KECCAK256 DUP1 SLOAD PUSH1 0xFF DUP2 AND PUSH2 0xE7D JUMPI JUMPDEST POP POP POP ISZERO PUSH2 0xE2F JUMPI STOP JUMPDEST PUSH1 0x84 SWAP1 PUSH1 0x40 MLOAD SWAP1 PUSH3 0x461BCD PUSH1 0xE5 SHL DUP3 MSTORE PUSH1 0x4 DUP3 ADD MSTORE PUSH1 0x21 PUSH1 0x24 DUP3 ADD MSTORE PUSH32 0x596F752068617665206E6F7420766F746564206F6E2074686973207265706F72 PUSH1 0x44 DUP3 ADD MSTORE PUSH1 0x1D PUSH1 0xFA SHL PUSH1 0x64 DUP3 ADD MSTORE REVERT JUMPDEST PUSH1 0x4 SWAP4 POP PUSH1 0xFF NOT AND SWAP1 SSTORE ADD PUSH2 0xE92 DUP2 SLOAD PUSH2 0x1483 JUMP JUMPDEST SWAP1 SSTORE PUSH1 0x1 DUP3 DUP1 DUP1 PUSH2 0xE25 JUMP JUMPDEST SWAP1 SWAP2 SWAP3 POP PUSH1 0xFF NOT AND SWAP1 SSTORE PUSH1 0x3 DUP2 ADD PUSH2 0xEB6 DUP2 SLOAD PUSH2 0x1483 JUMP JUMPDEST SWAP1 SSTORE PUSH1 0x1 SWAP1 DUP4 DUP1 PUSH2 0xE09 JUMP JUMPDEST PUSH1 0x40 MLOAD PUSH3 0x461BCD PUSH1 0xE5 SHL DUP2 MSTORE PUSH1 0x4 DUP2 ADD DUP4 SWAP1 MSTORE PUSH1 0x25 PUSH1 0x24 DUP3 ADD MSTORE PUSH32 0x43616E6E6F74206368616E676520766F7465206F6E207265736F6C7665642072 PUSH1 0x44 DUP3 ADD MSTORE PUSH5 0x195C1BDC9D PUSH1 0xDA SHL PUSH1 0x64 DUP3 ADD MSTORE PUSH1 0x84 SWAP1 REVERT JUMPDEST PUSH2 0xF2C SWAP2 POP DUP5 RETURNDATASIZE DUP7 GT PUSH2 0x298 JUMPI PUSH2 0x28A DUP2 DUP4 PUSH2 0x12C1 JUMP JUMPDEST DUP5 PUSH2 0x13D JUMP JUMPDEST CALLVALUE PUSH2 0xE9 JUMPI PUSH1 0x20 DUP1 PUSH1 0x3 NOT CALLDATASIZE ADD SLT PUSH2 0xE9 JUMPI PUSH1 0x4 CALLDATALOAD PUSH1 0x0 MSTORE PUSH1 0x2 DUP2 MSTORE PUSH1 0x40 PUSH1 0x0 KECCAK256 PUSH1 0x1 DUP1 PUSH1 0xA0 SHL SUB DUP3 DUP2 PUSH1 0x5 DUP5 ADD SLOAD AND PUSH2 0xF6D DUP2 ISZERO ISZERO PUSH2 0x13A7 JUMP JUMPDEST CALLER EQ SWAP2 DUP3 ISZERO PUSH2 0x102B JUMPI JUMPDEST POP POP ISZERO PUSH2 0xFD6 JUMPI PUSH1 0x8 ADD SWAP1 DUP2 SLOAD SWAP1 PUSH1 0xFF DUP3 AND PUSH2 0xF99 JUMPI POP PUSH1 0xFF NOT AND PUSH1 0x1 OR SWAP1 SSTORE STOP JUMPDEST PUSH1 0x64 SWAP1 PUSH1 0x40 MLOAD SWAP1 PUSH3 0x461BCD PUSH1 0xE5 SHL DUP3 MSTORE PUSH1 0x4 DUP3 ADD MSTORE PUSH1 0x16 PUSH1 0x24 DUP3 ADD MSTORE PUSH22 0x14995C1BDC9D08185B1C9958591E481C995B5BDD9959 PUSH1 0x52 SHL PUSH1 0x44 DUP3 ADD MSTORE REVERT JUMPDEST PUSH1 0x40 MLOAD PUSH3 0x461BCD PUSH1 0xE5 SHL DUP2 MSTORE PUSH1 0x4 DUP2 ADD DUP4 SWAP1 MSTORE PUSH1 0x27 PUSH1 0x24 DUP3 ADD MSTORE PUSH32 0x4F6E6C792063726561746F72206F722061646D696E2063616E2072656D6F7665 PUSH1 0x44 DUP3 ADD MSTORE PUSH7 0x81C995C1BDC9D PUSH1 0xCA SHL PUSH1 0x64 DUP3 ADD MSTORE PUSH1 0x84 SWAP1 REVERT JUMPDEST PUSH1 0x0 SLOAD PUSH1 0x40 MLOAD PUSH4 0x935E01B PUSH1 0xE2 SHL DUP2 MSTORE CALLER PUSH1 0x4 DUP3 ADD MSTORE SWAP4 POP DUP4 SWAP2 PUSH1 0x24 SWAP2 DUP4 SWAP2 AND GAS STATICCALL SWAP1 DUP2 ISZERO PUSH2 0x29F JUMPI PUSH1 0x0 SWAP2 PUSH2 0x1064 JUMPI JUMPDEST POP DUP3 DUP5 PUSH2 0xF77 JUMP JUMPDEST PUSH2 0x107B SWAP2 POP DUP4 RETURNDATASIZE DUP6 GT PUSH2 0x298 JUMPI PUSH2 0x28A DUP2 DUP4 PUSH2 0x12C1 JUMP JUMPDEST DUP4 PUSH2 0x105C JUMP JUMPDEST CALLVALUE PUSH2 0xE9 JUMPI PUSH1 0x0 CALLDATASIZE PUSH1 0x3 NOT ADD SLT PUSH2 0xE9 JUMPI PUSH1 0x20 PUSH1 0x1 SLOAD PUSH1 0x40 MLOAD SWAP1 DUP2 MSTORE RETURN JUMPDEST CALLVALUE PUSH2 0xE9 JUMPI PUSH1 0x20 DUP1 PUSH1 0x3 NOT CALLDATASIZE ADD SLT PUSH2 0xE9 JUMPI PUSH1 0x0 SLOAD PUSH1 0x40 MLOAD PUSH4 0x1FD3F77 PUSH1 0xE7 SHL DUP2 MSTORE CALLER PUSH1 0x4 DUP3 ADD MSTORE PUSH1 0x1 PUSH1 0x1 PUSH1 0xA0 SHL SUB SWAP3 SWAP2 DUP3 SWAP1 DUP3 SWAP1 PUSH1 0x24 SWAP1 DUP3 SWAP1 DUP8 AND GAS STATICCALL DUP1 ISZERO PUSH2 0x29F JUMPI PUSH2 0x10F5 SWAP2 PUSH1 0x0 SWAP2 PUSH2 0x11C1 JUMPI POP PUSH2 0x12FB JUMP JUMPDEST PUSH1 0x4 CALLDATALOAD PUSH1 0x0 MSTORE PUSH1 0x2 DUP2 MSTORE PUSH1 0x40 PUSH1 0x0 KECCAK256 SWAP2 PUSH1 0x5 DUP4 ADD SWAP2 DUP3 SLOAD SWAP2 DUP3 AND PUSH2 0x111A DUP2 ISZERO ISZERO PUSH2 0x13A7 JUMP JUMPDEST PUSH1 0xFF DUP4 PUSH1 0xA0 SHR AND ISZERO PUSH2 0x1183 JUMPI CALLER SUB PUSH2 0x113F JUMPI PUSH1 0xFF PUSH1 0xA0 SHL NOT DUP3 AND DUP4 SSTORE PUSH1 0x0 PUSH1 0x7 DUP6 ADD SSTORE STOP JUMPDEST PUSH1 0x64 SWAP1 PUSH1 0x40 MLOAD SWAP1 PUSH3 0x461BCD PUSH1 0xE5 SHL DUP3 MSTORE PUSH1 0x4 DUP3 ADD MSTORE PUSH1 0x1E PUSH1 0x24 DUP3 ADD MSTORE PUSH32 0x4F6E6C792063726561746F722063616E2072656F70656E207265706F72740000 PUSH1 0x44 DUP3 ADD MSTORE REVERT JUMPDEST PUSH1 0x40 MLOAD PUSH3 0x461BCD PUSH1 0xE5 SHL DUP2 MSTORE PUSH1 0x4 DUP2 ADD DUP4 SWAP1 MSTORE PUSH1 0x16 PUSH1 0x24 DUP3 ADD MSTORE PUSH22 0x14995C1BDC9D081A5CC81B9BDD081C995CDBDB1D9959 PUSH1 0x52 SHL PUSH1 0x44 DUP3 ADD MSTORE PUSH1 0x64 SWAP1 REVERT JUMPDEST PUSH2 0xF2C SWAP2 POP DUP4 RETURNDATASIZE DUP6 GT PUSH2 0x298 JUMPI PUSH2 0x28A DUP2 DUP4 PUSH2 0x12C1 JUMP JUMPDEST CALLVALUE PUSH2 0xE9 JUMPI PUSH1 0x40 CALLDATASIZE PUSH1 0x3 NOT ADD SLT PUSH2 0xE9 JUMPI PUSH1 0x24 CALLDATALOAD PUSH1 0x1 PUSH1 0x1 PUSH1 0xA0 SHL SUB DUP2 DUP2 AND SWAP2 DUP3 SWAP1 SUB PUSH2 0xE9 JUMPI PUSH1 0x40 SWAP2 PUSH1 0x4 CALLDATALOAD PUSH1 0x0 MSTORE PUSH1 0x2 PUSH1 0x20 MSTORE PUSH2 0x1222 DUP4 PUSH1 0x0 KECCAK256 SWAP3 PUSH1 0x5 DUP5 ADD SLOAD AND ISZERO ISZERO PUSH2 0x13A7 JUMP JUMPDEST PUSH1 0x0 MSTORE PUSH1 0x9 DUP2 ADD PUSH1 0x20 MSTORE PUSH1 0xA PUSH1 0xFF DUP4 PUSH1 0x0 KECCAK256 SLOAD AND SWAP2 ADD PUSH1 0x20 MSTORE PUSH1 0xFF DUP3 PUSH1 0x0 KECCAK256 SLOAD AND DUP3 MLOAD SWAP2 ISZERO ISZERO DUP3 MSTORE ISZERO ISZERO PUSH1 0x20 DUP3 ADD MSTORE RETURN JUMPDEST SWAP2 SWAP1 DUP3 MLOAD SWAP3 DUP4 DUP3 MSTORE PUSH1 0x0 JUMPDEST DUP5 DUP2 LT PUSH2 0x127F JUMPI POP POP DUP3 PUSH1 0x0 PUSH1 0x20 DUP1 SWAP5 SWAP6 DUP5 ADD ADD MSTORE PUSH1 0x1F DUP1 NOT SWAP2 ADD AND ADD ADD SWAP1 JUMP JUMPDEST PUSH1 0x20 DUP2 DUP4 ADD DUP2 ADD MLOAD DUP5 DUP4 ADD DUP3 ADD MSTORE ADD PUSH2 0x125E JUMP JUMPDEST SWAP2 DUP2 PUSH1 0x1F DUP5 ADD SLT ISZERO PUSH2 0xE9 JUMPI DUP3 CALLDATALOAD SWAP2 PUSH8 0xFFFFFFFFFFFFFFFF DUP4 GT PUSH2 0xE9 JUMPI PUSH1 0x20 DUP4 DUP2 DUP7 ADD SWAP6 ADD ADD GT PUSH2 0xE9 JUMPI JUMP JUMPDEST SWAP1 PUSH1 0x1F DUP1 NOT SWAP2 ADD AND DUP2 ADD SWAP1 DUP2 LT PUSH8 0xFFFFFFFFFFFFFFFF DUP3 GT OR PUSH2 0x65D JUMPI PUSH1 0x40 MSTORE JUMP JUMPDEST SWAP1 DUP2 PUSH1 0x20 SWAP2 SUB SLT PUSH2 0xE9 JUMPI MLOAD DUP1 ISZERO ISZERO DUP2 SUB PUSH2 0xE9 JUMPI SWAP1 JUMP JUMPDEST ISZERO PUSH2 0x1302 JUMPI JUMP JUMPDEST PUSH1 0x40 MLOAD PUSH3 0x461BCD PUSH1 0xE5 SHL DUP2 MSTORE PUSH1 0x20 PUSH1 0x4 DUP3 ADD MSTORE PUSH1 0x13 PUSH1 0x24 DUP3 ADD MSTORE PUSH19 0x155CD95C881B9BDD08185D5D1A1BDC9A5E9959 PUSH1 0x6A SHL PUSH1 0x44 DUP3 ADD MSTORE PUSH1 0x64 SWAP1 REVERT JUMPDEST PUSH1 0x0 NOT DUP2 EQ PUSH2 0x916 JUMPI PUSH1 0x1 ADD SWAP1 JUMP JUMPDEST SWAP1 PUSH1 0x1 DUP3 DUP2 SHR SWAP3 AND DUP1 ISZERO PUSH2 0x137C JUMPI JUMPDEST PUSH1 0x20 DUP4 LT EQ PUSH2 0x1366 JUMPI JUMP JUMPDEST PUSH4 0x4E487B71 PUSH1 0xE0 SHL PUSH1 0x0 MSTORE PUSH1 0x22 PUSH1 0x4 MSTORE PUSH1 0x24 PUSH1 0x0 REVERT JUMPDEST SWAP2 PUSH1 0x7F AND SWAP2 PUSH2 0x135B JUMP JUMPDEST SWAP1 DUP1 PUSH1 0x20 SWAP4 SWAP3 DUP2 DUP5 MSTORE DUP5 DUP5 ADD CALLDATACOPY PUSH1 0x0 DUP3 DUP3 ADD DUP5 ADD MSTORE PUSH1 0x1F ADD PUSH1 0x1F NOT AND ADD ADD SWAP1 JUMP JUMPDEST ISZERO PUSH2 0x13AE JUMPI JUMP JUMPDEST PUSH1 0x40 MLOAD PUSH3 0x461BCD PUSH1 0xE5 SHL DUP2 MSTORE PUSH1 0x20 PUSH1 0x4 DUP3 ADD MSTORE PUSH1 0x15 PUSH1 0x24 DUP3 ADD MSTORE PUSH21 0x14995C1BDC9D08191BD95CC81B9BDD08195E1A5CDD PUSH1 0x5A SHL PUSH1 0x44 DUP3 ADD MSTORE PUSH1 0x64 SWAP1 REVERT JUMPDEST ISZERO PUSH2 0x13F2 JUMPI JUMP JUMPDEST PUSH1 0x40 MLOAD PUSH3 0x461BCD PUSH1 0xE5 SHL DUP2 MSTORE PUSH1 0x20 PUSH1 0x4 DUP3 ADD MSTORE PUSH1 0x1E PUSH1 0x24 DUP3 ADD MSTORE PUSH32 0x43616E6E6F7420766F7465206F6E207265736F6C766564207265706F72740000 PUSH1 0x44 DUP3 ADD MSTORE PUSH1 0x64 SWAP1 REVERT JUMPDEST ISZERO PUSH2 0x143E JUMPI JUMP JUMPDEST PUSH1 0x40 MLOAD PUSH3 0x461BCD PUSH1 0xE5 SHL DUP2 MSTORE PUSH1 0x20 PUSH1 0x4 DUP3 ADD MSTORE PUSH1 0x1E PUSH1 0x24 DUP3 ADD MSTORE PUSH32 0x43616E6E6F7420766F7465206F6E20796F7572206F776E207265706F72740000 PUSH1 0x44 DUP3 ADD MSTORE PUSH1 0x64 SWAP1 REVERT JUMPDEST DUP1 ISZERO PUSH2 0x916 JUMPI PUSH1 0x0 NOT ADD SWAP1 JUMP JUMPDEST SWAP1 PUSH1 0x40 MLOAD SWAP2 DUP3 PUSH1 0x0 DUP3 SLOAD SWAP3 PUSH2 0x14A4 DUP5 PUSH2 0x134C JUMP JUMPDEST SWAP1 DUP2 DUP5 MSTORE PUSH1 0x1 SWAP5 DUP6 DUP2 AND SWAP1 DUP2 PUSH1 0x0 EQ PUSH2 0x1513 JUMPI POP PUSH1 0x1 EQ PUSH2 0x14D0 JUMPI JUMPDEST POP POP PUSH2 0x14CE SWAP3 POP SUB DUP4 PUSH2 0x12C1 JUMP JUMPDEST JUMP JUMPDEST SWAP1 SWAP4 SWAP2 POP PUSH1 0x0 MSTORE PUSH1 0x20 SWAP1 DUP2 PUSH1 0x0 KECCAK256 SWAP4 PUSH1 0x0 SWAP2 JUMPDEST DUP2 DUP4 LT PUSH2 0x14FB JUMPI POP POP PUSH2 0x14CE SWAP4 POP DUP3 ADD ADD CODESIZE DUP1 PUSH2 0x14C0 JUMP JUMPDEST DUP6 SLOAD DUP9 DUP5 ADD DUP6 ADD MSTORE SWAP5 DUP6 ADD SWAP5 DUP8 SWAP5 POP SWAP2 DUP4 ADD SWAP2 PUSH2 0x14E3 JUMP JUMPDEST SWAP2 POP POP PUSH2 0x14CE SWAP5 POP PUSH1 0x20 SWAP3 POP PUSH1 0xFF NOT AND DUP3 DUP5 ADD MSTORE ISZERO ISZERO PUSH1 0x5 SHL DUP3 ADD ADD CODESIZE DUP1 PUSH2 0x14C0 JUMP INVALID LOG2 PUSH5 0x6970667358 0x22 SLT KECCAK256 0xD5 0xB5 SWAP7 DUP10 PUSH20 0x38300507BF044F3AF47E8E25795D6423D9578C78 DUP11 KECCAK256 0xEF 0xB1 ADDRESS GAS 0xD4 PUSH5 0x736F6C6343 STOP ADDMOD EQ STOP CALLER "},"methodIdentifiers":{"authRegistry()":"629e025a","createReport(string,string,string)":"893fbece","downvoteReport(uint256)":"4efdde4a","getReport(uint256)":"4e7f9b19","getReportVotes(uint256)":"72862d5f","getUserVote(uint256,address)":"03c7881a","lastCreatedAt(address)":"b94afa71","removeReport(uint256)":"318b5c2a","removeVote(uint256)":"3f68fde4","reopenReport(uint256)":"143c809e","reportCount()":"185c6f84","resolveReport(uint256)":"6dfa5e61","upvoteReport(uint256)":"b1dc5e30"}}}}}