{"contracts/report/reports.sol":{"Reports":{"abi":[{"inputs":[{"internalType":"address","name":"_authRegistry","type":"address"}],"stateMutability":"nonpayable","type":"constructor"},{"anonymous":false,"inputs":[{"indexed":true,"internalType":"uint256","name":"reportId","type":"uint256"},{"indexed":true,"internalType":"address","name":"creator","type":"address"},{"indexed":false,"internalType":"string","name":"titleCid","type":"string"},{"indexed":false,"internalType":"string","name":"descriptionCid","type":"string"}],"name":"ReportCreated","type":"event"},{"anonymous":false,"inputs":[{"indexed":true,"internalType":"uint256","name":"reportId","type":"uint256"},{"indexed":true,"internalType":"address","name":"voter","type":"address"}],"name":"ReportDownvoted","type":"event"},{"anonymous":false,"inputs":[{"indexed":true,"internalType":"uint256","name":"reportId","type":"uint256"},{"indexed":true,"internalType":"address","name":"resolver","type":"address"},{"indexed":false,"internalType":"uint256","name":"resolvedAt","type":"uint256"}],"name":"ReportResolved","type":"event"},{"anonymous":false,"inputs":[{"indexed":true,"internalType":"uint256","name":"reportId","type":"uint256"},{"indexed":true,"internalType":"address","name":"voter","type":"address"}],"name":"ReportUpvoted","type":"event"},{"inputs":[],"name":"authRegistry","outputs":[{"internalType":"contract IAuthRegistry","name":"","type":"address"}],"stateMutability":"view","type":"function"},{"inputs":[{"internalType":"string","name":"titleCid","type":"string"},{"internalType":"string","name":"descriptionCid","type":"string"}],"name":"createReport","outputs":[{"internalType":"uint256","name":"","type":"uint256"}],"stateMutability":"nonpayable","type":"function"},{"inputs":[{"internalType":"uint256","name":"reportId","type":"uint256"}],"name":"downvoteReport","outputs":[],"stateMutability":"nonpayable","type":"function"},{"inputs":[{"internalType":"uint256","name":"reportId","type":"uint256"}],"name":"getReport","outputs":[{"internalType":"string","name":"titleCid","type":"string"},{"internalType":"string","name":"descriptionCid","type":"string"},{"internalType":"uint256","name":"upvotes","type":"uint256"},{"internalType":"uint256","name":"downvotes","type":"uint256"},{"internalType":"address","name":"creator","type":"address"},{"internalType":"bool","name":"resolved","type":"bool"},{"internalType":"uint256","name":"createdAt","type":"uint256"},{"internalType":"uint256","name":"resolvedAt","type":"uint256"},{"internalType":"bool","name":"removed","type":"bool"}],"stateMutability":"view","type":"function"},{"inputs":[{"internalType":"uint256","name":"reportId","type":"uint256"}],"name":"getReportVotes","outputs":[{"internalType":"uint256","name":"upvotes","type":"uint256"},{"internalType":"uint256","name":"downvotes","type":"uint256"},{"internalType":"int256","name":"netVotes","type":"int256"},{"internalType":"uint256","name":"totalVotes","type":"uint256"}],"stateMutability":"view","type":"function"},{"inputs":[{"internalType":"uint256","name":"reportId","type":"uint256"},{"internalType":"address","name":"user","type":"address"}],"name":"getUserVote","outputs":[{"internalType":"bool","name":"hasUpvoted","type":"bool"},{"internalType":"bool","name":"hasDownvoted","type":"bool"}],"stateMutability":"view","type":"function"},{"inputs":[{"internalType":"address","name":"","type":"address"}],"name":"lastCreatedAt","outputs":[{"internalType":"uint256","name":"","type":"uint256"}],"stateMutability":"view","type":"function"},{"inputs":[{"internalType":"uint256","name":"reportId","type":"uint256"}],"name":"removeReport","outputs":[],"stateMutability":"nonpayable","type":"function"},{"inputs":[{"internalType":"uint256","name":"reportId","type":"uint256"}],"name":"removeVote","outputs":[],"stateMutability":"nonpayable","type":"function"},{"inputs":[{"internalType":"uint256","name":"reportId","type":"uint256"}],"name":"reopenReport","outputs":[],"stateMutability":"nonpayable","type":"function"},{"inputs":[],"name":"reportCount","outputs":[{"internalType":"uint256","name":"","type":"uint256"}],"stateMutability":"view","type":"function"},{"inputs":[{"internalType":"uint256","name":"reportId","type":"uint256"}],"name":"resolveReport","outputs":[],"stateMutability":"nonpayable","type":"function"},{"inputs":[{"internalType":"uint256","name":"reportId","type":"uint256"}],"name":"upvoteReport","outputs":[],"stateMutability":"nonpayable","type":"function"}],"evm":{"bytecode":{"linkReferences":{},"object":"6080346100cb57601f61140338819003918201601f19168301916001600160401b038311848410176100d0578084926020946040528339810103126100cb57516001600160a01b038116908190036100cb57801561007a57600080546001600160a01b03191691909117905560405161131c90816100e78239f35b60405162461bcd60e51b8152602060048201526024808201527f4175746820726567697374727920616464726573732063616e6e6f74206265206044820152637a65726f60e01b6064820152608490fd5b600080fd5b634e487b7160e01b600052604160045260246000fdfe6080604052600436101561001257600080fd5b60003560e01c806303c7881a14610f88578063143c809e14610e4f578063185c6f8414610e31578063318b5c2a14610ce25780633f68fde414610b1b5780634ddb9c2a146106be5780634e7f9b19146105f25780634efdde4a14610476578063629e025a1461044d5780636dfa5e611461034157806372862d5f146102ab578063b1dc5e30146100ee5763b94afa71146100ab57600080fd5b346100e95760203660031901126100e9576004356001600160a01b038116908190036100e95760005260036020526020604060002054604051908152f35b600080fd5b346100e9576020806003193601126100e95760043560018060a01b036024838260005416604051928380926301fd3f7760e71b82523360048301525afa801561029f5761014391600091610272575b506110ab565b816000526002835260406000209061017460ff60048401549283169261016a841515611157565b60a01c161561119b565b60088201903360005281855260ff60406000205416610221579361019d600294953314156111e7565b336000526009830181526040600020805460ff8116610204575b505033600052526040600020600160ff19825416179055016101d981546110ed565b905533907faefa2723d1ab23a3d2bc1ed36a09aa9751210267d47050cd52f216086320c2bf600080a3005b60ff19169055600383016102188154611233565b905585806101b7565b60405162461bcd60e51b8152600481018690526024808201527f596f75206861766520616c7265616479207570766f74656420746869732072656044820152631c1bdc9d60e21b6064820152608490fd5b6102929150853d8711610298575b61028a8183611071565b810190611093565b8561013d565b503d610280565b6040513d6000823e3d90fd5b346100e95760203660031901126100e957600435600052600260205260406000206102e360018060a01b036004830154161515611157565b6003600282015491015490818103600083128282128116908383139015161761032b578282019081831161032b57608093604051938452602084015260408301526060820152f35b634e487b7160e01b600052601160045260246000fd5b346100e9576020806003193601126100e95760043560018060a01b036024838260005416604051928380926301fd3f7760e71b82523360048301525afa801561029f576103959160009161027257506110ab565b816000526002835260406000209060048201906103b782549182161515611157565b60ff8160a01c166104085760ff60a01b1916600160a01b1790554260069190910181905560405190815233927f914c345a830273245961b499776c4807af476e566aae53d84e12b6d93c2a6ceb91a3005b60405162461bcd60e51b815260048101869052601760248201527f5265706f727420616c7265616479207265736f6c7665640000000000000000006044820152606490fd5b346100e95760003660031901126100e9576000546040516001600160a01b039091168152602090f35b346100e9576020806003193601126100e95760043560018060a01b036024838260005416604051928380926301fd3f7760e71b82523360048301525afa801561029f576104ca9160009161027257506110ab565b81600052600283526040600020906104f160ff60048401549283169261016a841515611157565b60098201903360005281855260ff6040600020541661059e579361051a600394953314156111e7565b336000526008830181526040600020805460ff8116610581575b505033600052526040600020600160ff198254161790550161055681546110ed565b905533907fda742fa539d7c91231e20ddddc16f7a4ac31d0ab74c1d06b84118e320db5718b600080a3005b60ff19169055600283016105958154611233565b90558580610534565b60405162461bcd60e51b815260048101869052602660248201527f596f75206861766520616c726561647920646f776e766f7465642074686973206044820152651c995c1bdc9d60d21b6064820152608490fd5b346100e95760203660031901126100e957600435600052600260205261067f6040600020600481015460018060a01b03811690610630821515611157565b60028301549160038401549160ff600586015491600687015493826007890154169561068d61066a60016106638c611240565b9b01611240565b6040519b8c9b8c6101208091528d0190611031565b908b820360208d0152611031565b9760408a01526060890152608088015260a01c16151560a086015260c085015260e084015215156101008301520390f35b346100e95760403660031901126100e95760043567ffffffffffffffff81116100e9576106ef903690600401611003565b60243567ffffffffffffffff81116100e95761070f903690600401611003565b6000546040516301fd3f7760e71b815233600482015290602090829060249082906001600160a01b03165afa801561029f5761075291600091610afc57506110ab565b8215610ab7578015610a72576107696001546110ed565b928360015583600052600260205260406000209167ffffffffffffffff82116109a75761079683546110fc565b601f90818111610a2d575b508260008282116001146109c8576000916109bd575b508360011b906000198560031b1c19161784555b600184019067ffffffffffffffff83116109a7576107e982546110fc565b818111610962575b50918693916020989360009083116001146108cf5760067fce315b94586af2d2b56800f8ccff89a95e8c912ce5569f6ffabf2f1f8dbee6a9969784936108b99560009485916108c4575b508560011b9085198760031b1c19161790555b60048101805460ff60a01b193316906affffffffffffffffffffff60a81b1617905582600282015582600382015542600582015501553360005260038952426040600020556108aa604051948594604086526040860191611136565b908382038a8501523397611136565b0390a3604051908152f35b90508b01358e61083b565b9590601f198316816000528a6000209060005b8181106109485750926000926006927fce315b94586af2d2b56800f8ccff89a95e8c912ce5569f6ffabf2f1f8dbee6a9999a876108b998971061092f575b5050600185811b01905561084e565b851960f88860031b161c19908d01351690558d80610920565b8a8a01358355988c01988b98506001909201918c016108e2565b8260005260206000208280860160051c8201926020871061099e575b0160051c01905b81811061099257506107f1565b60008155600101610985565b9250819261097e565b634e487b7160e01b600052604160045260246000fd5b9050870135886107b7565b60008681526020812092505b601f1986168110610a15575084601f198116106109fb575b5050600183811b0184556107cb565b880135600019600386901b60f8161c1916905587806109ec565b9091602060018192858d0135815501930191016109d4565b8460005260206000208280860160051c82019260208710610a69575b0160051c01905b818110610a5d57506107a1565b60008155600101610a50565b92508192610a49565b60405162461bcd60e51b815260206004820152601f60248201527f4465736372697074696f6e204349442063616e6e6f7420626520656d707479006044820152606490fd5b60405162461bcd60e51b815260206004820152601960248201527f5469746c65204349442063616e6e6f7420626520656d707479000000000000006044820152606490fd5b610b15915060203d6020116102985761028a8183611071565b8661013d565b346100e9576020806003193601126100e9576000546040516301fd3f7760e71b81523360048201526001600160a01b039183908290602490829086165afa801561029f57610b7091600091610cc557506110ab565b6004356000526002825260ff604060002091610b9460048401549182161515611157565b60a01c16610c7257600090336000526008810183526040600020805460ff8116610c4e575b5050336000526009810183526040600020805460ff8116610c2d575b50505015610bdf57005b6084906040519062461bcd60e51b82526004820152602160248201527f596f752068617665206e6f7420766f746564206f6e2074686973207265706f726044820152601d60fa1b6064820152fd5b6003935060ff1916905501610c428154611233565b90556001828080610bd5565b9091925060ff1916905560028101610c668154611233565b90556001908380610bb9565b60405162461bcd60e51b815260048101839052602560248201527f43616e6e6f74206368616e676520766f7465206f6e207265736f6c7665642072604482015264195c1bdc9d60da1b6064820152608490fd5b610cdc9150843d86116102985761028a8183611071565b8461013d565b346100e9576020806003193601126100e95760043560005260028152604060002060018060a01b038281600484015416610d1d811515611157565b3314918215610ddb575b505015610d86576007019081549060ff8216610d49575060ff19166001179055005b6064906040519062461bcd60e51b82526004820152601660248201527514995c1bdc9d08185b1c9958591e481c995b5bdd995960521b6044820152fd5b60405162461bcd60e51b815260048101839052602760248201527f4f6e6c792063726561746f72206f722061646d696e2063616e2072656d6f7665604482015266081c995c1bdc9d60ca1b6064820152608490fd5b600054604051630935e01b60e21b8152336004820152935083916024918391165afa90811561029f57600091610e14575b508284610d27565b610e2b9150833d85116102985761028a8183611071565b83610e0c565b346100e95760003660031901126100e9576020600154604051908152f35b346100e9576020806003193601126100e9576000546040516301fd3f7760e71b81523360048201526001600160a01b03929182908290602490829087165afa801561029f57610ea591600091610f7157506110ab565b6004356000526002815260406000209160048301918254918216610eca811515611157565b60ff8360a01c1615610f33573303610eef5760ff60a01b198216835560006006850155005b6064906040519062461bcd60e51b82526004820152601e60248201527f4f6e6c792063726561746f722063616e2072656f70656e207265706f727400006044820152fd5b60405162461bcd60e51b815260048101839052601660248201527514995c1bdc9d081a5cc81b9bdd081c995cdbdb1d995960521b6044820152606490fd5b610cdc9150833d85116102985761028a8183611071565b346100e95760403660031901126100e9576024356001600160a01b03818116918290036100e9576040916004356000526002602052610fd283600020926004840154161515611157565b60005260088101602052600960ff836000205416910160205260ff8260002054168251911515825215156020820152f35b9181601f840112156100e95782359167ffffffffffffffff83116100e957602083818601950101116100e957565b919082519283825260005b84811061105d575050826000602080949584010152601f8019910116010190565b60208183018101518483018201520161103c565b90601f8019910116810190811067ffffffffffffffff8211176109a757604052565b908160209103126100e9575180151581036100e95790565b156110b257565b60405162461bcd60e51b8152602060048201526013602482015272155cd95c881b9bdd08185d5d1a1bdc9a5e9959606a1b6044820152606490fd5b600019811461032b5760010190565b90600182811c9216801561112c575b602083101461111657565b634e487b7160e01b600052602260045260246000fd5b91607f169161110b565b908060209392818452848401376000828201840152601f01601f1916010190565b1561115e57565b60405162461bcd60e51b815260206004820152601560248201527414995c1bdc9d08191bd95cc81b9bdd08195e1a5cdd605a1b6044820152606490fd5b156111a257565b60405162461bcd60e51b815260206004820152601e60248201527f43616e6e6f7420766f7465206f6e207265736f6c766564207265706f727400006044820152606490fd5b156111ee57565b60405162461bcd60e51b815260206004820152601e60248201527f43616e6e6f7420766f7465206f6e20796f7572206f776e207265706f727400006044820152606490fd5b801561032b576000190190565b9060405191826000825492611254846110fc565b9081845260019485811690816000146112c35750600114611280575b505061127e92500383611071565b565b9093915060005260209081600020936000915b8183106112ab57505061127e93508201013880611270565b85548884018501529485019487945091830191611293565b91505061127e94506020925060ff191682840152151560051b820101388061127056fea26469706673582212209c02a608ca8eae33a6aca4accb88e247d3ae132cd1cce20ddeac5c30c816e70c64736f6c63430008140033","opcodes":"PUSH1 0x80 CALLVALUE PUSH2 0xCB JUMPI PUSH1 0x1F PUSH2 0x1403 CODESIZE DUP2 SWAP1 SUB SWAP2 DUP3 ADD PUSH1 0x1F NOT AND DUP4 ADD SWAP2 PUSH1 0x1 PUSH1 0x1 PUSH1 0x40 SHL SUB DUP4 GT DUP5 DUP5 LT OR PUSH2 0xD0 JUMPI DUP1 DUP5 SWAP3 PUSH1 0x20 SWAP5 PUSH1 0x40 MSTORE DUP4 CODECOPY DUP2 ADD SUB SLT PUSH2 0xCB JUMPI MLOAD PUSH1 0x1 PUSH1 0x1 PUSH1 0xA0 SHL SUB DUP2 AND SWAP1 DUP2 SWAP1 SUB PUSH2 0xCB JUMPI DUP1 ISZERO PUSH2 0x7A JUMPI PUSH1 0x0 DUP1 SLOAD PUSH1 0x1 PUSH1 0x1 PUSH1 0xA0 SHL SUB NOT AND SWAP2 SWAP1 SWAP2 OR SWAP1 SSTORE PUSH1 0x40 MLOAD PUSH2 0x131C SWAP1 DUP2 PUSH2 0xE7 DUP3 CODECOPY RETURN JUMPDEST PUSH1 0x40 MLOAD PUSH3 0x461BCD PUSH1 0xE5 SHL DUP2 MSTORE PUSH1 0x20 PUSH1 0x4 DUP3 ADD MSTORE PUSH1 0x24 DUP1 DUP3 ADD MSTORE PUSH32 0x4175746820726567697374727920616464726573732063616E6E6F7420626520 PUSH1 0x44 DUP3 ADD MSTORE PUSH4 0x7A65726F PUSH1 0xE0 SHL PUSH1 0x64 DUP3 ADD MSTORE PUSH1 0x84 SWAP1 REVERT JUMPDEST PUSH1 0x0 DUP1 REVERT JUMPDEST PUSH4 0x4E487B71 PUSH1 0xE0 SHL PUSH1 0x0 MSTORE PUSH1 0x41 PUSH1 0x4 MSTORE PUSH1 0x24 PUSH1 0x0 REVERT INVALID PUSH1 0x80 PUSH1 0x40 MSTORE PUSH1 0x4 CALLDATASIZE LT ISZERO PUSH2 0x12 JUMPI PUSH1 0x0 DUP1 REVERT JUMPDEST PUSH1 0x0 CALLDATALOAD PUSH1 0xE0 SHR DUP1 PUSH4 0x3C7881A EQ PUSH2 0xF88 JUMPI DUP1 PUSH4 0x143C809E EQ PUSH2 0xE4F JUMPI DUP1 PUSH4 0x185C6F84 EQ PUSH2 0xE31 JUMPI DUP1 PUSH4 0x318B5C2A EQ PUSH2 0xCE2 JUMPI DUP1 PUSH4 0x3F68FDE4 EQ PUSH2 0xB1B JUMPI DUP1 PUSH4 0x4DDB9C2A EQ PUSH2 0x6BE JUMPI DUP1 PUSH4 0x4E7F9B19 EQ PUSH2 0x5F2 JUMPI DUP1 PUSH4 0x4EFDDE4A EQ PUSH2 0x476 JUMPI DUP1 PUSH4 0x629E025A EQ PUSH2 0x44D JUMPI DUP1 PUSH4 0x6DFA5E61 EQ PUSH2 0x341 JUMPI DUP1 PUSH4 0x72862D5F EQ PUSH2 0x2AB JUMPI DUP1 PUSH4 0xB1DC5E30 EQ PUSH2 0xEE JUMPI PUSH4 0xB94AFA71 EQ PUSH2 0xAB JUMPI PUSH1 0x0 DUP1 REVERT JUMPDEST CALLVALUE PUSH2 0xE9 JUMPI PUSH1 0x20 CALLDATASIZE PUSH1 0x3 NOT ADD SLT PUSH2 0xE9 JUMPI PUSH1 0x4 CALLDATALOAD PUSH1 0x1 PUSH1 0x1 PUSH1 0xA0 SHL SUB DUP2 AND SWAP1 DUP2 SWAP1 SUB PUSH2 0xE9 JUMPI PUSH1 0x0 MSTORE PUSH1 0x3 PUSH1 0x20 MSTORE PUSH1 0x20 PUSH1 0x40 PUSH1 0x0 KECCAK256 SLOAD PUSH1 0x40 MLOAD SWAP1 DUP2 MSTORE RETURN JUMPDEST PUSH1 0x0 DUP1 REVERT JUMPDEST CALLVALUE PUSH2 0xE9 JUMPI PUSH1 0x20 DUP1 PUSH1 0x3 NOT CALLDATASIZE ADD SLT PUSH2 0xE9 JUMPI PUSH1 0x4 CALLDATALOAD PUSH1 0x1 DUP1 PUSH1 0xA0 SHL SUB PUSH1 0x24 DUP4 DUP3 PUSH1 0x0 SLOAD AND PUSH1 0x40 MLOAD SWAP3 DUP4 DUP1 SWAP3 PUSH4 0x1FD3F77 PUSH1 0xE7 SHL DUP3 MSTORE CALLER PUSH1 0x4 DUP4 ADD MSTORE GAS STATICCALL DUP1 ISZERO PUSH2 0x29F JUMPI PUSH2 0x143 SWAP2 PUSH1 0x0 SWAP2 PUSH2 0x272 JUMPI JUMPDEST POP PUSH2 0x10AB JUMP JUMPDEST DUP2 PUSH1 0x0 MSTORE PUSH1 0x2 DUP4 MSTORE PUSH1 0x40 PUSH1 0x0 KECCAK256 SWAP1 PUSH2 0x174 PUSH1 0xFF PUSH1 0x4 DUP5 ADD SLOAD SWAP3 DUP4 AND SWAP3 PUSH2 0x16A DUP5 ISZERO ISZERO PUSH2 0x1157 JUMP JUMPDEST PUSH1 0xA0 SHR AND ISZERO PUSH2 0x119B JUMP JUMPDEST PUSH1 0x8 DUP3 ADD SWAP1 CALLER PUSH1 0x0 MSTORE DUP2 DUP6 MSTORE PUSH1 0xFF PUSH1 0x40 PUSH1 0x0 KECCAK256 SLOAD AND PUSH2 0x221 JUMPI SWAP4 PUSH2 0x19D PUSH1 0x2 SWAP5 SWAP6 CALLER EQ ISZERO PUSH2 0x11E7 JUMP JUMPDEST CALLER PUSH1 0x0 MSTORE PUSH1 0x9 DUP4 ADD DUP2 MSTORE PUSH1 0x40 PUSH1 0x0 KECCAK256 DUP1 SLOAD PUSH1 0xFF DUP2 AND PUSH2 0x204 JUMPI JUMPDEST POP POP CALLER PUSH1 0x0 MSTORE MSTORE PUSH1 0x40 PUSH1 0x0 KECCAK256 PUSH1 0x1 PUSH1 0xFF NOT DUP3 SLOAD AND OR SWAP1 SSTORE ADD PUSH2 0x1D9 DUP2 SLOAD PUSH2 0x10ED JUMP JUMPDEST SWAP1 SSTORE CALLER SWAP1 PUSH32 0xAEFA2723D1AB23A3D2BC1ED36A09AA9751210267D47050CD52F216086320C2BF PUSH1 0x0 DUP1 LOG3 STOP JUMPDEST PUSH1 0xFF NOT AND SWAP1 SSTORE PUSH1 0x3 DUP4 ADD PUSH2 0x218 DUP2 SLOAD PUSH2 0x1233 JUMP JUMPDEST SWAP1 SSTORE DUP6 DUP1 PUSH2 0x1B7 JUMP JUMPDEST PUSH1 0x40 MLOAD PUSH3 0x461BCD PUSH1 0xE5 SHL DUP2 MSTORE PUSH1 0x4 DUP2 ADD DUP7 SWAP1 MSTORE PUSH1 0x24 DUP1 DUP3 ADD MSTORE PUSH32 0x596F75206861766520616C7265616479207570766F7465642074686973207265 PUSH1 0x44 DUP3 ADD MSTORE PUSH4 0x1C1BDC9D PUSH1 0xE2 SHL PUSH1 0x64 DUP3 ADD MSTORE PUSH1 0x84 SWAP1 REVERT JUMPDEST PUSH2 0x292 SWAP2 POP DUP6 RETURNDATASIZE DUP8 GT PUSH2 0x298 JUMPI JUMPDEST PUSH2 0x28A DUP2 DUP4 PUSH2 0x1071 JUMP JUMPDEST DUP2 ADD SWAP1 PUSH2 0x1093 JUMP JUMPDEST DUP6 PUSH2 0x13D JUMP JUMPDEST POP RETURNDATASIZE PUSH2 0x280 JUMP JUMPDEST PUSH1 0x40 MLOAD RETURNDATASIZE PUSH1 0x0 DUP3 RETURNDATACOPY RETURNDATASIZE SWAP1 REVERT JUMPDEST CALLVALUE PUSH2 0xE9 JUMPI PUSH1 0x20 CALLDATASIZE PUSH1 0x3 NOT ADD SLT PUSH2 0xE9 JUMPI PUSH1 0x4 CALLDATALOAD PUSH1 0x0 MSTORE PUSH1 0x2 PUSH1 0x20 MSTORE PUSH1 0x40 PUSH1 0x0 KECCAK256 PUSH2 0x2E3 PUSH1 0x1 DUP1 PUSH1 0xA0 SHL SUB PUSH1 0x4 DUP4 ADD SLOAD AND ISZERO ISZERO PUSH2 0x1157 JUMP JUMPDEST PUSH1 0x3 PUSH1 0x2 DUP3 ADD SLOAD SWAP2 ADD SLOAD SWAP1 DUP2 DUP2 SUB PUSH1 0x0 DUP4 SLT DUP3 DUP3 SLT DUP2 AND SWAP1 DUP4 DUP4 SGT SWAP1 ISZERO AND OR PUSH2 0x32B JUMPI DUP3 DUP3 ADD SWAP1 DUP2 DUP4 GT PUSH2 0x32B JUMPI PUSH1 0x80 SWAP4 PUSH1 0x40 MLOAD SWAP4 DUP5 MSTORE PUSH1 0x20 DUP5 ADD MSTORE PUSH1 0x40 DUP4 ADD MSTORE PUSH1 0x60 DUP3 ADD MSTORE RETURN JUMPDEST PUSH4 0x4E487B71 PUSH1 0xE0 SHL PUSH1 0x0 MSTORE PUSH1 0x11 PUSH1 0x4 MSTORE PUSH1 0x24 PUSH1 0x0 REVERT JUMPDEST CALLVALUE PUSH2 0xE9 JUMPI PUSH1 0x20 DUP1 PUSH1 0x3 NOT CALLDATASIZE ADD SLT PUSH2 0xE9 JUMPI PUSH1 0x4 CALLDATALOAD PUSH1 0x1 DUP1 PUSH1 0xA0 SHL SUB PUSH1 0x24 DUP4 DUP3 PUSH1 0x0 SLOAD AND PUSH1 0x40 MLOAD SWAP3 DUP4 DUP1 SWAP3 PUSH4 0x1FD3F77 PUSH1 0xE7 SHL DUP3 MSTORE CALLER PUSH1 0x4 DUP4 ADD MSTORE GAS STATICCALL DUP1 ISZERO PUSH2 0x29F JUMPI PUSH2 0x395 SWAP2 PUSH1 0x0 SWAP2 PUSH2 0x272 JUMPI POP PUSH2 0x10AB JUMP JUMPDEST DUP2 PUSH1 0x0 MSTORE PUSH1 0x2 DUP4 MSTORE PUSH1 0x40 PUSH1 0x0 KECCAK256 SWAP1 PUSH1 0x4 DUP3 ADD SWAP1 PUSH2 0x3B7 DUP3 SLOAD SWAP2 DUP3 AND ISZERO ISZERO PUSH2 0x1157 JUMP JUMPDEST PUSH1 0xFF DUP2 PUSH1 0xA0 SHR AND PUSH2 0x408 JUMPI PUSH1 0xFF PUSH1 0xA0 SHL NOT AND PUSH1 0x1 PUSH1 0xA0 SHL OR SWAP1 SSTORE TIMESTAMP PUSH1 0x6 SWAP2 SWAP1 SWAP2 ADD DUP2 SWAP1 SSTORE PUSH1 0x40 MLOAD SWAP1 DUP2 MSTORE CALLER SWAP3 PUSH32 0x914C345A830273245961B499776C4807AF476E566AAE53D84E12B6D93C2A6CEB SWAP2 LOG3 STOP JUMPDEST PUSH1 0x40 MLOAD PUSH3 0x461BCD PUSH1 0xE5 SHL DUP2 MSTORE PUSH1 0x4 DUP2 ADD DUP7 SWAP1 MSTORE PUSH1 0x17 PUSH1 0x24 DUP3 ADD MSTORE PUSH32 0x5265706F727420616C7265616479207265736F6C766564000000000000000000 PUSH1 0x44 DUP3 ADD MSTORE PUSH1 0x64 SWAP1 REVERT JUMPDEST CALLVALUE PUSH2 0xE9 JUMPI PUSH1 0x0 CALLDATASIZE PUSH1 0x3 NOT ADD SLT PUSH2 0xE9 JUMPI PUSH1 0x0 SLOAD PUSH1 0x40 MLOAD PUSH1 0x1 PUSH1 0x1 PUSH1 0xA0 SHL SUB SWAP1 SWAP2 AND DUP2 MSTORE PUSH1 0x20 SWAP1 RETURN JUMPDEST CALLVALUE PUSH2 0xE9 JUMPI PUSH1 0x20 DUP1 PUSH1 0x3 NOT CALLDATASIZE ADD SLT PUSH2 0xE9 JUMPI PUSH1 0x4 CALLDATALOAD PUSH1 0x1 DUP1 PUSH1 0xA0 SHL SUB PUSH1 0x24 DUP4 DUP3 PUSH1 0x0 SLOAD AND PUSH1 0x40 MLOAD SWAP3 DUP4 DUP1 SWAP3 PUSH4 0x1FD3F77 PUSH1 0xE7 SHL DUP3 MSTORE CALLER PUSH1 0x4 DUP4 ADD MSTORE GAS STATICCALL DUP1 ISZERO PUSH2 0x29F JUMPI PUSH2 0x4CA SWAP2 PUSH1 0x0 SWAP2 PUSH2 0x272 JUMPI POP PUSH2 0x10AB JUMP JUMPDEST DUP2 PUSH1 0x0 MSTORE PUSH1 0x2 DUP4 MSTORE PUSH1 0x40 PUSH1 0x0 KECCAK256 SWAP1 PUSH2 0x4F1 PUSH1 0xFF PUSH1 0x4 DUP5 ADD SLOAD SWAP3 DUP4 AND SWAP3 PUSH2 0x16A DUP5 ISZERO ISZERO PUSH2 0x1157 JUMP JUMPDEST PUSH1 0x9 DUP3 ADD SWAP1 CALLER PUSH1 0x0 MSTORE DUP2 DUP6 MSTORE PUSH1 0xFF PUSH1 0x40 PUSH1 0x0 KECCAK256 SLOAD AND PUSH2 0x59E JUMPI SWAP4 PUSH2 0x51A PUSH1 0x3 SWAP5 SWAP6 CALLER EQ ISZERO PUSH2 0x11E7 JUMP JUMPDEST CALLER PUSH1 0x0 MSTORE PUSH1 0x8 DUP4 ADD DUP2 MSTORE PUSH1 0x40 PUSH1 0x0 KECCAK256 DUP1 SLOAD PUSH1 0xFF DUP2 AND PUSH2 0x581 JUMPI JUMPDEST POP POP CALLER PUSH1 0x0 MSTORE MSTORE PUSH1 0x40 PUSH1 0x0 KECCAK256 PUSH1 0x1 PUSH1 0xFF NOT DUP3 SLOAD AND OR SWAP1 SSTORE ADD PUSH2 0x556 DUP2 SLOAD PUSH2 0x10ED JUMP JUMPDEST SWAP1 SSTORE CALLER SWAP1 PUSH32 0xDA742FA539D7C91231E20DDDDC16F7A4AC31D0AB74C1D06B84118E320DB5718B PUSH1 0x0 DUP1 LOG3 STOP JUMPDEST PUSH1 0xFF NOT AND SWAP1 SSTORE PUSH1 0x2 DUP4 ADD PUSH2 0x595 DUP2 SLOAD PUSH2 0x1233 JUMP JUMPDEST SWAP1 SSTORE DUP6 DUP1 PUSH2 0x534 JUMP JUMPDEST PUSH1 0x40 MLOAD PUSH3 0x461BCD PUSH1 0xE5 SHL DUP2 MSTORE PUSH1 0x4 DUP2 ADD DUP7 SWAP1 MSTORE PUSH1 0x26 PUSH1 0x24 DUP3 ADD MSTORE PUSH32 0x596F75206861766520616C726561647920646F776E766F746564207468697320 PUSH1 0x44 DUP3 ADD MSTORE PUSH6 0x1C995C1BDC9D PUSH1 0xD2 SHL PUSH1 0x64 DUP3 ADD MSTORE PUSH1 0x84 SWAP1 REVERT JUMPDEST CALLVALUE PUSH2 0xE9 JUMPI PUSH1 0x20 CALLDATASIZE PUSH1 0x3 NOT ADD SLT PUSH2 0xE9 JUMPI PUSH1 0x4 CALLDATALOAD PUSH1 0x0 MSTORE PUSH1 0x2 PUSH1 0x20 MSTORE PUSH2 0x67F PUSH1 0x40 PUSH1 0x0 KECCAK256 PUSH1 0x4 DUP2 ADD SLOAD PUSH1 0x1 DUP1 PUSH1 0xA0 SHL SUB DUP2 AND SWAP1 PUSH2 0x630 DUP3 ISZERO ISZERO PUSH2 0x1157 JUMP JUMPDEST PUSH1 0x2 DUP4 ADD SLOAD SWAP2 PUSH1 0x3 DUP5 ADD SLOAD SWAP2 PUSH1 0xFF PUSH1 0x5 DUP7 ADD SLOAD SWAP2 PUSH1 0x6 DUP8 ADD SLOAD SWAP4 DUP3 PUSH1 0x7 DUP10 ADD SLOAD AND SWAP6 PUSH2 0x68D PUSH2 0x66A PUSH1 0x1 PUSH2 0x663 DUP13 PUSH2 0x1240 JUMP JUMPDEST SWAP12 ADD PUSH2 0x1240 JUMP JUMPDEST PUSH1 0x40 MLOAD SWAP12 DUP13 SWAP12 DUP13 PUSH2 0x120 DUP1 SWAP2 MSTORE DUP14 ADD SWAP1 PUSH2 0x1031 JUMP JUMPDEST SWAP1 DUP12 DUP3 SUB PUSH1 0x20 DUP14 ADD MSTORE PUSH2 0x1031 JUMP JUMPDEST SWAP8 PUSH1 0x40 DUP11 ADD MSTORE PUSH1 0x60 DUP10 ADD MSTORE PUSH1 0x80 DUP9 ADD MSTORE PUSH1 0xA0 SHR AND ISZERO ISZERO PUSH1 0xA0 DUP7 ADD MSTORE PUSH1 0xC0 DUP6 ADD MSTORE PUSH1 0xE0 DUP5 ADD MSTORE ISZERO ISZERO PUSH2 0x100 DUP4 ADD MSTORE SUB SWAP1 RETURN JUMPDEST CALLVALUE PUSH2 0xE9 JUMPI PUSH1 0x40 CALLDATASIZE PUSH1 0x3 NOT ADD SLT PUSH2 0xE9 JUMPI PUSH1 0x4 CALLDATALOAD PUSH8 0xFFFFFFFFFFFFFFFF DUP2 GT PUSH2 0xE9 JUMPI PUSH2 0x6EF SWAP1 CALLDATASIZE SWAP1 PUSH1 0x4 ADD PUSH2 0x1003 JUMP JUMPDEST PUSH1 0x24 CALLDATALOAD PUSH8 0xFFFFFFFFFFFFFFFF DUP2 GT PUSH2 0xE9 JUMPI PUSH2 0x70F SWAP1 CALLDATASIZE SWAP1 PUSH1 0x4 ADD PUSH2 0x1003 JUMP JUMPDEST PUSH1 0x0 SLOAD PUSH1 0x40 MLOAD PUSH4 0x1FD3F77 PUSH1 0xE7 SHL DUP2 MSTORE CALLER PUSH1 0x4 DUP3 ADD MSTORE SWAP1 PUSH1 0x20 SWAP1 DUP3 SWAP1 PUSH1 0x24 SWAP1 DUP3 SWAP1 PUSH1 0x1 PUSH1 0x1 PUSH1 0xA0 SHL SUB AND GAS STATICCALL DUP1 ISZERO PUSH2 0x29F JUMPI PUSH2 0x752 SWAP2 PUSH1 0x0 SWAP2 PUSH2 0xAFC JUMPI POP PUSH2 0x10AB JUMP JUMPDEST DUP3 ISZERO PUSH2 0xAB7 JUMPI DUP1 ISZERO PUSH2 0xA72 JUMPI PUSH2 0x769 PUSH1 0x1 SLOAD PUSH2 0x10ED JUMP JUMPDEST SWAP3 DUP4 PUSH1 0x1 SSTORE DUP4 PUSH1 0x0 MSTORE PUSH1 0x2 PUSH1 0x20 MSTORE PUSH1 0x40 PUSH1 0x0 KECCAK256 SWAP2 PUSH8 0xFFFFFFFFFFFFFFFF DUP3 GT PUSH2 0x9A7 JUMPI PUSH2 0x796 DUP4 SLOAD PUSH2 0x10FC JUMP JUMPDEST PUSH1 0x1F SWAP1 DUP2 DUP2 GT PUSH2 0xA2D JUMPI JUMPDEST POP DUP3 PUSH1 0x0 DUP3 DUP3 GT PUSH1 0x1 EQ PUSH2 0x9C8 JUMPI PUSH1 0x0 SWAP2 PUSH2 0x9BD JUMPI JUMPDEST POP DUP4 PUSH1 0x1 SHL SWAP1 PUSH1 0x0 NOT DUP6 PUSH1 0x3 SHL SHR NOT AND OR DUP5 SSTORE JUMPDEST PUSH1 0x1 DUP5 ADD SWAP1 PUSH8 0xFFFFFFFFFFFFFFFF DUP4 GT PUSH2 0x9A7 JUMPI PUSH2 0x7E9 DUP3 SLOAD PUSH2 0x10FC JUMP JUMPDEST DUP2 DUP2 GT PUSH2 0x962 JUMPI JUMPDEST POP SWAP2 DUP7 SWAP4 SWAP2 PUSH1 0x20 SWAP9 SWAP4 PUSH1 0x0 SWAP1 DUP4 GT PUSH1 0x1 EQ PUSH2 0x8CF JUMPI PUSH1 0x6 PUSH32 0xCE315B94586AF2D2B56800F8CCFF89A95E8C912CE5569F6FFABF2F1F8DBEE6A9 SWAP7 SWAP8 DUP5 SWAP4 PUSH2 0x8B9 SWAP6 PUSH1 0x0 SWAP5 DUP6 SWAP2 PUSH2 0x8C4 JUMPI JUMPDEST POP DUP6 PUSH1 0x1 SHL SWAP1 DUP6 NOT DUP8 PUSH1 0x3 SHL SHR NOT AND OR SWAP1 SSTORE JUMPDEST PUSH1 0x4 DUP2 ADD DUP1 SLOAD PUSH1 0xFF PUSH1 0xA0 SHL NOT CALLER AND SWAP1 PUSH11 0xFFFFFFFFFFFFFFFFFFFFFF PUSH1 0xA8 SHL AND OR SWAP1 SSTORE DUP3 PUSH1 0x2 DUP3 ADD SSTORE DUP3 PUSH1 0x3 DUP3 ADD SSTORE TIMESTAMP PUSH1 0x5 DUP3 ADD SSTORE ADD SSTORE CALLER PUSH1 0x0 MSTORE PUSH1 0x3 DUP10 MSTORE TIMESTAMP PUSH1 0x40 PUSH1 0x0 KECCAK256 SSTORE PUSH2 0x8AA PUSH1 0x40 MLOAD SWAP5 DUP6 SWAP5 PUSH1 0x40 DUP7 MSTORE PUSH1 0x40 DUP7 ADD SWAP2 PUSH2 0x1136 JUMP JUMPDEST SWAP1 DUP4 DUP3 SUB DUP11 DUP6 ADD MSTORE CALLER SWAP8 PUSH2 0x1136 JUMP JUMPDEST SUB SWAP1 LOG3 PUSH1 0x40 MLOAD SWAP1 DUP2 MSTORE RETURN JUMPDEST SWAP1 POP DUP12 ADD CALLDATALOAD DUP15 PUSH2 0x83B JUMP JUMPDEST SWAP6 SWAP1 PUSH1 0x1F NOT DUP4 AND DUP2 PUSH1 0x0 MSTORE DUP11 PUSH1 0x0 KECCAK256 SWAP1 PUSH1 0x0 JUMPDEST DUP2 DUP2 LT PUSH2 0x948 JUMPI POP SWAP3 PUSH1 0x0 SWAP3 PUSH1 0x6 SWAP3 PUSH32 0xCE315B94586AF2D2B56800F8CCFF89A95E8C912CE5569F6FFABF2F1F8DBEE6A9 SWAP10 SWAP11 DUP8 PUSH2 0x8B9 SWAP9 SWAP8 LT PUSH2 0x92F JUMPI JUMPDEST POP POP PUSH1 0x1 DUP6 DUP2 SHL ADD SWAP1 SSTORE PUSH2 0x84E JUMP JUMPDEST DUP6 NOT PUSH1 0xF8 DUP9 PUSH1 0x3 SHL AND SHR NOT SWAP1 DUP14 ADD CALLDATALOAD AND SWAP1 SSTORE DUP14 DUP1 PUSH2 0x920 JUMP JUMPDEST DUP11 DUP11 ADD CALLDATALOAD DUP4 SSTORE SWAP9 DUP13 ADD SWAP9 DUP12 SWAP9 POP PUSH1 0x1 SWAP1 SWAP3 ADD SWAP2 DUP13 ADD PUSH2 0x8E2 JUMP JUMPDEST DUP3 PUSH1 0x0 MSTORE PUSH1 0x20 PUSH1 0x0 KECCAK256 DUP3 DUP1 DUP7 ADD PUSH1 0x5 SHR DUP3 ADD SWAP3 PUSH1 0x20 DUP8 LT PUSH2 0x99E JUMPI JUMPDEST ADD PUSH1 0x5 SHR ADD SWAP1 JUMPDEST DUP2 DUP2 LT PUSH2 0x992 JUMPI POP PUSH2 0x7F1 JUMP JUMPDEST PUSH1 0x0 DUP2 SSTORE PUSH1 0x1 ADD PUSH2 0x985 JUMP JUMPDEST SWAP3 POP DUP2 SWAP3 PUSH2 0x97E JUMP JUMPDEST PUSH4 0x4E487B71 PUSH1 0xE0 SHL PUSH1 0x0 MSTORE PUSH1 0x41 PUSH1 0x4 MSTORE PUSH1 0x24 PUSH1 0x0 REVERT JUMPDEST SWAP1 POP DUP8 ADD CALLDATALOAD DUP9 PUSH2 0x7B7 JUMP JUMPDEST PUSH1 0x0 DUP7 DUP2 MSTORE PUSH1 0x20 DUP2 KECCAK256 SWAP3 POP JUMPDEST PUSH1 0x1F NOT DUP7 AND DUP2 LT PUSH2 0xA15 JUMPI POP DUP5 PUSH1 0x1F NOT DUP2 AND LT PUSH2 0x9FB JUMPI JUMPDEST POP POP PUSH1 0x1 DUP4 DUP2 SHL ADD DUP5 SSTORE PUSH2 0x7CB JUMP JUMPDEST DUP9 ADD CALLDATALOAD PUSH1 0x0 NOT PUSH1 0x3 DUP7 SWAP1 SHL PUSH1 0xF8 AND SHR NOT AND SWAP1 SSTORE DUP8 DUP1 PUSH2 0x9EC JUMP JUMPDEST SWAP1 SWAP2 PUSH1 0x20 PUSH1 0x1 DUP2 SWAP3 DUP6 DUP14 ADD CALLDATALOAD DUP2 SSTORE ADD SWAP4 ADD SWAP2 ADD PUSH2 0x9D4 JUMP JUMPDEST DUP5 PUSH1 0x0 MSTORE PUSH1 0x20 PUSH1 0x0 KECCAK256 DUP3 DUP1 DUP7 ADD PUSH1 0x5 SHR DUP3 ADD SWAP3 PUSH1 0x20 DUP8 LT PUSH2 0xA69 JUMPI JUMPDEST ADD PUSH1 0x5 SHR ADD SWAP1 JUMPDEST DUP2 DUP2 LT PUSH2 0xA5D JUMPI POP PUSH2 0x7A1 JUMP JUMPDEST PUSH1 0x0 DUP2 SSTORE PUSH1 0x1 ADD PUSH2 0xA50 JUMP JUMPDEST SWAP3 POP DUP2 SWAP3 PUSH2 0xA49 JUMP JUMPDEST PUSH1 0x40 MLOAD PUSH3 0x461BCD PUSH1 0xE5 SHL DUP2 MSTORE PUSH1 0x20 PUSH1 0x4 DUP3 ADD MSTORE PUSH1 0x1F PUSH1 0x24 DUP3 ADD MSTORE PUSH32 0x4465736372697074696F6E204349442063616E6E6F7420626520656D70747900 PUSH1 0x44 DUP3 ADD MSTORE PUSH1 0x64 SWAP1 REVERT JUMPDEST PUSH1 0x40 MLOAD PUSH3 0x461BCD PUSH1 0xE5 SHL DUP2 MSTORE PUSH1 0x20 PUSH1 0x4 DUP3 ADD MSTORE PUSH1 0x19 PUSH1 0x24 DUP3 ADD MSTORE PUSH32 0x5469746C65204349442063616E6E6F7420626520656D70747900000000000000 PUSH1 0x44 DUP3 ADD MSTORE PUSH1 0x64 SWAP1 REVERT JUMPDEST PUSH2 0xB15 SWAP2 POP PUSH1 0x20 RETURNDATASIZE PUSH1 0x20 GT PUSH2 0x298 JUMPI PUSH2 0x28A DUP2 DUP4 PUSH2 0x1071 JUMP JUMPDEST DUP7 PUSH2 0x13D JUMP JUMPDEST CALLVALUE PUSH2 0xE9 JUMPI PUSH1 0x20 DUP1 PUSH1 0x3 NOT CALLDATASIZE ADD SLT PUSH2 0xE9 JUMPI PUSH1 0x0 SLOAD PUSH1 0x40 MLOAD PUSH4 0x1FD3F77 PUSH1 0xE7 SHL DUP2 MSTORE CALLER PUSH1 0x4 DUP3 ADD MSTORE PUSH1 0x1 PUSH1 0x1 PUSH1 0xA0 SHL SUB SWAP2 DUP4 SWAP1 DUP3 SWAP1 PUSH1 0x24 SWAP1 DUP3 SWAP1 DUP7 AND GAS STATICCALL DUP1 ISZERO PUSH2 0x29F JUMPI PUSH2 0xB70 SWAP2 PUSH1 0x0 SWAP2 PUSH2 0xCC5 JUMPI POP PUSH2 0x10AB JUMP JUMPDEST PUSH1 0x4 CALLDATALOAD PUSH1 0x0 MSTORE PUSH1 0x2 DUP3 MSTORE PUSH1 0xFF PUSH1 0x40 PUSH1 0x0 KECCAK256 SWAP2 PUSH2 0xB94 PUSH1 0x4 DUP5 ADD SLOAD SWAP2 DUP3 AND ISZERO ISZERO PUSH2 0x1157 JUMP JUMPDEST PUSH1 0xA0 SHR AND PUSH2 0xC72 JUMPI PUSH1 0x0 SWAP1 CALLER PUSH1 0x0 MSTORE PUSH1 0x8 DUP2 ADD DUP4 MSTORE PUSH1 0x40 PUSH1 0x0 KECCAK256 DUP1 SLOAD PUSH1 0xFF DUP2 AND PUSH2 0xC4E JUMPI JUMPDEST POP POP CALLER PUSH1 0x0 MSTORE PUSH1 0x9 DUP2 ADD DUP4 MSTORE PUSH1 0x40 PUSH1 0x0 KECCAK256 DUP1 SLOAD PUSH1 0xFF DUP2 AND PUSH2 0xC2D JUMPI JUMPDEST POP POP POP ISZERO PUSH2 0xBDF JUMPI STOP JUMPDEST PUSH1 0x84 SWAP1 PUSH1 0x40 MLOAD SWAP1 PUSH3 0x461BCD PUSH1 0xE5 SHL DUP3 MSTORE PUSH1 0x4 DUP3 ADD MSTORE PUSH1 0x21 PUSH1 0x24 DUP3 ADD MSTORE PUSH32 0x596F752068617665206E6F7420766F746564206F6E2074686973207265706F72 PUSH1 0x44 DUP3 ADD MSTORE PUSH1 0x1D PUSH1 0xFA SHL PUSH1 0x64 DUP3 ADD MSTORE REVERT JUMPDEST PUSH1 0x3 SWAP4 POP PUSH1 0xFF NOT AND SWAP1 SSTORE ADD PUSH2 0xC42 DUP2 SLOAD PUSH2 0x1233 JUMP JUMPDEST SWAP1 SSTORE PUSH1 0x1 DUP3 DUP1 DUP1 PUSH2 0xBD5 JUMP JUMPDEST SWAP1 SWAP2 SWAP3 POP PUSH1 0xFF NOT AND SWAP1 SSTORE PUSH1 0x2 DUP2 ADD PUSH2 0xC66 DUP2 SLOAD PUSH2 0x1233 JUMP JUMPDEST SWAP1 SSTORE PUSH1 0x1 SWAP1 DUP4 DUP1 PUSH2 0xBB9 JUMP JUMPDEST PUSH1 0x40 MLOAD PUSH3 0x461BCD PUSH1 0xE5 SHL DUP2 MSTORE PUSH1 0x4 DUP2 ADD DUP4 SWAP1 MSTORE PUSH1 0x25 PUSH1 0x24 DUP3 ADD MSTORE PUSH32 0x43616E6E6F74206368616E676520766F7465206F6E207265736F6C7665642072 PUSH1 0x44 DUP3 ADD MSTORE PUSH5 0x195C1BDC9D PUSH1 0xDA SHL PUSH1 0x64 DUP3 ADD MSTORE PUSH1 0x84 SWAP1 REVERT JUMPDEST PUSH2 0xCDC SWAP2 POP DUP5 RETURNDATASIZE DUP7 GT PUSH2 0x298 JUMPI PUSH2 0x28A DUP2 DUP4 PUSH2 0x1071 JUMP JUMPDEST DUP5 PUSH2 0x13D JUMP JUMPDEST CALLVALUE PUSH2 0xE9 JUMPI PUSH1 0x20 DUP1 PUSH1 0x3 NOT CALLDATASIZE ADD SLT PUSH2 0xE9 JUMPI PUSH1 0x4 CALLDATALOAD PUSH1 0x0 MSTORE PUSH1 0x2 DUP2 MSTORE PUSH1 0x40 PUSH1 0x0 KECCAK256 PUSH1 0x1 DUP1 PUSH1 0xA0 SHL SUB DUP3 DUP2 PUSH1 0x4 DUP5 ADD SLOAD AND PUSH2 0xD1D DUP2 ISZERO ISZERO PUSH2 0x1157 JUMP JUMPDEST CALLER EQ SWAP2 DUP3 ISZERO PUSH2 0xDDB JUMPI JUMPDEST POP POP ISZERO PUSH2 0xD86 JUMPI PUSH1 0x7 ADD SWAP1 DUP2 SLOAD SWAP1 PUSH1 0xFF DUP3 AND PUSH2 0xD49 JUMPI POP PUSH1 0xFF NOT AND PUSH1 0x1 OR SWAP1 SSTORE STOP JUMPDEST PUSH1 0x64 SWAP1 PUSH1 0x40 MLOAD SWAP1 PUSH3 0x461BCD PUSH1 0xE5 SHL DUP3 MSTORE PUSH1 0x4 DUP3 ADD MSTORE PUSH1 0x16 PUSH1 0x24 DUP3 ADD MSTORE PUSH22 0x14995C1BDC9D08185B1C9958591E481C995B5BDD9959 PUSH1 0x52 SHL PUSH1 0x44 DUP3 ADD MSTORE REVERT JUMPDEST PUSH1 0x40 MLOAD PUSH3 0x461BCD PUSH1 0xE5 SHL DUP2 MSTORE PUSH1 0x4 DUP2 ADD DUP4 SWAP1 MSTORE PUSH1 0x27 PUSH1 0x24 DUP3 ADD MSTORE PUSH32 0x4F6E6C792063726561746F72206F722061646D696E2063616E2072656D6F7665 PUSH1 0x44 DUP3 ADD MSTORE PUSH7 0x81C995C1BDC9D PUSH1 0xCA SHL PUSH1 0x64 DUP3 ADD MSTORE PUSH1 0x84 SWAP1 REVERT JUMPDEST PUSH1 0x0 SLOAD PUSH1 0x40 MLOAD PUSH4 0x935E01B PUSH1 0xE2 SHL DUP2 MSTORE CALLER PUSH1 0x4 DUP3 ADD MSTORE SWAP4 POP DUP4 SWAP2 PUSH1 0x24 SWAP2 DUP4 SWAP2 AND GAS STATICCALL SWAP1 DUP2 ISZERO PUSH2 0x29F JUMPI PUSH1 0x0 SWAP2 PUSH2 0xE14 JUMPI JUMPDEST POP DUP3 DUP5 PUSH2 0xD27 JUMP JUMPDEST PUSH2 0xE2B SWAP2 POP DUP4 RETURNDATASIZE DUP6 GT PUSH2 0x298 JUMPI PUSH2 0x28A DUP2 DUP4 PUSH2 0x1071 JUMP JUMPDEST DUP4 PUSH2 0xE0C JUMP JUMPDEST CALLVALUE PUSH2 0xE9 JUMPI PUSH1 0x0 CALLDATASIZE PUSH1 0x3 NOT ADD SLT PUSH2 0xE9 JUMPI PUSH1 0x20 PUSH1 0x1 SLOAD PUSH1 0x40 MLOAD SWAP1 DUP2 MSTORE RETURN JUMPDEST CALLVALUE PUSH2 0xE9 JUMPI PUSH1 0x20 DUP1 PUSH1 0x3 NOT CALLDATASIZE ADD SLT PUSH2 0xE9 JUMPI PUSH1 0x0 SLOAD PUSH1 0x40 MLOAD PUSH4 0x1FD3F77 PUSH1 0xE7 SHL DUP2 MSTORE CALLER PUSH1 0x4 DUP3 ADD MSTORE PUSH1 0x1 PUSH1 0x1 PUSH1 0xA0 SHL SUB SWAP3 SWAP2 DUP3 SWAP1 DUP3 SWAP1 PUSH1 0x24 SWAP1 DUP3 SWAP1 DUP8 AND GAS STATICCALL DUP1 ISZERO PUSH2 0x29F JUMPI PUSH2 0xEA5 SWAP2 PUSH1 0x0 SWAP2 PUSH2 0xF71 JUMPI POP PUSH2 0x10AB JUMP JUMPDEST PUSH1 0x4 CALLDATALOAD PUSH1 0x0 MSTORE PUSH1 0x2 DUP2 MSTORE PUSH1 0x40 PUSH1 0x0 KECCAK256 SWAP2 PUSH1 0x4 DUP4 ADD SWAP2 DUP3 SLOAD SWAP2 DUP3 AND PUSH2 0xECA DUP2 ISZERO ISZERO PUSH2 0x1157 JUMP JUMPDEST PUSH1 0xFF DUP4 PUSH1 0xA0 SHR AND ISZERO PUSH2 0xF33 JUMPI CALLER SUB PUSH2 0xEEF JUMPI PUSH1 0xFF PUSH1 0xA0 SHL NOT DUP3 AND DUP4 SSTORE PUSH1 0x0 PUSH1 0x6 DUP6 ADD SSTORE STOP JUMPDEST PUSH1 0x64 SWAP1 PUSH1 0x40 MLOAD SWAP1 PUSH3 0x461BCD PUSH1 0xE5 SHL DUP3 MSTORE PUSH1 0x4 DUP3 ADD MSTORE PUSH1 0x1E PUSH1 0x24 DUP3 ADD MSTORE PUSH32 0x4F6E6C792063726561746F722063616E2072656F70656E207265706F72740000 PUSH1 0x44 DUP3 ADD MSTORE REVERT JUMPDEST PUSH1 0x40 MLOAD PUSH3 0x461BCD PUSH1 0xE5 SHL DUP2 MSTORE PUSH1 0x4 DUP2 ADD DUP4 SWAP1 MSTORE PUSH1 0x16 PUSH1 0x24 DUP3 ADD MSTORE PUSH22 0x14995C1BDC9D081A5CC81B9BDD081C995CDBDB1D9959 PUSH1 0x52 SHL PUSH1 0x44 DUP3 ADD MSTORE PUSH1 0x64 SWAP1 REVERT JUMPDEST PUSH2 0xCDC SWAP2 POP DUP4 RETURNDATASIZE DUP6 GT PUSH2 0x298 JUMPI PUSH2 0x28A DUP2 DUP4 PUSH2 0x1071 JUMP JUMPDEST CALLVALUE PUSH2 0xE9 JUMPI PUSH1 0x40 CALLDATASIZE PUSH1 0x3 NOT ADD SLT PUSH2 0xE9 JUMPI PUSH1 0x24 CALLDATALOAD PUSH1 0x1 PUSH1 0x1 PUSH1 0xA0 SHL SUB DUP2 DUP2 AND SWAP2 DUP3 SWAP1 SUB PUSH2 0xE9 JUMPI PUSH1 0x40 SWAP2 PUSH1 0x4 CALLDATALOAD PUSH1 0x0 MSTORE PUSH1 0x2 PUSH1 0x20 MSTORE PUSH2 0xFD2 DUP4 PUSH1 0x0 KECCAK256 SWAP3 PUSH1 0x4 DUP5 ADD SLOAD AND ISZERO ISZERO PUSH2 0x1157 JUMP JUMPDEST PUSH1 0x0 MSTORE PUSH1 0x8 DUP2 ADD PUSH1 0x20 MSTORE PUSH1 0x9 PUSH1 0xFF DUP4 PUSH1 0x0 KECCAK256 SLOAD AND SWAP2 ADD PUSH1 0x20 MSTORE PUSH1 0xFF DUP3 PUSH1 0x0 KECCAK256 SLOAD AND DUP3 MLOAD SWAP2 ISZERO ISZERO DUP3 MSTORE ISZERO ISZERO PUSH1 0x20 DUP3 ADD MSTORE RETURN JUMPDEST SWAP2 DUP2 PUSH1 0x1F DUP5 ADD SLT ISZERO PUSH2 0xE9 JUMPI DUP3 CALLDATALOAD SWAP2 PUSH8 0xFFFFFFFFFFFFFFFF DUP4 GT PUSH2 0xE9 JUMPI PUSH1 0x20 DUP4 DUP2 DUP7 ADD SWAP6 ADD ADD GT PUSH2 0xE9 JUMPI JUMP JUMPDEST SWAP2 SWAP1 DUP3 MLOAD SWAP3 DUP4 DUP3 MSTORE PUSH1 0x0 JUMPDEST DUP5 DUP2 LT PUSH2 0x105D JUMPI POP POP DUP3 PUSH1 0x0 PUSH1 0x20 DUP1 SWAP5 SWAP6 DUP5 ADD ADD MSTORE PUSH1 0x1F DUP1 NOT SWAP2 ADD AND ADD ADD SWAP1 JUMP JUMPDEST PUSH1 0x20 DUP2 DUP4 ADD DUP2 ADD MLOAD DUP5 DUP4 ADD DUP3 ADD MSTORE ADD PUSH2 0x103C JUMP JUMPDEST SWAP1 PUSH1 0x1F DUP1 NOT SWAP2 ADD AND DUP2 ADD SWAP1 DUP2 LT PUSH8 0xFFFFFFFFFFFFFFFF DUP3 GT OR PUSH2 0x9A7 JUMPI PUSH1 0x40 MSTORE JUMP JUMPDEST SWAP1 DUP2 PUSH1 0x20 SWAP2 SUB SLT PUSH2 0xE9 JUMPI MLOAD DUP1 ISZERO ISZERO DUP2 SUB PUSH2 0xE9 JUMPI SWAP1 JUMP JUMPDEST ISZERO PUSH2 0x10B2 JUMPI JUMP JUMPDEST PUSH1 0x40 MLOAD PUSH3 0x461BCD PUSH1 0xE5 SHL DUP2 MSTORE PUSH1 0x20 PUSH1 0x4 DUP3 ADD MSTORE PUSH1 0x13 PUSH1 0x24 DUP3 ADD MSTORE PUSH19 0x155CD95C881B9BDD08185D5D1A1BDC9A5E9959 PUSH1 0x6A SHL PUSH1 0x44 DUP3 ADD MSTORE PUSH1 0x64 SWAP1 REVERT JUMPDEST PUSH1 0x0 NOT DUP2 EQ PUSH2 0x32B JUMPI PUSH1 0x1 ADD SWAP1 JUMP JUMPDEST SWAP1 PUSH1 0x1 DUP3 DUP2 SHR SWAP3 AND DUP1 ISZERO PUSH2 0x112C JUMPI JUMPDEST PUSH1 0x20 DUP4 LT EQ PUSH2 0x1116 JUMPI JUMP JUMPDEST PUSH4 0x4E487B71 PUSH1 0xE0 SHL PUSH1 0x0 MSTORE PUSH1 0x22 PUSH1 0x4 MSTORE PUSH1 0x24 PUSH1 0x0 REVERT JUMPDEST SWAP2 PUSH1 0x7F AND SWAP2 PUSH2 0x110B JUMP JUMPDEST SWAP1 DUP1 PUSH1 0x20 SWAP4 SWAP3 DUP2 DUP5 MSTORE DUP5 DUP5 ADD CALLDATACOPY PUSH1 0x0 DUP3 DUP3 ADD DUP5 ADD MSTORE PUSH1 0x1F ADD PUSH1 0x1F NOT AND ADD ADD SWAP1 JUMP JUMPDEST ISZERO PUSH2 0x115E JUMPI JUMP JUMPDEST PUSH1 0x40 MLOAD PUSH3 0x461BCD PUSH1 0xE5 SHL DUP2 MSTORE PUSH1 0x20 PUSH1 0x4 DUP3 ADD MSTORE PUSH1 0x15 PUSH1 0x24 DUP3 ADD MSTORE PUSH21 0x14995C1BDC9D08191BD95CC81B9BDD08195E1A5CDD PUSH1 0x5A SHL PUSH1 0x44 DUP3 ADD MSTORE PUSH1 0x64 SWAP1 REVERT JUMPDEST ISZERO PUSH2 0x11A2 JUMPI JUMP JUMPDEST PUSH1 0x40 MLOAD PUSH3 0x461BCD PUSH1 0xE5 SHL DUP2 MSTORE PUSH1 0x20 PUSH1 0x4 DUP3 ADD MSTORE PUSH1 0x1E PUSH1 0x24 DUP3 ADD MSTORE PUSH32 0x43616E6E6F7420766F7465206F6E207265736F6C766564207265706F72740000 PUSH1 0x44 DUP3 ADD MSTORE PUSH1 0x64 SWAP1 REVERT JUMPDEST ISZERO PUSH2 0x11EE JUMPI JUMP JUMPDEST PUSH1 0x40 MLOAD PUSH3 0x461BCD PUSH1 0xE5 SHL DUP2 MSTORE PUSH1 0x20 PUSH1 0x4 DUP3 ADD MSTORE PUSH1 0x1E PUSH1 0x24 DUP3 ADD MSTORE PUSH32 0x43616E6E6F7420766F7465206F6E20796F7572206F776E207265706F72740000 PUSH1 0x44 DUP3 ADD MSTORE PUSH1 0x64 SWAP1 REVERT JUMPDEST DUP1 ISZERO PUSH2 0x32B JUMPI PUSH1 0x0 NOT ADD SWAP1 JUMP JUMPDEST SWAP1 PUSH1 0x40 MLOAD SWAP2 DUP3 PUSH1 0x0 DUP3 SLOAD SWAP3 PUSH2 0x1254 DUP5 PUSH2 0x10FC JUMP JUMPDEST SWAP1 DUP2 DUP5 MSTORE PUSH1 0x1 SWAP5 DUP6 DUP2 AND SWAP1 DUP2 PUSH1 0x0 EQ PUSH2 0x12C3 JUMPI POP PUSH1 0x1 EQ PUSH2 0x1280 JUMPI JUMPDEST POP POP PUSH2 0x127E SWAP3 POP SUB DUP4 PUSH2 0x1071 JUMP JUMPDEST JUMP JUMPDEST SWAP1 SWAP4 SWAP2 POP PUSH1 0x0 MSTORE PUSH1 0x20 SWAP1 DUP2 PUSH1 0x0 KECCAK256 SWAP4 PUSH1 0x0 SWAP2 JUMPDEST DUP2 DUP4 LT PUSH2 0x12AB JUMPI POP POP PUSH2 0x127E SWAP4 POP DUP3 ADD ADD CODESIZE DUP1 PUSH2 0x1270 JUMP JUMPDEST DUP6 SLOAD DUP9 DUP5 ADD DUP6 ADD MSTORE SWAP5 DUP6 ADD SWAP5 DUP8 SWAP5 POP SWAP2 DUP4 ADD SWAP2 PUSH2 0x1293 JUMP JUMPDEST SWAP2 POP POP PUSH2 0x127E SWAP5 POP PUSH1 0x20 SWAP3 POP PUSH1 0xFF NOT AND DUP3 DUP5 ADD MSTORE ISZERO ISZERO PUSH1 0x5 SHL DUP3 ADD ADD CODESIZE DUP1 PUSH2 0x1270 JUMP INVALID LOG2 PUSH5 0x6970667358 0x22 SLT KECCAK256 SWAP13 MUL 0xA6 ADDMOD 0xCA DUP15 0xAE CALLER 0xA6 0xAC LOG4 0xAC 0xCB DUP9 0xE2 SELFBALANCE 0xD3 0xAE SGT 0x2C 0xD1 0xCC 0xE2 0xD 0xDE 0xAC 0x5C ADDRESS 0xC8 AND 0xE7 0xC PUSH5 0x736F6C6343 STOP ADDMOD EQ STOP CALLER "},"methodIdentifiers":{"authRegistry()":"629e025a","createReport(string,string)":"4ddb9c2a","downvoteReport(uint256)":"4efdde4a","getReport(uint256)":"4e7f9b19","getReportVotes(uint256)":"72862d5f","getUserVote(uint256,address)":"03c7881a","lastCreatedAt(address)":"b94afa71","removeReport(uint256)":"318b5c2a","removeVote(uint256)":"3f68fde4","reopenReport(uint256)":"143c809e","reportCount()":"185c6f84","resolveReport(uint256)":"6dfa5e61","upvoteReport(uint256)":"b1dc5e30"}}}}}