{"contracts/proposal/proposals.sol":{"Proposals":{"abi":[{"inputs":[{"internalType":"address","name":"_authRegistry","type":"address"}],"stateMutability":"nonpayable","type":"constructor"},{"anonymous":false,"inputs":[{"indexed":true,"internalType":"uint256","name":"proposalId","type":"uint256"},{"indexed":true,"internalType":"address","name":"creator","type":"address"},{"indexed":false,"internalType":"string","name":"titleCid","type":"string"},{"indexed":false,"internalType":"string","name":"shortDescriptionCid","type":"string"},{"indexed":false,"internalType":"string","name":"descriptionInDetailsCid","type":"string"},{"indexed":false,"internalType":"uint256","name":"categoryId","type":"uint256"},{"indexed":false,"internalType":"uint256","name":"expiredDate","type":"uint256"}],"name":"ProposalCreated","type":"event"},{"anonymous":false,"inputs":[{"indexed":true,"internalType":"uint256","name":"proposalId","type":"uint256"},{"indexed":false,"internalType":"uint256","name":"expiredAt","type":"uint256"}],"name":"ProposalExpired","type":"event"},{"anonymous":false,"inputs":[{"indexed":true,"internalType":"uint256","name":"proposalId","type":"uint256"},{"indexed":false,"internalType":"bool","name":"activeStatus","type":"bool"}],"name":"ProposalStatusChanged","type":"event"},{"anonymous":false,"inputs":[{"indexed":true,"internalType":"uint256","name":"proposalId","type":"uint256"},{"indexed":true,"internalType":"address","name":"voter","type":"address"}],"name":"ProposalVotedNo","type":"event"},{"anonymous":false,"inputs":[{"indexed":true,"internalType":"uint256","name":"proposalId","type":"uint256"},{"indexed":true,"internalType":"address","name":"voter","type":"address"}],"name":"ProposalVotedYes","type":"event"},{"inputs":[],"name":"authRegistry","outputs":[{"internalType":"contract IAuthRegistry","name":"","type":"address"}],"stateMutability":"view","type":"function"},{"inputs":[{"internalType":"uint256","name":"proposalId","type":"uint256"},{"internalType":"bool","name":"newStatus","type":"bool"}],"name":"changeProposalStatus","outputs":[],"stateMutability":"nonpayable","type":"function"},{"inputs":[{"internalType":"string","name":"titleCid","type":"string"},{"internalType":"string","name":"shortDescriptionCid","type":"string"},{"internalType":"string","name":"descriptionInDetailsCid","type":"string"},{"internalType":"uint256","name":"categoryId","type":"uint256"},{"internalType":"uint256","name":"expiredDate","type":"uint256"}],"name":"createProposal","outputs":[{"internalType":"uint256","name":"","type":"uint256"}],"stateMutability":"nonpayable","type":"function"},{"inputs":[{"internalType":"uint256","name":"proposalId","type":"uint256"}],"name":"expireProposal","outputs":[],"stateMutability":"nonpayable","type":"function"},{"inputs":[{"internalType":"uint256","name":"proposalId","type":"uint256"},{"internalType":"uint256","name":"newExpiredDate","type":"uint256"}],"name":"extendProposalDeadline","outputs":[],"stateMutability":"nonpayable","type":"function"},{"inputs":[{"internalType":"uint256","name":"proposalId","type":"uint256"}],"name":"getProposal","outputs":[{"internalType":"string","name":"titleCid","type":"string"},{"internalType":"string","name":"shortDescriptionCid","type":"string"},{"internalType":"string","name":"descriptionInDetailsCid","type":"string"},{"internalType":"uint256","name":"yesVotes","type":"uint256"},{"internalType":"uint256","name":"noVotes","type":"uint256"},{"internalType":"address","name":"creator","type":"address"},{"internalType":"bool","name":"activeStatus","type":"bool"},{"internalType":"uint256","name":"expiredDate","type":"uint256"},{"internalType":"uint256","name":"categoryId","type":"uint256"},{"internalType":"uint256","name":"createdAt","type":"uint256"},{"internalType":"uint256","name":"updatedAt","type":"uint256"}],"stateMutability":"view","type":"function"},{"inputs":[{"internalType":"uint256","name":"proposalId","type":"uint256"}],"name":"getProposalVotes","outputs":[{"internalType":"uint256","name":"yesVotes","type":"uint256"},{"internalType":"uint256","name":"noVotes","type":"uint256"},{"internalType":"int256","name":"netVotes","type":"int256"},{"internalType":"uint256","name":"totalVotes","type":"uint256"},{"internalType":"uint256","name":"yesPercentage","type":"uint256"}],"stateMutability":"view","type":"function"},{"inputs":[{"internalType":"uint256","name":"proposalId","type":"uint256"},{"internalType":"address","name":"user","type":"address"}],"name":"getUserVote","outputs":[{"internalType":"bool","name":"hasVotedYes","type":"bool"},{"internalType":"bool","name":"hasVotedNo","type":"bool"}],"stateMutability":"view","type":"function"},{"inputs":[{"internalType":"address","name":"","type":"address"}],"name":"lastCreatedAt","outputs":[{"internalType":"uint256","name":"","type":"uint256"}],"stateMutability":"view","type":"function"},{"inputs":[],"name":"proposalCount","outputs":[{"internalType":"uint256","name":"","type":"uint256"}],"stateMutability":"view","type":"function"},{"inputs":[{"internalType":"uint256","name":"proposalId","type":"uint256"}],"name":"removeVote","outputs":[],"stateMutability":"nonpayable","type":"function"},{"inputs":[{"internalType":"uint256","name":"proposalId","type":"uint256"}],"name":"voteNo","outputs":[],"stateMutability":"nonpayable","type":"function"},{"inputs":[{"internalType":"uint256","name":"proposalId","type":"uint256"}],"name":"voteYes","outputs":[],"stateMutability":"nonpayable","type":"function"}],"evm":{"bytecode":{"linkReferences":{},"object":"6080346100cb57601f6119ca38819003918201601f19168301916001600160401b038311848410176100d0578084926020946040528339810103126100cb57516001600160a01b038116908190036100cb57801561007a57600080546001600160a01b0319169190911790556040516118e390816100e78239f35b60405162461bcd60e51b8152602060048201526024808201527f4175746820726567697374727920616464726573732063616e6e6f74206265206044820152637a65726f60e01b6064820152608490fd5b600080fd5b634e487b7160e01b600052604160045260246000fdfe6080604052600436101561001257600080fd5b60003560e01c806303c7881a1461150c5780631a6f7be51461136757806338c545b4146111685780633f68fde414610fdc57806347c6614014610ef9578063629e025a14610ed05780636a1cf72114610d045780638e295bda1461060d578063b94afa71146105cf578063c7f758a8146104d8578063c966f516146102c4578063da35c664146102a65763e1b526b0146100ab57600080fd5b346102a1576020806003193601126102a15760043560018060a01b0391826000541660405190630935e01b60e21b918281523360048201528381602481855afa80156102785761010391600091610284575b5061162f565b83600052600283526040600020916005830191848354978816610127811515611763565b331492831561021c575b505050156101c55760ff8560a01c1615610180577f1d4acf5b5169381a31b16d43bf25ffcb1d6f22f1127bb0c412a0d970e25affb5939460ff60a01b19169055600942910155604051428152a2005b60405162461bcd60e51b815260048101849052601c60248201527f50726f706f73616c20697320616c726561647920696e616374697665000000006044820152606490fd5b60405162461bcd60e51b815260048101849052602960248201527f4f6e6c792063726561746f72206f722061646d696e2063616e20657870697265604482015268081c1c9bdc1bdcd85b60ba1b6064820152608490fd5b9091925060246040518094819382523360048301525afa9081156102785760009161024b575b50388481610131565b61026b9150843d8611610271575b61026381836115f5565b810190611617565b38610242565b503d610259565b6040513d6000823e3d90fd5b61029b9150853d87116102715761026381836115f5565b386100fd565b600080fd5b346102a15760003660031901126102a1576020600154604051908152f35b346102a15760403660031901126102a157600054604051630935e01b60e21b8082523360048301526001600160a01b03926024803593909260209290919086169083818681855afa801561027857610323916000916104bb575061162f565b6004356000526002835282604060002096600588015416610345811515611763565b3314928315610470575b5050501561041c57600684019182548411156103c9574284111561037b57505055600942910155600080f35b9060226084926040519262461bcd60e51b845260048401528201527f4e657720646561646c696e65206d75737420626520696e207468652066757475604482015261726560f01b6064820152fd5b9060276084926040519262461bcd60e51b845260048401528201527f43616e206f6e6c7920657874656e6420646561646c696e652c206e6f74207265604482015266191d58d9481a5d60ca1b6064820152fd5b60296084926040519262461bcd60e51b845260048401528201527f4f6e6c792063726561746f72206f722061646d696e2063616e20657874656e6460448201526820646561646c696e6560b81b6064820152fd5b90919250846040518094819382523360048301525afa9081156102785760009161049e575b5085828161034f565b6104b59150823d84116102715761026381836115f5565b85610495565b6104d29150853d87116102715761026381836115f5565b886100fd565b346102a15760203660031901126102a1576004356000908152600260205260409020600581015461057d906001600160a01b03811690610519821515611763565b600384015491600485015491600686015460ff60078801549260088901549460098a0154966105998b61058b610566600261055f600161055886611807565b9501611807565b9f01611807565b916040519e8f9e8f926101608085528401906115b5565b9160208184039101526115b5565b8c810360408e0152906115b5565b9860608b015260808a015260a089015260a01c16151560c087015260e08601526101008501526101208401526101408301520390f35b346102a15760203660031901126102a1576004356001600160a01b038116908190036102a15760005260036020526020604060002054604051908152f35b346102a15760a03660031901126102a15760043567ffffffffffffffff81116102a15761063e903690600401611587565b9060243567ffffffffffffffff81116102a15761065f903690600401611587565b60449391843567ffffffffffffffff81116102a157610682903690600401611587565b600054604051630935e01b60e21b8152336004820152929791949290602090829060249082906001600160a01b03165afa8015610278576106ca91600091610ce5575061162f565b8415610ca1578115610c4f578315610bfa57426084351115610bab5760643515610b6757506106fa600154611671565b9485600155856000526002602052604060002067ffffffffffffffff86116109dd576107268154611680565b601f8111610b23575b50856000601f8211600114610abe57600091610ab3575b508660011b906000198860031b1c19161781555b67ffffffffffffffff83116109dd576107766001820154611680565b601f8111610a6c575b50826000601f82116001146109fe576000916109f3575b508360011b906000198560031b1c19161760018201555b67ffffffffffffffff85116109dd576107c96002820154611680565b601f8111610992575b509160209793918795936000601f86116001146108f357926108ae6108bb937fa545c4dca3f89091030a281bf4422840f14e6fdb422e08ca04c8d6ae025f9d5e989693886108c999976000916108e8575b508760011b906000198960031b1c19161760028201555b600581018054600160a01b9060ff60a01b193316906affffffffffffffffffffff60a81b16171790556000600382015560006004820155606435600782015560843560068201554260088201556009429101553360005260038d52426040600020556040519a60a08c5260a08c01916116ba565b918983038c8b01526116ba565b9186830360408801526116ba565b92606435606082015260843560808201528033940390a3604051908152f35b90508801358f610823565b600282016000528a6000209060005b601f198816811061097857506108bb937fa545c4dca3f89091030a281bf4422840f14e6fdb422e08ca04c8d6ae025f9d5e9896938896936108ae936108c99a601f1981161061095e575b5050600187811b01600282015561083a565b89013560001960038a901b60f8161c191690558e8061094c565b8189013583558b9950600190920191908c01908c01610902565b600282016000526020600020601f870160051c810191602088106109d3575b601f0160051c01905b8181106109c757506107d2565b600081556001016109ba565b90915081906109b1565b634e487b7160e01b600052604160045260246000fd5b905084013589610796565b90506001820160005260206000209060005b601f1986168110610a54575084601f19811610610a3a575b5050600183811b0160018201556107ad565b850135600019600386901b60f8161c191690558880610a28565b9091602060018192858a013581550193019101610a10565b600182016000526020600020601f850160051c810160208610610aac575b601f830160051c82018110610aa057505061077f565b60008155600101610a8a565b5080610a8a565b905082013589610746565b60008381526020812092505b601f1989168110610b0b575087601f19811610610af1575b5050600186811b01815561075a565b830135600019600389901b60f8161c191690558880610ae2565b90916020600181928588013581550193019101610aca565b816000526020600020601f880160051c810160208910610b60575b601f830160051c82018110610b5457505061072f565b60008155600101610b3e565b5080610b3e565b6064907f43617465676f7279204944206d7573742062652076616c6964000000000000006040519162461bcd60e51b83526020600484015260196024840152820152fd5b6084907f457870697265642064617465206d75737420626520696e2074686520667574756040519162461bcd60e51b8352602060048401526022602484015282015261726560f01b6064820152fd5b6084907f44657461696c6564206465736372697074696f6e204349442063616e6e6f74206040519162461bcd60e51b8352602060048401526028602484015282015267626520656d70747960c01b6064820152fd5b6084907f53686f7274206465736372697074696f6e204349442063616e6e6f74206265206040519162461bcd60e51b8352602060048401526025602484015282015264656d70747960d81b6064820152fd5b6064907f5469746c65204349442063616e6e6f7420626520656d707479000000000000006040519162461bcd60e51b83526020600484015260196024840152820152fd5b610cfe915060203d6020116102715761026381836115f5565b896100fd565b346102a1576020806003193601126102a1576004359060018060a01b03906024818360005416604051928380926301fd3f7760e71b82523360048301525afa801561027857610d5a91600091610eb3575061162f565b8260005260028152610d8860066040600020610d7f60ff600583015460a01c166116db565b01544210611720565b826000526002815260406000209160058301541690610da8821515611763565b600a8301913360005282825260ff60406000205416610e5a57610dcd903314156117af565b33600052600b830181526040600020805460ff8116610e3d575b505033600052526040600020600160ff1982541617905560038101610e0c8154611671565b905560094291015533907f91d72fe165abd5430e48336de75685d3f58eaeab2eb2d7b644ef7403642d116f600080a3005b60ff1916905560048301610e5181546117fa565b90558480610de7565b60405162461bcd60e51b815260048101839052602b60248201527f596f75206861766520616c726561647920766f74656420594553206f6e20746860448201526a1a5cc81c1c9bdc1bdcd85b60aa1b6064820152608490fd5b610eca9150833d85116102715761026381836115f5565b856100fd565b346102a15760003660031901126102a1576000546040516001600160a01b039091168152602090f35b346102a15760203660031901126102a15760043560009081526002602052604090206005810154610f34906001600160a01b03161515611763565b6004600382015491015490818103916000811282841281169083851390151617610fba57808201808311610fba5780159384610fd057606484029484860460641485151715610fba57610fa4578160a09504925b6040519485526020850152604084015260608301526080820152f35b634e487b7160e01b600052601260045260246000fd5b634e487b7160e01b600052601160045260246000fd5b60a09450600092610f88565b346102a1576020806003193601126102a1576004359060018060a01b03916024828460005416604051928380926301fd3f7760e71b82523360048301525afa80156102785761103291600091611151575061162f565b806000526002825261105760066040600020610d7f60ff600583015460a01c166116db565b600052600281526110746040600020926005840154161515611763565b600033600052600a830182526040600020805460ff8116611130575b505033600052600b830182526040600020805460ff811661110f575b5050156110bf5750600942910155600080f35b6084906040519062461bcd60e51b82526004820152602360248201527f596f752068617665206e6f7420766f746564206f6e20746869732070726f706f6044820152621cd85b60ea1b6064820152fd5b60ff1916905550600482018054611125906117fa565b9055600183806110ac565b60ff1916905550600382018054611146906117fa565b905560018380611090565b610eca9150843d86116102715761026381836115f5565b346102a15760403660031901126102a157600435602435908115158092036102a157600054604051630935e01b60e21b8082523360048301526001600160a01b03946020939092908616908481602481855afa8015610278576111d291600091611350575061162f565b846000526002845260406000209160058301918583549889166111f6811515611763565b3314928315611304575b505050156112af578260ff8760a01c1615151461125e577f68e3ce211a37937184ed2d0165534a314cff3c8b8bd7dcdd845523b07698450f949560ff60a01b8460a01b169060ff60a01b1916179055600942910155604051908152a2005b60405162461bcd60e51b815260048101859052602360248201527f53746174757320697320616c72656164792073657420746f20746869732076616044820152626c756560e81b6064820152608490fd5b60405162461bcd60e51b815260048101859052602760248201527f4f6e6c792063726561746f72206f722061646d696e2063616e206368616e67656044820152662073746174757360c81b6064820152608490fd5b9091925060246040518094819382523360048301525afa90811561027857600091611333575b50878581611200565b61134a9150853d87116102715761026381836115f5565b8761132a565b6104d29150863d88116102715761026381836115f5565b346102a1576020806003193601126102a1576004359060018060a01b03906024818360005416604051928380926301fd3f7760e71b82523360048301525afa8015610278576113bd91600091610eb3575061162f565b82600052600281526113e260066040600020610d7f60ff600583015460a01c166116db565b826000526002815260406000209160058301541690611402821515611763565b600b8301913360005282825260ff604060002054166114b457611427903314156117af565b33600052600a830181526040600020805460ff8116611497575b505033600052526040600020600160ff19825416179055600481016114668154611671565b905560094291015533907ff22f90ec8ca04cbb8fbcb15687d8dc5dcc4d74eaf1529b699367f232b785358b600080a3005b60ff19169055600383016114ab81546117fa565b90558480611441565b60405162461bcd60e51b815260048101839052602a60248201527f596f75206861766520616c726561647920766f746564204e4f206f6e207468696044820152691cc81c1c9bdc1bdcd85b60b21b6064820152608490fd5b346102a15760403660031901126102a1576024356001600160a01b03818116918290036102a157604091600435600052600260205261155683600020926005840154161515611763565b600052600a8101602052600b60ff836000205416910160205260ff8260002054168251911515825215156020820152f35b9181601f840112156102a15782359167ffffffffffffffff83116102a157602083818601950101116102a157565b919082519283825260005b8481106115e1575050826000602080949584010152601f8019910116010190565b6020818301810151848301820152016115c0565b90601f8019910116810190811067ffffffffffffffff8211176109dd57604052565b908160209103126102a1575180151581036102a15790565b1561163657565b60405162461bcd60e51b8152602060048201526013602482015272155cd95c881b9bdd08185d5d1a1bdc9a5e9959606a1b6044820152606490fd5b6000198114610fba5760010190565b90600182811c921680156116b0575b602083101461169a57565b634e487b7160e01b600052602260045260246000fd5b91607f169161168f565b908060209392818452848401376000828201840152601f01601f1916010190565b156116e257565b60405162461bcd60e51b815260206004820152601660248201527550726f706f73616c206973206e6f742061637469766560501b6044820152606490fd5b1561172757565b60405162461bcd60e51b8152602060048201526014602482015273141c9bdc1bdcd85b081a185cc8195e1c1a5c995960621b6044820152606490fd5b1561176a57565b60405162461bcd60e51b815260206004820152601760248201527f50726f706f73616c20646f6573206e6f742065786973740000000000000000006044820152606490fd5b156117b657565b606460405162461bcd60e51b815260206004820152602060248201527f43616e6e6f7420766f7465206f6e20796f7572206f776e2070726f706f73616c6044820152fd5b8015610fba576000190190565b906040519182600082549261181b84611680565b90818452600194858116908160001461188a5750600114611847575b5050611845925003836115f5565b565b9093915060005260209081600020936000915b81831061187257505061184593508201013880611837565b8554888401850152948501948794509183019161185a565b91505061184594506020925060ff191682840152151560051b820101388061183756fea264697066735822122092181f7a94877dde2996ddefb6f4f0c8902b08de491bbb426569e960a213571664736f6c63430008140033","opcodes":"PUSH1 0x80 CALLVALUE PUSH2 0xCB JUMPI PUSH1 0x1F PUSH2 0x19CA CODESIZE DUP2 SWAP1 SUB SWAP2 DUP3 ADD PUSH1 0x1F NOT AND DUP4 ADD SWAP2 PUSH1 0x1 PUSH1 0x1 PUSH1 0x40 SHL SUB DUP4 GT DUP5 DUP5 LT OR PUSH2 0xD0 JUMPI DUP1 DUP5 SWAP3 PUSH1 0x20 SWAP5 PUSH1 0x40 MSTORE DUP4 CODECOPY DUP2 ADD SUB SLT PUSH2 0xCB JUMPI MLOAD PUSH1 0x1 PUSH1 0x1 PUSH1 0xA0 SHL SUB DUP2 AND SWAP1 DUP2 SWAP1 SUB PUSH2 0xCB JUMPI DUP1 ISZERO PUSH2 0x7A JUMPI PUSH1 0x0 DUP1 SLOAD PUSH1 0x1 PUSH1 0x1 PUSH1 0xA0 SHL SUB NOT AND SWAP2 SWAP1 SWAP2 OR SWAP1 SSTORE PUSH1 0x40 MLOAD PUSH2 0x18E3 SWAP1 DUP2 PUSH2 0xE7 DUP3 CODECOPY RETURN JUMPDEST PUSH1 0x40 MLOAD PUSH3 0x461BCD PUSH1 0xE5 SHL DUP2 MSTORE PUSH1 0x20 PUSH1 0x4 DUP3 ADD MSTORE PUSH1 0x24 DUP1 DUP3 ADD MSTORE PUSH32 0x4175746820726567697374727920616464726573732063616E6E6F7420626520 PUSH1 0x44 DUP3 ADD MSTORE PUSH4 0x7A65726F PUSH1 0xE0 SHL PUSH1 0x64 DUP3 ADD MSTORE PUSH1 0x84 SWAP1 REVERT JUMPDEST PUSH1 0x0 DUP1 REVERT JUMPDEST PUSH4 0x4E487B71 PUSH1 0xE0 SHL PUSH1 0x0 MSTORE PUSH1 0x41 PUSH1 0x4 MSTORE PUSH1 0x24 PUSH1 0x0 REVERT INVALID PUSH1 0x80 PUSH1 0x40 MSTORE PUSH1 0x4 CALLDATASIZE LT ISZERO PUSH2 0x12 JUMPI PUSH1 0x0 DUP1 REVERT JUMPDEST PUSH1 0x0 CALLDATALOAD PUSH1 0xE0 SHR DUP1 PUSH4 0x3C7881A EQ PUSH2 0x150C JUMPI DUP1 PUSH4 0x1A6F7BE5 EQ PUSH2 0x1367 JUMPI DUP1 PUSH4 0x38C545B4 EQ PUSH2 0x1168 JUMPI DUP1 PUSH4 0x3F68FDE4 EQ PUSH2 0xFDC JUMPI DUP1 PUSH4 0x47C66140 EQ PUSH2 0xEF9 JUMPI DUP1 PUSH4 0x629E025A EQ PUSH2 0xED0 JUMPI DUP1 PUSH4 0x6A1CF721 EQ PUSH2 0xD04 JUMPI DUP1 PUSH4 0x8E295BDA EQ PUSH2 0x60D JUMPI DUP1 PUSH4 0xB94AFA71 EQ PUSH2 0x5CF JUMPI DUP1 PUSH4 0xC7F758A8 EQ PUSH2 0x4D8 JUMPI DUP1 PUSH4 0xC966F516 EQ PUSH2 0x2C4 JUMPI DUP1 PUSH4 0xDA35C664 EQ PUSH2 0x2A6 JUMPI PUSH4 0xE1B526B0 EQ PUSH2 0xAB JUMPI PUSH1 0x0 DUP1 REVERT JUMPDEST CALLVALUE PUSH2 0x2A1 JUMPI PUSH1 0x20 DUP1 PUSH1 0x3 NOT CALLDATASIZE ADD SLT PUSH2 0x2A1 JUMPI PUSH1 0x4 CALLDATALOAD PUSH1 0x1 DUP1 PUSH1 0xA0 SHL SUB SWAP2 DUP3 PUSH1 0x0 SLOAD AND PUSH1 0x40 MLOAD SWAP1 PUSH4 0x935E01B PUSH1 0xE2 SHL SWAP2 DUP3 DUP2 MSTORE CALLER PUSH1 0x4 DUP3 ADD MSTORE DUP4 DUP2 PUSH1 0x24 DUP2 DUP6 GAS STATICCALL DUP1 ISZERO PUSH2 0x278 JUMPI PUSH2 0x103 SWAP2 PUSH1 0x0 SWAP2 PUSH2 0x284 JUMPI JUMPDEST POP PUSH2 0x162F JUMP JUMPDEST DUP4 PUSH1 0x0 MSTORE PUSH1 0x2 DUP4 MSTORE PUSH1 0x40 PUSH1 0x0 KECCAK256 SWAP2 PUSH1 0x5 DUP4 ADD SWAP2 DUP5 DUP4 SLOAD SWAP8 DUP9 AND PUSH2 0x127 DUP2 ISZERO ISZERO PUSH2 0x1763 JUMP JUMPDEST CALLER EQ SWAP3 DUP4 ISZERO PUSH2 0x21C JUMPI JUMPDEST POP POP POP ISZERO PUSH2 0x1C5 JUMPI PUSH1 0xFF DUP6 PUSH1 0xA0 SHR AND ISZERO PUSH2 0x180 JUMPI PUSH32 0x1D4ACF5B5169381A31B16D43BF25FFCB1D6F22F1127BB0C412A0D970E25AFFB5 SWAP4 SWAP5 PUSH1 0xFF PUSH1 0xA0 SHL NOT AND SWAP1 SSTORE PUSH1 0x9 TIMESTAMP SWAP2 ADD SSTORE PUSH1 0x40 MLOAD TIMESTAMP DUP2 MSTORE LOG2 STOP JUMPDEST PUSH1 0x40 MLOAD PUSH3 0x461BCD PUSH1 0xE5 SHL DUP2 MSTORE PUSH1 0x4 DUP2 ADD DUP5 SWAP1 MSTORE PUSH1 0x1C PUSH1 0x24 DUP3 ADD MSTORE PUSH32 0x50726F706F73616C20697320616C726561647920696E61637469766500000000 PUSH1 0x44 DUP3 ADD MSTORE PUSH1 0x64 SWAP1 REVERT JUMPDEST PUSH1 0x40 MLOAD PUSH3 0x461BCD PUSH1 0xE5 SHL DUP2 MSTORE PUSH1 0x4 DUP2 ADD DUP5 SWAP1 MSTORE PUSH1 0x29 PUSH1 0x24 DUP3 ADD MSTORE PUSH32 0x4F6E6C792063726561746F72206F722061646D696E2063616E20657870697265 PUSH1 0x44 DUP3 ADD MSTORE PUSH9 0x81C1C9BDC1BDCD85B PUSH1 0xBA SHL PUSH1 0x64 DUP3 ADD MSTORE PUSH1 0x84 SWAP1 REVERT JUMPDEST SWAP1 SWAP2 SWAP3 POP PUSH1 0x24 PUSH1 0x40 MLOAD DUP1 SWAP5 DUP2 SWAP4 DUP3 MSTORE CALLER PUSH1 0x4 DUP4 ADD MSTORE GAS STATICCALL SWAP1 DUP2 ISZERO PUSH2 0x278 JUMPI PUSH1 0x0 SWAP2 PUSH2 0x24B JUMPI JUMPDEST POP CODESIZE DUP5 DUP2 PUSH2 0x131 JUMP JUMPDEST PUSH2 0x26B SWAP2 POP DUP5 RETURNDATASIZE DUP7 GT PUSH2 0x271 JUMPI JUMPDEST PUSH2 0x263 DUP2 DUP4 PUSH2 0x15F5 JUMP JUMPDEST DUP2 ADD SWAP1 PUSH2 0x1617 JUMP JUMPDEST CODESIZE PUSH2 0x242 JUMP JUMPDEST POP RETURNDATASIZE PUSH2 0x259 JUMP JUMPDEST PUSH1 0x40 MLOAD RETURNDATASIZE PUSH1 0x0 DUP3 RETURNDATACOPY RETURNDATASIZE SWAP1 REVERT JUMPDEST PUSH2 0x29B SWAP2 POP DUP6 RETURNDATASIZE DUP8 GT PUSH2 0x271 JUMPI PUSH2 0x263 DUP2 DUP4 PUSH2 0x15F5 JUMP JUMPDEST CODESIZE PUSH2 0xFD JUMP JUMPDEST PUSH1 0x0 DUP1 REVERT JUMPDEST CALLVALUE PUSH2 0x2A1 JUMPI PUSH1 0x0 CALLDATASIZE PUSH1 0x3 NOT ADD SLT PUSH2 0x2A1 JUMPI PUSH1 0x20 PUSH1 0x1 SLOAD PUSH1 0x40 MLOAD SWAP1 DUP2 MSTORE RETURN JUMPDEST CALLVALUE PUSH2 0x2A1 JUMPI PUSH1 0x40 CALLDATASIZE PUSH1 0x3 NOT ADD SLT PUSH2 0x2A1 JUMPI PUSH1 0x0 SLOAD PUSH1 0x40 MLOAD PUSH4 0x935E01B PUSH1 0xE2 SHL DUP1 DUP3 MSTORE CALLER PUSH1 0x4 DUP4 ADD MSTORE PUSH1 0x1 PUSH1 0x1 PUSH1 0xA0 SHL SUB SWAP3 PUSH1 0x24 DUP1 CALLDATALOAD SWAP4 SWAP1 SWAP3 PUSH1 0x20 SWAP3 SWAP1 SWAP2 SWAP1 DUP7 AND SWAP1 DUP4 DUP2 DUP7 DUP2 DUP6 GAS STATICCALL DUP1 ISZERO PUSH2 0x278 JUMPI PUSH2 0x323 SWAP2 PUSH1 0x0 SWAP2 PUSH2 0x4BB JUMPI POP PUSH2 0x162F JUMP JUMPDEST PUSH1 0x4 CALLDATALOAD PUSH1 0x0 MSTORE PUSH1 0x2 DUP4 MSTORE DUP3 PUSH1 0x40 PUSH1 0x0 KECCAK256 SWAP7 PUSH1 0x5 DUP9 ADD SLOAD AND PUSH2 0x345 DUP2 ISZERO ISZERO PUSH2 0x1763 JUMP JUMPDEST CALLER EQ SWAP3 DUP4 ISZERO PUSH2 0x470 JUMPI JUMPDEST POP POP POP ISZERO PUSH2 0x41C JUMPI PUSH1 0x6 DUP5 ADD SWAP2 DUP3 SLOAD DUP5 GT ISZERO PUSH2 0x3C9 JUMPI TIMESTAMP DUP5 GT ISZERO PUSH2 0x37B JUMPI POP POP SSTORE PUSH1 0x9 TIMESTAMP SWAP2 ADD SSTORE PUSH1 0x0 DUP1 RETURN JUMPDEST SWAP1 PUSH1 0x22 PUSH1 0x84 SWAP3 PUSH1 0x40 MLOAD SWAP3 PUSH3 0x461BCD PUSH1 0xE5 SHL DUP5 MSTORE PUSH1 0x4 DUP5 ADD MSTORE DUP3 ADD MSTORE PUSH32 0x4E657720646561646C696E65206D75737420626520696E207468652066757475 PUSH1 0x44 DUP3 ADD MSTORE PUSH2 0x7265 PUSH1 0xF0 SHL PUSH1 0x64 DUP3 ADD MSTORE REVERT JUMPDEST SWAP1 PUSH1 0x27 PUSH1 0x84 SWAP3 PUSH1 0x40 MLOAD SWAP3 PUSH3 0x461BCD PUSH1 0xE5 SHL DUP5 MSTORE PUSH1 0x4 DUP5 ADD MSTORE DUP3 ADD MSTORE PUSH32 0x43616E206F6E6C7920657874656E6420646561646C696E652C206E6F74207265 PUSH1 0x44 DUP3 ADD MSTORE PUSH7 0x191D58D9481A5D PUSH1 0xCA SHL PUSH1 0x64 DUP3 ADD MSTORE REVERT JUMPDEST PUSH1 0x29 PUSH1 0x84 SWAP3 PUSH1 0x40 MLOAD SWAP3 PUSH3 0x461BCD PUSH1 0xE5 SHL DUP5 MSTORE PUSH1 0x4 DUP5 ADD MSTORE DUP3 ADD MSTORE PUSH32 0x4F6E6C792063726561746F72206F722061646D696E2063616E20657874656E64 PUSH1 0x44 DUP3 ADD MSTORE PUSH9 0x20646561646C696E65 PUSH1 0xB8 SHL PUSH1 0x64 DUP3 ADD MSTORE REVERT JUMPDEST SWAP1 SWAP2 SWAP3 POP DUP5 PUSH1 0x40 MLOAD DUP1 SWAP5 DUP2 SWAP4 DUP3 MSTORE CALLER PUSH1 0x4 DUP4 ADD MSTORE GAS STATICCALL SWAP1 DUP2 ISZERO PUSH2 0x278 JUMPI PUSH1 0x0 SWAP2 PUSH2 0x49E JUMPI JUMPDEST POP DUP6 DUP3 DUP2 PUSH2 0x34F JUMP JUMPDEST PUSH2 0x4B5 SWAP2 POP DUP3 RETURNDATASIZE DUP5 GT PUSH2 0x271 JUMPI PUSH2 0x263 DUP2 DUP4 PUSH2 0x15F5 JUMP JUMPDEST DUP6 PUSH2 0x495 JUMP JUMPDEST PUSH2 0x4D2 SWAP2 POP DUP6 RETURNDATASIZE DUP8 GT PUSH2 0x271 JUMPI PUSH2 0x263 DUP2 DUP4 PUSH2 0x15F5 JUMP JUMPDEST DUP9 PUSH2 0xFD JUMP JUMPDEST CALLVALUE PUSH2 0x2A1 JUMPI PUSH1 0x20 CALLDATASIZE PUSH1 0x3 NOT ADD SLT PUSH2 0x2A1 JUMPI PUSH1 0x4 CALLDATALOAD PUSH1 0x0 SWAP1 DUP2 MSTORE PUSH1 0x2 PUSH1 0x20 MSTORE PUSH1 0x40 SWAP1 KECCAK256 PUSH1 0x5 DUP2 ADD SLOAD PUSH2 0x57D SWAP1 PUSH1 0x1 PUSH1 0x1 PUSH1 0xA0 SHL SUB DUP2 AND SWAP1 PUSH2 0x519 DUP3 ISZERO ISZERO PUSH2 0x1763 JUMP JUMPDEST PUSH1 0x3 DUP5 ADD SLOAD SWAP2 PUSH1 0x4 DUP6 ADD SLOAD SWAP2 PUSH1 0x6 DUP7 ADD SLOAD PUSH1 0xFF PUSH1 0x7 DUP9 ADD SLOAD SWAP3 PUSH1 0x8 DUP10 ADD SLOAD SWAP5 PUSH1 0x9 DUP11 ADD SLOAD SWAP7 PUSH2 0x599 DUP12 PUSH2 0x58B PUSH2 0x566 PUSH1 0x2 PUSH2 0x55F PUSH1 0x1 PUSH2 0x558 DUP7 PUSH2 0x1807 JUMP JUMPDEST SWAP6 ADD PUSH2 0x1807 JUMP JUMPDEST SWAP16 ADD PUSH2 0x1807 JUMP JUMPDEST SWAP2 PUSH1 0x40 MLOAD SWAP15 DUP16 SWAP15 DUP16 SWAP3 PUSH2 0x160 DUP1 DUP6 MSTORE DUP5 ADD SWAP1 PUSH2 0x15B5 JUMP JUMPDEST SWAP2 PUSH1 0x20 DUP2 DUP5 SUB SWAP2 ADD MSTORE PUSH2 0x15B5 JUMP JUMPDEST DUP13 DUP2 SUB PUSH1 0x40 DUP15 ADD MSTORE SWAP1 PUSH2 0x15B5 JUMP JUMPDEST SWAP9 PUSH1 0x60 DUP12 ADD MSTORE PUSH1 0x80 DUP11 ADD MSTORE PUSH1 0xA0 DUP10 ADD MSTORE PUSH1 0xA0 SHR AND ISZERO ISZERO PUSH1 0xC0 DUP8 ADD MSTORE PUSH1 0xE0 DUP7 ADD MSTORE PUSH2 0x100 DUP6 ADD MSTORE PUSH2 0x120 DUP5 ADD MSTORE PUSH2 0x140 DUP4 ADD MSTORE SUB SWAP1 RETURN JUMPDEST CALLVALUE PUSH2 0x2A1 JUMPI PUSH1 0x20 CALLDATASIZE PUSH1 0x3 NOT ADD SLT PUSH2 0x2A1 JUMPI PUSH1 0x4 CALLDATALOAD PUSH1 0x1 PUSH1 0x1 PUSH1 0xA0 SHL SUB DUP2 AND SWAP1 DUP2 SWAP1 SUB PUSH2 0x2A1 JUMPI PUSH1 0x0 MSTORE PUSH1 0x3 PUSH1 0x20 MSTORE PUSH1 0x20 PUSH1 0x40 PUSH1 0x0 KECCAK256 SLOAD PUSH1 0x40 MLOAD SWAP1 DUP2 MSTORE RETURN JUMPDEST CALLVALUE PUSH2 0x2A1 JUMPI PUSH1 0xA0 CALLDATASIZE PUSH1 0x3 NOT ADD SLT PUSH2 0x2A1 JUMPI PUSH1 0x4 CALLDATALOAD PUSH8 0xFFFFFFFFFFFFFFFF DUP2 GT PUSH2 0x2A1 JUMPI PUSH2 0x63E SWAP1 CALLDATASIZE SWAP1 PUSH1 0x4 ADD PUSH2 0x1587 JUMP JUMPDEST SWAP1 PUSH1 0x24 CALLDATALOAD PUSH8 0xFFFFFFFFFFFFFFFF DUP2 GT PUSH2 0x2A1 JUMPI PUSH2 0x65F SWAP1 CALLDATASIZE SWAP1 PUSH1 0x4 ADD PUSH2 0x1587 JUMP JUMPDEST PUSH1 0x44 SWAP4 SWAP2 DUP5 CALLDATALOAD PUSH8 0xFFFFFFFFFFFFFFFF DUP2 GT PUSH2 0x2A1 JUMPI PUSH2 0x682 SWAP1 CALLDATASIZE SWAP1 PUSH1 0x4 ADD PUSH2 0x1587 JUMP JUMPDEST PUSH1 0x0 SLOAD PUSH1 0x40 MLOAD PUSH4 0x935E01B PUSH1 0xE2 SHL DUP2 MSTORE CALLER PUSH1 0x4 DUP3 ADD MSTORE SWAP3 SWAP8 SWAP2 SWAP5 SWAP3 SWAP1 PUSH1 0x20 SWAP1 DUP3 SWAP1 PUSH1 0x24 SWAP1 DUP3 SWAP1 PUSH1 0x1 PUSH1 0x1 PUSH1 0xA0 SHL SUB AND GAS STATICCALL DUP1 ISZERO PUSH2 0x278 JUMPI PUSH2 0x6CA SWAP2 PUSH1 0x0 SWAP2 PUSH2 0xCE5 JUMPI POP PUSH2 0x162F JUMP JUMPDEST DUP5 ISZERO PUSH2 0xCA1 JUMPI DUP2 ISZERO PUSH2 0xC4F JUMPI DUP4 ISZERO PUSH2 0xBFA JUMPI TIMESTAMP PUSH1 0x84 CALLDATALOAD GT ISZERO PUSH2 0xBAB JUMPI PUSH1 0x64 CALLDATALOAD ISZERO PUSH2 0xB67 JUMPI POP PUSH2 0x6FA PUSH1 0x1 SLOAD PUSH2 0x1671 JUMP JUMPDEST SWAP5 DUP6 PUSH1 0x1 SSTORE DUP6 PUSH1 0x0 MSTORE PUSH1 0x2 PUSH1 0x20 MSTORE PUSH1 0x40 PUSH1 0x0 KECCAK256 PUSH8 0xFFFFFFFFFFFFFFFF DUP7 GT PUSH2 0x9DD JUMPI PUSH2 0x726 DUP2 SLOAD PUSH2 0x1680 JUMP JUMPDEST PUSH1 0x1F DUP2 GT PUSH2 0xB23 JUMPI JUMPDEST POP DUP6 PUSH1 0x0 PUSH1 0x1F DUP3 GT PUSH1 0x1 EQ PUSH2 0xABE JUMPI PUSH1 0x0 SWAP2 PUSH2 0xAB3 JUMPI JUMPDEST POP DUP7 PUSH1 0x1 SHL SWAP1 PUSH1 0x0 NOT DUP9 PUSH1 0x3 SHL SHR NOT AND OR DUP2 SSTORE JUMPDEST PUSH8 0xFFFFFFFFFFFFFFFF DUP4 GT PUSH2 0x9DD JUMPI PUSH2 0x776 PUSH1 0x1 DUP3 ADD SLOAD PUSH2 0x1680 JUMP JUMPDEST PUSH1 0x1F DUP2 GT PUSH2 0xA6C JUMPI JUMPDEST POP DUP3 PUSH1 0x0 PUSH1 0x1F DUP3 GT PUSH1 0x1 EQ PUSH2 0x9FE JUMPI PUSH1 0x0 SWAP2 PUSH2 0x9F3 JUMPI JUMPDEST POP DUP4 PUSH1 0x1 SHL SWAP1 PUSH1 0x0 NOT DUP6 PUSH1 0x3 SHL SHR NOT AND OR PUSH1 0x1 DUP3 ADD SSTORE JUMPDEST PUSH8 0xFFFFFFFFFFFFFFFF DUP6 GT PUSH2 0x9DD JUMPI PUSH2 0x7C9 PUSH1 0x2 DUP3 ADD SLOAD PUSH2 0x1680 JUMP JUMPDEST PUSH1 0x1F DUP2 GT PUSH2 0x992 JUMPI JUMPDEST POP SWAP2 PUSH1 0x20 SWAP8 SWAP4 SWAP2 DUP8 SWAP6 SWAP4 PUSH1 0x0 PUSH1 0x1F DUP7 GT PUSH1 0x1 EQ PUSH2 0x8F3 JUMPI SWAP3 PUSH2 0x8AE PUSH2 0x8BB SWAP4 PUSH32 0xA545C4DCA3F89091030A281BF4422840F14E6FDB422E08CA04C8D6AE025F9D5E SWAP9 SWAP7 SWAP4 DUP9 PUSH2 0x8C9 SWAP10 SWAP8 PUSH1 0x0 SWAP2 PUSH2 0x8E8 JUMPI JUMPDEST POP DUP8 PUSH1 0x1 SHL SWAP1 PUSH1 0x0 NOT DUP10 PUSH1 0x3 SHL SHR NOT AND OR PUSH1 0x2 DUP3 ADD SSTORE JUMPDEST PUSH1 0x5 DUP2 ADD DUP1 SLOAD PUSH1 0x1 PUSH1 0xA0 SHL SWAP1 PUSH1 0xFF PUSH1 0xA0 SHL NOT CALLER AND SWAP1 PUSH11 0xFFFFFFFFFFFFFFFFFFFFFF PUSH1 0xA8 SHL AND OR OR SWAP1 SSTORE PUSH1 0x0 PUSH1 0x3 DUP3 ADD SSTORE PUSH1 0x0 PUSH1 0x4 DUP3 ADD SSTORE PUSH1 0x64 CALLDATALOAD PUSH1 0x7 DUP3 ADD SSTORE PUSH1 0x84 CALLDATALOAD PUSH1 0x6 DUP3 ADD SSTORE TIMESTAMP PUSH1 0x8 DUP3 ADD SSTORE PUSH1 0x9 TIMESTAMP SWAP2 ADD SSTORE CALLER PUSH1 0x0 MSTORE PUSH1 0x3 DUP14 MSTORE TIMESTAMP PUSH1 0x40 PUSH1 0x0 KECCAK256 SSTORE PUSH1 0x40 MLOAD SWAP11 PUSH1 0xA0 DUP13 MSTORE PUSH1 0xA0 DUP13 ADD SWAP2 PUSH2 0x16BA JUMP JUMPDEST SWAP2 DUP10 DUP4 SUB DUP13 DUP12 ADD MSTORE PUSH2 0x16BA JUMP JUMPDEST SWAP2 DUP7 DUP4 SUB PUSH1 0x40 DUP9 ADD MSTORE PUSH2 0x16BA JUMP JUMPDEST SWAP3 PUSH1 0x64 CALLDATALOAD PUSH1 0x60 DUP3 ADD MSTORE PUSH1 0x84 CALLDATALOAD PUSH1 0x80 DUP3 ADD MSTORE DUP1 CALLER SWAP5 SUB SWAP1 LOG3 PUSH1 0x40 MLOAD SWAP1 DUP2 MSTORE RETURN JUMPDEST SWAP1 POP DUP9 ADD CALLDATALOAD DUP16 PUSH2 0x823 JUMP JUMPDEST PUSH1 0x2 DUP3 ADD PUSH1 0x0 MSTORE DUP11 PUSH1 0x0 KECCAK256 SWAP1 PUSH1 0x0 JUMPDEST PUSH1 0x1F NOT DUP9 AND DUP2 LT PUSH2 0x978 JUMPI POP PUSH2 0x8BB SWAP4 PUSH32 0xA545C4DCA3F89091030A281BF4422840F14E6FDB422E08CA04C8D6AE025F9D5E SWAP9 SWAP7 SWAP4 DUP9 SWAP7 SWAP4 PUSH2 0x8AE SWAP4 PUSH2 0x8C9 SWAP11 PUSH1 0x1F NOT DUP2 AND LT PUSH2 0x95E JUMPI JUMPDEST POP POP PUSH1 0x1 DUP8 DUP2 SHL ADD PUSH1 0x2 DUP3 ADD SSTORE PUSH2 0x83A JUMP JUMPDEST DUP10 ADD CALLDATALOAD PUSH1 0x0 NOT PUSH1 0x3 DUP11 SWAP1 SHL PUSH1 0xF8 AND SHR NOT AND SWAP1 SSTORE DUP15 DUP1 PUSH2 0x94C JUMP JUMPDEST DUP2 DUP10 ADD CALLDATALOAD DUP4 SSTORE DUP12 SWAP10 POP PUSH1 0x1 SWAP1 SWAP3 ADD SWAP2 SWAP1 DUP13 ADD SWAP1 DUP13 ADD PUSH2 0x902 JUMP JUMPDEST PUSH1 0x2 DUP3 ADD PUSH1 0x0 MSTORE PUSH1 0x20 PUSH1 0x0 KECCAK256 PUSH1 0x1F DUP8 ADD PUSH1 0x5 SHR DUP2 ADD SWAP2 PUSH1 0x20 DUP9 LT PUSH2 0x9D3 JUMPI JUMPDEST PUSH1 0x1F ADD PUSH1 0x5 SHR ADD SWAP1 JUMPDEST DUP2 DUP2 LT PUSH2 0x9C7 JUMPI POP PUSH2 0x7D2 JUMP JUMPDEST PUSH1 0x0 DUP2 SSTORE PUSH1 0x1 ADD PUSH2 0x9BA JUMP JUMPDEST SWAP1 SWAP2 POP DUP2 SWAP1 PUSH2 0x9B1 JUMP JUMPDEST PUSH4 0x4E487B71 PUSH1 0xE0 SHL PUSH1 0x0 MSTORE PUSH1 0x41 PUSH1 0x4 MSTORE PUSH1 0x24 PUSH1 0x0 REVERT JUMPDEST SWAP1 POP DUP5 ADD CALLDATALOAD DUP10 PUSH2 0x796 JUMP JUMPDEST SWAP1 POP PUSH1 0x1 DUP3 ADD PUSH1 0x0 MSTORE PUSH1 0x20 PUSH1 0x0 KECCAK256 SWAP1 PUSH1 0x0 JUMPDEST PUSH1 0x1F NOT DUP7 AND DUP2 LT PUSH2 0xA54 JUMPI POP DUP5 PUSH1 0x1F NOT DUP2 AND LT PUSH2 0xA3A JUMPI JUMPDEST POP POP PUSH1 0x1 DUP4 DUP2 SHL ADD PUSH1 0x1 DUP3 ADD SSTORE PUSH2 0x7AD JUMP JUMPDEST DUP6 ADD CALLDATALOAD PUSH1 0x0 NOT PUSH1 0x3 DUP7 SWAP1 SHL PUSH1 0xF8 AND SHR NOT AND SWAP1 SSTORE DUP9 DUP1 PUSH2 0xA28 JUMP JUMPDEST SWAP1 SWAP2 PUSH1 0x20 PUSH1 0x1 DUP2 SWAP3 DUP6 DUP11 ADD CALLDATALOAD DUP2 SSTORE ADD SWAP4 ADD SWAP2 ADD PUSH2 0xA10 JUMP JUMPDEST PUSH1 0x1 DUP3 ADD PUSH1 0x0 MSTORE PUSH1 0x20 PUSH1 0x0 KECCAK256 PUSH1 0x1F DUP6 ADD PUSH1 0x5 SHR DUP2 ADD PUSH1 0x20 DUP7 LT PUSH2 0xAAC JUMPI JUMPDEST PUSH1 0x1F DUP4 ADD PUSH1 0x5 SHR DUP3 ADD DUP2 LT PUSH2 0xAA0 JUMPI POP POP PUSH2 0x77F JUMP JUMPDEST PUSH1 0x0 DUP2 SSTORE PUSH1 0x1 ADD PUSH2 0xA8A JUMP JUMPDEST POP DUP1 PUSH2 0xA8A JUMP JUMPDEST SWAP1 POP DUP3 ADD CALLDATALOAD DUP10 PUSH2 0x746 JUMP JUMPDEST PUSH1 0x0 DUP4 DUP2 MSTORE PUSH1 0x20 DUP2 KECCAK256 SWAP3 POP JUMPDEST PUSH1 0x1F NOT DUP10 AND DUP2 LT PUSH2 0xB0B JUMPI POP DUP8 PUSH1 0x1F NOT DUP2 AND LT PUSH2 0xAF1 JUMPI JUMPDEST POP POP PUSH1 0x1 DUP7 DUP2 SHL ADD DUP2 SSTORE PUSH2 0x75A JUMP JUMPDEST DUP4 ADD CALLDATALOAD PUSH1 0x0 NOT PUSH1 0x3 DUP10 SWAP1 SHL PUSH1 0xF8 AND SHR NOT AND SWAP1 SSTORE DUP9 DUP1 PUSH2 0xAE2 JUMP JUMPDEST SWAP1 SWAP2 PUSH1 0x20 PUSH1 0x1 DUP2 SWAP3 DUP6 DUP9 ADD CALLDATALOAD DUP2 SSTORE ADD SWAP4 ADD SWAP2 ADD PUSH2 0xACA JUMP JUMPDEST DUP2 PUSH1 0x0 MSTORE PUSH1 0x20 PUSH1 0x0 KECCAK256 PUSH1 0x1F DUP9 ADD PUSH1 0x5 SHR DUP2 ADD PUSH1 0x20 DUP10 LT PUSH2 0xB60 JUMPI JUMPDEST PUSH1 0x1F DUP4 ADD PUSH1 0x5 SHR DUP3 ADD DUP2 LT PUSH2 0xB54 JUMPI POP POP PUSH2 0x72F JUMP JUMPDEST PUSH1 0x0 DUP2 SSTORE PUSH1 0x1 ADD PUSH2 0xB3E JUMP JUMPDEST POP DUP1 PUSH2 0xB3E JUMP JUMPDEST PUSH1 0x64 SWAP1 PUSH32 0x43617465676F7279204944206D7573742062652076616C696400000000000000 PUSH1 0x40 MLOAD SWAP2 PUSH3 0x461BCD PUSH1 0xE5 SHL DUP4 MSTORE PUSH1 0x20 PUSH1 0x4 DUP5 ADD MSTORE PUSH1 0x19 PUSH1 0x24 DUP5 ADD MSTORE DUP3 ADD MSTORE REVERT JUMPDEST PUSH1 0x84 SWAP1 PUSH32 0x457870697265642064617465206D75737420626520696E207468652066757475 PUSH1 0x40 MLOAD SWAP2 PUSH3 0x461BCD PUSH1 0xE5 SHL DUP4 MSTORE PUSH1 0x20 PUSH1 0x4 DUP5 ADD MSTORE PUSH1 0x22 PUSH1 0x24 DUP5 ADD MSTORE DUP3 ADD MSTORE PUSH2 0x7265 PUSH1 0xF0 SHL PUSH1 0x64 DUP3 ADD MSTORE REVERT JUMPDEST PUSH1 0x84 SWAP1 PUSH32 0x44657461696C6564206465736372697074696F6E204349442063616E6E6F7420 PUSH1 0x40 MLOAD SWAP2 PUSH3 0x461BCD PUSH1 0xE5 SHL DUP4 MSTORE PUSH1 0x20 PUSH1 0x4 DUP5 ADD MSTORE PUSH1 0x28 PUSH1 0x24 DUP5 ADD MSTORE DUP3 ADD MSTORE PUSH8 0x626520656D707479 PUSH1 0xC0 SHL PUSH1 0x64 DUP3 ADD MSTORE REVERT JUMPDEST PUSH1 0x84 SWAP1 PUSH32 0x53686F7274206465736372697074696F6E204349442063616E6E6F7420626520 PUSH1 0x40 MLOAD SWAP2 PUSH3 0x461BCD PUSH1 0xE5 SHL DUP4 MSTORE PUSH1 0x20 PUSH1 0x4 DUP5 ADD MSTORE PUSH1 0x25 PUSH1 0x24 DUP5 ADD MSTORE DUP3 ADD MSTORE PUSH5 0x656D707479 PUSH1 0xD8 SHL PUSH1 0x64 DUP3 ADD MSTORE REVERT JUMPDEST PUSH1 0x64 SWAP1 PUSH32 0x5469746C65204349442063616E6E6F7420626520656D70747900000000000000 PUSH1 0x40 MLOAD SWAP2 PUSH3 0x461BCD PUSH1 0xE5 SHL DUP4 MSTORE PUSH1 0x20 PUSH1 0x4 DUP5 ADD MSTORE PUSH1 0x19 PUSH1 0x24 DUP5 ADD MSTORE DUP3 ADD MSTORE REVERT JUMPDEST PUSH2 0xCFE SWAP2 POP PUSH1 0x20 RETURNDATASIZE PUSH1 0x20 GT PUSH2 0x271 JUMPI PUSH2 0x263 DUP2 DUP4 PUSH2 0x15F5 JUMP JUMPDEST DUP10 PUSH2 0xFD JUMP JUMPDEST CALLVALUE PUSH2 0x2A1 JUMPI PUSH1 0x20 DUP1 PUSH1 0x3 NOT CALLDATASIZE ADD SLT PUSH2 0x2A1 JUMPI PUSH1 0x4 CALLDATALOAD SWAP1 PUSH1 0x1 DUP1 PUSH1 0xA0 SHL SUB SWAP1 PUSH1 0x24 DUP2 DUP4 PUSH1 0x0 SLOAD AND PUSH1 0x40 MLOAD SWAP3 DUP4 DUP1 SWAP3 PUSH4 0x1FD3F77 PUSH1 0xE7 SHL DUP3 MSTORE CALLER PUSH1 0x4 DUP4 ADD MSTORE GAS STATICCALL DUP1 ISZERO PUSH2 0x278 JUMPI PUSH2 0xD5A SWAP2 PUSH1 0x0 SWAP2 PUSH2 0xEB3 JUMPI POP PUSH2 0x162F JUMP JUMPDEST DUP3 PUSH1 0x0 MSTORE PUSH1 0x2 DUP2 MSTORE PUSH2 0xD88 PUSH1 0x6 PUSH1 0x40 PUSH1 0x0 KECCAK256 PUSH2 0xD7F PUSH1 0xFF PUSH1 0x5 DUP4 ADD SLOAD PUSH1 0xA0 SHR AND PUSH2 0x16DB JUMP JUMPDEST ADD SLOAD TIMESTAMP LT PUSH2 0x1720 JUMP JUMPDEST DUP3 PUSH1 0x0 MSTORE PUSH1 0x2 DUP2 MSTORE PUSH1 0x40 PUSH1 0x0 KECCAK256 SWAP2 PUSH1 0x5 DUP4 ADD SLOAD AND SWAP1 PUSH2 0xDA8 DUP3 ISZERO ISZERO PUSH2 0x1763 JUMP JUMPDEST PUSH1 0xA DUP4 ADD SWAP2 CALLER PUSH1 0x0 MSTORE DUP3 DUP3 MSTORE PUSH1 0xFF PUSH1 0x40 PUSH1 0x0 KECCAK256 SLOAD AND PUSH2 0xE5A JUMPI PUSH2 0xDCD SWAP1 CALLER EQ ISZERO PUSH2 0x17AF JUMP JUMPDEST CALLER PUSH1 0x0 MSTORE PUSH1 0xB DUP4 ADD DUP2 MSTORE PUSH1 0x40 PUSH1 0x0 KECCAK256 DUP1 SLOAD PUSH1 0xFF DUP2 AND PUSH2 0xE3D JUMPI JUMPDEST POP POP CALLER PUSH1 0x0 MSTORE MSTORE PUSH1 0x40 PUSH1 0x0 KECCAK256 PUSH1 0x1 PUSH1 0xFF NOT DUP3 SLOAD AND OR SWAP1 SSTORE PUSH1 0x3 DUP2 ADD PUSH2 0xE0C DUP2 SLOAD PUSH2 0x1671 JUMP JUMPDEST SWAP1 SSTORE PUSH1 0x9 TIMESTAMP SWAP2 ADD SSTORE CALLER SWAP1 PUSH32 0x91D72FE165ABD5430E48336DE75685D3F58EAEAB2EB2D7B644EF7403642D116F PUSH1 0x0 DUP1 LOG3 STOP JUMPDEST PUSH1 0xFF NOT AND SWAP1 SSTORE PUSH1 0x4 DUP4 ADD PUSH2 0xE51 DUP2 SLOAD PUSH2 0x17FA JUMP JUMPDEST SWAP1 SSTORE DUP5 DUP1 PUSH2 0xDE7 JUMP JUMPDEST PUSH1 0x40 MLOAD PUSH3 0x461BCD PUSH1 0xE5 SHL DUP2 MSTORE PUSH1 0x4 DUP2 ADD DUP4 SWAP1 MSTORE PUSH1 0x2B PUSH1 0x24 DUP3 ADD MSTORE PUSH32 0x596F75206861766520616C726561647920766F74656420594553206F6E207468 PUSH1 0x44 DUP3 ADD MSTORE PUSH11 0x1A5CC81C1C9BDC1BDCD85B PUSH1 0xAA SHL PUSH1 0x64 DUP3 ADD MSTORE PUSH1 0x84 SWAP1 REVERT JUMPDEST PUSH2 0xECA SWAP2 POP DUP4 RETURNDATASIZE DUP6 GT PUSH2 0x271 JUMPI PUSH2 0x263 DUP2 DUP4 PUSH2 0x15F5 JUMP JUMPDEST DUP6 PUSH2 0xFD JUMP JUMPDEST CALLVALUE PUSH2 0x2A1 JUMPI PUSH1 0x0 CALLDATASIZE PUSH1 0x3 NOT ADD SLT PUSH2 0x2A1 JUMPI PUSH1 0x0 SLOAD PUSH1 0x40 MLOAD PUSH1 0x1 PUSH1 0x1 PUSH1 0xA0 SHL SUB SWAP1 SWAP2 AND DUP2 MSTORE PUSH1 0x20 SWAP1 RETURN JUMPDEST CALLVALUE PUSH2 0x2A1 JUMPI PUSH1 0x20 CALLDATASIZE PUSH1 0x3 NOT ADD SLT PUSH2 0x2A1 JUMPI PUSH1 0x4 CALLDATALOAD PUSH1 0x0 SWAP1 DUP2 MSTORE PUSH1 0x2 PUSH1 0x20 MSTORE PUSH1 0x40 SWAP1 KECCAK256 PUSH1 0x5 DUP2 ADD SLOAD PUSH2 0xF34 SWAP1 PUSH1 0x1 PUSH1 0x1 PUSH1 0xA0 SHL SUB AND ISZERO ISZERO PUSH2 0x1763 JUMP JUMPDEST PUSH1 0x4 PUSH1 0x3 DUP3 ADD SLOAD SWAP2 ADD SLOAD SWAP1 DUP2 DUP2 SUB SWAP2 PUSH1 0x0 DUP2 SLT DUP3 DUP5 SLT DUP2 AND SWAP1 DUP4 DUP6 SGT SWAP1 ISZERO AND OR PUSH2 0xFBA JUMPI DUP1 DUP3 ADD DUP1 DUP4 GT PUSH2 0xFBA JUMPI DUP1 ISZERO SWAP4 DUP5 PUSH2 0xFD0 JUMPI PUSH1 0x64 DUP5 MUL SWAP5 DUP5 DUP7 DIV PUSH1 0x64 EQ DUP6 ISZERO OR ISZERO PUSH2 0xFBA JUMPI PUSH2 0xFA4 JUMPI DUP2 PUSH1 0xA0 SWAP6 DIV SWAP3 JUMPDEST PUSH1 0x40 MLOAD SWAP5 DUP6 MSTORE PUSH1 0x20 DUP6 ADD MSTORE PUSH1 0x40 DUP5 ADD MSTORE PUSH1 0x60 DUP4 ADD MSTORE PUSH1 0x80 DUP3 ADD MSTORE RETURN JUMPDEST PUSH4 0x4E487B71 PUSH1 0xE0 SHL PUSH1 0x0 MSTORE PUSH1 0x12 PUSH1 0x4 MSTORE PUSH1 0x24 PUSH1 0x0 REVERT JUMPDEST PUSH4 0x4E487B71 PUSH1 0xE0 SHL PUSH1 0x0 MSTORE PUSH1 0x11 PUSH1 0x4 MSTORE PUSH1 0x24 PUSH1 0x0 REVERT JUMPDEST PUSH1 0xA0 SWAP5 POP PUSH1 0x0 SWAP3 PUSH2 0xF88 JUMP JUMPDEST CALLVALUE PUSH2 0x2A1 JUMPI PUSH1 0x20 DUP1 PUSH1 0x3 NOT CALLDATASIZE ADD SLT PUSH2 0x2A1 JUMPI PUSH1 0x4 CALLDATALOAD SWAP1 PUSH1 0x1 DUP1 PUSH1 0xA0 SHL SUB SWAP2 PUSH1 0x24 DUP3 DUP5 PUSH1 0x0 SLOAD AND PUSH1 0x40 MLOAD SWAP3 DUP4 DUP1 SWAP3 PUSH4 0x1FD3F77 PUSH1 0xE7 SHL DUP3 MSTORE CALLER PUSH1 0x4 DUP4 ADD MSTORE GAS STATICCALL DUP1 ISZERO PUSH2 0x278 JUMPI PUSH2 0x1032 SWAP2 PUSH1 0x0 SWAP2 PUSH2 0x1151 JUMPI POP PUSH2 0x162F JUMP JUMPDEST DUP1 PUSH1 0x0 MSTORE PUSH1 0x2 DUP3 MSTORE PUSH2 0x1057 PUSH1 0x6 PUSH1 0x40 PUSH1 0x0 KECCAK256 PUSH2 0xD7F PUSH1 0xFF PUSH1 0x5 DUP4 ADD SLOAD PUSH1 0xA0 SHR AND PUSH2 0x16DB JUMP JUMPDEST PUSH1 0x0 MSTORE PUSH1 0x2 DUP2 MSTORE PUSH2 0x1074 PUSH1 0x40 PUSH1 0x0 KECCAK256 SWAP3 PUSH1 0x5 DUP5 ADD SLOAD AND ISZERO ISZERO PUSH2 0x1763 JUMP JUMPDEST PUSH1 0x0 CALLER PUSH1 0x0 MSTORE PUSH1 0xA DUP4 ADD DUP3 MSTORE PUSH1 0x40 PUSH1 0x0 KECCAK256 DUP1 SLOAD PUSH1 0xFF DUP2 AND PUSH2 0x1130 JUMPI JUMPDEST POP POP CALLER PUSH1 0x0 MSTORE PUSH1 0xB DUP4 ADD DUP3 MSTORE PUSH1 0x40 PUSH1 0x0 KECCAK256 DUP1 SLOAD PUSH1 0xFF DUP2 AND PUSH2 0x110F JUMPI JUMPDEST POP POP ISZERO PUSH2 0x10BF JUMPI POP PUSH1 0x9 TIMESTAMP SWAP2 ADD SSTORE PUSH1 0x0 DUP1 RETURN JUMPDEST PUSH1 0x84 SWAP1 PUSH1 0x40 MLOAD SWAP1 PUSH3 0x461BCD PUSH1 0xE5 SHL DUP3 MSTORE PUSH1 0x4 DUP3 ADD MSTORE PUSH1 0x23 PUSH1 0x24 DUP3 ADD MSTORE PUSH32 0x596F752068617665206E6F7420766F746564206F6E20746869732070726F706F PUSH1 0x44 DUP3 ADD MSTORE PUSH3 0x1CD85B PUSH1 0xEA SHL PUSH1 0x64 DUP3 ADD MSTORE REVERT JUMPDEST PUSH1 0xFF NOT AND SWAP1 SSTORE POP PUSH1 0x4 DUP3 ADD DUP1 SLOAD PUSH2 0x1125 SWAP1 PUSH2 0x17FA JUMP JUMPDEST SWAP1 SSTORE PUSH1 0x1 DUP4 DUP1 PUSH2 0x10AC JUMP JUMPDEST PUSH1 0xFF NOT AND SWAP1 SSTORE POP PUSH1 0x3 DUP3 ADD DUP1 SLOAD PUSH2 0x1146 SWAP1 PUSH2 0x17FA JUMP JUMPDEST SWAP1 SSTORE PUSH1 0x1 DUP4 DUP1 PUSH2 0x1090 JUMP JUMPDEST PUSH2 0xECA SWAP2 POP DUP5 RETURNDATASIZE DUP7 GT PUSH2 0x271 JUMPI PUSH2 0x263 DUP2 DUP4 PUSH2 0x15F5 JUMP JUMPDEST CALLVALUE PUSH2 0x2A1 JUMPI PUSH1 0x40 CALLDATASIZE PUSH1 0x3 NOT ADD SLT PUSH2 0x2A1 JUMPI PUSH1 0x4 CALLDATALOAD PUSH1 0x24 CALLDATALOAD SWAP1 DUP2 ISZERO ISZERO DUP1 SWAP3 SUB PUSH2 0x2A1 JUMPI PUSH1 0x0 SLOAD PUSH1 0x40 MLOAD PUSH4 0x935E01B PUSH1 0xE2 SHL DUP1 DUP3 MSTORE CALLER PUSH1 0x4 DUP4 ADD MSTORE PUSH1 0x1 PUSH1 0x1 PUSH1 0xA0 SHL SUB SWAP5 PUSH1 0x20 SWAP4 SWAP1 SWAP3 SWAP1 DUP7 AND SWAP1 DUP5 DUP2 PUSH1 0x24 DUP2 DUP6 GAS STATICCALL DUP1 ISZERO PUSH2 0x278 JUMPI PUSH2 0x11D2 SWAP2 PUSH1 0x0 SWAP2 PUSH2 0x1350 JUMPI POP PUSH2 0x162F JUMP JUMPDEST DUP5 PUSH1 0x0 MSTORE PUSH1 0x2 DUP5 MSTORE PUSH1 0x40 PUSH1 0x0 KECCAK256 SWAP2 PUSH1 0x5 DUP4 ADD SWAP2 DUP6 DUP4 SLOAD SWAP9 DUP10 AND PUSH2 0x11F6 DUP2 ISZERO ISZERO PUSH2 0x1763 JUMP JUMPDEST CALLER EQ SWAP3 DUP4 ISZERO PUSH2 0x1304 JUMPI JUMPDEST POP POP POP ISZERO PUSH2 0x12AF JUMPI DUP3 PUSH1 0xFF DUP8 PUSH1 0xA0 SHR AND ISZERO ISZERO EQ PUSH2 0x125E JUMPI PUSH32 0x68E3CE211A37937184ED2D0165534A314CFF3C8B8BD7DCDD845523B07698450F SWAP5 SWAP6 PUSH1 0xFF PUSH1 0xA0 SHL DUP5 PUSH1 0xA0 SHL AND SWAP1 PUSH1 0xFF PUSH1 0xA0 SHL NOT AND OR SWAP1 SSTORE PUSH1 0x9 TIMESTAMP SWAP2 ADD SSTORE PUSH1 0x40 MLOAD SWAP1 DUP2 MSTORE LOG2 STOP JUMPDEST PUSH1 0x40 MLOAD PUSH3 0x461BCD PUSH1 0xE5 SHL DUP2 MSTORE PUSH1 0x4 DUP2 ADD DUP6 SWAP1 MSTORE PUSH1 0x23 PUSH1 0x24 DUP3 ADD MSTORE PUSH32 0x53746174757320697320616C72656164792073657420746F2074686973207661 PUSH1 0x44 DUP3 ADD MSTORE PUSH3 0x6C7565 PUSH1 0xE8 SHL PUSH1 0x64 DUP3 ADD MSTORE PUSH1 0x84 SWAP1 REVERT JUMPDEST PUSH1 0x40 MLOAD PUSH3 0x461BCD PUSH1 0xE5 SHL DUP2 MSTORE PUSH1 0x4 DUP2 ADD DUP6 SWAP1 MSTORE PUSH1 0x27 PUSH1 0x24 DUP3 ADD MSTORE PUSH32 0x4F6E6C792063726561746F72206F722061646D696E2063616E206368616E6765 PUSH1 0x44 DUP3 ADD MSTORE PUSH7 0x20737461747573 PUSH1 0xC8 SHL PUSH1 0x64 DUP3 ADD MSTORE PUSH1 0x84 SWAP1 REVERT JUMPDEST SWAP1 SWAP2 SWAP3 POP PUSH1 0x24 PUSH1 0x40 MLOAD DUP1 SWAP5 DUP2 SWAP4 DUP3 MSTORE CALLER PUSH1 0x4 DUP4 ADD MSTORE GAS STATICCALL SWAP1 DUP2 ISZERO PUSH2 0x278 JUMPI PUSH1 0x0 SWAP2 PUSH2 0x1333 JUMPI JUMPDEST POP DUP8 DUP6 DUP2 PUSH2 0x1200 JUMP JUMPDEST PUSH2 0x134A SWAP2 POP DUP6 RETURNDATASIZE DUP8 GT PUSH2 0x271 JUMPI PUSH2 0x263 DUP2 DUP4 PUSH2 0x15F5 JUMP JUMPDEST DUP8 PUSH2 0x132A JUMP JUMPDEST PUSH2 0x4D2 SWAP2 POP DUP7 RETURNDATASIZE DUP9 GT PUSH2 0x271 JUMPI PUSH2 0x263 DUP2 DUP4 PUSH2 0x15F5 JUMP JUMPDEST CALLVALUE PUSH2 0x2A1 JUMPI PUSH1 0x20 DUP1 PUSH1 0x3 NOT CALLDATASIZE ADD SLT PUSH2 0x2A1 JUMPI PUSH1 0x4 CALLDATALOAD SWAP1 PUSH1 0x1 DUP1 PUSH1 0xA0 SHL SUB SWAP1 PUSH1 0x24 DUP2 DUP4 PUSH1 0x0 SLOAD AND PUSH1 0x40 MLOAD SWAP3 DUP4 DUP1 SWAP3 PUSH4 0x1FD3F77 PUSH1 0xE7 SHL DUP3 MSTORE CALLER PUSH1 0x4 DUP4 ADD MSTORE GAS STATICCALL DUP1 ISZERO PUSH2 0x278 JUMPI PUSH2 0x13BD SWAP2 PUSH1 0x0 SWAP2 PUSH2 0xEB3 JUMPI POP PUSH2 0x162F JUMP JUMPDEST DUP3 PUSH1 0x0 MSTORE PUSH1 0x2 DUP2 MSTORE PUSH2 0x13E2 PUSH1 0x6 PUSH1 0x40 PUSH1 0x0 KECCAK256 PUSH2 0xD7F PUSH1 0xFF PUSH1 0x5 DUP4 ADD SLOAD PUSH1 0xA0 SHR AND PUSH2 0x16DB JUMP JUMPDEST DUP3 PUSH1 0x0 MSTORE PUSH1 0x2 DUP2 MSTORE PUSH1 0x40 PUSH1 0x0 KECCAK256 SWAP2 PUSH1 0x5 DUP4 ADD SLOAD AND SWAP1 PUSH2 0x1402 DUP3 ISZERO ISZERO PUSH2 0x1763 JUMP JUMPDEST PUSH1 0xB DUP4 ADD SWAP2 CALLER PUSH1 0x0 MSTORE DUP3 DUP3 MSTORE PUSH1 0xFF PUSH1 0x40 PUSH1 0x0 KECCAK256 SLOAD AND PUSH2 0x14B4 JUMPI PUSH2 0x1427 SWAP1 CALLER EQ ISZERO PUSH2 0x17AF JUMP JUMPDEST CALLER PUSH1 0x0 MSTORE PUSH1 0xA DUP4 ADD DUP2 MSTORE PUSH1 0x40 PUSH1 0x0 KECCAK256 DUP1 SLOAD PUSH1 0xFF DUP2 AND PUSH2 0x1497 JUMPI JUMPDEST POP POP CALLER PUSH1 0x0 MSTORE MSTORE PUSH1 0x40 PUSH1 0x0 KECCAK256 PUSH1 0x1 PUSH1 0xFF NOT DUP3 SLOAD AND OR SWAP1 SSTORE PUSH1 0x4 DUP2 ADD PUSH2 0x1466 DUP2 SLOAD PUSH2 0x1671 JUMP JUMPDEST SWAP1 SSTORE PUSH1 0x9 TIMESTAMP SWAP2 ADD SSTORE CALLER SWAP1 PUSH32 0xF22F90EC8CA04CBB8FBCB15687D8DC5DCC4D74EAF1529B699367F232B785358B PUSH1 0x0 DUP1 LOG3 STOP JUMPDEST PUSH1 0xFF NOT AND SWAP1 SSTORE PUSH1 0x3 DUP4 ADD PUSH2 0x14AB DUP2 SLOAD PUSH2 0x17FA JUMP JUMPDEST SWAP1 SSTORE DUP5 DUP1 PUSH2 0x1441 JUMP JUMPDEST PUSH1 0x40 MLOAD PUSH3 0x461BCD PUSH1 0xE5 SHL DUP2 MSTORE PUSH1 0x4 DUP2 ADD DUP4 SWAP1 MSTORE PUSH1 0x2A PUSH1 0x24 DUP3 ADD MSTORE PUSH32 0x596F75206861766520616C726561647920766F746564204E4F206F6E20746869 PUSH1 0x44 DUP3 ADD MSTORE PUSH10 0x1CC81C1C9BDC1BDCD85B PUSH1 0xB2 SHL PUSH1 0x64 DUP3 ADD MSTORE PUSH1 0x84 SWAP1 REVERT JUMPDEST CALLVALUE PUSH2 0x2A1 JUMPI PUSH1 0x40 CALLDATASIZE PUSH1 0x3 NOT ADD SLT PUSH2 0x2A1 JUMPI PUSH1 0x24 CALLDATALOAD PUSH1 0x1 PUSH1 0x1 PUSH1 0xA0 SHL SUB DUP2 DUP2 AND SWAP2 DUP3 SWAP1 SUB PUSH2 0x2A1 JUMPI PUSH1 0x40 SWAP2 PUSH1 0x4 CALLDATALOAD PUSH1 0x0 MSTORE PUSH1 0x2 PUSH1 0x20 MSTORE PUSH2 0x1556 DUP4 PUSH1 0x0 KECCAK256 SWAP3 PUSH1 0x5 DUP5 ADD SLOAD AND ISZERO ISZERO PUSH2 0x1763 JUMP JUMPDEST PUSH1 0x0 MSTORE PUSH1 0xA DUP2 ADD PUSH1 0x20 MSTORE PUSH1 0xB PUSH1 0xFF DUP4 PUSH1 0x0 KECCAK256 SLOAD AND SWAP2 ADD PUSH1 0x20 MSTORE PUSH1 0xFF DUP3 PUSH1 0x0 KECCAK256 SLOAD AND DUP3 MLOAD SWAP2 ISZERO ISZERO DUP3 MSTORE ISZERO ISZERO PUSH1 0x20 DUP3 ADD MSTORE RETURN JUMPDEST SWAP2 DUP2 PUSH1 0x1F DUP5 ADD SLT ISZERO PUSH2 0x2A1 JUMPI DUP3 CALLDATALOAD SWAP2 PUSH8 0xFFFFFFFFFFFFFFFF DUP4 GT PUSH2 0x2A1 JUMPI PUSH1 0x20 DUP4 DUP2 DUP7 ADD SWAP6 ADD ADD GT PUSH2 0x2A1 JUMPI JUMP JUMPDEST SWAP2 SWAP1 DUP3 MLOAD SWAP3 DUP4 DUP3 MSTORE PUSH1 0x0 JUMPDEST DUP5 DUP2 LT PUSH2 0x15E1 JUMPI POP POP DUP3 PUSH1 0x0 PUSH1 0x20 DUP1 SWAP5 SWAP6 DUP5 ADD ADD MSTORE PUSH1 0x1F DUP1 NOT SWAP2 ADD AND ADD ADD SWAP1 JUMP JUMPDEST PUSH1 0x20 DUP2 DUP4 ADD DUP2 ADD MLOAD DUP5 DUP4 ADD DUP3 ADD MSTORE ADD PUSH2 0x15C0 JUMP JUMPDEST SWAP1 PUSH1 0x1F DUP1 NOT SWAP2 ADD AND DUP2 ADD SWAP1 DUP2 LT PUSH8 0xFFFFFFFFFFFFFFFF DUP3 GT OR PUSH2 0x9DD JUMPI PUSH1 0x40 MSTORE JUMP JUMPDEST SWAP1 DUP2 PUSH1 0x20 SWAP2 SUB SLT PUSH2 0x2A1 JUMPI MLOAD DUP1 ISZERO ISZERO DUP2 SUB PUSH2 0x2A1 JUMPI SWAP1 JUMP JUMPDEST ISZERO PUSH2 0x1636 JUMPI JUMP JUMPDEST PUSH1 0x40 MLOAD PUSH3 0x461BCD PUSH1 0xE5 SHL DUP2 MSTORE PUSH1 0x20 PUSH1 0x4 DUP3 ADD MSTORE PUSH1 0x13 PUSH1 0x24 DUP3 ADD MSTORE PUSH19 0x155CD95C881B9BDD08185D5D1A1BDC9A5E9959 PUSH1 0x6A SHL PUSH1 0x44 DUP3 ADD MSTORE PUSH1 0x64 SWAP1 REVERT JUMPDEST PUSH1 0x0 NOT DUP2 EQ PUSH2 0xFBA JUMPI PUSH1 0x1 ADD SWAP1 JUMP JUMPDEST SWAP1 PUSH1 0x1 DUP3 DUP2 SHR SWAP3 AND DUP1 ISZERO PUSH2 0x16B0 JUMPI JUMPDEST PUSH1 0x20 DUP4 LT EQ PUSH2 0x169A JUMPI JUMP JUMPDEST PUSH4 0x4E487B71 PUSH1 0xE0 SHL PUSH1 0x0 MSTORE PUSH1 0x22 PUSH1 0x4 MSTORE PUSH1 0x24 PUSH1 0x0 REVERT JUMPDEST SWAP2 PUSH1 0x7F AND SWAP2 PUSH2 0x168F JUMP JUMPDEST SWAP1 DUP1 PUSH1 0x20 SWAP4 SWAP3 DUP2 DUP5 MSTORE DUP5 DUP5 ADD CALLDATACOPY PUSH1 0x0 DUP3 DUP3 ADD DUP5 ADD MSTORE PUSH1 0x1F ADD PUSH1 0x1F NOT AND ADD ADD SWAP1 JUMP JUMPDEST ISZERO PUSH2 0x16E2 JUMPI JUMP JUMPDEST PUSH1 0x40 MLOAD PUSH3 0x461BCD PUSH1 0xE5 SHL DUP2 MSTORE PUSH1 0x20 PUSH1 0x4 DUP3 ADD MSTORE PUSH1 0x16 PUSH1 0x24 DUP3 ADD MSTORE PUSH22 0x50726F706F73616C206973206E6F7420616374697665 PUSH1 0x50 SHL PUSH1 0x44 DUP3 ADD MSTORE PUSH1 0x64 SWAP1 REVERT JUMPDEST ISZERO PUSH2 0x1727 JUMPI JUMP JUMPDEST PUSH1 0x40 MLOAD PUSH3 0x461BCD PUSH1 0xE5 SHL DUP2 MSTORE PUSH1 0x20 PUSH1 0x4 DUP3 ADD MSTORE PUSH1 0x14 PUSH1 0x24 DUP3 ADD MSTORE PUSH20 0x141C9BDC1BDCD85B081A185CC8195E1C1A5C9959 PUSH1 0x62 SHL PUSH1 0x44 DUP3 ADD MSTORE PUSH1 0x64 SWAP1 REVERT JUMPDEST ISZERO PUSH2 0x176A JUMPI JUMP JUMPDEST PUSH1 0x40 MLOAD PUSH3 0x461BCD PUSH1 0xE5 SHL DUP2 MSTORE PUSH1 0x20 PUSH1 0x4 DUP3 ADD MSTORE PUSH1 0x17 PUSH1 0x24 DUP3 ADD MSTORE PUSH32 0x50726F706F73616C20646F6573206E6F74206578697374000000000000000000 PUSH1 0x44 DUP3 ADD MSTORE PUSH1 0x64 SWAP1 REVERT JUMPDEST ISZERO PUSH2 0x17B6 JUMPI JUMP JUMPDEST PUSH1 0x64 PUSH1 0x40 MLOAD PUSH3 0x461BCD PUSH1 0xE5 SHL DUP2 MSTORE PUSH1 0x20 PUSH1 0x4 DUP3 ADD MSTORE PUSH1 0x20 PUSH1 0x24 DUP3 ADD MSTORE PUSH32 0x43616E6E6F7420766F7465206F6E20796F7572206F776E2070726F706F73616C PUSH1 0x44 DUP3 ADD MSTORE REVERT JUMPDEST DUP1 ISZERO PUSH2 0xFBA JUMPI PUSH1 0x0 NOT ADD SWAP1 JUMP JUMPDEST SWAP1 PUSH1 0x40 MLOAD SWAP2 DUP3 PUSH1 0x0 DUP3 SLOAD SWAP3 PUSH2 0x181B DUP5 PUSH2 0x1680 JUMP JUMPDEST SWAP1 DUP2 DUP5 MSTORE PUSH1 0x1 SWAP5 DUP6 DUP2 AND SWAP1 DUP2 PUSH1 0x0 EQ PUSH2 0x188A JUMPI POP PUSH1 0x1 EQ PUSH2 0x1847 JUMPI JUMPDEST POP POP PUSH2 0x1845 SWAP3 POP SUB DUP4 PUSH2 0x15F5 JUMP JUMPDEST JUMP JUMPDEST SWAP1 SWAP4 SWAP2 POP PUSH1 0x0 MSTORE PUSH1 0x20 SWAP1 DUP2 PUSH1 0x0 KECCAK256 SWAP4 PUSH1 0x0 SWAP2 JUMPDEST DUP2 DUP4 LT PUSH2 0x1872 JUMPI POP POP PUSH2 0x1845 SWAP4 POP DUP3 ADD ADD CODESIZE DUP1 PUSH2 0x1837 JUMP JUMPDEST DUP6 SLOAD DUP9 DUP5 ADD DUP6 ADD MSTORE SWAP5 DUP6 ADD SWAP5 DUP8 SWAP5 POP SWAP2 DUP4 ADD SWAP2 PUSH2 0x185A JUMP JUMPDEST SWAP2 POP POP PUSH2 0x1845 SWAP5 POP PUSH1 0x20 SWAP3 POP PUSH1 0xFF NOT AND DUP3 DUP5 ADD MSTORE ISZERO ISZERO PUSH1 0x5 SHL DUP3 ADD ADD CODESIZE DUP1 PUSH2 0x1837 JUMP INVALID LOG2 PUSH5 0x6970667358 0x22 SLT KECCAK256 SWAP3 XOR 0x1F PUSH27 0x94877DDE2996DDEFB6F4F0C8902B08DE491BBB426569E960A21357 AND PUSH5 0x736F6C6343 STOP ADDMOD EQ STOP CALLER "},"methodIdentifiers":{"authRegistry()":"629e025a","changeProposalStatus(uint256,bool)":"38c545b4","createProposal(string,string,string,uint256,uint256)":"8e295bda","expireProposal(uint256)":"e1b526b0","extendProposalDeadline(uint256,uint256)":"c966f516","getProposal(uint256)":"c7f758a8","getProposalVotes(uint256)":"47c66140","getUserVote(uint256,address)":"03c7881a","lastCreatedAt(address)":"b94afa71","proposalCount()":"da35c664","removeVote(uint256)":"3f68fde4","voteNo(uint256)":"1a6f7be5","voteYes(uint256)":"6a1cf721"}}}}}