{"contracts/auth/auth.sol":{"AuthRegistry":{"abi":[{"inputs":[],"stateMutability":"nonpayable","type":"constructor"},{"anonymous":false,"inputs":[{"indexed":false,"internalType":"address","name":"admin","type":"address"}],"name":"AdminAuthorized","type":"event"},{"anonymous":false,"inputs":[{"indexed":false,"internalType":"address","name":"admin","type":"address"}],"name":"AdminRevoked","type":"event"},{"anonymous":false,"inputs":[{"indexed":false,"internalType":"address","name":"user","type":"address"}],"name":"UserAuthorized","type":"event"},{"anonymous":false,"inputs":[{"indexed":false,"internalType":"address","name":"user","type":"address"}],"name":"UserRevoked","type":"event"},{"inputs":[{"internalType":"address","name":"","type":"address"}],"name":"adminUsers","outputs":[{"internalType":"bool","name":"","type":"bool"}],"stateMutability":"view","type":"function"},{"inputs":[{"internalType":"address","name":"admin","type":"address"}],"name":"authorizeAdmin","outputs":[],"stateMutability":"nonpayable","type":"function"},{"inputs":[{"internalType":"address","name":"user","type":"address"}],"name":"authorizeUser","outputs":[],"stateMutability":"nonpayable","type":"function"},{"inputs":[{"internalType":"address","name":"","type":"address"}],"name":"authorizedUsers","outputs":[{"internalType":"bool","name":"","type":"bool"}],"stateMutability":"view","type":"function"},{"inputs":[{"internalType":"address","name":"user","type":"address"}],"name":"isAdmin","outputs":[{"internalType":"bool","name":"","type":"bool"}],"stateMutability":"view","type":"function"},{"inputs":[{"internalType":"address","name":"user","type":"address"}],"name":"isAuthorized","outputs":[{"internalType":"bool","name":"","type":"bool"}],"stateMutability":"view","type":"function"},{"inputs":[],"name":"owner","outputs":[{"internalType":"address","name":"","type":"address"}],"stateMutability":"view","type":"function"},{"inputs":[{"internalType":"address","name":"admin","type":"address"}],"name":"revokeAdmin","outputs":[],"stateMutability":"nonpayable","type":"function"},{"inputs":[{"internalType":"address","name":"user","type":"address"}],"name":"revokeUser","outputs":[],"stateMutability":"nonpayable","type":"function"}],"evm":{"bytecode":{"linkReferences":{},"object":"6080806040523461002857600080546001600160a01b031916331790556103e2908161002e8239f35b600080fdfe608060409080825260048036101561001657600080fd5b600091823560e01c9081631828983a1461032e5750806324d7806c146101895780632d345670146102b9578063579f60da1461024157806367c2a360146101c95780637fa249cf146101895780638da5cb5b14610161578063ef097fc4146100e45763fe9fbb801461008757600080fd5b346100e05760203660031901126100e057356001600160a01b03811692908390036100e05760209282526001835260ff81832054169182156100cd575b50519015158152f35b600284528190205460ff169150386100c4565b5080fd5b5082903461015d57602036600319011261015d576001600160a01b03903581811690819003610159577fb43ac7bf01d16ebcb8c868a4c03fecb1f6984ea4fa1a52c116ef282b8dbb17c59261013f602093865416331461036b565b81855260018352808520805460ff1916905551908152a180f35b8380fd5b8280fd5b8284346100e057816003193601126100e057905490516001600160a01b039091168152602090f35b5082903461015d57602036600319011261015d57356001600160a01b0381169081900361015d57818360ff92602095526002855220541690519015158152f35b5082903461015d57602036600319011261015d576001600160a01b03903581811690819003610159577fb0be505cf6e26533f3066ac7722c3f8a5e8a123f43187c7832d333c49603b14692610224602093865416331461036b565b81855260018352808520600160ff1982541617905551908152a180f35b5082903461015d57602036600319011261015d576001600160a01b03903581811690819003610159577f5481d9ad8ae9261381727027aa19258cb29ffe58222eb81a23cc590c870ff2f49261029c602093865416331461036b565b81855260028352808520805460ff1916600117905551908152a180f35b5082903461015d57602036600319011261015d576001600160a01b03903581811690819003610159577f631ff1c4e1a02c54b480a34b810e03bcee61fe38efcb243930a7f820914923e292610314602093865416331461036b565b81855260028352808520805460ff1916905551908152a180f35b918491503461015957602036600319011261015957356001600160a01b038116908190036101595783526001602090815292205460ff1615158152f35b1561037257565b60405162461bcd60e51b81526020600482015260126024820152712737ba1031b7b73a3930b1ba1037bbb732b960711b6044820152606490fdfea26469706673582212205da6a8df30061f8f9bb748568335736c6a5967a4f1651d0002b6e629ff4b567964736f6c63430008140033","opcodes":"PUSH1 0x80 DUP1 PUSH1 0x40 MSTORE CALLVALUE PUSH2 0x28 JUMPI PUSH1 0x0 DUP1 SLOAD PUSH1 0x1 PUSH1 0x1 PUSH1 0xA0 SHL SUB NOT AND CALLER OR SWAP1 SSTORE PUSH2 0x3E2 SWAP1 DUP2 PUSH2 0x2E DUP3 CODECOPY RETURN JUMPDEST PUSH1 0x0 DUP1 REVERT INVALID PUSH1 0x80 PUSH1 0x40 SWAP1 DUP1 DUP3 MSTORE PUSH1 0x4 DUP1 CALLDATASIZE LT ISZERO PUSH2 0x16 JUMPI PUSH1 0x0 DUP1 REVERT JUMPDEST PUSH1 0x0 SWAP2 DUP3 CALLDATALOAD PUSH1 0xE0 SHR SWAP1 DUP2 PUSH4 0x1828983A EQ PUSH2 0x32E JUMPI POP DUP1 PUSH4 0x24D7806C EQ PUSH2 0x189 JUMPI DUP1 PUSH4 0x2D345670 EQ PUSH2 0x2B9 JUMPI DUP1 PUSH4 0x579F60DA EQ PUSH2 0x241 JUMPI DUP1 PUSH4 0x67C2A360 EQ PUSH2 0x1C9 JUMPI DUP1 PUSH4 0x7FA249CF EQ PUSH2 0x189 JUMPI DUP1 PUSH4 0x8DA5CB5B EQ PUSH2 0x161 JUMPI DUP1 PUSH4 0xEF097FC4 EQ PUSH2 0xE4 JUMPI PUSH4 0xFE9FBB80 EQ PUSH2 0x87 JUMPI PUSH1 0x0 DUP1 REVERT JUMPDEST CALLVALUE PUSH2 0xE0 JUMPI PUSH1 0x20 CALLDATASIZE PUSH1 0x3 NOT ADD SLT PUSH2 0xE0 JUMPI CALLDATALOAD PUSH1 0x1 PUSH1 0x1 PUSH1 0xA0 SHL SUB DUP2 AND SWAP3 SWAP1 DUP4 SWAP1 SUB PUSH2 0xE0 JUMPI PUSH1 0x20 SWAP3 DUP3 MSTORE PUSH1 0x1 DUP4 MSTORE PUSH1 0xFF DUP2 DUP4 KECCAK256 SLOAD AND SWAP2 DUP3 ISZERO PUSH2 0xCD JUMPI JUMPDEST POP MLOAD SWAP1 ISZERO ISZERO DUP2 MSTORE RETURN JUMPDEST PUSH1 0x2 DUP5 MSTORE DUP2 SWAP1 KECCAK256 SLOAD PUSH1 0xFF AND SWAP2 POP CODESIZE PUSH2 0xC4 JUMP JUMPDEST POP DUP1 REVERT JUMPDEST POP DUP3 SWAP1 CALLVALUE PUSH2 0x15D JUMPI PUSH1 0x20 CALLDATASIZE PUSH1 0x3 NOT ADD SLT PUSH2 0x15D JUMPI PUSH1 0x1 PUSH1 0x1 PUSH1 0xA0 SHL SUB SWAP1 CALLDATALOAD DUP2 DUP2 AND SWAP1 DUP2 SWAP1 SUB PUSH2 0x159 JUMPI PUSH32 0xB43AC7BF01D16EBCB8C868A4C03FECB1F6984EA4FA1A52C116EF282B8DBB17C5 SWAP3 PUSH2 0x13F PUSH1 0x20 SWAP4 DUP7 SLOAD AND CALLER EQ PUSH2 0x36B JUMP JUMPDEST DUP2 DUP6 MSTORE PUSH1 0x1 DUP4 MSTORE DUP1 DUP6 KECCAK256 DUP1 SLOAD PUSH1 0xFF NOT AND SWAP1 SSTORE MLOAD SWAP1 DUP2 MSTORE LOG1 DUP1 RETURN JUMPDEST DUP4 DUP1 REVERT JUMPDEST DUP3 DUP1 REVERT JUMPDEST DUP3 DUP5 CALLVALUE PUSH2 0xE0 JUMPI DUP2 PUSH1 0x3 NOT CALLDATASIZE ADD SLT PUSH2 0xE0 JUMPI SWAP1 SLOAD SWAP1 MLOAD PUSH1 0x1 PUSH1 0x1 PUSH1 0xA0 SHL SUB SWAP1 SWAP2 AND DUP2 MSTORE PUSH1 0x20 SWAP1 RETURN JUMPDEST POP DUP3 SWAP1 CALLVALUE PUSH2 0x15D JUMPI PUSH1 0x20 CALLDATASIZE PUSH1 0x3 NOT ADD SLT PUSH2 0x15D JUMPI CALLDATALOAD PUSH1 0x1 PUSH1 0x1 PUSH1 0xA0 SHL SUB DUP2 AND SWAP1 DUP2 SWAP1 SUB PUSH2 0x15D JUMPI DUP2 DUP4 PUSH1 0xFF SWAP3 PUSH1 0x20 SWAP6 MSTORE PUSH1 0x2 DUP6 MSTORE KECCAK256 SLOAD AND SWAP1 MLOAD SWAP1 ISZERO ISZERO DUP2 MSTORE RETURN JUMPDEST POP DUP3 SWAP1 CALLVALUE PUSH2 0x15D JUMPI PUSH1 0x20 CALLDATASIZE PUSH1 0x3 NOT ADD SLT PUSH2 0x15D JUMPI PUSH1 0x1 PUSH1 0x1 PUSH1 0xA0 SHL SUB SWAP1 CALLDATALOAD DUP2 DUP2 AND SWAP1 DUP2 SWAP1 SUB PUSH2 0x159 JUMPI PUSH32 0xB0BE505CF6E26533F3066AC7722C3F8A5E8A123F43187C7832D333C49603B146 SWAP3 PUSH2 0x224 PUSH1 0x20 SWAP4 DUP7 SLOAD AND CALLER EQ PUSH2 0x36B JUMP JUMPDEST DUP2 DUP6 MSTORE PUSH1 0x1 DUP4 MSTORE DUP1 DUP6 KECCAK256 PUSH1 0x1 PUSH1 0xFF NOT DUP3 SLOAD AND OR SWAP1 SSTORE MLOAD SWAP1 DUP2 MSTORE LOG1 DUP1 RETURN JUMPDEST POP DUP3 SWAP1 CALLVALUE PUSH2 0x15D JUMPI PUSH1 0x20 CALLDATASIZE PUSH1 0x3 NOT ADD SLT PUSH2 0x15D JUMPI PUSH1 0x1 PUSH1 0x1 PUSH1 0xA0 SHL SUB SWAP1 CALLDATALOAD DUP2 DUP2 AND SWAP1 DUP2 SWAP1 SUB PUSH2 0x159 JUMPI PUSH32 0x5481D9AD8AE9261381727027AA19258CB29FFE58222EB81A23CC590C870FF2F4 SWAP3 PUSH2 0x29C PUSH1 0x20 SWAP4 DUP7 SLOAD AND CALLER EQ PUSH2 0x36B JUMP JUMPDEST DUP2 DUP6 MSTORE PUSH1 0x2 DUP4 MSTORE DUP1 DUP6 KECCAK256 DUP1 SLOAD PUSH1 0xFF NOT AND PUSH1 0x1 OR SWAP1 SSTORE MLOAD SWAP1 DUP2 MSTORE LOG1 DUP1 RETURN JUMPDEST POP DUP3 SWAP1 CALLVALUE PUSH2 0x15D JUMPI PUSH1 0x20 CALLDATASIZE PUSH1 0x3 NOT ADD SLT PUSH2 0x15D JUMPI PUSH1 0x1 PUSH1 0x1 PUSH1 0xA0 SHL SUB SWAP1 CALLDATALOAD DUP2 DUP2 AND SWAP1 DUP2 SWAP1 SUB PUSH2 0x159 JUMPI PUSH32 0x631FF1C4E1A02C54B480A34B810E03BCEE61FE38EFCB243930A7F820914923E2 SWAP3 PUSH2 0x314 PUSH1 0x20 SWAP4 DUP7 SLOAD AND CALLER EQ PUSH2 0x36B JUMP JUMPDEST DUP2 DUP6 MSTORE PUSH1 0x2 DUP4 MSTORE DUP1 DUP6 KECCAK256 DUP1 SLOAD PUSH1 0xFF NOT AND SWAP1 SSTORE MLOAD SWAP1 DUP2 MSTORE LOG1 DUP1 RETURN JUMPDEST SWAP2 DUP5 SWAP2 POP CALLVALUE PUSH2 0x159 JUMPI PUSH1 0x20 CALLDATASIZE PUSH1 0x3 NOT ADD SLT PUSH2 0x159 JUMPI CALLDATALOAD PUSH1 0x1 PUSH1 0x1 PUSH1 0xA0 SHL SUB DUP2 AND SWAP1 DUP2 SWAP1 SUB PUSH2 0x159 JUMPI DUP4 MSTORE PUSH1 0x1 PUSH1 0x20 SWAP1 DUP2 MSTORE SWAP3 KECCAK256 SLOAD PUSH1 0xFF AND ISZERO ISZERO DUP2 MSTORE RETURN JUMPDEST ISZERO PUSH2 0x372 JUMPI JUMP JUMPDEST PUSH1 0x40 MLOAD PUSH3 0x461BCD PUSH1 0xE5 SHL DUP2 MSTORE PUSH1 0x20 PUSH1 0x4 DUP3 ADD MSTORE PUSH1 0x12 PUSH1 0x24 DUP3 ADD MSTORE PUSH18 0x2737BA1031B7B73A3930B1BA1037BBB732B9 PUSH1 0x71 SHL PUSH1 0x44 DUP3 ADD MSTORE PUSH1 0x64 SWAP1 REVERT INVALID LOG2 PUSH5 0x6970667358 0x22 SLT KECCAK256 0x5D 0xA6 0xA8 0xDF ADDRESS MOD 0x1F DUP16 SWAP12 0xB7 BASEFEE JUMP DUP4 CALLDATALOAD PUSH20 0x6C6A5967A4F1651D0002B6E629FF4B567964736F PUSH13 0x63430008140033000000000000 "},"methodIdentifiers":{"adminUsers(address)":"7fa249cf","authorizeAdmin(address)":"579f60da","authorizeUser(address)":"67c2a360","authorizedUsers(address)":"1828983a","isAdmin(address)":"24d7806c","isAuthorized(address)":"fe9fbb80","owner()":"8da5cb5b","revokeAdmin(address)":"2d345670","revokeUser(address)":"ef097fc4"}}}}}