{"contracts/report/reports.sol":{"Reports":{"abi":[{"inputs":[{"internalType":"address","name":"_authRegistry","type":"address"}],"stateMutability":"nonpayable","type":"constructor"},{"anonymous":false,"inputs":[{"indexed":true,"internalType":"uint256","name":"reportId","type":"uint256"},{"indexed":true,"internalType":"address","name":"assignedTo","type":"address"}],"name":"ReportAssigned","type":"event"},{"anonymous":false,"inputs":[{"indexed":true,"internalType":"uint256","name":"reportId","type":"uint256"},{"indexed":true,"internalType":"address","name":"creator","type":"address"},{"indexed":false,"internalType":"string","name":"titleCid","type":"string"},{"indexed":false,"internalType":"string","name":"descriptionCid","type":"string"},{"indexed":false,"internalType":"string","name":"evidenceHashCid","type":"string"}],"name":"ReportCreated","type":"event"},{"anonymous":false,"inputs":[{"indexed":true,"internalType":"uint256","name":"reportId","type":"uint256"},{"indexed":true,"internalType":"address","name":"voter","type":"address"}],"name":"ReportDownvoted","type":"event"},{"anonymous":false,"inputs":[{"indexed":true,"internalType":"uint256","name":"reportId","type":"uint256"},{"indexed":true,"internalType":"address","name":"resolver","type":"address"},{"indexed":false,"internalType":"uint256","name":"resolvedAt","type":"uint256"}],"name":"ReportResolved","type":"event"},{"anonymous":false,"inputs":[{"indexed":true,"internalType":"uint256","name":"reportId","type":"uint256"},{"indexed":true,"internalType":"address","name":"voter","type":"address"}],"name":"ReportUpvoted","type":"event"},{"inputs":[{"internalType":"uint256","name":"reportId","type":"uint256"},{"internalType":"address","name":"assignTo","type":"address"}],"name":"assignReport","outputs":[],"stateMutability":"nonpayable","type":"function"},{"inputs":[],"name":"authRegistry","outputs":[{"internalType":"contract IAuthRegistry","name":"","type":"address"}],"stateMutability":"view","type":"function"},{"inputs":[{"internalType":"string","name":"titleCid","type":"string"},{"internalType":"string","name":"descriptionCid","type":"string"},{"internalType":"string","name":"evidenceHashCid","type":"string"}],"name":"createReport","outputs":[{"internalType":"uint256","name":"","type":"uint256"}],"stateMutability":"nonpayable","type":"function"},{"inputs":[{"internalType":"uint256","name":"reportId","type":"uint256"}],"name":"downvoteReport","outputs":[],"stateMutability":"nonpayable","type":"function"},{"inputs":[{"internalType":"uint256","name":"reportId","type":"uint256"}],"name":"getReport","outputs":[{"internalType":"string","name":"titleCid","type":"string"},{"internalType":"string","name":"descriptionCid","type":"string"},{"internalType":"string","name":"evidenceHashCid","type":"string"},{"internalType":"uint256","name":"upvotes","type":"uint256"},{"internalType":"uint256","name":"downvotes","type":"uint256"},{"internalType":"address","name":"creator","type":"address"},{"internalType":"bool","name":"resolved","type":"bool"},{"internalType":"address","name":"assignedTo","type":"address"},{"internalType":"uint256","name":"createdAt","type":"uint256"},{"internalType":"uint256","name":"resolvedAt","type":"uint256"}],"stateMutability":"view","type":"function"},{"inputs":[{"internalType":"uint256","name":"reportId","type":"uint256"}],"name":"getReportVotes","outputs":[{"internalType":"uint256","name":"upvotes","type":"uint256"},{"internalType":"uint256","name":"downvotes","type":"uint256"},{"internalType":"int256","name":"netVotes","type":"int256"},{"internalType":"uint256","name":"totalVotes","type":"uint256"}],"stateMutability":"view","type":"function"},{"inputs":[{"internalType":"address","name":"user","type":"address"}],"name":"getReportsAssignedTo","outputs":[{"internalType":"uint256[]","name":"reportIds","type":"uint256[]"}],"stateMutability":"view","type":"function"},{"inputs":[{"internalType":"address","name":"user","type":"address"}],"name":"getReportsByUser","outputs":[{"internalType":"uint256[]","name":"reportIds","type":"uint256[]"}],"stateMutability":"view","type":"function"},{"inputs":[{"internalType":"uint256","name":"reportId","type":"uint256"},{"internalType":"address","name":"user","type":"address"}],"name":"getUserVote","outputs":[{"internalType":"bool","name":"hasUpvoted","type":"bool"},{"internalType":"bool","name":"hasDownvoted","type":"bool"}],"stateMutability":"view","type":"function"},{"inputs":[{"internalType":"address","name":"","type":"address"}],"name":"lastCreatedAt","outputs":[{"internalType":"uint256","name":"","type":"uint256"}],"stateMutability":"view","type":"function"},{"inputs":[{"internalType":"uint256","name":"reportId","type":"uint256"}],"name":"removeVote","outputs":[],"stateMutability":"nonpayable","type":"function"},{"inputs":[{"internalType":"uint256","name":"reportId","type":"uint256"}],"name":"reopenReport","outputs":[],"stateMutability":"nonpayable","type":"function"},{"inputs":[],"name":"reportCount","outputs":[{"internalType":"uint256","name":"","type":"uint256"}],"stateMutability":"view","type":"function"},{"inputs":[{"internalType":"uint256","name":"reportId","type":"uint256"}],"name":"resolveReport","outputs":[],"stateMutability":"nonpayable","type":"function"},{"inputs":[{"internalType":"uint256","name":"reportId","type":"uint256"}],"name":"upvoteReport","outputs":[],"stateMutability":"nonpayable","type":"function"}],"evm":{"bytecode":{"linkReferences":{},"object":"6080346100cb57601f611a2a38819003918201601f19168301916001600160401b038311848410176100d0578084926020946040528339810103126100cb57516001600160a01b038116908190036100cb57801561007a57600080546001600160a01b03191691909117905560405161194390816100e78239f35b60405162461bcd60e51b8152602060048201526024808201527f4175746820726567697374727920616464726573732063616e6e6f74206265206044820152637a65726f60e01b6064820152608490fd5b600080fd5b634e487b7160e01b600052604160045260246000fdfe6080604052600436101561001257600080fd5b60003560e01c806303c7881a146114d9578063143c809e146113a0578063162578e9146112e5578063185c6f84146112c757806328178153146111da5780633f68fde4146110135780634a3b64cf14610e0a5780634e7f9b1914610d215780634efdde4a14610ba5578063629e025a14610b7c5780636dfa5e61146109e057806372862d5f1461095d578063893fbece146102bd578063b1dc5e30146101005763b94afa71146100c157600080fd5b346100fb5760203660031901126100fb576001600160a01b036100e2611565565b1660005260036020526020604060002054604051908152f35b600080fd5b346100fb576020806003193601126100fb5760043560018060a01b036024838260005416604051928380926301fd3f7760e71b82523360048301525afa80156102b15761015591600091610284575b5061165e565b816000526002835260406000209061018660ff60058401549283169261017c84151561170a565b60a01c161561174e565b60098201903360005281855260ff6040600020541661023357936101af6003949533141561179a565b33600052600a830181526040600020805460ff8116610216575b505033600052526040600020600160ff19825416179055016101eb81546116a0565b905533907faefa2723d1ab23a3d2bc1ed36a09aa9751210267d47050cd52f216086320c2bf600080a3005b60ff191690556004830161022a81546117e6565b905585806101c9565b60405162461bcd60e51b8152600481018690526024808201527f596f75206861766520616c7265616479207570766f74656420746869732072656044820152631c1bdc9d60e21b6064820152608490fd5b6102a49150853d87116102aa575b61029c8183611624565b810190611646565b8561014f565b503d610292565b6040513d6000823e3d90fd5b346100fb5760603660031901126100fb5760043567ffffffffffffffff81116100fb576102ee9036906004016115f6565b60243567ffffffffffffffff81116100fb5761030e9036906004016115f6565b60449291923567ffffffffffffffff81116100fb576103319036906004016115f6565b6000546040516301fd3f7760e71b815233600482015292949290602090829060249082906001600160a01b03165afa80156102b1576103779160009161093e575061165e565b3360005260036020526040600020546201518081018091116109285742106108d457811561088f57821561084a5780156107fb576103b66001546116a0565b948560015585600052600260205260406000209367ffffffffffffffff841161066f576103e385546116af565b601f81116107b7575b50836000601f821160011461075057600091610745575b508460011b906000198660031b1c19161785555b67ffffffffffffffff811161066f5761043360018601546116af565b601f81116106fe575b50806000601f821160011461069057600091610685575b508160011b906000198360031b1c19161760018601555b67ffffffffffffffff831161066f5761048660028601546116af565b601f8111610628575b509186939160209893600096601f8411600114610584579161055e9160006008869561056e977f82ce8ee5f4467c33c8ab38db7646aecad7889e301a2b1df8e4369f63437188e79b9c8491610579575b508760011b9084198960031b1c19161760028201555b60058101805460ff60a01b193316906affffffffffffffffffffff60a81b1617905582600382015582600482015542600782015501553360005260038c52426040600020556105516040519788976060895260608901916116e9565b918683038d8801526116e9565b90838203604085015233976116e9565b0390a3604051908152f35b90508d0135386104df565b8897600282016000528b6000209060005b601f198716811061060c5750600886959361055e95937f82ce8ee5f4467c33c8ab38db7646aecad7889e301a2b1df8e4369f63437188e79b9c60009461056e9a601f198116106105f3575b505050600187811b0160028201556104f5565b851960f88b60031b161c199101351690558f8d816105e0565b9981013582558a998c9950600190920191908d01908d01610595565b600286016000526020600020601f850160051c810160208610610668575b601f830160051c8201811061065c57505061048f565b60008155600101610646565b5080610646565b634e487b7160e01b600052604160045260246000fd5b905082013589610453565b90506001860160005260206000209060005b601f19841681106106e6575082601f198116106106cc575b5050600181811b01600186015561046a565b830135600019600384901b60f8161c1916905588806106ba565b909160206001819285880135815501930191016106a2565b600186016000526020600020601f830160051c81016020841061073e575b601f830160051c8201811061073257505061043c565b6000815560010161071c565b508061071c565b905088013589610403565b60008781526020812092505b8a601f198816821061079f57505085601f19811610610785575b5050600184811b018555610417565b890135600019600387901b60f8161c191690558880610776565b6001839460209394849301358155019301910161075c565b856000526020600020601f860160051c8101602087106107f4575b601f830160051c820181106107e85750506103ec565b600081556001016107d2565b50806107d2565b60405162461bcd60e51b815260206004820152602160248201527f45766964656e63652068617368204349442063616e6e6f7420626520656d70746044820152607960f81b6064820152608490fd5b60405162461bcd60e51b815260206004820152601f60248201527f4465736372697074696f6e204349442063616e6e6f7420626520656d707479006044820152606490fd5b60405162461bcd60e51b815260206004820152601960248201527f5469746c65204349442063616e6e6f7420626520656d707479000000000000006044820152606490fd5b60405162461bcd60e51b815260206004820152602660248201527f596f752063616e206f6e6c7920637265617465206f6e65207265706f7274207060448201526565722064617960d01b6064820152608490fd5b634e487b7160e01b600052601160045260246000fd5b610957915060203d6020116102aa5761029c8183611624565b8861014f565b346100fb5760203660031901126100fb5760043560009081526002602052604090206005810154610998906001600160a01b0316151561170a565b60046003820154910154908181036000831282821281169083831390151617610928578282019081831161092857608093604051938452602084015260408301526060820152f35b346100fb576020806003193601126100fb5760043560018060a01b036024838260005416604051928380926301fd3f7760e71b82523360048301525afa80156102b157610a3491600091610284575061165e565b8160005260028352604060002081806005830154163314918215610b6b575b505015610b125781600052600283526040600020906005820190610a7c8254918216151561170a565b60ff8160a01c16610acd5760ff60a01b1916600160a01b1790554260089190910181905560405190815233927f914c345a830273245961b499776c4807af476e566aae53d84e12b6d93c2a6ceb91a3005b60405162461bcd60e51b815260048101869052601760248201527f5265706f727420616c7265616479207265736f6c7665640000000000000000006044820152606490fd5b60405162461bcd60e51b815260048101849052602b60248201527f4f6e6c792063726561746f72206f722061737369676e656420706572736f6e2060448201526a63616e207265736f6c766560a81b6064820152608490fd5b600691925001541633148185610a53565b346100fb5760003660031901126100fb576000546040516001600160a01b039091168152602090f35b346100fb576020806003193601126100fb5760043560018060a01b036024838260005416604051928380926301fd3f7760e71b82523360048301525afa80156102b157610bf991600091610284575061165e565b8160005260028352604060002090610c2060ff60058401549283169261017c84151561170a565b600a8201903360005281855260ff60406000205416610ccd5793610c496004949533141561179a565b336000526009830181526040600020805460ff8116610cb0575b505033600052526040600020600160ff1982541617905501610c8581546116a0565b905533907fda742fa539d7c91231e20ddddc16f7a4ac31d0ab74c1d06b84118e320db5718b600080a3005b60ff1916905560038301610cc481546117e6565b90558580610c63565b60405162461bcd60e51b815260048101869052602660248201527f596f75206861766520616c726561647920646f776e766f7465642074686973206044820152651c995c1bdc9d60d21b6064820152608490fd5b346100fb5760203660031901126100fb576004356000526002602052610dbe6040600020600581015460018060a01b03808216610d5f81151561170a565b60038401549260ff60048601549360068701541691600787015493600888015495610dda610d8c8a6117f3565b99610dcc610da86002610da1600185016117f3565b93016117f3565b916040519d8e9d8e6101409081815201906115b6565b8d810360208f0152906115b6565b908b820360408d01526115b6565b9760608a0152608089015260a088015260a01c16151560c086015260e08501526101008401526101208301520390f35b346100fb5760403660031901126100fb57600435610e2661154f565b6000546040516301fd3f7760e71b8082523360048301529392916020916001600160a01b0391821691908381602481865afa80156102b157610e6f91600091610ffc575061165e565b846000526002835260406000209360ff6005860154610e91848216151561170a565b60a01c16610fb75716948515610f7257829060246040518094819382528960048301525afa9081156102b157600091610f55575b5015610f06575060060180546001600160a01b031916831790557f7714396770b81a9cc866b004a57bfb821e91ddb4851df34b4511d751a6dc421e600080a3005b6084906040519062461bcd60e51b82526004820152602260248201527f41737369676e656420706572736f6e206d75737420626520617574686f72697a604482015261195960f21b6064820152fd5b610f6c9150823d84116102aa5761029c8183611624565b85610ec5565b60405162461bcd60e51b815260048101849052601d60248201527f43616e6e6f742061737369676e20746f207a65726f20616464726573730000006044820152606490fd5b60405162461bcd60e51b815260048101859052601d60248201527f43616e6e6f742061737369676e207265736f6c766564207265706f72740000006044820152606490fd5b6109579150853d87116102aa5761029c8183611624565b346100fb576020806003193601126100fb576000546040516301fd3f7760e71b81523360048201526001600160a01b039183908290602490829086165afa80156102b157611068916000916111bd575061165e565b6004356000526002825260ff60406000209161108c6005840154918216151561170a565b60a01c1661116a57600090336000526009810183526040600020805460ff8116611146575b505033600052600a810183526040600020805460ff8116611125575b505050156110d757005b6084906040519062461bcd60e51b82526004820152602160248201527f596f752068617665206e6f7420766f746564206f6e2074686973207265706f726044820152601d60fa1b6064820152fd5b6004935060ff191690550161113a81546117e6565b905560018280806110cd565b9091925060ff191690556003810161115e81546117e6565b905560019083806110b1565b60405162461bcd60e51b815260048101839052602560248201527f43616e6e6f74206368616e676520766f7465206f6e207265736f6c7665642072604482015264195c1bdc9d60da1b6064820152608490fd5b6111d49150843d86116102aa5761029c8183611624565b8461014f565b346100fb576020806003193601126100fb576111f4611565565b90600154611201816118b1565b926000926001600160a01b039182169060015b84811115611268578686611227816118b1565b9160005b8281106112445760405180611240868261157b565b0390f35b8061125261126392846118e3565b5161125d82876118e3565b526116a0565b61122b565b8060005260028252604060002083856006830154161490816112b4575b50611299575b611294906116a0565b611214565b946112ac818761125d611294948b6118e3565b95905061128b565b60ff91506005015460a01c161588611285565b346100fb5760003660031901126100fb576020600154604051908152f35b346100fb576020806003193601126100fb576112ff611565565b60015461130b816118b1565b926000926001600160a01b039081169160015b8481111561135d578686611331816118b1565b9160005b82811061134a5760405180611240868261157b565b8061125261135892846118e3565b611335565b806000526002825283836005604060002001541614611385575b611380906116a0565b61131e565b94611398818761125d611380948b6118e3565b959050611377565b346100fb576020806003193601126100fb576000546040516301fd3f7760e71b81523360048201526001600160a01b03929182908290602490829087165afa80156102b1576113f6916000916114c2575061165e565b600435600052600281526040600020916005830191825491821661141b81151561170a565b60ff8360a01c16156114845733036114405760ff60a01b198216835560006008850155005b6064906040519062461bcd60e51b82526004820152601e60248201527f4f6e6c792063726561746f722063616e2072656f70656e207265706f727400006044820152fd5b60405162461bcd60e51b815260048101839052601660248201527514995c1bdc9d081a5cc81b9bdd081c995cdbdb1d995960521b6044820152606490fd5b6111d49150833d85116102aa5761029c8183611624565b346100fb5760403660031901126100fb5760406114f461154f565b6004356000526002602052816000209060018060a01b039061151d82600585015416151561170a565b1660005260098101602052600a60ff836000205416910160205260ff8260002054168251911515825215156020820152f35b602435906001600160a01b03821682036100fb57565b600435906001600160a01b03821682036100fb57565b6020908160408183019282815285518094520193019160005b8281106115a2575050505090565b835185529381019392810192600101611594565b919082519283825260005b8481106115e2575050826000602080949584010152601f8019910116010190565b6020818301810151848301820152016115c1565b9181601f840112156100fb5782359167ffffffffffffffff83116100fb57602083818601950101116100fb57565b90601f8019910116810190811067ffffffffffffffff82111761066f57604052565b908160209103126100fb575180151581036100fb5790565b1561166557565b60405162461bcd60e51b8152602060048201526013602482015272155cd95c881b9bdd08185d5d1a1bdc9a5e9959606a1b6044820152606490fd5b60001981146109285760010190565b90600182811c921680156116df575b60208310146116c957565b634e487b7160e01b600052602260045260246000fd5b91607f16916116be565b908060209392818452848401376000828201840152601f01601f1916010190565b1561171157565b60405162461bcd60e51b815260206004820152601560248201527414995c1bdc9d08191bd95cc81b9bdd08195e1a5cdd605a1b6044820152606490fd5b1561175557565b60405162461bcd60e51b815260206004820152601e60248201527f43616e6e6f7420766f7465206f6e207265736f6c766564207265706f727400006044820152606490fd5b156117a157565b60405162461bcd60e51b815260206004820152601e60248201527f43616e6e6f7420766f7465206f6e20796f7572206f776e207265706f727400006044820152606490fd5b8015610928576000190190565b9060405191826000825492611807846116af565b9081845260019485811690816000146118765750600114611833575b505061183192500383611624565b565b9093915060005260209081600020936000915b81831061185e57505061183193508201013880611823565b85548884018501529485019487945091830191611846565b91505061183194506020925060ff191682840152151560051b8201013880611823565b67ffffffffffffffff811161066f5760051b60200190565b906118bb82611899565b6118c86040519182611624565b82815280926118d9601f1991611899565b0190602036910137565b80518210156118f75760209160051b010190565b634e487b7160e01b600052603260045260246000fdfea2646970667358221220bf5a95cca16adf5340fb0066c57660927641d66e1a6f82c6aaefa099768155c764736f6c63430008140033","opcodes":"PUSH1 0x80 CALLVALUE PUSH2 0xCB JUMPI PUSH1 0x1F PUSH2 0x1A2A CODESIZE DUP2 SWAP1 SUB SWAP2 DUP3 ADD PUSH1 0x1F NOT AND DUP4 ADD SWAP2 PUSH1 0x1 PUSH1 0x1 PUSH1 0x40 SHL SUB DUP4 GT DUP5 DUP5 LT OR PUSH2 0xD0 JUMPI DUP1 DUP5 SWAP3 PUSH1 0x20 SWAP5 PUSH1 0x40 MSTORE DUP4 CODECOPY DUP2 ADD SUB SLT PUSH2 0xCB JUMPI MLOAD PUSH1 0x1 PUSH1 0x1 PUSH1 0xA0 SHL SUB DUP2 AND SWAP1 DUP2 SWAP1 SUB PUSH2 0xCB JUMPI DUP1 ISZERO PUSH2 0x7A JUMPI PUSH1 0x0 DUP1 SLOAD PUSH1 0x1 PUSH1 0x1 PUSH1 0xA0 SHL SUB NOT AND SWAP2 SWAP1 SWAP2 OR SWAP1 SSTORE PUSH1 0x40 MLOAD PUSH2 0x1943 SWAP1 DUP2 PUSH2 0xE7 DUP3 CODECOPY RETURN JUMPDEST PUSH1 0x40 MLOAD PUSH3 0x461BCD PUSH1 0xE5 SHL DUP2 MSTORE PUSH1 0x20 PUSH1 0x4 DUP3 ADD MSTORE PUSH1 0x24 DUP1 DUP3 ADD MSTORE PUSH32 0x4175746820726567697374727920616464726573732063616E6E6F7420626520 PUSH1 0x44 DUP3 ADD MSTORE PUSH4 0x7A65726F PUSH1 0xE0 SHL PUSH1 0x64 DUP3 ADD MSTORE PUSH1 0x84 SWAP1 REVERT JUMPDEST PUSH1 0x0 DUP1 REVERT JUMPDEST PUSH4 0x4E487B71 PUSH1 0xE0 SHL PUSH1 0x0 MSTORE PUSH1 0x41 PUSH1 0x4 MSTORE PUSH1 0x24 PUSH1 0x0 REVERT INVALID PUSH1 0x80 PUSH1 0x40 MSTORE PUSH1 0x4 CALLDATASIZE LT ISZERO PUSH2 0x12 JUMPI PUSH1 0x0 DUP1 REVERT JUMPDEST PUSH1 0x0 CALLDATALOAD PUSH1 0xE0 SHR DUP1 PUSH4 0x3C7881A EQ PUSH2 0x14D9 JUMPI DUP1 PUSH4 0x143C809E EQ PUSH2 0x13A0 JUMPI DUP1 PUSH4 0x162578E9 EQ PUSH2 0x12E5 JUMPI DUP1 PUSH4 0x185C6F84 EQ PUSH2 0x12C7 JUMPI DUP1 PUSH4 0x28178153 EQ PUSH2 0x11DA JUMPI DUP1 PUSH4 0x3F68FDE4 EQ PUSH2 0x1013 JUMPI DUP1 PUSH4 0x4A3B64CF EQ PUSH2 0xE0A JUMPI DUP1 PUSH4 0x4E7F9B19 EQ PUSH2 0xD21 JUMPI DUP1 PUSH4 0x4EFDDE4A EQ PUSH2 0xBA5 JUMPI DUP1 PUSH4 0x629E025A EQ PUSH2 0xB7C JUMPI DUP1 PUSH4 0x6DFA5E61 EQ PUSH2 0x9E0 JUMPI DUP1 PUSH4 0x72862D5F EQ PUSH2 0x95D JUMPI DUP1 PUSH4 0x893FBECE EQ PUSH2 0x2BD JUMPI DUP1 PUSH4 0xB1DC5E30 EQ PUSH2 0x100 JUMPI PUSH4 0xB94AFA71 EQ PUSH2 0xC1 JUMPI PUSH1 0x0 DUP1 REVERT JUMPDEST CALLVALUE PUSH2 0xFB JUMPI PUSH1 0x20 CALLDATASIZE PUSH1 0x3 NOT ADD SLT PUSH2 0xFB JUMPI PUSH1 0x1 PUSH1 0x1 PUSH1 0xA0 SHL SUB PUSH2 0xE2 PUSH2 0x1565 JUMP JUMPDEST AND PUSH1 0x0 MSTORE PUSH1 0x3 PUSH1 0x20 MSTORE PUSH1 0x20 PUSH1 0x40 PUSH1 0x0 KECCAK256 SLOAD PUSH1 0x40 MLOAD SWAP1 DUP2 MSTORE RETURN JUMPDEST PUSH1 0x0 DUP1 REVERT JUMPDEST CALLVALUE PUSH2 0xFB JUMPI PUSH1 0x20 DUP1 PUSH1 0x3 NOT CALLDATASIZE ADD SLT PUSH2 0xFB JUMPI PUSH1 0x4 CALLDATALOAD PUSH1 0x1 DUP1 PUSH1 0xA0 SHL SUB PUSH1 0x24 DUP4 DUP3 PUSH1 0x0 SLOAD AND PUSH1 0x40 MLOAD SWAP3 DUP4 DUP1 SWAP3 PUSH4 0x1FD3F77 PUSH1 0xE7 SHL DUP3 MSTORE CALLER PUSH1 0x4 DUP4 ADD MSTORE GAS STATICCALL DUP1 ISZERO PUSH2 0x2B1 JUMPI PUSH2 0x155 SWAP2 PUSH1 0x0 SWAP2 PUSH2 0x284 JUMPI JUMPDEST POP PUSH2 0x165E JUMP JUMPDEST DUP2 PUSH1 0x0 MSTORE PUSH1 0x2 DUP4 MSTORE PUSH1 0x40 PUSH1 0x0 KECCAK256 SWAP1 PUSH2 0x186 PUSH1 0xFF PUSH1 0x5 DUP5 ADD SLOAD SWAP3 DUP4 AND SWAP3 PUSH2 0x17C DUP5 ISZERO ISZERO PUSH2 0x170A JUMP JUMPDEST PUSH1 0xA0 SHR AND ISZERO PUSH2 0x174E JUMP JUMPDEST PUSH1 0x9 DUP3 ADD SWAP1 CALLER PUSH1 0x0 MSTORE DUP2 DUP6 MSTORE PUSH1 0xFF PUSH1 0x40 PUSH1 0x0 KECCAK256 SLOAD AND PUSH2 0x233 JUMPI SWAP4 PUSH2 0x1AF PUSH1 0x3 SWAP5 SWAP6 CALLER EQ ISZERO PUSH2 0x179A JUMP JUMPDEST CALLER PUSH1 0x0 MSTORE PUSH1 0xA DUP4 ADD DUP2 MSTORE PUSH1 0x40 PUSH1 0x0 KECCAK256 DUP1 SLOAD PUSH1 0xFF DUP2 AND PUSH2 0x216 JUMPI JUMPDEST POP POP CALLER PUSH1 0x0 MSTORE MSTORE PUSH1 0x40 PUSH1 0x0 KECCAK256 PUSH1 0x1 PUSH1 0xFF NOT DUP3 SLOAD AND OR SWAP1 SSTORE ADD PUSH2 0x1EB DUP2 SLOAD PUSH2 0x16A0 JUMP JUMPDEST SWAP1 SSTORE CALLER SWAP1 PUSH32 0xAEFA2723D1AB23A3D2BC1ED36A09AA9751210267D47050CD52F216086320C2BF PUSH1 0x0 DUP1 LOG3 STOP JUMPDEST PUSH1 0xFF NOT AND SWAP1 SSTORE PUSH1 0x4 DUP4 ADD PUSH2 0x22A DUP2 SLOAD PUSH2 0x17E6 JUMP JUMPDEST SWAP1 SSTORE DUP6 DUP1 PUSH2 0x1C9 JUMP JUMPDEST PUSH1 0x40 MLOAD PUSH3 0x461BCD PUSH1 0xE5 SHL DUP2 MSTORE PUSH1 0x4 DUP2 ADD DUP7 SWAP1 MSTORE PUSH1 0x24 DUP1 DUP3 ADD MSTORE PUSH32 0x596F75206861766520616C7265616479207570766F7465642074686973207265 PUSH1 0x44 DUP3 ADD MSTORE PUSH4 0x1C1BDC9D PUSH1 0xE2 SHL PUSH1 0x64 DUP3 ADD MSTORE PUSH1 0x84 SWAP1 REVERT JUMPDEST PUSH2 0x2A4 SWAP2 POP DUP6 RETURNDATASIZE DUP8 GT PUSH2 0x2AA JUMPI JUMPDEST PUSH2 0x29C DUP2 DUP4 PUSH2 0x1624 JUMP JUMPDEST DUP2 ADD SWAP1 PUSH2 0x1646 JUMP JUMPDEST DUP6 PUSH2 0x14F JUMP JUMPDEST POP RETURNDATASIZE PUSH2 0x292 JUMP JUMPDEST PUSH1 0x40 MLOAD RETURNDATASIZE PUSH1 0x0 DUP3 RETURNDATACOPY RETURNDATASIZE SWAP1 REVERT JUMPDEST CALLVALUE PUSH2 0xFB JUMPI PUSH1 0x60 CALLDATASIZE PUSH1 0x3 NOT ADD SLT PUSH2 0xFB JUMPI PUSH1 0x4 CALLDATALOAD PUSH8 0xFFFFFFFFFFFFFFFF DUP2 GT PUSH2 0xFB JUMPI PUSH2 0x2EE SWAP1 CALLDATASIZE SWAP1 PUSH1 0x4 ADD PUSH2 0x15F6 JUMP JUMPDEST PUSH1 0x24 CALLDATALOAD PUSH8 0xFFFFFFFFFFFFFFFF DUP2 GT PUSH2 0xFB JUMPI PUSH2 0x30E SWAP1 CALLDATASIZE SWAP1 PUSH1 0x4 ADD PUSH2 0x15F6 JUMP JUMPDEST PUSH1 0x44 SWAP3 SWAP2 SWAP3 CALLDATALOAD PUSH8 0xFFFFFFFFFFFFFFFF DUP2 GT PUSH2 0xFB JUMPI PUSH2 0x331 SWAP1 CALLDATASIZE SWAP1 PUSH1 0x4 ADD PUSH2 0x15F6 JUMP JUMPDEST PUSH1 0x0 SLOAD PUSH1 0x40 MLOAD PUSH4 0x1FD3F77 PUSH1 0xE7 SHL DUP2 MSTORE CALLER PUSH1 0x4 DUP3 ADD MSTORE SWAP3 SWAP5 SWAP3 SWAP1 PUSH1 0x20 SWAP1 DUP3 SWAP1 PUSH1 0x24 SWAP1 DUP3 SWAP1 PUSH1 0x1 PUSH1 0x1 PUSH1 0xA0 SHL SUB AND GAS STATICCALL DUP1 ISZERO PUSH2 0x2B1 JUMPI PUSH2 0x377 SWAP2 PUSH1 0x0 SWAP2 PUSH2 0x93E JUMPI POP PUSH2 0x165E JUMP JUMPDEST CALLER PUSH1 0x0 MSTORE PUSH1 0x3 PUSH1 0x20 MSTORE PUSH1 0x40 PUSH1 0x0 KECCAK256 SLOAD PUSH3 0x15180 DUP2 ADD DUP1 SWAP2 GT PUSH2 0x928 JUMPI TIMESTAMP LT PUSH2 0x8D4 JUMPI DUP2 ISZERO PUSH2 0x88F JUMPI DUP3 ISZERO PUSH2 0x84A JUMPI DUP1 ISZERO PUSH2 0x7FB JUMPI PUSH2 0x3B6 PUSH1 0x1 SLOAD PUSH2 0x16A0 JUMP JUMPDEST SWAP5 DUP6 PUSH1 0x1 SSTORE DUP6 PUSH1 0x0 MSTORE PUSH1 0x2 PUSH1 0x20 MSTORE PUSH1 0x40 PUSH1 0x0 KECCAK256 SWAP4 PUSH8 0xFFFFFFFFFFFFFFFF DUP5 GT PUSH2 0x66F JUMPI PUSH2 0x3E3 DUP6 SLOAD PUSH2 0x16AF JUMP JUMPDEST PUSH1 0x1F DUP2 GT PUSH2 0x7B7 JUMPI JUMPDEST POP DUP4 PUSH1 0x0 PUSH1 0x1F DUP3 GT PUSH1 0x1 EQ PUSH2 0x750 JUMPI PUSH1 0x0 SWAP2 PUSH2 0x745 JUMPI JUMPDEST POP DUP5 PUSH1 0x1 SHL SWAP1 PUSH1 0x0 NOT DUP7 PUSH1 0x3 SHL SHR NOT AND OR DUP6 SSTORE JUMPDEST PUSH8 0xFFFFFFFFFFFFFFFF DUP2 GT PUSH2 0x66F JUMPI PUSH2 0x433 PUSH1 0x1 DUP7 ADD SLOAD PUSH2 0x16AF JUMP JUMPDEST PUSH1 0x1F DUP2 GT PUSH2 0x6FE JUMPI JUMPDEST POP DUP1 PUSH1 0x0 PUSH1 0x1F DUP3 GT PUSH1 0x1 EQ PUSH2 0x690 JUMPI PUSH1 0x0 SWAP2 PUSH2 0x685 JUMPI JUMPDEST POP DUP2 PUSH1 0x1 SHL SWAP1 PUSH1 0x0 NOT DUP4 PUSH1 0x3 SHL SHR NOT AND OR PUSH1 0x1 DUP7 ADD SSTORE JUMPDEST PUSH8 0xFFFFFFFFFFFFFFFF DUP4 GT PUSH2 0x66F JUMPI PUSH2 0x486 PUSH1 0x2 DUP7 ADD SLOAD PUSH2 0x16AF JUMP JUMPDEST PUSH1 0x1F DUP2 GT PUSH2 0x628 JUMPI JUMPDEST POP SWAP2 DUP7 SWAP4 SWAP2 PUSH1 0x20 SWAP9 SWAP4 PUSH1 0x0 SWAP7 PUSH1 0x1F DUP5 GT PUSH1 0x1 EQ PUSH2 0x584 JUMPI SWAP2 PUSH2 0x55E SWAP2 PUSH1 0x0 PUSH1 0x8 DUP7 SWAP6 PUSH2 0x56E SWAP8 PUSH32 0x82CE8EE5F4467C33C8AB38DB7646AECAD7889E301A2B1DF8E4369F63437188E7 SWAP12 SWAP13 DUP5 SWAP2 PUSH2 0x579 JUMPI JUMPDEST POP DUP8 PUSH1 0x1 SHL SWAP1 DUP5 NOT DUP10 PUSH1 0x3 SHL SHR NOT AND OR PUSH1 0x2 DUP3 ADD SSTORE JUMPDEST PUSH1 0x5 DUP2 ADD DUP1 SLOAD PUSH1 0xFF PUSH1 0xA0 SHL NOT CALLER AND SWAP1 PUSH11 0xFFFFFFFFFFFFFFFFFFFFFF PUSH1 0xA8 SHL AND OR SWAP1 SSTORE DUP3 PUSH1 0x3 DUP3 ADD SSTORE DUP3 PUSH1 0x4 DUP3 ADD SSTORE TIMESTAMP PUSH1 0x7 DUP3 ADD SSTORE ADD SSTORE CALLER PUSH1 0x0 MSTORE PUSH1 0x3 DUP13 MSTORE TIMESTAMP PUSH1 0x40 PUSH1 0x0 KECCAK256 SSTORE PUSH2 0x551 PUSH1 0x40 MLOAD SWAP8 DUP9 SWAP8 PUSH1 0x60 DUP10 MSTORE PUSH1 0x60 DUP10 ADD SWAP2 PUSH2 0x16E9 JUMP JUMPDEST SWAP2 DUP7 DUP4 SUB DUP14 DUP9 ADD MSTORE PUSH2 0x16E9 JUMP JUMPDEST SWAP1 DUP4 DUP3 SUB PUSH1 0x40 DUP6 ADD MSTORE CALLER SWAP8 PUSH2 0x16E9 JUMP JUMPDEST SUB SWAP1 LOG3 PUSH1 0x40 MLOAD SWAP1 DUP2 MSTORE RETURN JUMPDEST SWAP1 POP DUP14 ADD CALLDATALOAD CODESIZE PUSH2 0x4DF JUMP JUMPDEST DUP9 SWAP8 PUSH1 0x2 DUP3 ADD PUSH1 0x0 MSTORE DUP12 PUSH1 0x0 KECCAK256 SWAP1 PUSH1 0x0 JUMPDEST PUSH1 0x1F NOT DUP8 AND DUP2 LT PUSH2 0x60C JUMPI POP PUSH1 0x8 DUP7 SWAP6 SWAP4 PUSH2 0x55E SWAP6 SWAP4 PUSH32 0x82CE8EE5F4467C33C8AB38DB7646AECAD7889E301A2B1DF8E4369F63437188E7 SWAP12 SWAP13 PUSH1 0x0 SWAP5 PUSH2 0x56E SWAP11 PUSH1 0x1F NOT DUP2 AND LT PUSH2 0x5F3 JUMPI JUMPDEST POP POP POP PUSH1 0x1 DUP8 DUP2 SHL ADD PUSH1 0x2 DUP3 ADD SSTORE PUSH2 0x4F5 JUMP JUMPDEST DUP6 NOT PUSH1 0xF8 DUP12 PUSH1 0x3 SHL AND SHR NOT SWAP2 ADD CALLDATALOAD AND SWAP1 SSTORE DUP16 DUP14 DUP2 PUSH2 0x5E0 JUMP JUMPDEST SWAP10 DUP2 ADD CALLDATALOAD DUP3 SSTORE DUP11 SWAP10 DUP13 SWAP10 POP PUSH1 0x1 SWAP1 SWAP3 ADD SWAP2 SWAP1 DUP14 ADD SWAP1 DUP14 ADD PUSH2 0x595 JUMP JUMPDEST PUSH1 0x2 DUP7 ADD PUSH1 0x0 MSTORE PUSH1 0x20 PUSH1 0x0 KECCAK256 PUSH1 0x1F DUP6 ADD PUSH1 0x5 SHR DUP2 ADD PUSH1 0x20 DUP7 LT PUSH2 0x668 JUMPI JUMPDEST PUSH1 0x1F DUP4 ADD PUSH1 0x5 SHR DUP3 ADD DUP2 LT PUSH2 0x65C JUMPI POP POP PUSH2 0x48F JUMP JUMPDEST PUSH1 0x0 DUP2 SSTORE PUSH1 0x1 ADD PUSH2 0x646 JUMP JUMPDEST POP DUP1 PUSH2 0x646 JUMP JUMPDEST PUSH4 0x4E487B71 PUSH1 0xE0 SHL PUSH1 0x0 MSTORE PUSH1 0x41 PUSH1 0x4 MSTORE PUSH1 0x24 PUSH1 0x0 REVERT JUMPDEST SWAP1 POP DUP3 ADD CALLDATALOAD DUP10 PUSH2 0x453 JUMP JUMPDEST SWAP1 POP PUSH1 0x1 DUP7 ADD PUSH1 0x0 MSTORE PUSH1 0x20 PUSH1 0x0 KECCAK256 SWAP1 PUSH1 0x0 JUMPDEST PUSH1 0x1F NOT DUP5 AND DUP2 LT PUSH2 0x6E6 JUMPI POP DUP3 PUSH1 0x1F NOT DUP2 AND LT PUSH2 0x6CC JUMPI JUMPDEST POP POP PUSH1 0x1 DUP2 DUP2 SHL ADD PUSH1 0x1 DUP7 ADD SSTORE PUSH2 0x46A JUMP JUMPDEST DUP4 ADD CALLDATALOAD PUSH1 0x0 NOT PUSH1 0x3 DUP5 SWAP1 SHL PUSH1 0xF8 AND SHR NOT AND SWAP1 SSTORE DUP9 DUP1 PUSH2 0x6BA JUMP JUMPDEST SWAP1 SWAP2 PUSH1 0x20 PUSH1 0x1 DUP2 SWAP3 DUP6 DUP9 ADD CALLDATALOAD DUP2 SSTORE ADD SWAP4 ADD SWAP2 ADD PUSH2 0x6A2 JUMP JUMPDEST PUSH1 0x1 DUP7 ADD PUSH1 0x0 MSTORE PUSH1 0x20 PUSH1 0x0 KECCAK256 PUSH1 0x1F DUP4 ADD PUSH1 0x5 SHR DUP2 ADD PUSH1 0x20 DUP5 LT PUSH2 0x73E JUMPI JUMPDEST PUSH1 0x1F DUP4 ADD PUSH1 0x5 SHR DUP3 ADD DUP2 LT PUSH2 0x732 JUMPI POP POP PUSH2 0x43C JUMP JUMPDEST PUSH1 0x0 DUP2 SSTORE PUSH1 0x1 ADD PUSH2 0x71C JUMP JUMPDEST POP DUP1 PUSH2 0x71C JUMP JUMPDEST SWAP1 POP DUP9 ADD CALLDATALOAD DUP10 PUSH2 0x403 JUMP JUMPDEST PUSH1 0x0 DUP8 DUP2 MSTORE PUSH1 0x20 DUP2 KECCAK256 SWAP3 POP JUMPDEST DUP11 PUSH1 0x1F NOT DUP9 AND DUP3 LT PUSH2 0x79F JUMPI POP POP DUP6 PUSH1 0x1F NOT DUP2 AND LT PUSH2 0x785 JUMPI JUMPDEST POP POP PUSH1 0x1 DUP5 DUP2 SHL ADD DUP6 SSTORE PUSH2 0x417 JUMP JUMPDEST DUP10 ADD CALLDATALOAD PUSH1 0x0 NOT PUSH1 0x3 DUP8 SWAP1 SHL PUSH1 0xF8 AND SHR NOT AND SWAP1 SSTORE DUP9 DUP1 PUSH2 0x776 JUMP JUMPDEST PUSH1 0x1 DUP4 SWAP5 PUSH1 0x20 SWAP4 SWAP5 DUP5 SWAP4 ADD CALLDATALOAD DUP2 SSTORE ADD SWAP4 ADD SWAP2 ADD PUSH2 0x75C JUMP JUMPDEST DUP6 PUSH1 0x0 MSTORE PUSH1 0x20 PUSH1 0x0 KECCAK256 PUSH1 0x1F DUP7 ADD PUSH1 0x5 SHR DUP2 ADD PUSH1 0x20 DUP8 LT PUSH2 0x7F4 JUMPI JUMPDEST PUSH1 0x1F DUP4 ADD PUSH1 0x5 SHR DUP3 ADD DUP2 LT PUSH2 0x7E8 JUMPI POP POP PUSH2 0x3EC JUMP JUMPDEST PUSH1 0x0 DUP2 SSTORE PUSH1 0x1 ADD PUSH2 0x7D2 JUMP JUMPDEST POP DUP1 PUSH2 0x7D2 JUMP JUMPDEST PUSH1 0x40 MLOAD PUSH3 0x461BCD PUSH1 0xE5 SHL DUP2 MSTORE PUSH1 0x20 PUSH1 0x4 DUP3 ADD MSTORE PUSH1 0x21 PUSH1 0x24 DUP3 ADD MSTORE PUSH32 0x45766964656E63652068617368204349442063616E6E6F7420626520656D7074 PUSH1 0x44 DUP3 ADD MSTORE PUSH1 0x79 PUSH1 0xF8 SHL PUSH1 0x64 DUP3 ADD MSTORE PUSH1 0x84 SWAP1 REVERT JUMPDEST PUSH1 0x40 MLOAD PUSH3 0x461BCD PUSH1 0xE5 SHL DUP2 MSTORE PUSH1 0x20 PUSH1 0x4 DUP3 ADD MSTORE PUSH1 0x1F PUSH1 0x24 DUP3 ADD MSTORE PUSH32 0x4465736372697074696F6E204349442063616E6E6F7420626520656D70747900 PUSH1 0x44 DUP3 ADD MSTORE PUSH1 0x64 SWAP1 REVERT JUMPDEST PUSH1 0x40 MLOAD PUSH3 0x461BCD PUSH1 0xE5 SHL DUP2 MSTORE PUSH1 0x20 PUSH1 0x4 DUP3 ADD MSTORE PUSH1 0x19 PUSH1 0x24 DUP3 ADD MSTORE PUSH32 0x5469746C65204349442063616E6E6F7420626520656D70747900000000000000 PUSH1 0x44 DUP3 ADD MSTORE PUSH1 0x64 SWAP1 REVERT JUMPDEST PUSH1 0x40 MLOAD PUSH3 0x461BCD PUSH1 0xE5 SHL DUP2 MSTORE PUSH1 0x20 PUSH1 0x4 DUP3 ADD MSTORE PUSH1 0x26 PUSH1 0x24 DUP3 ADD MSTORE PUSH32 0x596F752063616E206F6E6C7920637265617465206F6E65207265706F72742070 PUSH1 0x44 DUP3 ADD MSTORE PUSH6 0x657220646179 PUSH1 0xD0 SHL PUSH1 0x64 DUP3 ADD MSTORE PUSH1 0x84 SWAP1 REVERT JUMPDEST PUSH4 0x4E487B71 PUSH1 0xE0 SHL PUSH1 0x0 MSTORE PUSH1 0x11 PUSH1 0x4 MSTORE PUSH1 0x24 PUSH1 0x0 REVERT JUMPDEST PUSH2 0x957 SWAP2 POP PUSH1 0x20 RETURNDATASIZE PUSH1 0x20 GT PUSH2 0x2AA JUMPI PUSH2 0x29C DUP2 DUP4 PUSH2 0x1624 JUMP JUMPDEST DUP9 PUSH2 0x14F JUMP JUMPDEST CALLVALUE PUSH2 0xFB JUMPI PUSH1 0x20 CALLDATASIZE PUSH1 0x3 NOT ADD SLT PUSH2 0xFB JUMPI PUSH1 0x4 CALLDATALOAD PUSH1 0x0 SWAP1 DUP2 MSTORE PUSH1 0x2 PUSH1 0x20 MSTORE PUSH1 0x40 SWAP1 KECCAK256 PUSH1 0x5 DUP2 ADD SLOAD PUSH2 0x998 SWAP1 PUSH1 0x1 PUSH1 0x1 PUSH1 0xA0 SHL SUB AND ISZERO ISZERO PUSH2 0x170A JUMP JUMPDEST PUSH1 0x4 PUSH1 0x3 DUP3 ADD SLOAD SWAP2 ADD SLOAD SWAP1 DUP2 DUP2 SUB PUSH1 0x0 DUP4 SLT DUP3 DUP3 SLT DUP2 AND SWAP1 DUP4 DUP4 SGT SWAP1 ISZERO AND OR PUSH2 0x928 JUMPI DUP3 DUP3 ADD SWAP1 DUP2 DUP4 GT PUSH2 0x928 JUMPI PUSH1 0x80 SWAP4 PUSH1 0x40 MLOAD SWAP4 DUP5 MSTORE PUSH1 0x20 DUP5 ADD MSTORE PUSH1 0x40 DUP4 ADD MSTORE PUSH1 0x60 DUP3 ADD MSTORE RETURN JUMPDEST CALLVALUE PUSH2 0xFB JUMPI PUSH1 0x20 DUP1 PUSH1 0x3 NOT CALLDATASIZE ADD SLT PUSH2 0xFB JUMPI PUSH1 0x4 CALLDATALOAD PUSH1 0x1 DUP1 PUSH1 0xA0 SHL SUB PUSH1 0x24 DUP4 DUP3 PUSH1 0x0 SLOAD AND PUSH1 0x40 MLOAD SWAP3 DUP4 DUP1 SWAP3 PUSH4 0x1FD3F77 PUSH1 0xE7 SHL DUP3 MSTORE CALLER PUSH1 0x4 DUP4 ADD MSTORE GAS STATICCALL DUP1 ISZERO PUSH2 0x2B1 JUMPI PUSH2 0xA34 SWAP2 PUSH1 0x0 SWAP2 PUSH2 0x284 JUMPI POP PUSH2 0x165E JUMP JUMPDEST DUP2 PUSH1 0x0 MSTORE PUSH1 0x2 DUP4 MSTORE PUSH1 0x40 PUSH1 0x0 KECCAK256 DUP2 DUP1 PUSH1 0x5 DUP4 ADD SLOAD AND CALLER EQ SWAP2 DUP3 ISZERO PUSH2 0xB6B JUMPI JUMPDEST POP POP ISZERO PUSH2 0xB12 JUMPI DUP2 PUSH1 0x0 MSTORE PUSH1 0x2 DUP4 MSTORE PUSH1 0x40 PUSH1 0x0 KECCAK256 SWAP1 PUSH1 0x5 DUP3 ADD SWAP1 PUSH2 0xA7C DUP3 SLOAD SWAP2 DUP3 AND ISZERO ISZERO PUSH2 0x170A JUMP JUMPDEST PUSH1 0xFF DUP2 PUSH1 0xA0 SHR AND PUSH2 0xACD JUMPI PUSH1 0xFF PUSH1 0xA0 SHL NOT AND PUSH1 0x1 PUSH1 0xA0 SHL OR SWAP1 SSTORE TIMESTAMP PUSH1 0x8 SWAP2 SWAP1 SWAP2 ADD DUP2 SWAP1 SSTORE PUSH1 0x40 MLOAD SWAP1 DUP2 MSTORE CALLER SWAP3 PUSH32 0x914C345A830273245961B499776C4807AF476E566AAE53D84E12B6D93C2A6CEB SWAP2 LOG3 STOP JUMPDEST PUSH1 0x40 MLOAD PUSH3 0x461BCD PUSH1 0xE5 SHL DUP2 MSTORE PUSH1 0x4 DUP2 ADD DUP7 SWAP1 MSTORE PUSH1 0x17 PUSH1 0x24 DUP3 ADD MSTORE PUSH32 0x5265706F727420616C7265616479207265736F6C766564000000000000000000 PUSH1 0x44 DUP3 ADD MSTORE PUSH1 0x64 SWAP1 REVERT JUMPDEST PUSH1 0x40 MLOAD PUSH3 0x461BCD PUSH1 0xE5 SHL DUP2 MSTORE PUSH1 0x4 DUP2 ADD DUP5 SWAP1 MSTORE PUSH1 0x2B PUSH1 0x24 DUP3 ADD MSTORE PUSH32 0x4F6E6C792063726561746F72206F722061737369676E656420706572736F6E20 PUSH1 0x44 DUP3 ADD MSTORE PUSH11 0x63616E207265736F6C7665 PUSH1 0xA8 SHL PUSH1 0x64 DUP3 ADD MSTORE PUSH1 0x84 SWAP1 REVERT JUMPDEST PUSH1 0x6 SWAP2 SWAP3 POP ADD SLOAD AND CALLER EQ DUP2 DUP6 PUSH2 0xA53 JUMP JUMPDEST CALLVALUE PUSH2 0xFB JUMPI PUSH1 0x0 CALLDATASIZE PUSH1 0x3 NOT ADD SLT PUSH2 0xFB JUMPI PUSH1 0x0 SLOAD PUSH1 0x40 MLOAD PUSH1 0x1 PUSH1 0x1 PUSH1 0xA0 SHL SUB SWAP1 SWAP2 AND DUP2 MSTORE PUSH1 0x20 SWAP1 RETURN JUMPDEST CALLVALUE PUSH2 0xFB JUMPI PUSH1 0x20 DUP1 PUSH1 0x3 NOT CALLDATASIZE ADD SLT PUSH2 0xFB JUMPI PUSH1 0x4 CALLDATALOAD PUSH1 0x1 DUP1 PUSH1 0xA0 SHL SUB PUSH1 0x24 DUP4 DUP3 PUSH1 0x0 SLOAD AND PUSH1 0x40 MLOAD SWAP3 DUP4 DUP1 SWAP3 PUSH4 0x1FD3F77 PUSH1 0xE7 SHL DUP3 MSTORE CALLER PUSH1 0x4 DUP4 ADD MSTORE GAS STATICCALL DUP1 ISZERO PUSH2 0x2B1 JUMPI PUSH2 0xBF9 SWAP2 PUSH1 0x0 SWAP2 PUSH2 0x284 JUMPI POP PUSH2 0x165E JUMP JUMPDEST DUP2 PUSH1 0x0 MSTORE PUSH1 0x2 DUP4 MSTORE PUSH1 0x40 PUSH1 0x0 KECCAK256 SWAP1 PUSH2 0xC20 PUSH1 0xFF PUSH1 0x5 DUP5 ADD SLOAD SWAP3 DUP4 AND SWAP3 PUSH2 0x17C DUP5 ISZERO ISZERO PUSH2 0x170A JUMP JUMPDEST PUSH1 0xA DUP3 ADD SWAP1 CALLER PUSH1 0x0 MSTORE DUP2 DUP6 MSTORE PUSH1 0xFF PUSH1 0x40 PUSH1 0x0 KECCAK256 SLOAD AND PUSH2 0xCCD JUMPI SWAP4 PUSH2 0xC49 PUSH1 0x4 SWAP5 SWAP6 CALLER EQ ISZERO PUSH2 0x179A JUMP JUMPDEST CALLER PUSH1 0x0 MSTORE PUSH1 0x9 DUP4 ADD DUP2 MSTORE PUSH1 0x40 PUSH1 0x0 KECCAK256 DUP1 SLOAD PUSH1 0xFF DUP2 AND PUSH2 0xCB0 JUMPI JUMPDEST POP POP CALLER PUSH1 0x0 MSTORE MSTORE PUSH1 0x40 PUSH1 0x0 KECCAK256 PUSH1 0x1 PUSH1 0xFF NOT DUP3 SLOAD AND OR SWAP1 SSTORE ADD PUSH2 0xC85 DUP2 SLOAD PUSH2 0x16A0 JUMP JUMPDEST SWAP1 SSTORE CALLER SWAP1 PUSH32 0xDA742FA539D7C91231E20DDDDC16F7A4AC31D0AB74C1D06B84118E320DB5718B PUSH1 0x0 DUP1 LOG3 STOP JUMPDEST PUSH1 0xFF NOT AND SWAP1 SSTORE PUSH1 0x3 DUP4 ADD PUSH2 0xCC4 DUP2 SLOAD PUSH2 0x17E6 JUMP JUMPDEST SWAP1 SSTORE DUP6 DUP1 PUSH2 0xC63 JUMP JUMPDEST PUSH1 0x40 MLOAD PUSH3 0x461BCD PUSH1 0xE5 SHL DUP2 MSTORE PUSH1 0x4 DUP2 ADD DUP7 SWAP1 MSTORE PUSH1 0x26 PUSH1 0x24 DUP3 ADD MSTORE PUSH32 0x596F75206861766520616C726561647920646F776E766F746564207468697320 PUSH1 0x44 DUP3 ADD MSTORE PUSH6 0x1C995C1BDC9D PUSH1 0xD2 SHL PUSH1 0x64 DUP3 ADD MSTORE PUSH1 0x84 SWAP1 REVERT JUMPDEST CALLVALUE PUSH2 0xFB JUMPI PUSH1 0x20 CALLDATASIZE PUSH1 0x3 NOT ADD SLT PUSH2 0xFB JUMPI PUSH1 0x4 CALLDATALOAD PUSH1 0x0 MSTORE PUSH1 0x2 PUSH1 0x20 MSTORE PUSH2 0xDBE PUSH1 0x40 PUSH1 0x0 KECCAK256 PUSH1 0x5 DUP2 ADD SLOAD PUSH1 0x1 DUP1 PUSH1 0xA0 SHL SUB DUP1 DUP3 AND PUSH2 0xD5F DUP2 ISZERO ISZERO PUSH2 0x170A JUMP JUMPDEST PUSH1 0x3 DUP5 ADD SLOAD SWAP3 PUSH1 0xFF PUSH1 0x4 DUP7 ADD SLOAD SWAP4 PUSH1 0x6 DUP8 ADD SLOAD AND SWAP2 PUSH1 0x7 DUP8 ADD SLOAD SWAP4 PUSH1 0x8 DUP9 ADD SLOAD SWAP6 PUSH2 0xDDA PUSH2 0xD8C DUP11 PUSH2 0x17F3 JUMP JUMPDEST SWAP10 PUSH2 0xDCC PUSH2 0xDA8 PUSH1 0x2 PUSH2 0xDA1 PUSH1 0x1 DUP6 ADD PUSH2 0x17F3 JUMP JUMPDEST SWAP4 ADD PUSH2 0x17F3 JUMP JUMPDEST SWAP2 PUSH1 0x40 MLOAD SWAP14 DUP15 SWAP14 DUP15 PUSH2 0x140 SWAP1 DUP2 DUP2 MSTORE ADD SWAP1 PUSH2 0x15B6 JUMP JUMPDEST DUP14 DUP2 SUB PUSH1 0x20 DUP16 ADD MSTORE SWAP1 PUSH2 0x15B6 JUMP JUMPDEST SWAP1 DUP12 DUP3 SUB PUSH1 0x40 DUP14 ADD MSTORE PUSH2 0x15B6 JUMP JUMPDEST SWAP8 PUSH1 0x60 DUP11 ADD MSTORE PUSH1 0x80 DUP10 ADD MSTORE PUSH1 0xA0 DUP9 ADD MSTORE PUSH1 0xA0 SHR AND ISZERO ISZERO PUSH1 0xC0 DUP7 ADD MSTORE PUSH1 0xE0 DUP6 ADD MSTORE PUSH2 0x100 DUP5 ADD MSTORE PUSH2 0x120 DUP4 ADD MSTORE SUB SWAP1 RETURN JUMPDEST CALLVALUE PUSH2 0xFB JUMPI PUSH1 0x40 CALLDATASIZE PUSH1 0x3 NOT ADD SLT PUSH2 0xFB JUMPI PUSH1 0x4 CALLDATALOAD PUSH2 0xE26 PUSH2 0x154F JUMP JUMPDEST PUSH1 0x0 SLOAD PUSH1 0x40 MLOAD PUSH4 0x1FD3F77 PUSH1 0xE7 SHL DUP1 DUP3 MSTORE CALLER PUSH1 0x4 DUP4 ADD MSTORE SWAP4 SWAP3 SWAP2 PUSH1 0x20 SWAP2 PUSH1 0x1 PUSH1 0x1 PUSH1 0xA0 SHL SUB SWAP2 DUP3 AND SWAP2 SWAP1 DUP4 DUP2 PUSH1 0x24 DUP2 DUP7 GAS STATICCALL DUP1 ISZERO PUSH2 0x2B1 JUMPI PUSH2 0xE6F SWAP2 PUSH1 0x0 SWAP2 PUSH2 0xFFC JUMPI POP PUSH2 0x165E JUMP JUMPDEST DUP5 PUSH1 0x0 MSTORE PUSH1 0x2 DUP4 MSTORE PUSH1 0x40 PUSH1 0x0 KECCAK256 SWAP4 PUSH1 0xFF PUSH1 0x5 DUP7 ADD SLOAD PUSH2 0xE91 DUP5 DUP3 AND ISZERO ISZERO PUSH2 0x170A JUMP JUMPDEST PUSH1 0xA0 SHR AND PUSH2 0xFB7 JUMPI AND SWAP5 DUP6 ISZERO PUSH2 0xF72 JUMPI DUP3 SWAP1 PUSH1 0x24 PUSH1 0x40 MLOAD DUP1 SWAP5 DUP2 SWAP4 DUP3 MSTORE DUP10 PUSH1 0x4 DUP4 ADD MSTORE GAS STATICCALL SWAP1 DUP2 ISZERO PUSH2 0x2B1 JUMPI PUSH1 0x0 SWAP2 PUSH2 0xF55 JUMPI JUMPDEST POP ISZERO PUSH2 0xF06 JUMPI POP PUSH1 0x6 ADD DUP1 SLOAD PUSH1 0x1 PUSH1 0x1 PUSH1 0xA0 SHL SUB NOT AND DUP4 OR SWAP1 SSTORE PUSH32 0x7714396770B81A9CC866B004A57BFB821E91DDB4851DF34B4511D751A6DC421E PUSH1 0x0 DUP1 LOG3 STOP JUMPDEST PUSH1 0x84 SWAP1 PUSH1 0x40 MLOAD SWAP1 PUSH3 0x461BCD PUSH1 0xE5 SHL DUP3 MSTORE PUSH1 0x4 DUP3 ADD MSTORE PUSH1 0x22 PUSH1 0x24 DUP3 ADD MSTORE PUSH32 0x41737369676E656420706572736F6E206D75737420626520617574686F72697A PUSH1 0x44 DUP3 ADD MSTORE PUSH2 0x1959 PUSH1 0xF2 SHL PUSH1 0x64 DUP3 ADD MSTORE REVERT JUMPDEST PUSH2 0xF6C SWAP2 POP DUP3 RETURNDATASIZE DUP5 GT PUSH2 0x2AA JUMPI PUSH2 0x29C DUP2 DUP4 PUSH2 0x1624 JUMP JUMPDEST DUP6 PUSH2 0xEC5 JUMP JUMPDEST PUSH1 0x40 MLOAD PUSH3 0x461BCD PUSH1 0xE5 SHL DUP2 MSTORE PUSH1 0x4 DUP2 ADD DUP5 SWAP1 MSTORE PUSH1 0x1D PUSH1 0x24 DUP3 ADD MSTORE PUSH32 0x43616E6E6F742061737369676E20746F207A65726F2061646472657373000000 PUSH1 0x44 DUP3 ADD MSTORE PUSH1 0x64 SWAP1 REVERT JUMPDEST PUSH1 0x40 MLOAD PUSH3 0x461BCD PUSH1 0xE5 SHL DUP2 MSTORE PUSH1 0x4 DUP2 ADD DUP6 SWAP1 MSTORE PUSH1 0x1D PUSH1 0x24 DUP3 ADD MSTORE PUSH32 0x43616E6E6F742061737369676E207265736F6C766564207265706F7274000000 PUSH1 0x44 DUP3 ADD MSTORE PUSH1 0x64 SWAP1 REVERT JUMPDEST PUSH2 0x957 SWAP2 POP DUP6 RETURNDATASIZE DUP8 GT PUSH2 0x2AA JUMPI PUSH2 0x29C DUP2 DUP4 PUSH2 0x1624 JUMP JUMPDEST CALLVALUE PUSH2 0xFB JUMPI PUSH1 0x20 DUP1 PUSH1 0x3 NOT CALLDATASIZE ADD SLT PUSH2 0xFB JUMPI PUSH1 0x0 SLOAD PUSH1 0x40 MLOAD PUSH4 0x1FD3F77 PUSH1 0xE7 SHL DUP2 MSTORE CALLER PUSH1 0x4 DUP3 ADD MSTORE PUSH1 0x1 PUSH1 0x1 PUSH1 0xA0 SHL SUB SWAP2 DUP4 SWAP1 DUP3 SWAP1 PUSH1 0x24 SWAP1 DUP3 SWAP1 DUP7 AND GAS STATICCALL DUP1 ISZERO PUSH2 0x2B1 JUMPI PUSH2 0x1068 SWAP2 PUSH1 0x0 SWAP2 PUSH2 0x11BD JUMPI POP PUSH2 0x165E JUMP JUMPDEST PUSH1 0x4 CALLDATALOAD PUSH1 0x0 MSTORE PUSH1 0x2 DUP3 MSTORE PUSH1 0xFF PUSH1 0x40 PUSH1 0x0 KECCAK256 SWAP2 PUSH2 0x108C PUSH1 0x5 DUP5 ADD SLOAD SWAP2 DUP3 AND ISZERO ISZERO PUSH2 0x170A JUMP JUMPDEST PUSH1 0xA0 SHR AND PUSH2 0x116A JUMPI PUSH1 0x0 SWAP1 CALLER PUSH1 0x0 MSTORE PUSH1 0x9 DUP2 ADD DUP4 MSTORE PUSH1 0x40 PUSH1 0x0 KECCAK256 DUP1 SLOAD PUSH1 0xFF DUP2 AND PUSH2 0x1146 JUMPI JUMPDEST POP POP CALLER PUSH1 0x0 MSTORE PUSH1 0xA DUP2 ADD DUP4 MSTORE PUSH1 0x40 PUSH1 0x0 KECCAK256 DUP1 SLOAD PUSH1 0xFF DUP2 AND PUSH2 0x1125 JUMPI JUMPDEST POP POP POP ISZERO PUSH2 0x10D7 JUMPI STOP JUMPDEST PUSH1 0x84 SWAP1 PUSH1 0x40 MLOAD SWAP1 PUSH3 0x461BCD PUSH1 0xE5 SHL DUP3 MSTORE PUSH1 0x4 DUP3 ADD MSTORE PUSH1 0x21 PUSH1 0x24 DUP3 ADD MSTORE PUSH32 0x596F752068617665206E6F7420766F746564206F6E2074686973207265706F72 PUSH1 0x44 DUP3 ADD MSTORE PUSH1 0x1D PUSH1 0xFA SHL PUSH1 0x64 DUP3 ADD MSTORE REVERT JUMPDEST PUSH1 0x4 SWAP4 POP PUSH1 0xFF NOT AND SWAP1 SSTORE ADD PUSH2 0x113A DUP2 SLOAD PUSH2 0x17E6 JUMP JUMPDEST SWAP1 SSTORE PUSH1 0x1 DUP3 DUP1 DUP1 PUSH2 0x10CD JUMP JUMPDEST SWAP1 SWAP2 SWAP3 POP PUSH1 0xFF NOT AND SWAP1 SSTORE PUSH1 0x3 DUP2 ADD PUSH2 0x115E DUP2 SLOAD PUSH2 0x17E6 JUMP JUMPDEST SWAP1 SSTORE PUSH1 0x1 SWAP1 DUP4 DUP1 PUSH2 0x10B1 JUMP JUMPDEST PUSH1 0x40 MLOAD PUSH3 0x461BCD PUSH1 0xE5 SHL DUP2 MSTORE PUSH1 0x4 DUP2 ADD DUP4 SWAP1 MSTORE PUSH1 0x25 PUSH1 0x24 DUP3 ADD MSTORE PUSH32 0x43616E6E6F74206368616E676520766F7465206F6E207265736F6C7665642072 PUSH1 0x44 DUP3 ADD MSTORE PUSH5 0x195C1BDC9D PUSH1 0xDA SHL PUSH1 0x64 DUP3 ADD MSTORE PUSH1 0x84 SWAP1 REVERT JUMPDEST PUSH2 0x11D4 SWAP2 POP DUP5 RETURNDATASIZE DUP7 GT PUSH2 0x2AA JUMPI PUSH2 0x29C DUP2 DUP4 PUSH2 0x1624 JUMP JUMPDEST DUP5 PUSH2 0x14F JUMP JUMPDEST CALLVALUE PUSH2 0xFB JUMPI PUSH1 0x20 DUP1 PUSH1 0x3 NOT CALLDATASIZE ADD SLT PUSH2 0xFB JUMPI PUSH2 0x11F4 PUSH2 0x1565 JUMP JUMPDEST SWAP1 PUSH1 0x1 SLOAD PUSH2 0x1201 DUP2 PUSH2 0x18B1 JUMP JUMPDEST SWAP3 PUSH1 0x0 SWAP3 PUSH1 0x1 PUSH1 0x1 PUSH1 0xA0 SHL SUB SWAP2 DUP3 AND SWAP1 PUSH1 0x1 JUMPDEST DUP5 DUP2 GT ISZERO PUSH2 0x1268 JUMPI DUP7 DUP7 PUSH2 0x1227 DUP2 PUSH2 0x18B1 JUMP JUMPDEST SWAP2 PUSH1 0x0 JUMPDEST DUP3 DUP2 LT PUSH2 0x1244 JUMPI PUSH1 0x40 MLOAD DUP1 PUSH2 0x1240 DUP7 DUP3 PUSH2 0x157B JUMP JUMPDEST SUB SWAP1 RETURN JUMPDEST DUP1 PUSH2 0x1252 PUSH2 0x1263 SWAP3 DUP5 PUSH2 0x18E3 JUMP JUMPDEST MLOAD PUSH2 0x125D DUP3 DUP8 PUSH2 0x18E3 JUMP JUMPDEST MSTORE PUSH2 0x16A0 JUMP JUMPDEST PUSH2 0x122B JUMP JUMPDEST DUP1 PUSH1 0x0 MSTORE PUSH1 0x2 DUP3 MSTORE PUSH1 0x40 PUSH1 0x0 KECCAK256 DUP4 DUP6 PUSH1 0x6 DUP4 ADD SLOAD AND EQ SWAP1 DUP2 PUSH2 0x12B4 JUMPI JUMPDEST POP PUSH2 0x1299 JUMPI JUMPDEST PUSH2 0x1294 SWAP1 PUSH2 0x16A0 JUMP JUMPDEST PUSH2 0x1214 JUMP JUMPDEST SWAP5 PUSH2 0x12AC DUP2 DUP8 PUSH2 0x125D PUSH2 0x1294 SWAP5 DUP12 PUSH2 0x18E3 JUMP JUMPDEST SWAP6 SWAP1 POP PUSH2 0x128B JUMP JUMPDEST PUSH1 0xFF SWAP2 POP PUSH1 0x5 ADD SLOAD PUSH1 0xA0 SHR AND ISZERO DUP9 PUSH2 0x1285 JUMP JUMPDEST CALLVALUE PUSH2 0xFB JUMPI PUSH1 0x0 CALLDATASIZE PUSH1 0x3 NOT ADD SLT PUSH2 0xFB JUMPI PUSH1 0x20 PUSH1 0x1 SLOAD PUSH1 0x40 MLOAD SWAP1 DUP2 MSTORE RETURN JUMPDEST CALLVALUE PUSH2 0xFB JUMPI PUSH1 0x20 DUP1 PUSH1 0x3 NOT CALLDATASIZE ADD SLT PUSH2 0xFB JUMPI PUSH2 0x12FF PUSH2 0x1565 JUMP JUMPDEST PUSH1 0x1 SLOAD PUSH2 0x130B DUP2 PUSH2 0x18B1 JUMP JUMPDEST SWAP3 PUSH1 0x0 SWAP3 PUSH1 0x1 PUSH1 0x1 PUSH1 0xA0 SHL SUB SWAP1 DUP2 AND SWAP2 PUSH1 0x1 JUMPDEST DUP5 DUP2 GT ISZERO PUSH2 0x135D JUMPI DUP7 DUP7 PUSH2 0x1331 DUP2 PUSH2 0x18B1 JUMP JUMPDEST SWAP2 PUSH1 0x0 JUMPDEST DUP3 DUP2 LT PUSH2 0x134A JUMPI PUSH1 0x40 MLOAD DUP1 PUSH2 0x1240 DUP7 DUP3 PUSH2 0x157B JUMP JUMPDEST DUP1 PUSH2 0x1252 PUSH2 0x1358 SWAP3 DUP5 PUSH2 0x18E3 JUMP JUMPDEST PUSH2 0x1335 JUMP JUMPDEST DUP1 PUSH1 0x0 MSTORE PUSH1 0x2 DUP3 MSTORE DUP4 DUP4 PUSH1 0x5 PUSH1 0x40 PUSH1 0x0 KECCAK256 ADD SLOAD AND EQ PUSH2 0x1385 JUMPI JUMPDEST PUSH2 0x1380 SWAP1 PUSH2 0x16A0 JUMP JUMPDEST PUSH2 0x131E JUMP JUMPDEST SWAP5 PUSH2 0x1398 DUP2 DUP8 PUSH2 0x125D PUSH2 0x1380 SWAP5 DUP12 PUSH2 0x18E3 JUMP JUMPDEST SWAP6 SWAP1 POP PUSH2 0x1377 JUMP JUMPDEST CALLVALUE PUSH2 0xFB JUMPI PUSH1 0x20 DUP1 PUSH1 0x3 NOT CALLDATASIZE ADD SLT PUSH2 0xFB JUMPI PUSH1 0x0 SLOAD PUSH1 0x40 MLOAD PUSH4 0x1FD3F77 PUSH1 0xE7 SHL DUP2 MSTORE CALLER PUSH1 0x4 DUP3 ADD MSTORE PUSH1 0x1 PUSH1 0x1 PUSH1 0xA0 SHL SUB SWAP3 SWAP2 DUP3 SWAP1 DUP3 SWAP1 PUSH1 0x24 SWAP1 DUP3 SWAP1 DUP8 AND GAS STATICCALL DUP1 ISZERO PUSH2 0x2B1 JUMPI PUSH2 0x13F6 SWAP2 PUSH1 0x0 SWAP2 PUSH2 0x14C2 JUMPI POP PUSH2 0x165E JUMP JUMPDEST PUSH1 0x4 CALLDATALOAD PUSH1 0x0 MSTORE PUSH1 0x2 DUP2 MSTORE PUSH1 0x40 PUSH1 0x0 KECCAK256 SWAP2 PUSH1 0x5 DUP4 ADD SWAP2 DUP3 SLOAD SWAP2 DUP3 AND PUSH2 0x141B DUP2 ISZERO ISZERO PUSH2 0x170A JUMP JUMPDEST PUSH1 0xFF DUP4 PUSH1 0xA0 SHR AND ISZERO PUSH2 0x1484 JUMPI CALLER SUB PUSH2 0x1440 JUMPI PUSH1 0xFF PUSH1 0xA0 SHL NOT DUP3 AND DUP4 SSTORE PUSH1 0x0 PUSH1 0x8 DUP6 ADD SSTORE STOP JUMPDEST PUSH1 0x64 SWAP1 PUSH1 0x40 MLOAD SWAP1 PUSH3 0x461BCD PUSH1 0xE5 SHL DUP3 MSTORE PUSH1 0x4 DUP3 ADD MSTORE PUSH1 0x1E PUSH1 0x24 DUP3 ADD MSTORE PUSH32 0x4F6E6C792063726561746F722063616E2072656F70656E207265706F72740000 PUSH1 0x44 DUP3 ADD MSTORE REVERT JUMPDEST PUSH1 0x40 MLOAD PUSH3 0x461BCD PUSH1 0xE5 SHL DUP2 MSTORE PUSH1 0x4 DUP2 ADD DUP4 SWAP1 MSTORE PUSH1 0x16 PUSH1 0x24 DUP3 ADD MSTORE PUSH22 0x14995C1BDC9D081A5CC81B9BDD081C995CDBDB1D9959 PUSH1 0x52 SHL PUSH1 0x44 DUP3 ADD MSTORE PUSH1 0x64 SWAP1 REVERT JUMPDEST PUSH2 0x11D4 SWAP2 POP DUP4 RETURNDATASIZE DUP6 GT PUSH2 0x2AA JUMPI PUSH2 0x29C DUP2 DUP4 PUSH2 0x1624 JUMP JUMPDEST CALLVALUE PUSH2 0xFB JUMPI PUSH1 0x40 CALLDATASIZE PUSH1 0x3 NOT ADD SLT PUSH2 0xFB JUMPI PUSH1 0x40 PUSH2 0x14F4 PUSH2 0x154F JUMP JUMPDEST PUSH1 0x4 CALLDATALOAD PUSH1 0x0 MSTORE PUSH1 0x2 PUSH1 0x20 MSTORE DUP2 PUSH1 0x0 KECCAK256 SWAP1 PUSH1 0x1 DUP1 PUSH1 0xA0 SHL SUB SWAP1 PUSH2 0x151D DUP3 PUSH1 0x5 DUP6 ADD SLOAD AND ISZERO ISZERO PUSH2 0x170A JUMP JUMPDEST AND PUSH1 0x0 MSTORE PUSH1 0x9 DUP2 ADD PUSH1 0x20 MSTORE PUSH1 0xA PUSH1 0xFF DUP4 PUSH1 0x0 KECCAK256 SLOAD AND SWAP2 ADD PUSH1 0x20 MSTORE PUSH1 0xFF DUP3 PUSH1 0x0 KECCAK256 SLOAD AND DUP3 MLOAD SWAP2 ISZERO ISZERO DUP3 MSTORE ISZERO ISZERO PUSH1 0x20 DUP3 ADD MSTORE RETURN JUMPDEST PUSH1 0x24 CALLDATALOAD SWAP1 PUSH1 0x1 PUSH1 0x1 PUSH1 0xA0 SHL SUB DUP3 AND DUP3 SUB PUSH2 0xFB JUMPI JUMP JUMPDEST PUSH1 0x4 CALLDATALOAD SWAP1 PUSH1 0x1 PUSH1 0x1 PUSH1 0xA0 SHL SUB DUP3 AND DUP3 SUB PUSH2 0xFB JUMPI JUMP JUMPDEST PUSH1 0x20 SWAP1 DUP2 PUSH1 0x40 DUP2 DUP4 ADD SWAP3 DUP3 DUP2 MSTORE DUP6 MLOAD DUP1 SWAP5 MSTORE ADD SWAP4 ADD SWAP2 PUSH1 0x0 JUMPDEST DUP3 DUP2 LT PUSH2 0x15A2 JUMPI POP POP POP POP SWAP1 JUMP JUMPDEST DUP4 MLOAD DUP6 MSTORE SWAP4 DUP2 ADD SWAP4 SWAP3 DUP2 ADD SWAP3 PUSH1 0x1 ADD PUSH2 0x1594 JUMP JUMPDEST SWAP2 SWAP1 DUP3 MLOAD SWAP3 DUP4 DUP3 MSTORE PUSH1 0x0 JUMPDEST DUP5 DUP2 LT PUSH2 0x15E2 JUMPI POP POP DUP3 PUSH1 0x0 PUSH1 0x20 DUP1 SWAP5 SWAP6 DUP5 ADD ADD MSTORE PUSH1 0x1F DUP1 NOT SWAP2 ADD AND ADD ADD SWAP1 JUMP JUMPDEST PUSH1 0x20 DUP2 DUP4 ADD DUP2 ADD MLOAD DUP5 DUP4 ADD DUP3 ADD MSTORE ADD PUSH2 0x15C1 JUMP JUMPDEST SWAP2 DUP2 PUSH1 0x1F DUP5 ADD SLT ISZERO PUSH2 0xFB JUMPI DUP3 CALLDATALOAD SWAP2 PUSH8 0xFFFFFFFFFFFFFFFF DUP4 GT PUSH2 0xFB JUMPI PUSH1 0x20 DUP4 DUP2 DUP7 ADD SWAP6 ADD ADD GT PUSH2 0xFB JUMPI JUMP JUMPDEST SWAP1 PUSH1 0x1F DUP1 NOT SWAP2 ADD AND DUP2 ADD SWAP1 DUP2 LT PUSH8 0xFFFFFFFFFFFFFFFF DUP3 GT OR PUSH2 0x66F JUMPI PUSH1 0x40 MSTORE JUMP JUMPDEST SWAP1 DUP2 PUSH1 0x20 SWAP2 SUB SLT PUSH2 0xFB JUMPI MLOAD DUP1 ISZERO ISZERO DUP2 SUB PUSH2 0xFB JUMPI SWAP1 JUMP JUMPDEST ISZERO PUSH2 0x1665 JUMPI JUMP JUMPDEST PUSH1 0x40 MLOAD PUSH3 0x461BCD PUSH1 0xE5 SHL DUP2 MSTORE PUSH1 0x20 PUSH1 0x4 DUP3 ADD MSTORE PUSH1 0x13 PUSH1 0x24 DUP3 ADD MSTORE PUSH19 0x155CD95C881B9BDD08185D5D1A1BDC9A5E9959 PUSH1 0x6A SHL PUSH1 0x44 DUP3 ADD MSTORE PUSH1 0x64 SWAP1 REVERT JUMPDEST PUSH1 0x0 NOT DUP2 EQ PUSH2 0x928 JUMPI PUSH1 0x1 ADD SWAP1 JUMP JUMPDEST SWAP1 PUSH1 0x1 DUP3 DUP2 SHR SWAP3 AND DUP1 ISZERO PUSH2 0x16DF JUMPI JUMPDEST PUSH1 0x20 DUP4 LT EQ PUSH2 0x16C9 JUMPI JUMP JUMPDEST PUSH4 0x4E487B71 PUSH1 0xE0 SHL PUSH1 0x0 MSTORE PUSH1 0x22 PUSH1 0x4 MSTORE PUSH1 0x24 PUSH1 0x0 REVERT JUMPDEST SWAP2 PUSH1 0x7F AND SWAP2 PUSH2 0x16BE JUMP JUMPDEST SWAP1 DUP1 PUSH1 0x20 SWAP4 SWAP3 DUP2 DUP5 MSTORE DUP5 DUP5 ADD CALLDATACOPY PUSH1 0x0 DUP3 DUP3 ADD DUP5 ADD MSTORE PUSH1 0x1F ADD PUSH1 0x1F NOT AND ADD ADD SWAP1 JUMP JUMPDEST ISZERO PUSH2 0x1711 JUMPI JUMP JUMPDEST PUSH1 0x40 MLOAD PUSH3 0x461BCD PUSH1 0xE5 SHL DUP2 MSTORE PUSH1 0x20 PUSH1 0x4 DUP3 ADD MSTORE PUSH1 0x15 PUSH1 0x24 DUP3 ADD MSTORE PUSH21 0x14995C1BDC9D08191BD95CC81B9BDD08195E1A5CDD PUSH1 0x5A SHL PUSH1 0x44 DUP3 ADD MSTORE PUSH1 0x64 SWAP1 REVERT JUMPDEST ISZERO PUSH2 0x1755 JUMPI JUMP JUMPDEST PUSH1 0x40 MLOAD PUSH3 0x461BCD PUSH1 0xE5 SHL DUP2 MSTORE PUSH1 0x20 PUSH1 0x4 DUP3 ADD MSTORE PUSH1 0x1E PUSH1 0x24 DUP3 ADD MSTORE PUSH32 0x43616E6E6F7420766F7465206F6E207265736F6C766564207265706F72740000 PUSH1 0x44 DUP3 ADD MSTORE PUSH1 0x64 SWAP1 REVERT JUMPDEST ISZERO PUSH2 0x17A1 JUMPI JUMP JUMPDEST PUSH1 0x40 MLOAD PUSH3 0x461BCD PUSH1 0xE5 SHL DUP2 MSTORE PUSH1 0x20 PUSH1 0x4 DUP3 ADD MSTORE PUSH1 0x1E PUSH1 0x24 DUP3 ADD MSTORE PUSH32 0x43616E6E6F7420766F7465206F6E20796F7572206F776E207265706F72740000 PUSH1 0x44 DUP3 ADD MSTORE PUSH1 0x64 SWAP1 REVERT JUMPDEST DUP1 ISZERO PUSH2 0x928 JUMPI PUSH1 0x0 NOT ADD SWAP1 JUMP JUMPDEST SWAP1 PUSH1 0x40 MLOAD SWAP2 DUP3 PUSH1 0x0 DUP3 SLOAD SWAP3 PUSH2 0x1807 DUP5 PUSH2 0x16AF JUMP JUMPDEST SWAP1 DUP2 DUP5 MSTORE PUSH1 0x1 SWAP5 DUP6 DUP2 AND SWAP1 DUP2 PUSH1 0x0 EQ PUSH2 0x1876 JUMPI POP PUSH1 0x1 EQ PUSH2 0x1833 JUMPI JUMPDEST POP POP PUSH2 0x1831 SWAP3 POP SUB DUP4 PUSH2 0x1624 JUMP JUMPDEST JUMP JUMPDEST SWAP1 SWAP4 SWAP2 POP PUSH1 0x0 MSTORE PUSH1 0x20 SWAP1 DUP2 PUSH1 0x0 KECCAK256 SWAP4 PUSH1 0x0 SWAP2 JUMPDEST DUP2 DUP4 LT PUSH2 0x185E JUMPI POP POP PUSH2 0x1831 SWAP4 POP DUP3 ADD ADD CODESIZE DUP1 PUSH2 0x1823 JUMP JUMPDEST DUP6 SLOAD DUP9 DUP5 ADD DUP6 ADD MSTORE SWAP5 DUP6 ADD SWAP5 DUP8 SWAP5 POP SWAP2 DUP4 ADD SWAP2 PUSH2 0x1846 JUMP JUMPDEST SWAP2 POP POP PUSH2 0x1831 SWAP5 POP PUSH1 0x20 SWAP3 POP PUSH1 0xFF NOT AND DUP3 DUP5 ADD MSTORE ISZERO ISZERO PUSH1 0x5 SHL DUP3 ADD ADD CODESIZE DUP1 PUSH2 0x1823 JUMP JUMPDEST PUSH8 0xFFFFFFFFFFFFFFFF DUP2 GT PUSH2 0x66F JUMPI PUSH1 0x5 SHL PUSH1 0x20 ADD SWAP1 JUMP JUMPDEST SWAP1 PUSH2 0x18BB DUP3 PUSH2 0x1899 JUMP JUMPDEST PUSH2 0x18C8 PUSH1 0x40 MLOAD SWAP2 DUP3 PUSH2 0x1624 JUMP JUMPDEST DUP3 DUP2 MSTORE DUP1 SWAP3 PUSH2 0x18D9 PUSH1 0x1F NOT SWAP2 PUSH2 0x1899 JUMP JUMPDEST ADD SWAP1 PUSH1 0x20 CALLDATASIZE SWAP2 ADD CALLDATACOPY JUMP JUMPDEST DUP1 MLOAD DUP3 LT ISZERO PUSH2 0x18F7 JUMPI PUSH1 0x20 SWAP2 PUSH1 0x5 SHL ADD ADD SWAP1 JUMP JUMPDEST PUSH4 0x4E487B71 PUSH1 0xE0 SHL PUSH1 0x0 MSTORE PUSH1 0x32 PUSH1 0x4 MSTORE PUSH1 0x24 PUSH1 0x0 REVERT INVALID LOG2 PUSH5 0x6970667358 0x22 SLT KECCAK256 0xBF GAS SWAP6 0xCC LOG1 PUSH11 0xDF5340FB0066C576609276 COINBASE 0xD6 PUSH15 0x1A6F82C6AAEFA099768155C764736F PUSH13 0x63430008140033000000000000 "},"methodIdentifiers":{"assignReport(uint256,address)":"4a3b64cf","authRegistry()":"629e025a","createReport(string,string,string)":"893fbece","downvoteReport(uint256)":"4efdde4a","getReport(uint256)":"4e7f9b19","getReportVotes(uint256)":"72862d5f","getReportsAssignedTo(address)":"28178153","getReportsByUser(address)":"162578e9","getUserVote(uint256,address)":"03c7881a","lastCreatedAt(address)":"b94afa71","removeVote(uint256)":"3f68fde4","reopenReport(uint256)":"143c809e","reportCount()":"185c6f84","resolveReport(uint256)":"6dfa5e61","upvoteReport(uint256)":"b1dc5e30"}}}}}