{"contracts/project/project.sol":{"Project":{"abi":[{"inputs":[{"internalType":"address","name":"_authRegistry","type":"address"}],"stateMutability":"nonpayable","type":"constructor"},{"anonymous":false,"inputs":[{"indexed":true,"internalType":"uint256","name":"projectId","type":"uint256"},{"indexed":true,"internalType":"address","name":"deductor","type":"address"},{"indexed":false,"internalType":"uint256","name":"amount","type":"uint256"},{"indexed":false,"internalType":"uint256","name":"totalSpent","type":"uint256"}],"name":"BudgetDeducted","type":"event"},{"anonymous":false,"inputs":[{"indexed":true,"internalType":"uint256","name":"projectId","type":"uint256"},{"indexed":true,"internalType":"address","name":"spender","type":"address"},{"indexed":false,"internalType":"uint256","name":"amount","type":"uint256"},{"indexed":false,"internalType":"uint256","name":"totalSpent","type":"uint256"}],"name":"BudgetSpent","type":"event"},{"anonymous":false,"inputs":[{"indexed":true,"internalType":"uint256","name":"projectId","type":"uint256"},{"indexed":true,"internalType":"address","name":"creator","type":"address"},{"indexed":false,"internalType":"string","name":"projectName","type":"string"},{"indexed":false,"internalType":"string","name":"categoryName","type":"string"},{"indexed":false,"internalType":"uint256","name":"allocatedBudget","type":"uint256"},{"indexed":false,"internalType":"string","name":"state","type":"string"},{"indexed":false,"internalType":"string","name":"province","type":"string"},{"indexed":false,"internalType":"string","name":"ministry","type":"string"},{"indexed":false,"internalType":"string","name":"status","type":"string"}],"name":"ProjectCreated","type":"event"},{"anonymous":false,"inputs":[{"indexed":true,"internalType":"uint256","name":"projectId","type":"uint256"},{"indexed":false,"internalType":"string","name":"oldStatus","type":"string"},{"indexed":false,"internalType":"string","name":"newStatus","type":"string"}],"name":"ProjectStatusChanged","type":"event"},{"anonymous":false,"inputs":[{"indexed":true,"internalType":"uint256","name":"projectId","type":"uint256"},{"indexed":true,"internalType":"address","name":"updater","type":"address"},{"indexed":false,"internalType":"string","name":"projectName","type":"string"},{"indexed":false,"internalType":"string","name":"status","type":"string"}],"name":"ProjectUpdated","type":"event"},{"inputs":[{"internalType":"uint256","name":"projectId","type":"uint256"},{"internalType":"uint256","name":"amount","type":"uint256"}],"name":"addSpentBudget","outputs":[],"stateMutability":"nonpayable","type":"function"},{"inputs":[],"name":"authRegistry","outputs":[{"internalType":"contract IAuthRegistry","name":"","type":"address"}],"stateMutability":"view","type":"function"},{"inputs":[{"internalType":"string","name":"projectName","type":"string"},{"internalType":"string","name":"categoryId","type":"string"},{"internalType":"uint256","name":"allocatedBudget","type":"uint256"},{"internalType":"string","name":"state","type":"string"},{"internalType":"string","name":"province","type":"string"},{"internalType":"string","name":"ministry","type":"string"},{"internalType":"string","name":"viewDetailsCid","type":"string"},{"internalType":"string","name":"status","type":"string"}],"name":"createProject","outputs":[{"internalType":"uint256","name":"","type":"uint256"}],"stateMutability":"nonpayable","type":"function"},{"inputs":[{"internalType":"uint256","name":"projectId","type":"uint256"},{"internalType":"uint256","name":"amount","type":"uint256"}],"name":"deductSpentBudget","outputs":[],"stateMutability":"nonpayable","type":"function"},{"inputs":[{"internalType":"uint256","name":"projectId","type":"uint256"}],"name":"getProject","outputs":[{"internalType":"uint256","name":"id","type":"uint256"},{"internalType":"string","name":"projectName","type":"string"},{"internalType":"string","name":"categoryId","type":"string"},{"internalType":"uint256","name":"allocatedBudget","type":"uint256"},{"internalType":"uint256","name":"spentBudget","type":"uint256"},{"internalType":"string","name":"state","type":"string"},{"internalType":"string","name":"province","type":"string"},{"internalType":"string","name":"ministry","type":"string"},{"internalType":"string","name":"viewDetailsCid","type":"string"},{"internalType":"string","name":"status","type":"string"},{"internalType":"uint256","name":"createdAt","type":"uint256"},{"internalType":"uint256","name":"updatedAt","type":"uint256"},{"internalType":"bool","name":"removed","type":"bool"}],"stateMutability":"view","type":"function"},{"inputs":[{"internalType":"address","name":"","type":"address"}],"name":"lastCreatedAt","outputs":[{"internalType":"uint256","name":"","type":"uint256"}],"stateMutability":"view","type":"function"},{"inputs":[],"name":"projectCount","outputs":[{"internalType":"uint256","name":"","type":"uint256"}],"stateMutability":"view","type":"function"},{"inputs":[{"internalType":"uint256","name":"projectId","type":"uint256"}],"name":"removeProject","outputs":[],"stateMutability":"nonpayable","type":"function"},{"inputs":[{"internalType":"uint256","name":"projectId","type":"uint256"},{"internalType":"uint256","name":"newAllocatedBudget","type":"uint256"}],"name":"updateAllocatedBudget","outputs":[],"stateMutability":"nonpayable","type":"function"},{"inputs":[{"internalType":"uint256","name":"projectId","type":"uint256"},{"internalType":"string","name":"projectName","type":"string"},{"internalType":"string","name":"categoryId","type":"string"},{"internalType":"string","name":"state","type":"string"},{"internalType":"string","name":"province","type":"string"},{"internalType":"string","name":"ministry","type":"string"},{"internalType":"string","name":"viewDetailsCid","type":"string"},{"internalType":"string","name":"status","type":"string"}],"name":"updateProject","outputs":[],"stateMutability":"nonpayable","type":"function"}],"evm":{"bytecode":{"linkReferences":{},"object":"6080346100cb57601f61236938819003918201601f19168301916001600160401b038311848410176100d0578084926020946040528339810103126100cb57516001600160a01b038116908190036100cb57801561007a57600080546001600160a01b03191691909117905560405161228290816100e78239f35b60405162461bcd60e51b8152602060048201526024808201527f4175746820726567697374727920616464726573732063616e6e6f74206265206044820152637a65726f60e01b6064820152608490fd5b600080fd5b634e487b7160e01b600052604160045260246000fdfe60c0604052600436101561001257600080fd5b60003560e01c8063199dc3d41461133457806336fbad26146113165780635873f99814611186578063629e025a1461115d57806364e4b891146106765780637c66c78f14610555578063afe32ec314610425578063b94afa71146103e7578063d64b9186146102675763f0f3f2c81461008a57600080fd5b346102625760203660031901126102625760043580151580610256575b6100b090612118565b600052600260205260406000208054600382015491600481015492600a82015491600b81015490600c81015460ff169260405196878060018501906100f49161215d565b036100ff9089611e33565b6040519182610111816002870161215d565b0361011c9084611e33565b6040518061012d816005880161215d565b036101389082611e33565b604051918261014a816006890161215d565b036101559084611e33565b60405193846101678160078a0161215d565b036101729086611e33565b60405195866101848160088b0161215d565b0361018f9088611e33565b604051806009819a01906101a29161215d565b036101ad9089611e33565b6040519c8d9c8d528c6101a06020819201528d016101ca91611df3565b8c810360408e01526101db91611df3565b9160608c015260808b015289810360a08b01526101f791611df3565b88810360c08a015261020891611df3565b87810360e089015261021991611df3565b86810361010088015261022b91611df3565b85810361012087015261023d91611df3565b9261014085015261016084015215156101808301520390f35b506001548111156100a7565b600080fd5b346102625761027536611ddd565b600054604051630935e01b60e21b81523360048201529192916020918290829060249082906001600160a01b03165afa80156103db576102bd916000916103ae575b50611e6c565b811515806103a2575b6102cf90612118565b6102da8315156121f3565b816000526002815260406000209060048201918254928584106103515785840393841161033b57839055600b429101556040519384528301527fb68b353a76e3fbb110464dbff4e3a6f24457f8d32c5d6495fa092be4646a513960403393a3005b634e487b7160e01b600052601160045260246000fd5b60405162461bcd60e51b8152600481018490526024808201527f43616e6e6f7420646564756374206d6f7265207468616e207370656e742062756044820152631919d95d60e21b6064820152608490fd5b506001548211156102c6565b6103ce9150833d85116103d4575b6103c68183611e33565b810190611e54565b856102b7565b503d6103bc565b6040513d6000823e3d90fd5b34610262576020366003190112610262576004356001600160a01b038116908190036102625760005260036020526020604060002054604051908152f35b346102625761043336611ddd565b600054604051630935e01b60e21b81523360048201529192916020918290829060249082906001600160a01b03165afa80156103db5761047a916000916103ae5750611e6c565b81151580610549575b61048c90612118565b6104978315156121f3565b8160005260028152604060002090600482019182546104b6868261223f565b60038301541061050457856104ca9161223f565b809355600b429101556040519384528301527fefda33b734791da8f3b329895a5e918347a467c7e63e75b3c1b118232cdd644560403393a3005b60405162461bcd60e51b815260048101849052601e60248201527f43616e6e6f742065786365656420616c6c6f63617465642062756467657400006044820152606490fd5b50600154821115610483565b346102625761056336611ddd565b600054604051630935e01b60e21b815233600482015291929190602090829060249082906001600160a01b03165afa80156103db576105a9916000916106585750611e6c565b8015158061064c575b6105bb90612118565b6105c6821515611f40565b6000526002602052604060002090600482015481106105ed57600382015542600b90910155005b60405162461bcd60e51b815260206004820152603160248201527f416c6c6f6361746564206275646765742063616e6e6f74206265206c657373206044820152701d1a185b881cdc195b9d08189d5919d95d607a1b6064820152608490fd5b506001548111156105b2565b610670915060203d81116103d4576103c68183611e33565b846102b7565b3461026257610100366003190112610262576024356001600160401b038111610262576106a7903690600401611db0565b6044356001600160401b038111610262576106c6903690600401611db0565b916064356001600160401b038111610262576106e6903690600401611db0565b9290946084356001600160401b03811161026257610708903690600401611db0565b9060a4356001600160401b03811161026257610728903690600401611db0565b9060c4356001600160401b03811161026257610748903690600401611db0565b9490936001600160401b0360e435116102625761076a3660e435600401611db0565b600054604051630935e01b60e21b8152336004820152929e919c9290602090829060249082906001600160a01b03165afa80156103db576107b29160009161113e5750611e6c565b600435151580611130575b6107c690612118565b6107d18b1515611ea8565b6107dc8d1515611ef4565b6107e7821515611f9c565b6107f2841515611fe0565b6107fd86151561202c565b6108088c1515612078565b600435600052600260205260406000209c8d9a6040519e8f806009819301906108309161215d565b0361083a91611e33565b6001600160401b038d11610c475761085560018d01546120bd565b601f81116110e7575b508c8060008e6001601f8411146110735750600091611068575b508160011b916000199060031b1c19161760018d01555b6001600160401b038211610c475781906108ac60028e01546120bd565b601f8111611015575b50600090601f8311600114610fa457600092610f99575b50508160011b916000199060031b1c19161760028b01555b6001600160401b038211610c4757819061090160058c01546120bd565b601f8111610f46575b50600090601f8311600114610ed557600092610eca575b50508160011b916000199060031b1c19161760058901555b6001600160401b038211610c4757819061095660068a01546120bd565b601f8111610e77575b50600090601f8311600114610e0657600092610dfb575b50508160011b916000199060031b1c19161760068701555b6001600160401b038211610c475781906109ab60078801546120bd565b601f8111610da8575b50600090601f8311600114610d3757600092610d2c575b50508160011b916000199060031b1c19161760078501555b6001600160401b038211610c47578190610a0060088601546120bd565b601f8111610cd9575b50600090601f8311600114610c6857600092610c5d575b50508160011b916000199060031b1c19161760088301555b6001600160401b038411610c4757610a5360098301546120bd565b601f8111610bfc575b5060009184601f8111600114610b8957610aa793600091610b7e575b508560011b906000198760031b1c19161760098201555b600b42910155604051926040845260408401916120f7565b81810360208301527fd51fc012df72572efb7d54735a8fa2cafb1de9ccf25c8859f1439aa41c106c5f339280610ae160043594878a6120f7565b0390a381516020830120604051610b026020601f19601f8601160182611e33565b82815260208101903684870111610262578386833760006020858301015251902003610b2a57005b7f71a9b721769631e767153ceb07019b3dec7eeac54a333fceff2ac6bb50f2d25b91610b79610b6792604051938493604085526040850190611df3565b908382036020850152600435966120f7565b0390a2005b905087013588610a78565b5060098101600090815260208120909386601f1981165b808710610bde57610aa7965010610bc4575b5050600185811b016009820155610a8f565b880135600019600388901b60f8161c191690558780610bb2565b8a830135845560209687019660019094019390920191889150610ba0565b600983016000526020600020601f860160051c81019160208710610c3d575b601f0160051c01905b818110610c315750610a5c565b60008155600101610c24565b9091508190610c1b565b634e487b7160e01b600052604160045260246000fd5b013590508880610a20565b909250600885016000526020600020906000935b601f1984168510610cc1576001945083601f19811610610ca7575b505050811b016008830155610a38565b0135600019600384901b60f8161c19169055888080610c97565b81810135835560209485019460019093019201610c7c565b909150600885016000526020600020601f840160051c810160208510610d25575b90849392915b601f830160051c82018110610d16575050610a09565b60008155859450600101610d00565b5080610cfa565b013590508a806109cb565b909250600787016000526020600020906000935b601f1984168510610d90576001945083601f19811610610d76575b505050811b0160078501556109e3565b0135600019600384901b60f8161c191690558a8080610d66565b81810135835560209485019460019093019201610d4b565b909150600787016000526020600020601f840160051c810160208510610df4575b90849392915b601f830160051c82018110610de55750506109b4565b60008155859450600101610dcf565b5080610dc9565b013590508c80610976565b909250600689016000526020600020906000935b601f1984168510610e5f576001945083601f19811610610e45575b505050811b01600687015561098e565b0135600019600384901b60f8161c191690558c8080610e35565b81810135835560209485019460019093019201610e1a565b909150600689016000526020600020601f840160051c810160208510610ec3575b90849392915b601f830160051c82018110610eb457505061095f565b60008155859450600101610e9e565b5080610e98565b013590508e80610921565b90925060058b016000526020600020906000935b601f1984168510610f2e576001945083601f19811610610f14575b505050811b016005890155610939565b0135600019600384901b60f8161c191690558e8080610f04565b81810135835560209485019460019093019201610ee9565b90915060058b016000526020600020601f840160051c810160208510610f92575b90849392915b601f830160051c82018110610f8357505061090a565b60008155859450600101610f6d565b5080610f67565b0135905038806108cc565b90925060028d016000526020600020906000935b601f1984168510610ffd576001945083601f19811610610fe3575b505050811b0160028b01556108e4565b0135600019600384901b60f8161c19169055388080610fd3565b81810135835560209485019460019093019201610fb8565b90915060028d016000526020600020601f840160051c810160208510611061575b90849392915b601f830160051c820181106110525750506108b5565b6000815585945060010161103c565b5080611036565b90508c013538610878565b6001919250016000526020600020918d6000905b601f19831682106110ce57505080601f198116106110b3575b905060018092501b0160018d015561088f565b60f86000199160031b161c19908d013516905538808e6110a0565b600184956020939584930135815501940192018e611087565b60018d016000528d6020600020906020601f820160051c83019110611129575b601f830160051c8201811061111d57505061085e565b60008155600101611107565b5080611107565b5060015460043511156107bd565b611157915060203d6020116103d4576103c68183611e33565b386102b7565b34610262576000366003190112610262576000546040516001600160a01b039091168152602090f35b34610262576020806003193601126102625760043560248260018060a01b036000541660405192838092630935e01b60e21b82523360048301525afa80156103db576111d9916000916112ff5750611e6c565b801515806112f3575b6111eb90612118565b80600052600282526040600020818154036112b857600c8101805460ff8116611273579360409160017f71a9b721769631e767153ceb07019b3dec7eeac54a333fceff2ac6bb50f2d25b959660ff19161790556614915353d5915160ca1b61125e8351948486526009858701910161215d565b918483039283828701526007815201520190a2005b60405162461bcd60e51b815260048101869052601760248201527f50726f6a65637420616c72656164792072656d6f7665640000000000000000006044820152606490fd5b60405162461bcd60e51b81526004810184905260136024820152720a0e4ded4cac6e840928840dad2e6dac2e8c6d606b1b6044820152606490fd5b506001548111156111e2565b6106709150843d86116103d4576103c68183611e33565b34610262576000366003190112610262576020600154604051908152f35b3461026257610100366003190112610262576004356001600160401b03811161026257611365903690600401611db0565b9060a0526024356001600160401b03811161026257611388903690600401611db0565b90916064356001600160401b038111610262576113a9903690600401611db0565b906084356001600160401b038111610262576113c9903690600401611db0565b60a4356001600160401b038111610262576113e8903690600401611db0565b93909460c4356001600160401b0381116102625761140a903690600401611db0565b9990986001600160401b0360e435116102625761142c3660e435600401611db0565b608091909152600054630935e01b60e21b60c09081523360c452919b9160209160249082906001600160a01b03165afa80156103db57600090611d7a575b61147390611e6c565b61147e8a1515611ea8565b611489821515611ef4565b6114966044351515611f40565b6114a1841515611f9c565b6114ac861515611fe0565b6114b788151561202c565b6114c28b1515612078565b6001549b6000198d1461033b576001808e01908190556000818152600260205260409020908155916001600160401b038c11610c475761150560018401546120bd565b601f8111611d32575b508b6000601f8211600114611cbb57600091611cae575b508c60011b908d6000199060031b1c19161760018401555b6001600160401b038411610c475761155860028401546120bd565b601f8111611c67575b50836000601f8211600114611bf957600091611bee575b508460011b906000198660031b1c19161760028401555b6044356003840155600060048401556001600160401b038611610c47576115b960058401546120bd565b601f8111611ba7575b50856000601f8211600114611b3957600091611b2e575b508660011b906000198860031b1c19161760058401555b6001600160401b038811610c475761160b60068401546120bd565b601f8111611ae7575b50876000601f8211600114611a7757600091611a6c575b508860011b906000198a60031b1c19161760068401555b6001600160401b038a11610c475761165d60078401546120bd565b601f8111611a25575b50896000601f82116001146119b5576000916119aa575b508a60011b906000198c60031b1c19161760078401555b6001600160401b038211610c475781906116b160088501546120bd565b601f8111611957575b50600090601f83116001146118e6576000926118db575b50508160011b916000199060031b1c19161760088201555b6001600160401b038b11610c475761170460098201546120bd565b601f8111611893575b508a6000601f821160011461181d57600091611810575b508b60011b906000198d60031b1c19161760098201555b42600a8201554290600b0155336000526003602052426040600020556040519860e08a5260e08a0160a05191611770926120f7565b9089820360208b0152611782926120f7565b906044356040890152878203606089015261179c926120f7565b9085820360808701526117ae926120f7565b9083820360a08501526117c0926120f7565b9080820360c08201528033936001860193608051916117de926120f7565b037fb277f8a65cc12a772964393b88f67d575de0863b623ccc169a21a77c19b9cdac91a3604051906001018152602090f35b905060805101358d611724565b9050600982016000528b6020600020916000608051925b601f198116821061187957601f19811610905061185f575b50505060018b811b01600982015561173b565b013560001960038e901b60f8161c191690558c808061184c565b909193602060018192878701358155019501920190611834565b6009820160005260206000208c6020601f820160051c830191106118d4575b601f830160051c820181106118c857505061170d565b600081556001016118b2565b50806118b2565b013590508e806116d1565b909250600884016000526020600020906000935b601f198416851061193f576001945083601f19811610611925575b505050811b0160088201556116e9565b0135600019600384901b60f8161c191690558e8080611915565b818101358355602094850194600190930192016118fa565b909150600884016000526020600020601f840160051c8101602085106119a3575b90849392915b601f830160051c820181106119945750506116ba565b6000815585945060010161197e565b5080611978565b90508b01358f61167d565b90506007840160005260206000209060005b8d601f198e168210611a0d5750508b601f198116106119f3575b505060018a811b016007840155611694565b8c013560001960038d901b60f8161c191690558e806119e1565b600183946020939484930135815501930191016119c7565b600784016000526020600020601f8c0160051c810160208d10611a65575b601f830160051c82018110611a59575050611666565b60008155600101611a43565b5080611a43565b90508901358f61162b565b90506006840160005260206000209060005b8b601f198c168210611acf57505089601f19811610611ab5575b5050600188811b016006840155611642565b8a013560001960038b901b60f8161c191690558e80611aa3565b60018394602093948493013581550193019101611a89565b600684016000526020600020601f8a0160051c810160208b10611b27575b601f830160051c82018110611b1b575050611614565b60008155600101611b05565b5080611b05565b90508701358f6115d9565b90506005840160005260206000209060005b601f1989168110611b8f575087601f19811610611b75575b5050600186811b0160058401556115f0565b880135600019600389901b60f8161c191690558e80611b63565b9091602060018192858d013581550193019101611b4b565b600584016000526020600020601f880160051c810160208910611be7575b601f830160051c82018110611bdb5750506115c2565b60008155600101611bc5565b5080611bc5565b90508501358f611578565b90506002840160005260206000209060005b601f1987168110611c4f575085601f19811610611c35575b5050600184811b01600284015561158f565b860135600019600387901b60f8161c191690558e80611c23565b9091602060018192858b013581550193019101611c0b565b600284016000526020600020601f860160051c810160208710611ca7575b601f830160051c82018110611c9b575050611561565b60008155600101611c85565b5080611c85565b905060a05101358f611525565b9050600184016000528c60206000209160009160a051925b601f1982168110611d1a575080601f19811610611cff575b91505060018092501b01600184015561153d565b60f86000199160031b161c199101351690558e80808e611ceb565b91936020600181928787013581550195019201611cd3565b6001840160005260206000208d6020601f820160051c83019110611d73575b601f830160051c82018110611d6757505061150e565b60008155600101611d51565b5080611d51565b5060203d602011611da9575b611da281611d986114739360c0611e33565b60c00160c0611e54565b905061146a565b503d611d86565b9181601f84011215610262578235916001600160401b038311610262576020838186019501011161026257565b6040906003190112610262576004359060243590565b919082519283825260005b848110611e1f575050826000602080949584010152601f8019910116010190565b602081830181015184830182015201611dfe565b90601f801991011681019081106001600160401b03821117610c4757604052565b90816020910312610262575180151581036102625790565b15611e7357565b60405162461bcd60e51b815260206004820152600d60248201526c2737902832b936b4b9b9b4b7b760991b6044820152606490fd5b15611eaf57565b60405162461bcd60e51b815260206004820152601c60248201527f50726f6a656374206e616d652063616e6e6f7420626520656d707479000000006044820152606490fd5b15611efb57565b60405162461bcd60e51b815260206004820152601b60248201527f43617465676f72792069642063616e6e6f7420626520656d70747900000000006044820152606490fd5b15611f4757565b60405162461bcd60e51b815260206004820152602760248201527f416c6c6f636174656420627564676574206d75737420626520677265617465726044820152660207468616e20360cc1b6064820152608490fd5b15611fa357565b60405162461bcd60e51b815260206004820152601560248201527453746174652063616e6e6f7420626520656d70747960581b6044820152606490fd5b15611fe757565b60405162461bcd60e51b815260206004820152601860248201527f50726f76696e63652063616e6e6f7420626520656d70747900000000000000006044820152606490fd5b1561203357565b60405162461bcd60e51b815260206004820152601860248201527f4d696e69737472792063616e6e6f7420626520656d70747900000000000000006044820152606490fd5b1561207f57565b60405162461bcd60e51b81526020600482015260166024820152755374617475732063616e6e6f7420626520656d70747960501b6044820152606490fd5b90600182811c921680156120ed575b60208310146120d757565b634e487b7160e01b600052602260045260246000fd5b91607f16916120cc565b908060209392818452848401376000828201840152601f01601f1916010190565b1561211f57565b60405162461bcd60e51b8152602060048201526016602482015275141c9bda9958dd08191bd95cc81b9bdd08195e1a5cdd60521b6044820152606490fd5b906000929180549161216e836120bd565b9182825260019384811690816000146121d05750600114612190575b50505050565b90919394506000526020928360002092846000945b8386106121bc57505050500101903880808061218a565b8054858701830152940193859082016121a5565b9294505050602093945060ff191683830152151560051b0101903880808061218a565b156121fa57565b60405162461bcd60e51b815260206004820152601d60248201527f416d6f756e74206d7573742062652067726561746572207468616e20300000006044820152606490fd5b9190820180921161033b5756fea2646970667358221220442cf408f689d70e97cc678966261cf24dcaccd71298e2ba978a9fec396587a264736f6c63430008140033","opcodes":"PUSH1 0x80 CALLVALUE PUSH2 0xCB JUMPI PUSH1 0x1F PUSH2 0x2369 CODESIZE DUP2 SWAP1 SUB SWAP2 DUP3 ADD PUSH1 0x1F NOT AND DUP4 ADD SWAP2 PUSH1 0x1 PUSH1 0x1 PUSH1 0x40 SHL SUB DUP4 GT DUP5 DUP5 LT OR PUSH2 0xD0 JUMPI DUP1 DUP5 SWAP3 PUSH1 0x20 SWAP5 PUSH1 0x40 MSTORE DUP4 CODECOPY DUP2 ADD SUB SLT PUSH2 0xCB JUMPI MLOAD PUSH1 0x1 PUSH1 0x1 PUSH1 0xA0 SHL SUB DUP2 AND SWAP1 DUP2 SWAP1 SUB PUSH2 0xCB JUMPI DUP1 ISZERO PUSH2 0x7A JUMPI PUSH1 0x0 DUP1 SLOAD PUSH1 0x1 PUSH1 0x1 PUSH1 0xA0 SHL SUB NOT AND SWAP2 SWAP1 SWAP2 OR SWAP1 SSTORE PUSH1 0x40 MLOAD PUSH2 0x2282 SWAP1 DUP2 PUSH2 0xE7 DUP3 CODECOPY RETURN JUMPDEST PUSH1 0x40 MLOAD PUSH3 0x461BCD PUSH1 0xE5 SHL DUP2 MSTORE PUSH1 0x20 PUSH1 0x4 DUP3 ADD MSTORE PUSH1 0x24 DUP1 DUP3 ADD MSTORE PUSH32 0x4175746820726567697374727920616464726573732063616E6E6F7420626520 PUSH1 0x44 DUP3 ADD MSTORE PUSH4 0x7A65726F PUSH1 0xE0 SHL PUSH1 0x64 DUP3 ADD MSTORE PUSH1 0x84 SWAP1 REVERT JUMPDEST PUSH1 0x0 DUP1 REVERT JUMPDEST PUSH4 0x4E487B71 PUSH1 0xE0 SHL PUSH1 0x0 MSTORE PUSH1 0x41 PUSH1 0x4 MSTORE PUSH1 0x24 PUSH1 0x0 REVERT INVALID PUSH1 0xC0 PUSH1 0x40 MSTORE PUSH1 0x4 CALLDATASIZE LT ISZERO PUSH2 0x12 JUMPI PUSH1 0x0 DUP1 REVERT JUMPDEST PUSH1 0x0 CALLDATALOAD PUSH1 0xE0 SHR DUP1 PUSH4 0x199DC3D4 EQ PUSH2 0x1334 JUMPI DUP1 PUSH4 0x36FBAD26 EQ PUSH2 0x1316 JUMPI DUP1 PUSH4 0x5873F998 EQ PUSH2 0x1186 JUMPI DUP1 PUSH4 0x629E025A EQ PUSH2 0x115D JUMPI DUP1 PUSH4 0x64E4B891 EQ PUSH2 0x676 JUMPI DUP1 PUSH4 0x7C66C78F EQ PUSH2 0x555 JUMPI DUP1 PUSH4 0xAFE32EC3 EQ PUSH2 0x425 JUMPI DUP1 PUSH4 0xB94AFA71 EQ PUSH2 0x3E7 JUMPI DUP1 PUSH4 0xD64B9186 EQ PUSH2 0x267 JUMPI PUSH4 0xF0F3F2C8 EQ PUSH2 0x8A JUMPI PUSH1 0x0 DUP1 REVERT JUMPDEST CALLVALUE PUSH2 0x262 JUMPI PUSH1 0x20 CALLDATASIZE PUSH1 0x3 NOT ADD SLT PUSH2 0x262 JUMPI PUSH1 0x4 CALLDATALOAD DUP1 ISZERO ISZERO DUP1 PUSH2 0x256 JUMPI JUMPDEST PUSH2 0xB0 SWAP1 PUSH2 0x2118 JUMP JUMPDEST PUSH1 0x0 MSTORE PUSH1 0x2 PUSH1 0x20 MSTORE PUSH1 0x40 PUSH1 0x0 KECCAK256 DUP1 SLOAD PUSH1 0x3 DUP3 ADD SLOAD SWAP2 PUSH1 0x4 DUP2 ADD SLOAD SWAP3 PUSH1 0xA DUP3 ADD SLOAD SWAP2 PUSH1 0xB DUP2 ADD SLOAD SWAP1 PUSH1 0xC DUP2 ADD SLOAD PUSH1 0xFF AND SWAP3 PUSH1 0x40 MLOAD SWAP7 DUP8 DUP1 PUSH1 0x1 DUP6 ADD SWAP1 PUSH2 0xF4 SWAP2 PUSH2 0x215D JUMP JUMPDEST SUB PUSH2 0xFF SWAP1 DUP10 PUSH2 0x1E33 JUMP JUMPDEST PUSH1 0x40 MLOAD SWAP2 DUP3 PUSH2 0x111 DUP2 PUSH1 0x2 DUP8 ADD PUSH2 0x215D JUMP JUMPDEST SUB PUSH2 0x11C SWAP1 DUP5 PUSH2 0x1E33 JUMP JUMPDEST PUSH1 0x40 MLOAD DUP1 PUSH2 0x12D DUP2 PUSH1 0x5 DUP9 ADD PUSH2 0x215D JUMP JUMPDEST SUB PUSH2 0x138 SWAP1 DUP3 PUSH2 0x1E33 JUMP JUMPDEST PUSH1 0x40 MLOAD SWAP2 DUP3 PUSH2 0x14A DUP2 PUSH1 0x6 DUP10 ADD PUSH2 0x215D JUMP JUMPDEST SUB PUSH2 0x155 SWAP1 DUP5 PUSH2 0x1E33 JUMP JUMPDEST PUSH1 0x40 MLOAD SWAP4 DUP5 PUSH2 0x167 DUP2 PUSH1 0x7 DUP11 ADD PUSH2 0x215D JUMP JUMPDEST SUB PUSH2 0x172 SWAP1 DUP7 PUSH2 0x1E33 JUMP JUMPDEST PUSH1 0x40 MLOAD SWAP6 DUP7 PUSH2 0x184 DUP2 PUSH1 0x8 DUP12 ADD PUSH2 0x215D JUMP JUMPDEST SUB PUSH2 0x18F SWAP1 DUP9 PUSH2 0x1E33 JUMP JUMPDEST PUSH1 0x40 MLOAD DUP1 PUSH1 0x9 DUP2 SWAP11 ADD SWAP1 PUSH2 0x1A2 SWAP2 PUSH2 0x215D JUMP JUMPDEST SUB PUSH2 0x1AD SWAP1 DUP10 PUSH2 0x1E33 JUMP JUMPDEST PUSH1 0x40 MLOAD SWAP13 DUP14 SWAP13 DUP14 MSTORE DUP13 PUSH2 0x1A0 PUSH1 0x20 DUP2 SWAP3 ADD MSTORE DUP14 ADD PUSH2 0x1CA SWAP2 PUSH2 0x1DF3 JUMP JUMPDEST DUP13 DUP2 SUB PUSH1 0x40 DUP15 ADD MSTORE PUSH2 0x1DB SWAP2 PUSH2 0x1DF3 JUMP JUMPDEST SWAP2 PUSH1 0x60 DUP13 ADD MSTORE PUSH1 0x80 DUP12 ADD MSTORE DUP10 DUP2 SUB PUSH1 0xA0 DUP12 ADD MSTORE PUSH2 0x1F7 SWAP2 PUSH2 0x1DF3 JUMP JUMPDEST DUP9 DUP2 SUB PUSH1 0xC0 DUP11 ADD MSTORE PUSH2 0x208 SWAP2 PUSH2 0x1DF3 JUMP JUMPDEST DUP8 DUP2 SUB PUSH1 0xE0 DUP10 ADD MSTORE PUSH2 0x219 SWAP2 PUSH2 0x1DF3 JUMP JUMPDEST DUP7 DUP2 SUB PUSH2 0x100 DUP9 ADD MSTORE PUSH2 0x22B SWAP2 PUSH2 0x1DF3 JUMP JUMPDEST DUP6 DUP2 SUB PUSH2 0x120 DUP8 ADD MSTORE PUSH2 0x23D SWAP2 PUSH2 0x1DF3 JUMP JUMPDEST SWAP3 PUSH2 0x140 DUP6 ADD MSTORE PUSH2 0x160 DUP5 ADD MSTORE ISZERO ISZERO PUSH2 0x180 DUP4 ADD MSTORE SUB SWAP1 RETURN JUMPDEST POP PUSH1 0x1 SLOAD DUP2 GT ISZERO PUSH2 0xA7 JUMP JUMPDEST PUSH1 0x0 DUP1 REVERT JUMPDEST CALLVALUE PUSH2 0x262 JUMPI PUSH2 0x275 CALLDATASIZE PUSH2 0x1DDD JUMP JUMPDEST PUSH1 0x0 SLOAD PUSH1 0x40 MLOAD PUSH4 0x935E01B PUSH1 0xE2 SHL DUP2 MSTORE CALLER PUSH1 0x4 DUP3 ADD MSTORE SWAP2 SWAP3 SWAP2 PUSH1 0x20 SWAP2 DUP3 SWAP1 DUP3 SWAP1 PUSH1 0x24 SWAP1 DUP3 SWAP1 PUSH1 0x1 PUSH1 0x1 PUSH1 0xA0 SHL SUB AND GAS STATICCALL DUP1 ISZERO PUSH2 0x3DB JUMPI PUSH2 0x2BD SWAP2 PUSH1 0x0 SWAP2 PUSH2 0x3AE JUMPI JUMPDEST POP PUSH2 0x1E6C JUMP JUMPDEST DUP2 ISZERO ISZERO DUP1 PUSH2 0x3A2 JUMPI JUMPDEST PUSH2 0x2CF SWAP1 PUSH2 0x2118 JUMP JUMPDEST PUSH2 0x2DA DUP4 ISZERO ISZERO PUSH2 0x21F3 JUMP JUMPDEST DUP2 PUSH1 0x0 MSTORE PUSH1 0x2 DUP2 MSTORE PUSH1 0x40 PUSH1 0x0 KECCAK256 SWAP1 PUSH1 0x4 DUP3 ADD SWAP2 DUP3 SLOAD SWAP3 DUP6 DUP5 LT PUSH2 0x351 JUMPI DUP6 DUP5 SUB SWAP4 DUP5 GT PUSH2 0x33B JUMPI DUP4 SWAP1 SSTORE PUSH1 0xB TIMESTAMP SWAP2 ADD SSTORE PUSH1 0x40 MLOAD SWAP4 DUP5 MSTORE DUP4 ADD MSTORE PUSH32 0xB68B353A76E3FBB110464DBFF4E3A6F24457F8D32C5D6495FA092BE4646A5139 PUSH1 0x40 CALLER SWAP4 LOG3 STOP JUMPDEST PUSH4 0x4E487B71 PUSH1 0xE0 SHL PUSH1 0x0 MSTORE PUSH1 0x11 PUSH1 0x4 MSTORE PUSH1 0x24 PUSH1 0x0 REVERT JUMPDEST PUSH1 0x40 MLOAD PUSH3 0x461BCD PUSH1 0xE5 SHL DUP2 MSTORE PUSH1 0x4 DUP2 ADD DUP5 SWAP1 MSTORE PUSH1 0x24 DUP1 DUP3 ADD MSTORE PUSH32 0x43616E6E6F7420646564756374206D6F7265207468616E207370656E74206275 PUSH1 0x44 DUP3 ADD MSTORE PUSH4 0x1919D95D PUSH1 0xE2 SHL PUSH1 0x64 DUP3 ADD MSTORE PUSH1 0x84 SWAP1 REVERT JUMPDEST POP PUSH1 0x1 SLOAD DUP3 GT ISZERO PUSH2 0x2C6 JUMP JUMPDEST PUSH2 0x3CE SWAP2 POP DUP4 RETURNDATASIZE DUP6 GT PUSH2 0x3D4 JUMPI JUMPDEST PUSH2 0x3C6 DUP2 DUP4 PUSH2 0x1E33 JUMP JUMPDEST DUP2 ADD SWAP1 PUSH2 0x1E54 JUMP JUMPDEST DUP6 PUSH2 0x2B7 JUMP JUMPDEST POP RETURNDATASIZE PUSH2 0x3BC JUMP JUMPDEST PUSH1 0x40 MLOAD RETURNDATASIZE PUSH1 0x0 DUP3 RETURNDATACOPY RETURNDATASIZE SWAP1 REVERT JUMPDEST CALLVALUE PUSH2 0x262 JUMPI PUSH1 0x20 CALLDATASIZE PUSH1 0x3 NOT ADD SLT PUSH2 0x262 JUMPI PUSH1 0x4 CALLDATALOAD PUSH1 0x1 PUSH1 0x1 PUSH1 0xA0 SHL SUB DUP2 AND SWAP1 DUP2 SWAP1 SUB PUSH2 0x262 JUMPI PUSH1 0x0 MSTORE PUSH1 0x3 PUSH1 0x20 MSTORE PUSH1 0x20 PUSH1 0x40 PUSH1 0x0 KECCAK256 SLOAD PUSH1 0x40 MLOAD SWAP1 DUP2 MSTORE RETURN JUMPDEST CALLVALUE PUSH2 0x262 JUMPI PUSH2 0x433 CALLDATASIZE PUSH2 0x1DDD JUMP JUMPDEST PUSH1 0x0 SLOAD PUSH1 0x40 MLOAD PUSH4 0x935E01B PUSH1 0xE2 SHL DUP2 MSTORE CALLER PUSH1 0x4 DUP3 ADD MSTORE SWAP2 SWAP3 SWAP2 PUSH1 0x20 SWAP2 DUP3 SWAP1 DUP3 SWAP1 PUSH1 0x24 SWAP1 DUP3 SWAP1 PUSH1 0x1 PUSH1 0x1 PUSH1 0xA0 SHL SUB AND GAS STATICCALL DUP1 ISZERO PUSH2 0x3DB JUMPI PUSH2 0x47A SWAP2 PUSH1 0x0 SWAP2 PUSH2 0x3AE JUMPI POP PUSH2 0x1E6C JUMP JUMPDEST DUP2 ISZERO ISZERO DUP1 PUSH2 0x549 JUMPI JUMPDEST PUSH2 0x48C SWAP1 PUSH2 0x2118 JUMP JUMPDEST PUSH2 0x497 DUP4 ISZERO ISZERO PUSH2 0x21F3 JUMP JUMPDEST DUP2 PUSH1 0x0 MSTORE PUSH1 0x2 DUP2 MSTORE PUSH1 0x40 PUSH1 0x0 KECCAK256 SWAP1 PUSH1 0x4 DUP3 ADD SWAP2 DUP3 SLOAD PUSH2 0x4B6 DUP7 DUP3 PUSH2 0x223F JUMP JUMPDEST PUSH1 0x3 DUP4 ADD SLOAD LT PUSH2 0x504 JUMPI DUP6 PUSH2 0x4CA SWAP2 PUSH2 0x223F JUMP JUMPDEST DUP1 SWAP4 SSTORE PUSH1 0xB TIMESTAMP SWAP2 ADD SSTORE PUSH1 0x40 MLOAD SWAP4 DUP5 MSTORE DUP4 ADD MSTORE PUSH32 0xEFDA33B734791DA8F3B329895A5E918347A467C7E63E75B3C1B118232CDD6445 PUSH1 0x40 CALLER SWAP4 LOG3 STOP JUMPDEST PUSH1 0x40 MLOAD PUSH3 0x461BCD PUSH1 0xE5 SHL DUP2 MSTORE PUSH1 0x4 DUP2 ADD DUP5 SWAP1 MSTORE PUSH1 0x1E PUSH1 0x24 DUP3 ADD MSTORE PUSH32 0x43616E6E6F742065786365656420616C6C6F6361746564206275646765740000 PUSH1 0x44 DUP3 ADD MSTORE PUSH1 0x64 SWAP1 REVERT JUMPDEST POP PUSH1 0x1 SLOAD DUP3 GT ISZERO PUSH2 0x483 JUMP JUMPDEST CALLVALUE PUSH2 0x262 JUMPI PUSH2 0x563 CALLDATASIZE PUSH2 0x1DDD JUMP JUMPDEST PUSH1 0x0 SLOAD PUSH1 0x40 MLOAD PUSH4 0x935E01B PUSH1 0xE2 SHL DUP2 MSTORE CALLER PUSH1 0x4 DUP3 ADD MSTORE SWAP2 SWAP3 SWAP2 SWAP1 PUSH1 0x20 SWAP1 DUP3 SWAP1 PUSH1 0x24 SWAP1 DUP3 SWAP1 PUSH1 0x1 PUSH1 0x1 PUSH1 0xA0 SHL SUB AND GAS STATICCALL DUP1 ISZERO PUSH2 0x3DB JUMPI PUSH2 0x5A9 SWAP2 PUSH1 0x0 SWAP2 PUSH2 0x658 JUMPI POP PUSH2 0x1E6C JUMP JUMPDEST DUP1 ISZERO ISZERO DUP1 PUSH2 0x64C JUMPI JUMPDEST PUSH2 0x5BB SWAP1 PUSH2 0x2118 JUMP JUMPDEST PUSH2 0x5C6 DUP3 ISZERO ISZERO PUSH2 0x1F40 JUMP JUMPDEST PUSH1 0x0 MSTORE PUSH1 0x2 PUSH1 0x20 MSTORE PUSH1 0x40 PUSH1 0x0 KECCAK256 SWAP1 PUSH1 0x4 DUP3 ADD SLOAD DUP2 LT PUSH2 0x5ED JUMPI PUSH1 0x3 DUP3 ADD SSTORE TIMESTAMP PUSH1 0xB SWAP1 SWAP2 ADD SSTORE STOP JUMPDEST PUSH1 0x40 MLOAD PUSH3 0x461BCD PUSH1 0xE5 SHL DUP2 MSTORE PUSH1 0x20 PUSH1 0x4 DUP3 ADD MSTORE PUSH1 0x31 PUSH1 0x24 DUP3 ADD MSTORE PUSH32 0x416C6C6F6361746564206275646765742063616E6E6F74206265206C65737320 PUSH1 0x44 DUP3 ADD MSTORE PUSH17 0x1D1A185B881CDC195B9D08189D5919D95D PUSH1 0x7A SHL PUSH1 0x64 DUP3 ADD MSTORE PUSH1 0x84 SWAP1 REVERT JUMPDEST POP PUSH1 0x1 SLOAD DUP2 GT ISZERO PUSH2 0x5B2 JUMP JUMPDEST PUSH2 0x670 SWAP2 POP PUSH1 0x20 RETURNDATASIZE DUP2 GT PUSH2 0x3D4 JUMPI PUSH2 0x3C6 DUP2 DUP4 PUSH2 0x1E33 JUMP JUMPDEST DUP5 PUSH2 0x2B7 JUMP JUMPDEST CALLVALUE PUSH2 0x262 JUMPI PUSH2 0x100 CALLDATASIZE PUSH1 0x3 NOT ADD SLT PUSH2 0x262 JUMPI PUSH1 0x24 CALLDATALOAD PUSH1 0x1 PUSH1 0x1 PUSH1 0x40 SHL SUB DUP2 GT PUSH2 0x262 JUMPI PUSH2 0x6A7 SWAP1 CALLDATASIZE SWAP1 PUSH1 0x4 ADD PUSH2 0x1DB0 JUMP JUMPDEST PUSH1 0x44 CALLDATALOAD PUSH1 0x1 PUSH1 0x1 PUSH1 0x40 SHL SUB DUP2 GT PUSH2 0x262 JUMPI PUSH2 0x6C6 SWAP1 CALLDATASIZE SWAP1 PUSH1 0x4 ADD PUSH2 0x1DB0 JUMP JUMPDEST SWAP2 PUSH1 0x64 CALLDATALOAD PUSH1 0x1 PUSH1 0x1 PUSH1 0x40 SHL SUB DUP2 GT PUSH2 0x262 JUMPI PUSH2 0x6E6 SWAP1 CALLDATASIZE SWAP1 PUSH1 0x4 ADD PUSH2 0x1DB0 JUMP JUMPDEST SWAP3 SWAP1 SWAP5 PUSH1 0x84 CALLDATALOAD PUSH1 0x1 PUSH1 0x1 PUSH1 0x40 SHL SUB DUP2 GT PUSH2 0x262 JUMPI PUSH2 0x708 SWAP1 CALLDATASIZE SWAP1 PUSH1 0x4 ADD PUSH2 0x1DB0 JUMP JUMPDEST SWAP1 PUSH1 0xA4 CALLDATALOAD PUSH1 0x1 PUSH1 0x1 PUSH1 0x40 SHL SUB DUP2 GT PUSH2 0x262 JUMPI PUSH2 0x728 SWAP1 CALLDATASIZE SWAP1 PUSH1 0x4 ADD PUSH2 0x1DB0 JUMP JUMPDEST SWAP1 PUSH1 0xC4 CALLDATALOAD PUSH1 0x1 PUSH1 0x1 PUSH1 0x40 SHL SUB DUP2 GT PUSH2 0x262 JUMPI PUSH2 0x748 SWAP1 CALLDATASIZE SWAP1 PUSH1 0x4 ADD PUSH2 0x1DB0 JUMP JUMPDEST SWAP5 SWAP1 SWAP4 PUSH1 0x1 PUSH1 0x1 PUSH1 0x40 SHL SUB PUSH1 0xE4 CALLDATALOAD GT PUSH2 0x262 JUMPI PUSH2 0x76A CALLDATASIZE PUSH1 0xE4 CALLDATALOAD PUSH1 0x4 ADD PUSH2 0x1DB0 JUMP JUMPDEST PUSH1 0x0 SLOAD PUSH1 0x40 MLOAD PUSH4 0x935E01B PUSH1 0xE2 SHL DUP2 MSTORE CALLER PUSH1 0x4 DUP3 ADD MSTORE SWAP3 SWAP15 SWAP2 SWAP13 SWAP3 SWAP1 PUSH1 0x20 SWAP1 DUP3 SWAP1 PUSH1 0x24 SWAP1 DUP3 SWAP1 PUSH1 0x1 PUSH1 0x1 PUSH1 0xA0 SHL SUB AND GAS STATICCALL DUP1 ISZERO PUSH2 0x3DB JUMPI PUSH2 0x7B2 SWAP2 PUSH1 0x0 SWAP2 PUSH2 0x113E JUMPI POP PUSH2 0x1E6C JUMP JUMPDEST PUSH1 0x4 CALLDATALOAD ISZERO ISZERO DUP1 PUSH2 0x1130 JUMPI JUMPDEST PUSH2 0x7C6 SWAP1 PUSH2 0x2118 JUMP JUMPDEST PUSH2 0x7D1 DUP12 ISZERO ISZERO PUSH2 0x1EA8 JUMP JUMPDEST PUSH2 0x7DC DUP14 ISZERO ISZERO PUSH2 0x1EF4 JUMP JUMPDEST PUSH2 0x7E7 DUP3 ISZERO ISZERO PUSH2 0x1F9C JUMP JUMPDEST PUSH2 0x7F2 DUP5 ISZERO ISZERO PUSH2 0x1FE0 JUMP JUMPDEST PUSH2 0x7FD DUP7 ISZERO ISZERO PUSH2 0x202C JUMP JUMPDEST PUSH2 0x808 DUP13 ISZERO ISZERO PUSH2 0x2078 JUMP JUMPDEST PUSH1 0x4 CALLDATALOAD PUSH1 0x0 MSTORE PUSH1 0x2 PUSH1 0x20 MSTORE PUSH1 0x40 PUSH1 0x0 KECCAK256 SWAP13 DUP14 SWAP11 PUSH1 0x40 MLOAD SWAP15 DUP16 DUP1 PUSH1 0x9 DUP2 SWAP4 ADD SWAP1 PUSH2 0x830 SWAP2 PUSH2 0x215D JUMP JUMPDEST SUB PUSH2 0x83A SWAP2 PUSH2 0x1E33 JUMP JUMPDEST PUSH1 0x1 PUSH1 0x1 PUSH1 0x40 SHL SUB DUP14 GT PUSH2 0xC47 JUMPI PUSH2 0x855 PUSH1 0x1 DUP14 ADD SLOAD PUSH2 0x20BD JUMP JUMPDEST PUSH1 0x1F DUP2 GT PUSH2 0x10E7 JUMPI JUMPDEST POP DUP13 DUP1 PUSH1 0x0 DUP15 PUSH1 0x1 PUSH1 0x1F DUP5 GT EQ PUSH2 0x1073 JUMPI POP PUSH1 0x0 SWAP2 PUSH2 0x1068 JUMPI JUMPDEST POP DUP2 PUSH1 0x1 SHL SWAP2 PUSH1 0x0 NOT SWAP1 PUSH1 0x3 SHL SHR NOT AND OR PUSH1 0x1 DUP14 ADD SSTORE JUMPDEST PUSH1 0x1 PUSH1 0x1 PUSH1 0x40 SHL SUB DUP3 GT PUSH2 0xC47 JUMPI DUP2 SWAP1 PUSH2 0x8AC PUSH1 0x2 DUP15 ADD SLOAD PUSH2 0x20BD JUMP JUMPDEST PUSH1 0x1F DUP2 GT PUSH2 0x1015 JUMPI JUMPDEST POP PUSH1 0x0 SWAP1 PUSH1 0x1F DUP4 GT PUSH1 0x1 EQ PUSH2 0xFA4 JUMPI PUSH1 0x0 SWAP3 PUSH2 0xF99 JUMPI JUMPDEST POP POP DUP2 PUSH1 0x1 SHL SWAP2 PUSH1 0x0 NOT SWAP1 PUSH1 0x3 SHL SHR NOT AND OR PUSH1 0x2 DUP12 ADD SSTORE JUMPDEST PUSH1 0x1 PUSH1 0x1 PUSH1 0x40 SHL SUB DUP3 GT PUSH2 0xC47 JUMPI DUP2 SWAP1 PUSH2 0x901 PUSH1 0x5 DUP13 ADD SLOAD PUSH2 0x20BD JUMP JUMPDEST PUSH1 0x1F DUP2 GT PUSH2 0xF46 JUMPI JUMPDEST POP PUSH1 0x0 SWAP1 PUSH1 0x1F DUP4 GT PUSH1 0x1 EQ PUSH2 0xED5 JUMPI PUSH1 0x0 SWAP3 PUSH2 0xECA JUMPI JUMPDEST POP POP DUP2 PUSH1 0x1 SHL SWAP2 PUSH1 0x0 NOT SWAP1 PUSH1 0x3 SHL SHR NOT AND OR PUSH1 0x5 DUP10 ADD SSTORE JUMPDEST PUSH1 0x1 PUSH1 0x1 PUSH1 0x40 SHL SUB DUP3 GT PUSH2 0xC47 JUMPI DUP2 SWAP1 PUSH2 0x956 PUSH1 0x6 DUP11 ADD SLOAD PUSH2 0x20BD JUMP JUMPDEST PUSH1 0x1F DUP2 GT PUSH2 0xE77 JUMPI JUMPDEST POP PUSH1 0x0 SWAP1 PUSH1 0x1F DUP4 GT PUSH1 0x1 EQ PUSH2 0xE06 JUMPI PUSH1 0x0 SWAP3 PUSH2 0xDFB JUMPI JUMPDEST POP POP DUP2 PUSH1 0x1 SHL SWAP2 PUSH1 0x0 NOT SWAP1 PUSH1 0x3 SHL SHR NOT AND OR PUSH1 0x6 DUP8 ADD SSTORE JUMPDEST PUSH1 0x1 PUSH1 0x1 PUSH1 0x40 SHL SUB DUP3 GT PUSH2 0xC47 JUMPI DUP2 SWAP1 PUSH2 0x9AB PUSH1 0x7 DUP9 ADD SLOAD PUSH2 0x20BD JUMP JUMPDEST PUSH1 0x1F DUP2 GT PUSH2 0xDA8 JUMPI JUMPDEST POP PUSH1 0x0 SWAP1 PUSH1 0x1F DUP4 GT PUSH1 0x1 EQ PUSH2 0xD37 JUMPI PUSH1 0x0 SWAP3 PUSH2 0xD2C JUMPI JUMPDEST POP POP DUP2 PUSH1 0x1 SHL SWAP2 PUSH1 0x0 NOT SWAP1 PUSH1 0x3 SHL SHR NOT AND OR PUSH1 0x7 DUP6 ADD SSTORE JUMPDEST PUSH1 0x1 PUSH1 0x1 PUSH1 0x40 SHL SUB DUP3 GT PUSH2 0xC47 JUMPI DUP2 SWAP1 PUSH2 0xA00 PUSH1 0x8 DUP7 ADD SLOAD PUSH2 0x20BD JUMP JUMPDEST PUSH1 0x1F DUP2 GT PUSH2 0xCD9 JUMPI JUMPDEST POP PUSH1 0x0 SWAP1 PUSH1 0x1F DUP4 GT PUSH1 0x1 EQ PUSH2 0xC68 JUMPI PUSH1 0x0 SWAP3 PUSH2 0xC5D JUMPI JUMPDEST POP POP DUP2 PUSH1 0x1 SHL SWAP2 PUSH1 0x0 NOT SWAP1 PUSH1 0x3 SHL SHR NOT AND OR PUSH1 0x8 DUP4 ADD SSTORE JUMPDEST PUSH1 0x1 PUSH1 0x1 PUSH1 0x40 SHL SUB DUP5 GT PUSH2 0xC47 JUMPI PUSH2 0xA53 PUSH1 0x9 DUP4 ADD SLOAD PUSH2 0x20BD JUMP JUMPDEST PUSH1 0x1F DUP2 GT PUSH2 0xBFC JUMPI JUMPDEST POP PUSH1 0x0 SWAP2 DUP5 PUSH1 0x1F DUP2 GT PUSH1 0x1 EQ PUSH2 0xB89 JUMPI PUSH2 0xAA7 SWAP4 PUSH1 0x0 SWAP2 PUSH2 0xB7E JUMPI JUMPDEST POP DUP6 PUSH1 0x1 SHL SWAP1 PUSH1 0x0 NOT DUP8 PUSH1 0x3 SHL SHR NOT AND OR PUSH1 0x9 DUP3 ADD SSTORE JUMPDEST PUSH1 0xB TIMESTAMP SWAP2 ADD SSTORE PUSH1 0x40 MLOAD SWAP3 PUSH1 0x40 DUP5 MSTORE PUSH1 0x40 DUP5 ADD SWAP2 PUSH2 0x20F7 JUMP JUMPDEST DUP2 DUP2 SUB PUSH1 0x20 DUP4 ADD MSTORE PUSH32 0xD51FC012DF72572EFB7D54735A8FA2CAFB1DE9CCF25C8859F1439AA41C106C5F CALLER SWAP3 DUP1 PUSH2 0xAE1 PUSH1 0x4 CALLDATALOAD SWAP5 DUP8 DUP11 PUSH2 0x20F7 JUMP JUMPDEST SUB SWAP1 LOG3 DUP2 MLOAD PUSH1 0x20 DUP4 ADD KECCAK256 PUSH1 0x40 MLOAD PUSH2 0xB02 PUSH1 0x20 PUSH1 0x1F NOT PUSH1 0x1F DUP7 ADD AND ADD DUP3 PUSH2 0x1E33 JUMP JUMPDEST DUP3 DUP2 MSTORE PUSH1 0x20 DUP2 ADD SWAP1 CALLDATASIZE DUP5 DUP8 ADD GT PUSH2 0x262 JUMPI DUP4 DUP7 DUP4 CALLDATACOPY PUSH1 0x0 PUSH1 0x20 DUP6 DUP4 ADD ADD MSTORE MLOAD SWAP1 KECCAK256 SUB PUSH2 0xB2A JUMPI STOP JUMPDEST PUSH32 0x71A9B721769631E767153CEB07019B3DEC7EEAC54A333FCEFF2AC6BB50F2D25B SWAP2 PUSH2 0xB79 PUSH2 0xB67 SWAP3 PUSH1 0x40 MLOAD SWAP4 DUP5 SWAP4 PUSH1 0x40 DUP6 MSTORE PUSH1 0x40 DUP6 ADD SWAP1 PUSH2 0x1DF3 JUMP JUMPDEST SWAP1 DUP4 DUP3 SUB PUSH1 0x20 DUP6 ADD MSTORE PUSH1 0x4 CALLDATALOAD SWAP7 PUSH2 0x20F7 JUMP JUMPDEST SUB SWAP1 LOG2 STOP JUMPDEST SWAP1 POP DUP8 ADD CALLDATALOAD DUP9 PUSH2 0xA78 JUMP JUMPDEST POP PUSH1 0x9 DUP2 ADD PUSH1 0x0 SWAP1 DUP2 MSTORE PUSH1 0x20 DUP2 KECCAK256 SWAP1 SWAP4 DUP7 PUSH1 0x1F NOT DUP2 AND JUMPDEST DUP1 DUP8 LT PUSH2 0xBDE JUMPI PUSH2 0xAA7 SWAP7 POP LT PUSH2 0xBC4 JUMPI JUMPDEST POP POP PUSH1 0x1 DUP6 DUP2 SHL ADD PUSH1 0x9 DUP3 ADD SSTORE PUSH2 0xA8F JUMP JUMPDEST DUP9 ADD CALLDATALOAD PUSH1 0x0 NOT PUSH1 0x3 DUP9 SWAP1 SHL PUSH1 0xF8 AND SHR NOT AND SWAP1 SSTORE DUP8 DUP1 PUSH2 0xBB2 JUMP JUMPDEST DUP11 DUP4 ADD CALLDATALOAD DUP5 SSTORE PUSH1 0x20 SWAP7 DUP8 ADD SWAP7 PUSH1 0x1 SWAP1 SWAP5 ADD SWAP4 SWAP1 SWAP3 ADD SWAP2 DUP9 SWAP2 POP PUSH2 0xBA0 JUMP JUMPDEST PUSH1 0x9 DUP4 ADD PUSH1 0x0 MSTORE PUSH1 0x20 PUSH1 0x0 KECCAK256 PUSH1 0x1F DUP7 ADD PUSH1 0x5 SHR DUP2 ADD SWAP2 PUSH1 0x20 DUP8 LT PUSH2 0xC3D JUMPI JUMPDEST PUSH1 0x1F ADD PUSH1 0x5 SHR ADD SWAP1 JUMPDEST DUP2 DUP2 LT PUSH2 0xC31 JUMPI POP PUSH2 0xA5C JUMP JUMPDEST PUSH1 0x0 DUP2 SSTORE PUSH1 0x1 ADD PUSH2 0xC24 JUMP JUMPDEST SWAP1 SWAP2 POP DUP2 SWAP1 PUSH2 0xC1B JUMP JUMPDEST PUSH4 0x4E487B71 PUSH1 0xE0 SHL PUSH1 0x0 MSTORE PUSH1 0x41 PUSH1 0x4 MSTORE PUSH1 0x24 PUSH1 0x0 REVERT JUMPDEST ADD CALLDATALOAD SWAP1 POP DUP9 DUP1 PUSH2 0xA20 JUMP JUMPDEST SWAP1 SWAP3 POP PUSH1 0x8 DUP6 ADD PUSH1 0x0 MSTORE PUSH1 0x20 PUSH1 0x0 KECCAK256 SWAP1 PUSH1 0x0 SWAP4 JUMPDEST PUSH1 0x1F NOT DUP5 AND DUP6 LT PUSH2 0xCC1 JUMPI PUSH1 0x1 SWAP5 POP DUP4 PUSH1 0x1F NOT DUP2 AND LT PUSH2 0xCA7 JUMPI JUMPDEST POP POP POP DUP2 SHL ADD PUSH1 0x8 DUP4 ADD SSTORE PUSH2 0xA38 JUMP JUMPDEST ADD CALLDATALOAD PUSH1 0x0 NOT PUSH1 0x3 DUP5 SWAP1 SHL PUSH1 0xF8 AND SHR NOT AND SWAP1 SSTORE DUP9 DUP1 DUP1 PUSH2 0xC97 JUMP JUMPDEST DUP2 DUP2 ADD CALLDATALOAD DUP4 SSTORE PUSH1 0x20 SWAP5 DUP6 ADD SWAP5 PUSH1 0x1 SWAP1 SWAP4 ADD SWAP3 ADD PUSH2 0xC7C JUMP JUMPDEST SWAP1 SWAP2 POP PUSH1 0x8 DUP6 ADD PUSH1 0x0 MSTORE PUSH1 0x20 PUSH1 0x0 KECCAK256 PUSH1 0x1F DUP5 ADD PUSH1 0x5 SHR DUP2 ADD PUSH1 0x20 DUP6 LT PUSH2 0xD25 JUMPI JUMPDEST SWAP1 DUP5 SWAP4 SWAP3 SWAP2 JUMPDEST PUSH1 0x1F DUP4 ADD PUSH1 0x5 SHR DUP3 ADD DUP2 LT PUSH2 0xD16 JUMPI POP POP PUSH2 0xA09 JUMP JUMPDEST PUSH1 0x0 DUP2 SSTORE DUP6 SWAP5 POP PUSH1 0x1 ADD PUSH2 0xD00 JUMP JUMPDEST POP DUP1 PUSH2 0xCFA JUMP JUMPDEST ADD CALLDATALOAD SWAP1 POP DUP11 DUP1 PUSH2 0x9CB JUMP JUMPDEST SWAP1 SWAP3 POP PUSH1 0x7 DUP8 ADD PUSH1 0x0 MSTORE PUSH1 0x20 PUSH1 0x0 KECCAK256 SWAP1 PUSH1 0x0 SWAP4 JUMPDEST PUSH1 0x1F NOT DUP5 AND DUP6 LT PUSH2 0xD90 JUMPI PUSH1 0x1 SWAP5 POP DUP4 PUSH1 0x1F NOT DUP2 AND LT PUSH2 0xD76 JUMPI JUMPDEST POP POP POP DUP2 SHL ADD PUSH1 0x7 DUP6 ADD SSTORE PUSH2 0x9E3 JUMP JUMPDEST ADD CALLDATALOAD PUSH1 0x0 NOT PUSH1 0x3 DUP5 SWAP1 SHL PUSH1 0xF8 AND SHR NOT AND SWAP1 SSTORE DUP11 DUP1 DUP1 PUSH2 0xD66 JUMP JUMPDEST DUP2 DUP2 ADD CALLDATALOAD DUP4 SSTORE PUSH1 0x20 SWAP5 DUP6 ADD SWAP5 PUSH1 0x1 SWAP1 SWAP4 ADD SWAP3 ADD PUSH2 0xD4B JUMP JUMPDEST SWAP1 SWAP2 POP PUSH1 0x7 DUP8 ADD PUSH1 0x0 MSTORE PUSH1 0x20 PUSH1 0x0 KECCAK256 PUSH1 0x1F DUP5 ADD PUSH1 0x5 SHR DUP2 ADD PUSH1 0x20 DUP6 LT PUSH2 0xDF4 JUMPI JUMPDEST SWAP1 DUP5 SWAP4 SWAP3 SWAP2 JUMPDEST PUSH1 0x1F DUP4 ADD PUSH1 0x5 SHR DUP3 ADD DUP2 LT PUSH2 0xDE5 JUMPI POP POP PUSH2 0x9B4 JUMP JUMPDEST PUSH1 0x0 DUP2 SSTORE DUP6 SWAP5 POP PUSH1 0x1 ADD PUSH2 0xDCF JUMP JUMPDEST POP DUP1 PUSH2 0xDC9 JUMP JUMPDEST ADD CALLDATALOAD SWAP1 POP DUP13 DUP1 PUSH2 0x976 JUMP JUMPDEST SWAP1 SWAP3 POP PUSH1 0x6 DUP10 ADD PUSH1 0x0 MSTORE PUSH1 0x20 PUSH1 0x0 KECCAK256 SWAP1 PUSH1 0x0 SWAP4 JUMPDEST PUSH1 0x1F NOT DUP5 AND DUP6 LT PUSH2 0xE5F JUMPI PUSH1 0x1 SWAP5 POP DUP4 PUSH1 0x1F NOT DUP2 AND LT PUSH2 0xE45 JUMPI JUMPDEST POP POP POP DUP2 SHL ADD PUSH1 0x6 DUP8 ADD SSTORE PUSH2 0x98E JUMP JUMPDEST ADD CALLDATALOAD PUSH1 0x0 NOT PUSH1 0x3 DUP5 SWAP1 SHL PUSH1 0xF8 AND SHR NOT AND SWAP1 SSTORE DUP13 DUP1 DUP1 PUSH2 0xE35 JUMP JUMPDEST DUP2 DUP2 ADD CALLDATALOAD DUP4 SSTORE PUSH1 0x20 SWAP5 DUP6 ADD SWAP5 PUSH1 0x1 SWAP1 SWAP4 ADD SWAP3 ADD PUSH2 0xE1A JUMP JUMPDEST SWAP1 SWAP2 POP PUSH1 0x6 DUP10 ADD PUSH1 0x0 MSTORE PUSH1 0x20 PUSH1 0x0 KECCAK256 PUSH1 0x1F DUP5 ADD PUSH1 0x5 SHR DUP2 ADD PUSH1 0x20 DUP6 LT PUSH2 0xEC3 JUMPI JUMPDEST SWAP1 DUP5 SWAP4 SWAP3 SWAP2 JUMPDEST PUSH1 0x1F DUP4 ADD PUSH1 0x5 SHR DUP3 ADD DUP2 LT PUSH2 0xEB4 JUMPI POP POP PUSH2 0x95F JUMP JUMPDEST PUSH1 0x0 DUP2 SSTORE DUP6 SWAP5 POP PUSH1 0x1 ADD PUSH2 0xE9E JUMP JUMPDEST POP DUP1 PUSH2 0xE98 JUMP JUMPDEST ADD CALLDATALOAD SWAP1 POP DUP15 DUP1 PUSH2 0x921 JUMP JUMPDEST SWAP1 SWAP3 POP PUSH1 0x5 DUP12 ADD PUSH1 0x0 MSTORE PUSH1 0x20 PUSH1 0x0 KECCAK256 SWAP1 PUSH1 0x0 SWAP4 JUMPDEST PUSH1 0x1F NOT DUP5 AND DUP6 LT PUSH2 0xF2E JUMPI PUSH1 0x1 SWAP5 POP DUP4 PUSH1 0x1F NOT DUP2 AND LT PUSH2 0xF14 JUMPI JUMPDEST POP POP POP DUP2 SHL ADD PUSH1 0x5 DUP10 ADD SSTORE PUSH2 0x939 JUMP JUMPDEST ADD CALLDATALOAD PUSH1 0x0 NOT PUSH1 0x3 DUP5 SWAP1 SHL PUSH1 0xF8 AND SHR NOT AND SWAP1 SSTORE DUP15 DUP1 DUP1 PUSH2 0xF04 JUMP JUMPDEST DUP2 DUP2 ADD CALLDATALOAD DUP4 SSTORE PUSH1 0x20 SWAP5 DUP6 ADD SWAP5 PUSH1 0x1 SWAP1 SWAP4 ADD SWAP3 ADD PUSH2 0xEE9 JUMP JUMPDEST SWAP1 SWAP2 POP PUSH1 0x5 DUP12 ADD PUSH1 0x0 MSTORE PUSH1 0x20 PUSH1 0x0 KECCAK256 PUSH1 0x1F DUP5 ADD PUSH1 0x5 SHR DUP2 ADD PUSH1 0x20 DUP6 LT PUSH2 0xF92 JUMPI JUMPDEST SWAP1 DUP5 SWAP4 SWAP3 SWAP2 JUMPDEST PUSH1 0x1F DUP4 ADD PUSH1 0x5 SHR DUP3 ADD DUP2 LT PUSH2 0xF83 JUMPI POP POP PUSH2 0x90A JUMP JUMPDEST PUSH1 0x0 DUP2 SSTORE DUP6 SWAP5 POP PUSH1 0x1 ADD PUSH2 0xF6D JUMP JUMPDEST POP DUP1 PUSH2 0xF67 JUMP JUMPDEST ADD CALLDATALOAD SWAP1 POP CODESIZE DUP1 PUSH2 0x8CC JUMP JUMPDEST SWAP1 SWAP3 POP PUSH1 0x2 DUP14 ADD PUSH1 0x0 MSTORE PUSH1 0x20 PUSH1 0x0 KECCAK256 SWAP1 PUSH1 0x0 SWAP4 JUMPDEST PUSH1 0x1F NOT DUP5 AND DUP6 LT PUSH2 0xFFD JUMPI PUSH1 0x1 SWAP5 POP DUP4 PUSH1 0x1F NOT DUP2 AND LT PUSH2 0xFE3 JUMPI JUMPDEST POP POP POP DUP2 SHL ADD PUSH1 0x2 DUP12 ADD SSTORE PUSH2 0x8E4 JUMP JUMPDEST ADD CALLDATALOAD PUSH1 0x0 NOT PUSH1 0x3 DUP5 SWAP1 SHL PUSH1 0xF8 AND SHR NOT AND SWAP1 SSTORE CODESIZE DUP1 DUP1 PUSH2 0xFD3 JUMP JUMPDEST DUP2 DUP2 ADD CALLDATALOAD DUP4 SSTORE PUSH1 0x20 SWAP5 DUP6 ADD SWAP5 PUSH1 0x1 SWAP1 SWAP4 ADD SWAP3 ADD PUSH2 0xFB8 JUMP JUMPDEST SWAP1 SWAP2 POP PUSH1 0x2 DUP14 ADD PUSH1 0x0 MSTORE PUSH1 0x20 PUSH1 0x0 KECCAK256 PUSH1 0x1F DUP5 ADD PUSH1 0x5 SHR DUP2 ADD PUSH1 0x20 DUP6 LT PUSH2 0x1061 JUMPI JUMPDEST SWAP1 DUP5 SWAP4 SWAP3 SWAP2 JUMPDEST PUSH1 0x1F DUP4 ADD PUSH1 0x5 SHR DUP3 ADD DUP2 LT PUSH2 0x1052 JUMPI POP POP PUSH2 0x8B5 JUMP JUMPDEST PUSH1 0x0 DUP2 SSTORE DUP6 SWAP5 POP PUSH1 0x1 ADD PUSH2 0x103C JUMP JUMPDEST POP DUP1 PUSH2 0x1036 JUMP JUMPDEST SWAP1 POP DUP13 ADD CALLDATALOAD CODESIZE PUSH2 0x878 JUMP JUMPDEST PUSH1 0x1 SWAP2 SWAP3 POP ADD PUSH1 0x0 MSTORE PUSH1 0x20 PUSH1 0x0 KECCAK256 SWAP2 DUP14 PUSH1 0x0 SWAP1 JUMPDEST PUSH1 0x1F NOT DUP4 AND DUP3 LT PUSH2 0x10CE JUMPI POP POP DUP1 PUSH1 0x1F NOT DUP2 AND LT PUSH2 0x10B3 JUMPI JUMPDEST SWAP1 POP PUSH1 0x1 DUP1 SWAP3 POP SHL ADD PUSH1 0x1 DUP14 ADD SSTORE PUSH2 0x88F JUMP JUMPDEST PUSH1 0xF8 PUSH1 0x0 NOT SWAP2 PUSH1 0x3 SHL AND SHR NOT SWAP1 DUP14 ADD CALLDATALOAD AND SWAP1 SSTORE CODESIZE DUP1 DUP15 PUSH2 0x10A0 JUMP JUMPDEST PUSH1 0x1 DUP5 SWAP6 PUSH1 0x20 SWAP4 SWAP6 DUP5 SWAP4 ADD CALLDATALOAD DUP2 SSTORE ADD SWAP5 ADD SWAP3 ADD DUP15 PUSH2 0x1087 JUMP JUMPDEST PUSH1 0x1 DUP14 ADD PUSH1 0x0 MSTORE DUP14 PUSH1 0x20 PUSH1 0x0 KECCAK256 SWAP1 PUSH1 0x20 PUSH1 0x1F DUP3 ADD PUSH1 0x5 SHR DUP4 ADD SWAP2 LT PUSH2 0x1129 JUMPI JUMPDEST PUSH1 0x1F DUP4 ADD PUSH1 0x5 SHR DUP3 ADD DUP2 LT PUSH2 0x111D JUMPI POP POP PUSH2 0x85E JUMP JUMPDEST PUSH1 0x0 DUP2 SSTORE PUSH1 0x1 ADD PUSH2 0x1107 JUMP JUMPDEST POP DUP1 PUSH2 0x1107 JUMP JUMPDEST POP PUSH1 0x1 SLOAD PUSH1 0x4 CALLDATALOAD GT ISZERO PUSH2 0x7BD JUMP JUMPDEST PUSH2 0x1157 SWAP2 POP PUSH1 0x20 RETURNDATASIZE PUSH1 0x20 GT PUSH2 0x3D4 JUMPI PUSH2 0x3C6 DUP2 DUP4 PUSH2 0x1E33 JUMP JUMPDEST CODESIZE PUSH2 0x2B7 JUMP JUMPDEST CALLVALUE PUSH2 0x262 JUMPI PUSH1 0x0 CALLDATASIZE PUSH1 0x3 NOT ADD SLT PUSH2 0x262 JUMPI PUSH1 0x0 SLOAD PUSH1 0x40 MLOAD PUSH1 0x1 PUSH1 0x1 PUSH1 0xA0 SHL SUB SWAP1 SWAP2 AND DUP2 MSTORE PUSH1 0x20 SWAP1 RETURN JUMPDEST CALLVALUE PUSH2 0x262 JUMPI PUSH1 0x20 DUP1 PUSH1 0x3 NOT CALLDATASIZE ADD SLT PUSH2 0x262 JUMPI PUSH1 0x4 CALLDATALOAD PUSH1 0x24 DUP3 PUSH1 0x1 DUP1 PUSH1 0xA0 SHL SUB PUSH1 0x0 SLOAD AND PUSH1 0x40 MLOAD SWAP3 DUP4 DUP1 SWAP3 PUSH4 0x935E01B PUSH1 0xE2 SHL DUP3 MSTORE CALLER PUSH1 0x4 DUP4 ADD MSTORE GAS STATICCALL DUP1 ISZERO PUSH2 0x3DB JUMPI PUSH2 0x11D9 SWAP2 PUSH1 0x0 SWAP2 PUSH2 0x12FF JUMPI POP PUSH2 0x1E6C JUMP JUMPDEST DUP1 ISZERO ISZERO DUP1 PUSH2 0x12F3 JUMPI JUMPDEST PUSH2 0x11EB SWAP1 PUSH2 0x2118 JUMP JUMPDEST DUP1 PUSH1 0x0 MSTORE PUSH1 0x2 DUP3 MSTORE PUSH1 0x40 PUSH1 0x0 KECCAK256 DUP2 DUP2 SLOAD SUB PUSH2 0x12B8 JUMPI PUSH1 0xC DUP2 ADD DUP1 SLOAD PUSH1 0xFF DUP2 AND PUSH2 0x1273 JUMPI SWAP4 PUSH1 0x40 SWAP2 PUSH1 0x1 PUSH32 0x71A9B721769631E767153CEB07019B3DEC7EEAC54A333FCEFF2AC6BB50F2D25B SWAP6 SWAP7 PUSH1 0xFF NOT AND OR SWAP1 SSTORE PUSH7 0x14915353D59151 PUSH1 0xCA SHL PUSH2 0x125E DUP4 MLOAD SWAP5 DUP5 DUP7 MSTORE PUSH1 0x9 DUP6 DUP8 ADD SWAP2 ADD PUSH2 0x215D JUMP JUMPDEST SWAP2 DUP5 DUP4 SUB SWAP3 DUP4 DUP3 DUP8 ADD MSTORE PUSH1 0x7 DUP2 MSTORE ADD MSTORE ADD SWAP1 LOG2 STOP JUMPDEST PUSH1 0x40 MLOAD PUSH3 0x461BCD PUSH1 0xE5 SHL DUP2 MSTORE PUSH1 0x4 DUP2 ADD DUP7 SWAP1 MSTORE PUSH1 0x17 PUSH1 0x24 DUP3 ADD MSTORE PUSH32 0x50726F6A65637420616C72656164792072656D6F766564000000000000000000 PUSH1 0x44 DUP3 ADD MSTORE PUSH1 0x64 SWAP1 REVERT JUMPDEST PUSH1 0x40 MLOAD PUSH3 0x461BCD PUSH1 0xE5 SHL DUP2 MSTORE PUSH1 0x4 DUP2 ADD DUP5 SWAP1 MSTORE PUSH1 0x13 PUSH1 0x24 DUP3 ADD MSTORE PUSH19 0xA0E4DED4CAC6E840928840DAD2E6DAC2E8C6D PUSH1 0x6B SHL PUSH1 0x44 DUP3 ADD MSTORE PUSH1 0x64 SWAP1 REVERT JUMPDEST POP PUSH1 0x1 SLOAD DUP2 GT ISZERO PUSH2 0x11E2 JUMP JUMPDEST PUSH2 0x670 SWAP2 POP DUP5 RETURNDATASIZE DUP7 GT PUSH2 0x3D4 JUMPI PUSH2 0x3C6 DUP2 DUP4 PUSH2 0x1E33 JUMP JUMPDEST CALLVALUE PUSH2 0x262 JUMPI PUSH1 0x0 CALLDATASIZE PUSH1 0x3 NOT ADD SLT PUSH2 0x262 JUMPI PUSH1 0x20 PUSH1 0x1 SLOAD PUSH1 0x40 MLOAD SWAP1 DUP2 MSTORE RETURN JUMPDEST CALLVALUE PUSH2 0x262 JUMPI PUSH2 0x100 CALLDATASIZE PUSH1 0x3 NOT ADD SLT PUSH2 0x262 JUMPI PUSH1 0x4 CALLDATALOAD PUSH1 0x1 PUSH1 0x1 PUSH1 0x40 SHL SUB DUP2 GT PUSH2 0x262 JUMPI PUSH2 0x1365 SWAP1 CALLDATASIZE SWAP1 PUSH1 0x4 ADD PUSH2 0x1DB0 JUMP JUMPDEST SWAP1 PUSH1 0xA0 MSTORE PUSH1 0x24 CALLDATALOAD PUSH1 0x1 PUSH1 0x1 PUSH1 0x40 SHL SUB DUP2 GT PUSH2 0x262 JUMPI PUSH2 0x1388 SWAP1 CALLDATASIZE SWAP1 PUSH1 0x4 ADD PUSH2 0x1DB0 JUMP JUMPDEST SWAP1 SWAP2 PUSH1 0x64 CALLDATALOAD PUSH1 0x1 PUSH1 0x1 PUSH1 0x40 SHL SUB DUP2 GT PUSH2 0x262 JUMPI PUSH2 0x13A9 SWAP1 CALLDATASIZE SWAP1 PUSH1 0x4 ADD PUSH2 0x1DB0 JUMP JUMPDEST SWAP1 PUSH1 0x84 CALLDATALOAD PUSH1 0x1 PUSH1 0x1 PUSH1 0x40 SHL SUB DUP2 GT PUSH2 0x262 JUMPI PUSH2 0x13C9 SWAP1 CALLDATASIZE SWAP1 PUSH1 0x4 ADD PUSH2 0x1DB0 JUMP JUMPDEST PUSH1 0xA4 CALLDATALOAD PUSH1 0x1 PUSH1 0x1 PUSH1 0x40 SHL SUB DUP2 GT PUSH2 0x262 JUMPI PUSH2 0x13E8 SWAP1 CALLDATASIZE SWAP1 PUSH1 0x4 ADD PUSH2 0x1DB0 JUMP JUMPDEST SWAP4 SWAP1 SWAP5 PUSH1 0xC4 CALLDATALOAD PUSH1 0x1 PUSH1 0x1 PUSH1 0x40 SHL SUB DUP2 GT PUSH2 0x262 JUMPI PUSH2 0x140A SWAP1 CALLDATASIZE SWAP1 PUSH1 0x4 ADD PUSH2 0x1DB0 JUMP JUMPDEST SWAP10 SWAP1 SWAP9 PUSH1 0x1 PUSH1 0x1 PUSH1 0x40 SHL SUB PUSH1 0xE4 CALLDATALOAD GT PUSH2 0x262 JUMPI PUSH2 0x142C CALLDATASIZE PUSH1 0xE4 CALLDATALOAD PUSH1 0x4 ADD PUSH2 0x1DB0 JUMP JUMPDEST PUSH1 0x80 SWAP2 SWAP1 SWAP2 MSTORE PUSH1 0x0 SLOAD PUSH4 0x935E01B PUSH1 0xE2 SHL PUSH1 0xC0 SWAP1 DUP2 MSTORE CALLER PUSH1 0xC4 MSTORE SWAP2 SWAP12 SWAP2 PUSH1 0x20 SWAP2 PUSH1 0x24 SWAP1 DUP3 SWAP1 PUSH1 0x1 PUSH1 0x1 PUSH1 0xA0 SHL SUB AND GAS STATICCALL DUP1 ISZERO PUSH2 0x3DB JUMPI PUSH1 0x0 SWAP1 PUSH2 0x1D7A JUMPI JUMPDEST PUSH2 0x1473 SWAP1 PUSH2 0x1E6C JUMP JUMPDEST PUSH2 0x147E DUP11 ISZERO ISZERO PUSH2 0x1EA8 JUMP JUMPDEST PUSH2 0x1489 DUP3 ISZERO ISZERO PUSH2 0x1EF4 JUMP JUMPDEST PUSH2 0x1496 PUSH1 0x44 CALLDATALOAD ISZERO ISZERO PUSH2 0x1F40 JUMP JUMPDEST PUSH2 0x14A1 DUP5 ISZERO ISZERO PUSH2 0x1F9C JUMP JUMPDEST PUSH2 0x14AC DUP7 ISZERO ISZERO PUSH2 0x1FE0 JUMP JUMPDEST PUSH2 0x14B7 DUP9 ISZERO ISZERO PUSH2 0x202C JUMP JUMPDEST PUSH2 0x14C2 DUP12 ISZERO ISZERO PUSH2 0x2078 JUMP JUMPDEST PUSH1 0x1 SLOAD SWAP12 PUSH1 0x0 NOT DUP14 EQ PUSH2 0x33B JUMPI PUSH1 0x1 DUP1 DUP15 ADD SWAP1 DUP2 SWAP1 SSTORE PUSH1 0x0 DUP2 DUP2 MSTORE PUSH1 0x2 PUSH1 0x20 MSTORE PUSH1 0x40 SWAP1 KECCAK256 SWAP1 DUP2 SSTORE SWAP2 PUSH1 0x1 PUSH1 0x1 PUSH1 0x40 SHL SUB DUP13 GT PUSH2 0xC47 JUMPI PUSH2 0x1505 PUSH1 0x1 DUP5 ADD SLOAD PUSH2 0x20BD JUMP JUMPDEST PUSH1 0x1F DUP2 GT PUSH2 0x1D32 JUMPI JUMPDEST POP DUP12 PUSH1 0x0 PUSH1 0x1F DUP3 GT PUSH1 0x1 EQ PUSH2 0x1CBB JUMPI PUSH1 0x0 SWAP2 PUSH2 0x1CAE JUMPI JUMPDEST POP DUP13 PUSH1 0x1 SHL SWAP1 DUP14 PUSH1 0x0 NOT SWAP1 PUSH1 0x3 SHL SHR NOT AND OR PUSH1 0x1 DUP5 ADD SSTORE JUMPDEST PUSH1 0x1 PUSH1 0x1 PUSH1 0x40 SHL SUB DUP5 GT PUSH2 0xC47 JUMPI PUSH2 0x1558 PUSH1 0x2 DUP5 ADD SLOAD PUSH2 0x20BD JUMP JUMPDEST PUSH1 0x1F DUP2 GT PUSH2 0x1C67 JUMPI JUMPDEST POP DUP4 PUSH1 0x0 PUSH1 0x1F DUP3 GT PUSH1 0x1 EQ PUSH2 0x1BF9 JUMPI PUSH1 0x0 SWAP2 PUSH2 0x1BEE JUMPI JUMPDEST POP DUP5 PUSH1 0x1 SHL SWAP1 PUSH1 0x0 NOT DUP7 PUSH1 0x3 SHL SHR NOT AND OR PUSH1 0x2 DUP5 ADD SSTORE JUMPDEST PUSH1 0x44 CALLDATALOAD PUSH1 0x3 DUP5 ADD SSTORE PUSH1 0x0 PUSH1 0x4 DUP5 ADD SSTORE PUSH1 0x1 PUSH1 0x1 PUSH1 0x40 SHL SUB DUP7 GT PUSH2 0xC47 JUMPI PUSH2 0x15B9 PUSH1 0x5 DUP5 ADD SLOAD PUSH2 0x20BD JUMP JUMPDEST PUSH1 0x1F DUP2 GT PUSH2 0x1BA7 JUMPI JUMPDEST POP DUP6 PUSH1 0x0 PUSH1 0x1F DUP3 GT PUSH1 0x1 EQ PUSH2 0x1B39 JUMPI PUSH1 0x0 SWAP2 PUSH2 0x1B2E JUMPI JUMPDEST POP DUP7 PUSH1 0x1 SHL SWAP1 PUSH1 0x0 NOT DUP9 PUSH1 0x3 SHL SHR NOT AND OR PUSH1 0x5 DUP5 ADD SSTORE JUMPDEST PUSH1 0x1 PUSH1 0x1 PUSH1 0x40 SHL SUB DUP9 GT PUSH2 0xC47 JUMPI PUSH2 0x160B PUSH1 0x6 DUP5 ADD SLOAD PUSH2 0x20BD JUMP JUMPDEST PUSH1 0x1F DUP2 GT PUSH2 0x1AE7 JUMPI JUMPDEST POP DUP8 PUSH1 0x0 PUSH1 0x1F DUP3 GT PUSH1 0x1 EQ PUSH2 0x1A77 JUMPI PUSH1 0x0 SWAP2 PUSH2 0x1A6C JUMPI JUMPDEST POP DUP9 PUSH1 0x1 SHL SWAP1 PUSH1 0x0 NOT DUP11 PUSH1 0x3 SHL SHR NOT AND OR PUSH1 0x6 DUP5 ADD SSTORE JUMPDEST PUSH1 0x1 PUSH1 0x1 PUSH1 0x40 SHL SUB DUP11 GT PUSH2 0xC47 JUMPI PUSH2 0x165D PUSH1 0x7 DUP5 ADD SLOAD PUSH2 0x20BD JUMP JUMPDEST PUSH1 0x1F DUP2 GT PUSH2 0x1A25 JUMPI JUMPDEST POP DUP10 PUSH1 0x0 PUSH1 0x1F DUP3 GT PUSH1 0x1 EQ PUSH2 0x19B5 JUMPI PUSH1 0x0 SWAP2 PUSH2 0x19AA JUMPI JUMPDEST POP DUP11 PUSH1 0x1 SHL SWAP1 PUSH1 0x0 NOT DUP13 PUSH1 0x3 SHL SHR NOT AND OR PUSH1 0x7 DUP5 ADD SSTORE JUMPDEST PUSH1 0x1 PUSH1 0x1 PUSH1 0x40 SHL SUB DUP3 GT PUSH2 0xC47 JUMPI DUP2 SWAP1 PUSH2 0x16B1 PUSH1 0x8 DUP6 ADD SLOAD PUSH2 0x20BD JUMP JUMPDEST PUSH1 0x1F DUP2 GT PUSH2 0x1957 JUMPI JUMPDEST POP PUSH1 0x0 SWAP1 PUSH1 0x1F DUP4 GT PUSH1 0x1 EQ PUSH2 0x18E6 JUMPI PUSH1 0x0 SWAP3 PUSH2 0x18DB JUMPI JUMPDEST POP POP DUP2 PUSH1 0x1 SHL SWAP2 PUSH1 0x0 NOT SWAP1 PUSH1 0x3 SHL SHR NOT AND OR PUSH1 0x8 DUP3 ADD SSTORE JUMPDEST PUSH1 0x1 PUSH1 0x1 PUSH1 0x40 SHL SUB DUP12 GT PUSH2 0xC47 JUMPI PUSH2 0x1704 PUSH1 0x9 DUP3 ADD SLOAD PUSH2 0x20BD JUMP JUMPDEST PUSH1 0x1F DUP2 GT PUSH2 0x1893 JUMPI JUMPDEST POP DUP11 PUSH1 0x0 PUSH1 0x1F DUP3 GT PUSH1 0x1 EQ PUSH2 0x181D JUMPI PUSH1 0x0 SWAP2 PUSH2 0x1810 JUMPI JUMPDEST POP DUP12 PUSH1 0x1 SHL SWAP1 PUSH1 0x0 NOT DUP14 PUSH1 0x3 SHL SHR NOT AND OR PUSH1 0x9 DUP3 ADD SSTORE JUMPDEST TIMESTAMP PUSH1 0xA DUP3 ADD SSTORE TIMESTAMP SWAP1 PUSH1 0xB ADD SSTORE CALLER PUSH1 0x0 MSTORE PUSH1 0x3 PUSH1 0x20 MSTORE TIMESTAMP PUSH1 0x40 PUSH1 0x0 KECCAK256 SSTORE PUSH1 0x40 MLOAD SWAP9 PUSH1 0xE0 DUP11 MSTORE PUSH1 0xE0 DUP11 ADD PUSH1 0xA0 MLOAD SWAP2 PUSH2 0x1770 SWAP3 PUSH2 0x20F7 JUMP JUMPDEST SWAP1 DUP10 DUP3 SUB PUSH1 0x20 DUP12 ADD MSTORE PUSH2 0x1782 SWAP3 PUSH2 0x20F7 JUMP JUMPDEST SWAP1 PUSH1 0x44 CALLDATALOAD PUSH1 0x40 DUP10 ADD MSTORE DUP8 DUP3 SUB PUSH1 0x60 DUP10 ADD MSTORE PUSH2 0x179C SWAP3 PUSH2 0x20F7 JUMP JUMPDEST SWAP1 DUP6 DUP3 SUB PUSH1 0x80 DUP8 ADD MSTORE PUSH2 0x17AE SWAP3 PUSH2 0x20F7 JUMP JUMPDEST SWAP1 DUP4 DUP3 SUB PUSH1 0xA0 DUP6 ADD MSTORE PUSH2 0x17C0 SWAP3 PUSH2 0x20F7 JUMP JUMPDEST SWAP1 DUP1 DUP3 SUB PUSH1 0xC0 DUP3 ADD MSTORE DUP1 CALLER SWAP4 PUSH1 0x1 DUP7 ADD SWAP4 PUSH1 0x80 MLOAD SWAP2 PUSH2 0x17DE SWAP3 PUSH2 0x20F7 JUMP JUMPDEST SUB PUSH32 0xB277F8A65CC12A772964393B88F67D575DE0863B623CCC169A21A77C19B9CDAC SWAP2 LOG3 PUSH1 0x40 MLOAD SWAP1 PUSH1 0x1 ADD DUP2 MSTORE PUSH1 0x20 SWAP1 RETURN JUMPDEST SWAP1 POP PUSH1 0x80 MLOAD ADD CALLDATALOAD DUP14 PUSH2 0x1724 JUMP JUMPDEST SWAP1 POP PUSH1 0x9 DUP3 ADD PUSH1 0x0 MSTORE DUP12 PUSH1 0x20 PUSH1 0x0 KECCAK256 SWAP2 PUSH1 0x0 PUSH1 0x80 MLOAD SWAP3 JUMPDEST PUSH1 0x1F NOT DUP2 AND DUP3 LT PUSH2 0x1879 JUMPI PUSH1 0x1F NOT DUP2 AND LT SWAP1 POP PUSH2 0x185F JUMPI JUMPDEST POP POP POP PUSH1 0x1 DUP12 DUP2 SHL ADD PUSH1 0x9 DUP3 ADD SSTORE PUSH2 0x173B JUMP JUMPDEST ADD CALLDATALOAD PUSH1 0x0 NOT PUSH1 0x3 DUP15 SWAP1 SHL PUSH1 0xF8 AND SHR NOT AND SWAP1 SSTORE DUP13 DUP1 DUP1 PUSH2 0x184C JUMP JUMPDEST SWAP1 SWAP2 SWAP4 PUSH1 0x20 PUSH1 0x1 DUP2 SWAP3 DUP8 DUP8 ADD CALLDATALOAD DUP2 SSTORE ADD SWAP6 ADD SWAP3 ADD SWAP1 PUSH2 0x1834 JUMP JUMPDEST PUSH1 0x9 DUP3 ADD PUSH1 0x0 MSTORE PUSH1 0x20 PUSH1 0x0 KECCAK256 DUP13 PUSH1 0x20 PUSH1 0x1F DUP3 ADD PUSH1 0x5 SHR DUP4 ADD SWAP2 LT PUSH2 0x18D4 JUMPI JUMPDEST PUSH1 0x1F DUP4 ADD PUSH1 0x5 SHR DUP3 ADD DUP2 LT PUSH2 0x18C8 JUMPI POP POP PUSH2 0x170D JUMP JUMPDEST PUSH1 0x0 DUP2 SSTORE PUSH1 0x1 ADD PUSH2 0x18B2 JUMP JUMPDEST POP DUP1 PUSH2 0x18B2 JUMP JUMPDEST ADD CALLDATALOAD SWAP1 POP DUP15 DUP1 PUSH2 0x16D1 JUMP JUMPDEST SWAP1 SWAP3 POP PUSH1 0x8 DUP5 ADD PUSH1 0x0 MSTORE PUSH1 0x20 PUSH1 0x0 KECCAK256 SWAP1 PUSH1 0x0 SWAP4 JUMPDEST PUSH1 0x1F NOT DUP5 AND DUP6 LT PUSH2 0x193F JUMPI PUSH1 0x1 SWAP5 POP DUP4 PUSH1 0x1F NOT DUP2 AND LT PUSH2 0x1925 JUMPI JUMPDEST POP POP POP DUP2 SHL ADD PUSH1 0x8 DUP3 ADD SSTORE PUSH2 0x16E9 JUMP JUMPDEST ADD CALLDATALOAD PUSH1 0x0 NOT PUSH1 0x3 DUP5 SWAP1 SHL PUSH1 0xF8 AND SHR NOT AND SWAP1 SSTORE DUP15 DUP1 DUP1 PUSH2 0x1915 JUMP JUMPDEST DUP2 DUP2 ADD CALLDATALOAD DUP4 SSTORE PUSH1 0x20 SWAP5 DUP6 ADD SWAP5 PUSH1 0x1 SWAP1 SWAP4 ADD SWAP3 ADD PUSH2 0x18FA JUMP JUMPDEST SWAP1 SWAP2 POP PUSH1 0x8 DUP5 ADD PUSH1 0x0 MSTORE PUSH1 0x20 PUSH1 0x0 KECCAK256 PUSH1 0x1F DUP5 ADD PUSH1 0x5 SHR DUP2 ADD PUSH1 0x20 DUP6 LT PUSH2 0x19A3 JUMPI JUMPDEST SWAP1 DUP5 SWAP4 SWAP3 SWAP2 JUMPDEST PUSH1 0x1F DUP4 ADD PUSH1 0x5 SHR DUP3 ADD DUP2 LT PUSH2 0x1994 JUMPI POP POP PUSH2 0x16BA JUMP JUMPDEST PUSH1 0x0 DUP2 SSTORE DUP6 SWAP5 POP PUSH1 0x1 ADD PUSH2 0x197E JUMP JUMPDEST POP DUP1 PUSH2 0x1978 JUMP JUMPDEST SWAP1 POP DUP12 ADD CALLDATALOAD DUP16 PUSH2 0x167D JUMP JUMPDEST SWAP1 POP PUSH1 0x7 DUP5 ADD PUSH1 0x0 MSTORE PUSH1 0x20 PUSH1 0x0 KECCAK256 SWAP1 PUSH1 0x0 JUMPDEST DUP14 PUSH1 0x1F NOT DUP15 AND DUP3 LT PUSH2 0x1A0D JUMPI POP POP DUP12 PUSH1 0x1F NOT DUP2 AND LT PUSH2 0x19F3 JUMPI JUMPDEST POP POP PUSH1 0x1 DUP11 DUP2 SHL ADD PUSH1 0x7 DUP5 ADD SSTORE PUSH2 0x1694 JUMP JUMPDEST DUP13 ADD CALLDATALOAD PUSH1 0x0 NOT PUSH1 0x3 DUP14 SWAP1 SHL PUSH1 0xF8 AND SHR NOT AND SWAP1 SSTORE DUP15 DUP1 PUSH2 0x19E1 JUMP JUMPDEST PUSH1 0x1 DUP4 SWAP5 PUSH1 0x20 SWAP4 SWAP5 DUP5 SWAP4 ADD CALLDATALOAD DUP2 SSTORE ADD SWAP4 ADD SWAP2 ADD PUSH2 0x19C7 JUMP JUMPDEST PUSH1 0x7 DUP5 ADD PUSH1 0x0 MSTORE PUSH1 0x20 PUSH1 0x0 KECCAK256 PUSH1 0x1F DUP13 ADD PUSH1 0x5 SHR DUP2 ADD PUSH1 0x20 DUP14 LT PUSH2 0x1A65 JUMPI JUMPDEST PUSH1 0x1F DUP4 ADD PUSH1 0x5 SHR DUP3 ADD DUP2 LT PUSH2 0x1A59 JUMPI POP POP PUSH2 0x1666 JUMP JUMPDEST PUSH1 0x0 DUP2 SSTORE PUSH1 0x1 ADD PUSH2 0x1A43 JUMP JUMPDEST POP DUP1 PUSH2 0x1A43 JUMP JUMPDEST SWAP1 POP DUP10 ADD CALLDATALOAD DUP16 PUSH2 0x162B JUMP JUMPDEST SWAP1 POP PUSH1 0x6 DUP5 ADD PUSH1 0x0 MSTORE PUSH1 0x20 PUSH1 0x0 KECCAK256 SWAP1 PUSH1 0x0 JUMPDEST DUP12 PUSH1 0x1F NOT DUP13 AND DUP3 LT PUSH2 0x1ACF JUMPI POP POP DUP10 PUSH1 0x1F NOT DUP2 AND LT PUSH2 0x1AB5 JUMPI JUMPDEST POP POP PUSH1 0x1 DUP9 DUP2 SHL ADD PUSH1 0x6 DUP5 ADD SSTORE PUSH2 0x1642 JUMP JUMPDEST DUP11 ADD CALLDATALOAD PUSH1 0x0 NOT PUSH1 0x3 DUP12 SWAP1 SHL PUSH1 0xF8 AND SHR NOT AND SWAP1 SSTORE DUP15 DUP1 PUSH2 0x1AA3 JUMP JUMPDEST PUSH1 0x1 DUP4 SWAP5 PUSH1 0x20 SWAP4 SWAP5 DUP5 SWAP4 ADD CALLDATALOAD DUP2 SSTORE ADD SWAP4 ADD SWAP2 ADD PUSH2 0x1A89 JUMP JUMPDEST PUSH1 0x6 DUP5 ADD PUSH1 0x0 MSTORE PUSH1 0x20 PUSH1 0x0 KECCAK256 PUSH1 0x1F DUP11 ADD PUSH1 0x5 SHR DUP2 ADD PUSH1 0x20 DUP12 LT PUSH2 0x1B27 JUMPI JUMPDEST PUSH1 0x1F DUP4 ADD PUSH1 0x5 SHR DUP3 ADD DUP2 LT PUSH2 0x1B1B JUMPI POP POP PUSH2 0x1614 JUMP JUMPDEST PUSH1 0x0 DUP2 SSTORE PUSH1 0x1 ADD PUSH2 0x1B05 JUMP JUMPDEST POP DUP1 PUSH2 0x1B05 JUMP JUMPDEST SWAP1 POP DUP8 ADD CALLDATALOAD DUP16 PUSH2 0x15D9 JUMP JUMPDEST SWAP1 POP PUSH1 0x5 DUP5 ADD PUSH1 0x0 MSTORE PUSH1 0x20 PUSH1 0x0 KECCAK256 SWAP1 PUSH1 0x0 JUMPDEST PUSH1 0x1F NOT DUP10 AND DUP2 LT PUSH2 0x1B8F JUMPI POP DUP8 PUSH1 0x1F NOT DUP2 AND LT PUSH2 0x1B75 JUMPI JUMPDEST POP POP PUSH1 0x1 DUP7 DUP2 SHL ADD PUSH1 0x5 DUP5 ADD SSTORE PUSH2 0x15F0 JUMP JUMPDEST DUP9 ADD CALLDATALOAD PUSH1 0x0 NOT PUSH1 0x3 DUP10 SWAP1 SHL PUSH1 0xF8 AND SHR NOT AND SWAP1 SSTORE DUP15 DUP1 PUSH2 0x1B63 JUMP JUMPDEST SWAP1 SWAP2 PUSH1 0x20 PUSH1 0x1 DUP2 SWAP3 DUP6 DUP14 ADD CALLDATALOAD DUP2 SSTORE ADD SWAP4 ADD SWAP2 ADD PUSH2 0x1B4B JUMP JUMPDEST PUSH1 0x5 DUP5 ADD PUSH1 0x0 MSTORE PUSH1 0x20 PUSH1 0x0 KECCAK256 PUSH1 0x1F DUP9 ADD PUSH1 0x5 SHR DUP2 ADD PUSH1 0x20 DUP10 LT PUSH2 0x1BE7 JUMPI JUMPDEST PUSH1 0x1F DUP4 ADD PUSH1 0x5 SHR DUP3 ADD DUP2 LT PUSH2 0x1BDB JUMPI POP POP PUSH2 0x15C2 JUMP JUMPDEST PUSH1 0x0 DUP2 SSTORE PUSH1 0x1 ADD PUSH2 0x1BC5 JUMP JUMPDEST POP DUP1 PUSH2 0x1BC5 JUMP JUMPDEST SWAP1 POP DUP6 ADD CALLDATALOAD DUP16 PUSH2 0x1578 JUMP JUMPDEST SWAP1 POP PUSH1 0x2 DUP5 ADD PUSH1 0x0 MSTORE PUSH1 0x20 PUSH1 0x0 KECCAK256 SWAP1 PUSH1 0x0 JUMPDEST PUSH1 0x1F NOT DUP8 AND DUP2 LT PUSH2 0x1C4F JUMPI POP DUP6 PUSH1 0x1F NOT DUP2 AND LT PUSH2 0x1C35 JUMPI JUMPDEST POP POP PUSH1 0x1 DUP5 DUP2 SHL ADD PUSH1 0x2 DUP5 ADD SSTORE PUSH2 0x158F JUMP JUMPDEST DUP7 ADD CALLDATALOAD PUSH1 0x0 NOT PUSH1 0x3 DUP8 SWAP1 SHL PUSH1 0xF8 AND SHR NOT AND SWAP1 SSTORE DUP15 DUP1 PUSH2 0x1C23 JUMP JUMPDEST SWAP1 SWAP2 PUSH1 0x20 PUSH1 0x1 DUP2 SWAP3 DUP6 DUP12 ADD CALLDATALOAD DUP2 SSTORE ADD SWAP4 ADD SWAP2 ADD PUSH2 0x1C0B JUMP JUMPDEST PUSH1 0x2 DUP5 ADD PUSH1 0x0 MSTORE PUSH1 0x20 PUSH1 0x0 KECCAK256 PUSH1 0x1F DUP7 ADD PUSH1 0x5 SHR DUP2 ADD PUSH1 0x20 DUP8 LT PUSH2 0x1CA7 JUMPI JUMPDEST PUSH1 0x1F DUP4 ADD PUSH1 0x5 SHR DUP3 ADD DUP2 LT PUSH2 0x1C9B JUMPI POP POP PUSH2 0x1561 JUMP JUMPDEST PUSH1 0x0 DUP2 SSTORE PUSH1 0x1 ADD PUSH2 0x1C85 JUMP JUMPDEST POP DUP1 PUSH2 0x1C85 JUMP JUMPDEST SWAP1 POP PUSH1 0xA0 MLOAD ADD CALLDATALOAD DUP16 PUSH2 0x1525 JUMP JUMPDEST SWAP1 POP PUSH1 0x1 DUP5 ADD PUSH1 0x0 MSTORE DUP13 PUSH1 0x20 PUSH1 0x0 KECCAK256 SWAP2 PUSH1 0x0 SWAP2 PUSH1 0xA0 MLOAD SWAP3 JUMPDEST PUSH1 0x1F NOT DUP3 AND DUP2 LT PUSH2 0x1D1A JUMPI POP DUP1 PUSH1 0x1F NOT DUP2 AND LT PUSH2 0x1CFF JUMPI JUMPDEST SWAP2 POP POP PUSH1 0x1 DUP1 SWAP3 POP SHL ADD PUSH1 0x1 DUP5 ADD SSTORE PUSH2 0x153D JUMP JUMPDEST PUSH1 0xF8 PUSH1 0x0 NOT SWAP2 PUSH1 0x3 SHL AND SHR NOT SWAP2 ADD CALLDATALOAD AND SWAP1 SSTORE DUP15 DUP1 DUP1 DUP15 PUSH2 0x1CEB JUMP JUMPDEST SWAP2 SWAP4 PUSH1 0x20 PUSH1 0x1 DUP2 SWAP3 DUP8 DUP8 ADD CALLDATALOAD DUP2 SSTORE ADD SWAP6 ADD SWAP3 ADD PUSH2 0x1CD3 JUMP JUMPDEST PUSH1 0x1 DUP5 ADD PUSH1 0x0 MSTORE PUSH1 0x20 PUSH1 0x0 KECCAK256 DUP14 PUSH1 0x20 PUSH1 0x1F DUP3 ADD PUSH1 0x5 SHR DUP4 ADD SWAP2 LT PUSH2 0x1D73 JUMPI JUMPDEST PUSH1 0x1F DUP4 ADD PUSH1 0x5 SHR DUP3 ADD DUP2 LT PUSH2 0x1D67 JUMPI POP POP PUSH2 0x150E JUMP JUMPDEST PUSH1 0x0 DUP2 SSTORE PUSH1 0x1 ADD PUSH2 0x1D51 JUMP JUMPDEST POP DUP1 PUSH2 0x1D51 JUMP JUMPDEST POP PUSH1 0x20 RETURNDATASIZE PUSH1 0x20 GT PUSH2 0x1DA9 JUMPI JUMPDEST PUSH2 0x1DA2 DUP2 PUSH2 0x1D98 PUSH2 0x1473 SWAP4 PUSH1 0xC0 PUSH2 0x1E33 JUMP JUMPDEST PUSH1 0xC0 ADD PUSH1 0xC0 PUSH2 0x1E54 JUMP JUMPDEST SWAP1 POP PUSH2 0x146A JUMP JUMPDEST POP RETURNDATASIZE PUSH2 0x1D86 JUMP JUMPDEST SWAP2 DUP2 PUSH1 0x1F DUP5 ADD SLT ISZERO PUSH2 0x262 JUMPI DUP3 CALLDATALOAD SWAP2 PUSH1 0x1 PUSH1 0x1 PUSH1 0x40 SHL SUB DUP4 GT PUSH2 0x262 JUMPI PUSH1 0x20 DUP4 DUP2 DUP7 ADD SWAP6 ADD ADD GT PUSH2 0x262 JUMPI JUMP JUMPDEST PUSH1 0x40 SWAP1 PUSH1 0x3 NOT ADD SLT PUSH2 0x262 JUMPI PUSH1 0x4 CALLDATALOAD SWAP1 PUSH1 0x24 CALLDATALOAD SWAP1 JUMP JUMPDEST SWAP2 SWAP1 DUP3 MLOAD SWAP3 DUP4 DUP3 MSTORE PUSH1 0x0 JUMPDEST DUP5 DUP2 LT PUSH2 0x1E1F JUMPI POP POP DUP3 PUSH1 0x0 PUSH1 0x20 DUP1 SWAP5 SWAP6 DUP5 ADD ADD MSTORE PUSH1 0x1F DUP1 NOT SWAP2 ADD AND ADD ADD SWAP1 JUMP JUMPDEST PUSH1 0x20 DUP2 DUP4 ADD DUP2 ADD MLOAD DUP5 DUP4 ADD DUP3 ADD MSTORE ADD PUSH2 0x1DFE JUMP JUMPDEST SWAP1 PUSH1 0x1F DUP1 NOT SWAP2 ADD AND DUP2 ADD SWAP1 DUP2 LT PUSH1 0x1 PUSH1 0x1 PUSH1 0x40 SHL SUB DUP3 GT OR PUSH2 0xC47 JUMPI PUSH1 0x40 MSTORE JUMP JUMPDEST SWAP1 DUP2 PUSH1 0x20 SWAP2 SUB SLT PUSH2 0x262 JUMPI MLOAD DUP1 ISZERO ISZERO DUP2 SUB PUSH2 0x262 JUMPI SWAP1 JUMP JUMPDEST ISZERO PUSH2 0x1E73 JUMPI JUMP JUMPDEST PUSH1 0x40 MLOAD PUSH3 0x461BCD PUSH1 0xE5 SHL DUP2 MSTORE PUSH1 0x20 PUSH1 0x4 DUP3 ADD MSTORE PUSH1 0xD PUSH1 0x24 DUP3 ADD MSTORE PUSH13 0x2737902832B936B4B9B9B4B7B7 PUSH1 0x99 SHL PUSH1 0x44 DUP3 ADD MSTORE PUSH1 0x64 SWAP1 REVERT JUMPDEST ISZERO PUSH2 0x1EAF JUMPI JUMP JUMPDEST PUSH1 0x40 MLOAD PUSH3 0x461BCD PUSH1 0xE5 SHL DUP2 MSTORE PUSH1 0x20 PUSH1 0x4 DUP3 ADD MSTORE PUSH1 0x1C PUSH1 0x24 DUP3 ADD MSTORE PUSH32 0x50726F6A656374206E616D652063616E6E6F7420626520656D70747900000000 PUSH1 0x44 DUP3 ADD MSTORE PUSH1 0x64 SWAP1 REVERT JUMPDEST ISZERO PUSH2 0x1EFB JUMPI JUMP JUMPDEST PUSH1 0x40 MLOAD PUSH3 0x461BCD PUSH1 0xE5 SHL DUP2 MSTORE PUSH1 0x20 PUSH1 0x4 DUP3 ADD MSTORE PUSH1 0x1B PUSH1 0x24 DUP3 ADD MSTORE PUSH32 0x43617465676F72792069642063616E6E6F7420626520656D7074790000000000 PUSH1 0x44 DUP3 ADD MSTORE PUSH1 0x64 SWAP1 REVERT JUMPDEST ISZERO PUSH2 0x1F47 JUMPI JUMP JUMPDEST PUSH1 0x40 MLOAD PUSH3 0x461BCD PUSH1 0xE5 SHL DUP2 MSTORE PUSH1 0x20 PUSH1 0x4 DUP3 ADD MSTORE PUSH1 0x27 PUSH1 0x24 DUP3 ADD MSTORE PUSH32 0x416C6C6F636174656420627564676574206D7573742062652067726561746572 PUSH1 0x44 DUP3 ADD MSTORE PUSH7 0x207468616E203 PUSH1 0xCC SHL PUSH1 0x64 DUP3 ADD MSTORE PUSH1 0x84 SWAP1 REVERT JUMPDEST ISZERO PUSH2 0x1FA3 JUMPI JUMP JUMPDEST PUSH1 0x40 MLOAD PUSH3 0x461BCD PUSH1 0xE5 SHL DUP2 MSTORE PUSH1 0x20 PUSH1 0x4 DUP3 ADD MSTORE PUSH1 0x15 PUSH1 0x24 DUP3 ADD MSTORE PUSH21 0x53746174652063616E6E6F7420626520656D707479 PUSH1 0x58 SHL PUSH1 0x44 DUP3 ADD MSTORE PUSH1 0x64 SWAP1 REVERT JUMPDEST ISZERO PUSH2 0x1FE7 JUMPI JUMP JUMPDEST PUSH1 0x40 MLOAD PUSH3 0x461BCD PUSH1 0xE5 SHL DUP2 MSTORE PUSH1 0x20 PUSH1 0x4 DUP3 ADD MSTORE PUSH1 0x18 PUSH1 0x24 DUP3 ADD MSTORE PUSH32 0x50726F76696E63652063616E6E6F7420626520656D7074790000000000000000 PUSH1 0x44 DUP3 ADD MSTORE PUSH1 0x64 SWAP1 REVERT JUMPDEST ISZERO PUSH2 0x2033 JUMPI JUMP JUMPDEST PUSH1 0x40 MLOAD PUSH3 0x461BCD PUSH1 0xE5 SHL DUP2 MSTORE PUSH1 0x20 PUSH1 0x4 DUP3 ADD MSTORE PUSH1 0x18 PUSH1 0x24 DUP3 ADD MSTORE PUSH32 0x4D696E69737472792063616E6E6F7420626520656D7074790000000000000000 PUSH1 0x44 DUP3 ADD MSTORE PUSH1 0x64 SWAP1 REVERT JUMPDEST ISZERO PUSH2 0x207F JUMPI JUMP JUMPDEST PUSH1 0x40 MLOAD PUSH3 0x461BCD PUSH1 0xE5 SHL DUP2 MSTORE PUSH1 0x20 PUSH1 0x4 DUP3 ADD MSTORE PUSH1 0x16 PUSH1 0x24 DUP3 ADD MSTORE PUSH22 0x5374617475732063616E6E6F7420626520656D707479 PUSH1 0x50 SHL PUSH1 0x44 DUP3 ADD MSTORE PUSH1 0x64 SWAP1 REVERT JUMPDEST SWAP1 PUSH1 0x1 DUP3 DUP2 SHR SWAP3 AND DUP1 ISZERO PUSH2 0x20ED JUMPI JUMPDEST PUSH1 0x20 DUP4 LT EQ PUSH2 0x20D7 JUMPI JUMP JUMPDEST PUSH4 0x4E487B71 PUSH1 0xE0 SHL PUSH1 0x0 MSTORE PUSH1 0x22 PUSH1 0x4 MSTORE PUSH1 0x24 PUSH1 0x0 REVERT JUMPDEST SWAP2 PUSH1 0x7F AND SWAP2 PUSH2 0x20CC JUMP JUMPDEST SWAP1 DUP1 PUSH1 0x20 SWAP4 SWAP3 DUP2 DUP5 MSTORE DUP5 DUP5 ADD CALLDATACOPY PUSH1 0x0 DUP3 DUP3 ADD DUP5 ADD MSTORE PUSH1 0x1F ADD PUSH1 0x1F NOT AND ADD ADD SWAP1 JUMP JUMPDEST ISZERO PUSH2 0x211F JUMPI JUMP JUMPDEST PUSH1 0x40 MLOAD PUSH3 0x461BCD PUSH1 0xE5 SHL DUP2 MSTORE PUSH1 0x20 PUSH1 0x4 DUP3 ADD MSTORE PUSH1 0x16 PUSH1 0x24 DUP3 ADD MSTORE PUSH22 0x141C9BDA9958DD08191BD95CC81B9BDD08195E1A5CDD PUSH1 0x52 SHL PUSH1 0x44 DUP3 ADD MSTORE PUSH1 0x64 SWAP1 REVERT JUMPDEST SWAP1 PUSH1 0x0 SWAP3 SWAP2 DUP1 SLOAD SWAP2 PUSH2 0x216E DUP4 PUSH2 0x20BD JUMP JUMPDEST SWAP2 DUP3 DUP3 MSTORE PUSH1 0x1 SWAP4 DUP5 DUP2 AND SWAP1 DUP2 PUSH1 0x0 EQ PUSH2 0x21D0 JUMPI POP PUSH1 0x1 EQ PUSH2 0x2190 JUMPI JUMPDEST POP POP POP POP JUMP JUMPDEST SWAP1 SWAP2 SWAP4 SWAP5 POP PUSH1 0x0 MSTORE PUSH1 0x20 SWAP3 DUP4 PUSH1 0x0 KECCAK256 SWAP3 DUP5 PUSH1 0x0 SWAP5 JUMPDEST DUP4 DUP7 LT PUSH2 0x21BC JUMPI POP POP POP POP ADD ADD SWAP1 CODESIZE DUP1 DUP1 DUP1 PUSH2 0x218A JUMP JUMPDEST DUP1 SLOAD DUP6 DUP8 ADD DUP4 ADD MSTORE SWAP5 ADD SWAP4 DUP6 SWAP1 DUP3 ADD PUSH2 0x21A5 JUMP JUMPDEST SWAP3 SWAP5 POP POP POP PUSH1 0x20 SWAP4 SWAP5 POP PUSH1 0xFF NOT AND DUP4 DUP4 ADD MSTORE ISZERO ISZERO PUSH1 0x5 SHL ADD ADD SWAP1 CODESIZE DUP1 DUP1 DUP1 PUSH2 0x218A JUMP JUMPDEST ISZERO PUSH2 0x21FA JUMPI JUMP JUMPDEST PUSH1 0x40 MLOAD PUSH3 0x461BCD PUSH1 0xE5 SHL DUP2 MSTORE PUSH1 0x20 PUSH1 0x4 DUP3 ADD MSTORE PUSH1 0x1D PUSH1 0x24 DUP3 ADD MSTORE PUSH32 0x416D6F756E74206D7573742062652067726561746572207468616E2030000000 PUSH1 0x44 DUP3 ADD MSTORE PUSH1 0x64 SWAP1 REVERT JUMPDEST SWAP2 SWAP1 DUP3 ADD DUP1 SWAP3 GT PUSH2 0x33B JUMPI JUMP INVALID LOG2 PUSH5 0x6970667358 0x22 SLT KECCAK256 PREVRANDAO 0x2C DELEGATECALL ADDMOD 0xF6 DUP10 0xD7 0xE SWAP8 0xCC PUSH8 0x8966261CF24DCACC 0xD7 SLT SWAP9 0xE2 0xBA SWAP8 DUP11 SWAP16 0xEC CODECOPY PUSH6 0x87A264736F6C PUSH4 0x43000814 STOP CALLER "},"methodIdentifiers":{"addSpentBudget(uint256,uint256)":"afe32ec3","authRegistry()":"629e025a","createProject(string,string,uint256,string,string,string,string,string)":"199dc3d4","deductSpentBudget(uint256,uint256)":"d64b9186","getProject(uint256)":"f0f3f2c8","lastCreatedAt(address)":"b94afa71","projectCount()":"36fbad26","removeProject(uint256)":"5873f998","updateAllocatedBudget(uint256,uint256)":"7c66c78f","updateProject(uint256,string,string,string,string,string,string,string)":"64e4b891"}}}}}