{"contracts/petition/petitions.sol":{"Petitions":{"abi":[{"inputs":[{"internalType":"address","name":"_authRegistry","type":"address"}],"stateMutability":"nonpayable","type":"constructor"},{"anonymous":false,"inputs":[{"indexed":true,"internalType":"uint256","name":"petitionId","type":"uint256"}],"name":"PetitionCompleted","type":"event"},{"anonymous":false,"inputs":[{"indexed":true,"internalType":"uint256","name":"petitionId","type":"uint256"},{"indexed":true,"internalType":"address","name":"creator","type":"address"},{"indexed":false,"internalType":"string","name":"titleCid","type":"string"},{"indexed":false,"internalType":"string","name":"desCid","type":"string"},{"indexed":false,"internalType":"uint256","name":"signaturesRequired","type":"uint256"}],"name":"PetitionCreated","type":"event"},{"anonymous":false,"inputs":[{"indexed":true,"internalType":"uint256","name":"petitionId","type":"uint256"},{"indexed":true,"internalType":"address","name":"remover","type":"address"}],"name":"PetitionRemoved","type":"event"},{"anonymous":false,"inputs":[{"indexed":true,"internalType":"uint256","name":"petitionId","type":"uint256"},{"indexed":true,"internalType":"address","name":"signer","type":"address"}],"name":"PetitionSigned","type":"event"},{"inputs":[],"name":"authRegistry","outputs":[{"internalType":"contract IAuthRegistry","name":"","type":"address"}],"stateMutability":"view","type":"function"},{"inputs":[{"internalType":"string","name":"titleCid","type":"string"},{"internalType":"string","name":"desCid","type":"string"},{"internalType":"uint256","name":"signaturesRequired","type":"uint256"}],"name":"createPetition","outputs":[{"internalType":"uint256","name":"","type":"uint256"}],"stateMutability":"nonpayable","type":"function"},{"inputs":[{"internalType":"uint256","name":"petitionId","type":"uint256"}],"name":"getPetition","outputs":[{"internalType":"string","name":"titleCid","type":"string"},{"internalType":"string","name":"desCid","type":"string"},{"internalType":"uint256","name":"signaturesRequired","type":"uint256"},{"internalType":"uint256","name":"signaturesCount","type":"uint256"},{"internalType":"address","name":"creator","type":"address"},{"internalType":"bool","name":"completed","type":"bool"},{"internalType":"bool","name":"removed","type":"bool"}],"stateMutability":"view","type":"function"},{"inputs":[{"internalType":"uint256","name":"petitionId","type":"uint256"},{"internalType":"address","name":"user","type":"address"}],"name":"hasSigned","outputs":[{"internalType":"bool","name":"","type":"bool"}],"stateMutability":"view","type":"function"},{"inputs":[{"internalType":"address","name":"","type":"address"}],"name":"lastCreatedAt","outputs":[{"internalType":"uint256","name":"","type":"uint256"}],"stateMutability":"view","type":"function"},{"inputs":[],"name":"petitionCount","outputs":[{"internalType":"uint256","name":"","type":"uint256"}],"stateMutability":"view","type":"function"},{"inputs":[{"internalType":"uint256","name":"petitionId","type":"uint256"}],"name":"removePetition","outputs":[],"stateMutability":"nonpayable","type":"function"},{"inputs":[{"internalType":"uint256","name":"petitionId","type":"uint256"}],"name":"signPetition","outputs":[],"stateMutability":"nonpayable","type":"function"}],"evm":{"bytecode":{"linkReferences":{},"object":"6080346100cb57601f610f0638819003918201601f19168301916001600160401b038311848410176100d0578084926020946040528339810103126100cb57516001600160a01b038116908190036100cb57801561007a57600080546001600160a01b031916919091179055604051610e1f90816100e78239f35b60405162461bcd60e51b8152602060048201526024808201527f4175746820726567697374727920616464726573732063616e6e6f74206265206044820152637a65726f60e01b6064820152608490fd5b600080fd5b634e487b7160e01b600052604160045260246000fdfe6080604052600436101561001257600080fd5b60003560e01c80630c90ce4214610a6457806311b8ad6f1461088157806361ab1f0914610863578063629e025a1461083a578063709df8d9146107d3578063990627ec14610310578063b94afa71146102d25763dcad01801461007457600080fd5b346102cd576020806003193601126102cd576004359060018060a01b03906024818360005416604051928380926301fd3f7760e71b82523360048301525afa80156102c1576100cb91600091610294575b50610bbd565b82151580610288575b6100dd90610c69565b82600052600281526100fa82600460406000200154161515610cab565b826000526002815261011a60ff60046040600020015460a81c1615610cf7565b82600052600281526040600020906004820192835460ff8160a01c166102435761014691161515610cab565b60058201903360005281815260ff604060002054166101f15733600052526040600020600160ff19825416179055600260038201916101858354610bff565b80935533857fa24773234734fa56d66ce98fb6d0c8e4b38c3ce67e8a0cfa10756d0909ba4ed2600080a3015411156101b957005b805460ff60a01b1916600160a01b1790557f57b2843ccf810ad84ecfebb6a0e6886490e559e0980a3656f8e16ceac99f9152600080a2005b6084906040519062461bcd60e51b82526004820152602560248201527f596f75206861766520616c7265616479207369676e656420746869732070657460448201526434ba34b7b760d91b6064820152fd5b60405162461bcd60e51b815260048101849052601a60248201527f5065746974696f6e20616c726561647920636f6d706c657465640000000000006044820152606490fd5b506001548311156100d4565b6102b49150833d85116102ba575b6102ac8183610b83565b810190610ba5565b386100c5565b503d6102a2565b6040513d6000823e3d90fd5b600080fd5b346102cd5760203660031901126102cd576004356001600160a01b038116908190036102cd5760005260036020526020604060002054604051908152f35b346102cd5760603660031901126102cd5760043567ffffffffffffffff81116102cd57610341903690600401610b55565b9060243567ffffffffffffffff81116102cd57610362903690600401610b55565b6000546040516301fd3f7760e71b815233600482015292949290602090829060249082906001600160a01b03165afa80156102c1576103a8916000916107b45750610bbd565b33600052600360205260406000205462093a80810180911161079e57421061074757604435156106ec576103dd600154610bff565b9283600155836000526002602052604060002067ffffffffffffffff8411610622576104098154610c0e565b601f81116106a8575b50836000601f821160011461064357600091610638575b508460011b906000198660031b1c19161781555b67ffffffffffffffff8311610622576104596001820154610c0e565b601f81116105db575b50916020959185936000601f8411600114610540577f98acdb43185fdb133376bd108d5907728ba783ab8330e33f6f8ae0895c5c7881949260006003869461051e97610511958491610535575b508660011b90841988851b1c19161760018201555b604435600282015560048101805461ffff60a01b1933169069ffffffffffffffffffff60b01b1617905501553360005260038a524260406000205560405197606089526060890191610c48565b9186830389880152610c48565b9260443560408201528033940390a3604051908152f35b90508701358e6104af565b60018201600052886000209060005b601f19861681106105c1575092600060038694610511947f98acdb43185fdb133376bd108d5907728ba783ab8330e33f6f8ae0895c5c7881999761051e99601f198116106105aa575b5050600186811b0160018201556104c4565b880135841988851b60f8161c191690558d80610598565b818701358355899750600190920191908a01908a0161054f565b600182016000526020600020601f850160051c81016020861061061b575b601f830160051c8201811061060f575050610462565b600081556001016105f9565b50806105f9565b634e487b7160e01b600052604160045260246000fd5b905082013587610429565b60008381526020812092505b601f1987168110610690575085601f19811610610676575b5050600184811b01815561043d565b830135600019600387901b60f8161c191690558680610667565b9091602060018192858801358155019301910161064f565b816000526020600020601f860160051c8101602087106106e5575b601f830160051c820181106106d9575050610412565b600081556001016106c3565b50806106c3565b60405162461bcd60e51b815260206004820152602d60248201527f5369676e617475726573207265717569726564206d757374206265206772656160448201526c746572207468616e207a65726f60981b6064820152608490fd5b60405162461bcd60e51b815260206004820152602960248201527f596f752063616e206f6e6c7920637265617465206f6e65207065746974696f6e60448201526820706572207765656b60b81b6064820152608490fd5b634e487b7160e01b600052601160045260246000fd5b6107cd915060203d6020116102ba576102ac8183610b83565b866100c5565b346102cd5760403660031901126102cd576024356001600160a01b03818116918290036102cd57600591600435600052600260205261081e6040600020926004840154161515610cab565b60005201602052602060ff604060002054166040519015158152f35b346102cd5760003660031901126102cd576000546040516001600160a01b039091168152602090f35b346102cd5760003660031901126102cd576020600154604051908152f35b346102cd576020806003193601126102cd576004359081151580610a58575b6108a990610c69565b60008281526002825260409020600401546001600160a01b03906108d09082161515610cab565b82600052600282526108f060ff60046040600020015460a81c1615610cf7565b8260005260028252600460406000200191825491818184163314918215610a02575b5050156109ac5760ff8260a01c1661095d575060ff60a81b1916600160a81b17905533907f1c20d2a5de66651d389b480b25a5e4dbd5a0a59413141b40541c1b93e3911ea5600080a3005b6084906040519062461bcd60e51b82526004820152602260248201527f43616e6e6f742072656d6f7665206120636f6d706c657465642070657469746960448201526137b760f11b6064820152fd5b6084906040519062461bcd60e51b82526004820152602960248201527f4f6e6c792063726561746f72206f722061646d696e2063616e2072656d6f7665604482015268081c1c9bdc1bdcd85b60ba1b6064820152fd5b600054604051630935e01b60e21b8152336004820152935083916024918391165afa9081156102c157600091610a3b575b508186610912565b610a529150823d84116102ba576102ac8183610b83565b85610a33565b506001548211156108a0565b346102cd5760203660031901126102cd576004356000526002602052610adb6040600020600481015460ff60018060a01b03821691610aa4831515610cab565b6002840154926003850154610ae9610ac76001610ac089610d43565b9801610d43565b60405198899860e08a5260e08a0190610b15565b9088820360208a0152610b15565b94604087015260608601526080850152818160a01c16151560a085015260a81c16151560c08301520390f35b919082519283825260005b848110610b41575050826000602080949584010152601f8019910116010190565b602081830181015184830182015201610b20565b9181601f840112156102cd5782359167ffffffffffffffff83116102cd57602083818601950101116102cd57565b90601f8019910116810190811067ffffffffffffffff82111761062257604052565b908160209103126102cd575180151581036102cd5790565b15610bc457565b60405162461bcd60e51b8152602060048201526013602482015272155cd95c881b9bdd08185d5d1a1bdc9a5e9959606a1b6044820152606490fd5b600019811461079e5760010190565b90600182811c92168015610c3e575b6020831014610c2857565b634e487b7160e01b600052602260045260246000fd5b91607f1691610c1d565b908060209392818452848401376000828201840152601f01601f1916010190565b15610c7057565b60405162461bcd60e51b8152602060048201526013602482015272125b9d985b1a59081c195d1a5d1a5bdb881251606a1b6044820152606490fd5b15610cb257565b60405162461bcd60e51b815260206004820152601760248201527f5065746974696f6e20646f6573206e6f742065786973740000000000000000006044820152606490fd5b15610cfe57565b60405162461bcd60e51b815260206004820152601960248201527f5065746974696f6e20686173206265656e2072656d6f766564000000000000006044820152606490fd5b9060405191826000825492610d5784610c0e565b908184526001948581169081600014610dc65750600114610d83575b5050610d8192500383610b83565b565b9093915060005260209081600020936000915b818310610dae575050610d8193508201013880610d73565b85548884018501529485019487945091830191610d96565b915050610d8194506020925060ff191682840152151560051b8201013880610d7356fea2646970667358221220c7555625b146e58dc57a19982f2260838b4c0fef9ec6faa926da9a8978d49fa964736f6c63430008140033","opcodes":"PUSH1 0x80 CALLVALUE PUSH2 0xCB JUMPI PUSH1 0x1F PUSH2 0xF06 CODESIZE DUP2 SWAP1 SUB SWAP2 DUP3 ADD PUSH1 0x1F NOT AND DUP4 ADD SWAP2 PUSH1 0x1 PUSH1 0x1 PUSH1 0x40 SHL SUB DUP4 GT DUP5 DUP5 LT OR PUSH2 0xD0 JUMPI DUP1 DUP5 SWAP3 PUSH1 0x20 SWAP5 PUSH1 0x40 MSTORE DUP4 CODECOPY DUP2 ADD SUB SLT PUSH2 0xCB JUMPI MLOAD PUSH1 0x1 PUSH1 0x1 PUSH1 0xA0 SHL SUB DUP2 AND SWAP1 DUP2 SWAP1 SUB PUSH2 0xCB JUMPI DUP1 ISZERO PUSH2 0x7A JUMPI PUSH1 0x0 DUP1 SLOAD PUSH1 0x1 PUSH1 0x1 PUSH1 0xA0 SHL SUB NOT AND SWAP2 SWAP1 SWAP2 OR SWAP1 SSTORE PUSH1 0x40 MLOAD PUSH2 0xE1F SWAP1 DUP2 PUSH2 0xE7 DUP3 CODECOPY RETURN JUMPDEST PUSH1 0x40 MLOAD PUSH3 0x461BCD PUSH1 0xE5 SHL DUP2 MSTORE PUSH1 0x20 PUSH1 0x4 DUP3 ADD MSTORE PUSH1 0x24 DUP1 DUP3 ADD MSTORE PUSH32 0x4175746820726567697374727920616464726573732063616E6E6F7420626520 PUSH1 0x44 DUP3 ADD MSTORE PUSH4 0x7A65726F PUSH1 0xE0 SHL PUSH1 0x64 DUP3 ADD MSTORE PUSH1 0x84 SWAP1 REVERT JUMPDEST PUSH1 0x0 DUP1 REVERT JUMPDEST PUSH4 0x4E487B71 PUSH1 0xE0 SHL PUSH1 0x0 MSTORE PUSH1 0x41 PUSH1 0x4 MSTORE PUSH1 0x24 PUSH1 0x0 REVERT INVALID PUSH1 0x80 PUSH1 0x40 MSTORE PUSH1 0x4 CALLDATASIZE LT ISZERO PUSH2 0x12 JUMPI PUSH1 0x0 DUP1 REVERT JUMPDEST PUSH1 0x0 CALLDATALOAD PUSH1 0xE0 SHR DUP1 PUSH4 0xC90CE42 EQ PUSH2 0xA64 JUMPI DUP1 PUSH4 0x11B8AD6F EQ PUSH2 0x881 JUMPI DUP1 PUSH4 0x61AB1F09 EQ PUSH2 0x863 JUMPI DUP1 PUSH4 0x629E025A EQ PUSH2 0x83A JUMPI DUP1 PUSH4 0x709DF8D9 EQ PUSH2 0x7D3 JUMPI DUP1 PUSH4 0x990627EC EQ PUSH2 0x310 JUMPI DUP1 PUSH4 0xB94AFA71 EQ PUSH2 0x2D2 JUMPI PUSH4 0xDCAD0180 EQ PUSH2 0x74 JUMPI PUSH1 0x0 DUP1 REVERT JUMPDEST CALLVALUE PUSH2 0x2CD JUMPI PUSH1 0x20 DUP1 PUSH1 0x3 NOT CALLDATASIZE ADD SLT PUSH2 0x2CD JUMPI PUSH1 0x4 CALLDATALOAD SWAP1 PUSH1 0x1 DUP1 PUSH1 0xA0 SHL SUB SWAP1 PUSH1 0x24 DUP2 DUP4 PUSH1 0x0 SLOAD AND PUSH1 0x40 MLOAD SWAP3 DUP4 DUP1 SWAP3 PUSH4 0x1FD3F77 PUSH1 0xE7 SHL DUP3 MSTORE CALLER PUSH1 0x4 DUP4 ADD MSTORE GAS STATICCALL DUP1 ISZERO PUSH2 0x2C1 JUMPI PUSH2 0xCB SWAP2 PUSH1 0x0 SWAP2 PUSH2 0x294 JUMPI JUMPDEST POP PUSH2 0xBBD JUMP JUMPDEST DUP3 ISZERO ISZERO DUP1 PUSH2 0x288 JUMPI JUMPDEST PUSH2 0xDD SWAP1 PUSH2 0xC69 JUMP JUMPDEST DUP3 PUSH1 0x0 MSTORE PUSH1 0x2 DUP2 MSTORE PUSH2 0xFA DUP3 PUSH1 0x4 PUSH1 0x40 PUSH1 0x0 KECCAK256 ADD SLOAD AND ISZERO ISZERO PUSH2 0xCAB JUMP JUMPDEST DUP3 PUSH1 0x0 MSTORE PUSH1 0x2 DUP2 MSTORE PUSH2 0x11A PUSH1 0xFF PUSH1 0x4 PUSH1 0x40 PUSH1 0x0 KECCAK256 ADD SLOAD PUSH1 0xA8 SHR AND ISZERO PUSH2 0xCF7 JUMP JUMPDEST DUP3 PUSH1 0x0 MSTORE PUSH1 0x2 DUP2 MSTORE PUSH1 0x40 PUSH1 0x0 KECCAK256 SWAP1 PUSH1 0x4 DUP3 ADD SWAP3 DUP4 SLOAD PUSH1 0xFF DUP2 PUSH1 0xA0 SHR AND PUSH2 0x243 JUMPI PUSH2 0x146 SWAP2 AND ISZERO ISZERO PUSH2 0xCAB JUMP JUMPDEST PUSH1 0x5 DUP3 ADD SWAP1 CALLER PUSH1 0x0 MSTORE DUP2 DUP2 MSTORE PUSH1 0xFF PUSH1 0x40 PUSH1 0x0 KECCAK256 SLOAD AND PUSH2 0x1F1 JUMPI CALLER PUSH1 0x0 MSTORE MSTORE PUSH1 0x40 PUSH1 0x0 KECCAK256 PUSH1 0x1 PUSH1 0xFF NOT DUP3 SLOAD AND OR SWAP1 SSTORE PUSH1 0x2 PUSH1 0x3 DUP3 ADD SWAP2 PUSH2 0x185 DUP4 SLOAD PUSH2 0xBFF JUMP JUMPDEST DUP1 SWAP4 SSTORE CALLER DUP6 PUSH32 0xA24773234734FA56D66CE98FB6D0C8E4B38C3CE67E8A0CFA10756D0909BA4ED2 PUSH1 0x0 DUP1 LOG3 ADD SLOAD GT ISZERO PUSH2 0x1B9 JUMPI STOP JUMPDEST DUP1 SLOAD PUSH1 0xFF PUSH1 0xA0 SHL NOT AND PUSH1 0x1 PUSH1 0xA0 SHL OR SWAP1 SSTORE PUSH32 0x57B2843CCF810AD84ECFEBB6A0E6886490E559E0980A3656F8E16CEAC99F9152 PUSH1 0x0 DUP1 LOG2 STOP JUMPDEST PUSH1 0x84 SWAP1 PUSH1 0x40 MLOAD SWAP1 PUSH3 0x461BCD PUSH1 0xE5 SHL DUP3 MSTORE PUSH1 0x4 DUP3 ADD MSTORE PUSH1 0x25 PUSH1 0x24 DUP3 ADD MSTORE PUSH32 0x596F75206861766520616C7265616479207369676E6564207468697320706574 PUSH1 0x44 DUP3 ADD MSTORE PUSH5 0x34BA34B7B7 PUSH1 0xD9 SHL PUSH1 0x64 DUP3 ADD MSTORE REVERT JUMPDEST PUSH1 0x40 MLOAD PUSH3 0x461BCD PUSH1 0xE5 SHL DUP2 MSTORE PUSH1 0x4 DUP2 ADD DUP5 SWAP1 MSTORE PUSH1 0x1A PUSH1 0x24 DUP3 ADD MSTORE PUSH32 0x5065746974696F6E20616C726561647920636F6D706C65746564000000000000 PUSH1 0x44 DUP3 ADD MSTORE PUSH1 0x64 SWAP1 REVERT JUMPDEST POP PUSH1 0x1 SLOAD DUP4 GT ISZERO PUSH2 0xD4 JUMP JUMPDEST PUSH2 0x2B4 SWAP2 POP DUP4 RETURNDATASIZE DUP6 GT PUSH2 0x2BA JUMPI JUMPDEST PUSH2 0x2AC DUP2 DUP4 PUSH2 0xB83 JUMP JUMPDEST DUP2 ADD SWAP1 PUSH2 0xBA5 JUMP JUMPDEST CODESIZE PUSH2 0xC5 JUMP JUMPDEST POP RETURNDATASIZE PUSH2 0x2A2 JUMP JUMPDEST PUSH1 0x40 MLOAD RETURNDATASIZE PUSH1 0x0 DUP3 RETURNDATACOPY RETURNDATASIZE SWAP1 REVERT JUMPDEST PUSH1 0x0 DUP1 REVERT JUMPDEST CALLVALUE PUSH2 0x2CD JUMPI PUSH1 0x20 CALLDATASIZE PUSH1 0x3 NOT ADD SLT PUSH2 0x2CD JUMPI PUSH1 0x4 CALLDATALOAD PUSH1 0x1 PUSH1 0x1 PUSH1 0xA0 SHL SUB DUP2 AND SWAP1 DUP2 SWAP1 SUB PUSH2 0x2CD JUMPI PUSH1 0x0 MSTORE PUSH1 0x3 PUSH1 0x20 MSTORE PUSH1 0x20 PUSH1 0x40 PUSH1 0x0 KECCAK256 SLOAD PUSH1 0x40 MLOAD SWAP1 DUP2 MSTORE RETURN JUMPDEST CALLVALUE PUSH2 0x2CD JUMPI PUSH1 0x60 CALLDATASIZE PUSH1 0x3 NOT ADD SLT PUSH2 0x2CD JUMPI PUSH1 0x4 CALLDATALOAD PUSH8 0xFFFFFFFFFFFFFFFF DUP2 GT PUSH2 0x2CD JUMPI PUSH2 0x341 SWAP1 CALLDATASIZE SWAP1 PUSH1 0x4 ADD PUSH2 0xB55 JUMP JUMPDEST SWAP1 PUSH1 0x24 CALLDATALOAD PUSH8 0xFFFFFFFFFFFFFFFF DUP2 GT PUSH2 0x2CD JUMPI PUSH2 0x362 SWAP1 CALLDATASIZE SWAP1 PUSH1 0x4 ADD PUSH2 0xB55 JUMP JUMPDEST PUSH1 0x0 SLOAD PUSH1 0x40 MLOAD PUSH4 0x1FD3F77 PUSH1 0xE7 SHL DUP2 MSTORE CALLER PUSH1 0x4 DUP3 ADD MSTORE SWAP3 SWAP5 SWAP3 SWAP1 PUSH1 0x20 SWAP1 DUP3 SWAP1 PUSH1 0x24 SWAP1 DUP3 SWAP1 PUSH1 0x1 PUSH1 0x1 PUSH1 0xA0 SHL SUB AND GAS STATICCALL DUP1 ISZERO PUSH2 0x2C1 JUMPI PUSH2 0x3A8 SWAP2 PUSH1 0x0 SWAP2 PUSH2 0x7B4 JUMPI POP PUSH2 0xBBD JUMP JUMPDEST CALLER PUSH1 0x0 MSTORE PUSH1 0x3 PUSH1 0x20 MSTORE PUSH1 0x40 PUSH1 0x0 KECCAK256 SLOAD PUSH3 0x93A80 DUP2 ADD DUP1 SWAP2 GT PUSH2 0x79E JUMPI TIMESTAMP LT PUSH2 0x747 JUMPI PUSH1 0x44 CALLDATALOAD ISZERO PUSH2 0x6EC JUMPI PUSH2 0x3DD PUSH1 0x1 SLOAD PUSH2 0xBFF JUMP JUMPDEST SWAP3 DUP4 PUSH1 0x1 SSTORE DUP4 PUSH1 0x0 MSTORE PUSH1 0x2 PUSH1 0x20 MSTORE PUSH1 0x40 PUSH1 0x0 KECCAK256 PUSH8 0xFFFFFFFFFFFFFFFF DUP5 GT PUSH2 0x622 JUMPI PUSH2 0x409 DUP2 SLOAD PUSH2 0xC0E JUMP JUMPDEST PUSH1 0x1F DUP2 GT PUSH2 0x6A8 JUMPI JUMPDEST POP DUP4 PUSH1 0x0 PUSH1 0x1F DUP3 GT PUSH1 0x1 EQ PUSH2 0x643 JUMPI PUSH1 0x0 SWAP2 PUSH2 0x638 JUMPI JUMPDEST POP DUP5 PUSH1 0x1 SHL SWAP1 PUSH1 0x0 NOT DUP7 PUSH1 0x3 SHL SHR NOT AND OR DUP2 SSTORE JUMPDEST PUSH8 0xFFFFFFFFFFFFFFFF DUP4 GT PUSH2 0x622 JUMPI PUSH2 0x459 PUSH1 0x1 DUP3 ADD SLOAD PUSH2 0xC0E JUMP JUMPDEST PUSH1 0x1F DUP2 GT PUSH2 0x5DB JUMPI JUMPDEST POP SWAP2 PUSH1 0x20 SWAP6 SWAP2 DUP6 SWAP4 PUSH1 0x0 PUSH1 0x1F DUP5 GT PUSH1 0x1 EQ PUSH2 0x540 JUMPI PUSH32 0x98ACDB43185FDB133376BD108D5907728BA783AB8330E33F6F8AE0895C5C7881 SWAP5 SWAP3 PUSH1 0x0 PUSH1 0x3 DUP7 SWAP5 PUSH2 0x51E SWAP8 PUSH2 0x511 SWAP6 DUP5 SWAP2 PUSH2 0x535 JUMPI JUMPDEST POP DUP7 PUSH1 0x1 SHL SWAP1 DUP5 NOT DUP9 DUP6 SHL SHR NOT AND OR PUSH1 0x1 DUP3 ADD SSTORE JUMPDEST PUSH1 0x44 CALLDATALOAD PUSH1 0x2 DUP3 ADD SSTORE PUSH1 0x4 DUP2 ADD DUP1 SLOAD PUSH2 0xFFFF PUSH1 0xA0 SHL NOT CALLER AND SWAP1 PUSH10 0xFFFFFFFFFFFFFFFFFFFF PUSH1 0xB0 SHL AND OR SWAP1 SSTORE ADD SSTORE CALLER PUSH1 0x0 MSTORE PUSH1 0x3 DUP11 MSTORE TIMESTAMP PUSH1 0x40 PUSH1 0x0 KECCAK256 SSTORE PUSH1 0x40 MLOAD SWAP8 PUSH1 0x60 DUP10 MSTORE PUSH1 0x60 DUP10 ADD SWAP2 PUSH2 0xC48 JUMP JUMPDEST SWAP2 DUP7 DUP4 SUB DUP10 DUP9 ADD MSTORE PUSH2 0xC48 JUMP JUMPDEST SWAP3 PUSH1 0x44 CALLDATALOAD PUSH1 0x40 DUP3 ADD MSTORE DUP1 CALLER SWAP5 SUB SWAP1 LOG3 PUSH1 0x40 MLOAD SWAP1 DUP2 MSTORE RETURN JUMPDEST SWAP1 POP DUP8 ADD CALLDATALOAD DUP15 PUSH2 0x4AF JUMP JUMPDEST PUSH1 0x1 DUP3 ADD PUSH1 0x0 MSTORE DUP9 PUSH1 0x0 KECCAK256 SWAP1 PUSH1 0x0 JUMPDEST PUSH1 0x1F NOT DUP7 AND DUP2 LT PUSH2 0x5C1 JUMPI POP SWAP3 PUSH1 0x0 PUSH1 0x3 DUP7 SWAP5 PUSH2 0x511 SWAP5 PUSH32 0x98ACDB43185FDB133376BD108D5907728BA783AB8330E33F6F8AE0895C5C7881 SWAP10 SWAP8 PUSH2 0x51E SWAP10 PUSH1 0x1F NOT DUP2 AND LT PUSH2 0x5AA JUMPI JUMPDEST POP POP PUSH1 0x1 DUP7 DUP2 SHL ADD PUSH1 0x1 DUP3 ADD SSTORE PUSH2 0x4C4 JUMP JUMPDEST DUP9 ADD CALLDATALOAD DUP5 NOT DUP9 DUP6 SHL PUSH1 0xF8 AND SHR NOT AND SWAP1 SSTORE DUP14 DUP1 PUSH2 0x598 JUMP JUMPDEST DUP2 DUP8 ADD CALLDATALOAD DUP4 SSTORE DUP10 SWAP8 POP PUSH1 0x1 SWAP1 SWAP3 ADD SWAP2 SWAP1 DUP11 ADD SWAP1 DUP11 ADD PUSH2 0x54F JUMP JUMPDEST PUSH1 0x1 DUP3 ADD PUSH1 0x0 MSTORE PUSH1 0x20 PUSH1 0x0 KECCAK256 PUSH1 0x1F DUP6 ADD PUSH1 0x5 SHR DUP2 ADD PUSH1 0x20 DUP7 LT PUSH2 0x61B JUMPI JUMPDEST PUSH1 0x1F DUP4 ADD PUSH1 0x5 SHR DUP3 ADD DUP2 LT PUSH2 0x60F JUMPI POP POP PUSH2 0x462 JUMP JUMPDEST PUSH1 0x0 DUP2 SSTORE PUSH1 0x1 ADD PUSH2 0x5F9 JUMP JUMPDEST POP DUP1 PUSH2 0x5F9 JUMP JUMPDEST PUSH4 0x4E487B71 PUSH1 0xE0 SHL PUSH1 0x0 MSTORE PUSH1 0x41 PUSH1 0x4 MSTORE PUSH1 0x24 PUSH1 0x0 REVERT JUMPDEST SWAP1 POP DUP3 ADD CALLDATALOAD DUP8 PUSH2 0x429 JUMP JUMPDEST PUSH1 0x0 DUP4 DUP2 MSTORE PUSH1 0x20 DUP2 KECCAK256 SWAP3 POP JUMPDEST PUSH1 0x1F NOT DUP8 AND DUP2 LT PUSH2 0x690 JUMPI POP DUP6 PUSH1 0x1F NOT DUP2 AND LT PUSH2 0x676 JUMPI JUMPDEST POP POP PUSH1 0x1 DUP5 DUP2 SHL ADD DUP2 SSTORE PUSH2 0x43D JUMP JUMPDEST DUP4 ADD CALLDATALOAD PUSH1 0x0 NOT PUSH1 0x3 DUP8 SWAP1 SHL PUSH1 0xF8 AND SHR NOT AND SWAP1 SSTORE DUP7 DUP1 PUSH2 0x667 JUMP JUMPDEST SWAP1 SWAP2 PUSH1 0x20 PUSH1 0x1 DUP2 SWAP3 DUP6 DUP9 ADD CALLDATALOAD DUP2 SSTORE ADD SWAP4 ADD SWAP2 ADD PUSH2 0x64F JUMP JUMPDEST DUP2 PUSH1 0x0 MSTORE PUSH1 0x20 PUSH1 0x0 KECCAK256 PUSH1 0x1F DUP7 ADD PUSH1 0x5 SHR DUP2 ADD PUSH1 0x20 DUP8 LT PUSH2 0x6E5 JUMPI JUMPDEST PUSH1 0x1F DUP4 ADD PUSH1 0x5 SHR DUP3 ADD DUP2 LT PUSH2 0x6D9 JUMPI POP POP PUSH2 0x412 JUMP JUMPDEST PUSH1 0x0 DUP2 SSTORE PUSH1 0x1 ADD PUSH2 0x6C3 JUMP JUMPDEST POP DUP1 PUSH2 0x6C3 JUMP JUMPDEST PUSH1 0x40 MLOAD PUSH3 0x461BCD PUSH1 0xE5 SHL DUP2 MSTORE PUSH1 0x20 PUSH1 0x4 DUP3 ADD MSTORE PUSH1 0x2D PUSH1 0x24 DUP3 ADD MSTORE PUSH32 0x5369676E617475726573207265717569726564206D7573742062652067726561 PUSH1 0x44 DUP3 ADD MSTORE PUSH13 0x746572207468616E207A65726F PUSH1 0x98 SHL PUSH1 0x64 DUP3 ADD MSTORE PUSH1 0x84 SWAP1 REVERT JUMPDEST PUSH1 0x40 MLOAD PUSH3 0x461BCD PUSH1 0xE5 SHL DUP2 MSTORE PUSH1 0x20 PUSH1 0x4 DUP3 ADD MSTORE PUSH1 0x29 PUSH1 0x24 DUP3 ADD MSTORE PUSH32 0x596F752063616E206F6E6C7920637265617465206F6E65207065746974696F6E PUSH1 0x44 DUP3 ADD MSTORE PUSH9 0x20706572207765656B PUSH1 0xB8 SHL PUSH1 0x64 DUP3 ADD MSTORE PUSH1 0x84 SWAP1 REVERT JUMPDEST PUSH4 0x4E487B71 PUSH1 0xE0 SHL PUSH1 0x0 MSTORE PUSH1 0x11 PUSH1 0x4 MSTORE PUSH1 0x24 PUSH1 0x0 REVERT JUMPDEST PUSH2 0x7CD SWAP2 POP PUSH1 0x20 RETURNDATASIZE PUSH1 0x20 GT PUSH2 0x2BA JUMPI PUSH2 0x2AC DUP2 DUP4 PUSH2 0xB83 JUMP JUMPDEST DUP7 PUSH2 0xC5 JUMP JUMPDEST CALLVALUE PUSH2 0x2CD JUMPI PUSH1 0x40 CALLDATASIZE PUSH1 0x3 NOT ADD SLT PUSH2 0x2CD JUMPI PUSH1 0x24 CALLDATALOAD PUSH1 0x1 PUSH1 0x1 PUSH1 0xA0 SHL SUB DUP2 DUP2 AND SWAP2 DUP3 SWAP1 SUB PUSH2 0x2CD JUMPI PUSH1 0x5 SWAP2 PUSH1 0x4 CALLDATALOAD PUSH1 0x0 MSTORE PUSH1 0x2 PUSH1 0x20 MSTORE PUSH2 0x81E PUSH1 0x40 PUSH1 0x0 KECCAK256 SWAP3 PUSH1 0x4 DUP5 ADD SLOAD AND ISZERO ISZERO PUSH2 0xCAB JUMP JUMPDEST PUSH1 0x0 MSTORE ADD PUSH1 0x20 MSTORE PUSH1 0x20 PUSH1 0xFF PUSH1 0x40 PUSH1 0x0 KECCAK256 SLOAD AND PUSH1 0x40 MLOAD SWAP1 ISZERO ISZERO DUP2 MSTORE RETURN JUMPDEST CALLVALUE PUSH2 0x2CD JUMPI PUSH1 0x0 CALLDATASIZE PUSH1 0x3 NOT ADD SLT PUSH2 0x2CD JUMPI PUSH1 0x0 SLOAD PUSH1 0x40 MLOAD PUSH1 0x1 PUSH1 0x1 PUSH1 0xA0 SHL SUB SWAP1 SWAP2 AND DUP2 MSTORE PUSH1 0x20 SWAP1 RETURN JUMPDEST CALLVALUE PUSH2 0x2CD JUMPI PUSH1 0x0 CALLDATASIZE PUSH1 0x3 NOT ADD SLT PUSH2 0x2CD JUMPI PUSH1 0x20 PUSH1 0x1 SLOAD PUSH1 0x40 MLOAD SWAP1 DUP2 MSTORE RETURN JUMPDEST CALLVALUE PUSH2 0x2CD JUMPI PUSH1 0x20 DUP1 PUSH1 0x3 NOT CALLDATASIZE ADD SLT PUSH2 0x2CD JUMPI PUSH1 0x4 CALLDATALOAD SWAP1 DUP2 ISZERO ISZERO DUP1 PUSH2 0xA58 JUMPI JUMPDEST PUSH2 0x8A9 SWAP1 PUSH2 0xC69 JUMP JUMPDEST PUSH1 0x0 DUP3 DUP2 MSTORE PUSH1 0x2 DUP3 MSTORE PUSH1 0x40 SWAP1 KECCAK256 PUSH1 0x4 ADD SLOAD PUSH1 0x1 PUSH1 0x1 PUSH1 0xA0 SHL SUB SWAP1 PUSH2 0x8D0 SWAP1 DUP3 AND ISZERO ISZERO PUSH2 0xCAB JUMP JUMPDEST DUP3 PUSH1 0x0 MSTORE PUSH1 0x2 DUP3 MSTORE PUSH2 0x8F0 PUSH1 0xFF PUSH1 0x4 PUSH1 0x40 PUSH1 0x0 KECCAK256 ADD SLOAD PUSH1 0xA8 SHR AND ISZERO PUSH2 0xCF7 JUMP JUMPDEST DUP3 PUSH1 0x0 MSTORE PUSH1 0x2 DUP3 MSTORE PUSH1 0x4 PUSH1 0x40 PUSH1 0x0 KECCAK256 ADD SWAP2 DUP3 SLOAD SWAP2 DUP2 DUP2 DUP5 AND CALLER EQ SWAP2 DUP3 ISZERO PUSH2 0xA02 JUMPI JUMPDEST POP POP ISZERO PUSH2 0x9AC JUMPI PUSH1 0xFF DUP3 PUSH1 0xA0 SHR AND PUSH2 0x95D JUMPI POP PUSH1 0xFF PUSH1 0xA8 SHL NOT AND PUSH1 0x1 PUSH1 0xA8 SHL OR SWAP1 SSTORE CALLER SWAP1 PUSH32 0x1C20D2A5DE66651D389B480B25A5E4DBD5A0A59413141B40541C1B93E3911EA5 PUSH1 0x0 DUP1 LOG3 STOP JUMPDEST PUSH1 0x84 SWAP1 PUSH1 0x40 MLOAD SWAP1 PUSH3 0x461BCD PUSH1 0xE5 SHL DUP3 MSTORE PUSH1 0x4 DUP3 ADD MSTORE PUSH1 0x22 PUSH1 0x24 DUP3 ADD MSTORE PUSH32 0x43616E6E6F742072656D6F7665206120636F6D706C6574656420706574697469 PUSH1 0x44 DUP3 ADD MSTORE PUSH2 0x37B7 PUSH1 0xF1 SHL PUSH1 0x64 DUP3 ADD MSTORE REVERT JUMPDEST PUSH1 0x84 SWAP1 PUSH1 0x40 MLOAD SWAP1 PUSH3 0x461BCD PUSH1 0xE5 SHL DUP3 MSTORE PUSH1 0x4 DUP3 ADD MSTORE PUSH1 0x29 PUSH1 0x24 DUP3 ADD MSTORE PUSH32 0x4F6E6C792063726561746F72206F722061646D696E2063616E2072656D6F7665 PUSH1 0x44 DUP3 ADD MSTORE PUSH9 0x81C1C9BDC1BDCD85B PUSH1 0xBA SHL PUSH1 0x64 DUP3 ADD MSTORE REVERT JUMPDEST PUSH1 0x0 SLOAD PUSH1 0x40 MLOAD PUSH4 0x935E01B PUSH1 0xE2 SHL DUP2 MSTORE CALLER PUSH1 0x4 DUP3 ADD MSTORE SWAP4 POP DUP4 SWAP2 PUSH1 0x24 SWAP2 DUP4 SWAP2 AND GAS STATICCALL SWAP1 DUP2 ISZERO PUSH2 0x2C1 JUMPI PUSH1 0x0 SWAP2 PUSH2 0xA3B JUMPI JUMPDEST POP DUP2 DUP7 PUSH2 0x912 JUMP JUMPDEST PUSH2 0xA52 SWAP2 POP DUP3 RETURNDATASIZE DUP5 GT PUSH2 0x2BA JUMPI PUSH2 0x2AC DUP2 DUP4 PUSH2 0xB83 JUMP JUMPDEST DUP6 PUSH2 0xA33 JUMP JUMPDEST POP PUSH1 0x1 SLOAD DUP3 GT ISZERO PUSH2 0x8A0 JUMP JUMPDEST CALLVALUE PUSH2 0x2CD JUMPI PUSH1 0x20 CALLDATASIZE PUSH1 0x3 NOT ADD SLT PUSH2 0x2CD JUMPI PUSH1 0x4 CALLDATALOAD PUSH1 0x0 MSTORE PUSH1 0x2 PUSH1 0x20 MSTORE PUSH2 0xADB PUSH1 0x40 PUSH1 0x0 KECCAK256 PUSH1 0x4 DUP2 ADD SLOAD PUSH1 0xFF PUSH1 0x1 DUP1 PUSH1 0xA0 SHL SUB DUP3 AND SWAP2 PUSH2 0xAA4 DUP4 ISZERO ISZERO PUSH2 0xCAB JUMP JUMPDEST PUSH1 0x2 DUP5 ADD SLOAD SWAP3 PUSH1 0x3 DUP6 ADD SLOAD PUSH2 0xAE9 PUSH2 0xAC7 PUSH1 0x1 PUSH2 0xAC0 DUP10 PUSH2 0xD43 JUMP JUMPDEST SWAP9 ADD PUSH2 0xD43 JUMP JUMPDEST PUSH1 0x40 MLOAD SWAP9 DUP10 SWAP9 PUSH1 0xE0 DUP11 MSTORE PUSH1 0xE0 DUP11 ADD SWAP1 PUSH2 0xB15 JUMP JUMPDEST SWAP1 DUP9 DUP3 SUB PUSH1 0x20 DUP11 ADD MSTORE PUSH2 0xB15 JUMP JUMPDEST SWAP5 PUSH1 0x40 DUP8 ADD MSTORE PUSH1 0x60 DUP7 ADD MSTORE PUSH1 0x80 DUP6 ADD MSTORE DUP2 DUP2 PUSH1 0xA0 SHR AND ISZERO ISZERO PUSH1 0xA0 DUP6 ADD MSTORE PUSH1 0xA8 SHR AND ISZERO ISZERO PUSH1 0xC0 DUP4 ADD MSTORE SUB SWAP1 RETURN JUMPDEST SWAP2 SWAP1 DUP3 MLOAD SWAP3 DUP4 DUP3 MSTORE PUSH1 0x0 JUMPDEST DUP5 DUP2 LT PUSH2 0xB41 JUMPI POP POP DUP3 PUSH1 0x0 PUSH1 0x20 DUP1 SWAP5 SWAP6 DUP5 ADD ADD MSTORE PUSH1 0x1F DUP1 NOT SWAP2 ADD AND ADD ADD SWAP1 JUMP JUMPDEST PUSH1 0x20 DUP2 DUP4 ADD DUP2 ADD MLOAD DUP5 DUP4 ADD DUP3 ADD MSTORE ADD PUSH2 0xB20 JUMP JUMPDEST SWAP2 DUP2 PUSH1 0x1F DUP5 ADD SLT ISZERO PUSH2 0x2CD JUMPI DUP3 CALLDATALOAD SWAP2 PUSH8 0xFFFFFFFFFFFFFFFF DUP4 GT PUSH2 0x2CD JUMPI PUSH1 0x20 DUP4 DUP2 DUP7 ADD SWAP6 ADD ADD GT PUSH2 0x2CD JUMPI JUMP JUMPDEST SWAP1 PUSH1 0x1F DUP1 NOT SWAP2 ADD AND DUP2 ADD SWAP1 DUP2 LT PUSH8 0xFFFFFFFFFFFFFFFF DUP3 GT OR PUSH2 0x622 JUMPI PUSH1 0x40 MSTORE JUMP JUMPDEST SWAP1 DUP2 PUSH1 0x20 SWAP2 SUB SLT PUSH2 0x2CD JUMPI MLOAD DUP1 ISZERO ISZERO DUP2 SUB PUSH2 0x2CD JUMPI SWAP1 JUMP JUMPDEST ISZERO PUSH2 0xBC4 JUMPI JUMP JUMPDEST PUSH1 0x40 MLOAD PUSH3 0x461BCD PUSH1 0xE5 SHL DUP2 MSTORE PUSH1 0x20 PUSH1 0x4 DUP3 ADD MSTORE PUSH1 0x13 PUSH1 0x24 DUP3 ADD MSTORE PUSH19 0x155CD95C881B9BDD08185D5D1A1BDC9A5E9959 PUSH1 0x6A SHL PUSH1 0x44 DUP3 ADD MSTORE PUSH1 0x64 SWAP1 REVERT JUMPDEST PUSH1 0x0 NOT DUP2 EQ PUSH2 0x79E JUMPI PUSH1 0x1 ADD SWAP1 JUMP JUMPDEST SWAP1 PUSH1 0x1 DUP3 DUP2 SHR SWAP3 AND DUP1 ISZERO PUSH2 0xC3E JUMPI JUMPDEST PUSH1 0x20 DUP4 LT EQ PUSH2 0xC28 JUMPI JUMP JUMPDEST PUSH4 0x4E487B71 PUSH1 0xE0 SHL PUSH1 0x0 MSTORE PUSH1 0x22 PUSH1 0x4 MSTORE PUSH1 0x24 PUSH1 0x0 REVERT JUMPDEST SWAP2 PUSH1 0x7F AND SWAP2 PUSH2 0xC1D JUMP JUMPDEST SWAP1 DUP1 PUSH1 0x20 SWAP4 SWAP3 DUP2 DUP5 MSTORE DUP5 DUP5 ADD CALLDATACOPY PUSH1 0x0 DUP3 DUP3 ADD DUP5 ADD MSTORE PUSH1 0x1F ADD PUSH1 0x1F NOT AND ADD ADD SWAP1 JUMP JUMPDEST ISZERO PUSH2 0xC70 JUMPI JUMP JUMPDEST PUSH1 0x40 MLOAD PUSH3 0x461BCD PUSH1 0xE5 SHL DUP2 MSTORE PUSH1 0x20 PUSH1 0x4 DUP3 ADD MSTORE PUSH1 0x13 PUSH1 0x24 DUP3 ADD MSTORE PUSH19 0x125B9D985B1A59081C195D1A5D1A5BDB881251 PUSH1 0x6A SHL PUSH1 0x44 DUP3 ADD MSTORE PUSH1 0x64 SWAP1 REVERT JUMPDEST ISZERO PUSH2 0xCB2 JUMPI JUMP JUMPDEST PUSH1 0x40 MLOAD PUSH3 0x461BCD PUSH1 0xE5 SHL DUP2 MSTORE PUSH1 0x20 PUSH1 0x4 DUP3 ADD MSTORE PUSH1 0x17 PUSH1 0x24 DUP3 ADD MSTORE PUSH32 0x5065746974696F6E20646F6573206E6F74206578697374000000000000000000 PUSH1 0x44 DUP3 ADD MSTORE PUSH1 0x64 SWAP1 REVERT JUMPDEST ISZERO PUSH2 0xCFE JUMPI JUMP JUMPDEST PUSH1 0x40 MLOAD PUSH3 0x461BCD PUSH1 0xE5 SHL DUP2 MSTORE PUSH1 0x20 PUSH1 0x4 DUP3 ADD MSTORE PUSH1 0x19 PUSH1 0x24 DUP3 ADD MSTORE PUSH32 0x5065746974696F6E20686173206265656E2072656D6F76656400000000000000 PUSH1 0x44 DUP3 ADD MSTORE PUSH1 0x64 SWAP1 REVERT JUMPDEST SWAP1 PUSH1 0x40 MLOAD SWAP2 DUP3 PUSH1 0x0 DUP3 SLOAD SWAP3 PUSH2 0xD57 DUP5 PUSH2 0xC0E JUMP JUMPDEST SWAP1 DUP2 DUP5 MSTORE PUSH1 0x1 SWAP5 DUP6 DUP2 AND SWAP1 DUP2 PUSH1 0x0 EQ PUSH2 0xDC6 JUMPI POP PUSH1 0x1 EQ PUSH2 0xD83 JUMPI JUMPDEST POP POP PUSH2 0xD81 SWAP3 POP SUB DUP4 PUSH2 0xB83 JUMP JUMPDEST JUMP JUMPDEST SWAP1 SWAP4 SWAP2 POP PUSH1 0x0 MSTORE PUSH1 0x20 SWAP1 DUP2 PUSH1 0x0 KECCAK256 SWAP4 PUSH1 0x0 SWAP2 JUMPDEST DUP2 DUP4 LT PUSH2 0xDAE JUMPI POP POP PUSH2 0xD81 SWAP4 POP DUP3 ADD ADD CODESIZE DUP1 PUSH2 0xD73 JUMP JUMPDEST DUP6 SLOAD DUP9 DUP5 ADD DUP6 ADD MSTORE SWAP5 DUP6 ADD SWAP5 DUP8 SWAP5 POP SWAP2 DUP4 ADD SWAP2 PUSH2 0xD96 JUMP JUMPDEST SWAP2 POP POP PUSH2 0xD81 SWAP5 POP PUSH1 0x20 SWAP3 POP PUSH1 0xFF NOT AND DUP3 DUP5 ADD MSTORE ISZERO ISZERO PUSH1 0x5 SHL DUP3 ADD ADD CODESIZE DUP1 PUSH2 0xD73 JUMP INVALID LOG2 PUSH5 0x6970667358 0x22 SLT KECCAK256 0xC7 SSTORE JUMP 0x25 0xB1 CHAINID 0xE5 DUP14 0xC5 PUSH27 0x19982F2260838B4C0FEF9EC6FAA926DA9A8978D49FA964736F6C63 NUMBER STOP ADDMOD EQ STOP CALLER "},"methodIdentifiers":{"authRegistry()":"629e025a","createPetition(string,string,uint256)":"990627ec","getPetition(uint256)":"0c90ce42","hasSigned(uint256,address)":"709df8d9","lastCreatedAt(address)":"b94afa71","petitionCount()":"61ab1f09","removePetition(uint256)":"11b8ad6f","signPetition(uint256)":"dcad0180"}}}}}