{"contracts/proposal/proposals.sol":{"Proposals":{"abi":[{"inputs":[{"internalType":"address","name":"_authRegistry","type":"address"}],"stateMutability":"nonpayable","type":"constructor"},{"anonymous":false,"inputs":[{"indexed":true,"internalType":"uint256","name":"proposalId","type":"uint256"},{"indexed":true,"internalType":"address","name":"creator","type":"address"},{"indexed":false,"internalType":"string","name":"titleCid","type":"string"},{"indexed":false,"internalType":"string","name":"shortDescriptionCid","type":"string"},{"indexed":false,"internalType":"string","name":"descriptionInDetailsCid","type":"string"},{"indexed":false,"internalType":"uint256","name":"categoryId","type":"uint256"},{"indexed":false,"internalType":"uint256","name":"expiredDate","type":"uint256"}],"name":"ProposalCreated","type":"event"},{"anonymous":false,"inputs":[{"indexed":true,"internalType":"uint256","name":"proposalId","type":"uint256"},{"indexed":false,"internalType":"uint256","name":"expiredAt","type":"uint256"}],"name":"ProposalExpired","type":"event"},{"anonymous":false,"inputs":[{"indexed":true,"internalType":"uint256","name":"proposalId","type":"uint256"},{"indexed":false,"internalType":"bool","name":"activeStatus","type":"bool"}],"name":"ProposalStatusChanged","type":"event"},{"anonymous":false,"inputs":[{"indexed":true,"internalType":"uint256","name":"proposalId","type":"uint256"},{"indexed":true,"internalType":"address","name":"voter","type":"address"}],"name":"ProposalVotedNo","type":"event"},{"anonymous":false,"inputs":[{"indexed":true,"internalType":"uint256","name":"proposalId","type":"uint256"},{"indexed":true,"internalType":"address","name":"voter","type":"address"}],"name":"ProposalVotedYes","type":"event"},{"inputs":[],"name":"authRegistry","outputs":[{"internalType":"contract IAuthRegistry","name":"","type":"address"}],"stateMutability":"view","type":"function"},{"inputs":[{"internalType":"uint256","name":"proposalId","type":"uint256"},{"internalType":"bool","name":"newStatus","type":"bool"}],"name":"changeProposalStatus","outputs":[],"stateMutability":"nonpayable","type":"function"},{"inputs":[{"internalType":"string","name":"titleCid","type":"string"},{"internalType":"string","name":"shortDescriptionCid","type":"string"},{"internalType":"string","name":"descriptionInDetailsCid","type":"string"},{"internalType":"uint256","name":"categoryId","type":"uint256"},{"internalType":"uint256","name":"expiredDate","type":"uint256"}],"name":"createProposal","outputs":[{"internalType":"uint256","name":"","type":"uint256"}],"stateMutability":"nonpayable","type":"function"},{"inputs":[{"internalType":"uint256","name":"proposalId","type":"uint256"}],"name":"expireProposal","outputs":[],"stateMutability":"nonpayable","type":"function"},{"inputs":[{"internalType":"uint256","name":"proposalId","type":"uint256"},{"internalType":"uint256","name":"newExpiredDate","type":"uint256"}],"name":"extendProposalDeadline","outputs":[],"stateMutability":"nonpayable","type":"function"},{"inputs":[{"internalType":"uint256","name":"proposalId","type":"uint256"}],"name":"getProposal","outputs":[{"internalType":"string","name":"titleCid","type":"string"},{"internalType":"string","name":"shortDescriptionCid","type":"string"},{"internalType":"string","name":"descriptionInDetailsCid","type":"string"},{"internalType":"uint256","name":"yesVotes","type":"uint256"},{"internalType":"uint256","name":"noVotes","type":"uint256"},{"internalType":"address","name":"creator","type":"address"},{"internalType":"bool","name":"activeStatus","type":"bool"},{"internalType":"uint256","name":"expiredDate","type":"uint256"},{"internalType":"uint256","name":"categoryId","type":"uint256"},{"internalType":"uint256","name":"createdAt","type":"uint256"},{"internalType":"uint256","name":"updatedAt","type":"uint256"},{"internalType":"bool","name":"removed","type":"bool"}],"stateMutability":"view","type":"function"},{"inputs":[{"internalType":"uint256","name":"proposalId","type":"uint256"}],"name":"getProposalVotes","outputs":[{"internalType":"uint256","name":"yesVotes","type":"uint256"},{"internalType":"uint256","name":"noVotes","type":"uint256"},{"internalType":"int256","name":"netVotes","type":"int256"},{"internalType":"uint256","name":"totalVotes","type":"uint256"},{"internalType":"uint256","name":"yesPercentage","type":"uint256"}],"stateMutability":"view","type":"function"},{"inputs":[{"internalType":"address","name":"","type":"address"}],"name":"lastCreatedAt","outputs":[{"internalType":"uint256","name":"","type":"uint256"}],"stateMutability":"view","type":"function"},{"inputs":[],"name":"proposalCount","outputs":[{"internalType":"uint256","name":"","type":"uint256"}],"stateMutability":"view","type":"function"},{"inputs":[{"internalType":"uint256","name":"proposalId","type":"uint256"}],"name":"removeProposal","outputs":[],"stateMutability":"nonpayable","type":"function"},{"inputs":[{"internalType":"uint256","name":"proposalId","type":"uint256"}],"name":"removeVote","outputs":[],"stateMutability":"nonpayable","type":"function"},{"inputs":[{"internalType":"uint256","name":"proposalId","type":"uint256"}],"name":"voteNo","outputs":[],"stateMutability":"nonpayable","type":"function"},{"inputs":[{"internalType":"uint256","name":"proposalId","type":"uint256"}],"name":"voteYes","outputs":[],"stateMutability":"nonpayable","type":"function"}],"evm":{"bytecode":{"linkReferences":{},"object":"6080346100cb57601f611af538819003918201601f19168301916001600160401b038311848410176100d0578084926020946040528339810103126100cb57516001600160a01b038116908190036100cb57801561007a57600080546001600160a01b031916919091179055604051611a0e90816100e78239f35b60405162461bcd60e51b8152602060048201526024808201527f4175746820726567697374727920616464726573732063616e6e6f74206265206044820152637a65726f60e01b6064820152608490fd5b600080fd5b634e487b7160e01b600052604160045260246000fdfe608080604052600436101561001357600080fd5b60003560e01c9081631a6f7be5146115115750806338c545b4146113125780633f68fde41461118657806347c66140146110a35780634ce4e6c714610f09578063629e025a14610ee05780636a1cf72114610d145780638e295bda1461061d578063b94afa71146105df578063c7f758a8146104db578063c966f516146102c7578063da35c664146102a95763e1b526b0146100ae57600080fd5b346102a4576020806003193601126102a45760043560018060a01b0391826000541660405190630935e01b60e21b918281523360048201528381602481855afa801561027b5761010691600091610287575b5061175a565b8360005260028352604060002091600583019184835497881661012a81151561188e565b331492831561021f575b505050156101c85760ff8560a01c1615610183577f1d4acf5b5169381a31b16d43bf25ffcb1d6f22f1127bb0c412a0d970e25affb5939460ff60a01b19169055600942910155604051428152a2005b60405162461bcd60e51b815260048101849052601c60248201527f50726f706f73616c20697320616c726561647920696e616374697665000000006044820152606490fd5b60405162461bcd60e51b815260048101849052602960248201527f4f6e6c792063726561746f72206f722061646d696e2063616e20657870697265604482015268081c1c9bdc1bdcd85b60ba1b6064820152608490fd5b9091925060246040518094819382523360048301525afa90811561027b5760009161024e575b50388481610134565b61026e9150843d8611610274575b6102668183611720565b810190611742565b38610245565b503d61025c565b6040513d6000823e3d90fd5b61029e9150853d8711610274576102668183611720565b38610100565b600080fd5b346102a45760003660031901126102a4576020600154604051908152f35b346102a45760403660031901126102a457600054604051630935e01b60e21b8082523360048301526001600160a01b03926024803593909260209290919086169083818681855afa801561027b57610326916000916104be575061175a565b600435600052600283528260406000209660058801541661034881151561188e565b3314928315610473575b5050501561041f57600684019182548411156103cc574284111561037e57505055600942910155600080f35b9060226084926040519262461bcd60e51b845260048401528201527f4e657720646561646c696e65206d75737420626520696e207468652066757475604482015261726560f01b6064820152fd5b9060276084926040519262461bcd60e51b845260048401528201527f43616e206f6e6c7920657874656e6420646561646c696e652c206e6f74207265604482015266191d58d9481a5d60ca1b6064820152fd5b60296084926040519262461bcd60e51b845260048401528201527f4f6e6c792063726561746f72206f722061646d696e2063616e20657874656e6460448201526820646561646c696e6560b81b6064820152fd5b90919250846040518094819382523360048301525afa90811561027b576000916104a1575b50858281610352565b6104b89150823d8411610274576102668183611720565b85610498565b6104d59150853d8711610274576102668183611720565b88610100565b346102a45760203660031901126102a457600435600090815260026020526040902060058101546001600160a01b03811661051781151561188e565b60038301549060048401549260068501546007860154600887015491600988015493600a89015460ff169561054b8a611932565b9861055860018c01611932565b9a60020161056590611932565b6040519b8c9b8c6101808091528d0161057d916116e0565b8c810360208e015261058e916116e0565b8b810360408d015261059f916116e0565b9860608b015260808a015260a089015260a01c60ff16151560c088015260e087015261010086015261012085015261014084015215156101608301520390f35b346102a45760203660031901126102a4576004356001600160a01b038116908190036102a45760005260036020526020604060002054604051908152f35b346102a45760a03660031901126102a45760043567ffffffffffffffff81116102a45761064e9036906004016116b2565b9060243567ffffffffffffffff81116102a45761066f9036906004016116b2565b60449391843567ffffffffffffffff81116102a4576106929036906004016116b2565b600054604051630935e01b60e21b8152336004820152929791949290602090829060249082906001600160a01b03165afa801561027b576106da91600091610cf5575061175a565b8415610cb1578115610c5f578315610c0a57426084351115610bbb5760643515610b77575061070a60015461179c565b9485600155856000526002602052604060002067ffffffffffffffff86116109ed5761073681546117ab565b601f8111610b33575b50856000601f8211600114610ace57600091610ac3575b508660011b906000198860031b1c19161781555b67ffffffffffffffff83116109ed5761078660018201546117ab565b601f8111610a7c575b50826000601f8211600114610a0e57600091610a03575b508360011b906000198560031b1c19161760018201555b67ffffffffffffffff85116109ed576107d960028201546117ab565b601f81116109a2575b509160209793918795936000601f861160011461090357926108be6108cb937fa545c4dca3f89091030a281bf4422840f14e6fdb422e08ca04c8d6ae025f9d5e989693886108d999976000916108f8575b508760011b906000198960031b1c19161760028201555b600581018054600160a01b9060ff60a01b193316906affffffffffffffffffffff60a81b16171790556000600382015560006004820155606435600782015560843560068201554260088201556009429101553360005260038d52426040600020556040519a60a08c5260a08c01916117e5565b918983038c8b01526117e5565b9186830360408801526117e5565b92606435606082015260843560808201528033940390a3604051908152f35b90508801358f610833565b600282016000528a6000209060005b601f198816811061098857506108cb937fa545c4dca3f89091030a281bf4422840f14e6fdb422e08ca04c8d6ae025f9d5e9896938896936108be936108d99a601f1981161061096e575b5050600187811b01600282015561084a565b89013560001960038a901b60f8161c191690558e8061095c565b8189013583558b9950600190920191908c01908c01610912565b600282016000526020600020601f870160051c810191602088106109e3575b601f0160051c01905b8181106109d757506107e2565b600081556001016109ca565b90915081906109c1565b634e487b7160e01b600052604160045260246000fd5b9050840135896107a6565b90506001820160005260206000209060005b601f1986168110610a64575084601f19811610610a4a575b5050600183811b0160018201556107bd565b850135600019600386901b60f8161c191690558880610a38565b9091602060018192858a013581550193019101610a20565b600182016000526020600020601f850160051c810160208610610abc575b601f830160051c82018110610ab057505061078f565b60008155600101610a9a565b5080610a9a565b905082013589610756565b60008381526020812092505b601f1989168110610b1b575087601f19811610610b01575b5050600186811b01815561076a565b830135600019600389901b60f8161c191690558880610af2565b90916020600181928588013581550193019101610ada565b816000526020600020601f880160051c810160208910610b70575b601f830160051c82018110610b6457505061073f565b60008155600101610b4e565b5080610b4e565b6064907f43617465676f7279204944206d7573742062652076616c6964000000000000006040519162461bcd60e51b83526020600484015260196024840152820152fd5b6084907f457870697265642064617465206d75737420626520696e2074686520667574756040519162461bcd60e51b8352602060048401526022602484015282015261726560f01b6064820152fd5b6084907f44657461696c6564206465736372697074696f6e204349442063616e6e6f74206040519162461bcd60e51b8352602060048401526028602484015282015267626520656d70747960c01b6064820152fd5b6084907f53686f7274206465736372697074696f6e204349442063616e6e6f74206265206040519162461bcd60e51b8352602060048401526025602484015282015264656d70747960d81b6064820152fd5b6064907f5469746c65204349442063616e6e6f7420626520656d707479000000000000006040519162461bcd60e51b83526020600484015260196024840152820152fd5b610d0e915060203d602011610274576102668183611720565b89610100565b346102a4576020806003193601126102a4576004359060018060a01b03906024818360005416604051928380926301fd3f7760e71b82523360048301525afa801561027b57610d6a91600091610ec3575061175a565b8260005260028152610d9860066040600020610d8f60ff600583015460a01c16611806565b0154421061184b565b826000526002815260406000209160058301541690610db882151561188e565b600b8301913360005282825260ff60406000205416610e6a57610ddd903314156118da565b33600052600c830181526040600020805460ff8116610e4d575b505033600052526040600020600160ff1982541617905560038101610e1c815461179c565b905560094291015533907f91d72fe165abd5430e48336de75685d3f58eaeab2eb2d7b644ef7403642d116f600080a3005b60ff1916905560048301610e618154611925565b90558480610df7565b60405162461bcd60e51b815260048101839052602b60248201527f596f75206861766520616c726561647920766f74656420594553206f6e20746860448201526a1a5cc81c1c9bdc1bdcd85b60aa1b6064820152608490fd5b610eda9150833d8511610274576102668183611720565b85610100565b346102a45760003660031901126102a4576000546040516001600160a01b039091168152602090f35b346102a4576020806003193601126102a457600435600081815260028352604090206005810180549391906001600160a01b0383818716610f4b81151561188e565b331491821561104d575b505015610ff657600a82019485549560ff8716610fb15760017f68e3ce211a37937184ed2d0165534a314cff3c8b8bd7dcdd845523b07698450f969760ff191617905560ff60a01b1916905560094291015560405160008152a2005b60405162461bcd60e51b815260048101869052601860248201527f50726f706f73616c20616c72656164792072656d6f76656400000000000000006044820152606490fd5b60405162461bcd60e51b815260048101849052602960248201527f4f6e6c792063726561746f72206f722061646d696e2063616e2072656d6f7665604482015268081c1c9bdc1bdcd85b60ba1b6064820152608490fd5b600054604051630935e01b60e21b8152336004820152935083916024918391165afa90811561027b57600091611086575b508387610f55565b61109d9150843d8611610274576102668183611720565b8661107e565b346102a45760203660031901126102a457600435600090815260026020526040902060058101546110de906001600160a01b0316151561188e565b600460038201549101549081810391600081128284128116908385139015161761116457808201808311611164578015938461117a576064840294848604606414851517156111645761114e578160a09504925b6040519485526020850152604084015260608301526080820152f35b634e487b7160e01b600052601260045260246000fd5b634e487b7160e01b600052601160045260246000fd5b60a09450600092611132565b346102a4576020806003193601126102a4576004359060018060a01b03916024828460005416604051928380926301fd3f7760e71b82523360048301525afa801561027b576111dc916000916112fb575061175a565b806000526002825261120160066040600020610d8f60ff600583015460a01c16611806565b6000526002815261121e604060002092600584015416151561188e565b600033600052600b830182526040600020805460ff81166112da575b505033600052600c830182526040600020805460ff81166112b9575b5050156112695750600942910155600080f35b6084906040519062461bcd60e51b82526004820152602360248201527f596f752068617665206e6f7420766f746564206f6e20746869732070726f706f6044820152621cd85b60ea1b6064820152fd5b60ff19169055506004820180546112cf90611925565b905560018380611256565b60ff19169055506003820180546112f090611925565b90556001838061123a565b610eda9150843d8611610274576102668183611720565b346102a45760403660031901126102a457600435602435908115158092036102a457600054604051630935e01b60e21b8082523360048301526001600160a01b03946020939092908616908481602481855afa801561027b5761137c916000916114fa575061175a565b846000526002845260406000209160058301918583549889166113a081151561188e565b33149283156114ae575b50505015611459578260ff8760a01c16151514611408577f68e3ce211a37937184ed2d0165534a314cff3c8b8bd7dcdd845523b07698450f949560ff60a01b8460a01b169060ff60a01b1916179055600942910155604051908152a2005b60405162461bcd60e51b815260048101859052602360248201527f53746174757320697320616c72656164792073657420746f20746869732076616044820152626c756560e81b6064820152608490fd5b60405162461bcd60e51b815260048101859052602760248201527f4f6e6c792063726561746f72206f722061646d696e2063616e206368616e67656044820152662073746174757360c81b6064820152608490fd5b9091925060246040518094819382523360048301525afa90811561027b576000916114dd575b508785816113aa565b6114f49150853d8711610274576102668183611720565b876114d4565b6104d59150863d8811610274576102668183611720565b346102a457602090816003193601126102a4576004359160018060a01b0391818160248186600054166301fd3f7760e71b82523360048301525afa801561027b5761156391600091610ec3575061175a565b826000526002815261158860066040600020610d8f60ff600583015460a01c16611806565b8260005260028152604060002091600583015416906115a882151561188e565b600c8301913360005282825260ff6040600020541661165a576115cd903314156118da565b33600052600b830181526040600020805460ff811661163d575b505033600052526040600020600160ff198254161790556004810161160c815461179c565b905560094291015533907ff22f90ec8ca04cbb8fbcb15687d8dc5dcc4d74eaf1529b699367f232b785358b600080a3005b60ff19169055600383016116518154611925565b905584806115e7565b60405162461bcd60e51b815260048101839052602a60248201527f596f75206861766520616c726561647920766f746564204e4f206f6e207468696044820152691cc81c1c9bdc1bdcd85b60b21b6064820152608490fd5b9181601f840112156102a45782359167ffffffffffffffff83116102a457602083818601950101116102a457565b919082519283825260005b84811061170c575050826000602080949584010152601f8019910116010190565b6020818301810151848301820152016116eb565b90601f8019910116810190811067ffffffffffffffff8211176109ed57604052565b908160209103126102a4575180151581036102a45790565b1561176157565b60405162461bcd60e51b8152602060048201526013602482015272155cd95c881b9bdd08185d5d1a1bdc9a5e9959606a1b6044820152606490fd5b60001981146111645760010190565b90600182811c921680156117db575b60208310146117c557565b634e487b7160e01b600052602260045260246000fd5b91607f16916117ba565b908060209392818452848401376000828201840152601f01601f1916010190565b1561180d57565b60405162461bcd60e51b815260206004820152601660248201527550726f706f73616c206973206e6f742061637469766560501b6044820152606490fd5b1561185257565b60405162461bcd60e51b8152602060048201526014602482015273141c9bdc1bdcd85b081a185cc8195e1c1a5c995960621b6044820152606490fd5b1561189557565b60405162461bcd60e51b815260206004820152601760248201527f50726f706f73616c20646f6573206e6f742065786973740000000000000000006044820152606490fd5b156118e157565b606460405162461bcd60e51b815260206004820152602060248201527f43616e6e6f7420766f7465206f6e20796f7572206f776e2070726f706f73616c6044820152fd5b8015611164576000190190565b9060405191826000825492611946846117ab565b9081845260019485811690816000146119b55750600114611972575b505061197092500383611720565b565b9093915060005260209081600020936000915b81831061199d57505061197093508201013880611962565b85548884018501529485019487945091830191611985565b91505061197094506020925060ff191682840152151560051b820101388061196256fea26469706673582212203f16237e37c21b2a04baea0f78daa5ee9aa0b9def66469f6116ce896fd00c6b364736f6c63430008140033","opcodes":"PUSH1 0x80 CALLVALUE PUSH2 0xCB JUMPI PUSH1 0x1F PUSH2 0x1AF5 CODESIZE DUP2 SWAP1 SUB SWAP2 DUP3 ADD PUSH1 0x1F NOT AND DUP4 ADD SWAP2 PUSH1 0x1 PUSH1 0x1 PUSH1 0x40 SHL SUB DUP4 GT DUP5 DUP5 LT OR PUSH2 0xD0 JUMPI DUP1 DUP5 SWAP3 PUSH1 0x20 SWAP5 PUSH1 0x40 MSTORE DUP4 CODECOPY DUP2 ADD SUB SLT PUSH2 0xCB JUMPI MLOAD PUSH1 0x1 PUSH1 0x1 PUSH1 0xA0 SHL SUB DUP2 AND SWAP1 DUP2 SWAP1 SUB PUSH2 0xCB JUMPI DUP1 ISZERO PUSH2 0x7A JUMPI PUSH1 0x0 DUP1 SLOAD PUSH1 0x1 PUSH1 0x1 PUSH1 0xA0 SHL SUB NOT AND SWAP2 SWAP1 SWAP2 OR SWAP1 SSTORE PUSH1 0x40 MLOAD PUSH2 0x1A0E SWAP1 DUP2 PUSH2 0xE7 DUP3 CODECOPY RETURN JUMPDEST PUSH1 0x40 MLOAD PUSH3 0x461BCD PUSH1 0xE5 SHL DUP2 MSTORE PUSH1 0x20 PUSH1 0x4 DUP3 ADD MSTORE PUSH1 0x24 DUP1 DUP3 ADD MSTORE PUSH32 0x4175746820726567697374727920616464726573732063616E6E6F7420626520 PUSH1 0x44 DUP3 ADD MSTORE PUSH4 0x7A65726F PUSH1 0xE0 SHL PUSH1 0x64 DUP3 ADD MSTORE PUSH1 0x84 SWAP1 REVERT JUMPDEST PUSH1 0x0 DUP1 REVERT JUMPDEST PUSH4 0x4E487B71 PUSH1 0xE0 SHL PUSH1 0x0 MSTORE PUSH1 0x41 PUSH1 0x4 MSTORE PUSH1 0x24 PUSH1 0x0 REVERT INVALID PUSH1 0x80 DUP1 PUSH1 0x40 MSTORE PUSH1 0x4 CALLDATASIZE LT ISZERO PUSH2 0x13 JUMPI PUSH1 0x0 DUP1 REVERT JUMPDEST PUSH1 0x0 CALLDATALOAD PUSH1 0xE0 SHR SWAP1 DUP2 PUSH4 0x1A6F7BE5 EQ PUSH2 0x1511 JUMPI POP DUP1 PUSH4 0x38C545B4 EQ PUSH2 0x1312 JUMPI DUP1 PUSH4 0x3F68FDE4 EQ PUSH2 0x1186 JUMPI DUP1 PUSH4 0x47C66140 EQ PUSH2 0x10A3 JUMPI DUP1 PUSH4 0x4CE4E6C7 EQ PUSH2 0xF09 JUMPI DUP1 PUSH4 0x629E025A EQ PUSH2 0xEE0 JUMPI DUP1 PUSH4 0x6A1CF721 EQ PUSH2 0xD14 JUMPI DUP1 PUSH4 0x8E295BDA EQ PUSH2 0x61D JUMPI DUP1 PUSH4 0xB94AFA71 EQ PUSH2 0x5DF JUMPI DUP1 PUSH4 0xC7F758A8 EQ PUSH2 0x4DB JUMPI DUP1 PUSH4 0xC966F516 EQ PUSH2 0x2C7 JUMPI DUP1 PUSH4 0xDA35C664 EQ PUSH2 0x2A9 JUMPI PUSH4 0xE1B526B0 EQ PUSH2 0xAE JUMPI PUSH1 0x0 DUP1 REVERT JUMPDEST CALLVALUE PUSH2 0x2A4 JUMPI PUSH1 0x20 DUP1 PUSH1 0x3 NOT CALLDATASIZE ADD SLT PUSH2 0x2A4 JUMPI PUSH1 0x4 CALLDATALOAD PUSH1 0x1 DUP1 PUSH1 0xA0 SHL SUB SWAP2 DUP3 PUSH1 0x0 SLOAD AND PUSH1 0x40 MLOAD SWAP1 PUSH4 0x935E01B PUSH1 0xE2 SHL SWAP2 DUP3 DUP2 MSTORE CALLER PUSH1 0x4 DUP3 ADD MSTORE DUP4 DUP2 PUSH1 0x24 DUP2 DUP6 GAS STATICCALL DUP1 ISZERO PUSH2 0x27B JUMPI PUSH2 0x106 SWAP2 PUSH1 0x0 SWAP2 PUSH2 0x287 JUMPI JUMPDEST POP PUSH2 0x175A JUMP JUMPDEST DUP4 PUSH1 0x0 MSTORE PUSH1 0x2 DUP4 MSTORE PUSH1 0x40 PUSH1 0x0 KECCAK256 SWAP2 PUSH1 0x5 DUP4 ADD SWAP2 DUP5 DUP4 SLOAD SWAP8 DUP9 AND PUSH2 0x12A DUP2 ISZERO ISZERO PUSH2 0x188E JUMP JUMPDEST CALLER EQ SWAP3 DUP4 ISZERO PUSH2 0x21F JUMPI JUMPDEST POP POP POP ISZERO PUSH2 0x1C8 JUMPI PUSH1 0xFF DUP6 PUSH1 0xA0 SHR AND ISZERO PUSH2 0x183 JUMPI PUSH32 0x1D4ACF5B5169381A31B16D43BF25FFCB1D6F22F1127BB0C412A0D970E25AFFB5 SWAP4 SWAP5 PUSH1 0xFF PUSH1 0xA0 SHL NOT AND SWAP1 SSTORE PUSH1 0x9 TIMESTAMP SWAP2 ADD SSTORE PUSH1 0x40 MLOAD TIMESTAMP DUP2 MSTORE LOG2 STOP JUMPDEST PUSH1 0x40 MLOAD PUSH3 0x461BCD PUSH1 0xE5 SHL DUP2 MSTORE PUSH1 0x4 DUP2 ADD DUP5 SWAP1 MSTORE PUSH1 0x1C PUSH1 0x24 DUP3 ADD MSTORE PUSH32 0x50726F706F73616C20697320616C726561647920696E61637469766500000000 PUSH1 0x44 DUP3 ADD MSTORE PUSH1 0x64 SWAP1 REVERT JUMPDEST PUSH1 0x40 MLOAD PUSH3 0x461BCD PUSH1 0xE5 SHL DUP2 MSTORE PUSH1 0x4 DUP2 ADD DUP5 SWAP1 MSTORE PUSH1 0x29 PUSH1 0x24 DUP3 ADD MSTORE PUSH32 0x4F6E6C792063726561746F72206F722061646D696E2063616E20657870697265 PUSH1 0x44 DUP3 ADD MSTORE PUSH9 0x81C1C9BDC1BDCD85B PUSH1 0xBA SHL PUSH1 0x64 DUP3 ADD MSTORE PUSH1 0x84 SWAP1 REVERT JUMPDEST SWAP1 SWAP2 SWAP3 POP PUSH1 0x24 PUSH1 0x40 MLOAD DUP1 SWAP5 DUP2 SWAP4 DUP3 MSTORE CALLER PUSH1 0x4 DUP4 ADD MSTORE GAS STATICCALL SWAP1 DUP2 ISZERO PUSH2 0x27B JUMPI PUSH1 0x0 SWAP2 PUSH2 0x24E JUMPI JUMPDEST POP CODESIZE DUP5 DUP2 PUSH2 0x134 JUMP JUMPDEST PUSH2 0x26E SWAP2 POP DUP5 RETURNDATASIZE DUP7 GT PUSH2 0x274 JUMPI JUMPDEST PUSH2 0x266 DUP2 DUP4 PUSH2 0x1720 JUMP JUMPDEST DUP2 ADD SWAP1 PUSH2 0x1742 JUMP JUMPDEST CODESIZE PUSH2 0x245 JUMP JUMPDEST POP RETURNDATASIZE PUSH2 0x25C JUMP JUMPDEST PUSH1 0x40 MLOAD RETURNDATASIZE PUSH1 0x0 DUP3 RETURNDATACOPY RETURNDATASIZE SWAP1 REVERT JUMPDEST PUSH2 0x29E SWAP2 POP DUP6 RETURNDATASIZE DUP8 GT PUSH2 0x274 JUMPI PUSH2 0x266 DUP2 DUP4 PUSH2 0x1720 JUMP JUMPDEST CODESIZE PUSH2 0x100 JUMP JUMPDEST PUSH1 0x0 DUP1 REVERT JUMPDEST CALLVALUE PUSH2 0x2A4 JUMPI PUSH1 0x0 CALLDATASIZE PUSH1 0x3 NOT ADD SLT PUSH2 0x2A4 JUMPI PUSH1 0x20 PUSH1 0x1 SLOAD PUSH1 0x40 MLOAD SWAP1 DUP2 MSTORE RETURN JUMPDEST CALLVALUE PUSH2 0x2A4 JUMPI PUSH1 0x40 CALLDATASIZE PUSH1 0x3 NOT ADD SLT PUSH2 0x2A4 JUMPI PUSH1 0x0 SLOAD PUSH1 0x40 MLOAD PUSH4 0x935E01B PUSH1 0xE2 SHL DUP1 DUP3 MSTORE CALLER PUSH1 0x4 DUP4 ADD MSTORE PUSH1 0x1 PUSH1 0x1 PUSH1 0xA0 SHL SUB SWAP3 PUSH1 0x24 DUP1 CALLDATALOAD SWAP4 SWAP1 SWAP3 PUSH1 0x20 SWAP3 SWAP1 SWAP2 SWAP1 DUP7 AND SWAP1 DUP4 DUP2 DUP7 DUP2 DUP6 GAS STATICCALL DUP1 ISZERO PUSH2 0x27B JUMPI PUSH2 0x326 SWAP2 PUSH1 0x0 SWAP2 PUSH2 0x4BE JUMPI POP PUSH2 0x175A JUMP JUMPDEST PUSH1 0x4 CALLDATALOAD PUSH1 0x0 MSTORE PUSH1 0x2 DUP4 MSTORE DUP3 PUSH1 0x40 PUSH1 0x0 KECCAK256 SWAP7 PUSH1 0x5 DUP9 ADD SLOAD AND PUSH2 0x348 DUP2 ISZERO ISZERO PUSH2 0x188E JUMP JUMPDEST CALLER EQ SWAP3 DUP4 ISZERO PUSH2 0x473 JUMPI JUMPDEST POP POP POP ISZERO PUSH2 0x41F JUMPI PUSH1 0x6 DUP5 ADD SWAP2 DUP3 SLOAD DUP5 GT ISZERO PUSH2 0x3CC JUMPI TIMESTAMP DUP5 GT ISZERO PUSH2 0x37E JUMPI POP POP SSTORE PUSH1 0x9 TIMESTAMP SWAP2 ADD SSTORE PUSH1 0x0 DUP1 RETURN JUMPDEST SWAP1 PUSH1 0x22 PUSH1 0x84 SWAP3 PUSH1 0x40 MLOAD SWAP3 PUSH3 0x461BCD PUSH1 0xE5 SHL DUP5 MSTORE PUSH1 0x4 DUP5 ADD MSTORE DUP3 ADD MSTORE PUSH32 0x4E657720646561646C696E65206D75737420626520696E207468652066757475 PUSH1 0x44 DUP3 ADD MSTORE PUSH2 0x7265 PUSH1 0xF0 SHL PUSH1 0x64 DUP3 ADD MSTORE REVERT JUMPDEST SWAP1 PUSH1 0x27 PUSH1 0x84 SWAP3 PUSH1 0x40 MLOAD SWAP3 PUSH3 0x461BCD PUSH1 0xE5 SHL DUP5 MSTORE PUSH1 0x4 DUP5 ADD MSTORE DUP3 ADD MSTORE PUSH32 0x43616E206F6E6C7920657874656E6420646561646C696E652C206E6F74207265 PUSH1 0x44 DUP3 ADD MSTORE PUSH7 0x191D58D9481A5D PUSH1 0xCA SHL PUSH1 0x64 DUP3 ADD MSTORE REVERT JUMPDEST PUSH1 0x29 PUSH1 0x84 SWAP3 PUSH1 0x40 MLOAD SWAP3 PUSH3 0x461BCD PUSH1 0xE5 SHL DUP5 MSTORE PUSH1 0x4 DUP5 ADD MSTORE DUP3 ADD MSTORE PUSH32 0x4F6E6C792063726561746F72206F722061646D696E2063616E20657874656E64 PUSH1 0x44 DUP3 ADD MSTORE PUSH9 0x20646561646C696E65 PUSH1 0xB8 SHL PUSH1 0x64 DUP3 ADD MSTORE REVERT JUMPDEST SWAP1 SWAP2 SWAP3 POP DUP5 PUSH1 0x40 MLOAD DUP1 SWAP5 DUP2 SWAP4 DUP3 MSTORE CALLER PUSH1 0x4 DUP4 ADD MSTORE GAS STATICCALL SWAP1 DUP2 ISZERO PUSH2 0x27B JUMPI PUSH1 0x0 SWAP2 PUSH2 0x4A1 JUMPI JUMPDEST POP DUP6 DUP3 DUP2 PUSH2 0x352 JUMP JUMPDEST PUSH2 0x4B8 SWAP2 POP DUP3 RETURNDATASIZE DUP5 GT PUSH2 0x274 JUMPI PUSH2 0x266 DUP2 DUP4 PUSH2 0x1720 JUMP JUMPDEST DUP6 PUSH2 0x498 JUMP JUMPDEST PUSH2 0x4D5 SWAP2 POP DUP6 RETURNDATASIZE DUP8 GT PUSH2 0x274 JUMPI PUSH2 0x266 DUP2 DUP4 PUSH2 0x1720 JUMP JUMPDEST DUP9 PUSH2 0x100 JUMP JUMPDEST CALLVALUE PUSH2 0x2A4 JUMPI PUSH1 0x20 CALLDATASIZE PUSH1 0x3 NOT ADD SLT PUSH2 0x2A4 JUMPI PUSH1 0x4 CALLDATALOAD PUSH1 0x0 SWAP1 DUP2 MSTORE PUSH1 0x2 PUSH1 0x20 MSTORE PUSH1 0x40 SWAP1 KECCAK256 PUSH1 0x5 DUP2 ADD SLOAD PUSH1 0x1 PUSH1 0x1 PUSH1 0xA0 SHL SUB DUP2 AND PUSH2 0x517 DUP2 ISZERO ISZERO PUSH2 0x188E JUMP JUMPDEST PUSH1 0x3 DUP4 ADD SLOAD SWAP1 PUSH1 0x4 DUP5 ADD SLOAD SWAP3 PUSH1 0x6 DUP6 ADD SLOAD PUSH1 0x7 DUP7 ADD SLOAD PUSH1 0x8 DUP8 ADD SLOAD SWAP2 PUSH1 0x9 DUP9 ADD SLOAD SWAP4 PUSH1 0xA DUP10 ADD SLOAD PUSH1 0xFF AND SWAP6 PUSH2 0x54B DUP11 PUSH2 0x1932 JUMP JUMPDEST SWAP9 PUSH2 0x558 PUSH1 0x1 DUP13 ADD PUSH2 0x1932 JUMP JUMPDEST SWAP11 PUSH1 0x2 ADD PUSH2 0x565 SWAP1 PUSH2 0x1932 JUMP JUMPDEST PUSH1 0x40 MLOAD SWAP12 DUP13 SWAP12 DUP13 PUSH2 0x180 DUP1 SWAP2 MSTORE DUP14 ADD PUSH2 0x57D SWAP2 PUSH2 0x16E0 JUMP JUMPDEST DUP13 DUP2 SUB PUSH1 0x20 DUP15 ADD MSTORE PUSH2 0x58E SWAP2 PUSH2 0x16E0 JUMP JUMPDEST DUP12 DUP2 SUB PUSH1 0x40 DUP14 ADD MSTORE PUSH2 0x59F SWAP2 PUSH2 0x16E0 JUMP JUMPDEST SWAP9 PUSH1 0x60 DUP12 ADD MSTORE PUSH1 0x80 DUP11 ADD MSTORE PUSH1 0xA0 DUP10 ADD MSTORE PUSH1 0xA0 SHR PUSH1 0xFF AND ISZERO ISZERO PUSH1 0xC0 DUP9 ADD MSTORE PUSH1 0xE0 DUP8 ADD MSTORE PUSH2 0x100 DUP7 ADD MSTORE PUSH2 0x120 DUP6 ADD MSTORE PUSH2 0x140 DUP5 ADD MSTORE ISZERO ISZERO PUSH2 0x160 DUP4 ADD MSTORE SUB SWAP1 RETURN JUMPDEST CALLVALUE PUSH2 0x2A4 JUMPI PUSH1 0x20 CALLDATASIZE PUSH1 0x3 NOT ADD SLT PUSH2 0x2A4 JUMPI PUSH1 0x4 CALLDATALOAD PUSH1 0x1 PUSH1 0x1 PUSH1 0xA0 SHL SUB DUP2 AND SWAP1 DUP2 SWAP1 SUB PUSH2 0x2A4 JUMPI PUSH1 0x0 MSTORE PUSH1 0x3 PUSH1 0x20 MSTORE PUSH1 0x20 PUSH1 0x40 PUSH1 0x0 KECCAK256 SLOAD PUSH1 0x40 MLOAD SWAP1 DUP2 MSTORE RETURN JUMPDEST CALLVALUE PUSH2 0x2A4 JUMPI PUSH1 0xA0 CALLDATASIZE PUSH1 0x3 NOT ADD SLT PUSH2 0x2A4 JUMPI PUSH1 0x4 CALLDATALOAD PUSH8 0xFFFFFFFFFFFFFFFF DUP2 GT PUSH2 0x2A4 JUMPI PUSH2 0x64E SWAP1 CALLDATASIZE SWAP1 PUSH1 0x4 ADD PUSH2 0x16B2 JUMP JUMPDEST SWAP1 PUSH1 0x24 CALLDATALOAD PUSH8 0xFFFFFFFFFFFFFFFF DUP2 GT PUSH2 0x2A4 JUMPI PUSH2 0x66F SWAP1 CALLDATASIZE SWAP1 PUSH1 0x4 ADD PUSH2 0x16B2 JUMP JUMPDEST PUSH1 0x44 SWAP4 SWAP2 DUP5 CALLDATALOAD PUSH8 0xFFFFFFFFFFFFFFFF DUP2 GT PUSH2 0x2A4 JUMPI PUSH2 0x692 SWAP1 CALLDATASIZE SWAP1 PUSH1 0x4 ADD PUSH2 0x16B2 JUMP JUMPDEST PUSH1 0x0 SLOAD PUSH1 0x40 MLOAD PUSH4 0x935E01B PUSH1 0xE2 SHL DUP2 MSTORE CALLER PUSH1 0x4 DUP3 ADD MSTORE SWAP3 SWAP8 SWAP2 SWAP5 SWAP3 SWAP1 PUSH1 0x20 SWAP1 DUP3 SWAP1 PUSH1 0x24 SWAP1 DUP3 SWAP1 PUSH1 0x1 PUSH1 0x1 PUSH1 0xA0 SHL SUB AND GAS STATICCALL DUP1 ISZERO PUSH2 0x27B JUMPI PUSH2 0x6DA SWAP2 PUSH1 0x0 SWAP2 PUSH2 0xCF5 JUMPI POP PUSH2 0x175A JUMP JUMPDEST DUP5 ISZERO PUSH2 0xCB1 JUMPI DUP2 ISZERO PUSH2 0xC5F JUMPI DUP4 ISZERO PUSH2 0xC0A JUMPI TIMESTAMP PUSH1 0x84 CALLDATALOAD GT ISZERO PUSH2 0xBBB JUMPI PUSH1 0x64 CALLDATALOAD ISZERO PUSH2 0xB77 JUMPI POP PUSH2 0x70A PUSH1 0x1 SLOAD PUSH2 0x179C JUMP JUMPDEST SWAP5 DUP6 PUSH1 0x1 SSTORE DUP6 PUSH1 0x0 MSTORE PUSH1 0x2 PUSH1 0x20 MSTORE PUSH1 0x40 PUSH1 0x0 KECCAK256 PUSH8 0xFFFFFFFFFFFFFFFF DUP7 GT PUSH2 0x9ED JUMPI PUSH2 0x736 DUP2 SLOAD PUSH2 0x17AB JUMP JUMPDEST PUSH1 0x1F DUP2 GT PUSH2 0xB33 JUMPI JUMPDEST POP DUP6 PUSH1 0x0 PUSH1 0x1F DUP3 GT PUSH1 0x1 EQ PUSH2 0xACE JUMPI PUSH1 0x0 SWAP2 PUSH2 0xAC3 JUMPI JUMPDEST POP DUP7 PUSH1 0x1 SHL SWAP1 PUSH1 0x0 NOT DUP9 PUSH1 0x3 SHL SHR NOT AND OR DUP2 SSTORE JUMPDEST PUSH8 0xFFFFFFFFFFFFFFFF DUP4 GT PUSH2 0x9ED JUMPI PUSH2 0x786 PUSH1 0x1 DUP3 ADD SLOAD PUSH2 0x17AB JUMP JUMPDEST PUSH1 0x1F DUP2 GT PUSH2 0xA7C JUMPI JUMPDEST POP DUP3 PUSH1 0x0 PUSH1 0x1F DUP3 GT PUSH1 0x1 EQ PUSH2 0xA0E JUMPI PUSH1 0x0 SWAP2 PUSH2 0xA03 JUMPI JUMPDEST POP DUP4 PUSH1 0x1 SHL SWAP1 PUSH1 0x0 NOT DUP6 PUSH1 0x3 SHL SHR NOT AND OR PUSH1 0x1 DUP3 ADD SSTORE JUMPDEST PUSH8 0xFFFFFFFFFFFFFFFF DUP6 GT PUSH2 0x9ED JUMPI PUSH2 0x7D9 PUSH1 0x2 DUP3 ADD SLOAD PUSH2 0x17AB JUMP JUMPDEST PUSH1 0x1F DUP2 GT PUSH2 0x9A2 JUMPI JUMPDEST POP SWAP2 PUSH1 0x20 SWAP8 SWAP4 SWAP2 DUP8 SWAP6 SWAP4 PUSH1 0x0 PUSH1 0x1F DUP7 GT PUSH1 0x1 EQ PUSH2 0x903 JUMPI SWAP3 PUSH2 0x8BE PUSH2 0x8CB SWAP4 PUSH32 0xA545C4DCA3F89091030A281BF4422840F14E6FDB422E08CA04C8D6AE025F9D5E SWAP9 SWAP7 SWAP4 DUP9 PUSH2 0x8D9 SWAP10 SWAP8 PUSH1 0x0 SWAP2 PUSH2 0x8F8 JUMPI JUMPDEST POP DUP8 PUSH1 0x1 SHL SWAP1 PUSH1 0x0 NOT DUP10 PUSH1 0x3 SHL SHR NOT AND OR PUSH1 0x2 DUP3 ADD SSTORE JUMPDEST PUSH1 0x5 DUP2 ADD DUP1 SLOAD PUSH1 0x1 PUSH1 0xA0 SHL SWAP1 PUSH1 0xFF PUSH1 0xA0 SHL NOT CALLER AND SWAP1 PUSH11 0xFFFFFFFFFFFFFFFFFFFFFF PUSH1 0xA8 SHL AND OR OR SWAP1 SSTORE PUSH1 0x0 PUSH1 0x3 DUP3 ADD SSTORE PUSH1 0x0 PUSH1 0x4 DUP3 ADD SSTORE PUSH1 0x64 CALLDATALOAD PUSH1 0x7 DUP3 ADD SSTORE PUSH1 0x84 CALLDATALOAD PUSH1 0x6 DUP3 ADD SSTORE TIMESTAMP PUSH1 0x8 DUP3 ADD SSTORE PUSH1 0x9 TIMESTAMP SWAP2 ADD SSTORE CALLER PUSH1 0x0 MSTORE PUSH1 0x3 DUP14 MSTORE TIMESTAMP PUSH1 0x40 PUSH1 0x0 KECCAK256 SSTORE PUSH1 0x40 MLOAD SWAP11 PUSH1 0xA0 DUP13 MSTORE PUSH1 0xA0 DUP13 ADD SWAP2 PUSH2 0x17E5 JUMP JUMPDEST SWAP2 DUP10 DUP4 SUB DUP13 DUP12 ADD MSTORE PUSH2 0x17E5 JUMP JUMPDEST SWAP2 DUP7 DUP4 SUB PUSH1 0x40 DUP9 ADD MSTORE PUSH2 0x17E5 JUMP JUMPDEST SWAP3 PUSH1 0x64 CALLDATALOAD PUSH1 0x60 DUP3 ADD MSTORE PUSH1 0x84 CALLDATALOAD PUSH1 0x80 DUP3 ADD MSTORE DUP1 CALLER SWAP5 SUB SWAP1 LOG3 PUSH1 0x40 MLOAD SWAP1 DUP2 MSTORE RETURN JUMPDEST SWAP1 POP DUP9 ADD CALLDATALOAD DUP16 PUSH2 0x833 JUMP JUMPDEST PUSH1 0x2 DUP3 ADD PUSH1 0x0 MSTORE DUP11 PUSH1 0x0 KECCAK256 SWAP1 PUSH1 0x0 JUMPDEST PUSH1 0x1F NOT DUP9 AND DUP2 LT PUSH2 0x988 JUMPI POP PUSH2 0x8CB SWAP4 PUSH32 0xA545C4DCA3F89091030A281BF4422840F14E6FDB422E08CA04C8D6AE025F9D5E SWAP9 SWAP7 SWAP4 DUP9 SWAP7 SWAP4 PUSH2 0x8BE SWAP4 PUSH2 0x8D9 SWAP11 PUSH1 0x1F NOT DUP2 AND LT PUSH2 0x96E JUMPI JUMPDEST POP POP PUSH1 0x1 DUP8 DUP2 SHL ADD PUSH1 0x2 DUP3 ADD SSTORE PUSH2 0x84A JUMP JUMPDEST DUP10 ADD CALLDATALOAD PUSH1 0x0 NOT PUSH1 0x3 DUP11 SWAP1 SHL PUSH1 0xF8 AND SHR NOT AND SWAP1 SSTORE DUP15 DUP1 PUSH2 0x95C JUMP JUMPDEST DUP2 DUP10 ADD CALLDATALOAD DUP4 SSTORE DUP12 SWAP10 POP PUSH1 0x1 SWAP1 SWAP3 ADD SWAP2 SWAP1 DUP13 ADD SWAP1 DUP13 ADD PUSH2 0x912 JUMP JUMPDEST PUSH1 0x2 DUP3 ADD PUSH1 0x0 MSTORE PUSH1 0x20 PUSH1 0x0 KECCAK256 PUSH1 0x1F DUP8 ADD PUSH1 0x5 SHR DUP2 ADD SWAP2 PUSH1 0x20 DUP9 LT PUSH2 0x9E3 JUMPI JUMPDEST PUSH1 0x1F ADD PUSH1 0x5 SHR ADD SWAP1 JUMPDEST DUP2 DUP2 LT PUSH2 0x9D7 JUMPI POP PUSH2 0x7E2 JUMP JUMPDEST PUSH1 0x0 DUP2 SSTORE PUSH1 0x1 ADD PUSH2 0x9CA JUMP JUMPDEST SWAP1 SWAP2 POP DUP2 SWAP1 PUSH2 0x9C1 JUMP JUMPDEST PUSH4 0x4E487B71 PUSH1 0xE0 SHL PUSH1 0x0 MSTORE PUSH1 0x41 PUSH1 0x4 MSTORE PUSH1 0x24 PUSH1 0x0 REVERT JUMPDEST SWAP1 POP DUP5 ADD CALLDATALOAD DUP10 PUSH2 0x7A6 JUMP JUMPDEST SWAP1 POP PUSH1 0x1 DUP3 ADD PUSH1 0x0 MSTORE PUSH1 0x20 PUSH1 0x0 KECCAK256 SWAP1 PUSH1 0x0 JUMPDEST PUSH1 0x1F NOT DUP7 AND DUP2 LT PUSH2 0xA64 JUMPI POP DUP5 PUSH1 0x1F NOT DUP2 AND LT PUSH2 0xA4A JUMPI JUMPDEST POP POP PUSH1 0x1 DUP4 DUP2 SHL ADD PUSH1 0x1 DUP3 ADD SSTORE PUSH2 0x7BD JUMP JUMPDEST DUP6 ADD CALLDATALOAD PUSH1 0x0 NOT PUSH1 0x3 DUP7 SWAP1 SHL PUSH1 0xF8 AND SHR NOT AND SWAP1 SSTORE DUP9 DUP1 PUSH2 0xA38 JUMP JUMPDEST SWAP1 SWAP2 PUSH1 0x20 PUSH1 0x1 DUP2 SWAP3 DUP6 DUP11 ADD CALLDATALOAD DUP2 SSTORE ADD SWAP4 ADD SWAP2 ADD PUSH2 0xA20 JUMP JUMPDEST PUSH1 0x1 DUP3 ADD PUSH1 0x0 MSTORE PUSH1 0x20 PUSH1 0x0 KECCAK256 PUSH1 0x1F DUP6 ADD PUSH1 0x5 SHR DUP2 ADD PUSH1 0x20 DUP7 LT PUSH2 0xABC JUMPI JUMPDEST PUSH1 0x1F DUP4 ADD PUSH1 0x5 SHR DUP3 ADD DUP2 LT PUSH2 0xAB0 JUMPI POP POP PUSH2 0x78F JUMP JUMPDEST PUSH1 0x0 DUP2 SSTORE PUSH1 0x1 ADD PUSH2 0xA9A JUMP JUMPDEST POP DUP1 PUSH2 0xA9A JUMP JUMPDEST SWAP1 POP DUP3 ADD CALLDATALOAD DUP10 PUSH2 0x756 JUMP JUMPDEST PUSH1 0x0 DUP4 DUP2 MSTORE PUSH1 0x20 DUP2 KECCAK256 SWAP3 POP JUMPDEST PUSH1 0x1F NOT DUP10 AND DUP2 LT PUSH2 0xB1B JUMPI POP DUP8 PUSH1 0x1F NOT DUP2 AND LT PUSH2 0xB01 JUMPI JUMPDEST POP POP PUSH1 0x1 DUP7 DUP2 SHL ADD DUP2 SSTORE PUSH2 0x76A JUMP JUMPDEST DUP4 ADD CALLDATALOAD PUSH1 0x0 NOT PUSH1 0x3 DUP10 SWAP1 SHL PUSH1 0xF8 AND SHR NOT AND SWAP1 SSTORE DUP9 DUP1 PUSH2 0xAF2 JUMP JUMPDEST SWAP1 SWAP2 PUSH1 0x20 PUSH1 0x1 DUP2 SWAP3 DUP6 DUP9 ADD CALLDATALOAD DUP2 SSTORE ADD SWAP4 ADD SWAP2 ADD PUSH2 0xADA JUMP JUMPDEST DUP2 PUSH1 0x0 MSTORE PUSH1 0x20 PUSH1 0x0 KECCAK256 PUSH1 0x1F DUP9 ADD PUSH1 0x5 SHR DUP2 ADD PUSH1 0x20 DUP10 LT PUSH2 0xB70 JUMPI JUMPDEST PUSH1 0x1F DUP4 ADD PUSH1 0x5 SHR DUP3 ADD DUP2 LT PUSH2 0xB64 JUMPI POP POP PUSH2 0x73F JUMP JUMPDEST PUSH1 0x0 DUP2 SSTORE PUSH1 0x1 ADD PUSH2 0xB4E JUMP JUMPDEST POP DUP1 PUSH2 0xB4E JUMP JUMPDEST PUSH1 0x64 SWAP1 PUSH32 0x43617465676F7279204944206D7573742062652076616C696400000000000000 PUSH1 0x40 MLOAD SWAP2 PUSH3 0x461BCD PUSH1 0xE5 SHL DUP4 MSTORE PUSH1 0x20 PUSH1 0x4 DUP5 ADD MSTORE PUSH1 0x19 PUSH1 0x24 DUP5 ADD MSTORE DUP3 ADD MSTORE REVERT JUMPDEST PUSH1 0x84 SWAP1 PUSH32 0x457870697265642064617465206D75737420626520696E207468652066757475 PUSH1 0x40 MLOAD SWAP2 PUSH3 0x461BCD PUSH1 0xE5 SHL DUP4 MSTORE PUSH1 0x20 PUSH1 0x4 DUP5 ADD MSTORE PUSH1 0x22 PUSH1 0x24 DUP5 ADD MSTORE DUP3 ADD MSTORE PUSH2 0x7265 PUSH1 0xF0 SHL PUSH1 0x64 DUP3 ADD MSTORE REVERT JUMPDEST PUSH1 0x84 SWAP1 PUSH32 0x44657461696C6564206465736372697074696F6E204349442063616E6E6F7420 PUSH1 0x40 MLOAD SWAP2 PUSH3 0x461BCD PUSH1 0xE5 SHL DUP4 MSTORE PUSH1 0x20 PUSH1 0x4 DUP5 ADD MSTORE PUSH1 0x28 PUSH1 0x24 DUP5 ADD MSTORE DUP3 ADD MSTORE PUSH8 0x626520656D707479 PUSH1 0xC0 SHL PUSH1 0x64 DUP3 ADD MSTORE REVERT JUMPDEST PUSH1 0x84 SWAP1 PUSH32 0x53686F7274206465736372697074696F6E204349442063616E6E6F7420626520 PUSH1 0x40 MLOAD SWAP2 PUSH3 0x461BCD PUSH1 0xE5 SHL DUP4 MSTORE PUSH1 0x20 PUSH1 0x4 DUP5 ADD MSTORE PUSH1 0x25 PUSH1 0x24 DUP5 ADD MSTORE DUP3 ADD MSTORE PUSH5 0x656D707479 PUSH1 0xD8 SHL PUSH1 0x64 DUP3 ADD MSTORE REVERT JUMPDEST PUSH1 0x64 SWAP1 PUSH32 0x5469746C65204349442063616E6E6F7420626520656D70747900000000000000 PUSH1 0x40 MLOAD SWAP2 PUSH3 0x461BCD PUSH1 0xE5 SHL DUP4 MSTORE PUSH1 0x20 PUSH1 0x4 DUP5 ADD MSTORE PUSH1 0x19 PUSH1 0x24 DUP5 ADD MSTORE DUP3 ADD MSTORE REVERT JUMPDEST PUSH2 0xD0E SWAP2 POP PUSH1 0x20 RETURNDATASIZE PUSH1 0x20 GT PUSH2 0x274 JUMPI PUSH2 0x266 DUP2 DUP4 PUSH2 0x1720 JUMP JUMPDEST DUP10 PUSH2 0x100 JUMP JUMPDEST CALLVALUE PUSH2 0x2A4 JUMPI PUSH1 0x20 DUP1 PUSH1 0x3 NOT CALLDATASIZE ADD SLT PUSH2 0x2A4 JUMPI PUSH1 0x4 CALLDATALOAD SWAP1 PUSH1 0x1 DUP1 PUSH1 0xA0 SHL SUB SWAP1 PUSH1 0x24 DUP2 DUP4 PUSH1 0x0 SLOAD AND PUSH1 0x40 MLOAD SWAP3 DUP4 DUP1 SWAP3 PUSH4 0x1FD3F77 PUSH1 0xE7 SHL DUP3 MSTORE CALLER PUSH1 0x4 DUP4 ADD MSTORE GAS STATICCALL DUP1 ISZERO PUSH2 0x27B JUMPI PUSH2 0xD6A SWAP2 PUSH1 0x0 SWAP2 PUSH2 0xEC3 JUMPI POP PUSH2 0x175A JUMP JUMPDEST DUP3 PUSH1 0x0 MSTORE PUSH1 0x2 DUP2 MSTORE PUSH2 0xD98 PUSH1 0x6 PUSH1 0x40 PUSH1 0x0 KECCAK256 PUSH2 0xD8F PUSH1 0xFF PUSH1 0x5 DUP4 ADD SLOAD PUSH1 0xA0 SHR AND PUSH2 0x1806 JUMP JUMPDEST ADD SLOAD TIMESTAMP LT PUSH2 0x184B JUMP JUMPDEST DUP3 PUSH1 0x0 MSTORE PUSH1 0x2 DUP2 MSTORE PUSH1 0x40 PUSH1 0x0 KECCAK256 SWAP2 PUSH1 0x5 DUP4 ADD SLOAD AND SWAP1 PUSH2 0xDB8 DUP3 ISZERO ISZERO PUSH2 0x188E JUMP JUMPDEST PUSH1 0xB DUP4 ADD SWAP2 CALLER PUSH1 0x0 MSTORE DUP3 DUP3 MSTORE PUSH1 0xFF PUSH1 0x40 PUSH1 0x0 KECCAK256 SLOAD AND PUSH2 0xE6A JUMPI PUSH2 0xDDD SWAP1 CALLER EQ ISZERO PUSH2 0x18DA JUMP JUMPDEST CALLER PUSH1 0x0 MSTORE PUSH1 0xC DUP4 ADD DUP2 MSTORE PUSH1 0x40 PUSH1 0x0 KECCAK256 DUP1 SLOAD PUSH1 0xFF DUP2 AND PUSH2 0xE4D JUMPI JUMPDEST POP POP CALLER PUSH1 0x0 MSTORE MSTORE PUSH1 0x40 PUSH1 0x0 KECCAK256 PUSH1 0x1 PUSH1 0xFF NOT DUP3 SLOAD AND OR SWAP1 SSTORE PUSH1 0x3 DUP2 ADD PUSH2 0xE1C DUP2 SLOAD PUSH2 0x179C JUMP JUMPDEST SWAP1 SSTORE PUSH1 0x9 TIMESTAMP SWAP2 ADD SSTORE CALLER SWAP1 PUSH32 0x91D72FE165ABD5430E48336DE75685D3F58EAEAB2EB2D7B644EF7403642D116F PUSH1 0x0 DUP1 LOG3 STOP JUMPDEST PUSH1 0xFF NOT AND SWAP1 SSTORE PUSH1 0x4 DUP4 ADD PUSH2 0xE61 DUP2 SLOAD PUSH2 0x1925 JUMP JUMPDEST SWAP1 SSTORE DUP5 DUP1 PUSH2 0xDF7 JUMP JUMPDEST PUSH1 0x40 MLOAD PUSH3 0x461BCD PUSH1 0xE5 SHL DUP2 MSTORE PUSH1 0x4 DUP2 ADD DUP4 SWAP1 MSTORE PUSH1 0x2B PUSH1 0x24 DUP3 ADD MSTORE PUSH32 0x596F75206861766520616C726561647920766F74656420594553206F6E207468 PUSH1 0x44 DUP3 ADD MSTORE PUSH11 0x1A5CC81C1C9BDC1BDCD85B PUSH1 0xAA SHL PUSH1 0x64 DUP3 ADD MSTORE PUSH1 0x84 SWAP1 REVERT JUMPDEST PUSH2 0xEDA SWAP2 POP DUP4 RETURNDATASIZE DUP6 GT PUSH2 0x274 JUMPI PUSH2 0x266 DUP2 DUP4 PUSH2 0x1720 JUMP JUMPDEST DUP6 PUSH2 0x100 JUMP JUMPDEST CALLVALUE PUSH2 0x2A4 JUMPI PUSH1 0x0 CALLDATASIZE PUSH1 0x3 NOT ADD SLT PUSH2 0x2A4 JUMPI PUSH1 0x0 SLOAD PUSH1 0x40 MLOAD PUSH1 0x1 PUSH1 0x1 PUSH1 0xA0 SHL SUB SWAP1 SWAP2 AND DUP2 MSTORE PUSH1 0x20 SWAP1 RETURN JUMPDEST CALLVALUE PUSH2 0x2A4 JUMPI PUSH1 0x20 DUP1 PUSH1 0x3 NOT CALLDATASIZE ADD SLT PUSH2 0x2A4 JUMPI PUSH1 0x4 CALLDATALOAD PUSH1 0x0 DUP2 DUP2 MSTORE PUSH1 0x2 DUP4 MSTORE PUSH1 0x40 SWAP1 KECCAK256 PUSH1 0x5 DUP2 ADD DUP1 SLOAD SWAP4 SWAP2 SWAP1 PUSH1 0x1 PUSH1 0x1 PUSH1 0xA0 SHL SUB DUP4 DUP2 DUP8 AND PUSH2 0xF4B DUP2 ISZERO ISZERO PUSH2 0x188E JUMP JUMPDEST CALLER EQ SWAP2 DUP3 ISZERO PUSH2 0x104D JUMPI JUMPDEST POP POP ISZERO PUSH2 0xFF6 JUMPI PUSH1 0xA DUP3 ADD SWAP5 DUP6 SLOAD SWAP6 PUSH1 0xFF DUP8 AND PUSH2 0xFB1 JUMPI PUSH1 0x1 PUSH32 0x68E3CE211A37937184ED2D0165534A314CFF3C8B8BD7DCDD845523B07698450F SWAP7 SWAP8 PUSH1 0xFF NOT AND OR SWAP1 SSTORE PUSH1 0xFF PUSH1 0xA0 SHL NOT AND SWAP1 SSTORE PUSH1 0x9 TIMESTAMP SWAP2 ADD SSTORE PUSH1 0x40 MLOAD PUSH1 0x0 DUP2 MSTORE LOG2 STOP JUMPDEST PUSH1 0x40 MLOAD PUSH3 0x461BCD PUSH1 0xE5 SHL DUP2 MSTORE PUSH1 0x4 DUP2 ADD DUP7 SWAP1 MSTORE PUSH1 0x18 PUSH1 0x24 DUP3 ADD MSTORE PUSH32 0x50726F706F73616C20616C72656164792072656D6F7665640000000000000000 PUSH1 0x44 DUP3 ADD MSTORE PUSH1 0x64 SWAP1 REVERT JUMPDEST PUSH1 0x40 MLOAD PUSH3 0x461BCD PUSH1 0xE5 SHL DUP2 MSTORE PUSH1 0x4 DUP2 ADD DUP5 SWAP1 MSTORE PUSH1 0x29 PUSH1 0x24 DUP3 ADD MSTORE PUSH32 0x4F6E6C792063726561746F72206F722061646D696E2063616E2072656D6F7665 PUSH1 0x44 DUP3 ADD MSTORE PUSH9 0x81C1C9BDC1BDCD85B PUSH1 0xBA SHL PUSH1 0x64 DUP3 ADD MSTORE PUSH1 0x84 SWAP1 REVERT JUMPDEST PUSH1 0x0 SLOAD PUSH1 0x40 MLOAD PUSH4 0x935E01B PUSH1 0xE2 SHL DUP2 MSTORE CALLER PUSH1 0x4 DUP3 ADD MSTORE SWAP4 POP DUP4 SWAP2 PUSH1 0x24 SWAP2 DUP4 SWAP2 AND GAS STATICCALL SWAP1 DUP2 ISZERO PUSH2 0x27B JUMPI PUSH1 0x0 SWAP2 PUSH2 0x1086 JUMPI JUMPDEST POP DUP4 DUP8 PUSH2 0xF55 JUMP JUMPDEST PUSH2 0x109D SWAP2 POP DUP5 RETURNDATASIZE DUP7 GT PUSH2 0x274 JUMPI PUSH2 0x266 DUP2 DUP4 PUSH2 0x1720 JUMP JUMPDEST DUP7 PUSH2 0x107E JUMP JUMPDEST CALLVALUE PUSH2 0x2A4 JUMPI PUSH1 0x20 CALLDATASIZE PUSH1 0x3 NOT ADD SLT PUSH2 0x2A4 JUMPI PUSH1 0x4 CALLDATALOAD PUSH1 0x0 SWAP1 DUP2 MSTORE PUSH1 0x2 PUSH1 0x20 MSTORE PUSH1 0x40 SWAP1 KECCAK256 PUSH1 0x5 DUP2 ADD SLOAD PUSH2 0x10DE SWAP1 PUSH1 0x1 PUSH1 0x1 PUSH1 0xA0 SHL SUB AND ISZERO ISZERO PUSH2 0x188E JUMP JUMPDEST PUSH1 0x4 PUSH1 0x3 DUP3 ADD SLOAD SWAP2 ADD SLOAD SWAP1 DUP2 DUP2 SUB SWAP2 PUSH1 0x0 DUP2 SLT DUP3 DUP5 SLT DUP2 AND SWAP1 DUP4 DUP6 SGT SWAP1 ISZERO AND OR PUSH2 0x1164 JUMPI DUP1 DUP3 ADD DUP1 DUP4 GT PUSH2 0x1164 JUMPI DUP1 ISZERO SWAP4 DUP5 PUSH2 0x117A JUMPI PUSH1 0x64 DUP5 MUL SWAP5 DUP5 DUP7 DIV PUSH1 0x64 EQ DUP6 ISZERO OR ISZERO PUSH2 0x1164 JUMPI PUSH2 0x114E JUMPI DUP2 PUSH1 0xA0 SWAP6 DIV SWAP3 JUMPDEST PUSH1 0x40 MLOAD SWAP5 DUP6 MSTORE PUSH1 0x20 DUP6 ADD MSTORE PUSH1 0x40 DUP5 ADD MSTORE PUSH1 0x60 DUP4 ADD MSTORE PUSH1 0x80 DUP3 ADD MSTORE RETURN JUMPDEST PUSH4 0x4E487B71 PUSH1 0xE0 SHL PUSH1 0x0 MSTORE PUSH1 0x12 PUSH1 0x4 MSTORE PUSH1 0x24 PUSH1 0x0 REVERT JUMPDEST PUSH4 0x4E487B71 PUSH1 0xE0 SHL PUSH1 0x0 MSTORE PUSH1 0x11 PUSH1 0x4 MSTORE PUSH1 0x24 PUSH1 0x0 REVERT JUMPDEST PUSH1 0xA0 SWAP5 POP PUSH1 0x0 SWAP3 PUSH2 0x1132 JUMP JUMPDEST CALLVALUE PUSH2 0x2A4 JUMPI PUSH1 0x20 DUP1 PUSH1 0x3 NOT CALLDATASIZE ADD SLT PUSH2 0x2A4 JUMPI PUSH1 0x4 CALLDATALOAD SWAP1 PUSH1 0x1 DUP1 PUSH1 0xA0 SHL SUB SWAP2 PUSH1 0x24 DUP3 DUP5 PUSH1 0x0 SLOAD AND PUSH1 0x40 MLOAD SWAP3 DUP4 DUP1 SWAP3 PUSH4 0x1FD3F77 PUSH1 0xE7 SHL DUP3 MSTORE CALLER PUSH1 0x4 DUP4 ADD MSTORE GAS STATICCALL DUP1 ISZERO PUSH2 0x27B JUMPI PUSH2 0x11DC SWAP2 PUSH1 0x0 SWAP2 PUSH2 0x12FB JUMPI POP PUSH2 0x175A JUMP JUMPDEST DUP1 PUSH1 0x0 MSTORE PUSH1 0x2 DUP3 MSTORE PUSH2 0x1201 PUSH1 0x6 PUSH1 0x40 PUSH1 0x0 KECCAK256 PUSH2 0xD8F PUSH1 0xFF PUSH1 0x5 DUP4 ADD SLOAD PUSH1 0xA0 SHR AND PUSH2 0x1806 JUMP JUMPDEST PUSH1 0x0 MSTORE PUSH1 0x2 DUP2 MSTORE PUSH2 0x121E PUSH1 0x40 PUSH1 0x0 KECCAK256 SWAP3 PUSH1 0x5 DUP5 ADD SLOAD AND ISZERO ISZERO PUSH2 0x188E JUMP JUMPDEST PUSH1 0x0 CALLER PUSH1 0x0 MSTORE PUSH1 0xB DUP4 ADD DUP3 MSTORE PUSH1 0x40 PUSH1 0x0 KECCAK256 DUP1 SLOAD PUSH1 0xFF DUP2 AND PUSH2 0x12DA JUMPI JUMPDEST POP POP CALLER PUSH1 0x0 MSTORE PUSH1 0xC DUP4 ADD DUP3 MSTORE PUSH1 0x40 PUSH1 0x0 KECCAK256 DUP1 SLOAD PUSH1 0xFF DUP2 AND PUSH2 0x12B9 JUMPI JUMPDEST POP POP ISZERO PUSH2 0x1269 JUMPI POP PUSH1 0x9 TIMESTAMP SWAP2 ADD SSTORE PUSH1 0x0 DUP1 RETURN JUMPDEST PUSH1 0x84 SWAP1 PUSH1 0x40 MLOAD SWAP1 PUSH3 0x461BCD PUSH1 0xE5 SHL DUP3 MSTORE PUSH1 0x4 DUP3 ADD MSTORE PUSH1 0x23 PUSH1 0x24 DUP3 ADD MSTORE PUSH32 0x596F752068617665206E6F7420766F746564206F6E20746869732070726F706F PUSH1 0x44 DUP3 ADD MSTORE PUSH3 0x1CD85B PUSH1 0xEA SHL PUSH1 0x64 DUP3 ADD MSTORE REVERT JUMPDEST PUSH1 0xFF NOT AND SWAP1 SSTORE POP PUSH1 0x4 DUP3 ADD DUP1 SLOAD PUSH2 0x12CF SWAP1 PUSH2 0x1925 JUMP JUMPDEST SWAP1 SSTORE PUSH1 0x1 DUP4 DUP1 PUSH2 0x1256 JUMP JUMPDEST PUSH1 0xFF NOT AND SWAP1 SSTORE POP PUSH1 0x3 DUP3 ADD DUP1 SLOAD PUSH2 0x12F0 SWAP1 PUSH2 0x1925 JUMP JUMPDEST SWAP1 SSTORE PUSH1 0x1 DUP4 DUP1 PUSH2 0x123A JUMP JUMPDEST PUSH2 0xEDA SWAP2 POP DUP5 RETURNDATASIZE DUP7 GT PUSH2 0x274 JUMPI PUSH2 0x266 DUP2 DUP4 PUSH2 0x1720 JUMP JUMPDEST CALLVALUE PUSH2 0x2A4 JUMPI PUSH1 0x40 CALLDATASIZE PUSH1 0x3 NOT ADD SLT PUSH2 0x2A4 JUMPI PUSH1 0x4 CALLDATALOAD PUSH1 0x24 CALLDATALOAD SWAP1 DUP2 ISZERO ISZERO DUP1 SWAP3 SUB PUSH2 0x2A4 JUMPI PUSH1 0x0 SLOAD PUSH1 0x40 MLOAD PUSH4 0x935E01B PUSH1 0xE2 SHL DUP1 DUP3 MSTORE CALLER PUSH1 0x4 DUP4 ADD MSTORE PUSH1 0x1 PUSH1 0x1 PUSH1 0xA0 SHL SUB SWAP5 PUSH1 0x20 SWAP4 SWAP1 SWAP3 SWAP1 DUP7 AND SWAP1 DUP5 DUP2 PUSH1 0x24 DUP2 DUP6 GAS STATICCALL DUP1 ISZERO PUSH2 0x27B JUMPI PUSH2 0x137C SWAP2 PUSH1 0x0 SWAP2 PUSH2 0x14FA JUMPI POP PUSH2 0x175A JUMP JUMPDEST DUP5 PUSH1 0x0 MSTORE PUSH1 0x2 DUP5 MSTORE PUSH1 0x40 PUSH1 0x0 KECCAK256 SWAP2 PUSH1 0x5 DUP4 ADD SWAP2 DUP6 DUP4 SLOAD SWAP9 DUP10 AND PUSH2 0x13A0 DUP2 ISZERO ISZERO PUSH2 0x188E JUMP JUMPDEST CALLER EQ SWAP3 DUP4 ISZERO PUSH2 0x14AE JUMPI JUMPDEST POP POP POP ISZERO PUSH2 0x1459 JUMPI DUP3 PUSH1 0xFF DUP8 PUSH1 0xA0 SHR AND ISZERO ISZERO EQ PUSH2 0x1408 JUMPI PUSH32 0x68E3CE211A37937184ED2D0165534A314CFF3C8B8BD7DCDD845523B07698450F SWAP5 SWAP6 PUSH1 0xFF PUSH1 0xA0 SHL DUP5 PUSH1 0xA0 SHL AND SWAP1 PUSH1 0xFF PUSH1 0xA0 SHL NOT AND OR SWAP1 SSTORE PUSH1 0x9 TIMESTAMP SWAP2 ADD SSTORE PUSH1 0x40 MLOAD SWAP1 DUP2 MSTORE LOG2 STOP JUMPDEST PUSH1 0x40 MLOAD PUSH3 0x461BCD PUSH1 0xE5 SHL DUP2 MSTORE PUSH1 0x4 DUP2 ADD DUP6 SWAP1 MSTORE PUSH1 0x23 PUSH1 0x24 DUP3 ADD MSTORE PUSH32 0x53746174757320697320616C72656164792073657420746F2074686973207661 PUSH1 0x44 DUP3 ADD MSTORE PUSH3 0x6C7565 PUSH1 0xE8 SHL PUSH1 0x64 DUP3 ADD MSTORE PUSH1 0x84 SWAP1 REVERT JUMPDEST PUSH1 0x40 MLOAD PUSH3 0x461BCD PUSH1 0xE5 SHL DUP2 MSTORE PUSH1 0x4 DUP2 ADD DUP6 SWAP1 MSTORE PUSH1 0x27 PUSH1 0x24 DUP3 ADD MSTORE PUSH32 0x4F6E6C792063726561746F72206F722061646D696E2063616E206368616E6765 PUSH1 0x44 DUP3 ADD MSTORE PUSH7 0x20737461747573 PUSH1 0xC8 SHL PUSH1 0x64 DUP3 ADD MSTORE PUSH1 0x84 SWAP1 REVERT JUMPDEST SWAP1 SWAP2 SWAP3 POP PUSH1 0x24 PUSH1 0x40 MLOAD DUP1 SWAP5 DUP2 SWAP4 DUP3 MSTORE CALLER PUSH1 0x4 DUP4 ADD MSTORE GAS STATICCALL SWAP1 DUP2 ISZERO PUSH2 0x27B JUMPI PUSH1 0x0 SWAP2 PUSH2 0x14DD JUMPI JUMPDEST POP DUP8 DUP6 DUP2 PUSH2 0x13AA JUMP JUMPDEST PUSH2 0x14F4 SWAP2 POP DUP6 RETURNDATASIZE DUP8 GT PUSH2 0x274 JUMPI PUSH2 0x266 DUP2 DUP4 PUSH2 0x1720 JUMP JUMPDEST DUP8 PUSH2 0x14D4 JUMP JUMPDEST PUSH2 0x4D5 SWAP2 POP DUP7 RETURNDATASIZE DUP9 GT PUSH2 0x274 JUMPI PUSH2 0x266 DUP2 DUP4 PUSH2 0x1720 JUMP JUMPDEST CALLVALUE PUSH2 0x2A4 JUMPI PUSH1 0x20 SWAP1 DUP2 PUSH1 0x3 NOT CALLDATASIZE ADD SLT PUSH2 0x2A4 JUMPI PUSH1 0x4 CALLDATALOAD SWAP2 PUSH1 0x1 DUP1 PUSH1 0xA0 SHL SUB SWAP2 DUP2 DUP2 PUSH1 0x24 DUP2 DUP7 PUSH1 0x0 SLOAD AND PUSH4 0x1FD3F77 PUSH1 0xE7 SHL DUP3 MSTORE CALLER PUSH1 0x4 DUP4 ADD MSTORE GAS STATICCALL DUP1 ISZERO PUSH2 0x27B JUMPI PUSH2 0x1563 SWAP2 PUSH1 0x0 SWAP2 PUSH2 0xEC3 JUMPI POP PUSH2 0x175A JUMP JUMPDEST DUP3 PUSH1 0x0 MSTORE PUSH1 0x2 DUP2 MSTORE PUSH2 0x1588 PUSH1 0x6 PUSH1 0x40 PUSH1 0x0 KECCAK256 PUSH2 0xD8F PUSH1 0xFF PUSH1 0x5 DUP4 ADD SLOAD PUSH1 0xA0 SHR AND PUSH2 0x1806 JUMP JUMPDEST DUP3 PUSH1 0x0 MSTORE PUSH1 0x2 DUP2 MSTORE PUSH1 0x40 PUSH1 0x0 KECCAK256 SWAP2 PUSH1 0x5 DUP4 ADD SLOAD AND SWAP1 PUSH2 0x15A8 DUP3 ISZERO ISZERO PUSH2 0x188E JUMP JUMPDEST PUSH1 0xC DUP4 ADD SWAP2 CALLER PUSH1 0x0 MSTORE DUP3 DUP3 MSTORE PUSH1 0xFF PUSH1 0x40 PUSH1 0x0 KECCAK256 SLOAD AND PUSH2 0x165A JUMPI PUSH2 0x15CD SWAP1 CALLER EQ ISZERO PUSH2 0x18DA JUMP JUMPDEST CALLER PUSH1 0x0 MSTORE PUSH1 0xB DUP4 ADD DUP2 MSTORE PUSH1 0x40 PUSH1 0x0 KECCAK256 DUP1 SLOAD PUSH1 0xFF DUP2 AND PUSH2 0x163D JUMPI JUMPDEST POP POP CALLER PUSH1 0x0 MSTORE MSTORE PUSH1 0x40 PUSH1 0x0 KECCAK256 PUSH1 0x1 PUSH1 0xFF NOT DUP3 SLOAD AND OR SWAP1 SSTORE PUSH1 0x4 DUP2 ADD PUSH2 0x160C DUP2 SLOAD PUSH2 0x179C JUMP JUMPDEST SWAP1 SSTORE PUSH1 0x9 TIMESTAMP SWAP2 ADD SSTORE CALLER SWAP1 PUSH32 0xF22F90EC8CA04CBB8FBCB15687D8DC5DCC4D74EAF1529B699367F232B785358B PUSH1 0x0 DUP1 LOG3 STOP JUMPDEST PUSH1 0xFF NOT AND SWAP1 SSTORE PUSH1 0x3 DUP4 ADD PUSH2 0x1651 DUP2 SLOAD PUSH2 0x1925 JUMP JUMPDEST SWAP1 SSTORE DUP5 DUP1 PUSH2 0x15E7 JUMP JUMPDEST PUSH1 0x40 MLOAD PUSH3 0x461BCD PUSH1 0xE5 SHL DUP2 MSTORE PUSH1 0x4 DUP2 ADD DUP4 SWAP1 MSTORE PUSH1 0x2A PUSH1 0x24 DUP3 ADD MSTORE PUSH32 0x596F75206861766520616C726561647920766F746564204E4F206F6E20746869 PUSH1 0x44 DUP3 ADD MSTORE PUSH10 0x1CC81C1C9BDC1BDCD85B PUSH1 0xB2 SHL PUSH1 0x64 DUP3 ADD MSTORE PUSH1 0x84 SWAP1 REVERT JUMPDEST SWAP2 DUP2 PUSH1 0x1F DUP5 ADD SLT ISZERO PUSH2 0x2A4 JUMPI DUP3 CALLDATALOAD SWAP2 PUSH8 0xFFFFFFFFFFFFFFFF DUP4 GT PUSH2 0x2A4 JUMPI PUSH1 0x20 DUP4 DUP2 DUP7 ADD SWAP6 ADD ADD GT PUSH2 0x2A4 JUMPI JUMP JUMPDEST SWAP2 SWAP1 DUP3 MLOAD SWAP3 DUP4 DUP3 MSTORE PUSH1 0x0 JUMPDEST DUP5 DUP2 LT PUSH2 0x170C JUMPI POP POP DUP3 PUSH1 0x0 PUSH1 0x20 DUP1 SWAP5 SWAP6 DUP5 ADD ADD MSTORE PUSH1 0x1F DUP1 NOT SWAP2 ADD AND ADD ADD SWAP1 JUMP JUMPDEST PUSH1 0x20 DUP2 DUP4 ADD DUP2 ADD MLOAD DUP5 DUP4 ADD DUP3 ADD MSTORE ADD PUSH2 0x16EB JUMP JUMPDEST SWAP1 PUSH1 0x1F DUP1 NOT SWAP2 ADD AND DUP2 ADD SWAP1 DUP2 LT PUSH8 0xFFFFFFFFFFFFFFFF DUP3 GT OR PUSH2 0x9ED JUMPI PUSH1 0x40 MSTORE JUMP JUMPDEST SWAP1 DUP2 PUSH1 0x20 SWAP2 SUB SLT PUSH2 0x2A4 JUMPI MLOAD DUP1 ISZERO ISZERO DUP2 SUB PUSH2 0x2A4 JUMPI SWAP1 JUMP JUMPDEST ISZERO PUSH2 0x1761 JUMPI JUMP JUMPDEST PUSH1 0x40 MLOAD PUSH3 0x461BCD PUSH1 0xE5 SHL DUP2 MSTORE PUSH1 0x20 PUSH1 0x4 DUP3 ADD MSTORE PUSH1 0x13 PUSH1 0x24 DUP3 ADD MSTORE PUSH19 0x155CD95C881B9BDD08185D5D1A1BDC9A5E9959 PUSH1 0x6A SHL PUSH1 0x44 DUP3 ADD MSTORE PUSH1 0x64 SWAP1 REVERT JUMPDEST PUSH1 0x0 NOT DUP2 EQ PUSH2 0x1164 JUMPI PUSH1 0x1 ADD SWAP1 JUMP JUMPDEST SWAP1 PUSH1 0x1 DUP3 DUP2 SHR SWAP3 AND DUP1 ISZERO PUSH2 0x17DB JUMPI JUMPDEST PUSH1 0x20 DUP4 LT EQ PUSH2 0x17C5 JUMPI JUMP JUMPDEST PUSH4 0x4E487B71 PUSH1 0xE0 SHL PUSH1 0x0 MSTORE PUSH1 0x22 PUSH1 0x4 MSTORE PUSH1 0x24 PUSH1 0x0 REVERT JUMPDEST SWAP2 PUSH1 0x7F AND SWAP2 PUSH2 0x17BA JUMP JUMPDEST SWAP1 DUP1 PUSH1 0x20 SWAP4 SWAP3 DUP2 DUP5 MSTORE DUP5 DUP5 ADD CALLDATACOPY PUSH1 0x0 DUP3 DUP3 ADD DUP5 ADD MSTORE PUSH1 0x1F ADD PUSH1 0x1F NOT AND ADD ADD SWAP1 JUMP JUMPDEST ISZERO PUSH2 0x180D JUMPI JUMP JUMPDEST PUSH1 0x40 MLOAD PUSH3 0x461BCD PUSH1 0xE5 SHL DUP2 MSTORE PUSH1 0x20 PUSH1 0x4 DUP3 ADD MSTORE PUSH1 0x16 PUSH1 0x24 DUP3 ADD MSTORE PUSH22 0x50726F706F73616C206973206E6F7420616374697665 PUSH1 0x50 SHL PUSH1 0x44 DUP3 ADD MSTORE PUSH1 0x64 SWAP1 REVERT JUMPDEST ISZERO PUSH2 0x1852 JUMPI JUMP JUMPDEST PUSH1 0x40 MLOAD PUSH3 0x461BCD PUSH1 0xE5 SHL DUP2 MSTORE PUSH1 0x20 PUSH1 0x4 DUP3 ADD MSTORE PUSH1 0x14 PUSH1 0x24 DUP3 ADD MSTORE PUSH20 0x141C9BDC1BDCD85B081A185CC8195E1C1A5C9959 PUSH1 0x62 SHL PUSH1 0x44 DUP3 ADD MSTORE PUSH1 0x64 SWAP1 REVERT JUMPDEST ISZERO PUSH2 0x1895 JUMPI JUMP JUMPDEST PUSH1 0x40 MLOAD PUSH3 0x461BCD PUSH1 0xE5 SHL DUP2 MSTORE PUSH1 0x20 PUSH1 0x4 DUP3 ADD MSTORE PUSH1 0x17 PUSH1 0x24 DUP3 ADD MSTORE PUSH32 0x50726F706F73616C20646F6573206E6F74206578697374000000000000000000 PUSH1 0x44 DUP3 ADD MSTORE PUSH1 0x64 SWAP1 REVERT JUMPDEST ISZERO PUSH2 0x18E1 JUMPI JUMP JUMPDEST PUSH1 0x64 PUSH1 0x40 MLOAD PUSH3 0x461BCD PUSH1 0xE5 SHL DUP2 MSTORE PUSH1 0x20 PUSH1 0x4 DUP3 ADD MSTORE PUSH1 0x20 PUSH1 0x24 DUP3 ADD MSTORE PUSH32 0x43616E6E6F7420766F7465206F6E20796F7572206F776E2070726F706F73616C PUSH1 0x44 DUP3 ADD MSTORE REVERT JUMPDEST DUP1 ISZERO PUSH2 0x1164 JUMPI PUSH1 0x0 NOT ADD SWAP1 JUMP JUMPDEST SWAP1 PUSH1 0x40 MLOAD SWAP2 DUP3 PUSH1 0x0 DUP3 SLOAD SWAP3 PUSH2 0x1946 DUP5 PUSH2 0x17AB JUMP JUMPDEST SWAP1 DUP2 DUP5 MSTORE PUSH1 0x1 SWAP5 DUP6 DUP2 AND SWAP1 DUP2 PUSH1 0x0 EQ PUSH2 0x19B5 JUMPI POP PUSH1 0x1 EQ PUSH2 0x1972 JUMPI JUMPDEST POP POP PUSH2 0x1970 SWAP3 POP SUB DUP4 PUSH2 0x1720 JUMP JUMPDEST JUMP JUMPDEST SWAP1 SWAP4 SWAP2 POP PUSH1 0x0 MSTORE PUSH1 0x20 SWAP1 DUP2 PUSH1 0x0 KECCAK256 SWAP4 PUSH1 0x0 SWAP2 JUMPDEST DUP2 DUP4 LT PUSH2 0x199D JUMPI POP POP PUSH2 0x1970 SWAP4 POP DUP3 ADD ADD CODESIZE DUP1 PUSH2 0x1962 JUMP JUMPDEST DUP6 SLOAD DUP9 DUP5 ADD DUP6 ADD MSTORE SWAP5 DUP6 ADD SWAP5 DUP8 SWAP5 POP SWAP2 DUP4 ADD SWAP2 PUSH2 0x1985 JUMP JUMPDEST SWAP2 POP POP PUSH2 0x1970 SWAP5 POP PUSH1 0x20 SWAP3 POP PUSH1 0xFF NOT AND DUP3 DUP5 ADD MSTORE ISZERO ISZERO PUSH1 0x5 SHL DUP3 ADD ADD CODESIZE DUP1 PUSH2 0x1962 JUMP INVALID LOG2 PUSH5 0x6970667358 0x22 SLT KECCAK256 EXTCODEHASH AND 0x23 PUSH31 0x37C21B2A04BAEA0F78DAA5EE9AA0B9DEF66469F6116CE896FD00C6B364736F PUSH13 0x63430008140033000000000000 "},"methodIdentifiers":{"authRegistry()":"629e025a","changeProposalStatus(uint256,bool)":"38c545b4","createProposal(string,string,string,uint256,uint256)":"8e295bda","expireProposal(uint256)":"e1b526b0","extendProposalDeadline(uint256,uint256)":"c966f516","getProposal(uint256)":"c7f758a8","getProposalVotes(uint256)":"47c66140","lastCreatedAt(address)":"b94afa71","proposalCount()":"da35c664","removeProposal(uint256)":"4ce4e6c7","removeVote(uint256)":"3f68fde4","voteNo(uint256)":"1a6f7be5","voteYes(uint256)":"6a1cf721"}}}}}