{"contracts/policy/policy.sol":{"Policies":{"abi":[{"inputs":[{"internalType":"address","name":"_authRegistry","type":"address"}],"stateMutability":"nonpayable","type":"constructor"},{"anonymous":false,"inputs":[{"indexed":true,"internalType":"uint256","name":"policyId","type":"uint256"},{"indexed":true,"internalType":"address","name":"creator","type":"address"},{"indexed":false,"internalType":"string","name":"name","type":"string"},{"indexed":false,"internalType":"string","name":"descriptionCid","type":"string"},{"indexed":false,"internalType":"string","name":"ministry","type":"string"},{"indexed":false,"internalType":"string","name":"status","type":"string"}],"name":"PolicyCreated","type":"event"},{"anonymous":false,"inputs":[{"indexed":true,"internalType":"uint256","name":"policyId","type":"uint256"},{"indexed":true,"internalType":"address","name":"remover","type":"address"}],"name":"PolicyRemoved","type":"event"},{"anonymous":false,"inputs":[{"indexed":true,"internalType":"uint256","name":"policyId","type":"uint256"},{"indexed":false,"internalType":"string","name":"oldStatus","type":"string"},{"indexed":false,"internalType":"string","name":"newStatus","type":"string"},{"indexed":true,"internalType":"address","name":"changer","type":"address"}],"name":"PolicyStatusChanged","type":"event"},{"anonymous":false,"inputs":[{"indexed":true,"internalType":"uint256","name":"policyId","type":"uint256"},{"indexed":true,"internalType":"address","name":"supporter","type":"address"}],"name":"PolicySupported","type":"event"},{"anonymous":false,"inputs":[{"indexed":true,"internalType":"uint256","name":"policyId","type":"uint256"},{"indexed":true,"internalType":"address","name":"supporter","type":"address"}],"name":"PolicyUnsupported","type":"event"},{"anonymous":false,"inputs":[{"indexed":true,"internalType":"uint256","name":"policyId","type":"uint256"},{"indexed":true,"internalType":"address","name":"updater","type":"address"},{"indexed":false,"internalType":"string","name":"status","type":"string"},{"indexed":false,"internalType":"uint256","name":"effectiveDate","type":"uint256"}],"name":"PolicyUpdated","type":"event"},{"inputs":[],"name":"authRegistry","outputs":[{"internalType":"contract IAuthRegistry","name":"","type":"address"}],"stateMutability":"view","type":"function"},{"inputs":[{"internalType":"string","name":"name","type":"string"},{"internalType":"string","name":"descriptionCid","type":"string"},{"internalType":"string","name":"viewFullPolicy","type":"string"},{"internalType":"string","name":"ministry","type":"string"},{"internalType":"uint256","name":"effectiveDate","type":"uint256"}],"name":"createPolicy","outputs":[{"internalType":"uint256","name":"","type":"uint256"}],"stateMutability":"nonpayable","type":"function"},{"inputs":[{"internalType":"uint256","name":"policyId","type":"uint256"}],"name":"getPolicy","outputs":[{"internalType":"string","name":"name","type":"string"},{"internalType":"string","name":"descriptionCid","type":"string"},{"internalType":"string","name":"viewFullPolicy","type":"string"},{"internalType":"string","name":"ministry","type":"string"},{"internalType":"string","name":"status","type":"string"},{"internalType":"address","name":"creator","type":"address"},{"internalType":"uint256","name":"createdAt","type":"uint256"},{"internalType":"uint256","name":"effectiveDate","type":"uint256"},{"internalType":"uint256","name":"lastUpdated","type":"uint256"},{"internalType":"uint256","name":"supportCount","type":"uint256"},{"internalType":"bool","name":"isActive","type":"bool"},{"internalType":"bool","name":"removed","type":"bool"}],"stateMutability":"view","type":"function"},{"inputs":[{"internalType":"address","name":"","type":"address"}],"name":"lastCreatedAt","outputs":[{"internalType":"uint256","name":"","type":"uint256"}],"stateMutability":"view","type":"function"},{"inputs":[{"internalType":"string","name":"","type":"string"},{"internalType":"uint256","name":"","type":"uint256"}],"name":"policiesByMinistry","outputs":[{"internalType":"uint256","name":"","type":"uint256"}],"stateMutability":"view","type":"function"},{"inputs":[{"internalType":"string","name":"","type":"string"},{"internalType":"uint256","name":"","type":"uint256"}],"name":"policiesByStatus","outputs":[{"internalType":"uint256","name":"","type":"uint256"}],"stateMutability":"view","type":"function"},{"inputs":[],"name":"policyCount","outputs":[{"internalType":"uint256","name":"","type":"uint256"}],"stateMutability":"view","type":"function"},{"inputs":[{"internalType":"uint256","name":"policyId","type":"uint256"}],"name":"removePolicy","outputs":[],"stateMutability":"nonpayable","type":"function"},{"inputs":[{"internalType":"uint256","name":"policyId","type":"uint256"}],"name":"supportPolicy","outputs":[],"stateMutability":"nonpayable","type":"function"},{"inputs":[{"internalType":"uint256","name":"policyId","type":"uint256"}],"name":"unsupportPolicy","outputs":[],"stateMutability":"nonpayable","type":"function"},{"inputs":[{"internalType":"uint256","name":"policyId","type":"uint256"},{"internalType":"string","name":"newStatus","type":"string"},{"internalType":"uint256","name":"newEffectiveDate","type":"uint256"}],"name":"updatePolicyStatus","outputs":[],"stateMutability":"nonpayable","type":"function"}],"evm":{"bytecode":{"linkReferences":{},"object":"6080346100cb57601f61182f38819003918201601f19168301916001600160401b038311848410176100d0578084926020946040528339810103126100cb57516001600160a01b038116908190036100cb57801561007a57600080546001600160a01b03191691909117905560405161174890816100e78239f35b60405162461bcd60e51b8152602060048201526024808201527f4175746820726567697374727920616464726573732063616e6e6f74206265206044820152637a65726f60e01b6064820152608490fd5b600080fd5b634e487b7160e01b600052604160045260246000fdfe6080604052600436101561001257600080fd5b60003560e01c80632b07fce3146111a95780632d1564dd1461105657806350c99e7c14610ec0578063629e025a14610e975780636caddcdc14610d865780638f03ad6e14610867578063b94afa7114610829578063be0973b1146107f7578063c29f42e9146107a2578063de54d429146107845763f5c2d1861461009557600080fd5b3461077f5760a036600319011261077f576004356001600160401b03811161077f576100c5903690600401611339565b6024356001600160401b03811161077f576100e4903690600401611339565b90916044356001600160401b03811161077f57610105903690600401611339565b9290936064356001600160401b03811161077f57610127903690600401611339565b600054604051630935e01b60e21b8152336004820152929491939290602090829060249082906001600160a01b03165afa80156107735761017091600091610744575b50611470565b84156107085780156106c357851561067e578215610639576101936001546114ac565b96876001558760005260026020526040600020966001600160401b0387116104c2576101c9876101c38a546114bb565b8a61150c565b866000601f82116001146105d2576000916105c7575b508760011b906000198960031b1c19161788555b6001600160401b0383116104c25761021b8361021260018b01546114bb565b60018b0161150c565b826000601f82116001146105595760009161054e575b508360011b906000198560031b1c19161760018901555b6001600160401b0381116104c2578060028901926102708261026a86546114bb565b8661150c565b600090601f83116001146104e3576000926104d8575b50508160011b916000199060031b1c19161790555b6001600160401b0383116104c2576102c3836102ba60038901546114bb565b6003890161150c565b600097601f841160011461045257838899600099989991610447575b508460011b906000198660031b1c19161760038901555b600488019761030589546114bb565b601f8111610425575b5064111490519560da1b98600a8a01905560058101336bffffffffffffffffffffffff60a01b8254161790554260068201556084356007820155426008820155600b0161ffff198154169055866040518587823780868101600481520360200190209061037a91611553565b60405188815260058082015260259020610395908890611553565b33600052600360205242604060002055604051956080875260808701906103bb9261157b565b9085820360208701526103cd9261157b565b9083820360408501526103df9261157b565b9281840393846060840152600581526020015233926040017f27a2761f5ffc4e00cb4a17ae63df13edf7bbde45f08c0a77569cfddd2d47ed5f91a3604051908152602090f35b610441908a600052601f6020600020910160051c8101906114f5565b3861030e565b9050850135386102df565b60038701600052602060002060005b601f19861681106104aa5750889985601f9a999a19811610610490575b5050600184811b0160038901556102f6565b860135600019600387901b60f8161c19169055388061047e565b868b0135825560209a8b019a60019092019101610461565b634e487b7160e01b600052604160045260246000fd5b013590503880610286565b909150601f198316918460005260206000209260005b818110610536575090846001959493921061051c575b505050811b01905561029b565b0135600019600384901b60f8161c1916905538808061050f565b919360206001819287870135815501950192016104f9565b905084013538610231565b90506001890160005260206000209060005b601f19861681106105af575084601f19811610610595575b5050600183811b016001890155610248565b850135600019600386901b60f8161c191690553880610583565b9091602060018192858a01358155019301910161056b565b90508a0135386101df565b60008a81526020812092505b8c601f198b16821061062157505088601f19811610610607575b5050600187811b0188556101f3565b8b013560001960038a901b60f8161c1916905538806105f8565b600183946020939484930135815501930191016105de565b60405162461bcd60e51b815260206004820152601860248201527f4d696e69737472792063616e6e6f7420626520656d70747900000000000000006044820152606490fd5b60405162461bcd60e51b815260206004820152601f60248201527f46756c6c20706f6c6963792055524c2063616e6e6f7420626520656d707479006044820152606490fd5b60405162461bcd60e51b815260206004820152601f60248201527f4465736372697074696f6e204349442063616e6e6f7420626520656d707479006044820152606490fd5b60405162461bcd60e51b81526020600482015260146024820152734e616d652063616e6e6f7420626520656d70747960601b6044820152606490fd5b610766915060203d60201161076c575b61075e8183611381565b810190611458565b3861016a565b503d610754565b6040513d6000823e3d90fd5b600080fd5b3461077f57600036600319011261077f576020600154604051908152f35b3461077f5760206107ca6107b5366113e8565b929081604051938285809451938492016112f1565b81016004815203019020805482101561077f576020916107e99161142a565b90546040519160031b1c8152f35b3461077f57602061080a6107b5366113e8565b81016005815203019020805482101561077f576020916107e99161142a565b3461077f57602036600319011261077f576004356001600160a01b0381169081900361077f5760005260036020526020604060002054604051908152f35b3461077f57606036600319011261077f5760246001600160401b03600435823582811161077f5761089c903690600401611339565b600054604051630935e01b60e21b81523360048201526020966044359594929091906001600160a01b0390899083908590829085165afa9182156107735761091a926108ef91600091610d695750611470565b85151580610d5d575b6109019061159c565b856000526002895260056040600020015416151561159c565b836000526002875261093a60ff600b6040600020015460081c16156115e0565b8360005260028752604060002094600486016109558161162c565b926040518a81865161096a8183858b016112f1565b810160058152030190209860005b8a5480821015610d4c57899061098e838e61142a565b929054600393841b1c146109ac5750506109a7906114ac565b610978565b9092939495969798999a9b9160001991828101908111610d3757906109e46109d76109fd938661142a565b905490871b1c918561142a565b90919082549060031b91821b91600019901b1916179055565b81548015610d2257810192610a12848461142a565b81939154921b1b19169055555b8611610d0e5750610a3a85610a3483546114bb565b8361150c565b6000601f8611600114610c7e57926007927fad2e1dfc6994aeeaf151fa20c453bac06d98c011752a28edadb877ad0f077cf797989287610b8996600091610c73575b508860011b906000198a60031b1c19161790555b42600884015580610c69575b50610aba88604051888882378b818a81016005815203019020611553565b7fdb6d55a48c634fdfe68da24c01559762c293198f8322e1fed7ca8976fc4ed260610ae63688886113a2565b8a81519101206541435449564560d01b8b604051610b0381611366565b6006815201521480610c5c575b15610b9557600b8201805460ff191660011790555b877f7349e505864221fcf2768bf72491e152fedc76f5d0a627184f0fdace25d15207610b5c60405193604085526040850190611314565b928084038c82015280610b7133958b8b61157b565b0390a30154916040519360408552604085019161157b565b948201528033940390a3005b7f0e71c910d536b61fcef69518c42a88c159e7af67bb3870c8551c6d0c8616ea97610bc13688886113a2565b8a815191012067494e41435449564560c01b8b604051610be081611366565b600881520152148015610c04575b15610b2557600b8201805460ff19169055610b25565b507fe6c285292cab7e0caa931a7e4e62e4b31622725235f51dca3c4727d29d299083610c313688886113a2565b8a815191012067105490d21255915160c21b8b604051610c5081611366565b60088152015214610bee565b5042838301541115610b10565b8383015589610a9c565b90508701358c610a7c565b601f1986169082600052896000209160005b8b828210610cf857505092610b89959260079592897fad2e1dfc6994aeeaf151fa20c453bac06d98c011752a28edadb877ad0f077cf79b9c9610610cde575b5050600188811b019055610a90565b88013560001960038b901b60f8161c191690558b80610ccf565b600184958293958b013581550194019201610c90565b634e487b7160e01b60009081526041600452fd5b85634e487b7160e01b60005260316004526000fd5b86634e487b7160e01b60005260116004526000fd5b505090919293949596979850610a1f565b506001548611156108f8565b610d8091508b3d8d1161076c5761075e8183611381565b8b61016a565b3461077f5760208060031936011261077f5760246004359160018060a01b0381816000541660405194858092630935e01b60e21b82523360048301525afa90811561077357610de2610e0c92600295600091610e7a5750611470565b84151580610e6e575b610df49061159c565b8460005283835260056040600020015416151561159c565b82600052818152610e2b60ff600b6040600020015460081c16156115e0565b8260005252600b60406000200161010061ff001982541617905533907f32c0c3b8e819967869a0bb85ca7fdd96f84ef60145dc478b2bcda11335bb5e31600080a3005b50600154851115610deb565b610e919150853d871161076c5761075e8183611381565b8761016a565b3461077f57600036600319011261077f576000546040516001600160a01b039091168152602090f35b3461077f5760208060031936011261077f57600435602460018060a01b03838160005416604051938480926301fd3f7760e71b82523360048301525afa91821561077357610f4592610f1a91600091611039575b506116d0565b8215158061102d575b610f2c9061159c565b826000526002845260056040600020015416151561159c565b8060005260028252610f6560ff600b6040600020015460081c16156115e0565b80600052600282526040600020600981013360005280845260ff60406000205416610fd957600a929333600052526040600020600160ff1982541617905501610fae81546114ac565b905533907f6ff95833b52ac3452956a7bb5c91e936d7c7c624ce4da8021edd243f5e745247600080a3005b60405162461bcd60e51b815260048101859052602660248201527f596f75206861766520616c726561647920737570706f72746564207468697320604482015265706f6c69637960d01b6064820152608490fd5b50600154831115610f23565b6110509150863d881161076c5761075e8183611381565b86610f14565b3461077f5760208060031936011261077f57600435602460018060a01b03838160005416604051938480926301fd3f7760e71b82523360048301525afa918215610773576110af92610f1a9160009161103957506116d0565b80600052600282526110cf60ff600b6040600020015460081c16156115e0565b80600052600282526040600020600981013360005280845260ff604060002054161561115957600a92933360005252604060002060ff19815416905501805480156111435760001901905533907f4f5e69cf0daac20b9598091ca3a707300335719bb525c0972393b1bfb854e51b600080a3005b634e487b7160e01b600052601160045260246000fd5b60405162461bcd60e51b815260048101859052602260248201527f596f752068617665206e6f7420737570706f72746564207468697320706f6c69604482015261637960f01b6064820152608490fd5b3461077f57602036600319011261077f57600435801515806112e5575b6111cf9061159c565b600090815260026020526040902060058101546001600160a01b03166111f681151561159c565b60068201549060078301546008840154600a85015490600b8601549261121b8761162c565b956112286001890161162c565b976112356002820161162c565b906112426003820161162c565b9060040161124f9061162c565b916040519a8b9a610180808d528c0161126791611314565b8b810360208d015261127891611314565b8a810360408c015261128991611314565b89810360608b015261129a91611314565b88810360808a01526112ab91611314565b9560a088015260c087015260e086015261010085015261012084015260ff8116151561014084015260081c60ff1615156101608301520390f35b506001548111156111c6565b60005b8381106113045750506000910152565b81810151838201526020016112f4565b9060209161132d815180928185528580860191016112f1565b601f01601f1916010190565b9181601f8401121561077f578235916001600160401b03831161077f576020838186019501011161077f57565b604081019081106001600160401b038211176104c257604052565b90601f801991011681019081106001600160401b038211176104c257604052565b9291926001600160401b0382116104c257604051916113cb601f8201601f191660200184611381565b82948184528183011161077f578281602093846000960137010152565b604060031982011261077f57600435906001600160401b03821161077f578060238301121561077f57816024611423936004013591016113a2565b9060243590565b80548210156114425760005260206000200190600090565b634e487b7160e01b600052603260045260246000fd5b9081602091031261077f5751801515810361077f5790565b1561147757565b60405162461bcd60e51b815260206004820152600d60248201526c2737902832b936b4b9b9b4b7b760991b6044820152606490fd5b60001981146111435760010190565b90600182811c921680156114eb575b60208310146114d557565b634e487b7160e01b600052602260045260246000fd5b91607f16916114ca565b818110611500575050565b600081556001016114f5565b9190601f811161151b57505050565b611547926000526020600020906020601f840160051c83019310611549575b601f0160051c01906114f5565b565b909150819061153a565b90815491680100000000000000008310156104c257826109e49160016115479501815561142a565b908060209392818452848401376000828201840152601f01601f1916010190565b156115a357565b60405162461bcd60e51b8152602060048201526015602482015274141bdb1a58de48191bd95cc81b9bdd08195e1a5cdd605a1b6044820152606490fd5b156115e757565b60405162461bcd60e51b815260206004820152601760248201527f506f6c69637920686173206265656e2072656d6f7665640000000000000000006044820152606490fd5b9060405191826000825492611640846114bb565b9081845260019485811690816000146116ad575060011461166a575b505061154792500383611381565b9093915060005260209081600020936000915b8183106116955750506115479350820101388061165c565b8554888401850152948501948794509183019161167d565b91505061154794506020925060ff191682840152151560051b820101388061165c565b156116d757565b60405162461bcd60e51b8152602060048201526013602482015272155cd95c881b9bdd08185d5d1a1bdc9a5e9959606a1b6044820152606490fdfea2646970667358221220c623699a0854a6b5c5f6304a3b144884c2d8cc70347ab3fa264d6b42fb04d92364736f6c63430008140033","opcodes":"PUSH1 0x80 CALLVALUE PUSH2 0xCB JUMPI PUSH1 0x1F PUSH2 0x182F CODESIZE DUP2 SWAP1 SUB SWAP2 DUP3 ADD PUSH1 0x1F NOT AND DUP4 ADD SWAP2 PUSH1 0x1 PUSH1 0x1 PUSH1 0x40 SHL SUB DUP4 GT DUP5 DUP5 LT OR PUSH2 0xD0 JUMPI DUP1 DUP5 SWAP3 PUSH1 0x20 SWAP5 PUSH1 0x40 MSTORE DUP4 CODECOPY DUP2 ADD SUB SLT PUSH2 0xCB JUMPI MLOAD PUSH1 0x1 PUSH1 0x1 PUSH1 0xA0 SHL SUB DUP2 AND SWAP1 DUP2 SWAP1 SUB PUSH2 0xCB JUMPI DUP1 ISZERO PUSH2 0x7A JUMPI PUSH1 0x0 DUP1 SLOAD PUSH1 0x1 PUSH1 0x1 PUSH1 0xA0 SHL SUB NOT AND SWAP2 SWAP1 SWAP2 OR SWAP1 SSTORE PUSH1 0x40 MLOAD PUSH2 0x1748 SWAP1 DUP2 PUSH2 0xE7 DUP3 CODECOPY RETURN JUMPDEST PUSH1 0x40 MLOAD PUSH3 0x461BCD PUSH1 0xE5 SHL DUP2 MSTORE PUSH1 0x20 PUSH1 0x4 DUP3 ADD MSTORE PUSH1 0x24 DUP1 DUP3 ADD MSTORE PUSH32 0x4175746820726567697374727920616464726573732063616E6E6F7420626520 PUSH1 0x44 DUP3 ADD MSTORE PUSH4 0x7A65726F PUSH1 0xE0 SHL PUSH1 0x64 DUP3 ADD MSTORE PUSH1 0x84 SWAP1 REVERT JUMPDEST PUSH1 0x0 DUP1 REVERT JUMPDEST PUSH4 0x4E487B71 PUSH1 0xE0 SHL PUSH1 0x0 MSTORE PUSH1 0x41 PUSH1 0x4 MSTORE PUSH1 0x24 PUSH1 0x0 REVERT INVALID PUSH1 0x80 PUSH1 0x40 MSTORE PUSH1 0x4 CALLDATASIZE LT ISZERO PUSH2 0x12 JUMPI PUSH1 0x0 DUP1 REVERT JUMPDEST PUSH1 0x0 CALLDATALOAD PUSH1 0xE0 SHR DUP1 PUSH4 0x2B07FCE3 EQ PUSH2 0x11A9 JUMPI DUP1 PUSH4 0x2D1564DD EQ PUSH2 0x1056 JUMPI DUP1 PUSH4 0x50C99E7C EQ PUSH2 0xEC0 JUMPI DUP1 PUSH4 0x629E025A EQ PUSH2 0xE97 JUMPI DUP1 PUSH4 0x6CADDCDC EQ PUSH2 0xD86 JUMPI DUP1 PUSH4 0x8F03AD6E EQ PUSH2 0x867 JUMPI DUP1 PUSH4 0xB94AFA71 EQ PUSH2 0x829 JUMPI DUP1 PUSH4 0xBE0973B1 EQ PUSH2 0x7F7 JUMPI DUP1 PUSH4 0xC29F42E9 EQ PUSH2 0x7A2 JUMPI DUP1 PUSH4 0xDE54D429 EQ PUSH2 0x784 JUMPI PUSH4 0xF5C2D186 EQ PUSH2 0x95 JUMPI PUSH1 0x0 DUP1 REVERT JUMPDEST CALLVALUE PUSH2 0x77F JUMPI PUSH1 0xA0 CALLDATASIZE PUSH1 0x3 NOT ADD SLT PUSH2 0x77F JUMPI PUSH1 0x4 CALLDATALOAD PUSH1 0x1 PUSH1 0x1 PUSH1 0x40 SHL SUB DUP2 GT PUSH2 0x77F JUMPI PUSH2 0xC5 SWAP1 CALLDATASIZE SWAP1 PUSH1 0x4 ADD PUSH2 0x1339 JUMP JUMPDEST PUSH1 0x24 CALLDATALOAD PUSH1 0x1 PUSH1 0x1 PUSH1 0x40 SHL SUB DUP2 GT PUSH2 0x77F JUMPI PUSH2 0xE4 SWAP1 CALLDATASIZE SWAP1 PUSH1 0x4 ADD PUSH2 0x1339 JUMP JUMPDEST SWAP1 SWAP2 PUSH1 0x44 CALLDATALOAD PUSH1 0x1 PUSH1 0x1 PUSH1 0x40 SHL SUB DUP2 GT PUSH2 0x77F JUMPI PUSH2 0x105 SWAP1 CALLDATASIZE SWAP1 PUSH1 0x4 ADD PUSH2 0x1339 JUMP JUMPDEST SWAP3 SWAP1 SWAP4 PUSH1 0x64 CALLDATALOAD PUSH1 0x1 PUSH1 0x1 PUSH1 0x40 SHL SUB DUP2 GT PUSH2 0x77F JUMPI PUSH2 0x127 SWAP1 CALLDATASIZE SWAP1 PUSH1 0x4 ADD PUSH2 0x1339 JUMP JUMPDEST PUSH1 0x0 SLOAD PUSH1 0x40 MLOAD PUSH4 0x935E01B PUSH1 0xE2 SHL DUP2 MSTORE CALLER PUSH1 0x4 DUP3 ADD MSTORE SWAP3 SWAP5 SWAP2 SWAP4 SWAP3 SWAP1 PUSH1 0x20 SWAP1 DUP3 SWAP1 PUSH1 0x24 SWAP1 DUP3 SWAP1 PUSH1 0x1 PUSH1 0x1 PUSH1 0xA0 SHL SUB AND GAS STATICCALL DUP1 ISZERO PUSH2 0x773 JUMPI PUSH2 0x170 SWAP2 PUSH1 0x0 SWAP2 PUSH2 0x744 JUMPI JUMPDEST POP PUSH2 0x1470 JUMP JUMPDEST DUP5 ISZERO PUSH2 0x708 JUMPI DUP1 ISZERO PUSH2 0x6C3 JUMPI DUP6 ISZERO PUSH2 0x67E JUMPI DUP3 ISZERO PUSH2 0x639 JUMPI PUSH2 0x193 PUSH1 0x1 SLOAD PUSH2 0x14AC JUMP JUMPDEST SWAP7 DUP8 PUSH1 0x1 SSTORE DUP8 PUSH1 0x0 MSTORE PUSH1 0x2 PUSH1 0x20 MSTORE PUSH1 0x40 PUSH1 0x0 KECCAK256 SWAP7 PUSH1 0x1 PUSH1 0x1 PUSH1 0x40 SHL SUB DUP8 GT PUSH2 0x4C2 JUMPI PUSH2 0x1C9 DUP8 PUSH2 0x1C3 DUP11 SLOAD PUSH2 0x14BB JUMP JUMPDEST DUP11 PUSH2 0x150C JUMP JUMPDEST DUP7 PUSH1 0x0 PUSH1 0x1F DUP3 GT PUSH1 0x1 EQ PUSH2 0x5D2 JUMPI PUSH1 0x0 SWAP2 PUSH2 0x5C7 JUMPI JUMPDEST POP DUP8 PUSH1 0x1 SHL SWAP1 PUSH1 0x0 NOT DUP10 PUSH1 0x3 SHL SHR NOT AND OR DUP9 SSTORE JUMPDEST PUSH1 0x1 PUSH1 0x1 PUSH1 0x40 SHL SUB DUP4 GT PUSH2 0x4C2 JUMPI PUSH2 0x21B DUP4 PUSH2 0x212 PUSH1 0x1 DUP12 ADD SLOAD PUSH2 0x14BB JUMP JUMPDEST PUSH1 0x1 DUP12 ADD PUSH2 0x150C JUMP JUMPDEST DUP3 PUSH1 0x0 PUSH1 0x1F DUP3 GT PUSH1 0x1 EQ PUSH2 0x559 JUMPI PUSH1 0x0 SWAP2 PUSH2 0x54E JUMPI JUMPDEST POP DUP4 PUSH1 0x1 SHL SWAP1 PUSH1 0x0 NOT DUP6 PUSH1 0x3 SHL SHR NOT AND OR PUSH1 0x1 DUP10 ADD SSTORE JUMPDEST PUSH1 0x1 PUSH1 0x1 PUSH1 0x40 SHL SUB DUP2 GT PUSH2 0x4C2 JUMPI DUP1 PUSH1 0x2 DUP10 ADD SWAP3 PUSH2 0x270 DUP3 PUSH2 0x26A DUP7 SLOAD PUSH2 0x14BB JUMP JUMPDEST DUP7 PUSH2 0x150C JUMP JUMPDEST PUSH1 0x0 SWAP1 PUSH1 0x1F DUP4 GT PUSH1 0x1 EQ PUSH2 0x4E3 JUMPI PUSH1 0x0 SWAP3 PUSH2 0x4D8 JUMPI JUMPDEST POP POP DUP2 PUSH1 0x1 SHL SWAP2 PUSH1 0x0 NOT SWAP1 PUSH1 0x3 SHL SHR NOT AND OR SWAP1 SSTORE JUMPDEST PUSH1 0x1 PUSH1 0x1 PUSH1 0x40 SHL SUB DUP4 GT PUSH2 0x4C2 JUMPI PUSH2 0x2C3 DUP4 PUSH2 0x2BA PUSH1 0x3 DUP10 ADD SLOAD PUSH2 0x14BB JUMP JUMPDEST PUSH1 0x3 DUP10 ADD PUSH2 0x150C JUMP JUMPDEST PUSH1 0x0 SWAP8 PUSH1 0x1F DUP5 GT PUSH1 0x1 EQ PUSH2 0x452 JUMPI DUP4 DUP9 SWAP10 PUSH1 0x0 SWAP10 SWAP9 SWAP10 SWAP2 PUSH2 0x447 JUMPI JUMPDEST POP DUP5 PUSH1 0x1 SHL SWAP1 PUSH1 0x0 NOT DUP7 PUSH1 0x3 SHL SHR NOT AND OR PUSH1 0x3 DUP10 ADD SSTORE JUMPDEST PUSH1 0x4 DUP9 ADD SWAP8 PUSH2 0x305 DUP10 SLOAD PUSH2 0x14BB JUMP JUMPDEST PUSH1 0x1F DUP2 GT PUSH2 0x425 JUMPI JUMPDEST POP PUSH5 0x1114905195 PUSH1 0xDA SHL SWAP9 PUSH1 0xA DUP11 ADD SWAP1 SSTORE PUSH1 0x5 DUP2 ADD CALLER PUSH12 0xFFFFFFFFFFFFFFFFFFFFFFFF PUSH1 0xA0 SHL DUP3 SLOAD AND OR SWAP1 SSTORE TIMESTAMP PUSH1 0x6 DUP3 ADD SSTORE PUSH1 0x84 CALLDATALOAD PUSH1 0x7 DUP3 ADD SSTORE TIMESTAMP PUSH1 0x8 DUP3 ADD SSTORE PUSH1 0xB ADD PUSH2 0xFFFF NOT DUP2 SLOAD AND SWAP1 SSTORE DUP7 PUSH1 0x40 MLOAD DUP6 DUP8 DUP3 CALLDATACOPY DUP1 DUP7 DUP2 ADD PUSH1 0x4 DUP2 MSTORE SUB PUSH1 0x20 ADD SWAP1 KECCAK256 SWAP1 PUSH2 0x37A SWAP2 PUSH2 0x1553 JUMP JUMPDEST PUSH1 0x40 MLOAD DUP9 DUP2 MSTORE PUSH1 0x5 DUP1 DUP3 ADD MSTORE PUSH1 0x25 SWAP1 KECCAK256 PUSH2 0x395 SWAP1 DUP9 SWAP1 PUSH2 0x1553 JUMP JUMPDEST CALLER PUSH1 0x0 MSTORE PUSH1 0x3 PUSH1 0x20 MSTORE TIMESTAMP PUSH1 0x40 PUSH1 0x0 KECCAK256 SSTORE PUSH1 0x40 MLOAD SWAP6 PUSH1 0x80 DUP8 MSTORE PUSH1 0x80 DUP8 ADD SWAP1 PUSH2 0x3BB SWAP3 PUSH2 0x157B JUMP JUMPDEST SWAP1 DUP6 DUP3 SUB PUSH1 0x20 DUP8 ADD MSTORE PUSH2 0x3CD SWAP3 PUSH2 0x157B JUMP JUMPDEST SWAP1 DUP4 DUP3 SUB PUSH1 0x40 DUP6 ADD MSTORE PUSH2 0x3DF SWAP3 PUSH2 0x157B JUMP JUMPDEST SWAP3 DUP2 DUP5 SUB SWAP4 DUP5 PUSH1 0x60 DUP5 ADD MSTORE PUSH1 0x5 DUP2 MSTORE PUSH1 0x20 ADD MSTORE CALLER SWAP3 PUSH1 0x40 ADD PUSH32 0x27A2761F5FFC4E00CB4A17AE63DF13EDF7BBDE45F08C0A77569CFDDD2D47ED5F SWAP2 LOG3 PUSH1 0x40 MLOAD SWAP1 DUP2 MSTORE PUSH1 0x20 SWAP1 RETURN JUMPDEST PUSH2 0x441 SWAP1 DUP11 PUSH1 0x0 MSTORE PUSH1 0x1F PUSH1 0x20 PUSH1 0x0 KECCAK256 SWAP2 ADD PUSH1 0x5 SHR DUP2 ADD SWAP1 PUSH2 0x14F5 JUMP JUMPDEST CODESIZE PUSH2 0x30E JUMP JUMPDEST SWAP1 POP DUP6 ADD CALLDATALOAD CODESIZE PUSH2 0x2DF JUMP JUMPDEST PUSH1 0x3 DUP8 ADD PUSH1 0x0 MSTORE PUSH1 0x20 PUSH1 0x0 KECCAK256 PUSH1 0x0 JUMPDEST PUSH1 0x1F NOT DUP7 AND DUP2 LT PUSH2 0x4AA JUMPI POP DUP9 SWAP10 DUP6 PUSH1 0x1F SWAP11 SWAP10 SWAP11 NOT DUP2 AND LT PUSH2 0x490 JUMPI JUMPDEST POP POP PUSH1 0x1 DUP5 DUP2 SHL ADD PUSH1 0x3 DUP10 ADD SSTORE PUSH2 0x2F6 JUMP JUMPDEST DUP7 ADD CALLDATALOAD PUSH1 0x0 NOT PUSH1 0x3 DUP8 SWAP1 SHL PUSH1 0xF8 AND SHR NOT AND SWAP1 SSTORE CODESIZE DUP1 PUSH2 0x47E JUMP JUMPDEST DUP7 DUP12 ADD CALLDATALOAD DUP3 SSTORE PUSH1 0x20 SWAP11 DUP12 ADD SWAP11 PUSH1 0x1 SWAP1 SWAP3 ADD SWAP2 ADD PUSH2 0x461 JUMP JUMPDEST PUSH4 0x4E487B71 PUSH1 0xE0 SHL PUSH1 0x0 MSTORE PUSH1 0x41 PUSH1 0x4 MSTORE PUSH1 0x24 PUSH1 0x0 REVERT JUMPDEST ADD CALLDATALOAD SWAP1 POP CODESIZE DUP1 PUSH2 0x286 JUMP JUMPDEST SWAP1 SWAP2 POP PUSH1 0x1F NOT DUP4 AND SWAP2 DUP5 PUSH1 0x0 MSTORE PUSH1 0x20 PUSH1 0x0 KECCAK256 SWAP3 PUSH1 0x0 JUMPDEST DUP2 DUP2 LT PUSH2 0x536 JUMPI POP SWAP1 DUP5 PUSH1 0x1 SWAP6 SWAP5 SWAP4 SWAP3 LT PUSH2 0x51C JUMPI JUMPDEST POP POP POP DUP2 SHL ADD SWAP1 SSTORE PUSH2 0x29B JUMP JUMPDEST ADD CALLDATALOAD PUSH1 0x0 NOT PUSH1 0x3 DUP5 SWAP1 SHL PUSH1 0xF8 AND SHR NOT AND SWAP1 SSTORE CODESIZE DUP1 DUP1 PUSH2 0x50F JUMP JUMPDEST SWAP2 SWAP4 PUSH1 0x20 PUSH1 0x1 DUP2 SWAP3 DUP8 DUP8 ADD CALLDATALOAD DUP2 SSTORE ADD SWAP6 ADD SWAP3 ADD PUSH2 0x4F9 JUMP JUMPDEST SWAP1 POP DUP5 ADD CALLDATALOAD CODESIZE PUSH2 0x231 JUMP JUMPDEST SWAP1 POP PUSH1 0x1 DUP10 ADD PUSH1 0x0 MSTORE PUSH1 0x20 PUSH1 0x0 KECCAK256 SWAP1 PUSH1 0x0 JUMPDEST PUSH1 0x1F NOT DUP7 AND DUP2 LT PUSH2 0x5AF JUMPI POP DUP5 PUSH1 0x1F NOT DUP2 AND LT PUSH2 0x595 JUMPI JUMPDEST POP POP PUSH1 0x1 DUP4 DUP2 SHL ADD PUSH1 0x1 DUP10 ADD SSTORE PUSH2 0x248 JUMP JUMPDEST DUP6 ADD CALLDATALOAD PUSH1 0x0 NOT PUSH1 0x3 DUP7 SWAP1 SHL PUSH1 0xF8 AND SHR NOT AND SWAP1 SSTORE CODESIZE DUP1 PUSH2 0x583 JUMP JUMPDEST SWAP1 SWAP2 PUSH1 0x20 PUSH1 0x1 DUP2 SWAP3 DUP6 DUP11 ADD CALLDATALOAD DUP2 SSTORE ADD SWAP4 ADD SWAP2 ADD PUSH2 0x56B JUMP JUMPDEST SWAP1 POP DUP11 ADD CALLDATALOAD CODESIZE PUSH2 0x1DF JUMP JUMPDEST PUSH1 0x0 DUP11 DUP2 MSTORE PUSH1 0x20 DUP2 KECCAK256 SWAP3 POP JUMPDEST DUP13 PUSH1 0x1F NOT DUP12 AND DUP3 LT PUSH2 0x621 JUMPI POP POP DUP9 PUSH1 0x1F NOT DUP2 AND LT PUSH2 0x607 JUMPI JUMPDEST POP POP PUSH1 0x1 DUP8 DUP2 SHL ADD DUP9 SSTORE PUSH2 0x1F3 JUMP JUMPDEST DUP12 ADD CALLDATALOAD PUSH1 0x0 NOT PUSH1 0x3 DUP11 SWAP1 SHL PUSH1 0xF8 AND SHR NOT AND SWAP1 SSTORE CODESIZE DUP1 PUSH2 0x5F8 JUMP JUMPDEST PUSH1 0x1 DUP4 SWAP5 PUSH1 0x20 SWAP4 SWAP5 DUP5 SWAP4 ADD CALLDATALOAD DUP2 SSTORE ADD SWAP4 ADD SWAP2 ADD PUSH2 0x5DE JUMP JUMPDEST PUSH1 0x40 MLOAD PUSH3 0x461BCD PUSH1 0xE5 SHL DUP2 MSTORE PUSH1 0x20 PUSH1 0x4 DUP3 ADD MSTORE PUSH1 0x18 PUSH1 0x24 DUP3 ADD MSTORE PUSH32 0x4D696E69737472792063616E6E6F7420626520656D7074790000000000000000 PUSH1 0x44 DUP3 ADD MSTORE PUSH1 0x64 SWAP1 REVERT JUMPDEST PUSH1 0x40 MLOAD PUSH3 0x461BCD PUSH1 0xE5 SHL DUP2 MSTORE PUSH1 0x20 PUSH1 0x4 DUP3 ADD MSTORE PUSH1 0x1F PUSH1 0x24 DUP3 ADD MSTORE PUSH32 0x46756C6C20706F6C6963792055524C2063616E6E6F7420626520656D70747900 PUSH1 0x44 DUP3 ADD MSTORE PUSH1 0x64 SWAP1 REVERT JUMPDEST PUSH1 0x40 MLOAD PUSH3 0x461BCD PUSH1 0xE5 SHL DUP2 MSTORE PUSH1 0x20 PUSH1 0x4 DUP3 ADD MSTORE PUSH1 0x1F PUSH1 0x24 DUP3 ADD MSTORE PUSH32 0x4465736372697074696F6E204349442063616E6E6F7420626520656D70747900 PUSH1 0x44 DUP3 ADD MSTORE PUSH1 0x64 SWAP1 REVERT JUMPDEST PUSH1 0x40 MLOAD PUSH3 0x461BCD PUSH1 0xE5 SHL DUP2 MSTORE PUSH1 0x20 PUSH1 0x4 DUP3 ADD MSTORE PUSH1 0x14 PUSH1 0x24 DUP3 ADD MSTORE PUSH20 0x4E616D652063616E6E6F7420626520656D707479 PUSH1 0x60 SHL PUSH1 0x44 DUP3 ADD MSTORE PUSH1 0x64 SWAP1 REVERT JUMPDEST PUSH2 0x766 SWAP2 POP PUSH1 0x20 RETURNDATASIZE PUSH1 0x20 GT PUSH2 0x76C JUMPI JUMPDEST PUSH2 0x75E DUP2 DUP4 PUSH2 0x1381 JUMP JUMPDEST DUP2 ADD SWAP1 PUSH2 0x1458 JUMP JUMPDEST CODESIZE PUSH2 0x16A JUMP JUMPDEST POP RETURNDATASIZE PUSH2 0x754 JUMP JUMPDEST PUSH1 0x40 MLOAD RETURNDATASIZE PUSH1 0x0 DUP3 RETURNDATACOPY RETURNDATASIZE SWAP1 REVERT JUMPDEST PUSH1 0x0 DUP1 REVERT JUMPDEST CALLVALUE PUSH2 0x77F JUMPI PUSH1 0x0 CALLDATASIZE PUSH1 0x3 NOT ADD SLT PUSH2 0x77F JUMPI PUSH1 0x20 PUSH1 0x1 SLOAD PUSH1 0x40 MLOAD SWAP1 DUP2 MSTORE RETURN JUMPDEST CALLVALUE PUSH2 0x77F JUMPI PUSH1 0x20 PUSH2 0x7CA PUSH2 0x7B5 CALLDATASIZE PUSH2 0x13E8 JUMP JUMPDEST SWAP3 SWAP1 DUP2 PUSH1 0x40 MLOAD SWAP4 DUP3 DUP6 DUP1 SWAP5 MLOAD SWAP4 DUP5 SWAP3 ADD PUSH2 0x12F1 JUMP JUMPDEST DUP2 ADD PUSH1 0x4 DUP2 MSTORE SUB ADD SWAP1 KECCAK256 DUP1 SLOAD DUP3 LT ISZERO PUSH2 0x77F JUMPI PUSH1 0x20 SWAP2 PUSH2 0x7E9 SWAP2 PUSH2 0x142A JUMP JUMPDEST SWAP1 SLOAD PUSH1 0x40 MLOAD SWAP2 PUSH1 0x3 SHL SHR DUP2 MSTORE RETURN JUMPDEST CALLVALUE PUSH2 0x77F JUMPI PUSH1 0x20 PUSH2 0x80A PUSH2 0x7B5 CALLDATASIZE PUSH2 0x13E8 JUMP JUMPDEST DUP2 ADD PUSH1 0x5 DUP2 MSTORE SUB ADD SWAP1 KECCAK256 DUP1 SLOAD DUP3 LT ISZERO PUSH2 0x77F JUMPI PUSH1 0x20 SWAP2 PUSH2 0x7E9 SWAP2 PUSH2 0x142A JUMP JUMPDEST CALLVALUE PUSH2 0x77F JUMPI PUSH1 0x20 CALLDATASIZE PUSH1 0x3 NOT ADD SLT PUSH2 0x77F JUMPI PUSH1 0x4 CALLDATALOAD PUSH1 0x1 PUSH1 0x1 PUSH1 0xA0 SHL SUB DUP2 AND SWAP1 DUP2 SWAP1 SUB PUSH2 0x77F JUMPI PUSH1 0x0 MSTORE PUSH1 0x3 PUSH1 0x20 MSTORE PUSH1 0x20 PUSH1 0x40 PUSH1 0x0 KECCAK256 SLOAD PUSH1 0x40 MLOAD SWAP1 DUP2 MSTORE RETURN JUMPDEST CALLVALUE PUSH2 0x77F JUMPI PUSH1 0x60 CALLDATASIZE PUSH1 0x3 NOT ADD SLT PUSH2 0x77F JUMPI PUSH1 0x24 PUSH1 0x1 PUSH1 0x1 PUSH1 0x40 SHL SUB PUSH1 0x4 CALLDATALOAD DUP3 CALLDATALOAD DUP3 DUP2 GT PUSH2 0x77F JUMPI PUSH2 0x89C SWAP1 CALLDATASIZE SWAP1 PUSH1 0x4 ADD PUSH2 0x1339 JUMP JUMPDEST PUSH1 0x0 SLOAD PUSH1 0x40 MLOAD PUSH4 0x935E01B PUSH1 0xE2 SHL DUP2 MSTORE CALLER PUSH1 0x4 DUP3 ADD MSTORE PUSH1 0x20 SWAP7 PUSH1 0x44 CALLDATALOAD SWAP6 SWAP5 SWAP3 SWAP1 SWAP2 SWAP1 PUSH1 0x1 PUSH1 0x1 PUSH1 0xA0 SHL SUB SWAP1 DUP10 SWAP1 DUP4 SWAP1 DUP6 SWAP1 DUP3 SWAP1 DUP6 AND GAS STATICCALL SWAP2 DUP3 ISZERO PUSH2 0x773 JUMPI PUSH2 0x91A SWAP3 PUSH2 0x8EF SWAP2 PUSH1 0x0 SWAP2 PUSH2 0xD69 JUMPI POP PUSH2 0x1470 JUMP JUMPDEST DUP6 ISZERO ISZERO DUP1 PUSH2 0xD5D JUMPI JUMPDEST PUSH2 0x901 SWAP1 PUSH2 0x159C JUMP JUMPDEST DUP6 PUSH1 0x0 MSTORE PUSH1 0x2 DUP10 MSTORE PUSH1 0x5 PUSH1 0x40 PUSH1 0x0 KECCAK256 ADD SLOAD AND ISZERO ISZERO PUSH2 0x159C JUMP JUMPDEST DUP4 PUSH1 0x0 MSTORE PUSH1 0x2 DUP8 MSTORE PUSH2 0x93A PUSH1 0xFF PUSH1 0xB PUSH1 0x40 PUSH1 0x0 KECCAK256 ADD SLOAD PUSH1 0x8 SHR AND ISZERO PUSH2 0x15E0 JUMP JUMPDEST DUP4 PUSH1 0x0 MSTORE PUSH1 0x2 DUP8 MSTORE PUSH1 0x40 PUSH1 0x0 KECCAK256 SWAP5 PUSH1 0x4 DUP7 ADD PUSH2 0x955 DUP2 PUSH2 0x162C JUMP JUMPDEST SWAP3 PUSH1 0x40 MLOAD DUP11 DUP2 DUP7 MLOAD PUSH2 0x96A DUP2 DUP4 DUP6 DUP12 ADD PUSH2 0x12F1 JUMP JUMPDEST DUP2 ADD PUSH1 0x5 DUP2 MSTORE SUB ADD SWAP1 KECCAK256 SWAP9 PUSH1 0x0 JUMPDEST DUP11 SLOAD DUP1 DUP3 LT ISZERO PUSH2 0xD4C JUMPI DUP10 SWAP1 PUSH2 0x98E DUP4 DUP15 PUSH2 0x142A JUMP JUMPDEST SWAP3 SWAP1 SLOAD PUSH1 0x3 SWAP4 DUP5 SHL SHR EQ PUSH2 0x9AC JUMPI POP POP PUSH2 0x9A7 SWAP1 PUSH2 0x14AC JUMP JUMPDEST PUSH2 0x978 JUMP JUMPDEST SWAP1 SWAP3 SWAP4 SWAP5 SWAP6 SWAP7 SWAP8 SWAP9 SWAP10 SWAP11 SWAP12 SWAP2 PUSH1 0x0 NOT SWAP2 DUP3 DUP2 ADD SWAP1 DUP2 GT PUSH2 0xD37 JUMPI SWAP1 PUSH2 0x9E4 PUSH2 0x9D7 PUSH2 0x9FD SWAP4 DUP7 PUSH2 0x142A JUMP JUMPDEST SWAP1 SLOAD SWAP1 DUP8 SHL SHR SWAP2 DUP6 PUSH2 0x142A JUMP JUMPDEST SWAP1 SWAP2 SWAP1 DUP3 SLOAD SWAP1 PUSH1 0x3 SHL SWAP2 DUP3 SHL SWAP2 PUSH1 0x0 NOT SWAP1 SHL NOT AND OR SWAP1 SSTORE JUMP JUMPDEST DUP2 SLOAD DUP1 ISZERO PUSH2 0xD22 JUMPI DUP2 ADD SWAP3 PUSH2 0xA12 DUP5 DUP5 PUSH2 0x142A JUMP JUMPDEST DUP2 SWAP4 SWAP2 SLOAD SWAP3 SHL SHL NOT AND SWAP1 SSTORE SSTORE JUMPDEST DUP7 GT PUSH2 0xD0E JUMPI POP PUSH2 0xA3A DUP6 PUSH2 0xA34 DUP4 SLOAD PUSH2 0x14BB JUMP JUMPDEST DUP4 PUSH2 0x150C JUMP JUMPDEST PUSH1 0x0 PUSH1 0x1F DUP7 GT PUSH1 0x1 EQ PUSH2 0xC7E JUMPI SWAP3 PUSH1 0x7 SWAP3 PUSH32 0xAD2E1DFC6994AEEAF151FA20C453BAC06D98C011752A28EDADB877AD0F077CF7 SWAP8 SWAP9 SWAP3 DUP8 PUSH2 0xB89 SWAP7 PUSH1 0x0 SWAP2 PUSH2 0xC73 JUMPI JUMPDEST POP DUP9 PUSH1 0x1 SHL SWAP1 PUSH1 0x0 NOT DUP11 PUSH1 0x3 SHL SHR NOT AND OR SWAP1 SSTORE JUMPDEST TIMESTAMP PUSH1 0x8 DUP5 ADD SSTORE DUP1 PUSH2 0xC69 JUMPI JUMPDEST POP PUSH2 0xABA DUP9 PUSH1 0x40 MLOAD DUP9 DUP9 DUP3 CALLDATACOPY DUP12 DUP2 DUP11 DUP2 ADD PUSH1 0x5 DUP2 MSTORE SUB ADD SWAP1 KECCAK256 PUSH2 0x1553 JUMP JUMPDEST PUSH32 0xDB6D55A48C634FDFE68DA24C01559762C293198F8322E1FED7CA8976FC4ED260 PUSH2 0xAE6 CALLDATASIZE DUP9 DUP9 PUSH2 0x13A2 JUMP JUMPDEST DUP11 DUP2 MLOAD SWAP2 ADD KECCAK256 PUSH6 0x414354495645 PUSH1 0xD0 SHL DUP12 PUSH1 0x40 MLOAD PUSH2 0xB03 DUP2 PUSH2 0x1366 JUMP JUMPDEST PUSH1 0x6 DUP2 MSTORE ADD MSTORE EQ DUP1 PUSH2 0xC5C JUMPI JUMPDEST ISZERO PUSH2 0xB95 JUMPI PUSH1 0xB DUP3 ADD DUP1 SLOAD PUSH1 0xFF NOT AND PUSH1 0x1 OR SWAP1 SSTORE JUMPDEST DUP8 PUSH32 0x7349E505864221FCF2768BF72491E152FEDC76F5D0A627184F0FDACE25D15207 PUSH2 0xB5C PUSH1 0x40 MLOAD SWAP4 PUSH1 0x40 DUP6 MSTORE PUSH1 0x40 DUP6 ADD SWAP1 PUSH2 0x1314 JUMP JUMPDEST SWAP3 DUP1 DUP5 SUB DUP13 DUP3 ADD MSTORE DUP1 PUSH2 0xB71 CALLER SWAP6 DUP12 DUP12 PUSH2 0x157B JUMP JUMPDEST SUB SWAP1 LOG3 ADD SLOAD SWAP2 PUSH1 0x40 MLOAD SWAP4 PUSH1 0x40 DUP6 MSTORE PUSH1 0x40 DUP6 ADD SWAP2 PUSH2 0x157B JUMP JUMPDEST SWAP5 DUP3 ADD MSTORE DUP1 CALLER SWAP5 SUB SWAP1 LOG3 STOP JUMPDEST PUSH32 0xE71C910D536B61FCEF69518C42A88C159E7AF67BB3870C8551C6D0C8616EA97 PUSH2 0xBC1 CALLDATASIZE DUP9 DUP9 PUSH2 0x13A2 JUMP JUMPDEST DUP11 DUP2 MLOAD SWAP2 ADD KECCAK256 PUSH8 0x494E414354495645 PUSH1 0xC0 SHL DUP12 PUSH1 0x40 MLOAD PUSH2 0xBE0 DUP2 PUSH2 0x1366 JUMP JUMPDEST PUSH1 0x8 DUP2 MSTORE ADD MSTORE EQ DUP1 ISZERO PUSH2 0xC04 JUMPI JUMPDEST ISZERO PUSH2 0xB25 JUMPI PUSH1 0xB DUP3 ADD DUP1 SLOAD PUSH1 0xFF NOT AND SWAP1 SSTORE PUSH2 0xB25 JUMP JUMPDEST POP PUSH32 0xE6C285292CAB7E0CAA931A7E4E62E4B31622725235F51DCA3C4727D29D299083 PUSH2 0xC31 CALLDATASIZE DUP9 DUP9 PUSH2 0x13A2 JUMP JUMPDEST DUP11 DUP2 MLOAD SWAP2 ADD KECCAK256 PUSH8 0x105490D212559151 PUSH1 0xC2 SHL DUP12 PUSH1 0x40 MLOAD PUSH2 0xC50 DUP2 PUSH2 0x1366 JUMP JUMPDEST PUSH1 0x8 DUP2 MSTORE ADD MSTORE EQ PUSH2 0xBEE JUMP JUMPDEST POP TIMESTAMP DUP4 DUP4 ADD SLOAD GT ISZERO PUSH2 0xB10 JUMP JUMPDEST DUP4 DUP4 ADD SSTORE DUP10 PUSH2 0xA9C JUMP JUMPDEST SWAP1 POP DUP8 ADD CALLDATALOAD DUP13 PUSH2 0xA7C JUMP JUMPDEST PUSH1 0x1F NOT DUP7 AND SWAP1 DUP3 PUSH1 0x0 MSTORE DUP10 PUSH1 0x0 KECCAK256 SWAP2 PUSH1 0x0 JUMPDEST DUP12 DUP3 DUP3 LT PUSH2 0xCF8 JUMPI POP POP SWAP3 PUSH2 0xB89 SWAP6 SWAP3 PUSH1 0x7 SWAP6 SWAP3 DUP10 PUSH32 0xAD2E1DFC6994AEEAF151FA20C453BAC06D98C011752A28EDADB877AD0F077CF7 SWAP12 SWAP13 SWAP7 LT PUSH2 0xCDE JUMPI JUMPDEST POP POP PUSH1 0x1 DUP9 DUP2 SHL ADD SWAP1 SSTORE PUSH2 0xA90 JUMP JUMPDEST DUP9 ADD CALLDATALOAD PUSH1 0x0 NOT PUSH1 0x3 DUP12 SWAP1 SHL PUSH1 0xF8 AND SHR NOT AND SWAP1 SSTORE DUP12 DUP1 PUSH2 0xCCF JUMP JUMPDEST PUSH1 0x1 DUP5 SWAP6 DUP3 SWAP4 SWAP6 DUP12 ADD CALLDATALOAD DUP2 SSTORE ADD SWAP5 ADD SWAP3 ADD PUSH2 0xC90 JUMP JUMPDEST PUSH4 0x4E487B71 PUSH1 0xE0 SHL PUSH1 0x0 SWAP1 DUP2 MSTORE PUSH1 0x41 PUSH1 0x4 MSTORE REVERT JUMPDEST DUP6 PUSH4 0x4E487B71 PUSH1 0xE0 SHL PUSH1 0x0 MSTORE PUSH1 0x31 PUSH1 0x4 MSTORE PUSH1 0x0 REVERT JUMPDEST DUP7 PUSH4 0x4E487B71 PUSH1 0xE0 SHL PUSH1 0x0 MSTORE PUSH1 0x11 PUSH1 0x4 MSTORE PUSH1 0x0 REVERT JUMPDEST POP POP SWAP1 SWAP2 SWAP3 SWAP4 SWAP5 SWAP6 SWAP7 SWAP8 SWAP9 POP PUSH2 0xA1F JUMP JUMPDEST POP PUSH1 0x1 SLOAD DUP7 GT ISZERO PUSH2 0x8F8 JUMP JUMPDEST PUSH2 0xD80 SWAP2 POP DUP12 RETURNDATASIZE DUP14 GT PUSH2 0x76C JUMPI PUSH2 0x75E DUP2 DUP4 PUSH2 0x1381 JUMP JUMPDEST DUP12 PUSH2 0x16A JUMP JUMPDEST CALLVALUE PUSH2 0x77F JUMPI PUSH1 0x20 DUP1 PUSH1 0x3 NOT CALLDATASIZE ADD SLT PUSH2 0x77F JUMPI PUSH1 0x24 PUSH1 0x4 CALLDATALOAD SWAP2 PUSH1 0x1 DUP1 PUSH1 0xA0 SHL SUB DUP2 DUP2 PUSH1 0x0 SLOAD AND PUSH1 0x40 MLOAD SWAP5 DUP6 DUP1 SWAP3 PUSH4 0x935E01B PUSH1 0xE2 SHL DUP3 MSTORE CALLER PUSH1 0x4 DUP4 ADD MSTORE GAS STATICCALL SWAP1 DUP2 ISZERO PUSH2 0x773 JUMPI PUSH2 0xDE2 PUSH2 0xE0C SWAP3 PUSH1 0x2 SWAP6 PUSH1 0x0 SWAP2 PUSH2 0xE7A JUMPI POP PUSH2 0x1470 JUMP JUMPDEST DUP5 ISZERO ISZERO DUP1 PUSH2 0xE6E JUMPI JUMPDEST PUSH2 0xDF4 SWAP1 PUSH2 0x159C JUMP JUMPDEST DUP5 PUSH1 0x0 MSTORE DUP4 DUP4 MSTORE PUSH1 0x5 PUSH1 0x40 PUSH1 0x0 KECCAK256 ADD SLOAD AND ISZERO ISZERO PUSH2 0x159C JUMP JUMPDEST DUP3 PUSH1 0x0 MSTORE DUP2 DUP2 MSTORE PUSH2 0xE2B PUSH1 0xFF PUSH1 0xB PUSH1 0x40 PUSH1 0x0 KECCAK256 ADD SLOAD PUSH1 0x8 SHR AND ISZERO PUSH2 0x15E0 JUMP JUMPDEST DUP3 PUSH1 0x0 MSTORE MSTORE PUSH1 0xB PUSH1 0x40 PUSH1 0x0 KECCAK256 ADD PUSH2 0x100 PUSH2 0xFF00 NOT DUP3 SLOAD AND OR SWAP1 SSTORE CALLER SWAP1 PUSH32 0x32C0C3B8E819967869A0BB85CA7FDD96F84EF60145DC478B2BCDA11335BB5E31 PUSH1 0x0 DUP1 LOG3 STOP JUMPDEST POP PUSH1 0x1 SLOAD DUP6 GT ISZERO PUSH2 0xDEB JUMP JUMPDEST PUSH2 0xE91 SWAP2 POP DUP6 RETURNDATASIZE DUP8 GT PUSH2 0x76C JUMPI PUSH2 0x75E DUP2 DUP4 PUSH2 0x1381 JUMP JUMPDEST DUP8 PUSH2 0x16A JUMP JUMPDEST CALLVALUE PUSH2 0x77F JUMPI PUSH1 0x0 CALLDATASIZE PUSH1 0x3 NOT ADD SLT PUSH2 0x77F JUMPI PUSH1 0x0 SLOAD PUSH1 0x40 MLOAD PUSH1 0x1 PUSH1 0x1 PUSH1 0xA0 SHL SUB SWAP1 SWAP2 AND DUP2 MSTORE PUSH1 0x20 SWAP1 RETURN JUMPDEST CALLVALUE PUSH2 0x77F JUMPI PUSH1 0x20 DUP1 PUSH1 0x3 NOT CALLDATASIZE ADD SLT PUSH2 0x77F JUMPI PUSH1 0x4 CALLDATALOAD PUSH1 0x24 PUSH1 0x1 DUP1 PUSH1 0xA0 SHL SUB DUP4 DUP2 PUSH1 0x0 SLOAD AND PUSH1 0x40 MLOAD SWAP4 DUP5 DUP1 SWAP3 PUSH4 0x1FD3F77 PUSH1 0xE7 SHL DUP3 MSTORE CALLER PUSH1 0x4 DUP4 ADD MSTORE GAS STATICCALL SWAP2 DUP3 ISZERO PUSH2 0x773 JUMPI PUSH2 0xF45 SWAP3 PUSH2 0xF1A SWAP2 PUSH1 0x0 SWAP2 PUSH2 0x1039 JUMPI JUMPDEST POP PUSH2 0x16D0 JUMP JUMPDEST DUP3 ISZERO ISZERO DUP1 PUSH2 0x102D JUMPI JUMPDEST PUSH2 0xF2C SWAP1 PUSH2 0x159C JUMP JUMPDEST DUP3 PUSH1 0x0 MSTORE PUSH1 0x2 DUP5 MSTORE PUSH1 0x5 PUSH1 0x40 PUSH1 0x0 KECCAK256 ADD SLOAD AND ISZERO ISZERO PUSH2 0x159C JUMP JUMPDEST DUP1 PUSH1 0x0 MSTORE PUSH1 0x2 DUP3 MSTORE PUSH2 0xF65 PUSH1 0xFF PUSH1 0xB PUSH1 0x40 PUSH1 0x0 KECCAK256 ADD SLOAD PUSH1 0x8 SHR AND ISZERO PUSH2 0x15E0 JUMP JUMPDEST DUP1 PUSH1 0x0 MSTORE PUSH1 0x2 DUP3 MSTORE PUSH1 0x40 PUSH1 0x0 KECCAK256 PUSH1 0x9 DUP2 ADD CALLER PUSH1 0x0 MSTORE DUP1 DUP5 MSTORE PUSH1 0xFF PUSH1 0x40 PUSH1 0x0 KECCAK256 SLOAD AND PUSH2 0xFD9 JUMPI PUSH1 0xA SWAP3 SWAP4 CALLER PUSH1 0x0 MSTORE MSTORE PUSH1 0x40 PUSH1 0x0 KECCAK256 PUSH1 0x1 PUSH1 0xFF NOT DUP3 SLOAD AND OR SWAP1 SSTORE ADD PUSH2 0xFAE DUP2 SLOAD PUSH2 0x14AC JUMP JUMPDEST SWAP1 SSTORE CALLER SWAP1 PUSH32 0x6FF95833B52AC3452956A7BB5C91E936D7C7C624CE4DA8021EDD243F5E745247 PUSH1 0x0 DUP1 LOG3 STOP JUMPDEST PUSH1 0x40 MLOAD PUSH3 0x461BCD PUSH1 0xE5 SHL DUP2 MSTORE PUSH1 0x4 DUP2 ADD DUP6 SWAP1 MSTORE PUSH1 0x26 PUSH1 0x24 DUP3 ADD MSTORE PUSH32 0x596F75206861766520616C726561647920737570706F72746564207468697320 PUSH1 0x44 DUP3 ADD MSTORE PUSH6 0x706F6C696379 PUSH1 0xD0 SHL PUSH1 0x64 DUP3 ADD MSTORE PUSH1 0x84 SWAP1 REVERT JUMPDEST POP PUSH1 0x1 SLOAD DUP4 GT ISZERO PUSH2 0xF23 JUMP JUMPDEST PUSH2 0x1050 SWAP2 POP DUP7 RETURNDATASIZE DUP9 GT PUSH2 0x76C JUMPI PUSH2 0x75E DUP2 DUP4 PUSH2 0x1381 JUMP JUMPDEST DUP7 PUSH2 0xF14 JUMP JUMPDEST CALLVALUE PUSH2 0x77F JUMPI PUSH1 0x20 DUP1 PUSH1 0x3 NOT CALLDATASIZE ADD SLT PUSH2 0x77F JUMPI PUSH1 0x4 CALLDATALOAD PUSH1 0x24 PUSH1 0x1 DUP1 PUSH1 0xA0 SHL SUB DUP4 DUP2 PUSH1 0x0 SLOAD AND PUSH1 0x40 MLOAD SWAP4 DUP5 DUP1 SWAP3 PUSH4 0x1FD3F77 PUSH1 0xE7 SHL DUP3 MSTORE CALLER PUSH1 0x4 DUP4 ADD MSTORE GAS STATICCALL SWAP2 DUP3 ISZERO PUSH2 0x773 JUMPI PUSH2 0x10AF SWAP3 PUSH2 0xF1A SWAP2 PUSH1 0x0 SWAP2 PUSH2 0x1039 JUMPI POP PUSH2 0x16D0 JUMP JUMPDEST DUP1 PUSH1 0x0 MSTORE PUSH1 0x2 DUP3 MSTORE PUSH2 0x10CF PUSH1 0xFF PUSH1 0xB PUSH1 0x40 PUSH1 0x0 KECCAK256 ADD SLOAD PUSH1 0x8 SHR AND ISZERO PUSH2 0x15E0 JUMP JUMPDEST DUP1 PUSH1 0x0 MSTORE PUSH1 0x2 DUP3 MSTORE PUSH1 0x40 PUSH1 0x0 KECCAK256 PUSH1 0x9 DUP2 ADD CALLER PUSH1 0x0 MSTORE DUP1 DUP5 MSTORE PUSH1 0xFF PUSH1 0x40 PUSH1 0x0 KECCAK256 SLOAD AND ISZERO PUSH2 0x1159 JUMPI PUSH1 0xA SWAP3 SWAP4 CALLER PUSH1 0x0 MSTORE MSTORE PUSH1 0x40 PUSH1 0x0 KECCAK256 PUSH1 0xFF NOT DUP2 SLOAD AND SWAP1 SSTORE ADD DUP1 SLOAD DUP1 ISZERO PUSH2 0x1143 JUMPI PUSH1 0x0 NOT ADD SWAP1 SSTORE CALLER SWAP1 PUSH32 0x4F5E69CF0DAAC20B9598091CA3A707300335719BB525C0972393B1BFB854E51B PUSH1 0x0 DUP1 LOG3 STOP JUMPDEST PUSH4 0x4E487B71 PUSH1 0xE0 SHL PUSH1 0x0 MSTORE PUSH1 0x11 PUSH1 0x4 MSTORE PUSH1 0x24 PUSH1 0x0 REVERT JUMPDEST PUSH1 0x40 MLOAD PUSH3 0x461BCD PUSH1 0xE5 SHL DUP2 MSTORE PUSH1 0x4 DUP2 ADD DUP6 SWAP1 MSTORE PUSH1 0x22 PUSH1 0x24 DUP3 ADD MSTORE PUSH32 0x596F752068617665206E6F7420737570706F72746564207468697320706F6C69 PUSH1 0x44 DUP3 ADD MSTORE PUSH2 0x6379 PUSH1 0xF0 SHL PUSH1 0x64 DUP3 ADD MSTORE PUSH1 0x84 SWAP1 REVERT JUMPDEST CALLVALUE PUSH2 0x77F JUMPI PUSH1 0x20 CALLDATASIZE PUSH1 0x3 NOT ADD SLT PUSH2 0x77F JUMPI PUSH1 0x4 CALLDATALOAD DUP1 ISZERO ISZERO DUP1 PUSH2 0x12E5 JUMPI JUMPDEST PUSH2 0x11CF SWAP1 PUSH2 0x159C JUMP JUMPDEST PUSH1 0x0 SWAP1 DUP2 MSTORE PUSH1 0x2 PUSH1 0x20 MSTORE PUSH1 0x40 SWAP1 KECCAK256 PUSH1 0x5 DUP2 ADD SLOAD PUSH1 0x1 PUSH1 0x1 PUSH1 0xA0 SHL SUB AND PUSH2 0x11F6 DUP2 ISZERO ISZERO PUSH2 0x159C JUMP JUMPDEST PUSH1 0x6 DUP3 ADD SLOAD SWAP1 PUSH1 0x7 DUP4 ADD SLOAD PUSH1 0x8 DUP5 ADD SLOAD PUSH1 0xA DUP6 ADD SLOAD SWAP1 PUSH1 0xB DUP7 ADD SLOAD SWAP3 PUSH2 0x121B DUP8 PUSH2 0x162C JUMP JUMPDEST SWAP6 PUSH2 0x1228 PUSH1 0x1 DUP10 ADD PUSH2 0x162C JUMP JUMPDEST SWAP8 PUSH2 0x1235 PUSH1 0x2 DUP3 ADD PUSH2 0x162C JUMP JUMPDEST SWAP1 PUSH2 0x1242 PUSH1 0x3 DUP3 ADD PUSH2 0x162C JUMP JUMPDEST SWAP1 PUSH1 0x4 ADD PUSH2 0x124F SWAP1 PUSH2 0x162C JUMP JUMPDEST SWAP2 PUSH1 0x40 MLOAD SWAP11 DUP12 SWAP11 PUSH2 0x180 DUP1 DUP14 MSTORE DUP13 ADD PUSH2 0x1267 SWAP2 PUSH2 0x1314 JUMP JUMPDEST DUP12 DUP2 SUB PUSH1 0x20 DUP14 ADD MSTORE PUSH2 0x1278 SWAP2 PUSH2 0x1314 JUMP JUMPDEST DUP11 DUP2 SUB PUSH1 0x40 DUP13 ADD MSTORE PUSH2 0x1289 SWAP2 PUSH2 0x1314 JUMP JUMPDEST DUP10 DUP2 SUB PUSH1 0x60 DUP12 ADD MSTORE PUSH2 0x129A SWAP2 PUSH2 0x1314 JUMP JUMPDEST DUP9 DUP2 SUB PUSH1 0x80 DUP11 ADD MSTORE PUSH2 0x12AB SWAP2 PUSH2 0x1314 JUMP JUMPDEST SWAP6 PUSH1 0xA0 DUP9 ADD MSTORE PUSH1 0xC0 DUP8 ADD MSTORE PUSH1 0xE0 DUP7 ADD MSTORE PUSH2 0x100 DUP6 ADD MSTORE PUSH2 0x120 DUP5 ADD MSTORE PUSH1 0xFF DUP2 AND ISZERO ISZERO PUSH2 0x140 DUP5 ADD MSTORE PUSH1 0x8 SHR PUSH1 0xFF AND ISZERO ISZERO PUSH2 0x160 DUP4 ADD MSTORE SUB SWAP1 RETURN JUMPDEST POP PUSH1 0x1 SLOAD DUP2 GT ISZERO PUSH2 0x11C6 JUMP JUMPDEST PUSH1 0x0 JUMPDEST DUP4 DUP2 LT PUSH2 0x1304 JUMPI POP POP PUSH1 0x0 SWAP2 ADD MSTORE JUMP JUMPDEST DUP2 DUP2 ADD MLOAD DUP4 DUP3 ADD MSTORE PUSH1 0x20 ADD PUSH2 0x12F4 JUMP JUMPDEST SWAP1 PUSH1 0x20 SWAP2 PUSH2 0x132D DUP2 MLOAD DUP1 SWAP3 DUP2 DUP6 MSTORE DUP6 DUP1 DUP7 ADD SWAP2 ADD PUSH2 0x12F1 JUMP JUMPDEST PUSH1 0x1F ADD PUSH1 0x1F NOT AND ADD ADD SWAP1 JUMP JUMPDEST SWAP2 DUP2 PUSH1 0x1F DUP5 ADD SLT ISZERO PUSH2 0x77F JUMPI DUP3 CALLDATALOAD SWAP2 PUSH1 0x1 PUSH1 0x1 PUSH1 0x40 SHL SUB DUP4 GT PUSH2 0x77F JUMPI PUSH1 0x20 DUP4 DUP2 DUP7 ADD SWAP6 ADD ADD GT PUSH2 0x77F JUMPI JUMP JUMPDEST PUSH1 0x40 DUP2 ADD SWAP1 DUP2 LT PUSH1 0x1 PUSH1 0x1 PUSH1 0x40 SHL SUB DUP3 GT OR PUSH2 0x4C2 JUMPI PUSH1 0x40 MSTORE JUMP JUMPDEST SWAP1 PUSH1 0x1F DUP1 NOT SWAP2 ADD AND DUP2 ADD SWAP1 DUP2 LT PUSH1 0x1 PUSH1 0x1 PUSH1 0x40 SHL SUB DUP3 GT OR PUSH2 0x4C2 JUMPI PUSH1 0x40 MSTORE JUMP JUMPDEST SWAP3 SWAP2 SWAP3 PUSH1 0x1 PUSH1 0x1 PUSH1 0x40 SHL SUB DUP3 GT PUSH2 0x4C2 JUMPI PUSH1 0x40 MLOAD SWAP2 PUSH2 0x13CB PUSH1 0x1F DUP3 ADD PUSH1 0x1F NOT AND PUSH1 0x20 ADD DUP5 PUSH2 0x1381 JUMP JUMPDEST DUP3 SWAP5 DUP2 DUP5 MSTORE DUP2 DUP4 ADD GT PUSH2 0x77F JUMPI DUP3 DUP2 PUSH1 0x20 SWAP4 DUP5 PUSH1 0x0 SWAP7 ADD CALLDATACOPY ADD ADD MSTORE JUMP JUMPDEST PUSH1 0x40 PUSH1 0x3 NOT DUP3 ADD SLT PUSH2 0x77F JUMPI PUSH1 0x4 CALLDATALOAD SWAP1 PUSH1 0x1 PUSH1 0x1 PUSH1 0x40 SHL SUB DUP3 GT PUSH2 0x77F JUMPI DUP1 PUSH1 0x23 DUP4 ADD SLT ISZERO PUSH2 0x77F JUMPI DUP2 PUSH1 0x24 PUSH2 0x1423 SWAP4 PUSH1 0x4 ADD CALLDATALOAD SWAP2 ADD PUSH2 0x13A2 JUMP JUMPDEST SWAP1 PUSH1 0x24 CALLDATALOAD SWAP1 JUMP JUMPDEST DUP1 SLOAD DUP3 LT ISZERO PUSH2 0x1442 JUMPI PUSH1 0x0 MSTORE PUSH1 0x20 PUSH1 0x0 KECCAK256 ADD SWAP1 PUSH1 0x0 SWAP1 JUMP JUMPDEST PUSH4 0x4E487B71 PUSH1 0xE0 SHL PUSH1 0x0 MSTORE PUSH1 0x32 PUSH1 0x4 MSTORE PUSH1 0x24 PUSH1 0x0 REVERT JUMPDEST SWAP1 DUP2 PUSH1 0x20 SWAP2 SUB SLT PUSH2 0x77F JUMPI MLOAD DUP1 ISZERO ISZERO DUP2 SUB PUSH2 0x77F JUMPI SWAP1 JUMP JUMPDEST ISZERO PUSH2 0x1477 JUMPI JUMP JUMPDEST PUSH1 0x40 MLOAD PUSH3 0x461BCD PUSH1 0xE5 SHL DUP2 MSTORE PUSH1 0x20 PUSH1 0x4 DUP3 ADD MSTORE PUSH1 0xD PUSH1 0x24 DUP3 ADD MSTORE PUSH13 0x2737902832B936B4B9B9B4B7B7 PUSH1 0x99 SHL PUSH1 0x44 DUP3 ADD MSTORE PUSH1 0x64 SWAP1 REVERT JUMPDEST PUSH1 0x0 NOT DUP2 EQ PUSH2 0x1143 JUMPI PUSH1 0x1 ADD SWAP1 JUMP JUMPDEST SWAP1 PUSH1 0x1 DUP3 DUP2 SHR SWAP3 AND DUP1 ISZERO PUSH2 0x14EB JUMPI JUMPDEST PUSH1 0x20 DUP4 LT EQ PUSH2 0x14D5 JUMPI JUMP JUMPDEST PUSH4 0x4E487B71 PUSH1 0xE0 SHL PUSH1 0x0 MSTORE PUSH1 0x22 PUSH1 0x4 MSTORE PUSH1 0x24 PUSH1 0x0 REVERT JUMPDEST SWAP2 PUSH1 0x7F AND SWAP2 PUSH2 0x14CA JUMP JUMPDEST DUP2 DUP2 LT PUSH2 0x1500 JUMPI POP POP JUMP JUMPDEST PUSH1 0x0 DUP2 SSTORE PUSH1 0x1 ADD PUSH2 0x14F5 JUMP JUMPDEST SWAP2 SWAP1 PUSH1 0x1F DUP2 GT PUSH2 0x151B JUMPI POP POP POP JUMP JUMPDEST PUSH2 0x1547 SWAP3 PUSH1 0x0 MSTORE PUSH1 0x20 PUSH1 0x0 KECCAK256 SWAP1 PUSH1 0x20 PUSH1 0x1F DUP5 ADD PUSH1 0x5 SHR DUP4 ADD SWAP4 LT PUSH2 0x1549 JUMPI JUMPDEST PUSH1 0x1F ADD PUSH1 0x5 SHR ADD SWAP1 PUSH2 0x14F5 JUMP JUMPDEST JUMP JUMPDEST SWAP1 SWAP2 POP DUP2 SWAP1 PUSH2 0x153A JUMP JUMPDEST SWAP1 DUP2 SLOAD SWAP2 PUSH9 0x10000000000000000 DUP4 LT ISZERO PUSH2 0x4C2 JUMPI DUP3 PUSH2 0x9E4 SWAP2 PUSH1 0x1 PUSH2 0x1547 SWAP6 ADD DUP2 SSTORE PUSH2 0x142A JUMP JUMPDEST SWAP1 DUP1 PUSH1 0x20 SWAP4 SWAP3 DUP2 DUP5 MSTORE DUP5 DUP5 ADD CALLDATACOPY PUSH1 0x0 DUP3 DUP3 ADD DUP5 ADD MSTORE PUSH1 0x1F ADD PUSH1 0x1F NOT AND ADD ADD SWAP1 JUMP JUMPDEST ISZERO PUSH2 0x15A3 JUMPI JUMP JUMPDEST PUSH1 0x40 MLOAD PUSH3 0x461BCD PUSH1 0xE5 SHL DUP2 MSTORE PUSH1 0x20 PUSH1 0x4 DUP3 ADD MSTORE PUSH1 0x15 PUSH1 0x24 DUP3 ADD MSTORE PUSH21 0x141BDB1A58DE48191BD95CC81B9BDD08195E1A5CDD PUSH1 0x5A SHL PUSH1 0x44 DUP3 ADD MSTORE PUSH1 0x64 SWAP1 REVERT JUMPDEST ISZERO PUSH2 0x15E7 JUMPI JUMP JUMPDEST PUSH1 0x40 MLOAD PUSH3 0x461BCD PUSH1 0xE5 SHL DUP2 MSTORE PUSH1 0x20 PUSH1 0x4 DUP3 ADD MSTORE PUSH1 0x17 PUSH1 0x24 DUP3 ADD MSTORE PUSH32 0x506F6C69637920686173206265656E2072656D6F766564000000000000000000 PUSH1 0x44 DUP3 ADD MSTORE PUSH1 0x64 SWAP1 REVERT JUMPDEST SWAP1 PUSH1 0x40 MLOAD SWAP2 DUP3 PUSH1 0x0 DUP3 SLOAD SWAP3 PUSH2 0x1640 DUP5 PUSH2 0x14BB JUMP JUMPDEST SWAP1 DUP2 DUP5 MSTORE PUSH1 0x1 SWAP5 DUP6 DUP2 AND SWAP1 DUP2 PUSH1 0x0 EQ PUSH2 0x16AD JUMPI POP PUSH1 0x1 EQ PUSH2 0x166A JUMPI JUMPDEST POP POP PUSH2 0x1547 SWAP3 POP SUB DUP4 PUSH2 0x1381 JUMP JUMPDEST SWAP1 SWAP4 SWAP2 POP PUSH1 0x0 MSTORE PUSH1 0x20 SWAP1 DUP2 PUSH1 0x0 KECCAK256 SWAP4 PUSH1 0x0 SWAP2 JUMPDEST DUP2 DUP4 LT PUSH2 0x1695 JUMPI POP POP PUSH2 0x1547 SWAP4 POP DUP3 ADD ADD CODESIZE DUP1 PUSH2 0x165C JUMP JUMPDEST DUP6 SLOAD DUP9 DUP5 ADD DUP6 ADD MSTORE SWAP5 DUP6 ADD SWAP5 DUP8 SWAP5 POP SWAP2 DUP4 ADD SWAP2 PUSH2 0x167D JUMP JUMPDEST SWAP2 POP POP PUSH2 0x1547 SWAP5 POP PUSH1 0x20 SWAP3 POP PUSH1 0xFF NOT AND DUP3 DUP5 ADD MSTORE ISZERO ISZERO PUSH1 0x5 SHL DUP3 ADD ADD CODESIZE DUP1 PUSH2 0x165C JUMP JUMPDEST ISZERO PUSH2 0x16D7 JUMPI JUMP JUMPDEST PUSH1 0x40 MLOAD PUSH3 0x461BCD PUSH1 0xE5 SHL DUP2 MSTORE PUSH1 0x20 PUSH1 0x4 DUP3 ADD MSTORE PUSH1 0x13 PUSH1 0x24 DUP3 ADD MSTORE PUSH19 0x155CD95C881B9BDD08185D5D1A1BDC9A5E9959 PUSH1 0x6A SHL PUSH1 0x44 DUP3 ADD MSTORE PUSH1 0x64 SWAP1 REVERT INVALID LOG2 PUSH5 0x6970667358 0x22 SLT KECCAK256 0xC6 0x23 PUSH10 0x9A0854A6B5C5F6304A3B EQ BASEFEE DUP5 0xC2 0xD8 0xCC PUSH17 0x347AB3FA264D6B42FB04D92364736F6C63 NUMBER STOP ADDMOD EQ STOP CALLER "},"methodIdentifiers":{"authRegistry()":"629e025a","createPolicy(string,string,string,string,uint256)":"f5c2d186","getPolicy(uint256)":"2b07fce3","lastCreatedAt(address)":"b94afa71","policiesByMinistry(string,uint256)":"c29f42e9","policiesByStatus(string,uint256)":"be0973b1","policyCount()":"de54d429","removePolicy(uint256)":"6caddcdc","supportPolicy(uint256)":"50c99e7c","unsupportPolicy(uint256)":"2d1564dd","updatePolicyStatus(uint256,string,uint256)":"8f03ad6e"}}}}}