{
  "_format": "hh-sol-artifact-1",
  "contractName": "AuthRegistry",
  "sourceName": "contracts/auth/auth.sol",
  "abi": [
    {
      "inputs": [],
      "stateMutability": "nonpayable",
      "type": "constructor"
    },
    {
      "anonymous": false,
      "inputs": [
        {
          "indexed": false,
          "internalType": "address",
          "name": "admin",
          "type": "address"
        }
      ],
      "name": "AdminAuthorized",
      "type": "event"
    },
    {
      "anonymous": false,
      "inputs": [
        {
          "indexed": false,
          "internalType": "address",
          "name": "admin",
          "type": "address"
        }
      ],
      "name": "AdminRevoked",
      "type": "event"
    },
    {
      "anonymous": false,
      "inputs": [
        {
          "indexed": false,
          "internalType": "address",
          "name": "user",
          "type": "address"
        }
      ],
      "name": "UserAuthorized",
      "type": "event"
    },
    {
      "anonymous": false,
      "inputs": [
        {
          "indexed": false,
          "internalType": "address",
          "name": "user",
          "type": "address"
        }
      ],
      "name": "UserRevoked",
      "type": "event"
    },
    {
      "inputs": [
        {
          "internalType": "address",
          "name": "",
          "type": "address"
        }
      ],
      "name": "adminUsers",
      "outputs": [
        {
          "internalType": "bool",
          "name": "",
          "type": "bool"
        }
      ],
      "stateMutability": "view",
      "type": "function"
    },
    {
      "inputs": [
        {
          "internalType": "address",
          "name": "admin",
          "type": "address"
        }
      ],
      "name": "authorizeAdmin",
      "outputs": [],
      "stateMutability": "nonpayable",
      "type": "function"
    },
    {
      "inputs": [
        {
          "internalType": "address",
          "name": "user",
          "type": "address"
        }
      ],
      "name": "authorizeUser",
      "outputs": [],
      "stateMutability": "nonpayable",
      "type": "function"
    },
    {
      "inputs": [
        {
          "internalType": "address",
          "name": "",
          "type": "address"
        }
      ],
      "name": "authorizedUsers",
      "outputs": [
        {
          "internalType": "bool",
          "name": "",
          "type": "bool"
        }
      ],
      "stateMutability": "view",
      "type": "function"
    },
    {
      "inputs": [
        {
          "internalType": "address",
          "name": "user",
          "type": "address"
        }
      ],
      "name": "isAdmin",
      "outputs": [
        {
          "internalType": "bool",
          "name": "",
          "type": "bool"
        }
      ],
      "stateMutability": "view",
      "type": "function"
    },
    {
      "inputs": [
        {
          "internalType": "address",
          "name": "user",
          "type": "address"
        }
      ],
      "name": "isAuthorized",
      "outputs": [
        {
          "internalType": "bool",
          "name": "",
          "type": "bool"
        }
      ],
      "stateMutability": "view",
      "type": "function"
    },
    {
      "inputs": [],
      "name": "owner",
      "outputs": [
        {
          "internalType": "address",
          "name": "",
          "type": "address"
        }
      ],
      "stateMutability": "view",
      "type": "function"
    },
    {
      "inputs": [
        {
          "internalType": "address",
          "name": "admin",
          "type": "address"
        }
      ],
      "name": "revokeAdmin",
      "outputs": [],
      "stateMutability": "nonpayable",
      "type": "function"
    },
    {
      "inputs": [
        {
          "internalType": "address",
          "name": "user",
          "type": "address"
        }
      ],
      "name": "revokeUser",
      "outputs": [],
      "stateMutability": "nonpayable",
      "type": "function"
    }
  ],
  "bytecode": "0x6080806040523461002857600080546001600160a01b031916331790556103e2908161002e8239f35b600080fdfe608060409080825260048036101561001657600080fd5b600091823560e01c9081631828983a1461032e5750806324d7806c146101895780632d345670146102b9578063579f60da1461024157806367c2a360146101c95780637fa249cf146101895780638da5cb5b14610161578063ef097fc4146100e45763fe9fbb801461008757600080fd5b346100e05760203660031901126100e057356001600160a01b03811692908390036100e05760209282526001835260ff81832054169182156100cd575b50519015158152f35b600284528190205460ff169150386100c4565b5080fd5b5082903461015d57602036600319011261015d576001600160a01b03903581811690819003610159577fb43ac7bf01d16ebcb8c868a4c03fecb1f6984ea4fa1a52c116ef282b8dbb17c59261013f602093865416331461036b565b81855260018352808520805460ff1916905551908152a180f35b8380fd5b8280fd5b8284346100e057816003193601126100e057905490516001600160a01b039091168152602090f35b5082903461015d57602036600319011261015d57356001600160a01b0381169081900361015d57818360ff92602095526002855220541690519015158152f35b5082903461015d57602036600319011261015d576001600160a01b03903581811690819003610159577fb0be505cf6e26533f3066ac7722c3f8a5e8a123f43187c7832d333c49603b14692610224602093865416331461036b565b81855260018352808520600160ff1982541617905551908152a180f35b5082903461015d57602036600319011261015d576001600160a01b03903581811690819003610159577f5481d9ad8ae9261381727027aa19258cb29ffe58222eb81a23cc590c870ff2f49261029c602093865416331461036b565b81855260028352808520805460ff1916600117905551908152a180f35b5082903461015d57602036600319011261015d576001600160a01b03903581811690819003610159577f631ff1c4e1a02c54b480a34b810e03bcee61fe38efcb243930a7f820914923e292610314602093865416331461036b565b81855260028352808520805460ff1916905551908152a180f35b918491503461015957602036600319011261015957356001600160a01b038116908190036101595783526001602090815292205460ff1615158152f35b1561037257565b60405162461bcd60e51b81526020600482015260126024820152712737ba1031b7b73a3930b1ba1037bbb732b960711b6044820152606490fdfea26469706673582212205da6a8df30061f8f9bb748568335736c6a5967a4f1651d0002b6e629ff4b567964736f6c63430008140033",
  "linkReferences": {},
  "deployedLinkReferences": {}
}