{
  "_format": "hh-sol-artifact-1",
  "contractName": "AuthRegistry",
  "sourceName": "contracts/auth/auth.sol",
  "abi": [
    {
      "inputs": [],
      "stateMutability": "nonpayable",
      "type": "constructor"
    },
    {
      "anonymous": false,
      "inputs": [
        {
          "indexed": false,
          "internalType": "address",
          "name": "user",
          "type": "address"
        }
      ],
      "name": "UserAuthorized",
      "type": "event"
    },
    {
      "anonymous": false,
      "inputs": [
        {
          "indexed": false,
          "internalType": "address",
          "name": "user",
          "type": "address"
        }
      ],
      "name": "UserRevoked",
      "type": "event"
    },
    {
      "inputs": [
        {
          "internalType": "address",
          "name": "user",
          "type": "address"
        }
      ],
      "name": "authorizeUser",
      "outputs": [],
      "stateMutability": "nonpayable",
      "type": "function"
    },
    {
      "inputs": [
        {
          "internalType": "address",
          "name": "",
          "type": "address"
        }
      ],
      "name": "authorizedUsers",
      "outputs": [
        {
          "internalType": "bool",
          "name": "",
          "type": "bool"
        }
      ],
      "stateMutability": "view",
      "type": "function"
    },
    {
      "inputs": [
        {
          "internalType": "address",
          "name": "user",
          "type": "address"
        }
      ],
      "name": "isAuthorized",
      "outputs": [
        {
          "internalType": "bool",
          "name": "",
          "type": "bool"
        }
      ],
      "stateMutability": "view",
      "type": "function"
    },
    {
      "inputs": [],
      "name": "owner",
      "outputs": [
        {
          "internalType": "address",
          "name": "",
          "type": "address"
        }
      ],
      "stateMutability": "view",
      "type": "function"
    },
    {
      "inputs": [
        {
          "internalType": "address",
          "name": "user",
          "type": "address"
        }
      ],
      "name": "revokeUser",
      "outputs": [],
      "stateMutability": "nonpayable",
      "type": "function"
    }
  ],
  "bytecode": "0x6080806040523461002857600080546001600160a01b0319163317905561026b908161002e8239f35b600080fdfe60806040818152600436101561001457600080fd5b600091823560e01c9081631828983a146101b65750806367c2a3601461013f5780638da5cb5b14610118578063ef097fc4146100a05763fe9fbb801461005957600080fd5b3461009c57602036600319011261009c576004356001600160a01b0381169081900361009857818360ff92602095526001855220541690519015158152f35b8280fd5b5080fd5b503461009c57602036600319011261009c576001600160a01b0360043581811690819003610114577fb43ac7bf01d16ebcb8c868a4c03fecb1f6984ea4fa1a52c116ef282b8dbb17c5926100fa60209386541633146101f4565b81855260018352808520805460ff1916905551908152a180f35b8380fd5b503461009c578160031936011261009c57905490516001600160a01b039091168152602090f35b503461009c57602036600319011261009c576001600160a01b0360043581811690819003610114577fb0be505cf6e26533f3066ac7722c3f8a5e8a123f43187c7832d333c49603b1469261019960209386541633146101f4565b81855260018352808520600160ff1982541617905551908152a180f35b91905034610098576020366003190112610098576004356001600160a01b038116908190036101145783526001602090815292205460ff1615158152f35b156101fb57565b60405162461bcd60e51b81526020600482015260126024820152712737ba1031b7b73a3930b1ba1037bbb732b960711b6044820152606490fdfea2646970667358221220b3121ebc21ee2e5f7527209a3db4ab1dc84209b48680b2a1963038cd0d1641e264736f6c63430008140033",
  "linkReferences": {},
  "deployedLinkReferences": {}
}