{
  "_format": "hh-sol-artifact-1",
  "contractName": "AuthRegistry",
  "sourceName": "contracts/auth/auth.sol",
  "abi": [
    {
      "inputs": [],
      "stateMutability": "nonpayable",
      "type": "constructor"
    },
    {
      "anonymous": false,
      "inputs": [
        {
          "indexed": false,
          "internalType": "address",
          "name": "user",
          "type": "address"
        }
      ],
      "name": "UserAuthorized",
      "type": "event"
    },
    {
      "anonymous": false,
      "inputs": [
        {
          "indexed": false,
          "internalType": "address",
          "name": "user",
          "type": "address"
        }
      ],
      "name": "UserRevoked",
      "type": "event"
    },
    {
      "inputs": [
        {
          "internalType": "address",
          "name": "user",
          "type": "address"
        }
      ],
      "name": "authorizeUser",
      "outputs": [],
      "stateMutability": "nonpayable",
      "type": "function"
    },
    {
      "inputs": [
        {
          "internalType": "address",
          "name": "",
          "type": "address"
        }
      ],
      "name": "authorizedUsers",
      "outputs": [
        {
          "internalType": "bool",
          "name": "",
          "type": "bool"
        }
      ],
      "stateMutability": "view",
      "type": "function"
    },
    {
      "inputs": [
        {
          "internalType": "address",
          "name": "user",
          "type": "address"
        }
      ],
      "name": "isAuthorized",
      "outputs": [
        {
          "internalType": "bool",
          "name": "",
          "type": "bool"
        }
      ],
      "stateMutability": "view",
      "type": "function"
    },
    {
      "inputs": [],
      "name": "owner",
      "outputs": [
        {
          "internalType": "address",
          "name": "",
          "type": "address"
        }
      ],
      "stateMutability": "view",
      "type": "function"
    },
    {
      "inputs": [
        {
          "internalType": "address",
          "name": "user",
          "type": "address"
        }
      ],
      "name": "revokeUser",
      "outputs": [],
      "stateMutability": "nonpayable",
      "type": "function"
    }
  ],
  "bytecode": "0x608060405234801561001057600080fd5b50336000806101000a81548173ffffffffffffffffffffffffffffffffffffffff021916908373ffffffffffffffffffffffffffffffffffffffff16021790555061058e806100606000396000f3fe608060405234801561001057600080fd5b50600436106100575760003560e01c80631828983a1461005c57806367c2a3601461008c5780638da5cb5b146100a8578063ef097fc4146100c6578063fe9fbb80146100e2575b600080fd5b6100766004803603810190610071919061044e565b610112565b6040516100839190610496565b60405180910390f35b6100a660048036038101906100a1919061044e565b610132565b005b6100b0610251565b6040516100bd91906104c0565b60405180910390f35b6100e060048036038101906100db919061044e565b610275565b005b6100fc60048036038101906100f7919061044e565b610395565b6040516101099190610496565b60405180910390f35b60016020528060005260406000206000915054906101000a900460ff1681565b60008054906101000a900473ffffffffffffffffffffffffffffffffffffffff1673ffffffffffffffffffffffffffffffffffffffff163373ffffffffffffffffffffffffffffffffffffffff16146101c0576040517f08c379a00000000000000000000000000000000000000000000000000000000081526004016101b790610538565b60405180910390fd5b60018060008373ffffffffffffffffffffffffffffffffffffffff1673ffffffffffffffffffffffffffffffffffffffff16815260200190815260200160002060006101000a81548160ff0219169083151502179055507fb0be505cf6e26533f3066ac7722c3f8a5e8a123f43187c7832d333c49603b1468160405161024691906104c0565b60405180910390a150565b60008054906101000a900473ffffffffffffffffffffffffffffffffffffffff1681565b60008054906101000a900473ffffffffffffffffffffffffffffffffffffffff1673ffffffffffffffffffffffffffffffffffffffff163373ffffffffffffffffffffffffffffffffffffffff1614610303576040517f08c379a00000000000000000000000000000000000000000000000000000000081526004016102fa90610538565b60405180910390fd5b6000600160008373ffffffffffffffffffffffffffffffffffffffff1673ffffffffffffffffffffffffffffffffffffffff16815260200190815260200160002060006101000a81548160ff0219169083151502179055507fb43ac7bf01d16ebcb8c868a4c03fecb1f6984ea4fa1a52c116ef282b8dbb17c58160405161038a91906104c0565b60405180910390a150565b6000600160008373ffffffffffffffffffffffffffffffffffffffff1673ffffffffffffffffffffffffffffffffffffffff16815260200190815260200160002060009054906101000a900460ff169050919050565b600080fd5b600073ffffffffffffffffffffffffffffffffffffffff82169050919050565b600061041b826103f0565b9050919050565b61042b81610410565b811461043657600080fd5b50565b60008135905061044881610422565b92915050565b600060208284031215610464576104636103eb565b5b600061047284828501610439565b91505092915050565b60008115159050919050565b6104908161047b565b82525050565b60006020820190506104ab6000830184610487565b92915050565b6104ba81610410565b82525050565b60006020820190506104d560008301846104b1565b92915050565b600082825260208201905092915050565b7f4e6f7420636f6e7472616374206f776e65720000000000000000000000000000600082015250565b60006105226012836104db565b915061052d826104ec565b602082019050919050565b6000602082019050818103600083015261055181610515565b905091905056fea2646970667358221220963a497eca5701622c002810f28d51259eda909026e97fbe58406b2f48201bc464736f6c63430008140033",
  "linkReferences": {},
  "deployedLinkReferences": {}
}