{
  "_format": "hh-sol-artifact-1",
  "contractName": "Reports",
  "sourceName": "contracts/report/reports.sol",
  "abi": [
    {
      "inputs": [
        {
          "internalType": "address",
          "name": "_authRegistry",
          "type": "address"
        }
      ],
      "stateMutability": "nonpayable",
      "type": "constructor"
    },
    {
      "anonymous": false,
      "inputs": [
        {
          "indexed": true,
          "internalType": "uint256",
          "name": "reportId",
          "type": "uint256"
        },
        {
          "indexed": true,
          "internalType": "address",
          "name": "creator",
          "type": "address"
        },
        {
          "indexed": false,
          "internalType": "string",
          "name": "titleCid",
          "type": "string"
        },
        {
          "indexed": false,
          "internalType": "string",
          "name": "descriptionCid",
          "type": "string"
        }
      ],
      "name": "ReportCreated",
      "type": "event"
    },
    {
      "anonymous": false,
      "inputs": [
        {
          "indexed": true,
          "internalType": "uint256",
          "name": "reportId",
          "type": "uint256"
        },
        {
          "indexed": true,
          "internalType": "address",
          "name": "voter",
          "type": "address"
        }
      ],
      "name": "ReportDownvoted",
      "type": "event"
    },
    {
      "anonymous": false,
      "inputs": [
        {
          "indexed": true,
          "internalType": "uint256",
          "name": "reportId",
          "type": "uint256"
        },
        {
          "indexed": true,
          "internalType": "address",
          "name": "resolver",
          "type": "address"
        },
        {
          "indexed": false,
          "internalType": "uint256",
          "name": "resolvedAt",
          "type": "uint256"
        }
      ],
      "name": "ReportResolved",
      "type": "event"
    },
    {
      "anonymous": false,
      "inputs": [
        {
          "indexed": true,
          "internalType": "uint256",
          "name": "reportId",
          "type": "uint256"
        },
        {
          "indexed": true,
          "internalType": "address",
          "name": "voter",
          "type": "address"
        }
      ],
      "name": "ReportUpvoted",
      "type": "event"
    },
    {
      "inputs": [],
      "name": "authRegistry",
      "outputs": [
        {
          "internalType": "contract IAuthRegistry",
          "name": "",
          "type": "address"
        }
      ],
      "stateMutability": "view",
      "type": "function"
    },
    {
      "inputs": [
        {
          "internalType": "string",
          "name": "titleCid",
          "type": "string"
        },
        {
          "internalType": "string",
          "name": "descriptionCid",
          "type": "string"
        }
      ],
      "name": "createReport",
      "outputs": [
        {
          "internalType": "uint256",
          "name": "",
          "type": "uint256"
        }
      ],
      "stateMutability": "nonpayable",
      "type": "function"
    },
    {
      "inputs": [
        {
          "internalType": "uint256",
          "name": "reportId",
          "type": "uint256"
        }
      ],
      "name": "downvoteReport",
      "outputs": [],
      "stateMutability": "nonpayable",
      "type": "function"
    },
    {
      "inputs": [
        {
          "internalType": "uint256",
          "name": "reportId",
          "type": "uint256"
        }
      ],
      "name": "getReport",
      "outputs": [
        {
          "internalType": "string",
          "name": "titleCid",
          "type": "string"
        },
        {
          "internalType": "string",
          "name": "descriptionCid",
          "type": "string"
        },
        {
          "internalType": "uint256",
          "name": "upvotes",
          "type": "uint256"
        },
        {
          "internalType": "uint256",
          "name": "downvotes",
          "type": "uint256"
        },
        {
          "internalType": "address",
          "name": "creator",
          "type": "address"
        },
        {
          "internalType": "bool",
          "name": "resolved",
          "type": "bool"
        },
        {
          "internalType": "uint256",
          "name": "createdAt",
          "type": "uint256"
        },
        {
          "internalType": "uint256",
          "name": "resolvedAt",
          "type": "uint256"
        },
        {
          "internalType": "bool",
          "name": "removed",
          "type": "bool"
        }
      ],
      "stateMutability": "view",
      "type": "function"
    },
    {
      "inputs": [
        {
          "internalType": "uint256",
          "name": "reportId",
          "type": "uint256"
        }
      ],
      "name": "getReportVotes",
      "outputs": [
        {
          "internalType": "uint256",
          "name": "upvotes",
          "type": "uint256"
        },
        {
          "internalType": "uint256",
          "name": "downvotes",
          "type": "uint256"
        },
        {
          "internalType": "int256",
          "name": "netVotes",
          "type": "int256"
        },
        {
          "internalType": "uint256",
          "name": "totalVotes",
          "type": "uint256"
        }
      ],
      "stateMutability": "view",
      "type": "function"
    },
    {
      "inputs": [
        {
          "internalType": "uint256",
          "name": "reportId",
          "type": "uint256"
        },
        {
          "internalType": "address",
          "name": "user",
          "type": "address"
        }
      ],
      "name": "getUserVote",
      "outputs": [
        {
          "internalType": "bool",
          "name": "hasUpvoted",
          "type": "bool"
        },
        {
          "internalType": "bool",
          "name": "hasDownvoted",
          "type": "bool"
        }
      ],
      "stateMutability": "view",
      "type": "function"
    },
    {
      "inputs": [
        {
          "internalType": "address",
          "name": "",
          "type": "address"
        }
      ],
      "name": "lastCreatedAt",
      "outputs": [
        {
          "internalType": "uint256",
          "name": "",
          "type": "uint256"
        }
      ],
      "stateMutability": "view",
      "type": "function"
    },
    {
      "inputs": [
        {
          "internalType": "uint256",
          "name": "reportId",
          "type": "uint256"
        }
      ],
      "name": "removeReport",
      "outputs": [],
      "stateMutability": "nonpayable",
      "type": "function"
    },
    {
      "inputs": [
        {
          "internalType": "uint256",
          "name": "reportId",
          "type": "uint256"
        }
      ],
      "name": "removeVote",
      "outputs": [],
      "stateMutability": "nonpayable",
      "type": "function"
    },
    {
      "inputs": [
        {
          "internalType": "uint256",
          "name": "reportId",
          "type": "uint256"
        }
      ],
      "name": "reopenReport",
      "outputs": [],
      "stateMutability": "nonpayable",
      "type": "function"
    },
    {
      "inputs": [],
      "name": "reportCount",
      "outputs": [
        {
          "internalType": "uint256",
          "name": "",
          "type": "uint256"
        }
      ],
      "stateMutability": "view",
      "type": "function"
    },
    {
      "inputs": [
        {
          "internalType": "uint256",
          "name": "reportId",
          "type": "uint256"
        }
      ],
      "name": "resolveReport",
      "outputs": [],
      "stateMutability": "nonpayable",
      "type": "function"
    },
    {
      "inputs": [
        {
          "internalType": "uint256",
          "name": "reportId",
          "type": "uint256"
        }
      ],
      "name": "upvoteReport",
      "outputs": [],
      "stateMutability": "nonpayable",
      "type": "function"
    }
  ],
  "bytecode": "0x6080346100cb57601f61140338819003918201601f19168301916001600160401b038311848410176100d0578084926020946040528339810103126100cb57516001600160a01b038116908190036100cb57801561007a57600080546001600160a01b03191691909117905560405161131c90816100e78239f35b60405162461bcd60e51b8152602060048201526024808201527f4175746820726567697374727920616464726573732063616e6e6f74206265206044820152637a65726f60e01b6064820152608490fd5b600080fd5b634e487b7160e01b600052604160045260246000fdfe6080604052600436101561001257600080fd5b60003560e01c806303c7881a14610f88578063143c809e14610e4f578063185c6f8414610e31578063318b5c2a14610ce25780633f68fde414610b1b5780634ddb9c2a146106be5780634e7f9b19146105f25780634efdde4a14610476578063629e025a1461044d5780636dfa5e611461034157806372862d5f146102ab578063b1dc5e30146100ee5763b94afa71146100ab57600080fd5b346100e95760203660031901126100e9576004356001600160a01b038116908190036100e95760005260036020526020604060002054604051908152f35b600080fd5b346100e9576020806003193601126100e95760043560018060a01b036024838260005416604051928380926301fd3f7760e71b82523360048301525afa801561029f5761014391600091610272575b506110ab565b816000526002835260406000209061017460ff60048401549283169261016a841515611157565b60a01c161561119b565b60088201903360005281855260ff60406000205416610221579361019d600294953314156111e7565b336000526009830181526040600020805460ff8116610204575b505033600052526040600020600160ff19825416179055016101d981546110ed565b905533907faefa2723d1ab23a3d2bc1ed36a09aa9751210267d47050cd52f216086320c2bf600080a3005b60ff19169055600383016102188154611233565b905585806101b7565b60405162461bcd60e51b8152600481018690526024808201527f596f75206861766520616c7265616479207570766f74656420746869732072656044820152631c1bdc9d60e21b6064820152608490fd5b6102929150853d8711610298575b61028a8183611071565b810190611093565b8561013d565b503d610280565b6040513d6000823e3d90fd5b346100e95760203660031901126100e957600435600052600260205260406000206102e360018060a01b036004830154161515611157565b6003600282015491015490818103600083128282128116908383139015161761032b578282019081831161032b57608093604051938452602084015260408301526060820152f35b634e487b7160e01b600052601160045260246000fd5b346100e9576020806003193601126100e95760043560018060a01b036024838260005416604051928380926301fd3f7760e71b82523360048301525afa801561029f576103959160009161027257506110ab565b816000526002835260406000209060048201906103b782549182161515611157565b60ff8160a01c166104085760ff60a01b1916600160a01b1790554260069190910181905560405190815233927f914c345a830273245961b499776c4807af476e566aae53d84e12b6d93c2a6ceb91a3005b60405162461bcd60e51b815260048101869052601760248201527f5265706f727420616c7265616479207265736f6c7665640000000000000000006044820152606490fd5b346100e95760003660031901126100e9576000546040516001600160a01b039091168152602090f35b346100e9576020806003193601126100e95760043560018060a01b036024838260005416604051928380926301fd3f7760e71b82523360048301525afa801561029f576104ca9160009161027257506110ab565b81600052600283526040600020906104f160ff60048401549283169261016a841515611157565b60098201903360005281855260ff6040600020541661059e579361051a600394953314156111e7565b336000526008830181526040600020805460ff8116610581575b505033600052526040600020600160ff198254161790550161055681546110ed565b905533907fda742fa539d7c91231e20ddddc16f7a4ac31d0ab74c1d06b84118e320db5718b600080a3005b60ff19169055600283016105958154611233565b90558580610534565b60405162461bcd60e51b815260048101869052602660248201527f596f75206861766520616c726561647920646f776e766f7465642074686973206044820152651c995c1bdc9d60d21b6064820152608490fd5b346100e95760203660031901126100e957600435600052600260205261067f6040600020600481015460018060a01b03811690610630821515611157565b60028301549160038401549160ff600586015491600687015493826007890154169561068d61066a60016106638c611240565b9b01611240565b6040519b8c9b8c6101208091528d0190611031565b908b820360208d0152611031565b9760408a01526060890152608088015260a01c16151560a086015260c085015260e084015215156101008301520390f35b346100e95760403660031901126100e95760043567ffffffffffffffff81116100e9576106ef903690600401611003565b60243567ffffffffffffffff81116100e95761070f903690600401611003565b6000546040516301fd3f7760e71b815233600482015290602090829060249082906001600160a01b03165afa801561029f5761075291600091610afc57506110ab565b8215610ab7578015610a72576107696001546110ed565b928360015583600052600260205260406000209167ffffffffffffffff82116109a75761079683546110fc565b601f90818111610a2d575b508260008282116001146109c8576000916109bd575b508360011b906000198560031b1c19161784555b600184019067ffffffffffffffff83116109a7576107e982546110fc565b818111610962575b50918693916020989360009083116001146108cf5760067fce315b94586af2d2b56800f8ccff89a95e8c912ce5569f6ffabf2f1f8dbee6a9969784936108b99560009485916108c4575b508560011b9085198760031b1c19161790555b60048101805460ff60a01b193316906affffffffffffffffffffff60a81b1617905582600282015582600382015542600582015501553360005260038952426040600020556108aa604051948594604086526040860191611136565b908382038a8501523397611136565b0390a3604051908152f35b90508b01358e61083b565b9590601f198316816000528a6000209060005b8181106109485750926000926006927fce315b94586af2d2b56800f8ccff89a95e8c912ce5569f6ffabf2f1f8dbee6a9999a876108b998971061092f575b5050600185811b01905561084e565b851960f88860031b161c19908d01351690558d80610920565b8a8a01358355988c01988b98506001909201918c016108e2565b8260005260206000208280860160051c8201926020871061099e575b0160051c01905b81811061099257506107f1565b60008155600101610985565b9250819261097e565b634e487b7160e01b600052604160045260246000fd5b9050870135886107b7565b60008681526020812092505b601f1986168110610a15575084601f198116106109fb575b5050600183811b0184556107cb565b880135600019600386901b60f8161c1916905587806109ec565b9091602060018192858d0135815501930191016109d4565b8460005260206000208280860160051c82019260208710610a69575b0160051c01905b818110610a5d57506107a1565b60008155600101610a50565b92508192610a49565b60405162461bcd60e51b815260206004820152601f60248201527f4465736372697074696f6e204349442063616e6e6f7420626520656d707479006044820152606490fd5b60405162461bcd60e51b815260206004820152601960248201527f5469746c65204349442063616e6e6f7420626520656d707479000000000000006044820152606490fd5b610b15915060203d6020116102985761028a8183611071565b8661013d565b346100e9576020806003193601126100e9576000546040516301fd3f7760e71b81523360048201526001600160a01b039183908290602490829086165afa801561029f57610b7091600091610cc557506110ab565b6004356000526002825260ff604060002091610b9460048401549182161515611157565b60a01c16610c7257600090336000526008810183526040600020805460ff8116610c4e575b5050336000526009810183526040600020805460ff8116610c2d575b50505015610bdf57005b6084906040519062461bcd60e51b82526004820152602160248201527f596f752068617665206e6f7420766f746564206f6e2074686973207265706f726044820152601d60fa1b6064820152fd5b6003935060ff1916905501610c428154611233565b90556001828080610bd5565b9091925060ff1916905560028101610c668154611233565b90556001908380610bb9565b60405162461bcd60e51b815260048101839052602560248201527f43616e6e6f74206368616e676520766f7465206f6e207265736f6c7665642072604482015264195c1bdc9d60da1b6064820152608490fd5b610cdc9150843d86116102985761028a8183611071565b8461013d565b346100e9576020806003193601126100e95760043560005260028152604060002060018060a01b038281600484015416610d1d811515611157565b3314918215610ddb575b505015610d86576007019081549060ff8216610d49575060ff19166001179055005b6064906040519062461bcd60e51b82526004820152601660248201527514995c1bdc9d08185b1c9958591e481c995b5bdd995960521b6044820152fd5b60405162461bcd60e51b815260048101839052602760248201527f4f6e6c792063726561746f72206f722061646d696e2063616e2072656d6f7665604482015266081c995c1bdc9d60ca1b6064820152608490fd5b600054604051630935e01b60e21b8152336004820152935083916024918391165afa90811561029f57600091610e14575b508284610d27565b610e2b9150833d85116102985761028a8183611071565b83610e0c565b346100e95760003660031901126100e9576020600154604051908152f35b346100e9576020806003193601126100e9576000546040516301fd3f7760e71b81523360048201526001600160a01b03929182908290602490829087165afa801561029f57610ea591600091610f7157506110ab565b6004356000526002815260406000209160048301918254918216610eca811515611157565b60ff8360a01c1615610f33573303610eef5760ff60a01b198216835560006006850155005b6064906040519062461bcd60e51b82526004820152601e60248201527f4f6e6c792063726561746f722063616e2072656f70656e207265706f727400006044820152fd5b60405162461bcd60e51b815260048101839052601660248201527514995c1bdc9d081a5cc81b9bdd081c995cdbdb1d995960521b6044820152606490fd5b610cdc9150833d85116102985761028a8183611071565b346100e95760403660031901126100e9576024356001600160a01b03818116918290036100e9576040916004356000526002602052610fd283600020926004840154161515611157565b60005260088101602052600960ff836000205416910160205260ff8260002054168251911515825215156020820152f35b9181601f840112156100e95782359167ffffffffffffffff83116100e957602083818601950101116100e957565b919082519283825260005b84811061105d575050826000602080949584010152601f8019910116010190565b60208183018101518483018201520161103c565b90601f8019910116810190811067ffffffffffffffff8211176109a757604052565b908160209103126100e9575180151581036100e95790565b156110b257565b60405162461bcd60e51b8152602060048201526013602482015272155cd95c881b9bdd08185d5d1a1bdc9a5e9959606a1b6044820152606490fd5b600019811461032b5760010190565b90600182811c9216801561112c575b602083101461111657565b634e487b7160e01b600052602260045260246000fd5b91607f169161110b565b908060209392818452848401376000828201840152601f01601f1916010190565b1561115e57565b60405162461bcd60e51b815260206004820152601560248201527414995c1bdc9d08191bd95cc81b9bdd08195e1a5cdd605a1b6044820152606490fd5b156111a257565b60405162461bcd60e51b815260206004820152601e60248201527f43616e6e6f7420766f7465206f6e207265736f6c766564207265706f727400006044820152606490fd5b156111ee57565b60405162461bcd60e51b815260206004820152601e60248201527f43616e6e6f7420766f7465206f6e20796f7572206f776e207265706f727400006044820152606490fd5b801561032b576000190190565b9060405191826000825492611254846110fc565b9081845260019485811690816000146112c35750600114611280575b505061127e92500383611071565b565b9093915060005260209081600020936000915b8183106112ab57505061127e93508201013880611270565b85548884018501529485019487945091830191611293565b91505061127e94506020925060ff191682840152151560051b820101388061127056fea26469706673582212209c02a608ca8eae33a6aca4accb88e247d3ae132cd1cce20ddeac5c30c816e70c64736f6c63430008140033",
  "linkReferences": {},
  "deployedLinkReferences": {}
}