{
  "_format": "hh-sol-artifact-1",
  "contractName": "Reports",
  "sourceName": "contracts/report/reports.sol",
  "abi": [
    {
      "inputs": [
        {
          "internalType": "address",
          "name": "_authRegistry",
          "type": "address"
        }
      ],
      "stateMutability": "nonpayable",
      "type": "constructor"
    },
    {
      "anonymous": false,
      "inputs": [
        {
          "indexed": true,
          "internalType": "uint256",
          "name": "reportId",
          "type": "uint256"
        },
        {
          "indexed": true,
          "internalType": "address",
          "name": "assignedTo",
          "type": "address"
        }
      ],
      "name": "ReportAssigned",
      "type": "event"
    },
    {
      "anonymous": false,
      "inputs": [
        {
          "indexed": true,
          "internalType": "uint256",
          "name": "reportId",
          "type": "uint256"
        },
        {
          "indexed": true,
          "internalType": "address",
          "name": "creator",
          "type": "address"
        },
        {
          "indexed": false,
          "internalType": "string",
          "name": "titleCid",
          "type": "string"
        },
        {
          "indexed": false,
          "internalType": "string",
          "name": "descriptionCid",
          "type": "string"
        },
        {
          "indexed": false,
          "internalType": "string",
          "name": "evidenceHashCid",
          "type": "string"
        }
      ],
      "name": "ReportCreated",
      "type": "event"
    },
    {
      "anonymous": false,
      "inputs": [
        {
          "indexed": true,
          "internalType": "uint256",
          "name": "reportId",
          "type": "uint256"
        },
        {
          "indexed": true,
          "internalType": "address",
          "name": "voter",
          "type": "address"
        }
      ],
      "name": "ReportDownvoted",
      "type": "event"
    },
    {
      "anonymous": false,
      "inputs": [
        {
          "indexed": true,
          "internalType": "uint256",
          "name": "reportId",
          "type": "uint256"
        },
        {
          "indexed": true,
          "internalType": "address",
          "name": "resolver",
          "type": "address"
        },
        {
          "indexed": false,
          "internalType": "uint256",
          "name": "resolvedAt",
          "type": "uint256"
        }
      ],
      "name": "ReportResolved",
      "type": "event"
    },
    {
      "anonymous": false,
      "inputs": [
        {
          "indexed": true,
          "internalType": "uint256",
          "name": "reportId",
          "type": "uint256"
        },
        {
          "indexed": true,
          "internalType": "address",
          "name": "voter",
          "type": "address"
        }
      ],
      "name": "ReportUpvoted",
      "type": "event"
    },
    {
      "inputs": [
        {
          "internalType": "uint256",
          "name": "reportId",
          "type": "uint256"
        },
        {
          "internalType": "address",
          "name": "assignTo",
          "type": "address"
        }
      ],
      "name": "assignReport",
      "outputs": [],
      "stateMutability": "nonpayable",
      "type": "function"
    },
    {
      "inputs": [],
      "name": "authRegistry",
      "outputs": [
        {
          "internalType": "contract IAuthRegistry",
          "name": "",
          "type": "address"
        }
      ],
      "stateMutability": "view",
      "type": "function"
    },
    {
      "inputs": [
        {
          "internalType": "string",
          "name": "titleCid",
          "type": "string"
        },
        {
          "internalType": "string",
          "name": "descriptionCid",
          "type": "string"
        },
        {
          "internalType": "string",
          "name": "evidenceHashCid",
          "type": "string"
        }
      ],
      "name": "createReport",
      "outputs": [
        {
          "internalType": "uint256",
          "name": "",
          "type": "uint256"
        }
      ],
      "stateMutability": "nonpayable",
      "type": "function"
    },
    {
      "inputs": [
        {
          "internalType": "uint256",
          "name": "reportId",
          "type": "uint256"
        }
      ],
      "name": "downvoteReport",
      "outputs": [],
      "stateMutability": "nonpayable",
      "type": "function"
    },
    {
      "inputs": [
        {
          "internalType": "uint256",
          "name": "reportId",
          "type": "uint256"
        }
      ],
      "name": "getReport",
      "outputs": [
        {
          "internalType": "string",
          "name": "titleCid",
          "type": "string"
        },
        {
          "internalType": "string",
          "name": "descriptionCid",
          "type": "string"
        },
        {
          "internalType": "string",
          "name": "evidenceHashCid",
          "type": "string"
        },
        {
          "internalType": "uint256",
          "name": "upvotes",
          "type": "uint256"
        },
        {
          "internalType": "uint256",
          "name": "downvotes",
          "type": "uint256"
        },
        {
          "internalType": "address",
          "name": "creator",
          "type": "address"
        },
        {
          "internalType": "bool",
          "name": "resolved",
          "type": "bool"
        },
        {
          "internalType": "address",
          "name": "assignedTo",
          "type": "address"
        },
        {
          "internalType": "uint256",
          "name": "createdAt",
          "type": "uint256"
        },
        {
          "internalType": "uint256",
          "name": "resolvedAt",
          "type": "uint256"
        }
      ],
      "stateMutability": "view",
      "type": "function"
    },
    {
      "inputs": [
        {
          "internalType": "uint256",
          "name": "reportId",
          "type": "uint256"
        }
      ],
      "name": "getReportVotes",
      "outputs": [
        {
          "internalType": "uint256",
          "name": "upvotes",
          "type": "uint256"
        },
        {
          "internalType": "uint256",
          "name": "downvotes",
          "type": "uint256"
        },
        {
          "internalType": "int256",
          "name": "netVotes",
          "type": "int256"
        },
        {
          "internalType": "uint256",
          "name": "totalVotes",
          "type": "uint256"
        }
      ],
      "stateMutability": "view",
      "type": "function"
    },
    {
      "inputs": [
        {
          "internalType": "address",
          "name": "user",
          "type": "address"
        }
      ],
      "name": "getReportsAssignedTo",
      "outputs": [
        {
          "internalType": "uint256[]",
          "name": "reportIds",
          "type": "uint256[]"
        }
      ],
      "stateMutability": "view",
      "type": "function"
    },
    {
      "inputs": [
        {
          "internalType": "address",
          "name": "user",
          "type": "address"
        }
      ],
      "name": "getReportsByUser",
      "outputs": [
        {
          "internalType": "uint256[]",
          "name": "reportIds",
          "type": "uint256[]"
        }
      ],
      "stateMutability": "view",
      "type": "function"
    },
    {
      "inputs": [
        {
          "internalType": "uint256",
          "name": "reportId",
          "type": "uint256"
        },
        {
          "internalType": "address",
          "name": "user",
          "type": "address"
        }
      ],
      "name": "getUserVote",
      "outputs": [
        {
          "internalType": "bool",
          "name": "hasUpvoted",
          "type": "bool"
        },
        {
          "internalType": "bool",
          "name": "hasDownvoted",
          "type": "bool"
        }
      ],
      "stateMutability": "view",
      "type": "function"
    },
    {
      "inputs": [
        {
          "internalType": "address",
          "name": "",
          "type": "address"
        }
      ],
      "name": "lastCreatedAt",
      "outputs": [
        {
          "internalType": "uint256",
          "name": "",
          "type": "uint256"
        }
      ],
      "stateMutability": "view",
      "type": "function"
    },
    {
      "inputs": [
        {
          "internalType": "uint256",
          "name": "reportId",
          "type": "uint256"
        }
      ],
      "name": "removeVote",
      "outputs": [],
      "stateMutability": "nonpayable",
      "type": "function"
    },
    {
      "inputs": [
        {
          "internalType": "uint256",
          "name": "reportId",
          "type": "uint256"
        }
      ],
      "name": "reopenReport",
      "outputs": [],
      "stateMutability": "nonpayable",
      "type": "function"
    },
    {
      "inputs": [],
      "name": "reportCount",
      "outputs": [
        {
          "internalType": "uint256",
          "name": "",
          "type": "uint256"
        }
      ],
      "stateMutability": "view",
      "type": "function"
    },
    {
      "inputs": [
        {
          "internalType": "uint256",
          "name": "reportId",
          "type": "uint256"
        }
      ],
      "name": "resolveReport",
      "outputs": [],
      "stateMutability": "nonpayable",
      "type": "function"
    },
    {
      "inputs": [
        {
          "internalType": "uint256",
          "name": "reportId",
          "type": "uint256"
        }
      ],
      "name": "upvoteReport",
      "outputs": [],
      "stateMutability": "nonpayable",
      "type": "function"
    }
  ],
  "bytecode": "0x60806040523480156200001157600080fd5b5060405162003d3838038062003d3883398181016040528101906200003791906200015a565b600073ffffffffffffffffffffffffffffffffffffffff168173ffffffffffffffffffffffffffffffffffffffff1603620000a9576040517f08c379a0000000000000000000000000000000000000000000000000000000008152600401620000a09062000213565b60405180910390fd5b806000806101000a81548173ffffffffffffffffffffffffffffffffffffffff021916908373ffffffffffffffffffffffffffffffffffffffff1602179055505062000235565b600080fd5b600073ffffffffffffffffffffffffffffffffffffffff82169050919050565b60006200012282620000f5565b9050919050565b620001348162000115565b81146200014057600080fd5b50565b600081519050620001548162000129565b92915050565b600060208284031215620001735762000172620000f0565b5b6000620001838482850162000143565b91505092915050565b600082825260208201905092915050565b7f4175746820726567697374727920616464726573732063616e6e6f742062652060008201527f7a65726f00000000000000000000000000000000000000000000000000000000602082015250565b6000620001fb6024836200018c565b915062000208826200019d565b604082019050919050565b600060208201905081810360008301526200022e81620001ec565b9050919050565b613af380620002456000396000f3fe608060405234801561001057600080fd5b50600436106100f55760003560e01c80634e7f9b191161009757806372862d5f1161006657806372862d5f1461028c578063893fbece146102bf578063b1dc5e30146102ef578063b94afa711461030b576100f5565b80634e7f9b19146101fd5780634efdde4a14610236578063629e025a146102525780636dfa5e6114610270576100f5565b8063185c6f84116100d3578063185c6f841461017757806328178153146101955780633f68fde4146101c55780634a3b64cf146101e1576100f5565b806303c7881a146100fa578063143c809e1461012b578063162578e914610147575b600080fd5b610114600480360381019061010f919061270c565b61033b565b604051610122929190612767565b60405180910390f35b61014560048036038101906101409190612790565b610492565b005b610161600480360381019061015c91906127bd565b610723565b60405161016e91906128a8565b60405180910390f35b61017f6108dc565b60405161018c91906128d9565b60405180910390f35b6101af60048036038101906101aa91906127bd565b6108e2565b6040516101bc91906128a8565b60405180910390f35b6101df60048036038101906101da9190612790565b610ac9565b005b6101fb60048036038101906101f6919061270c565b610e7f565b005b61021760048036038101906102129190612790565b611228565b60405161022d9a99989796959493929190612993565b60405180910390f35b610250600480360381019061024b9190612790565b611523565b005b61025a61199e565b6040516102679190612aa3565b60405180910390f35b61028a60048036038101906102859190612790565b6119c2565b005b6102a660048036038101906102a19190612790565b611d16565b6040516102b69493929190612ad7565b60405180910390f35b6102d960048036038101906102d49190612b81565b611df8565b6040516102e691906128d9565b60405180910390f35b61030960048036038101906103049190612790565b6121db565b005b610325600480360381019061032091906127bd565b612656565b60405161033291906128d9565b60405180910390f35b6000806000600260008681526020019081526020016000209050600073ffffffffffffffffffffffffffffffffffffffff168160050160009054906101000a900473ffffffffffffffffffffffffffffffffffffffff1673ffffffffffffffffffffffffffffffffffffffff16036103e8576040517f08c379a00000000000000000000000000000000000000000000000000000000081526004016103df90612c81565b60405180910390fd5b8060090160008573ffffffffffffffffffffffffffffffffffffffff1673ffffffffffffffffffffffffffffffffffffffff16815260200190815260200160002060009054906101000a900460ff1681600a0160008673ffffffffffffffffffffffffffffffffffffffff1673ffffffffffffffffffffffffffffffffffffffff16815260200190815260200160002060009054906101000a900460ff1692509250509250929050565b60008054906101000a900473ffffffffffffffffffffffffffffffffffffffff1673ffffffffffffffffffffffffffffffffffffffff1663fe9fbb80336040518263ffffffff1660e01b81526004016104eb9190612ca1565b602060405180830381865afa158015610508573d6000803e3d6000fd5b505050506040513d601f19601f8201168201806040525081019061052c9190612ce8565b61056b576040517f08c379a000000000000000000000000000000000000000000000000000000000815260040161056290612d61565b60405180910390fd5b6000600260008381526020019081526020016000209050600073ffffffffffffffffffffffffffffffffffffffff168160050160009054906101000a900473ffffffffffffffffffffffffffffffffffffffff1673ffffffffffffffffffffffffffffffffffffffff1603610615576040517f08c379a000000000000000000000000000000000000000000000000000000000815260040161060c90612c81565b60405180910390fd5b8060050160149054906101000a900460ff16610666576040517f08c379a000000000000000000000000000000000000000000000000000000000815260040161065d90612dcd565b60405180910390fd5b8060050160009054906101000a900473ffffffffffffffffffffffffffffffffffffffff1673ffffffffffffffffffffffffffffffffffffffff163373ffffffffffffffffffffffffffffffffffffffff16146106f8576040517f08c379a00000000000000000000000000000000000000000000000000000000081526004016106ef90612e39565b60405180910390fd5b60008160050160146101000a81548160ff021916908315150217905550600081600801819055505050565b6060600060015467ffffffffffffffff81111561074357610742612e59565b5b6040519080825280602002602001820160405280156107715781602001602082028036833780820191505090505b509050600080600190505b6001548111610830578473ffffffffffffffffffffffffffffffffffffffff166002600083815260200190815260200160002060050160009054906101000a900473ffffffffffffffffffffffffffffffffffffffff1673ffffffffffffffffffffffffffffffffffffffff160361081d578083838151811061080257610801612e88565b5b602002602001018181525050818061081990612ee6565b9250505b808061082890612ee6565b91505061077c565b508067ffffffffffffffff81111561084b5761084a612e59565b5b6040519080825280602002602001820160405280156108795781602001602082028036833780820191505090505b50925060005b818110156108d45782818151811061089a57610899612e88565b5b60200260200101518482815181106108b5576108b4612e88565b5b60200260200101818152505080806108cc90612ee6565b91505061087f565b505050919050565b60015481565b6060600060015467ffffffffffffffff81111561090257610901612e59565b5b6040519080825280602002602001820160405280156109305781602001602082028036833780820191505090505b509050600080600190505b6001548111610a1d578473ffffffffffffffffffffffffffffffffffffffff166002600083815260200190815260200160002060060160009054906101000a900473ffffffffffffffffffffffffffffffffffffffff1673ffffffffffffffffffffffffffffffffffffffff161480156109d657506002600082815260200190815260200160002060050160149054906101000a900460ff16155b15610a0a57808383815181106109ef576109ee612e88565b5b6020026020010181815250508180610a0690612ee6565b9250505b8080610a1590612ee6565b91505061093b565b508067ffffffffffffffff811115610a3857610a37612e59565b5b604051908082528060200260200182016040528015610a665781602001602082028036833780820191505090505b50925060005b81811015610ac157828181518110610a8757610a86612e88565b5b6020026020010151848281518110610aa257610aa1612e88565b5b6020026020010181815250508080610ab990612ee6565b915050610a6c565b505050919050565b60008054906101000a900473ffffffffffffffffffffffffffffffffffffffff1673ffffffffffffffffffffffffffffffffffffffff1663fe9fbb80336040518263ffffffff1660e01b8152600401610b229190612ca1565b602060405180830381865afa158015610b3f573d6000803e3d6000fd5b505050506040513d601f19601f82011682018060405250810190610b639190612ce8565b610ba2576040517f08c379a0000000000000000000000000000000000000000000000000000000008152600401610b9990612d61565b60405180910390fd5b6000600260008381526020019081526020016000209050600073ffffffffffffffffffffffffffffffffffffffff168160050160009054906101000a900473ffffffffffffffffffffffffffffffffffffffff1673ffffffffffffffffffffffffffffffffffffffff1603610c4c576040517f08c379a0000000000000000000000000000000000000000000000000000000008152600401610c4390612c81565b60405180910390fd5b8060050160149054906101000a900460ff1615610c9e576040517f08c379a0000000000000000000000000000000000000000000000000000000008152600401610c9590612fa0565b60405180910390fd5b60008160090160003373ffffffffffffffffffffffffffffffffffffffff1673ffffffffffffffffffffffffffffffffffffffff16815260200190815260200160002060009054906101000a900460ff1615610d6d5760008260090160003373ffffffffffffffffffffffffffffffffffffffff1673ffffffffffffffffffffffffffffffffffffffff16815260200190815260200160002060006101000a81548160ff021916908315150217905550816003016000815480929190610d6390612fc0565b9190505550600190505b81600a0160003373ffffffffffffffffffffffffffffffffffffffff1673ffffffffffffffffffffffffffffffffffffffff16815260200190815260200160002060009054906101000a900460ff1615610e3a57600082600a0160003373ffffffffffffffffffffffffffffffffffffffff1673ffffffffffffffffffffffffffffffffffffffff16815260200190815260200160002060006101000a81548160ff021916908315150217905550816004016000815480929190610e3090612fc0565b9190505550600190505b80610e7a576040517f08c379a0000000000000000000000000000000000000000000000000000000008152600401610e719061305b565b60405180910390fd5b505050565b60008054906101000a900473ffffffffffffffffffffffffffffffffffffffff1673ffffffffffffffffffffffffffffffffffffffff1663fe9fbb80336040518263ffffffff1660e01b8152600401610ed89190612ca1565b602060405180830381865afa158015610ef5573d6000803e3d6000fd5b505050506040513d601f19601f82011682018060405250810190610f199190612ce8565b610f58576040517f08c379a0000000000000000000000000000000000000000000000000000000008152600401610f4f90612d61565b60405180910390fd5b6000600260008481526020019081526020016000209050600073ffffffffffffffffffffffffffffffffffffffff168160050160009054906101000a900473ffffffffffffffffffffffffffffffffffffffff1673ffffffffffffffffffffffffffffffffffffffff1603611002576040517f08c379a0000000000000000000000000000000000000000000000000000000008152600401610ff990612c81565b60405180910390fd5b8060050160149054906101000a900460ff1615611054576040517f08c379a000000000000000000000000000000000000000000000000000000000815260040161104b906130c7565b60405180910390fd5b600073ffffffffffffffffffffffffffffffffffffffff168273ffffffffffffffffffffffffffffffffffffffff16036110c3576040517f08c379a00000000000000000000000000000000000000000000000000000000081526004016110ba90613133565b60405180910390fd5b60008054906101000a900473ffffffffffffffffffffffffffffffffffffffff1673ffffffffffffffffffffffffffffffffffffffff1663fe9fbb80836040518263ffffffff1660e01b815260040161111c9190612ca1565b602060405180830381865afa158015611139573d6000803e3d6000fd5b505050506040513d601f19601f8201168201806040525081019061115d9190612ce8565b61119c576040517f08c379a0000000000000000000000000000000000000000000000000000000008152600401611193906131c5565b60405180910390fd5b818160060160006101000a81548173ffffffffffffffffffffffffffffffffffffffff021916908373ffffffffffffffffffffffffffffffffffffffff1602179055508173ffffffffffffffffffffffffffffffffffffffff16837f7714396770b81a9cc866b004a57bfb821e91ddb4851df34b4511d751a6dc421e60405160405180910390a3505050565b6060806060600080600080600080600080600260008d81526020019081526020016000209050600073ffffffffffffffffffffffffffffffffffffffff168160050160009054906101000a900473ffffffffffffffffffffffffffffffffffffffff1673ffffffffffffffffffffffffffffffffffffffff16036112e1576040517f08c379a00000000000000000000000000000000000000000000000000000000081526004016112d890612c81565b60405180910390fd5b806000018160010182600201836003015484600401548560050160009054906101000a900473ffffffffffffffffffffffffffffffffffffffff168660050160149054906101000a900460ff168760060160009054906101000a900473ffffffffffffffffffffffffffffffffffffffff168860070154896008015489805461136990613214565b80601f016020809104026020016040519081016040528092919081815260200182805461139590613214565b80156113e25780601f106113b7576101008083540402835291602001916113e2565b820191906000526020600020905b8154815290600101906020018083116113c557829003601f168201915b505050505099508880546113f590613214565b80601f016020809104026020016040519081016040528092919081815260200182805461142190613214565b801561146e5780601f106114435761010080835404028352916020019161146e565b820191906000526020600020905b81548152906001019060200180831161145157829003601f168201915b5050505050985087805461148190613214565b80601f01602080910402602001604051908101604052809291908181526020018280546114ad90613214565b80156114fa5780601f106114cf576101008083540402835291602001916114fa565b820191906000526020600020905b8154815290600101906020018083116114dd57829003601f168201915b505050505097509a509a509a509a509a509a509a509a509a509a50509193959799509193959799565b60008054906101000a900473ffffffffffffffffffffffffffffffffffffffff1673ffffffffffffffffffffffffffffffffffffffff1663fe9fbb80336040518263ffffffff1660e01b815260040161157c9190612ca1565b602060405180830381865afa158015611599573d6000803e3d6000fd5b505050506040513d601f19601f820116820180604052508101906115bd9190612ce8565b6115fc576040517f08c379a00000000000000000000000000000000000000000000000000000000081526004016115f390612d61565b60405180910390fd5b6000600260008381526020019081526020016000209050600073ffffffffffffffffffffffffffffffffffffffff168160050160009054906101000a900473ffffffffffffffffffffffffffffffffffffffff1673ffffffffffffffffffffffffffffffffffffffff16036116a6576040517f08c379a000000000000000000000000000000000000000000000000000000000815260040161169d90612c81565b60405180910390fd5b8060050160149054906101000a900460ff16156116f8576040517f08c379a00000000000000000000000000000000000000000000000000000000081526004016116ef90613291565b60405180910390fd5b80600a0160003373ffffffffffffffffffffffffffffffffffffffff1673ffffffffffffffffffffffffffffffffffffffff16815260200190815260200160002060009054906101000a900460ff1615611787576040517f08c379a000000000000000000000000000000000000000000000000000000000815260040161177e90613323565b60405180910390fd5b3373ffffffffffffffffffffffffffffffffffffffff168160050160009054906101000a900473ffffffffffffffffffffffffffffffffffffffff1673ffffffffffffffffffffffffffffffffffffffff1603611819576040517f08c379a00000000000000000000000000000000000000000000000000000000081526004016118109061338f565b60405180910390fd5b8060090160003373ffffffffffffffffffffffffffffffffffffffff1673ffffffffffffffffffffffffffffffffffffffff16815260200190815260200160002060009054906101000a900460ff16156118e25760008160090160003373ffffffffffffffffffffffffffffffffffffffff1673ffffffffffffffffffffffffffffffffffffffff16815260200190815260200160002060006101000a81548160ff0219169083151502179055508060030160008154809291906118dc90612fc0565b91905055505b600181600a0160003373ffffffffffffffffffffffffffffffffffffffff1673ffffffffffffffffffffffffffffffffffffffff16815260200190815260200160002060006101000a81548160ff02191690831515021790555080600401600081548092919061195190612ee6565b91905055503373ffffffffffffffffffffffffffffffffffffffff16827fda742fa539d7c91231e20ddddc16f7a4ac31d0ab74c1d06b84118e320db5718b60405160405180910390a35050565b60008054906101000a900473ffffffffffffffffffffffffffffffffffffffff1681565b60008054906101000a900473ffffffffffffffffffffffffffffffffffffffff1673ffffffffffffffffffffffffffffffffffffffff1663fe9fbb80336040518263ffffffff1660e01b8152600401611a1b9190612ca1565b602060405180830381865afa158015611a38573d6000803e3d6000fd5b505050506040513d601f19601f82011682018060405250810190611a5c9190612ce8565b611a9b576040517f08c379a0000000000000000000000000000000000000000000000000000000008152600401611a9290612d61565b60405180910390fd5b8060006002600083815260200190815260200160002090508060050160009054906101000a900473ffffffffffffffffffffffffffffffffffffffff1673ffffffffffffffffffffffffffffffffffffffff163373ffffffffffffffffffffffffffffffffffffffff161480611b6057508060060160009054906101000a900473ffffffffffffffffffffffffffffffffffffffff1673ffffffffffffffffffffffffffffffffffffffff163373ffffffffffffffffffffffffffffffffffffffff16145b611b9f576040517f08c379a0000000000000000000000000000000000000000000000000000000008152600401611b9690613421565b60405180910390fd5b6000600260008581526020019081526020016000209050600073ffffffffffffffffffffffffffffffffffffffff168160050160009054906101000a900473ffffffffffffffffffffffffffffffffffffffff1673ffffffffffffffffffffffffffffffffffffffff1603611c49576040517f08c379a0000000000000000000000000000000000000000000000000000000008152600401611c4090612c81565b60405180910390fd5b8060050160149054906101000a900460ff1615611c9b576040517f08c379a0000000000000000000000000000000000000000000000000000000008152600401611c929061348d565b60405180910390fd5b60018160050160146101000a81548160ff0219169083151502179055504281600801819055503373ffffffffffffffffffffffffffffffffffffffff16847f914c345a830273245961b499776c4807af476e566aae53d84e12b6d93c2a6ceb42604051611d0891906128d9565b60405180910390a350505050565b6000806000806000600260008781526020019081526020016000209050600073ffffffffffffffffffffffffffffffffffffffff168160050160009054906101000a900473ffffffffffffffffffffffffffffffffffffffff1673ffffffffffffffffffffffffffffffffffffffff1603611dc6576040517f08c379a0000000000000000000000000000000000000000000000000000000008152600401611dbd90612c81565b60405180910390fd5b80600301549450806004015493508385611de091906134ad565b92508385611dee91906134f0565b9150509193509193565b60008060009054906101000a900473ffffffffffffffffffffffffffffffffffffffff1673ffffffffffffffffffffffffffffffffffffffff1663fe9fbb80336040518263ffffffff1660e01b8152600401611e549190612ca1565b602060405180830381865afa158015611e71573d6000803e3d6000fd5b505050506040513d601f19601f82011682018060405250810190611e959190612ce8565b611ed4576040517f08c379a0000000000000000000000000000000000000000000000000000000008152600401611ecb90612d61565b60405180910390fd5b62015180600360003373ffffffffffffffffffffffffffffffffffffffff1673ffffffffffffffffffffffffffffffffffffffff16815260200190815260200160002054611f2291906134f0565b421015611f64576040517f08c379a0000000000000000000000000000000000000000000000000000000008152600401611f5b90613596565b60405180910390fd5b60008787905011611faa576040517f08c379a0000000000000000000000000000000000000000000000000000000008152600401611fa190613602565b60405180910390fd5b60008585905011611ff0576040517f08c379a0000000000000000000000000000000000000000000000000000000008152600401611fe79061366e565b60405180910390fd5b60008383905011612036576040517f08c379a000000000000000000000000000000000000000000000000000000000815260040161202d90613700565b60405180910390fd5b6001600081548092919061204990612ee6565b9190505550600060015490506000600260008381526020019081526020016000209050888882600001918261207f9291906138cd565b5086868260010191826120939291906138cd565b5084848260020191826120a79291906138cd565b50338160050160006101000a81548173ffffffffffffffffffffffffffffffffffffffff021916908373ffffffffffffffffffffffffffffffffffffffff16021790555060008160050160146101000a81548160ff02191690831515021790555060008160030181905550600081600401819055504281600701819055506000816008018190555042600360003373ffffffffffffffffffffffffffffffffffffffff1673ffffffffffffffffffffffffffffffffffffffff168152602001908152602001600020819055503373ffffffffffffffffffffffffffffffffffffffff16827f82ce8ee5f4467c33c8ab38db7646aecad7889e301a2b1df8e4369f63437188e78b8b8b8b8b8b6040516121c4969594939291906139d9565b60405180910390a381925050509695505050505050565b60008054906101000a900473ffffffffffffffffffffffffffffffffffffffff1673ffffffffffffffffffffffffffffffffffffffff1663fe9fbb80336040518263ffffffff1660e01b81526004016122349190612ca1565b602060405180830381865afa158015612251573d6000803e3d6000fd5b505050506040513d601f19601f820116820180604052508101906122759190612ce8565b6122b4576040517f08c379a00000000000000000000000000000000000000000000000000000000081526004016122ab90612d61565b60405180910390fd5b6000600260008381526020019081526020016000209050600073ffffffffffffffffffffffffffffffffffffffff168160050160009054906101000a900473ffffffffffffffffffffffffffffffffffffffff1673ffffffffffffffffffffffffffffffffffffffff160361235e576040517f08c379a000000000000000000000000000000000000000000000000000000000815260040161235590612c81565b60405180910390fd5b8060050160149054906101000a900460ff16156123b0576040517f08c379a00000000000000000000000000000000000000000000000000000000081526004016123a790613291565b60405180910390fd5b8060090160003373ffffffffffffffffffffffffffffffffffffffff1673ffffffffffffffffffffffffffffffffffffffff16815260200190815260200160002060009054906101000a900460ff161561243f576040517f08c379a000000000000000000000000000000000000000000000000000000000815260040161243690613a9d565b60405180910390fd5b3373ffffffffffffffffffffffffffffffffffffffff168160050160009054906101000a900473ffffffffffffffffffffffffffffffffffffffff1673ffffffffffffffffffffffffffffffffffffffff16036124d1576040517f08c379a00000000000000000000000000000000000000000000000000000000081526004016124c89061338f565b60405180910390fd5b80600a0160003373ffffffffffffffffffffffffffffffffffffffff1673ffffffffffffffffffffffffffffffffffffffff16815260200190815260200160002060009054906101000a900460ff161561259a57600081600a0160003373ffffffffffffffffffffffffffffffffffffffff1673ffffffffffffffffffffffffffffffffffffffff16815260200190815260200160002060006101000a81548160ff02191690831515021790555080600401600081548092919061259490612fc0565b91905055505b60018160090160003373ffffffffffffffffffffffffffffffffffffffff1673ffffffffffffffffffffffffffffffffffffffff16815260200190815260200160002060006101000a81548160ff02191690831515021790555080600301600081548092919061260990612ee6565b91905055503373ffffffffffffffffffffffffffffffffffffffff16827faefa2723d1ab23a3d2bc1ed36a09aa9751210267d47050cd52f216086320c2bf60405160405180910390a35050565b60036020528060005260406000206000915090505481565b600080fd5b600080fd5b6000819050919050565b61268b81612678565b811461269657600080fd5b50565b6000813590506126a881612682565b92915050565b600073ffffffffffffffffffffffffffffffffffffffff82169050919050565b60006126d9826126ae565b9050919050565b6126e9816126ce565b81146126f457600080fd5b50565b600081359050612706816126e0565b92915050565b600080604083850312156127235761272261266e565b5b600061273185828601612699565b9250506020612742858286016126f7565b9150509250929050565b60008115159050919050565b6127618161274c565b82525050565b600060408201905061277c6000830185612758565b6127896020830184612758565b9392505050565b6000602082840312156127a6576127a561266e565b5b60006127b484828501612699565b91505092915050565b6000602082840312156127d3576127d261266e565b5b60006127e1848285016126f7565b91505092915050565b600081519050919050565b600082825260208201905092915050565b6000819050602082019050919050565b61281f81612678565b82525050565b60006128318383612816565b60208301905092915050565b6000602082019050919050565b6000612855826127ea565b61285f81856127f5565b935061286a83612806565b8060005b8381101561289b5781516128828882612825565b975061288d8361283d565b92505060018101905061286e565b5085935050505092915050565b600060208201905081810360008301526128c2818461284a565b905092915050565b6128d381612678565b82525050565b60006020820190506128ee60008301846128ca565b92915050565b600081519050919050565b600082825260208201905092915050565b60005b8381101561292e578082015181840152602081019050612913565b60008484015250505050565b6000601f19601f8301169050919050565b6000612956826128f4565b61296081856128ff565b9350612970818560208601612910565b6129798161293a565b840191505092915050565b61298d816126ce565b82525050565b60006101408201905081810360008301526129ae818d61294b565b905081810360208301526129c2818c61294b565b905081810360408301526129d6818b61294b565b90506129e5606083018a6128ca565b6129f260808301896128ca565b6129ff60a0830188612984565b612a0c60c0830187612758565b612a1960e0830186612984565b612a276101008301856128ca565b612a356101208301846128ca565b9b9a5050505050505050505050565b6000819050919050565b6000612a69612a64612a5f846126ae565b612a44565b6126ae565b9050919050565b6000612a7b82612a4e565b9050919050565b6000612a8d82612a70565b9050919050565b612a9d81612a82565b82525050565b6000602082019050612ab86000830184612a94565b92915050565b6000819050919050565b612ad181612abe565b82525050565b6000608082019050612aec60008301876128ca565b612af960208301866128ca565b612b066040830185612ac8565b612b1360608301846128ca565b95945050505050565b600080fd5b600080fd5b600080fd5b60008083601f840112612b4157612b40612b1c565b5b8235905067ffffffffffffffff811115612b5e57612b5d612b21565b5b602083019150836001820283011115612b7a57612b79612b26565b5b9250929050565b60008060008060008060608789031215612b9e57612b9d61266e565b5b600087013567ffffffffffffffff811115612bbc57612bbb612673565b5b612bc889828a01612b2b565b9650965050602087013567ffffffffffffffff811115612beb57612bea612673565b5b612bf789828a01612b2b565b9450945050604087013567ffffffffffffffff811115612c1a57612c19612673565b5b612c2689828a01612b2b565b92509250509295509295509295565b7f5265706f727420646f6573206e6f742065786973740000000000000000000000600082015250565b6000612c6b6015836128ff565b9150612c7682612c35565b602082019050919050565b60006020820190508181036000830152612c9a81612c5e565b9050919050565b6000602082019050612cb66000830184612984565b92915050565b612cc58161274c565b8114612cd057600080fd5b50565b600081519050612ce281612cbc565b92915050565b600060208284031215612cfe57612cfd61266e565b5b6000612d0c84828501612cd3565b91505092915050565b7f55736572206e6f7420617574686f72697a656400000000000000000000000000600082015250565b6000612d4b6013836128ff565b9150612d5682612d15565b602082019050919050565b60006020820190508181036000830152612d7a81612d3e565b9050919050565b7f5265706f7274206973206e6f74207265736f6c76656400000000000000000000600082015250565b6000612db76016836128ff565b9150612dc282612d81565b602082019050919050565b60006020820190508181036000830152612de681612daa565b9050919050565b7f4f6e6c792063726561746f722063616e2072656f70656e207265706f72740000600082015250565b6000612e23601e836128ff565b9150612e2e82612ded565b602082019050919050565b60006020820190508181036000830152612e5281612e16565b9050919050565b7f4e487b7100000000000000000000000000000000000000000000000000000000600052604160045260246000fd5b7f4e487b7100000000000000000000000000000000000000000000000000000000600052603260045260246000fd5b7f4e487b7100000000000000000000000000000000000000000000000000000000600052601160045260246000fd5b6000612ef182612678565b91507fffffffffffffffffffffffffffffffffffffffffffffffffffffffffffffffff8203612f2357612f22612eb7565b5b600182019050919050565b7f43616e6e6f74206368616e676520766f7465206f6e207265736f6c766564207260008201527f65706f7274000000000000000000000000000000000000000000000000000000602082015250565b6000612f8a6025836128ff565b9150612f9582612f2e565b604082019050919050565b60006020820190508181036000830152612fb981612f7d565b9050919050565b6000612fcb82612678565b915060008203612fde57612fdd612eb7565b5b600182039050919050565b7f596f752068617665206e6f7420766f746564206f6e2074686973207265706f7260008201527f7400000000000000000000000000000000000000000000000000000000000000602082015250565b60006130456021836128ff565b915061305082612fe9565b604082019050919050565b6000602082019050818103600083015261307481613038565b9050919050565b7f43616e6e6f742061737369676e207265736f6c766564207265706f7274000000600082015250565b60006130b1601d836128ff565b91506130bc8261307b565b602082019050919050565b600060208201905081810360008301526130e0816130a4565b9050919050565b7f43616e6e6f742061737369676e20746f207a65726f2061646472657373000000600082015250565b600061311d601d836128ff565b9150613128826130e7565b602082019050919050565b6000602082019050818103600083015261314c81613110565b9050919050565b7f41737369676e656420706572736f6e206d75737420626520617574686f72697a60008201527f6564000000000000000000000000000000000000000000000000000000000000602082015250565b60006131af6022836128ff565b91506131ba82613153565b604082019050919050565b600060208201905081810360008301526131de816131a2565b9050919050565b7f4e487b7100000000000000000000000000000000000000000000000000000000600052602260045260246000fd5b6000600282049050600182168061322c57607f821691505b60208210810361323f5761323e6131e5565b5b50919050565b7f43616e6e6f7420766f7465206f6e207265736f6c766564207265706f72740000600082015250565b600061327b601e836128ff565b915061328682613245565b602082019050919050565b600060208201905081810360008301526132aa8161326e565b9050919050565b7f596f75206861766520616c726561647920646f776e766f74656420746869732060008201527f7265706f72740000000000000000000000000000000000000000000000000000602082015250565b600061330d6026836128ff565b9150613318826132b1565b604082019050919050565b6000602082019050818103600083015261333c81613300565b9050919050565b7f43616e6e6f7420766f7465206f6e20796f7572206f776e207265706f72740000600082015250565b6000613379601e836128ff565b915061338482613343565b602082019050919050565b600060208201905081810360008301526133a88161336c565b9050919050565b7f4f6e6c792063726561746f72206f722061737369676e656420706572736f6e2060008201527f63616e207265736f6c7665000000000000000000000000000000000000000000602082015250565b600061340b602b836128ff565b9150613416826133af565b604082019050919050565b6000602082019050818103600083015261343a816133fe565b9050919050565b7f5265706f727420616c7265616479207265736f6c766564000000000000000000600082015250565b60006134776017836128ff565b915061348282613441565b602082019050919050565b600060208201905081810360008301526134a68161346a565b9050919050565b60006134b882612abe565b91506134c383612abe565b92508282039050818112600084121682821360008512151617156134ea576134e9612eb7565b5b92915050565b60006134fb82612678565b915061350683612678565b925082820190508082111561351e5761351d612eb7565b5b92915050565b7f596f752063616e206f6e6c7920637265617465206f6e65207265706f7274207060008201527f6572206461790000000000000000000000000000000000000000000000000000602082015250565b60006135806026836128ff565b915061358b82613524565b604082019050919050565b600060208201905081810360008301526135af81613573565b9050919050565b7f5469746c65204349442063616e6e6f7420626520656d70747900000000000000600082015250565b60006135ec6019836128ff565b91506135f7826135b6565b602082019050919050565b6000602082019050818103600083015261361b816135df565b9050919050565b7f4465736372697074696f6e204349442063616e6e6f7420626520656d70747900600082015250565b6000613658601f836128ff565b915061366382613622565b602082019050919050565b600060208201905081810360008301526136878161364b565b9050919050565b7f45766964656e63652068617368204349442063616e6e6f7420626520656d707460008201527f7900000000000000000000000000000000000000000000000000000000000000602082015250565b60006136ea6021836128ff565b91506136f58261368e565b604082019050919050565b60006020820190508181036000830152613719816136dd565b9050919050565b600082905092915050565b60008190508160005260206000209050919050565b60006020601f8301049050919050565b600082821b905092915050565b60006008830261378d7fffffffffffffffffffffffffffffffffffffffffffffffffffffffffffffffff82613750565b6137978683613750565b95508019841693508086168417925050509392505050565b60006137ca6137c56137c084612678565b612a44565b612678565b9050919050565b6000819050919050565b6137e4836137af565b6137f86137f0826137d1565b84845461375d565b825550505050565b600090565b61380d613800565b6138188184846137db565b505050565b5b8181101561383c57613831600082613805565b60018101905061381e565b5050565b601f821115613881576138528161372b565b61385b84613740565b8101602085101561386a578190505b61387e61387685613740565b83018261381d565b50505b505050565b600082821c905092915050565b60006138a460001984600802613886565b1980831691505092915050565b60006138bd8383613893565b9150826002028217905092915050565b6138d78383613720565b67ffffffffffffffff8111156138f0576138ef612e59565b5b6138fa8254613214565b613905828285613840565b6000601f8311600181146139345760008415613922578287013590505b61392c85826138b1565b865550613994565b601f1984166139428661372b565b60005b8281101561396a57848901358255600182019150602085019450602081019050613945565b868310156139875784890135613983601f891682613893565b8355505b6001600288020188555050505b50505050505050565b82818337600083830152505050565b60006139b883856128ff565b93506139c583858461399d565b6139ce8361293a565b840190509392505050565b600060608201905081810360008301526139f481888a6139ac565b90508181036020830152613a098186886139ac565b90508181036040830152613a1e8184866139ac565b9050979650505050505050565b7f596f75206861766520616c7265616479207570766f746564207468697320726560008201527f706f727400000000000000000000000000000000000000000000000000000000602082015250565b6000613a876024836128ff565b9150613a9282613a2b565b604082019050919050565b60006020820190508181036000830152613ab681613a7a565b905091905056fea2646970667358221220312372aa297e7b1767c0b1d8f76f7e1821984010e855fc193c7278eeb7e4a02064736f6c63430008140033",
  "linkReferences": {},
  "deployedLinkReferences": {}
}