{
  "_format": "hh-sol-artifact-1",
  "contractName": "Reports",
  "sourceName": "contracts/report/reports.sol",
  "abi": [
    {
      "inputs": [
        {
          "internalType": "address",
          "name": "_authRegistry",
          "type": "address"
        }
      ],
      "stateMutability": "nonpayable",
      "type": "constructor"
    },
    {
      "anonymous": false,
      "inputs": [
        {
          "indexed": true,
          "internalType": "uint256",
          "name": "reportId",
          "type": "uint256"
        },
        {
          "indexed": true,
          "internalType": "address",
          "name": "assignedTo",
          "type": "address"
        }
      ],
      "name": "ReportAssigned",
      "type": "event"
    },
    {
      "anonymous": false,
      "inputs": [
        {
          "indexed": true,
          "internalType": "uint256",
          "name": "reportId",
          "type": "uint256"
        },
        {
          "indexed": true,
          "internalType": "address",
          "name": "creator",
          "type": "address"
        },
        {
          "indexed": false,
          "internalType": "string",
          "name": "titleCid",
          "type": "string"
        },
        {
          "indexed": false,
          "internalType": "string",
          "name": "descriptionCid",
          "type": "string"
        },
        {
          "indexed": false,
          "internalType": "string",
          "name": "evidenceHashCid",
          "type": "string"
        }
      ],
      "name": "ReportCreated",
      "type": "event"
    },
    {
      "anonymous": false,
      "inputs": [
        {
          "indexed": true,
          "internalType": "uint256",
          "name": "reportId",
          "type": "uint256"
        },
        {
          "indexed": true,
          "internalType": "address",
          "name": "voter",
          "type": "address"
        }
      ],
      "name": "ReportDownvoted",
      "type": "event"
    },
    {
      "anonymous": false,
      "inputs": [
        {
          "indexed": true,
          "internalType": "uint256",
          "name": "reportId",
          "type": "uint256"
        },
        {
          "indexed": true,
          "internalType": "address",
          "name": "resolver",
          "type": "address"
        },
        {
          "indexed": false,
          "internalType": "uint256",
          "name": "resolvedAt",
          "type": "uint256"
        }
      ],
      "name": "ReportResolved",
      "type": "event"
    },
    {
      "anonymous": false,
      "inputs": [
        {
          "indexed": true,
          "internalType": "uint256",
          "name": "reportId",
          "type": "uint256"
        },
        {
          "indexed": true,
          "internalType": "address",
          "name": "voter",
          "type": "address"
        }
      ],
      "name": "ReportUpvoted",
      "type": "event"
    },
    {
      "inputs": [
        {
          "internalType": "uint256",
          "name": "reportId",
          "type": "uint256"
        },
        {
          "internalType": "address",
          "name": "assignTo",
          "type": "address"
        }
      ],
      "name": "assignReport",
      "outputs": [],
      "stateMutability": "nonpayable",
      "type": "function"
    },
    {
      "inputs": [],
      "name": "authRegistry",
      "outputs": [
        {
          "internalType": "contract IAuthRegistry",
          "name": "",
          "type": "address"
        }
      ],
      "stateMutability": "view",
      "type": "function"
    },
    {
      "inputs": [
        {
          "internalType": "string",
          "name": "titleCid",
          "type": "string"
        },
        {
          "internalType": "string",
          "name": "descriptionCid",
          "type": "string"
        },
        {
          "internalType": "string",
          "name": "evidenceHashCid",
          "type": "string"
        }
      ],
      "name": "createReport",
      "outputs": [
        {
          "internalType": "uint256",
          "name": "",
          "type": "uint256"
        }
      ],
      "stateMutability": "nonpayable",
      "type": "function"
    },
    {
      "inputs": [
        {
          "internalType": "uint256",
          "name": "reportId",
          "type": "uint256"
        }
      ],
      "name": "downvoteReport",
      "outputs": [],
      "stateMutability": "nonpayable",
      "type": "function"
    },
    {
      "inputs": [
        {
          "internalType": "uint256",
          "name": "reportId",
          "type": "uint256"
        }
      ],
      "name": "getReport",
      "outputs": [
        {
          "internalType": "string",
          "name": "titleCid",
          "type": "string"
        },
        {
          "internalType": "string",
          "name": "descriptionCid",
          "type": "string"
        },
        {
          "internalType": "string",
          "name": "evidenceHashCid",
          "type": "string"
        },
        {
          "internalType": "uint256",
          "name": "upvotes",
          "type": "uint256"
        },
        {
          "internalType": "uint256",
          "name": "downvotes",
          "type": "uint256"
        },
        {
          "internalType": "address",
          "name": "creator",
          "type": "address"
        },
        {
          "internalType": "bool",
          "name": "resolved",
          "type": "bool"
        },
        {
          "internalType": "address",
          "name": "assignedTo",
          "type": "address"
        },
        {
          "internalType": "uint256",
          "name": "createdAt",
          "type": "uint256"
        },
        {
          "internalType": "uint256",
          "name": "resolvedAt",
          "type": "uint256"
        }
      ],
      "stateMutability": "view",
      "type": "function"
    },
    {
      "inputs": [
        {
          "internalType": "uint256",
          "name": "reportId",
          "type": "uint256"
        }
      ],
      "name": "getReportVotes",
      "outputs": [
        {
          "internalType": "uint256",
          "name": "upvotes",
          "type": "uint256"
        },
        {
          "internalType": "uint256",
          "name": "downvotes",
          "type": "uint256"
        },
        {
          "internalType": "int256",
          "name": "netVotes",
          "type": "int256"
        },
        {
          "internalType": "uint256",
          "name": "totalVotes",
          "type": "uint256"
        }
      ],
      "stateMutability": "view",
      "type": "function"
    },
    {
      "inputs": [
        {
          "internalType": "address",
          "name": "user",
          "type": "address"
        }
      ],
      "name": "getReportsAssignedTo",
      "outputs": [
        {
          "internalType": "uint256[]",
          "name": "reportIds",
          "type": "uint256[]"
        }
      ],
      "stateMutability": "view",
      "type": "function"
    },
    {
      "inputs": [
        {
          "internalType": "address",
          "name": "user",
          "type": "address"
        }
      ],
      "name": "getReportsByUser",
      "outputs": [
        {
          "internalType": "uint256[]",
          "name": "reportIds",
          "type": "uint256[]"
        }
      ],
      "stateMutability": "view",
      "type": "function"
    },
    {
      "inputs": [
        {
          "internalType": "uint256",
          "name": "reportId",
          "type": "uint256"
        },
        {
          "internalType": "address",
          "name": "user",
          "type": "address"
        }
      ],
      "name": "getUserVote",
      "outputs": [
        {
          "internalType": "bool",
          "name": "hasUpvoted",
          "type": "bool"
        },
        {
          "internalType": "bool",
          "name": "hasDownvoted",
          "type": "bool"
        }
      ],
      "stateMutability": "view",
      "type": "function"
    },
    {
      "inputs": [
        {
          "internalType": "address",
          "name": "",
          "type": "address"
        }
      ],
      "name": "lastCreatedAt",
      "outputs": [
        {
          "internalType": "uint256",
          "name": "",
          "type": "uint256"
        }
      ],
      "stateMutability": "view",
      "type": "function"
    },
    {
      "inputs": [
        {
          "internalType": "uint256",
          "name": "reportId",
          "type": "uint256"
        }
      ],
      "name": "removeVote",
      "outputs": [],
      "stateMutability": "nonpayable",
      "type": "function"
    },
    {
      "inputs": [
        {
          "internalType": "uint256",
          "name": "reportId",
          "type": "uint256"
        }
      ],
      "name": "reopenReport",
      "outputs": [],
      "stateMutability": "nonpayable",
      "type": "function"
    },
    {
      "inputs": [],
      "name": "reportCount",
      "outputs": [
        {
          "internalType": "uint256",
          "name": "",
          "type": "uint256"
        }
      ],
      "stateMutability": "view",
      "type": "function"
    },
    {
      "inputs": [
        {
          "internalType": "uint256",
          "name": "reportId",
          "type": "uint256"
        }
      ],
      "name": "resolveReport",
      "outputs": [],
      "stateMutability": "nonpayable",
      "type": "function"
    },
    {
      "inputs": [
        {
          "internalType": "uint256",
          "name": "reportId",
          "type": "uint256"
        }
      ],
      "name": "upvoteReport",
      "outputs": [],
      "stateMutability": "nonpayable",
      "type": "function"
    }
  ],
  "bytecode": "0x6080346100cb57601f611a2a38819003918201601f19168301916001600160401b038311848410176100d0578084926020946040528339810103126100cb57516001600160a01b038116908190036100cb57801561007a57600080546001600160a01b03191691909117905560405161194390816100e78239f35b60405162461bcd60e51b8152602060048201526024808201527f4175746820726567697374727920616464726573732063616e6e6f74206265206044820152637a65726f60e01b6064820152608490fd5b600080fd5b634e487b7160e01b600052604160045260246000fdfe6080604052600436101561001257600080fd5b60003560e01c806303c7881a146114d9578063143c809e146113a0578063162578e9146112e5578063185c6f84146112c757806328178153146111da5780633f68fde4146110135780634a3b64cf14610e0a5780634e7f9b1914610d215780634efdde4a14610ba5578063629e025a14610b7c5780636dfa5e61146109e057806372862d5f1461095d578063893fbece146102bd578063b1dc5e30146101005763b94afa71146100c157600080fd5b346100fb5760203660031901126100fb576001600160a01b036100e2611565565b1660005260036020526020604060002054604051908152f35b600080fd5b346100fb576020806003193601126100fb5760043560018060a01b036024838260005416604051928380926301fd3f7760e71b82523360048301525afa80156102b15761015591600091610284575b5061165e565b816000526002835260406000209061018660ff60058401549283169261017c84151561170a565b60a01c161561174e565b60098201903360005281855260ff6040600020541661023357936101af6003949533141561179a565b33600052600a830181526040600020805460ff8116610216575b505033600052526040600020600160ff19825416179055016101eb81546116a0565b905533907faefa2723d1ab23a3d2bc1ed36a09aa9751210267d47050cd52f216086320c2bf600080a3005b60ff191690556004830161022a81546117e6565b905585806101c9565b60405162461bcd60e51b8152600481018690526024808201527f596f75206861766520616c7265616479207570766f74656420746869732072656044820152631c1bdc9d60e21b6064820152608490fd5b6102a49150853d87116102aa575b61029c8183611624565b810190611646565b8561014f565b503d610292565b6040513d6000823e3d90fd5b346100fb5760603660031901126100fb5760043567ffffffffffffffff81116100fb576102ee9036906004016115f6565b60243567ffffffffffffffff81116100fb5761030e9036906004016115f6565b60449291923567ffffffffffffffff81116100fb576103319036906004016115f6565b6000546040516301fd3f7760e71b815233600482015292949290602090829060249082906001600160a01b03165afa80156102b1576103779160009161093e575061165e565b3360005260036020526040600020546201518081018091116109285742106108d457811561088f57821561084a5780156107fb576103b66001546116a0565b948560015585600052600260205260406000209367ffffffffffffffff841161066f576103e385546116af565b601f81116107b7575b50836000601f821160011461075057600091610745575b508460011b906000198660031b1c19161785555b67ffffffffffffffff811161066f5761043360018601546116af565b601f81116106fe575b50806000601f821160011461069057600091610685575b508160011b906000198360031b1c19161760018601555b67ffffffffffffffff831161066f5761048660028601546116af565b601f8111610628575b509186939160209893600096601f8411600114610584579161055e9160006008869561056e977f82ce8ee5f4467c33c8ab38db7646aecad7889e301a2b1df8e4369f63437188e79b9c8491610579575b508760011b9084198960031b1c19161760028201555b60058101805460ff60a01b193316906affffffffffffffffffffff60a81b1617905582600382015582600482015542600782015501553360005260038c52426040600020556105516040519788976060895260608901916116e9565b918683038d8801526116e9565b90838203604085015233976116e9565b0390a3604051908152f35b90508d0135386104df565b8897600282016000528b6000209060005b601f198716811061060c5750600886959361055e95937f82ce8ee5f4467c33c8ab38db7646aecad7889e301a2b1df8e4369f63437188e79b9c60009461056e9a601f198116106105f3575b505050600187811b0160028201556104f5565b851960f88b60031b161c199101351690558f8d816105e0565b9981013582558a998c9950600190920191908d01908d01610595565b600286016000526020600020601f850160051c810160208610610668575b601f830160051c8201811061065c57505061048f565b60008155600101610646565b5080610646565b634e487b7160e01b600052604160045260246000fd5b905082013589610453565b90506001860160005260206000209060005b601f19841681106106e6575082601f198116106106cc575b5050600181811b01600186015561046a565b830135600019600384901b60f8161c1916905588806106ba565b909160206001819285880135815501930191016106a2565b600186016000526020600020601f830160051c81016020841061073e575b601f830160051c8201811061073257505061043c565b6000815560010161071c565b508061071c565b905088013589610403565b60008781526020812092505b8a601f198816821061079f57505085601f19811610610785575b5050600184811b018555610417565b890135600019600387901b60f8161c191690558880610776565b6001839460209394849301358155019301910161075c565b856000526020600020601f860160051c8101602087106107f4575b601f830160051c820181106107e85750506103ec565b600081556001016107d2565b50806107d2565b60405162461bcd60e51b815260206004820152602160248201527f45766964656e63652068617368204349442063616e6e6f7420626520656d70746044820152607960f81b6064820152608490fd5b60405162461bcd60e51b815260206004820152601f60248201527f4465736372697074696f6e204349442063616e6e6f7420626520656d707479006044820152606490fd5b60405162461bcd60e51b815260206004820152601960248201527f5469746c65204349442063616e6e6f7420626520656d707479000000000000006044820152606490fd5b60405162461bcd60e51b815260206004820152602660248201527f596f752063616e206f6e6c7920637265617465206f6e65207265706f7274207060448201526565722064617960d01b6064820152608490fd5b634e487b7160e01b600052601160045260246000fd5b610957915060203d6020116102aa5761029c8183611624565b8861014f565b346100fb5760203660031901126100fb5760043560009081526002602052604090206005810154610998906001600160a01b0316151561170a565b60046003820154910154908181036000831282821281169083831390151617610928578282019081831161092857608093604051938452602084015260408301526060820152f35b346100fb576020806003193601126100fb5760043560018060a01b036024838260005416604051928380926301fd3f7760e71b82523360048301525afa80156102b157610a3491600091610284575061165e565b8160005260028352604060002081806005830154163314918215610b6b575b505015610b125781600052600283526040600020906005820190610a7c8254918216151561170a565b60ff8160a01c16610acd5760ff60a01b1916600160a01b1790554260089190910181905560405190815233927f914c345a830273245961b499776c4807af476e566aae53d84e12b6d93c2a6ceb91a3005b60405162461bcd60e51b815260048101869052601760248201527f5265706f727420616c7265616479207265736f6c7665640000000000000000006044820152606490fd5b60405162461bcd60e51b815260048101849052602b60248201527f4f6e6c792063726561746f72206f722061737369676e656420706572736f6e2060448201526a63616e207265736f6c766560a81b6064820152608490fd5b600691925001541633148185610a53565b346100fb5760003660031901126100fb576000546040516001600160a01b039091168152602090f35b346100fb576020806003193601126100fb5760043560018060a01b036024838260005416604051928380926301fd3f7760e71b82523360048301525afa80156102b157610bf991600091610284575061165e565b8160005260028352604060002090610c2060ff60058401549283169261017c84151561170a565b600a8201903360005281855260ff60406000205416610ccd5793610c496004949533141561179a565b336000526009830181526040600020805460ff8116610cb0575b505033600052526040600020600160ff1982541617905501610c8581546116a0565b905533907fda742fa539d7c91231e20ddddc16f7a4ac31d0ab74c1d06b84118e320db5718b600080a3005b60ff1916905560038301610cc481546117e6565b90558580610c63565b60405162461bcd60e51b815260048101869052602660248201527f596f75206861766520616c726561647920646f776e766f7465642074686973206044820152651c995c1bdc9d60d21b6064820152608490fd5b346100fb5760203660031901126100fb576004356000526002602052610dbe6040600020600581015460018060a01b03808216610d5f81151561170a565b60038401549260ff60048601549360068701541691600787015493600888015495610dda610d8c8a6117f3565b99610dcc610da86002610da1600185016117f3565b93016117f3565b916040519d8e9d8e6101409081815201906115b6565b8d810360208f0152906115b6565b908b820360408d01526115b6565b9760608a0152608089015260a088015260a01c16151560c086015260e08501526101008401526101208301520390f35b346100fb5760403660031901126100fb57600435610e2661154f565b6000546040516301fd3f7760e71b8082523360048301529392916020916001600160a01b0391821691908381602481865afa80156102b157610e6f91600091610ffc575061165e565b846000526002835260406000209360ff6005860154610e91848216151561170a565b60a01c16610fb75716948515610f7257829060246040518094819382528960048301525afa9081156102b157600091610f55575b5015610f06575060060180546001600160a01b031916831790557f7714396770b81a9cc866b004a57bfb821e91ddb4851df34b4511d751a6dc421e600080a3005b6084906040519062461bcd60e51b82526004820152602260248201527f41737369676e656420706572736f6e206d75737420626520617574686f72697a604482015261195960f21b6064820152fd5b610f6c9150823d84116102aa5761029c8183611624565b85610ec5565b60405162461bcd60e51b815260048101849052601d60248201527f43616e6e6f742061737369676e20746f207a65726f20616464726573730000006044820152606490fd5b60405162461bcd60e51b815260048101859052601d60248201527f43616e6e6f742061737369676e207265736f6c766564207265706f72740000006044820152606490fd5b6109579150853d87116102aa5761029c8183611624565b346100fb576020806003193601126100fb576000546040516301fd3f7760e71b81523360048201526001600160a01b039183908290602490829086165afa80156102b157611068916000916111bd575061165e565b6004356000526002825260ff60406000209161108c6005840154918216151561170a565b60a01c1661116a57600090336000526009810183526040600020805460ff8116611146575b505033600052600a810183526040600020805460ff8116611125575b505050156110d757005b6084906040519062461bcd60e51b82526004820152602160248201527f596f752068617665206e6f7420766f746564206f6e2074686973207265706f726044820152601d60fa1b6064820152fd5b6004935060ff191690550161113a81546117e6565b905560018280806110cd565b9091925060ff191690556003810161115e81546117e6565b905560019083806110b1565b60405162461bcd60e51b815260048101839052602560248201527f43616e6e6f74206368616e676520766f7465206f6e207265736f6c7665642072604482015264195c1bdc9d60da1b6064820152608490fd5b6111d49150843d86116102aa5761029c8183611624565b8461014f565b346100fb576020806003193601126100fb576111f4611565565b90600154611201816118b1565b926000926001600160a01b039182169060015b84811115611268578686611227816118b1565b9160005b8281106112445760405180611240868261157b565b0390f35b8061125261126392846118e3565b5161125d82876118e3565b526116a0565b61122b565b8060005260028252604060002083856006830154161490816112b4575b50611299575b611294906116a0565b611214565b946112ac818761125d611294948b6118e3565b95905061128b565b60ff91506005015460a01c161588611285565b346100fb5760003660031901126100fb576020600154604051908152f35b346100fb576020806003193601126100fb576112ff611565565b60015461130b816118b1565b926000926001600160a01b039081169160015b8481111561135d578686611331816118b1565b9160005b82811061134a5760405180611240868261157b565b8061125261135892846118e3565b611335565b806000526002825283836005604060002001541614611385575b611380906116a0565b61131e565b94611398818761125d611380948b6118e3565b959050611377565b346100fb576020806003193601126100fb576000546040516301fd3f7760e71b81523360048201526001600160a01b03929182908290602490829087165afa80156102b1576113f6916000916114c2575061165e565b600435600052600281526040600020916005830191825491821661141b81151561170a565b60ff8360a01c16156114845733036114405760ff60a01b198216835560006008850155005b6064906040519062461bcd60e51b82526004820152601e60248201527f4f6e6c792063726561746f722063616e2072656f70656e207265706f727400006044820152fd5b60405162461bcd60e51b815260048101839052601660248201527514995c1bdc9d081a5cc81b9bdd081c995cdbdb1d995960521b6044820152606490fd5b6111d49150833d85116102aa5761029c8183611624565b346100fb5760403660031901126100fb5760406114f461154f565b6004356000526002602052816000209060018060a01b039061151d82600585015416151561170a565b1660005260098101602052600a60ff836000205416910160205260ff8260002054168251911515825215156020820152f35b602435906001600160a01b03821682036100fb57565b600435906001600160a01b03821682036100fb57565b6020908160408183019282815285518094520193019160005b8281106115a2575050505090565b835185529381019392810192600101611594565b919082519283825260005b8481106115e2575050826000602080949584010152601f8019910116010190565b6020818301810151848301820152016115c1565b9181601f840112156100fb5782359167ffffffffffffffff83116100fb57602083818601950101116100fb57565b90601f8019910116810190811067ffffffffffffffff82111761066f57604052565b908160209103126100fb575180151581036100fb5790565b1561166557565b60405162461bcd60e51b8152602060048201526013602482015272155cd95c881b9bdd08185d5d1a1bdc9a5e9959606a1b6044820152606490fd5b60001981146109285760010190565b90600182811c921680156116df575b60208310146116c957565b634e487b7160e01b600052602260045260246000fd5b91607f16916116be565b908060209392818452848401376000828201840152601f01601f1916010190565b1561171157565b60405162461bcd60e51b815260206004820152601560248201527414995c1bdc9d08191bd95cc81b9bdd08195e1a5cdd605a1b6044820152606490fd5b1561175557565b60405162461bcd60e51b815260206004820152601e60248201527f43616e6e6f7420766f7465206f6e207265736f6c766564207265706f727400006044820152606490fd5b156117a157565b60405162461bcd60e51b815260206004820152601e60248201527f43616e6e6f7420766f7465206f6e20796f7572206f776e207265706f727400006044820152606490fd5b8015610928576000190190565b9060405191826000825492611807846116af565b9081845260019485811690816000146118765750600114611833575b505061183192500383611624565b565b9093915060005260209081600020936000915b81831061185e57505061183193508201013880611823565b85548884018501529485019487945091830191611846565b91505061183194506020925060ff191682840152151560051b8201013880611823565b67ffffffffffffffff811161066f5760051b60200190565b906118bb82611899565b6118c86040519182611624565b82815280926118d9601f1991611899565b0190602036910137565b80518210156118f75760209160051b010190565b634e487b7160e01b600052603260045260246000fdfea2646970667358221220bf5a95cca16adf5340fb0066c57660927641d66e1a6f82c6aaefa099768155c764736f6c63430008140033",
  "linkReferences": {},
  "deployedLinkReferences": {}
}