{
  "_format": "hh-sol-artifact-1",
  "contractName": "Reports",
  "sourceName": "contracts/report/reports.sol",
  "abi": [
    {
      "inputs": [
        {
          "internalType": "address",
          "name": "_authRegistry",
          "type": "address"
        }
      ],
      "stateMutability": "nonpayable",
      "type": "constructor"
    },
    {
      "anonymous": false,
      "inputs": [
        {
          "indexed": true,
          "internalType": "uint256",
          "name": "reportId",
          "type": "uint256"
        },
        {
          "indexed": true,
          "internalType": "address",
          "name": "creator",
          "type": "address"
        },
        {
          "indexed": false,
          "internalType": "string",
          "name": "titleCid",
          "type": "string"
        },
        {
          "indexed": false,
          "internalType": "string",
          "name": "descriptionCid",
          "type": "string"
        },
        {
          "indexed": false,
          "internalType": "string",
          "name": "evidenceHashCid",
          "type": "string"
        }
      ],
      "name": "ReportCreated",
      "type": "event"
    },
    {
      "anonymous": false,
      "inputs": [
        {
          "indexed": true,
          "internalType": "uint256",
          "name": "reportId",
          "type": "uint256"
        },
        {
          "indexed": true,
          "internalType": "address",
          "name": "voter",
          "type": "address"
        }
      ],
      "name": "ReportDownvoted",
      "type": "event"
    },
    {
      "anonymous": false,
      "inputs": [
        {
          "indexed": true,
          "internalType": "uint256",
          "name": "reportId",
          "type": "uint256"
        },
        {
          "indexed": true,
          "internalType": "address",
          "name": "resolver",
          "type": "address"
        },
        {
          "indexed": false,
          "internalType": "uint256",
          "name": "resolvedAt",
          "type": "uint256"
        }
      ],
      "name": "ReportResolved",
      "type": "event"
    },
    {
      "anonymous": false,
      "inputs": [
        {
          "indexed": true,
          "internalType": "uint256",
          "name": "reportId",
          "type": "uint256"
        },
        {
          "indexed": true,
          "internalType": "address",
          "name": "voter",
          "type": "address"
        }
      ],
      "name": "ReportUpvoted",
      "type": "event"
    },
    {
      "inputs": [],
      "name": "authRegistry",
      "outputs": [
        {
          "internalType": "contract IAuthRegistry",
          "name": "",
          "type": "address"
        }
      ],
      "stateMutability": "view",
      "type": "function"
    },
    {
      "inputs": [
        {
          "internalType": "string",
          "name": "titleCid",
          "type": "string"
        },
        {
          "internalType": "string",
          "name": "descriptionCid",
          "type": "string"
        },
        {
          "internalType": "string",
          "name": "evidenceHashCid",
          "type": "string"
        }
      ],
      "name": "createReport",
      "outputs": [
        {
          "internalType": "uint256",
          "name": "",
          "type": "uint256"
        }
      ],
      "stateMutability": "nonpayable",
      "type": "function"
    },
    {
      "inputs": [
        {
          "internalType": "uint256",
          "name": "reportId",
          "type": "uint256"
        }
      ],
      "name": "downvoteReport",
      "outputs": [],
      "stateMutability": "nonpayable",
      "type": "function"
    },
    {
      "inputs": [
        {
          "internalType": "uint256",
          "name": "reportId",
          "type": "uint256"
        }
      ],
      "name": "getReport",
      "outputs": [
        {
          "internalType": "string",
          "name": "titleCid",
          "type": "string"
        },
        {
          "internalType": "string",
          "name": "descriptionCid",
          "type": "string"
        },
        {
          "internalType": "string",
          "name": "evidenceHashCid",
          "type": "string"
        },
        {
          "internalType": "uint256",
          "name": "upvotes",
          "type": "uint256"
        },
        {
          "internalType": "uint256",
          "name": "downvotes",
          "type": "uint256"
        },
        {
          "internalType": "address",
          "name": "creator",
          "type": "address"
        },
        {
          "internalType": "bool",
          "name": "resolved",
          "type": "bool"
        },
        {
          "internalType": "uint256",
          "name": "createdAt",
          "type": "uint256"
        },
        {
          "internalType": "uint256",
          "name": "resolvedAt",
          "type": "uint256"
        },
        {
          "internalType": "bool",
          "name": "removed",
          "type": "bool"
        }
      ],
      "stateMutability": "view",
      "type": "function"
    },
    {
      "inputs": [
        {
          "internalType": "uint256",
          "name": "reportId",
          "type": "uint256"
        }
      ],
      "name": "getReportVotes",
      "outputs": [
        {
          "internalType": "uint256",
          "name": "upvotes",
          "type": "uint256"
        },
        {
          "internalType": "uint256",
          "name": "downvotes",
          "type": "uint256"
        },
        {
          "internalType": "int256",
          "name": "netVotes",
          "type": "int256"
        },
        {
          "internalType": "uint256",
          "name": "totalVotes",
          "type": "uint256"
        }
      ],
      "stateMutability": "view",
      "type": "function"
    },
    {
      "inputs": [
        {
          "internalType": "uint256",
          "name": "reportId",
          "type": "uint256"
        },
        {
          "internalType": "address",
          "name": "user",
          "type": "address"
        }
      ],
      "name": "getUserVote",
      "outputs": [
        {
          "internalType": "bool",
          "name": "hasUpvoted",
          "type": "bool"
        },
        {
          "internalType": "bool",
          "name": "hasDownvoted",
          "type": "bool"
        }
      ],
      "stateMutability": "view",
      "type": "function"
    },
    {
      "inputs": [
        {
          "internalType": "address",
          "name": "",
          "type": "address"
        }
      ],
      "name": "lastCreatedAt",
      "outputs": [
        {
          "internalType": "uint256",
          "name": "",
          "type": "uint256"
        }
      ],
      "stateMutability": "view",
      "type": "function"
    },
    {
      "inputs": [
        {
          "internalType": "uint256",
          "name": "reportId",
          "type": "uint256"
        }
      ],
      "name": "removeReport",
      "outputs": [],
      "stateMutability": "nonpayable",
      "type": "function"
    },
    {
      "inputs": [
        {
          "internalType": "uint256",
          "name": "reportId",
          "type": "uint256"
        }
      ],
      "name": "removeVote",
      "outputs": [],
      "stateMutability": "nonpayable",
      "type": "function"
    },
    {
      "inputs": [
        {
          "internalType": "uint256",
          "name": "reportId",
          "type": "uint256"
        }
      ],
      "name": "reopenReport",
      "outputs": [],
      "stateMutability": "nonpayable",
      "type": "function"
    },
    {
      "inputs": [],
      "name": "reportCount",
      "outputs": [
        {
          "internalType": "uint256",
          "name": "",
          "type": "uint256"
        }
      ],
      "stateMutability": "view",
      "type": "function"
    },
    {
      "inputs": [
        {
          "internalType": "uint256",
          "name": "reportId",
          "type": "uint256"
        }
      ],
      "name": "resolveReport",
      "outputs": [],
      "stateMutability": "nonpayable",
      "type": "function"
    },
    {
      "inputs": [
        {
          "internalType": "uint256",
          "name": "reportId",
          "type": "uint256"
        }
      ],
      "name": "upvoteReport",
      "outputs": [],
      "stateMutability": "nonpayable",
      "type": "function"
    }
  ],
  "bytecode": "0x6080346100cb57601f61165338819003918201601f19168301916001600160401b038311848410176100d0578084926020946040528339810103126100cb57516001600160a01b038116908190036100cb57801561007a57600080546001600160a01b03191691909117905560405161156c90816100e78239f35b60405162461bcd60e51b8152602060048201526024808201527f4175746820726567697374727920616464726573732063616e6e6f74206265206044820152637a65726f60e01b6064820152608490fd5b600080fd5b634e487b7160e01b600052604160045260246000fdfe6080604052600436101561001257600080fd5b60003560e01c806303c7881a146111d8578063143c809e1461109f578063185c6f8414611081578063318b5c2a14610f325780633f68fde414610d6b5780634e7f9b1914610c7f5780634efdde4a14610b03578063629e025a14610ada5780636dfa5e61146109ce57806372862d5f1461094b578063893fbece146102ab578063b1dc5e30146100ee5763b94afa71146100ab57600080fd5b346100e95760203660031901126100e9576004356001600160a01b038116908190036100e95760005260036020526020604060002054604051908152f35b600080fd5b346100e9576020806003193601126100e95760043560018060a01b036024838260005416604051928380926301fd3f7760e71b82523360048301525afa801561029f5761014391600091610272575b506112fb565b816000526002835260406000209061017460ff60058401549283169261016a8415156113a7565b60a01c16156113eb565b60098201903360005281855260ff60406000205416610221579361019d60039495331415611437565b33600052600a830181526040600020805460ff8116610204575b505033600052526040600020600160ff19825416179055016101d9815461133d565b905533907faefa2723d1ab23a3d2bc1ed36a09aa9751210267d47050cd52f216086320c2bf600080a3005b60ff19169055600483016102188154611483565b905585806101b7565b60405162461bcd60e51b8152600481018690526024808201527f596f75206861766520616c7265616479207570766f74656420746869732072656044820152631c1bdc9d60e21b6064820152608490fd5b6102929150853d8711610298575b61028a81836112c1565b8101906112e3565b8561013d565b503d610280565b6040513d6000823e3d90fd5b346100e95760603660031901126100e95760043567ffffffffffffffff81116100e9576102dc903690600401611293565b60243567ffffffffffffffff81116100e9576102fc903690600401611293565b60449291923567ffffffffffffffff81116100e95761031f903690600401611293565b6000546040516301fd3f7760e71b815233600482015292949290602090829060249082906001600160a01b03165afa801561029f576103659160009161092c57506112fb565b3360005260036020526040600020546201518081018091116109165742106108c257811561087d5782156108385780156107e9576103a460015461133d565b948560015585600052600260205260406000209367ffffffffffffffff841161065d576103d1855461134c565b601f81116107a5575b50836000601f821160011461073e57600091610733575b508460011b906000198660031b1c19161785555b67ffffffffffffffff811161065d57610421600186015461134c565b601f81116106ec575b50806000601f821160011461067e57600091610673575b508160011b906000198360031b1c19161760018601555b67ffffffffffffffff831161065d57610474600286015461134c565b601f8111610616575b509186939160209893600096601f8411600114610572579161054c9160006007869561055c977f82ce8ee5f4467c33c8ab38db7646aecad7889e301a2b1df8e4369f63437188e79b9c8491610567575b508760011b9084198960031b1c19161760028201555b60058101805460ff60a01b193316906affffffffffffffffffffff60a81b1617905582600382015582600482015542600682015501553360005260038c524260406000205561053f604051978897606089526060890191611386565b918683038d880152611386565b9083820360408501523397611386565b0390a3604051908152f35b90508d0135386104cd565b8897600282016000528b6000209060005b601f19871681106105fa5750600786959361054c95937f82ce8ee5f4467c33c8ab38db7646aecad7889e301a2b1df8e4369f63437188e79b9c60009461055c9a601f198116106105e1575b505050600187811b0160028201556104e3565b851960f88b60031b161c199101351690558f8d816105ce565b9981013582558a998c9950600190920191908d01908d01610583565b600286016000526020600020601f850160051c810160208610610656575b601f830160051c8201811061064a57505061047d565b60008155600101610634565b5080610634565b634e487b7160e01b600052604160045260246000fd5b905082013589610441565b90506001860160005260206000209060005b601f19841681106106d4575082601f198116106106ba575b5050600181811b016001860155610458565b830135600019600384901b60f8161c1916905588806106a8565b90916020600181928588013581550193019101610690565b600186016000526020600020601f830160051c81016020841061072c575b601f830160051c8201811061072057505061042a565b6000815560010161070a565b508061070a565b9050880135896103f1565b60008781526020812092505b8a601f198816821061078d57505085601f19811610610773575b5050600184811b018555610405565b890135600019600387901b60f8161c191690558880610764565b6001839460209394849301358155019301910161074a565b856000526020600020601f860160051c8101602087106107e2575b601f830160051c820181106107d65750506103da565b600081556001016107c0565b50806107c0565b60405162461bcd60e51b815260206004820152602160248201527f45766964656e63652068617368204349442063616e6e6f7420626520656d70746044820152607960f81b6064820152608490fd5b60405162461bcd60e51b815260206004820152601f60248201527f4465736372697074696f6e204349442063616e6e6f7420626520656d707479006044820152606490fd5b60405162461bcd60e51b815260206004820152601960248201527f5469746c65204349442063616e6e6f7420626520656d707479000000000000006044820152606490fd5b60405162461bcd60e51b815260206004820152602660248201527f596f752063616e206f6e6c7920637265617465206f6e65207265706f7274207060448201526565722064617960d01b6064820152608490fd5b634e487b7160e01b600052601160045260246000fd5b610945915060203d6020116102985761028a81836112c1565b8861013d565b346100e95760203660031901126100e95760043560009081526002602052604090206005810154610986906001600160a01b031615156113a7565b60046003820154910154908181036000831282821281169083831390151617610916578282019081831161091657608093604051938452602084015260408301526060820152f35b346100e9576020806003193601126100e95760043560018060a01b036024838260005416604051928380926301fd3f7760e71b82523360048301525afa801561029f57610a229160009161027257506112fb565b81600052600283526040600020906005820190610a44825491821615156113a7565b60ff8160a01c16610a955760ff60a01b1916600160a01b1790554260079190910181905560405190815233927f914c345a830273245961b499776c4807af476e566aae53d84e12b6d93c2a6ceb91a3005b60405162461bcd60e51b815260048101869052601760248201527f5265706f727420616c7265616479207265736f6c7665640000000000000000006044820152606490fd5b346100e95760003660031901126100e9576000546040516001600160a01b039091168152602090f35b346100e9576020806003193601126100e95760043560018060a01b036024838260005416604051928380926301fd3f7760e71b82523360048301525afa801561029f57610b579160009161027257506112fb565b8160005260028352604060002090610b7e60ff60058401549283169261016a8415156113a7565b600a8201903360005281855260ff60406000205416610c2b5793610ba760049495331415611437565b336000526009830181526040600020805460ff8116610c0e575b505033600052526040600020600160ff1982541617905501610be3815461133d565b905533907fda742fa539d7c91231e20ddddc16f7a4ac31d0ab74c1d06b84118e320db5718b600080a3005b60ff1916905560038301610c228154611483565b90558580610bc1565b60405162461bcd60e51b815260048101869052602660248201527f596f75206861766520616c726561647920646f776e766f7465642074686973206044820152651c995c1bdc9d60d21b6064820152608490fd5b346100e95760203660031901126100e9576004356000526002602052610d1d6040600020600581015460018060a01b03811690610cbd8215156113a7565b60038301549160048401549160ff6006860154916007870154938260088901541695610d39610ceb8a611490565b99610d2b610d076002610d0060018501611490565b9301611490565b916040519d8e9d8e610140908181520190611253565b8d810360208f015290611253565b908b820360408d0152611253565b9760608a0152608089015260a088015260a01c16151560c086015260e085015261010084015215156101208301520390f35b346100e9576020806003193601126100e9576000546040516301fd3f7760e71b81523360048201526001600160a01b039183908290602490829086165afa801561029f57610dc091600091610f1557506112fb565b6004356000526002825260ff604060002091610de4600584015491821615156113a7565b60a01c16610ec257600090336000526009810183526040600020805460ff8116610e9e575b505033600052600a810183526040600020805460ff8116610e7d575b50505015610e2f57005b6084906040519062461bcd60e51b82526004820152602160248201527f596f752068617665206e6f7420766f746564206f6e2074686973207265706f726044820152601d60fa1b6064820152fd5b6004935060ff1916905501610e928154611483565b90556001828080610e25565b9091925060ff1916905560038101610eb68154611483565b90556001908380610e09565b60405162461bcd60e51b815260048101839052602560248201527f43616e6e6f74206368616e676520766f7465206f6e207265736f6c7665642072604482015264195c1bdc9d60da1b6064820152608490fd5b610f2c9150843d86116102985761028a81836112c1565b8461013d565b346100e9576020806003193601126100e95760043560005260028152604060002060018060a01b038281600584015416610f6d8115156113a7565b331491821561102b575b505015610fd6576008019081549060ff8216610f99575060ff19166001179055005b6064906040519062461bcd60e51b82526004820152601660248201527514995c1bdc9d08185b1c9958591e481c995b5bdd995960521b6044820152fd5b60405162461bcd60e51b815260048101839052602760248201527f4f6e6c792063726561746f72206f722061646d696e2063616e2072656d6f7665604482015266081c995c1bdc9d60ca1b6064820152608490fd5b600054604051630935e01b60e21b8152336004820152935083916024918391165afa90811561029f57600091611064575b508284610f77565b61107b9150833d85116102985761028a81836112c1565b8361105c565b346100e95760003660031901126100e9576020600154604051908152f35b346100e9576020806003193601126100e9576000546040516301fd3f7760e71b81523360048201526001600160a01b03929182908290602490829087165afa801561029f576110f5916000916111c157506112fb565b600435600052600281526040600020916005830191825491821661111a8115156113a7565b60ff8360a01c161561118357330361113f5760ff60a01b198216835560006007850155005b6064906040519062461bcd60e51b82526004820152601e60248201527f4f6e6c792063726561746f722063616e2072656f70656e207265706f727400006044820152fd5b60405162461bcd60e51b815260048101839052601660248201527514995c1bdc9d081a5cc81b9bdd081c995cdbdb1d995960521b6044820152606490fd5b610f2c9150833d85116102985761028a81836112c1565b346100e95760403660031901126100e9576024356001600160a01b03818116918290036100e9576040916004356000526002602052611222836000209260058401541615156113a7565b60005260098101602052600a60ff836000205416910160205260ff8260002054168251911515825215156020820152f35b919082519283825260005b84811061127f575050826000602080949584010152601f8019910116010190565b60208183018101518483018201520161125e565b9181601f840112156100e95782359167ffffffffffffffff83116100e957602083818601950101116100e957565b90601f8019910116810190811067ffffffffffffffff82111761065d57604052565b908160209103126100e9575180151581036100e95790565b1561130257565b60405162461bcd60e51b8152602060048201526013602482015272155cd95c881b9bdd08185d5d1a1bdc9a5e9959606a1b6044820152606490fd5b60001981146109165760010190565b90600182811c9216801561137c575b602083101461136657565b634e487b7160e01b600052602260045260246000fd5b91607f169161135b565b908060209392818452848401376000828201840152601f01601f1916010190565b156113ae57565b60405162461bcd60e51b815260206004820152601560248201527414995c1bdc9d08191bd95cc81b9bdd08195e1a5cdd605a1b6044820152606490fd5b156113f257565b60405162461bcd60e51b815260206004820152601e60248201527f43616e6e6f7420766f7465206f6e207265736f6c766564207265706f727400006044820152606490fd5b1561143e57565b60405162461bcd60e51b815260206004820152601e60248201527f43616e6e6f7420766f7465206f6e20796f7572206f776e207265706f727400006044820152606490fd5b8015610916576000190190565b90604051918260008254926114a48461134c565b90818452600194858116908160001461151357506001146114d0575b50506114ce925003836112c1565b565b9093915060005260209081600020936000915b8183106114fb5750506114ce935082010138806114c0565b855488840185015294850194879450918301916114e3565b9150506114ce94506020925060ff191682840152151560051b82010138806114c056fea2646970667358221220d5b596897338300507bf044f3af47e8e25795d6423d9578c788a20efb1305ad464736f6c63430008140033",
  "linkReferences": {},
  "deployedLinkReferences": {}
}