{
  "_format": "hh-sol-artifact-1",
  "contractName": "Petitions",
  "sourceName": "contracts/petition/petitions.sol",
  "abi": [
    {
      "inputs": [
        {
          "internalType": "address",
          "name": "_authRegistry",
          "type": "address"
        }
      ],
      "stateMutability": "nonpayable",
      "type": "constructor"
    },
    {
      "anonymous": false,
      "inputs": [
        {
          "indexed": true,
          "internalType": "uint256",
          "name": "petitionId",
          "type": "uint256"
        }
      ],
      "name": "PetitionCompleted",
      "type": "event"
    },
    {
      "anonymous": false,
      "inputs": [
        {
          "indexed": true,
          "internalType": "uint256",
          "name": "petitionId",
          "type": "uint256"
        },
        {
          "indexed": true,
          "internalType": "address",
          "name": "creator",
          "type": "address"
        },
        {
          "indexed": false,
          "internalType": "string",
          "name": "titleCid",
          "type": "string"
        },
        {
          "indexed": false,
          "internalType": "string",
          "name": "desCid",
          "type": "string"
        },
        {
          "indexed": false,
          "internalType": "uint256",
          "name": "signaturesRequired",
          "type": "uint256"
        }
      ],
      "name": "PetitionCreated",
      "type": "event"
    },
    {
      "anonymous": false,
      "inputs": [
        {
          "indexed": true,
          "internalType": "uint256",
          "name": "petitionId",
          "type": "uint256"
        },
        {
          "indexed": true,
          "internalType": "address",
          "name": "signer",
          "type": "address"
        }
      ],
      "name": "PetitionSigned",
      "type": "event"
    },
    {
      "inputs": [],
      "name": "authRegistry",
      "outputs": [
        {
          "internalType": "contract IAuthRegistry",
          "name": "",
          "type": "address"
        }
      ],
      "stateMutability": "view",
      "type": "function"
    },
    {
      "inputs": [
        {
          "internalType": "string",
          "name": "titleCid",
          "type": "string"
        },
        {
          "internalType": "string",
          "name": "desCid",
          "type": "string"
        },
        {
          "internalType": "uint256",
          "name": "signaturesRequired",
          "type": "uint256"
        }
      ],
      "name": "createPetition",
      "outputs": [
        {
          "internalType": "uint256",
          "name": "",
          "type": "uint256"
        }
      ],
      "stateMutability": "nonpayable",
      "type": "function"
    },
    {
      "inputs": [
        {
          "internalType": "uint256",
          "name": "petitionId",
          "type": "uint256"
        }
      ],
      "name": "getPetition",
      "outputs": [
        {
          "internalType": "string",
          "name": "titleCid",
          "type": "string"
        },
        {
          "internalType": "string",
          "name": "desCid",
          "type": "string"
        },
        {
          "internalType": "uint256",
          "name": "signaturesRequired",
          "type": "uint256"
        },
        {
          "internalType": "uint256",
          "name": "signaturesCount",
          "type": "uint256"
        },
        {
          "internalType": "address",
          "name": "creator",
          "type": "address"
        },
        {
          "internalType": "bool",
          "name": "completed",
          "type": "bool"
        }
      ],
      "stateMutability": "view",
      "type": "function"
    },
    {
      "inputs": [
        {
          "internalType": "uint256",
          "name": "petitionId",
          "type": "uint256"
        },
        {
          "internalType": "address",
          "name": "user",
          "type": "address"
        }
      ],
      "name": "hasSigned",
      "outputs": [
        {
          "internalType": "bool",
          "name": "",
          "type": "bool"
        }
      ],
      "stateMutability": "view",
      "type": "function"
    },
    {
      "inputs": [
        {
          "internalType": "address",
          "name": "",
          "type": "address"
        }
      ],
      "name": "lastCreatedAt",
      "outputs": [
        {
          "internalType": "uint256",
          "name": "",
          "type": "uint256"
        }
      ],
      "stateMutability": "view",
      "type": "function"
    },
    {
      "inputs": [],
      "name": "petitionCount",
      "outputs": [
        {
          "internalType": "uint256",
          "name": "",
          "type": "uint256"
        }
      ],
      "stateMutability": "view",
      "type": "function"
    },
    {
      "inputs": [
        {
          "internalType": "uint256",
          "name": "petitionId",
          "type": "uint256"
        }
      ],
      "name": "signPetition",
      "outputs": [],
      "stateMutability": "nonpayable",
      "type": "function"
    }
  ],
  "bytecode": "0x60806040523480156200001157600080fd5b50604051620019f0380380620019f083398181016040528101906200003791906200015a565b600073ffffffffffffffffffffffffffffffffffffffff168173ffffffffffffffffffffffffffffffffffffffff1603620000a9576040517f08c379a0000000000000000000000000000000000000000000000000000000008152600401620000a09062000213565b60405180910390fd5b806000806101000a81548173ffffffffffffffffffffffffffffffffffffffff021916908373ffffffffffffffffffffffffffffffffffffffff1602179055505062000235565b600080fd5b600073ffffffffffffffffffffffffffffffffffffffff82169050919050565b60006200012282620000f5565b9050919050565b620001348162000115565b81146200014057600080fd5b50565b600081519050620001548162000129565b92915050565b600060208284031215620001735762000172620000f0565b5b6000620001838482850162000143565b91505092915050565b600082825260208201905092915050565b7f4175746820726567697374727920616464726573732063616e6e6f742062652060008201527f7a65726f00000000000000000000000000000000000000000000000000000000602082015250565b6000620001fb6024836200018c565b915062000208826200019d565b604082019050919050565b600060208201905081810360008301526200022e81620001ec565b9050919050565b6117ab80620002456000396000f3fe608060405234801561001057600080fd5b506004361061007d5760003560e01c8063709df8d91161005b578063709df8d9146100f3578063990627ec14610123578063b94afa7114610153578063dcad0180146101835761007d565b80630c90ce421461008257806361ab1f09146100b7578063629e025a146100d5575b600080fd5b61009c60048036038101906100979190610bf1565b61019f565b6040516100ae96959493929190610d19565b60405180910390f35b6100bf6103c9565b6040516100cc9190610d88565b60405180910390f35b6100dd6103cf565b6040516100ea9190610e02565b60405180910390f35b61010d60048036038101906101089190610e49565b6103f3565b60405161011a9190610e89565b60405180910390f35b61013d60048036038101906101389190610f09565b6104f6565b60405161014a9190610d88565b60405180910390f35b61016d60048036038101906101689190610f9e565b61081f565b60405161017a9190610d88565b60405180910390f35b61019d60048036038101906101989190610bf1565b610837565b005b6060806000806000806000600260008981526020019081526020016000209050600073ffffffffffffffffffffffffffffffffffffffff168160040160009054906101000a900473ffffffffffffffffffffffffffffffffffffffff1673ffffffffffffffffffffffffffffffffffffffff1603610252576040517f08c379a000000000000000000000000000000000000000000000000000000000815260040161024990611017565b60405180910390fd5b8060000181600101826002015483600301548460040160009054906101000a900473ffffffffffffffffffffffffffffffffffffffff168560040160149054906101000a900460ff168580546102a790611066565b80601f01602080910402602001604051908101604052809291908181526020018280546102d390611066565b80156103205780601f106102f557610100808354040283529160200191610320565b820191906000526020600020905b81548152906001019060200180831161030357829003601f168201915b5050505050955084805461033390611066565b80601f016020809104026020016040519081016040528092919081815260200182805461035f90611066565b80156103ac5780601f10610381576101008083540402835291602001916103ac565b820191906000526020600020905b81548152906001019060200180831161038f57829003601f168201915b505050505094509650965096509650965096505091939550919395565b60015481565b60008054906101000a900473ffffffffffffffffffffffffffffffffffffffff1681565b600080600260008581526020019081526020016000209050600073ffffffffffffffffffffffffffffffffffffffff168160040160009054906101000a900473ffffffffffffffffffffffffffffffffffffffff1673ffffffffffffffffffffffffffffffffffffffff160361049e576040517f08c379a000000000000000000000000000000000000000000000000000000000815260040161049590611017565b60405180910390fd5b8060050160008473ffffffffffffffffffffffffffffffffffffffff1673ffffffffffffffffffffffffffffffffffffffff16815260200190815260200160002060009054906101000a900460ff1691505092915050565b60008060009054906101000a900473ffffffffffffffffffffffffffffffffffffffff1673ffffffffffffffffffffffffffffffffffffffff1663fe9fbb80336040518263ffffffff1660e01b81526004016105529190611097565b602060405180830381865afa15801561056f573d6000803e3d6000fd5b505050506040513d601f19601f8201168201806040525081019061059391906110de565b6105d2576040517f08c379a00000000000000000000000000000000000000000000000000000000081526004016105c990611157565b60405180910390fd5b62093a80600360003373ffffffffffffffffffffffffffffffffffffffff1673ffffffffffffffffffffffffffffffffffffffff1681526020019081526020016000205461062091906111a6565b421015610662576040517f08c379a00000000000000000000000000000000000000000000000000000000081526004016106599061124c565b60405180910390fd5b600082116106a5576040517f08c379a000000000000000000000000000000000000000000000000000000000815260040161069c906112de565b60405180910390fd5b600160008154809291906106b8906112fe565b919050555060006001549050600060026000838152602001908152602001600020905087878260000191826106ee929190611522565b508585826001019182610702929190611522565b50838160020181905550338160040160006101000a81548173ffffffffffffffffffffffffffffffffffffffff021916908373ffffffffffffffffffffffffffffffffffffffff16021790555060008160040160146101000a81548160ff0219169083151502179055506000816003018190555042600360003373ffffffffffffffffffffffffffffffffffffffff1673ffffffffffffffffffffffffffffffffffffffff168152602001908152602001600020819055503373ffffffffffffffffffffffffffffffffffffffff16827f98acdb43185fdb133376bd108d5907728ba783ab8330e33f6f8ae0895c5c78818a8a8a8a8a60405161080995949392919061162e565b60405180910390a3819250505095945050505050565b60036020528060005260406000206000915090505481565b60008054906101000a900473ffffffffffffffffffffffffffffffffffffffff1673ffffffffffffffffffffffffffffffffffffffff1663fe9fbb80336040518263ffffffff1660e01b81526004016108909190611097565b602060405180830381865afa1580156108ad573d6000803e3d6000fd5b505050506040513d601f19601f820116820180604052508101906108d191906110de565b610910576040517f08c379a000000000000000000000000000000000000000000000000000000000815260040161090790611157565b60405180910390fd5b60006002600083815260200190815260200160002090508060040160149054906101000a900460ff1615610979576040517f08c379a0000000000000000000000000000000000000000000000000000000008152600401610970906116c3565b60405180910390fd5b600073ffffffffffffffffffffffffffffffffffffffff168160040160009054906101000a900473ffffffffffffffffffffffffffffffffffffffff1673ffffffffffffffffffffffffffffffffffffffff1603610a0c576040517f08c379a0000000000000000000000000000000000000000000000000000000008152600401610a0390611017565b60405180910390fd5b8060050160003373ffffffffffffffffffffffffffffffffffffffff1673ffffffffffffffffffffffffffffffffffffffff16815260200190815260200160002060009054906101000a900460ff1615610a9b576040517f08c379a0000000000000000000000000000000000000000000000000000000008152600401610a9290611755565b60405180910390fd5b60018160050160003373ffffffffffffffffffffffffffffffffffffffff1673ffffffffffffffffffffffffffffffffffffffff16815260200190815260200160002060006101000a81548160ff021916908315150217905550806003016000815480929190610b0a906112fe565b91905055503373ffffffffffffffffffffffffffffffffffffffff16827fa24773234734fa56d66ce98fb6d0c8e4b38c3ce67e8a0cfa10756d0909ba4ed260405160405180910390a38060020154816003015410610bad5760018160040160146101000a81548160ff021916908315150217905550817f57b2843ccf810ad84ecfebb6a0e6886490e559e0980a3656f8e16ceac99f915260405160405180910390a25b5050565b600080fd5b600080fd5b6000819050919050565b610bce81610bbb565b8114610bd957600080fd5b50565b600081359050610beb81610bc5565b92915050565b600060208284031215610c0757610c06610bb1565b5b6000610c1584828501610bdc565b91505092915050565b600081519050919050565b600082825260208201905092915050565b60005b83811015610c58578082015181840152602081019050610c3d565b60008484015250505050565b6000601f19601f8301169050919050565b6000610c8082610c1e565b610c8a8185610c29565b9350610c9a818560208601610c3a565b610ca381610c64565b840191505092915050565b610cb781610bbb565b82525050565b600073ffffffffffffffffffffffffffffffffffffffff82169050919050565b6000610ce882610cbd565b9050919050565b610cf881610cdd565b82525050565b60008115159050919050565b610d1381610cfe565b82525050565b600060c0820190508181036000830152610d338189610c75565b90508181036020830152610d478188610c75565b9050610d566040830187610cae565b610d636060830186610cae565b610d706080830185610cef565b610d7d60a0830184610d0a565b979650505050505050565b6000602082019050610d9d6000830184610cae565b92915050565b6000819050919050565b6000610dc8610dc3610dbe84610cbd565b610da3565b610cbd565b9050919050565b6000610dda82610dad565b9050919050565b6000610dec82610dcf565b9050919050565b610dfc81610de1565b82525050565b6000602082019050610e176000830184610df3565b92915050565b610e2681610cdd565b8114610e3157600080fd5b50565b600081359050610e4381610e1d565b92915050565b60008060408385031215610e6057610e5f610bb1565b5b6000610e6e85828601610bdc565b9250506020610e7f85828601610e34565b9150509250929050565b6000602082019050610e9e6000830184610d0a565b92915050565b600080fd5b600080fd5b600080fd5b60008083601f840112610ec957610ec8610ea4565b5b8235905067ffffffffffffffff811115610ee657610ee5610ea9565b5b602083019150836001820283011115610f0257610f01610eae565b5b9250929050565b600080600080600060608688031215610f2557610f24610bb1565b5b600086013567ffffffffffffffff811115610f4357610f42610bb6565b5b610f4f88828901610eb3565b9550955050602086013567ffffffffffffffff811115610f7257610f71610bb6565b5b610f7e88828901610eb3565b93509350506040610f9188828901610bdc565b9150509295509295909350565b600060208284031215610fb457610fb3610bb1565b5b6000610fc284828501610e34565b91505092915050565b7f5065746974696f6e20646f6573206e6f74206578697374000000000000000000600082015250565b6000611001601783610c29565b915061100c82610fcb565b602082019050919050565b6000602082019050818103600083015261103081610ff4565b9050919050565b7f4e487b7100000000000000000000000000000000000000000000000000000000600052602260045260246000fd5b6000600282049050600182168061107e57607f821691505b60208210810361109157611090611037565b5b50919050565b60006020820190506110ac6000830184610cef565b92915050565b6110bb81610cfe565b81146110c657600080fd5b50565b6000815190506110d8816110b2565b92915050565b6000602082840312156110f4576110f3610bb1565b5b6000611102848285016110c9565b91505092915050565b7f55736572206e6f7420617574686f72697a656400000000000000000000000000600082015250565b6000611141601383610c29565b915061114c8261110b565b602082019050919050565b6000602082019050818103600083015261117081611134565b9050919050565b7f4e487b7100000000000000000000000000000000000000000000000000000000600052601160045260246000fd5b60006111b182610bbb565b91506111bc83610bbb565b92508282019050808211156111d4576111d3611177565b5b92915050565b7f596f752063616e206f6e6c7920637265617465206f6e65207065746974696f6e60008201527f20706572207765656b0000000000000000000000000000000000000000000000602082015250565b6000611236602983610c29565b9150611241826111da565b604082019050919050565b6000602082019050818103600083015261126581611229565b9050919050565b7f5369676e617475726573207265717569726564206d757374206265206772656160008201527f746572207468616e207a65726f00000000000000000000000000000000000000602082015250565b60006112c8602d83610c29565b91506112d38261126c565b604082019050919050565b600060208201905081810360008301526112f7816112bb565b9050919050565b600061130982610bbb565b91507fffffffffffffffffffffffffffffffffffffffffffffffffffffffffffffffff820361133b5761133a611177565b5b600182019050919050565b600082905092915050565b7f4e487b7100000000000000000000000000000000000000000000000000000000600052604160045260246000fd5b60008190508160005260206000209050919050565b60006020601f8301049050919050565b600082821b905092915050565b6000600883026113e27fffffffffffffffffffffffffffffffffffffffffffffffffffffffffffffffff826113a5565b6113ec86836113a5565b95508019841693508086168417925050509392505050565b600061141f61141a61141584610bbb565b610da3565b610bbb565b9050919050565b6000819050919050565b61143983611404565b61144d61144582611426565b8484546113b2565b825550505050565b600090565b611462611455565b61146d818484611430565b505050565b5b818110156114915761148660008261145a565b600181019050611473565b5050565b601f8211156114d6576114a781611380565b6114b084611395565b810160208510156114bf578190505b6114d36114cb85611395565b830182611472565b50505b505050565b600082821c905092915050565b60006114f9600019846008026114db565b1980831691505092915050565b600061151283836114e8565b9150826002028217905092915050565b61152c8383611346565b67ffffffffffffffff81111561154557611544611351565b5b61154f8254611066565b61155a828285611495565b6000601f8311600181146115895760008415611577578287013590505b6115818582611506565b8655506115e9565b601f19841661159786611380565b60005b828110156115bf5784890135825560018201915060208501945060208101905061159a565b868310156115dc57848901356115d8601f8916826114e8565b8355505b6001600288020188555050505b50505050505050565b82818337600083830152505050565b600061160d8385610c29565b935061161a8385846115f2565b61162383610c64565b840190509392505050565b60006060820190508181036000830152611649818789611601565b9050818103602083015261165e818587611601565b905061166d6040830184610cae565b9695505050505050565b7f5065746974696f6e20616c726561647920636f6d706c65746564000000000000600082015250565b60006116ad601a83610c29565b91506116b882611677565b602082019050919050565b600060208201905081810360008301526116dc816116a0565b9050919050565b7f596f75206861766520616c7265616479207369676e656420746869732070657460008201527f6974696f6e000000000000000000000000000000000000000000000000000000602082015250565b600061173f602583610c29565b915061174a826116e3565b604082019050919050565b6000602082019050818103600083015261176e81611732565b905091905056fea2646970667358221220e5cb28276cadfd14b7285b5267dd138e41b52dc9f58ee533238c3afde4ba22e364736f6c63430008140033",
  "linkReferences": {},
  "deployedLinkReferences": {}
}