{
  "_format": "hh-sol-artifact-1",
  "contractName": "Petitions",
  "sourceName": "contracts/petition/petitions.sol",
  "abi": [
    {
      "inputs": [
        {
          "internalType": "address",
          "name": "_authRegistry",
          "type": "address"
        }
      ],
      "stateMutability": "nonpayable",
      "type": "constructor"
    },
    {
      "anonymous": false,
      "inputs": [
        {
          "indexed": true,
          "internalType": "uint256",
          "name": "petitionId",
          "type": "uint256"
        }
      ],
      "name": "PetitionCompleted",
      "type": "event"
    },
    {
      "anonymous": false,
      "inputs": [
        {
          "indexed": true,
          "internalType": "uint256",
          "name": "petitionId",
          "type": "uint256"
        },
        {
          "indexed": true,
          "internalType": "address",
          "name": "creator",
          "type": "address"
        },
        {
          "indexed": false,
          "internalType": "string",
          "name": "titleCid",
          "type": "string"
        },
        {
          "indexed": false,
          "internalType": "string",
          "name": "desCid",
          "type": "string"
        },
        {
          "indexed": false,
          "internalType": "uint256",
          "name": "signaturesRequired",
          "type": "uint256"
        }
      ],
      "name": "PetitionCreated",
      "type": "event"
    },
    {
      "anonymous": false,
      "inputs": [
        {
          "indexed": true,
          "internalType": "uint256",
          "name": "petitionId",
          "type": "uint256"
        },
        {
          "indexed": true,
          "internalType": "address",
          "name": "signer",
          "type": "address"
        }
      ],
      "name": "PetitionSigned",
      "type": "event"
    },
    {
      "inputs": [],
      "name": "authRegistry",
      "outputs": [
        {
          "internalType": "contract IAuthRegistry",
          "name": "",
          "type": "address"
        }
      ],
      "stateMutability": "view",
      "type": "function"
    },
    {
      "inputs": [
        {
          "internalType": "string",
          "name": "titleCid",
          "type": "string"
        },
        {
          "internalType": "string",
          "name": "desCid",
          "type": "string"
        },
        {
          "internalType": "uint256",
          "name": "signaturesRequired",
          "type": "uint256"
        }
      ],
      "name": "createPetition",
      "outputs": [
        {
          "internalType": "uint256",
          "name": "",
          "type": "uint256"
        }
      ],
      "stateMutability": "nonpayable",
      "type": "function"
    },
    {
      "inputs": [
        {
          "internalType": "uint256",
          "name": "petitionId",
          "type": "uint256"
        }
      ],
      "name": "getPetition",
      "outputs": [
        {
          "internalType": "string",
          "name": "titleCid",
          "type": "string"
        },
        {
          "internalType": "string",
          "name": "desCid",
          "type": "string"
        },
        {
          "internalType": "uint256",
          "name": "signaturesRequired",
          "type": "uint256"
        },
        {
          "internalType": "uint256",
          "name": "signaturesCount",
          "type": "uint256"
        },
        {
          "internalType": "address",
          "name": "creator",
          "type": "address"
        },
        {
          "internalType": "bool",
          "name": "completed",
          "type": "bool"
        }
      ],
      "stateMutability": "view",
      "type": "function"
    },
    {
      "inputs": [
        {
          "internalType": "uint256",
          "name": "petitionId",
          "type": "uint256"
        },
        {
          "internalType": "address",
          "name": "user",
          "type": "address"
        }
      ],
      "name": "hasSigned",
      "outputs": [
        {
          "internalType": "bool",
          "name": "",
          "type": "bool"
        }
      ],
      "stateMutability": "view",
      "type": "function"
    },
    {
      "inputs": [
        {
          "internalType": "address",
          "name": "",
          "type": "address"
        }
      ],
      "name": "lastCreatedAt",
      "outputs": [
        {
          "internalType": "uint256",
          "name": "",
          "type": "uint256"
        }
      ],
      "stateMutability": "view",
      "type": "function"
    },
    {
      "inputs": [],
      "name": "petitionCount",
      "outputs": [
        {
          "internalType": "uint256",
          "name": "",
          "type": "uint256"
        }
      ],
      "stateMutability": "view",
      "type": "function"
    },
    {
      "inputs": [
        {
          "internalType": "uint256",
          "name": "petitionId",
          "type": "uint256"
        }
      ],
      "name": "signPetition",
      "outputs": [],
      "stateMutability": "nonpayable",
      "type": "function"
    }
  ],
  "bytecode": "0x6080346100cb57601f610c2238819003918201601f19168301916001600160401b038311848410176100d0578084926020946040528339810103126100cb57516001600160a01b038116908190036100cb57801561007a57600080546001600160a01b031916919091179055604051610b3b90816100e78239f35b60405162461bcd60e51b8152602060048201526024808201527f4175746820726567697374727920616464726573732063616e6e6f74206265206044820152637a65726f60e01b6064820152608490fd5b600080fd5b634e487b7160e01b600052604160045260246000fdfe6080604052600436101561001257600080fd5b60003560e01c80630c90ce421461081b57806361ab1f09146107fd578063629e025a146107d4578063709df8d91461076d578063990627ec146102aa578063b94afa711461026c5763dcad01801461006957600080fd5b3461026757602080600319360112610267576004359060018060a01b03906024818360005416604051928380926301fd3f7760e71b82523360048301525afa801561025b576100c09160009161022e575b50610967565b82600052600281526040600020906004820192835460ff8160a01c166101e9576100ec91161515610a13565b60058201903360005281815260ff604060002054166101975733600052526040600020600160ff198254161790556002600382019161012b83546109a9565b80935533857fa24773234734fa56d66ce98fb6d0c8e4b38c3ce67e8a0cfa10756d0909ba4ed2600080a30154111561015f57005b805460ff60a01b1916600160a01b1790557f57b2843ccf810ad84ecfebb6a0e6886490e559e0980a3656f8e16ceac99f9152600080a2005b6084906040519062461bcd60e51b82526004820152602560248201527f596f75206861766520616c7265616479207369676e656420746869732070657460448201526434ba34b7b760d91b6064820152fd5b60405162461bcd60e51b815260048101849052601a60248201527f5065746974696f6e20616c726561647920636f6d706c657465640000000000006044820152606490fd5b61024e9150833d8511610254575b610246818361092d565b81019061094f565b386100ba565b503d61023c565b6040513d6000823e3d90fd5b600080fd5b34610267576020366003190112610267576004356001600160a01b038116908190036102675760005260036020526020604060002054604051908152f35b346102675760603660031901126102675760043567ffffffffffffffff8111610267576102db9036906004016108ff565b9060243567ffffffffffffffff8111610267576102fc9036906004016108ff565b6000546040516301fd3f7760e71b815233600482015292949290602090829060249082906001600160a01b03165afa801561025b576103429160009161074e5750610967565b33600052600360205260406000205462093a8081018091116107385742106106e15760443515610686576103776001546109a9565b9283600155836000526002602052604060002067ffffffffffffffff84116105bc576103a381546109b8565b601f8111610642575b50836000601f82116001146105dd576000916105d2575b508460011b906000198660031b1c19161781555b67ffffffffffffffff83116105bc576103f360018201546109b8565b601f8111610575575b50916020959185936000601f84116001146104da577f98acdb43185fdb133376bd108d5907728ba783ab8330e33f6f8ae0895c5c788194926000600386946104b8976104ab9584916104cf575b508660011b90841988851b1c19161760018201555b604435600282015560048101805460ff60a01b193316906affffffffffffffffffffff60a81b1617905501553360005260038a5242604060002055604051976060895260608901916109f2565b91868303898801526109f2565b9260443560408201528033940390a3604051908152f35b90508701358e610449565b60018201600052886000209060005b601f198616811061055b5750926000600386946104ab947f98acdb43185fdb133376bd108d5907728ba783ab8330e33f6f8ae0895c5c788199976104b899601f19811610610544575b5050600186811b01600182015561045e565b880135841988851b60f8161c191690558d80610532565b818701358355899750600190920191908a01908a016104e9565b600182016000526020600020601f850160051c8101602086106105b5575b601f830160051c820181106105a95750506103fc565b60008155600101610593565b5080610593565b634e487b7160e01b600052604160045260246000fd5b9050820135876103c3565b60008381526020812092505b601f198716811061062a575085601f19811610610610575b5050600184811b0181556103d7565b830135600019600387901b60f8161c191690558680610601565b909160206001819285880135815501930191016105e9565b816000526020600020601f860160051c81016020871061067f575b601f830160051c820181106106735750506103ac565b6000815560010161065d565b508061065d565b60405162461bcd60e51b815260206004820152602d60248201527f5369676e617475726573207265717569726564206d757374206265206772656160448201526c746572207468616e207a65726f60981b6064820152608490fd5b60405162461bcd60e51b815260206004820152602960248201527f596f752063616e206f6e6c7920637265617465206f6e65207065746974696f6e60448201526820706572207765656b60b81b6064820152608490fd5b634e487b7160e01b600052601160045260246000fd5b610767915060203d60201161025457610246818361092d565b866100ba565b34610267576040366003190112610267576024356001600160a01b03818116918290036102675760059160043560005260026020526107b86040600020926004840154161515610a13565b60005201602052602060ff604060002054166040519015158152f35b34610267576000366003190112610267576000546040516001600160a01b039091168152602090f35b34610267576000366003190112610267576020600154604051908152f35b346102675760203660031901126102675760043560005260026020526108926040600020600481015460ff60018060a01b0382169161085b831515610a13565b60028401549260038501546108a061087e600161087789610a5f565b9801610a5f565b60405198899860c08a5260c08a01906108bf565b9088820360208a01526108bf565b9460408701526060860152608085015260a01c16151560a08301520390f35b919082519283825260005b8481106108eb575050826000602080949584010152601f8019910116010190565b6020818301810151848301820152016108ca565b9181601f840112156102675782359167ffffffffffffffff8311610267576020838186019501011161026757565b90601f8019910116810190811067ffffffffffffffff8211176105bc57604052565b90816020910312610267575180151581036102675790565b1561096e57565b60405162461bcd60e51b8152602060048201526013602482015272155cd95c881b9bdd08185d5d1a1bdc9a5e9959606a1b6044820152606490fd5b60001981146107385760010190565b90600182811c921680156109e8575b60208310146109d257565b634e487b7160e01b600052602260045260246000fd5b91607f16916109c7565b908060209392818452848401376000828201840152601f01601f1916010190565b15610a1a57565b60405162461bcd60e51b815260206004820152601760248201527f5065746974696f6e20646f6573206e6f742065786973740000000000000000006044820152606490fd5b9060405191826000825492610a73846109b8565b908184526001948581169081600014610ae25750600114610a9f575b5050610a9d9250038361092d565b565b9093915060005260209081600020936000915b818310610aca575050610a9d93508201013880610a8f565b85548884018501529485019487945091830191610ab2565b915050610a9d94506020925060ff191682840152151560051b8201013880610a8f56fea26469706673582212208c8903b5127660dcbeaf6574dd64a312caacb7bca77f0bd372bce155eed4936c64736f6c63430008140033",
  "linkReferences": {},
  "deployedLinkReferences": {}
}