{
  "_format": "hh-sol-artifact-1",
  "contractName": "Petitions",
  "sourceName": "contracts/petition/petitions.sol",
  "abi": [
    {
      "anonymous": false,
      "inputs": [
        {
          "indexed": true,
          "internalType": "uint256",
          "name": "petitionId",
          "type": "uint256"
        }
      ],
      "name": "PetitionCompleted",
      "type": "event"
    },
    {
      "anonymous": false,
      "inputs": [
        {
          "indexed": true,
          "internalType": "uint256",
          "name": "petitionId",
          "type": "uint256"
        },
        {
          "indexed": true,
          "internalType": "address",
          "name": "creator",
          "type": "address"
        },
        {
          "indexed": false,
          "internalType": "string",
          "name": "titleCid",
          "type": "string"
        },
        {
          "indexed": false,
          "internalType": "string",
          "name": "desCid",
          "type": "string"
        },
        {
          "indexed": false,
          "internalType": "uint256",
          "name": "signaturesRequired",
          "type": "uint256"
        }
      ],
      "name": "PetitionCreated",
      "type": "event"
    },
    {
      "anonymous": false,
      "inputs": [
        {
          "indexed": true,
          "internalType": "uint256",
          "name": "petitionId",
          "type": "uint256"
        },
        {
          "indexed": true,
          "internalType": "address",
          "name": "signer",
          "type": "address"
        }
      ],
      "name": "PetitionSigned",
      "type": "event"
    },
    {
      "inputs": [
        {
          "internalType": "string",
          "name": "titleCid",
          "type": "string"
        },
        {
          "internalType": "string",
          "name": "desCid",
          "type": "string"
        },
        {
          "internalType": "uint256",
          "name": "signaturesRequired",
          "type": "uint256"
        }
      ],
      "name": "createPetition",
      "outputs": [
        {
          "internalType": "uint256",
          "name": "",
          "type": "uint256"
        }
      ],
      "stateMutability": "nonpayable",
      "type": "function"
    },
    {
      "inputs": [
        {
          "internalType": "uint256",
          "name": "petitionId",
          "type": "uint256"
        }
      ],
      "name": "getPetition",
      "outputs": [
        {
          "internalType": "string",
          "name": "titleCid",
          "type": "string"
        },
        {
          "internalType": "string",
          "name": "desCid",
          "type": "string"
        },
        {
          "internalType": "uint256",
          "name": "signaturesRequired",
          "type": "uint256"
        },
        {
          "internalType": "uint256",
          "name": "signaturesCount",
          "type": "uint256"
        },
        {
          "internalType": "address",
          "name": "creator",
          "type": "address"
        },
        {
          "internalType": "bool",
          "name": "completed",
          "type": "bool"
        }
      ],
      "stateMutability": "view",
      "type": "function"
    },
    {
      "inputs": [
        {
          "internalType": "uint256",
          "name": "petitionId",
          "type": "uint256"
        },
        {
          "internalType": "address",
          "name": "user",
          "type": "address"
        }
      ],
      "name": "hasSigned",
      "outputs": [
        {
          "internalType": "bool",
          "name": "",
          "type": "bool"
        }
      ],
      "stateMutability": "view",
      "type": "function"
    },
    {
      "inputs": [
        {
          "internalType": "address",
          "name": "",
          "type": "address"
        }
      ],
      "name": "lastCreatedAt",
      "outputs": [
        {
          "internalType": "uint256",
          "name": "",
          "type": "uint256"
        }
      ],
      "stateMutability": "view",
      "type": "function"
    },
    {
      "inputs": [],
      "name": "petitionCount",
      "outputs": [
        {
          "internalType": "uint256",
          "name": "",
          "type": "uint256"
        }
      ],
      "stateMutability": "view",
      "type": "function"
    },
    {
      "inputs": [
        {
          "internalType": "uint256",
          "name": "petitionId",
          "type": "uint256"
        }
      ],
      "name": "signPetition",
      "outputs": [],
      "stateMutability": "nonpayable",
      "type": "function"
    }
  ],
  "bytecode": "0x608060405234801561001057600080fd5b50611449806100206000396000f3fe608060405234801561001057600080fd5b50600436106100625760003560e01c80630c90ce421461006757806361ab1f091461009c578063709df8d9146100ba578063990627ec146100ea578063b94afa711461011a578063dcad01801461014a575b600080fd5b610081600480360381019061007c91906109df565b610166565b60405161009396959493929190610b07565b60405180910390f35b6100a4610390565b6040516100b19190610b76565b60405180910390f35b6100d460048036038101906100cf9190610bbd565b610396565b6040516100e19190610bfd565b60405180910390f35b61010460048036038101906100ff9190610c7d565b610499565b6040516101119190610b76565b60405180910390f35b610134600480360381019061012f9190610d12565b6106e6565b6040516101419190610b76565b60405180910390f35b610164600480360381019061015f91906109df565b6106fe565b005b6060806000806000806000600160008981526020019081526020016000209050600073ffffffffffffffffffffffffffffffffffffffff168160040160009054906101000a900473ffffffffffffffffffffffffffffffffffffffff1673ffffffffffffffffffffffffffffffffffffffff1603610219576040517f08c379a000000000000000000000000000000000000000000000000000000000815260040161021090610d8b565b60405180910390fd5b8060000181600101826002015483600301548460040160009054906101000a900473ffffffffffffffffffffffffffffffffffffffff168560040160149054906101000a900460ff1685805461026e90610dda565b80601f016020809104026020016040519081016040528092919081815260200182805461029a90610dda565b80156102e75780601f106102bc576101008083540402835291602001916102e7565b820191906000526020600020905b8154815290600101906020018083116102ca57829003601f168201915b505050505095508480546102fa90610dda565b80601f016020809104026020016040519081016040528092919081815260200182805461032690610dda565b80156103735780601f1061034857610100808354040283529160200191610373565b820191906000526020600020905b81548152906001019060200180831161035657829003601f168201915b505050505094509650965096509650965096505091939550919395565b60005481565b600080600160008581526020019081526020016000209050600073ffffffffffffffffffffffffffffffffffffffff168160040160009054906101000a900473ffffffffffffffffffffffffffffffffffffffff1673ffffffffffffffffffffffffffffffffffffffff1603610441576040517f08c379a000000000000000000000000000000000000000000000000000000000815260040161043890610d8b565b60405180910390fd5b8060050160008473ffffffffffffffffffffffffffffffffffffffff1673ffffffffffffffffffffffffffffffffffffffff16815260200190815260200160002060009054906101000a900460ff1691505092915050565b600062093a80600260003373ffffffffffffffffffffffffffffffffffffffff1673ffffffffffffffffffffffffffffffffffffffff168152602001908152602001600020546104e99190610e3a565b42101561052b576040517f08c379a000000000000000000000000000000000000000000000000000000000815260040161052290610ee0565b60405180910390fd5b6000821161056e576040517f08c379a000000000000000000000000000000000000000000000000000000000815260040161056590610f72565b60405180910390fd5b60008081548092919061058090610f92565b9190505550600080549050600060016000838152602001908152602001600020905087878260000191826105b59291906111c0565b5085858260010191826105c99291906111c0565b50838160020181905550338160040160006101000a81548173ffffffffffffffffffffffffffffffffffffffff021916908373ffffffffffffffffffffffffffffffffffffffff16021790555060008160040160146101000a81548160ff0219169083151502179055506000816003018190555042600260003373ffffffffffffffffffffffffffffffffffffffff1673ffffffffffffffffffffffffffffffffffffffff168152602001908152602001600020819055503373ffffffffffffffffffffffffffffffffffffffff16827f98acdb43185fdb133376bd108d5907728ba783ab8330e33f6f8ae0895c5c78818a8a8a8a8a6040516106d09594939291906112cc565b60405180910390a3819250505095945050505050565b60026020528060005260406000206000915090505481565b60006001600083815260200190815260200160002090508060040160149054906101000a900460ff1615610767576040517f08c379a000000000000000000000000000000000000000000000000000000000815260040161075e90611361565b60405180910390fd5b600073ffffffffffffffffffffffffffffffffffffffff168160040160009054906101000a900473ffffffffffffffffffffffffffffffffffffffff1673ffffffffffffffffffffffffffffffffffffffff16036107fa576040517f08c379a00000000000000000000000000000000000000000000000000000000081526004016107f190610d8b565b60405180910390fd5b8060050160003373ffffffffffffffffffffffffffffffffffffffff1673ffffffffffffffffffffffffffffffffffffffff16815260200190815260200160002060009054906101000a900460ff1615610889576040517f08c379a0000000000000000000000000000000000000000000000000000000008152600401610880906113f3565b60405180910390fd5b60018160050160003373ffffffffffffffffffffffffffffffffffffffff1673ffffffffffffffffffffffffffffffffffffffff16815260200190815260200160002060006101000a81548160ff0219169083151502179055508060030160008154809291906108f890610f92565b91905055503373ffffffffffffffffffffffffffffffffffffffff16827fa24773234734fa56d66ce98fb6d0c8e4b38c3ce67e8a0cfa10756d0909ba4ed260405160405180910390a3806002015481600301541061099b5760018160040160146101000a81548160ff021916908315150217905550817f57b2843ccf810ad84ecfebb6a0e6886490e559e0980a3656f8e16ceac99f915260405160405180910390a25b5050565b600080fd5b600080fd5b6000819050919050565b6109bc816109a9565b81146109c757600080fd5b50565b6000813590506109d9816109b3565b92915050565b6000602082840312156109f5576109f461099f565b5b6000610a03848285016109ca565b91505092915050565b600081519050919050565b600082825260208201905092915050565b60005b83811015610a46578082015181840152602081019050610a2b565b60008484015250505050565b6000601f19601f8301169050919050565b6000610a6e82610a0c565b610a788185610a17565b9350610a88818560208601610a28565b610a9181610a52565b840191505092915050565b610aa5816109a9565b82525050565b600073ffffffffffffffffffffffffffffffffffffffff82169050919050565b6000610ad682610aab565b9050919050565b610ae681610acb565b82525050565b60008115159050919050565b610b0181610aec565b82525050565b600060c0820190508181036000830152610b218189610a63565b90508181036020830152610b358188610a63565b9050610b446040830187610a9c565b610b516060830186610a9c565b610b5e6080830185610add565b610b6b60a0830184610af8565b979650505050505050565b6000602082019050610b8b6000830184610a9c565b92915050565b610b9a81610acb565b8114610ba557600080fd5b50565b600081359050610bb781610b91565b92915050565b60008060408385031215610bd457610bd361099f565b5b6000610be2858286016109ca565b9250506020610bf385828601610ba8565b9150509250929050565b6000602082019050610c126000830184610af8565b92915050565b600080fd5b600080fd5b600080fd5b60008083601f840112610c3d57610c3c610c18565b5b8235905067ffffffffffffffff811115610c5a57610c59610c1d565b5b602083019150836001820283011115610c7657610c75610c22565b5b9250929050565b600080600080600060608688031215610c9957610c9861099f565b5b600086013567ffffffffffffffff811115610cb757610cb66109a4565b5b610cc388828901610c27565b9550955050602086013567ffffffffffffffff811115610ce657610ce56109a4565b5b610cf288828901610c27565b93509350506040610d05888289016109ca565b9150509295509295909350565b600060208284031215610d2857610d2761099f565b5b6000610d3684828501610ba8565b91505092915050565b7f5065746974696f6e20646f6573206e6f74206578697374000000000000000000600082015250565b6000610d75601783610a17565b9150610d8082610d3f565b602082019050919050565b60006020820190508181036000830152610da481610d68565b9050919050565b7f4e487b7100000000000000000000000000000000000000000000000000000000600052602260045260246000fd5b60006002820490506001821680610df257607f821691505b602082108103610e0557610e04610dab565b5b50919050565b7f4e487b7100000000000000000000000000000000000000000000000000000000600052601160045260246000fd5b6000610e45826109a9565b9150610e50836109a9565b9250828201905080821115610e6857610e67610e0b565b5b92915050565b7f596f752063616e206f6e6c7920637265617465206f6e65207065746974696f6e60008201527f20706572207765656b0000000000000000000000000000000000000000000000602082015250565b6000610eca602983610a17565b9150610ed582610e6e565b604082019050919050565b60006020820190508181036000830152610ef981610ebd565b9050919050565b7f5369676e617475726573207265717569726564206d757374206265206772656160008201527f746572207468616e207a65726f00000000000000000000000000000000000000602082015250565b6000610f5c602d83610a17565b9150610f6782610f00565b604082019050919050565b60006020820190508181036000830152610f8b81610f4f565b9050919050565b6000610f9d826109a9565b91507fffffffffffffffffffffffffffffffffffffffffffffffffffffffffffffffff8203610fcf57610fce610e0b565b5b600182019050919050565b600082905092915050565b7f4e487b7100000000000000000000000000000000000000000000000000000000600052604160045260246000fd5b60008190508160005260206000209050919050565b60006020601f8301049050919050565b600082821b905092915050565b6000600883026110767fffffffffffffffffffffffffffffffffffffffffffffffffffffffffffffffff82611039565b6110808683611039565b95508019841693508086168417925050509392505050565b6000819050919050565b60006110bd6110b86110b3846109a9565b611098565b6109a9565b9050919050565b6000819050919050565b6110d7836110a2565b6110eb6110e3826110c4565b848454611046565b825550505050565b600090565b6111006110f3565b61110b8184846110ce565b505050565b5b8181101561112f576111246000826110f8565b600181019050611111565b5050565b601f8211156111745761114581611014565b61114e84611029565b8101602085101561115d578190505b61117161116985611029565b830182611110565b50505b505050565b600082821c905092915050565b600061119760001984600802611179565b1980831691505092915050565b60006111b08383611186565b9150826002028217905092915050565b6111ca8383610fda565b67ffffffffffffffff8111156111e3576111e2610fe5565b5b6111ed8254610dda565b6111f8828285611133565b6000601f8311600181146112275760008415611215578287013590505b61121f85826111a4565b865550611287565b601f19841661123586611014565b60005b8281101561125d57848901358255600182019150602085019450602081019050611238565b8683101561127a5784890135611276601f891682611186565b8355505b6001600288020188555050505b50505050505050565b82818337600083830152505050565b60006112ab8385610a17565b93506112b8838584611290565b6112c183610a52565b840190509392505050565b600060608201905081810360008301526112e781878961129f565b905081810360208301526112fc81858761129f565b905061130b6040830184610a9c565b9695505050505050565b7f5065746974696f6e20616c726561647920636f6d706c65746564000000000000600082015250565b600061134b601a83610a17565b915061135682611315565b602082019050919050565b6000602082019050818103600083015261137a8161133e565b9050919050565b7f596f75206861766520616c7265616479207369676e656420746869732070657460008201527f6974696f6e000000000000000000000000000000000000000000000000000000602082015250565b60006113dd602583610a17565b91506113e882611381565b604082019050919050565b6000602082019050818103600083015261140c816113d0565b905091905056fea26469706673582212202dc6c4e667e30e74c66fd7dd44deadc048c54e047a92655423bac0a20456482464736f6c63430008140033",
  "linkReferences": {},
  "deployedLinkReferences": {}
}