{
  "_format": "hh-sol-artifact-1",
  "contractName": "Petitions",
  "sourceName": "contracts/petition/petitions.sol",
  "abi": [
    {
      "inputs": [
        {
          "internalType": "address",
          "name": "_authRegistry",
          "type": "address"
        }
      ],
      "stateMutability": "nonpayable",
      "type": "constructor"
    },
    {
      "anonymous": false,
      "inputs": [
        {
          "indexed": true,
          "internalType": "uint256",
          "name": "petitionId",
          "type": "uint256"
        }
      ],
      "name": "PetitionCompleted",
      "type": "event"
    },
    {
      "anonymous": false,
      "inputs": [
        {
          "indexed": true,
          "internalType": "uint256",
          "name": "petitionId",
          "type": "uint256"
        },
        {
          "indexed": true,
          "internalType": "address",
          "name": "creator",
          "type": "address"
        },
        {
          "indexed": false,
          "internalType": "string",
          "name": "titleCid",
          "type": "string"
        },
        {
          "indexed": false,
          "internalType": "string",
          "name": "desCid",
          "type": "string"
        },
        {
          "indexed": false,
          "internalType": "uint256",
          "name": "signaturesRequired",
          "type": "uint256"
        }
      ],
      "name": "PetitionCreated",
      "type": "event"
    },
    {
      "anonymous": false,
      "inputs": [
        {
          "indexed": true,
          "internalType": "uint256",
          "name": "petitionId",
          "type": "uint256"
        },
        {
          "indexed": true,
          "internalType": "address",
          "name": "remover",
          "type": "address"
        }
      ],
      "name": "PetitionRemoved",
      "type": "event"
    },
    {
      "anonymous": false,
      "inputs": [
        {
          "indexed": true,
          "internalType": "uint256",
          "name": "petitionId",
          "type": "uint256"
        },
        {
          "indexed": true,
          "internalType": "address",
          "name": "signer",
          "type": "address"
        }
      ],
      "name": "PetitionSigned",
      "type": "event"
    },
    {
      "inputs": [],
      "name": "authRegistry",
      "outputs": [
        {
          "internalType": "contract IAuthRegistry",
          "name": "",
          "type": "address"
        }
      ],
      "stateMutability": "view",
      "type": "function"
    },
    {
      "inputs": [
        {
          "internalType": "string",
          "name": "titleCid",
          "type": "string"
        },
        {
          "internalType": "string",
          "name": "desCid",
          "type": "string"
        },
        {
          "internalType": "uint256",
          "name": "signaturesRequired",
          "type": "uint256"
        }
      ],
      "name": "createPetition",
      "outputs": [
        {
          "internalType": "uint256",
          "name": "",
          "type": "uint256"
        }
      ],
      "stateMutability": "nonpayable",
      "type": "function"
    },
    {
      "inputs": [
        {
          "internalType": "uint256",
          "name": "petitionId",
          "type": "uint256"
        }
      ],
      "name": "getPetition",
      "outputs": [
        {
          "internalType": "string",
          "name": "titleCid",
          "type": "string"
        },
        {
          "internalType": "string",
          "name": "desCid",
          "type": "string"
        },
        {
          "internalType": "uint256",
          "name": "signaturesRequired",
          "type": "uint256"
        },
        {
          "internalType": "uint256",
          "name": "signaturesCount",
          "type": "uint256"
        },
        {
          "internalType": "address",
          "name": "creator",
          "type": "address"
        },
        {
          "internalType": "bool",
          "name": "completed",
          "type": "bool"
        },
        {
          "internalType": "bool",
          "name": "removed",
          "type": "bool"
        }
      ],
      "stateMutability": "view",
      "type": "function"
    },
    {
      "inputs": [
        {
          "internalType": "uint256",
          "name": "petitionId",
          "type": "uint256"
        },
        {
          "internalType": "address",
          "name": "user",
          "type": "address"
        }
      ],
      "name": "hasSigned",
      "outputs": [
        {
          "internalType": "bool",
          "name": "",
          "type": "bool"
        }
      ],
      "stateMutability": "view",
      "type": "function"
    },
    {
      "inputs": [
        {
          "internalType": "address",
          "name": "",
          "type": "address"
        }
      ],
      "name": "lastCreatedAt",
      "outputs": [
        {
          "internalType": "uint256",
          "name": "",
          "type": "uint256"
        }
      ],
      "stateMutability": "view",
      "type": "function"
    },
    {
      "inputs": [],
      "name": "petitionCount",
      "outputs": [
        {
          "internalType": "uint256",
          "name": "",
          "type": "uint256"
        }
      ],
      "stateMutability": "view",
      "type": "function"
    },
    {
      "inputs": [
        {
          "internalType": "uint256",
          "name": "petitionId",
          "type": "uint256"
        }
      ],
      "name": "removePetition",
      "outputs": [],
      "stateMutability": "nonpayable",
      "type": "function"
    },
    {
      "inputs": [
        {
          "internalType": "uint256",
          "name": "petitionId",
          "type": "uint256"
        }
      ],
      "name": "signPetition",
      "outputs": [],
      "stateMutability": "nonpayable",
      "type": "function"
    }
  ],
  "bytecode": "0x6080346100cb57601f610f0638819003918201601f19168301916001600160401b038311848410176100d0578084926020946040528339810103126100cb57516001600160a01b038116908190036100cb57801561007a57600080546001600160a01b031916919091179055604051610e1f90816100e78239f35b60405162461bcd60e51b8152602060048201526024808201527f4175746820726567697374727920616464726573732063616e6e6f74206265206044820152637a65726f60e01b6064820152608490fd5b600080fd5b634e487b7160e01b600052604160045260246000fdfe6080604052600436101561001257600080fd5b60003560e01c80630c90ce4214610a6457806311b8ad6f1461088157806361ab1f0914610863578063629e025a1461083a578063709df8d9146107d3578063990627ec14610310578063b94afa71146102d25763dcad01801461007457600080fd5b346102cd576020806003193601126102cd576004359060018060a01b03906024818360005416604051928380926301fd3f7760e71b82523360048301525afa80156102c1576100cb91600091610294575b50610bbd565b82151580610288575b6100dd90610c69565b82600052600281526100fa82600460406000200154161515610cab565b826000526002815261011a60ff60046040600020015460a81c1615610cf7565b82600052600281526040600020906004820192835460ff8160a01c166102435761014691161515610cab565b60058201903360005281815260ff604060002054166101f15733600052526040600020600160ff19825416179055600260038201916101858354610bff565b80935533857fa24773234734fa56d66ce98fb6d0c8e4b38c3ce67e8a0cfa10756d0909ba4ed2600080a3015411156101b957005b805460ff60a01b1916600160a01b1790557f57b2843ccf810ad84ecfebb6a0e6886490e559e0980a3656f8e16ceac99f9152600080a2005b6084906040519062461bcd60e51b82526004820152602560248201527f596f75206861766520616c7265616479207369676e656420746869732070657460448201526434ba34b7b760d91b6064820152fd5b60405162461bcd60e51b815260048101849052601a60248201527f5065746974696f6e20616c726561647920636f6d706c657465640000000000006044820152606490fd5b506001548311156100d4565b6102b49150833d85116102ba575b6102ac8183610b83565b810190610ba5565b386100c5565b503d6102a2565b6040513d6000823e3d90fd5b600080fd5b346102cd5760203660031901126102cd576004356001600160a01b038116908190036102cd5760005260036020526020604060002054604051908152f35b346102cd5760603660031901126102cd5760043567ffffffffffffffff81116102cd57610341903690600401610b55565b9060243567ffffffffffffffff81116102cd57610362903690600401610b55565b6000546040516301fd3f7760e71b815233600482015292949290602090829060249082906001600160a01b03165afa80156102c1576103a8916000916107b45750610bbd565b33600052600360205260406000205462093a80810180911161079e57421061074757604435156106ec576103dd600154610bff565b9283600155836000526002602052604060002067ffffffffffffffff8411610622576104098154610c0e565b601f81116106a8575b50836000601f821160011461064357600091610638575b508460011b906000198660031b1c19161781555b67ffffffffffffffff8311610622576104596001820154610c0e565b601f81116105db575b50916020959185936000601f8411600114610540577f98acdb43185fdb133376bd108d5907728ba783ab8330e33f6f8ae0895c5c7881949260006003869461051e97610511958491610535575b508660011b90841988851b1c19161760018201555b604435600282015560048101805461ffff60a01b1933169069ffffffffffffffffffff60b01b1617905501553360005260038a524260406000205560405197606089526060890191610c48565b9186830389880152610c48565b9260443560408201528033940390a3604051908152f35b90508701358e6104af565b60018201600052886000209060005b601f19861681106105c1575092600060038694610511947f98acdb43185fdb133376bd108d5907728ba783ab8330e33f6f8ae0895c5c7881999761051e99601f198116106105aa575b5050600186811b0160018201556104c4565b880135841988851b60f8161c191690558d80610598565b818701358355899750600190920191908a01908a0161054f565b600182016000526020600020601f850160051c81016020861061061b575b601f830160051c8201811061060f575050610462565b600081556001016105f9565b50806105f9565b634e487b7160e01b600052604160045260246000fd5b905082013587610429565b60008381526020812092505b601f1987168110610690575085601f19811610610676575b5050600184811b01815561043d565b830135600019600387901b60f8161c191690558680610667565b9091602060018192858801358155019301910161064f565b816000526020600020601f860160051c8101602087106106e5575b601f830160051c820181106106d9575050610412565b600081556001016106c3565b50806106c3565b60405162461bcd60e51b815260206004820152602d60248201527f5369676e617475726573207265717569726564206d757374206265206772656160448201526c746572207468616e207a65726f60981b6064820152608490fd5b60405162461bcd60e51b815260206004820152602960248201527f596f752063616e206f6e6c7920637265617465206f6e65207065746974696f6e60448201526820706572207765656b60b81b6064820152608490fd5b634e487b7160e01b600052601160045260246000fd5b6107cd915060203d6020116102ba576102ac8183610b83565b866100c5565b346102cd5760403660031901126102cd576024356001600160a01b03818116918290036102cd57600591600435600052600260205261081e6040600020926004840154161515610cab565b60005201602052602060ff604060002054166040519015158152f35b346102cd5760003660031901126102cd576000546040516001600160a01b039091168152602090f35b346102cd5760003660031901126102cd576020600154604051908152f35b346102cd576020806003193601126102cd576004359081151580610a58575b6108a990610c69565b60008281526002825260409020600401546001600160a01b03906108d09082161515610cab565b82600052600282526108f060ff60046040600020015460a81c1615610cf7565b8260005260028252600460406000200191825491818184163314918215610a02575b5050156109ac5760ff8260a01c1661095d575060ff60a81b1916600160a81b17905533907f1c20d2a5de66651d389b480b25a5e4dbd5a0a59413141b40541c1b93e3911ea5600080a3005b6084906040519062461bcd60e51b82526004820152602260248201527f43616e6e6f742072656d6f7665206120636f6d706c657465642070657469746960448201526137b760f11b6064820152fd5b6084906040519062461bcd60e51b82526004820152602960248201527f4f6e6c792063726561746f72206f722061646d696e2063616e2072656d6f7665604482015268081c1c9bdc1bdcd85b60ba1b6064820152fd5b600054604051630935e01b60e21b8152336004820152935083916024918391165afa9081156102c157600091610a3b575b508186610912565b610a529150823d84116102ba576102ac8183610b83565b85610a33565b506001548211156108a0565b346102cd5760203660031901126102cd576004356000526002602052610adb6040600020600481015460ff60018060a01b03821691610aa4831515610cab565b6002840154926003850154610ae9610ac76001610ac089610d43565b9801610d43565b60405198899860e08a5260e08a0190610b15565b9088820360208a0152610b15565b94604087015260608601526080850152818160a01c16151560a085015260a81c16151560c08301520390f35b919082519283825260005b848110610b41575050826000602080949584010152601f8019910116010190565b602081830181015184830182015201610b20565b9181601f840112156102cd5782359167ffffffffffffffff83116102cd57602083818601950101116102cd57565b90601f8019910116810190811067ffffffffffffffff82111761062257604052565b908160209103126102cd575180151581036102cd5790565b15610bc457565b60405162461bcd60e51b8152602060048201526013602482015272155cd95c881b9bdd08185d5d1a1bdc9a5e9959606a1b6044820152606490fd5b600019811461079e5760010190565b90600182811c92168015610c3e575b6020831014610c2857565b634e487b7160e01b600052602260045260246000fd5b91607f1691610c1d565b908060209392818452848401376000828201840152601f01601f1916010190565b15610c7057565b60405162461bcd60e51b8152602060048201526013602482015272125b9d985b1a59081c195d1a5d1a5bdb881251606a1b6044820152606490fd5b15610cb257565b60405162461bcd60e51b815260206004820152601760248201527f5065746974696f6e20646f6573206e6f742065786973740000000000000000006044820152606490fd5b15610cfe57565b60405162461bcd60e51b815260206004820152601960248201527f5065746974696f6e20686173206265656e2072656d6f766564000000000000006044820152606490fd5b9060405191826000825492610d5784610c0e565b908184526001948581169081600014610dc65750600114610d83575b5050610d8192500383610b83565b565b9093915060005260209081600020936000915b818310610dae575050610d8193508201013880610d73565b85548884018501529485019487945091830191610d96565b915050610d8194506020925060ff191682840152151560051b8201013880610d7356fea2646970667358221220c7555625b146e58dc57a19982f2260838b4c0fef9ec6faa926da9a8978d49fa964736f6c63430008140033",
  "linkReferences": {},
  "deployedLinkReferences": {}
}