{
  "_format": "hh-sol-artifact-1",
  "contractName": "Project",
  "sourceName": "contracts/project/project.sol",
  "abi": [
    {
      "inputs": [
        {
          "internalType": "address",
          "name": "_authRegistry",
          "type": "address"
        }
      ],
      "stateMutability": "nonpayable",
      "type": "constructor"
    },
    {
      "anonymous": false,
      "inputs": [
        {
          "indexed": true,
          "internalType": "uint256",
          "name": "projectId",
          "type": "uint256"
        },
        {
          "indexed": true,
          "internalType": "address",
          "name": "deductor",
          "type": "address"
        },
        {
          "indexed": false,
          "internalType": "uint256",
          "name": "amount",
          "type": "uint256"
        },
        {
          "indexed": false,
          "internalType": "uint256",
          "name": "totalSpent",
          "type": "uint256"
        }
      ],
      "name": "BudgetDeducted",
      "type": "event"
    },
    {
      "anonymous": false,
      "inputs": [
        {
          "indexed": true,
          "internalType": "uint256",
          "name": "projectId",
          "type": "uint256"
        },
        {
          "indexed": true,
          "internalType": "address",
          "name": "spender",
          "type": "address"
        },
        {
          "indexed": false,
          "internalType": "uint256",
          "name": "amount",
          "type": "uint256"
        },
        {
          "indexed": false,
          "internalType": "uint256",
          "name": "totalSpent",
          "type": "uint256"
        }
      ],
      "name": "BudgetSpent",
      "type": "event"
    },
    {
      "anonymous": false,
      "inputs": [
        {
          "indexed": true,
          "internalType": "uint256",
          "name": "projectId",
          "type": "uint256"
        },
        {
          "indexed": true,
          "internalType": "address",
          "name": "creator",
          "type": "address"
        },
        {
          "indexed": false,
          "internalType": "string",
          "name": "projectName",
          "type": "string"
        },
        {
          "indexed": false,
          "internalType": "string",
          "name": "categoryName",
          "type": "string"
        },
        {
          "indexed": false,
          "internalType": "uint256",
          "name": "allocatedBudget",
          "type": "uint256"
        },
        {
          "indexed": false,
          "internalType": "string",
          "name": "state",
          "type": "string"
        },
        {
          "indexed": false,
          "internalType": "string",
          "name": "province",
          "type": "string"
        },
        {
          "indexed": false,
          "internalType": "string",
          "name": "ministry",
          "type": "string"
        },
        {
          "indexed": false,
          "internalType": "string",
          "name": "status",
          "type": "string"
        }
      ],
      "name": "ProjectCreated",
      "type": "event"
    },
    {
      "anonymous": false,
      "inputs": [
        {
          "indexed": true,
          "internalType": "uint256",
          "name": "projectId",
          "type": "uint256"
        },
        {
          "indexed": false,
          "internalType": "string",
          "name": "oldStatus",
          "type": "string"
        },
        {
          "indexed": false,
          "internalType": "string",
          "name": "newStatus",
          "type": "string"
        }
      ],
      "name": "ProjectStatusChanged",
      "type": "event"
    },
    {
      "anonymous": false,
      "inputs": [
        {
          "indexed": true,
          "internalType": "uint256",
          "name": "projectId",
          "type": "uint256"
        },
        {
          "indexed": true,
          "internalType": "address",
          "name": "updater",
          "type": "address"
        },
        {
          "indexed": false,
          "internalType": "string",
          "name": "projectName",
          "type": "string"
        },
        {
          "indexed": false,
          "internalType": "string",
          "name": "status",
          "type": "string"
        }
      ],
      "name": "ProjectUpdated",
      "type": "event"
    },
    {
      "inputs": [
        {
          "internalType": "uint256",
          "name": "projectId",
          "type": "uint256"
        },
        {
          "internalType": "uint256",
          "name": "amount",
          "type": "uint256"
        }
      ],
      "name": "addSpentBudget",
      "outputs": [],
      "stateMutability": "nonpayable",
      "type": "function"
    },
    {
      "inputs": [],
      "name": "authRegistry",
      "outputs": [
        {
          "internalType": "contract IAuthRegistry",
          "name": "",
          "type": "address"
        }
      ],
      "stateMutability": "view",
      "type": "function"
    },
    {
      "inputs": [
        {
          "internalType": "string",
          "name": "projectName",
          "type": "string"
        },
        {
          "internalType": "string",
          "name": "categoryName",
          "type": "string"
        },
        {
          "internalType": "uint256",
          "name": "allocatedBudget",
          "type": "uint256"
        },
        {
          "internalType": "string",
          "name": "state",
          "type": "string"
        },
        {
          "internalType": "string",
          "name": "province",
          "type": "string"
        },
        {
          "internalType": "string",
          "name": "ministry",
          "type": "string"
        },
        {
          "internalType": "string",
          "name": "viewDetailsCid",
          "type": "string"
        },
        {
          "internalType": "string",
          "name": "status",
          "type": "string"
        }
      ],
      "name": "createProject",
      "outputs": [
        {
          "internalType": "uint256",
          "name": "",
          "type": "uint256"
        }
      ],
      "stateMutability": "nonpayable",
      "type": "function"
    },
    {
      "inputs": [
        {
          "internalType": "uint256",
          "name": "projectId",
          "type": "uint256"
        },
        {
          "internalType": "uint256",
          "name": "amount",
          "type": "uint256"
        }
      ],
      "name": "deductSpentBudget",
      "outputs": [],
      "stateMutability": "nonpayable",
      "type": "function"
    },
    {
      "inputs": [
        {
          "internalType": "uint256",
          "name": "projectId",
          "type": "uint256"
        }
      ],
      "name": "getProject",
      "outputs": [
        {
          "internalType": "uint256",
          "name": "id",
          "type": "uint256"
        },
        {
          "internalType": "string",
          "name": "projectName",
          "type": "string"
        },
        {
          "internalType": "string",
          "name": "categoryName",
          "type": "string"
        },
        {
          "internalType": "uint256",
          "name": "allocatedBudget",
          "type": "uint256"
        },
        {
          "internalType": "uint256",
          "name": "spentBudget",
          "type": "uint256"
        },
        {
          "internalType": "string",
          "name": "state",
          "type": "string"
        },
        {
          "internalType": "string",
          "name": "province",
          "type": "string"
        },
        {
          "internalType": "string",
          "name": "ministry",
          "type": "string"
        },
        {
          "internalType": "string",
          "name": "viewDetailsCid",
          "type": "string"
        },
        {
          "internalType": "string",
          "name": "status",
          "type": "string"
        },
        {
          "internalType": "address",
          "name": "creator",
          "type": "address"
        },
        {
          "internalType": "uint256",
          "name": "createdAt",
          "type": "uint256"
        },
        {
          "internalType": "uint256",
          "name": "updatedAt",
          "type": "uint256"
        }
      ],
      "stateMutability": "view",
      "type": "function"
    },
    {
      "inputs": [
        {
          "internalType": "uint256",
          "name": "projectId",
          "type": "uint256"
        }
      ],
      "name": "getProjectBudget",
      "outputs": [
        {
          "internalType": "uint256",
          "name": "allocatedBudget",
          "type": "uint256"
        },
        {
          "internalType": "uint256",
          "name": "spentBudget",
          "type": "uint256"
        },
        {
          "internalType": "uint256",
          "name": "remainingBudget",
          "type": "uint256"
        },
        {
          "internalType": "uint256",
          "name": "budgetUtilization",
          "type": "uint256"
        }
      ],
      "stateMutability": "view",
      "type": "function"
    },
    {
      "inputs": [
        {
          "internalType": "string",
          "name": "categoryName",
          "type": "string"
        }
      ],
      "name": "getProjectsByCategory",
      "outputs": [
        {
          "internalType": "uint256[]",
          "name": "projectIds",
          "type": "uint256[]"
        }
      ],
      "stateMutability": "view",
      "type": "function"
    },
    {
      "inputs": [
        {
          "internalType": "string",
          "name": "ministry",
          "type": "string"
        }
      ],
      "name": "getProjectsByMinistry",
      "outputs": [
        {
          "internalType": "uint256[]",
          "name": "projectIds",
          "type": "uint256[]"
        }
      ],
      "stateMutability": "view",
      "type": "function"
    },
    {
      "inputs": [
        {
          "internalType": "string",
          "name": "state",
          "type": "string"
        }
      ],
      "name": "getProjectsByState",
      "outputs": [
        {
          "internalType": "uint256[]",
          "name": "projectIds",
          "type": "uint256[]"
        }
      ],
      "stateMutability": "view",
      "type": "function"
    },
    {
      "inputs": [
        {
          "internalType": "string",
          "name": "status",
          "type": "string"
        }
      ],
      "name": "getProjectsByStatus",
      "outputs": [
        {
          "internalType": "uint256[]",
          "name": "projectIds",
          "type": "uint256[]"
        }
      ],
      "stateMutability": "view",
      "type": "function"
    },
    {
      "inputs": [
        {
          "internalType": "address",
          "name": "user",
          "type": "address"
        }
      ],
      "name": "getProjectsByUser",
      "outputs": [
        {
          "internalType": "uint256[]",
          "name": "projectIds",
          "type": "uint256[]"
        }
      ],
      "stateMutability": "view",
      "type": "function"
    },
    {
      "inputs": [
        {
          "internalType": "address",
          "name": "",
          "type": "address"
        }
      ],
      "name": "lastCreatedAt",
      "outputs": [
        {
          "internalType": "uint256",
          "name": "",
          "type": "uint256"
        }
      ],
      "stateMutability": "view",
      "type": "function"
    },
    {
      "inputs": [],
      "name": "projectCount",
      "outputs": [
        {
          "internalType": "uint256",
          "name": "",
          "type": "uint256"
        }
      ],
      "stateMutability": "view",
      "type": "function"
    },
    {
      "inputs": [
        {
          "internalType": "uint256",
          "name": "projectId",
          "type": "uint256"
        },
        {
          "internalType": "uint256",
          "name": "newAllocatedBudget",
          "type": "uint256"
        }
      ],
      "name": "updateAllocatedBudget",
      "outputs": [],
      "stateMutability": "nonpayable",
      "type": "function"
    },
    {
      "inputs": [
        {
          "internalType": "uint256",
          "name": "projectId",
          "type": "uint256"
        },
        {
          "internalType": "string",
          "name": "projectName",
          "type": "string"
        },
        {
          "internalType": "string",
          "name": "categoryName",
          "type": "string"
        },
        {
          "internalType": "string",
          "name": "state",
          "type": "string"
        },
        {
          "internalType": "string",
          "name": "province",
          "type": "string"
        },
        {
          "internalType": "string",
          "name": "ministry",
          "type": "string"
        },
        {
          "internalType": "string",
          "name": "viewDetailsCid",
          "type": "string"
        },
        {
          "internalType": "string",
          "name": "status",
          "type": "string"
        }
      ],
      "name": "updateProject",
      "outputs": [],
      "stateMutability": "nonpayable",
      "type": "function"
    }
  ],
  "bytecode": "0x6080346100cd57601f62002a2938819003918201601f19168301916001600160401b038311848410176100d2578084926020946040528339810103126100cd57516001600160a01b038116908190036100cd57801561007c57600080546001600160a01b0319169190911790556040516129409081620000e98239f35b60405162461bcd60e51b8152602060048201526024808201527f4175746820726567697374727920616464726573732063616e6e6f74206265206044820152637a65726f60e01b6064820152608490fd5b600080fd5b634e487b7160e01b600052604160045260246000fdfe610140604052600436101561001357600080fd5b60003560e01c8063199dc3d4146117ea5780632e4efe95146116ff57806336fbad26146116e157806347bbbd2d146115f1578063629e025a146115c857806364e4b89114610ab55780636e1610d5146109c95780637c66c78f146108745780637fde332c146107885780638a29740514610695578063afe32ec31461057c578063b4eddc72146104a8578063b94afa711461046a578063d64b9186146102c45763f0f3f2c8146100c257600080fd5b346102bf5760203660031901126102bf57600435801515806102b3575b6100e8906126c4565b6000818152600260205260409020600a01546001600160a01b03919061011190831615156126c4565b600052600260205260406000208054906003810154600482015493600a8301541691600b81015490600c81015492604051968780600185019061015391612755565b0361015e90896123ca565b60405191826101708160028701612755565b0361017b90846123ca565b6040518061018c8160058801612755565b0361019790826123ca565b60405191826101a98160068901612755565b036101b490846123ca565b60405193846101c68160078a01612755565b036101d190866123ca565b60405195866101e38160088b01612755565b036101ee90886123ca565b604051806009819a019061020191612755565b0361020c90896123ca565b6040519c8d9c8d528c6101a06020819201528d016102299161238a565b8c810360408e015261023a9161238a565b9160608c015260808b015289810360a08b01526102569161238a565b88810360c08a01526102679161238a565b87810360e08901526102789161238a565b86810361010088015261028a9161238a565b85810361012087015261029c9161238a565b926101408501526101608401526101808301520390f35b506001548111156100df565b600080fd5b346102bf576102d236612374565b6000546040516301fd3f7760e71b81523360048201529192916020916001600160a01b039083908390602490829085165afa91821561045e576103699261032191600091610431575b50612403565b83151580610425575b610333906126c4565b836000526002835261035081600a604060002001541615156126c4565b8360005260028352600a60406000200154163314612709565b610374831515612831565b8160005260028152604060002090600482019182548581106103d4578561039a9161288a565b809355600c429101556040519384528301527fb68b353a76e3fbb110464dbff4e3a6f24457f8d32c5d6495fa092be4646a513960403393a3005b60405162461bcd60e51b8152600481018490526024808201527f43616e6e6f7420646564756374206d6f7265207468616e207370656e742062756044820152631919d95d60e21b6064820152608490fd5b5060015484111561032a565b6104519150853d8711610457575b61044981836123ca565b8101906123eb565b8761031b565b503d61043f565b6040513d6000823e3d90fd5b346102bf5760203660031901126102bf576004356001600160a01b038116908190036102bf5760005260036020526020604060002054604051908152f35b346102bf576020806003193601126102bf576001600160a01b0390600435828116908190036102bf57600154906104de826128ae565b9360009360015b848111156105395786866104f8816128ae565b9160005b82811061051557604051806105118682612339565b0390f35b8061052361053492846128e0565b5161052e82876128e0565b5261265a565b6104fc565b80600052600282528383600a604060002001541614610561575b61055c9061265a565b6104e5565b94610574818761052e61055c948b6128e0565b959050610553565b346102bf5761058a36612374565b6000546040516301fd3f7760e71b81523360048201529192916020916001600160a01b039083908390602490829085165afa91821561045e576105d892610321916000916104315750612403565b6105e3831515612831565b816000526002815260406000209060048201918254610602868261287d565b60038301541061065057856106169161287d565b809355600c429101556040519384528301527fefda33b734791da8f3b329895a5e918347a467c7e63e75b3c1b118232cdd644560403393a3005b60405162461bcd60e51b815260048101849052601e60248201527f43616e6e6f742065786365656420616c6c6f63617465642062756467657400006044820152606490fd5b346102bf576020806003193601126102bf576004356001600160401b0381116102bf576106c690369060040161230c565b600154906106d3826128ae565b9360009360015b848111156107195786866106ed816128ae565b9160005b82811061070657604051806105118682612339565b8061052361071492846128e0565b6106f1565b806000526002835261073b610742600960406000200160405192838092612755565b03826123ca565b8381519101206107533686856127eb565b8481519101201461076d575b6107689061265a565b6106da565b94610780818761052e610768948b6128e0565b95905061075f565b346102bf576020806003193601126102bf576004356001600160401b0381116102bf576107b990369060040161230c565b600154906107c6826128ae565b9360009360015b8481111561080c5786866107e0816128ae565b9160005b8281106107f957604051806105118682612339565b8061052361080792846128e0565b6107e4565b806000526002835261073b61082e600760406000200160405192838092612755565b83815191012061083f3686856127eb565b84815191012014610859575b6108549061265a565b6107cd565b9461086c818761052e610854948b6128e0565b95905061084b565b346102bf5761088236612374565b6000546040516301fd3f7760e71b8152336004820152602093916001600160a01b039085908390602490829085165afa91821561045e57610916926108ce916000916109b25750612403565b821515806109a6575b6108e0906126c4565b82600052600285526108fd81600a604060002001541615156126c4565b8260005260028552600a60406000200154163314612709565b6109218215156124dd565b60005260028252604060002091600483015482106109485750600382015542600c90910155005b6084906040519062461bcd60e51b82526004820152603160248201527f416c6c6f6361746564206275646765742063616e6e6f74206265206c657373206044820152701d1a185b881cdc195b9d08189d5919d95d607a1b6064820152fd5b506001548311156108d7565b6104519150873d89116104575761044981836123ca565b346102bf576020806003193601126102bf576004356001600160401b0381116102bf576109fa90369060040161230c565b60015490610a07826128ae565b9360009360015b84811115610a4d578686610a21816128ae565b9160005b828110610a3a57604051806105118682612339565b80610523610a4892846128e0565b610a25565b806000526002835261073b610a6f600560406000200160405192838092612755565b838151910120610a803686856127eb565b84815191012014610a9a575b610a959061265a565b610a0e565b94610aad818761052e610a95948b6128e0565b959050610a8c565b346102bf576101003660031901126102bf576024356001600160401b0381116102bf57610ae690369060040161230c565b6044356001600160401b0381116102bf57610b0590369060040161230c565b916064356001600160401b0381116102bf57610b2590369060040161230c565b9290946084356001600160401b0381116102bf57610b4790369060040161230c565b9060a4356001600160401b0381116102bf57610b6790369060040161230c565b9060c4356001600160401b0381116102bf57610b8790369060040161230c565b94909360e4356001600160401b0381116102bf57610ba990369060040161230c565b6000546040516301fd3f7760e71b8152336004820152929e919c9290602090829060249082906001600160a01b03165afa801561045e57610bf1916000916115a95750612403565b60043515158061159b575b610c05906126c4565b6004356000908152600260205260409020600a0154610c2e906001600160a01b031615156126c4565b6004356000526002602052600160a01b600190036040600020600a0154163314610c5790612709565b610c628b1515612445565b610c6d8d1515612491565b610c78821515612539565b610c8384151561257d565b610c8e8615156125c9565b610c998c1515612615565b600435600052600260205260406000209c8d9a6040519e8f80600981930190610cc191612755565b03610ccb916123ca565b6001600160401b038d116110b257610ce660018d0154612669565b601f8111611552575b508c8060008e6001601f8411146114de57506000916114d3575b508160011b916000199060031b1c19161760018d01555b6001600160401b0382116110b2578190610d3d60028e0154612669565b601f8111611480575b50600090601f831160011461140f57600092611404575b50508160011b916000199060031b1c19161760028b01555b6001600160401b0382116110b2578190610d9260058c0154612669565b601f81116113b1575b50600090601f831160011461134057600092611335575b50508160011b916000199060031b1c19161760058901555b6001600160401b0382116110b2578190610de760068a0154612669565b601f81116112e2575b50600090601f831160011461127157600092611266575b50508160011b916000199060031b1c19161760068701555b6001600160401b0382116110b2578190610e3c6007880154612669565b601f8111611213575b50600090601f83116001146111a257600092611197575b50508160011b916000199060031b1c19161760078501555b6001600160401b0382116110b2578190610e916008860154612669565b601f8111611144575b50600090601f83116001146110d3576000926110c8575b50508160011b916000199060031b1c19161760088301555b6001600160401b0384116110b257610ee46009830154612669565b601f8111611067575b5060009184601f8111600114610ff457610f3893600091610fe9575b508560011b906000198760031b1c19161760098201555b600c42910155604051926040845260408401916126a3565b81810360208301527fd51fc012df72572efb7d54735a8fa2cafb1de9ccf25c8859f1439aa41c106c5f339280610f7260043594878a6126a3565b0390a381516020830120610f873683866127eb565b6020815191012003610f9557005b7f71a9b721769631e767153ceb07019b3dec7eeac54a333fceff2ac6bb50f2d25b91610fe4610fd29260405193849360408552604085019061238a565b908382036020850152600435966126a3565b0390a2005b905087013588610f09565b5060098101600090815260208120909386601f1981165b80871061104957610f3896501061102f575b5050600185811b016009820155610f20565b880135600019600388901b60f8161c19169055878061101d565b8a83013584556020968701966001909401939092019188915061100b565b600983016000526020600020601f860160051c810191602087106110a8575b601f0160051c01905b81811061109c5750610eed565b6000815560010161108f565b9091508190611086565b634e487b7160e01b600052604160045260246000fd5b013590508880610eb1565b909250600885016000526020600020906000935b601f198416851061112c576001945083601f19811610611112575b505050811b016008830155610ec9565b0135600019600384901b60f8161c19169055888080611102565b818101358355602094850194600190930192016110e7565b909150600885016000526020600020601f840160051c810160208510611190575b90849392915b601f830160051c82018110611181575050610e9a565b6000815585945060010161116b565b5080611165565b013590508a80610e5c565b909250600787016000526020600020906000935b601f19841685106111fb576001945083601f198116106111e1575b505050811b016007850155610e74565b0135600019600384901b60f8161c191690558a80806111d1565b818101358355602094850194600190930192016111b6565b909150600787016000526020600020601f840160051c81016020851061125f575b90849392915b601f830160051c82018110611250575050610e45565b6000815585945060010161123a565b5080611234565b013590508c80610e07565b909250600689016000526020600020906000935b601f19841685106112ca576001945083601f198116106112b0575b505050811b016006870155610e1f565b0135600019600384901b60f8161c191690558c80806112a0565b81810135835560209485019460019093019201611285565b909150600689016000526020600020601f840160051c81016020851061132e575b90849392915b601f830160051c8201811061131f575050610df0565b60008155859450600101611309565b5080611303565b013590508e80610db2565b90925060058b016000526020600020906000935b601f1984168510611399576001945083601f1981161061137f575b505050811b016005890155610dca565b0135600019600384901b60f8161c191690558e808061136f565b81810135835560209485019460019093019201611354565b90915060058b016000526020600020601f840160051c8101602085106113fd575b90849392915b601f830160051c820181106113ee575050610d9b565b600081558594506001016113d8565b50806113d2565b013590503880610d5d565b90925060028d016000526020600020906000935b601f1984168510611468576001945083601f1981161061144e575b505050811b0160028b0155610d75565b0135600019600384901b60f8161c1916905538808061143e565b81810135835560209485019460019093019201611423565b90915060028d016000526020600020601f840160051c8101602085106114cc575b90849392915b601f830160051c820181106114bd575050610d46565b600081558594506001016114a7565b50806114a1565b90508c013538610d09565b6001919250016000526020600020918d6000905b601f198316821061153957505080601f1981161061151e575b905060018092501b0160018d0155610d20565b60f86000199160031b161c19908d013516905538808e61150b565b600184956020939584930135815501940192018e6114f2565b60018d016000528d6020600020906020601f820160051c83019110611594575b601f830160051c82018110611588575050610cef565b60008155600101611572565b5080611572565b506001546004351115610bfc565b6115c2915060203d6020116104575761044981836123ca565b3861031b565b346102bf5760003660031901126102bf576000546040516001600160a01b039091168152602090f35b346102bf5760203660031901126102bf57600435801515806116d5575b611617906126c4565b6000818152600260205260409020600a015461163d906001600160a01b031615156126c4565b60005260026020526040600020600460038201549101549061165f828261288a565b81159290836116c9576064820293828504606414831517156116b35761169d578260809404915b604051938452602084015260408301526060820152f35b634e487b7160e01b600052601260045260246000fd5b634e487b7160e01b600052601160045260246000fd5b60809350600091611686565b5060015481111561160e565b346102bf5760003660031901126102bf576020600154604051908152f35b346102bf576020806003193601126102bf576004356001600160401b0381116102bf5761173090369060040161230c565b6001549061173d826128ae565b9360009360015b84811115611783578686611757816128ae565b9160005b82811061177057604051806105118682612339565b8061052361177e92846128e0565b61175b565b8060005261073b6117a4600280865260406000200160405192838092612755565b8381519101206117b53686856127eb565b848151910120146117cf575b6117ca9061265a565b611744565b946117e2818761052e6117ca948b6128e0565b9590506117c1565b346102bf576101003660031901126102bf576004356001600160401b0381116102bf5761181b90369060040161230c565b60805260c0526024356001600160401b0381116102bf5761184090369060040161230c565b6064356001600160401b0381116102bf5761185f90369060040161230c565b906084356001600160401b0381116102bf5761187f90369060040161230c565b60a4356001600160401b0381116102bf5761189e90369060040161230c565b93909460c4356001600160401b0381116102bf576118c090369060040161230c565b98906001600160401b0360e435116102bf576118e13660e43560040161230c565b60a0526000546301fd3f7760e71b6101409081523361014452919b9160209160249082906001600160a01b03165afa801561045e576000906122d3575b61192790612403565b6119346080511515612445565b61193f8a1515612491565b61194c60443515156124dd565b611957841515612539565b61196286151561257d565b61196d8815156125c9565b61197a60a0511515612615565b61198560015461265a565b8061010052806001558060005260026020526040600020908160e05281556001600160401b03608051116110b25760016119c0910154612669565b601f8111612287575b506000608051601f8111600114612214575060006080519182612207575b508160011b916000199060031b1c191617600160e05101555b6001600160401b038a116110b257611a1d600260e0510154612669565b601f81116121be575b50896000601f821160011461214f57600091612144575b508a60011b906000198c60031b1c191617600260e05101555b60e0516044356003820155600060048201556001600160401b0385116110b2576005611a83910154612669565b601f81116120fb575b50836000601f821160011461208c57600091612081575b508460011b906000198660031b1c191617600560e05101555b6001600160401b0386116110b257611ad9600660e0510154612669565b601f8111612038575b50856000601f8211600114611fc757600091611fbc575b508660011b906000198860031b1c191617600660e05101555b6001600160401b0388116110b257611b2f600760e0510154612669565b601f8111611f73575b50876000601f8211600114611f0257600091611ef7575b508860011b906000198a60031b1c191617600760e05101555b6001600160401b0381116110b257611b85600860e0510154612669565b601f8111611eae575b506000601f8211600114611e3e578192600092611e33575b50508160011b916000199060031b1c191617600860e05101555b6001600160401b0360a051116110b257611bdf600960e0510154612669565b601f8111611de7575b50600061012052601f60a05111600114611d275792611cd0611cde937fb277f8a65cc12a772964393b88f67d575de0863b623ccc169a21a77c19b9cdac989693611cba611cec99978d600060a0519182611d19575b508160011b916000199060031b1c191617600960e05101555b60e051600a8101336bffffffffffffffffffffffff60a01b82541617905542600b820155600c42910155336000526003602052426040600020556040519c8d9160e08352611cac60e0840160805160c0516126a3565b9260208185039101526126a3565b9160443560408d01528b830360608d01526126a3565b9188830360808a01526126a3565b9185830360a08701526126a3565b9180830360c082015280611d096101005194339660a051906126a3565b0390a36020604051610100518152f35b90506101205101358f611c3d565b969492909188969492600960e0510160005260206000206000905b60a051601f1916821015611d70579060206001819361012051809d01358155019a0161012052018a98611d42565b611cde959493915091611cba611cec999b60017fb277f8a65cc12a772964393b88f67d575de0863b623ccc169a21a77c19b9cdac9c611cd09660a0519182601f19811610611dca575b5050811b01600960e0510155611c56565b610120510135600019600384901b60f8161c191690558f80611db9565b600960e05101600052602060002060a0516020601f820160051c83019110611e2c575b601f830160051c82018110611e20575050611be8565b60008155600101611e0a565b5080611e0a565b013590508b80611ba6565b90600860e0510192836000526020600020906000935b601f1984168510611e96576001945083601f19811610611e7c575b505050811b019055611bc0565b0135600019600384901b60f8161c191690558c8080611e6f565b81810135835560209485019460019093019201611e54565b600860e051016000526020600020601f830160051c810160208410611ef0575b601f830160051c82018110611ee4575050611b8e565b60008155600101611ece565b5080611ece565b90508901358c611b4f565b9050600760e05101908160005260206000209060005b8c601f198d168210611f5b5750508a601f19811610611f41575b5050600189811b019055611b68565b8b013560001960038c901b60f8161c191690558c80611f32565b60018394602093948493013581550193019101611f18565b600760e051016000526020600020601f8a0160051c810160208b10611fb5575b601f830160051c82018110611fa9575050611b38565b60008155600101611f93565b5080611f93565b90508701358c611af9565b9050600660e05101908160005260206000209060005b8a601f198b16821061202057505088601f19811610612006575b5050600187811b019055611b12565b89013560001960038a901b60f8161c191690558c80611ff7565b60018394602093948493013581550193019101611fdd565b600660e051016000526020600020601f880160051c81016020891061207a575b601f830160051c8201811061206e575050611ae2565b60008155600101612058565b5080612058565b90508501358c611aa3565b9050600560e05101908160005260206000209060005b601f19881681106120e3575086601f198116106120c9575b5050600185811b019055611abc565b870135600019600388901b60f8161c191690558c806120ba565b9091602060018192858c0135815501930191016120a2565b600560e051016000526020600020601f860160051c81016020871061213d575b601f830160051c82018110612131575050611a8c565b6000815560010161211b565b508061211b565b90508301358c611a3d565b9050600260e05101908160005260206000209060005b601f198e1681106121a657508c601f1981161061218c575b505060018b811b019055611a56565b85013560001960038e901b60f8161c191690558c8061217d565b9091602060018192858a013581550193019101612165565b600260e051016000526020600020601f8c0160051c810160208d10612200575b601f830160051c820181106121f4575050611a26565b600081556001016121de565b50806121de565b905060c05101358d6119e7565b90600160e051019182600052602060002060009260c051905b601f198416851061226f576001945083601f19811610612255575b505050811b019055611a00565b0135600019600384901b60f8161c191690558e8080612248565b8181013583556020948501946001909301920161222d565b600160e0510160005260206000206080516020601f820160051c830191106122cc575b601f830160051c820181106122c05750506119c9565b600081556001016122aa565b50806122aa565b5060203d602011612305575b6122fe816122f2611927936101406123ca565b610140016101406123eb565b905061191e565b503d6122df565b9181601f840112156102bf578235916001600160401b0383116102bf57602083818601950101116102bf57565b6020908160408183019282815285518094520193019160005b828110612360575050505090565b835185529381019392810192600101612352565b60409060031901126102bf576004359060243590565b919082519283825260005b8481106123b6575050826000602080949584010152601f8019910116010190565b602081830181015184830182015201612395565b90601f801991011681019081106001600160401b038211176110b257604052565b908160209103126102bf575180151581036102bf5790565b1561240a57565b60405162461bcd60e51b8152602060048201526013602482015272155cd95c881b9bdd08185d5d1a1bdc9a5e9959606a1b6044820152606490fd5b1561244c57565b60405162461bcd60e51b815260206004820152601c60248201527f50726f6a656374206e616d652063616e6e6f7420626520656d707479000000006044820152606490fd5b1561249857565b60405162461bcd60e51b815260206004820152601d60248201527f43617465676f7279206e616d652063616e6e6f7420626520656d7074790000006044820152606490fd5b156124e457565b60405162461bcd60e51b815260206004820152602760248201527f416c6c6f636174656420627564676574206d75737420626520677265617465726044820152660207468616e20360cc1b6064820152608490fd5b1561254057565b60405162461bcd60e51b815260206004820152601560248201527453746174652063616e6e6f7420626520656d70747960581b6044820152606490fd5b1561258457565b60405162461bcd60e51b815260206004820152601860248201527f50726f76696e63652063616e6e6f7420626520656d70747900000000000000006044820152606490fd5b156125d057565b60405162461bcd60e51b815260206004820152601860248201527f4d696e69737472792063616e6e6f7420626520656d70747900000000000000006044820152606490fd5b1561261c57565b60405162461bcd60e51b81526020600482015260166024820152755374617475732063616e6e6f7420626520656d70747960501b6044820152606490fd5b60001981146116b35760010190565b90600182811c92168015612699575b602083101461268357565b634e487b7160e01b600052602260045260246000fd5b91607f1691612678565b908060209392818452848401376000828201840152601f01601f1916010190565b156126cb57565b60405162461bcd60e51b8152602060048201526016602482015275141c9bda9958dd08191bd95cc81b9bdd08195e1a5cdd60521b6044820152606490fd5b1561271057565b60405162461bcd60e51b815260206004820152601f60248201527f4f6e6c792063726561746f722063616e206d6f646966792070726f6a656374006044820152606490fd5b906000929180549161276683612669565b9182825260019384811690816000146127c85750600114612788575b50505050565b90919394506000526020928360002092846000945b8386106127b4575050505001019038808080612782565b80548587018301529401938590820161279d565b9294505050602093945060ff191683830152151560051b01019038808080612782565b9291926001600160401b0382116110b25760405191612814601f8201601f1916602001846123ca565b8294818452818301116102bf578281602093846000960137010152565b1561283857565b60405162461bcd60e51b815260206004820152601d60248201527f416d6f756e74206d7573742062652067726561746572207468616e20300000006044820152606490fd5b919082018092116116b357565b919082039182116116b357565b6001600160401b0381116110b25760051b60200190565b906128b882612897565b6128c560405191826123ca565b82815280926128d6601f1991612897565b0190602036910137565b80518210156128f45760209160051b010190565b634e487b7160e01b600052603260045260246000fdfea2646970667358221220bee75eb4d5572b70c54a14aa01eff922a998621724cf7de103f1ccebf43e9e2564736f6c63430008140033",
  "linkReferences": {},
  "deployedLinkReferences": {}
}